{
  "_format": "hh-sol-artifact-1",
  "contractName": "EticaRelease",
  "sourceName": "contracts/EticaRelease.sol",
  "abi": [
    {
      "inputs": [
        {
          "internalType": "uint256",
          "name": "x",
          "type": "uint256"
        },
        {
          "internalType": "uint256",
          "name": "y",
          "type": "uint256"
        }
      ],
      "name": "PRBMath_MulDiv18_Overflow",
      "type": "error"
    },
    {
      "inputs": [
        {
          "internalType": "UD60x18",
          "name": "x",
          "type": "uint256"
        }
      ],
      "name": "PRBMath_UD60x18_Exp2_InputTooBig",
      "type": "error"
    },
    {
      "inputs": [
        {
          "internalType": "UD60x18",
          "name": "x",
          "type": "uint256"
        }
      ],
      "name": "PRBMath_UD60x18_Log_InputTooSmall",
      "type": "error"
    },
    {
      "anonymous": false,
      "inputs": [
        {
          "indexed": true,
          "internalType": "address",
          "name": "tokenOwner",
          "type": "address"
        },
        {
          "indexed": true,
          "internalType": "address",
          "name": "spender",
          "type": "address"
        },
        {
          "indexed": false,
          "internalType": "uint256",
          "name": "tokens",
          "type": "uint256"
        }
      ],
      "name": "Approval",
      "type": "event"
    },
    {
      "anonymous": false,
      "inputs": [
        {
          "indexed": true,
          "internalType": "uint256",
          "name": "period_id",
          "type": "uint256"
        },
        {
          "indexed": false,
          "internalType": "uint256",
          "name": "interval",
          "type": "uint256"
        }
      ],
      "name": "CreatedPeriod",
      "type": "event"
    },
    {
      "anonymous": false,
      "inputs": [
        {
          "indexed": true,
          "internalType": "address",
          "name": "from",
          "type": "address"
        },
        {
          "indexed": false,
          "internalType": "uint256",
          "name": "blockreward",
          "type": "uint256"
        },
        {
          "indexed": false,
          "internalType": "uint256",
          "name": "epochCount",
          "type": "uint256"
        },
        {
          "indexed": false,
          "internalType": "bytes32",
          "name": "newChallengeNumber",
          "type": "bytes32"
        }
      ],
      "name": "Mint",
      "type": "event"
    },
    {
      "anonymous": false,
      "inputs": [
        {
          "indexed": true,
          "internalType": "uint256",
          "name": "chunkid",
          "type": "uint256"
        },
        {
          "indexed": true,
          "internalType": "bytes32",
          "name": "diseasehash",
          "type": "bytes32"
        }
      ],
      "name": "NewChunk",
      "type": "event"
    },
    {
      "anonymous": false,
      "inputs": [
        {
          "indexed": true,
          "internalType": "address",
          "name": "_voter",
          "type": "address"
        },
        {
          "indexed": false,
          "internalType": "bytes32",
          "name": "votehash",
          "type": "bytes32"
        },
        {
          "indexed": false,
          "internalType": "uint256",
          "name": "amount",
          "type": "uint256"
        }
      ],
      "name": "NewCommit",
      "type": "event"
    },
    {
      "anonymous": false,
      "inputs": [
        {
          "indexed": true,
          "internalType": "uint256",
          "name": "diseaseindex",
          "type": "uint256"
        },
        {
          "indexed": false,
          "internalType": "string",
          "name": "title",
          "type": "string"
        }
      ],
      "name": "NewDisease",
      "type": "event"
    },
    {
      "anonymous": false,
      "inputs": [
        {
          "indexed": true,
          "internalType": "address",
          "name": "voter",
          "type": "address"
        },
        {
          "indexed": false,
          "internalType": "uint256",
          "name": "fee",
          "type": "uint256"
        },
        {
          "indexed": false,
          "internalType": "bytes32",
          "name": "proposal_hash",
          "type": "bytes32"
        }
      ],
      "name": "NewFee",
      "type": "event"
    },
    {
      "anonymous": false,
      "inputs": [
        {
          "indexed": false,
          "internalType": "bytes32",
          "name": "proposed_release_hash",
          "type": "bytes32"
        },
        {
          "indexed": true,
          "internalType": "address",
          "name": "_proposer",
          "type": "address"
        },
        {
          "indexed": true,
          "internalType": "bytes32",
          "name": "diseasehash",
          "type": "bytes32"
        },
        {
          "indexed": true,
          "internalType": "uint256",
          "name": "chunkid",
          "type": "uint256"
        }
      ],
      "name": "NewProposal",
      "type": "event"
    },
    {
      "anonymous": false,
      "inputs": [
        {
          "indexed": true,
          "internalType": "address",
          "name": "_voter",
          "type": "address"
        },
        {
          "indexed": true,
          "internalType": "bytes32",
          "name": "_proposal",
          "type": "bytes32"
        },
        {
          "indexed": false,
          "internalType": "uint256",
          "name": "amount",
          "type": "uint256"
        }
      ],
      "name": "NewRecover",
      "type": "event"
    },
    {
      "anonymous": false,
      "inputs": [
        {
          "indexed": true,
          "internalType": "address",
          "name": "_voter",
          "type": "address"
        },
        {
          "indexed": true,
          "internalType": "bytes32",
          "name": "_proposal",
          "type": "bytes32"
        },
        {
          "indexed": false,
          "internalType": "uint256",
          "name": "amount",
          "type": "uint256"
        }
      ],
      "name": "NewReveal",
      "type": "event"
    },
    {
      "anonymous": false,
      "inputs": [
        {
          "indexed": true,
          "internalType": "address",
          "name": "voter",
          "type": "address"
        },
        {
          "indexed": false,
          "internalType": "uint256",
          "name": "amount",
          "type": "uint256"
        },
        {
          "indexed": false,
          "internalType": "bytes32",
          "name": "proposal_hash",
          "type": "bytes32"
        },
        {
          "indexed": false,
          "internalType": "uint256",
          "name": "duration",
          "type": "uint256"
        }
      ],
      "name": "NewSlash",
      "type": "event"
    },
    {
      "anonymous": false,
      "inputs": [
        {
          "indexed": true,
          "internalType": "address",
          "name": "staker",
          "type": "address"
        },
        {
          "indexed": false,
          "internalType": "uint256",
          "name": "amount",
          "type": "uint256"
        }
      ],
      "name": "NewStake",
      "type": "event"
    },
    {
      "anonymous": false,
      "inputs": [
        {
          "indexed": true,
          "internalType": "address",
          "name": "staker",
          "type": "address"
        },
        {
          "indexed": false,
          "internalType": "uint256",
          "name": "endtime",
          "type": "uint256"
        },
        {
          "indexed": false,
          "internalType": "uint256",
          "name": "minlimit",
          "type": "uint256"
        }
      ],
      "name": "NewStakescsldt",
      "type": "event"
    },
    {
      "anonymous": false,
      "inputs": [
        {
          "indexed": true,
          "internalType": "address",
          "name": "staker",
          "type": "address"
        },
        {
          "indexed": false,
          "internalType": "uint256",
          "name": "snapamount",
          "type": "uint256"
        }
      ],
      "name": "NewStakesnap",
      "type": "event"
    },
    {
      "anonymous": false,
      "inputs": [
        {
          "indexed": true,
          "internalType": "address",
          "name": "voter",
          "type": "address"
        },
        {
          "indexed": false,
          "internalType": "uint256",
          "name": "amount",
          "type": "uint256"
        },
        {
          "indexed": false,
          "internalType": "bytes32",
          "name": "proposal_hash",
          "type": "bytes32"
        }
      ],
      "name": "RewardClaimed",
      "type": "event"
    },
    {
      "anonymous": false,
      "inputs": [
        {
          "indexed": true,
          "internalType": "address",
          "name": "staker",
          "type": "address"
        },
        {
          "indexed": false,
          "internalType": "uint256",
          "name": "stakeamount",
          "type": "uint256"
        }
      ],
      "name": "StakeClaimed",
      "type": "event"
    },
    {
      "anonymous": false,
      "inputs": [
        {
          "indexed": true,
          "internalType": "address",
          "name": "voter",
          "type": "address"
        },
        {
          "indexed": false,
          "internalType": "bytes32",
          "name": "proposal_hash",
          "type": "bytes32"
        }
      ],
      "name": "TieClaimed",
      "type": "event"
    },
    {
      "anonymous": false,
      "inputs": [
        {
          "indexed": true,
          "internalType": "address",
          "name": "from",
          "type": "address"
        },
        {
          "indexed": true,
          "internalType": "address",
          "name": "to",
          "type": "address"
        },
        {
          "indexed": false,
          "internalType": "uint256",
          "name": "tokens",
          "type": "uint256"
        }
      ],
      "name": "Transfer",
      "type": "event"
    },
    {
      "inputs": [],
      "name": "APPROVAL_THRESHOLD",
      "outputs": [
        {
          "internalType": "uint256",
          "name": "",
          "type": "uint256"
        }
      ],
      "stateMutability": "view",
      "type": "function"
    },
    {
      "inputs": [],
      "name": "DEFAULT_EXTRA_TIME",
      "outputs": [
        {
          "internalType": "uint256",
          "name": "",
          "type": "uint256"
        }
      ],
      "stateMutability": "view",
      "type": "function"
    },
    {
      "inputs": [],
      "name": "DEFAULT_REVEALING_TIME",
      "outputs": [
        {
          "internalType": "uint256",
          "name": "",
          "type": "uint256"
        }
      ],
      "stateMutability": "view",
      "type": "function"
    },
    {
      "inputs": [],
      "name": "DEFAULT_VOTING_TIME",
      "outputs": [
        {
          "internalType": "uint256",
          "name": "",
          "type": "uint256"
        }
      ],
      "stateMutability": "view",
      "type": "function"
    },
    {
      "inputs": [],
      "name": "DISEASE_CREATION_AMOUNT",
      "outputs": [
        {
          "internalType": "uint256",
          "name": "",
          "type": "uint256"
        }
      ],
      "stateMutability": "view",
      "type": "function"
    },
    {
      "inputs": [
        {
          "internalType": "uint256",
          "name": "",
          "type": "uint256"
        }
      ],
      "name": "IntervalsPeriods",
      "outputs": [
        {
          "internalType": "uint256",
          "name": "",
          "type": "uint256"
        }
      ],
      "stateMutability": "view",
      "type": "function"
    },
    {
      "inputs": [],
      "name": "IntervalsPeriodsCounter",
      "outputs": [
        {
          "internalType": "uint256",
          "name": "",
          "type": "uint256"
        }
      ],
      "stateMutability": "view",
      "type": "function"
    },
    {
      "inputs": [],
      "name": "LAST_PERIOD_COST_UPDATE",
      "outputs": [
        {
          "internalType": "uint256",
          "name": "",
          "type": "uint256"
        }
      ],
      "stateMutability": "view",
      "type": "function"
    },
    {
      "inputs": [],
      "name": "PERIODS_PER_THRESHOLD",
      "outputs": [
        {
          "internalType": "uint256",
          "name": "",
          "type": "uint256"
        }
      ],
      "stateMutability": "view",
      "type": "function"
    },
    {
      "inputs": [],
      "name": "PERIOD_CURATION_REWARD_RATIO",
      "outputs": [
        {
          "internalType": "uint256",
          "name": "",
          "type": "uint256"
        }
      ],
      "stateMutability": "view",
      "type": "function"
    },
    {
      "inputs": [],
      "name": "PERIOD_EDITOR_REWARD_RATIO",
      "outputs": [
        {
          "internalType": "uint256",
          "name": "",
          "type": "uint256"
        }
      ],
      "stateMutability": "view",
      "type": "function"
    },
    {
      "inputs": [],
      "name": "PROPOSAL_DEFAULT_VOTE",
      "outputs": [
        {
          "internalType": "uint256",
          "name": "",
          "type": "uint256"
        }
      ],
      "stateMutability": "view",
      "type": "function"
    },
    {
      "inputs": [],
      "name": "PROPOSERS_INCREASER",
      "outputs": [
        {
          "internalType": "uint256",
          "name": "",
          "type": "uint256"
        }
      ],
      "stateMutability": "view",
      "type": "function"
    },
    {
      "inputs": [],
      "name": "PROTOCOL_RATIO_TARGET",
      "outputs": [
        {
          "internalType": "uint256",
          "name": "",
          "type": "uint256"
        }
      ],
      "stateMutability": "view",
      "type": "function"
    },
    {
      "inputs": [
        {
          "internalType": "uint256",
          "name": "",
          "type": "uint256"
        }
      ],
      "name": "PeriodsIssued",
      "outputs": [
        {
          "internalType": "uint256",
          "name": "",
          "type": "uint256"
        }
      ],
      "stateMutability": "view",
      "type": "function"
    },
    {
      "inputs": [],
      "name": "PeriodsIssuedCounter",
      "outputs": [
        {
          "internalType": "uint256",
          "name": "",
          "type": "uint256"
        }
      ],
      "stateMutability": "view",
      "type": "function"
    },
    {
      "inputs": [],
      "name": "REWARD_INTERVAL",
      "outputs": [
        {
          "internalType": "uint256",
          "name": "",
          "type": "uint256"
        }
      ],
      "stateMutability": "view",
      "type": "function"
    },
    {
      "inputs": [],
      "name": "SEEDHASH_EPOCH_BLOCKS",
      "outputs": [
        {
          "internalType": "uint256",
          "name": "",
          "type": "uint256"
        }
      ],
      "stateMutability": "view",
      "type": "function"
    },
    {
      "inputs": [],
      "name": "SEVERITY_LEVEL",
      "outputs": [
        {
          "internalType": "uint256",
          "name": "",
          "type": "uint256"
        }
      ],
      "stateMutability": "view",
      "type": "function"
    },
    {
      "inputs": [],
      "name": "STAKING_DURATION",
      "outputs": [
        {
          "internalType": "uint256",
          "name": "",
          "type": "uint256"
        }
      ],
      "stateMutability": "view",
      "type": "function"
    },
    {
      "inputs": [],
      "name": "UNRECOVERABLE_ETI",
      "outputs": [
        {
          "internalType": "uint256",
          "name": "",
          "type": "uint256"
        }
      ],
      "stateMutability": "view",
      "type": "function"
    },
    {
      "inputs": [],
      "name": "UPDATEDV2",
      "outputs": [
        {
          "internalType": "bool",
          "name": "",
          "type": "bool"
        }
      ],
      "stateMutability": "view",
      "type": "function"
    },
    {
      "inputs": [],
      "name": "UPDATEDV3",
      "outputs": [
        {
          "internalType": "bool",
          "name": "",
          "type": "bool"
        }
      ],
      "stateMutability": "view",
      "type": "function"
    },
    {
      "inputs": [],
      "name": "UPDATEDV4",
      "outputs": [
        {
          "internalType": "bool",
          "name": "",
          "type": "bool"
        }
      ],
      "stateMutability": "view",
      "type": "function"
    },
    {
      "inputs": [],
      "name": "UPDATEDV5",
      "outputs": [
        {
          "internalType": "bool",
          "name": "",
          "type": "bool"
        }
      ],
      "stateMutability": "view",
      "type": "function"
    },
    {
      "inputs": [],
      "name": "_BLOCKS_PER_READJUSTMENT",
      "outputs": [
        {
          "internalType": "uint256",
          "name": "",
          "type": "uint256"
        }
      ],
      "stateMutability": "view",
      "type": "function"
    },
    {
      "inputs": [],
      "name": "_MAXIMUM_TARGET",
      "outputs": [
        {
          "internalType": "uint256",
          "name": "",
          "type": "uint256"
        }
      ],
      "stateMutability": "view",
      "type": "function"
    },
    {
      "inputs": [],
      "name": "_MINIMUM_TARGET",
      "outputs": [
        {
          "internalType": "uint256",
          "name": "",
          "type": "uint256"
        }
      ],
      "stateMutability": "view",
      "type": "function"
    },
    {
      "inputs": [],
      "name": "_totalMiningSupply",
      "outputs": [
        {
          "internalType": "uint256",
          "name": "",
          "type": "uint256"
        }
      ],
      "stateMutability": "view",
      "type": "function"
    },
    {
      "inputs": [],
      "name": "accessibleSupply",
      "outputs": [
        {
          "internalType": "uint256",
          "name": "",
          "type": "uint256"
        }
      ],
      "stateMutability": "view",
      "type": "function"
    },
    {
      "inputs": [
        {
          "internalType": "address",
          "name": "tokenOwner",
          "type": "address"
        },
        {
          "internalType": "address",
          "name": "spender",
          "type": "address"
        }
      ],
      "name": "allowance",
      "outputs": [
        {
          "internalType": "uint256",
          "name": "",
          "type": "uint256"
        }
      ],
      "stateMutability": "view",
      "type": "function"
    },
    {
      "inputs": [
        {
          "internalType": "address",
          "name": "spender",
          "type": "address"
        },
        {
          "internalType": "uint256",
          "name": "tokens",
          "type": "uint256"
        }
      ],
      "name": "approve",
      "outputs": [
        {
          "internalType": "bool",
          "name": "",
          "type": "bool"
        }
      ],
      "stateMutability": "nonpayable",
      "type": "function"
    },
    {
      "inputs": [
        {
          "internalType": "address",
          "name": "tokenOwner",
          "type": "address"
        }
      ],
      "name": "balanceOf",
      "outputs": [
        {
          "internalType": "uint256",
          "name": "balance",
          "type": "uint256"
        }
      ],
      "stateMutability": "view",
      "type": "function"
    },
    {
      "inputs": [
        {
          "internalType": "address",
          "name": "",
          "type": "address"
        }
      ],
      "name": "balances",
      "outputs": [
        {
          "internalType": "uint256",
          "name": "",
          "type": "uint256"
        }
      ],
      "stateMutability": "view",
      "type": "function"
    },
    {
      "inputs": [
        {
          "internalType": "address",
          "name": "",
          "type": "address"
        }
      ],
      "name": "blockedeticas",
      "outputs": [
        {
          "internalType": "uint256",
          "name": "",
          "type": "uint256"
        }
      ],
      "stateMutability": "view",
      "type": "function"
    },
    {
      "inputs": [],
      "name": "blockreward",
      "outputs": [
        {
          "internalType": "uint256",
          "name": "",
          "type": "uint256"
        }
      ],
      "stateMutability": "view",
      "type": "function"
    },
    {
      "inputs": [
        {
          "internalType": "address",
          "name": "",
          "type": "address"
        }
      ],
      "name": "bosoms",
      "outputs": [
        {
          "internalType": "uint256",
          "name": "",
          "type": "uint256"
        }
      ],
      "stateMutability": "view",
      "type": "function"
    },
    {
      "inputs": [
        {
          "internalType": "address",
          "name": "tokenOwner",
          "type": "address"
        }
      ],
      "name": "bosomsOf",
      "outputs": [
        {
          "internalType": "uint256",
          "name": "_bosoms",
          "type": "uint256"
        }
      ],
      "stateMutability": "view",
      "type": "function"
    },
    {
      "inputs": [],
      "name": "challengeNumber",
      "outputs": [
        {
          "internalType": "bytes32",
          "name": "",
          "type": "bytes32"
        }
      ],
      "stateMutability": "view",
      "type": "function"
    },
    {
      "inputs": [
        {
          "internalType": "bytes",
          "name": "blockHeader",
          "type": "bytes"
        },
        {
          "internalType": "bytes32",
          "name": "currentChallenge",
          "type": "bytes32"
        },
        {
          "internalType": "uint256",
          "name": "claimedTarget",
          "type": "uint256"
        },
        {
          "internalType": "bytes",
          "name": "seedHash",
          "type": "bytes"
        }
      ],
      "name": "checkMintRandomxInputs",
      "outputs": [
        {
          "internalType": "bool",
          "name": "isValid",
          "type": "bool"
        },
        {
          "internalType": "string",
          "name": "errorMessage",
          "type": "string"
        }
      ],
      "stateMutability": "view",
      "type": "function"
    },
    {
      "inputs": [
        {
          "internalType": "uint256",
          "name": "nonce",
          "type": "uint256"
        },
        {
          "internalType": "bytes32",
          "name": "challenge_digest",
          "type": "bytes32"
        },
        {
          "internalType": "bytes32",
          "name": "challenge_number",
          "type": "bytes32"
        },
        {
          "internalType": "uint256",
          "name": "testTarget",
          "type": "uint256"
        }
      ],
      "name": "checkMintSolution",
      "outputs": [
        {
          "internalType": "bool",
          "name": "success",
          "type": "bool"
        }
      ],
      "stateMutability": "view",
      "type": "function"
    },
    {
      "inputs": [
        {
          "internalType": "uint256",
          "name": "",
          "type": "uint256"
        }
      ],
      "name": "chunkProposalsCounter",
      "outputs": [
        {
          "internalType": "uint256",
          "name": "",
          "type": "uint256"
        }
      ],
      "stateMutability": "view",
      "type": "function"
    },
    {
      "inputs": [
        {
          "internalType": "uint256",
          "name": "",
          "type": "uint256"
        },
        {
          "internalType": "uint256",
          "name": "",
          "type": "uint256"
        }
      ],
      "name": "chunkproposals",
      "outputs": [
        {
          "internalType": "bytes32",
          "name": "",
          "type": "bytes32"
        }
      ],
      "stateMutability": "view",
      "type": "function"
    },
    {
      "inputs": [
        {
          "internalType": "uint256",
          "name": "",
          "type": "uint256"
        }
      ],
      "name": "chunks",
      "outputs": [
        {
          "internalType": "uint256",
          "name": "id",
          "type": "uint256"
        },
        {
          "internalType": "bytes32",
          "name": "diseaseid",
          "type": "bytes32"
        },
        {
          "internalType": "uint256",
          "name": "idx",
          "type": "uint256"
        },
        {
          "internalType": "string",
          "name": "title",
          "type": "string"
        },
        {
          "internalType": "string",
          "name": "desc",
          "type": "string"
        }
      ],
      "stateMutability": "view",
      "type": "function"
    },
    {
      "inputs": [],
      "name": "chunksCounter",
      "outputs": [
        {
          "internalType": "uint256",
          "name": "",
          "type": "uint256"
        }
      ],
      "stateMutability": "view",
      "type": "function"
    },
    {
      "inputs": [
        {
          "internalType": "bytes32",
          "name": "_proposed_release_hash",
          "type": "bytes32"
        }
      ],
      "name": "clmpropbyhash",
      "outputs": [],
      "stateMutability": "nonpayable",
      "type": "function"
    },
    {
      "inputs": [
        {
          "internalType": "address",
          "name": "",
          "type": "address"
        },
        {
          "internalType": "bytes32",
          "name": "",
          "type": "bytes32"
        }
      ],
      "name": "commits",
      "outputs": [
        {
          "internalType": "uint256",
          "name": "amount",
          "type": "uint256"
        },
        {
          "internalType": "uint256",
          "name": "timestamp",
          "type": "uint256"
        }
      ],
      "stateMutability": "view",
      "type": "function"
    },
    {
      "inputs": [
        {
          "internalType": "uint256",
          "name": "_amount",
          "type": "uint256"
        },
        {
          "internalType": "bytes32",
          "name": "_votehash",
          "type": "bytes32"
        }
      ],
      "name": "commitvote",
      "outputs": [],
      "stateMutability": "nonpayable",
      "type": "function"
    },
    {
      "inputs": [
        {
          "internalType": "bytes32",
          "name": "_diseasehash",
          "type": "bytes32"
        },
        {
          "internalType": "string",
          "name": "_title",
          "type": "string"
        },
        {
          "internalType": "string",
          "name": "_description",
          "type": "string"
        }
      ],
      "name": "createchunk",
      "outputs": [],
      "stateMutability": "nonpayable",
      "type": "function"
    },
    {
      "inputs": [
        {
          "internalType": "string",
          "name": "_name",
          "type": "string"
        }
      ],
      "name": "createdisease",
      "outputs": [],
      "stateMutability": "nonpayable",
      "type": "function"
    },
    {
      "inputs": [],
      "name": "decimals",
      "outputs": [
        {
          "internalType": "uint256",
          "name": "",
          "type": "uint256"
        }
      ],
      "stateMutability": "view",
      "type": "function"
    },
    {
      "inputs": [
        {
          "internalType": "bytes32",
          "name": "",
          "type": "bytes32"
        }
      ],
      "name": "diseaseChunksCounter",
      "outputs": [
        {
          "internalType": "uint256",
          "name": "",
          "type": "uint256"
        }
      ],
      "stateMutability": "view",
      "type": "function"
    },
    {
      "inputs": [
        {
          "internalType": "bytes32",
          "name": "",
          "type": "bytes32"
        }
      ],
      "name": "diseaseProposalsCounter",
      "outputs": [
        {
          "internalType": "uint256",
          "name": "",
          "type": "uint256"
        }
      ],
      "stateMutability": "view",
      "type": "function"
    },
    {
      "inputs": [
        {
          "internalType": "bytes32",
          "name": "",
          "type": "bytes32"
        },
        {
          "internalType": "uint256",
          "name": "",
          "type": "uint256"
        }
      ],
      "name": "diseasechunks",
      "outputs": [
        {
          "internalType": "uint256",
          "name": "",
          "type": "uint256"
        }
      ],
      "stateMutability": "view",
      "type": "function"
    },
    {
      "inputs": [
        {
          "internalType": "bytes32",
          "name": "",
          "type": "bytes32"
        },
        {
          "internalType": "uint256",
          "name": "",
          "type": "uint256"
        }
      ],
      "name": "diseaseproposals",
      "outputs": [
        {
          "internalType": "bytes32",
          "name": "",
          "type": "bytes32"
        }
      ],
      "stateMutability": "view",
      "type": "function"
    },
    {
      "inputs": [
        {
          "internalType": "uint256",
          "name": "",
          "type": "uint256"
        }
      ],
      "name": "diseases",
      "outputs": [
        {
          "internalType": "bytes32",
          "name": "disease_hash",
          "type": "bytes32"
        },
        {
          "internalType": "string",
          "name": "name",
          "type": "string"
        }
      ],
      "stateMutability": "view",
      "type": "function"
    },
    {
      "inputs": [],
      "name": "diseasesCounter",
      "outputs": [
        {
          "internalType": "uint256",
          "name": "",
          "type": "uint256"
        }
      ],
      "stateMutability": "view",
      "type": "function"
    },
    {
      "inputs": [
        {
          "internalType": "bytes32",
          "name": "",
          "type": "bytes32"
        }
      ],
      "name": "diseasesbyIds",
      "outputs": [
        {
          "internalType": "uint256",
          "name": "",
          "type": "uint256"
        }
      ],
      "stateMutability": "view",
      "type": "function"
    },
    {
      "inputs": [],
      "name": "epochCount",
      "outputs": [
        {
          "internalType": "uint256",
          "name": "",
          "type": "uint256"
        }
      ],
      "stateMutability": "view",
      "type": "function"
    },
    {
      "inputs": [
        {
          "internalType": "address",
          "name": "_staker",
          "type": "address"
        },
        {
          "internalType": "uint256",
          "name": "_amount",
          "type": "uint256"
        }
      ],
      "name": "eticatobosoms",
      "outputs": [
        {
          "internalType": "bool",
          "name": "success",
          "type": "bool"
        }
      ],
      "stateMutability": "nonpayable",
      "type": "function"
    },
    {
      "inputs": [],
      "name": "getChallengeNumber",
      "outputs": [
        {
          "internalType": "bytes32",
          "name": "",
          "type": "bytes32"
        }
      ],
      "stateMutability": "view",
      "type": "function"
    },
    {
      "inputs": [],
      "name": "getMiningDifficulty",
      "outputs": [
        {
          "internalType": "uint256",
          "name": "",
          "type": "uint256"
        }
      ],
      "stateMutability": "view",
      "type": "function"
    },
    {
      "inputs": [],
      "name": "getMiningReward",
      "outputs": [
        {
          "internalType": "uint256",
          "name": "",
          "type": "uint256"
        }
      ],
      "stateMutability": "view",
      "type": "function"
    },
    {
      "inputs": [],
      "name": "getMiningTarget",
      "outputs": [
        {
          "internalType": "uint256",
          "name": "",
          "type": "uint256"
        }
      ],
      "stateMutability": "view",
      "type": "function"
    },
    {
      "inputs": [
        {
          "internalType": "uint256",
          "name": "nonce",
          "type": "uint256"
        },
        {
          "internalType": "bytes32",
          "name": "challenge_digest",
          "type": "bytes32"
        },
        {
          "internalType": "bytes32",
          "name": "challenge_number",
          "type": "bytes32"
        }
      ],
      "name": "getMintDigest",
      "outputs": [
        {
          "internalType": "bytes32",
          "name": "digesttest",
          "type": "bytes32"
        }
      ],
      "stateMutability": "view",
      "type": "function"
    },
    {
      "inputs": [
        {
          "internalType": "string",
          "name": "_name",
          "type": "string"
        }
      ],
      "name": "getdiseasehashbyName",
      "outputs": [
        {
          "internalType": "bytes32",
          "name": "_diseasehash",
          "type": "bytes32"
        }
      ],
      "stateMutability": "view",
      "type": "function"
    },
    {
      "inputs": [],
      "name": "inflationrate",
      "outputs": [
        {
          "internalType": "uint256",
          "name": "",
          "type": "uint256"
        }
      ],
      "stateMutability": "view",
      "type": "function"
    },
    {
      "inputs": [],
      "name": "initiatormsg",
      "outputs": [
        {
          "internalType": "string",
          "name": "",
          "type": "string"
        }
      ],
      "stateMutability": "view",
      "type": "function"
    },
    {
      "inputs": [],
      "name": "lastRewardEthBlockNumber",
      "outputs": [
        {
          "internalType": "uint256",
          "name": "",
          "type": "uint256"
        }
      ],
      "stateMutability": "view",
      "type": "function"
    },
    {
      "inputs": [],
      "name": "lastRewardTo",
      "outputs": [
        {
          "internalType": "address",
          "name": "",
          "type": "address"
        }
      ],
      "stateMutability": "view",
      "type": "function"
    },
    {
      "inputs": [],
      "name": "latestDifficultyPeriodStarted",
      "outputs": [
        {
          "internalType": "uint256",
          "name": "",
          "type": "uint256"
        }
      ],
      "stateMutability": "view",
      "type": "function"
    },
    {
      "inputs": [],
      "name": "miningTarget",
      "outputs": [
        {
          "internalType": "uint256",
          "name": "",
          "type": "uint256"
        }
      ],
      "stateMutability": "view",
      "type": "function"
    },
    {
      "inputs": [
        {
          "internalType": "uint256",
          "name": "nonce",
          "type": "uint256"
        },
        {
          "internalType": "bytes32",
          "name": "challenge_digest",
          "type": "bytes32"
        }
      ],
      "name": "mint",
      "outputs": [
        {
          "internalType": "bool",
          "name": "success",
          "type": "bool"
        }
      ],
      "stateMutability": "nonpayable",
      "type": "function"
    },
    {
      "inputs": [
        {
          "internalType": "bytes4",
          "name": "nonce",
          "type": "bytes4"
        },
        {
          "internalType": "bytes",
          "name": "blockHeader",
          "type": "bytes"
        },
        {
          "internalType": "bytes32",
          "name": "currentChallenge",
          "type": "bytes32"
        },
        {
          "internalType": "bytes",
          "name": "randomxHash",
          "type": "bytes"
        },
        {
          "internalType": "uint256",
          "name": "claimedTarget",
          "type": "uint256"
        },
        {
          "internalType": "bytes",
          "name": "seedHash",
          "type": "bytes"
        },
        {
          "internalType": "bytes8",
          "name": "extraNonce",
          "type": "bytes8"
        }
      ],
      "name": "mintrandomX",
      "outputs": [
        {
          "internalType": "bool",
          "name": "success",
          "type": "bool"
        }
      ],
      "stateMutability": "nonpayable",
      "type": "function"
    },
    {
      "inputs": [],
      "name": "name",
      "outputs": [
        {
          "internalType": "string",
          "name": "",
          "type": "string"
        }
      ],
      "stateMutability": "view",
      "type": "function"
    },
    {
      "inputs": [
        {
          "internalType": "address",
          "name": "",
          "type": "address"
        }
      ],
      "name": "networkGuardAddresses",
      "outputs": [
        {
          "internalType": "bool",
          "name": "",
          "type": "bool"
        }
      ],
      "stateMutability": "view",
      "type": "function"
    },
    {
      "inputs": [],
      "name": "periodrewardtemp",
      "outputs": [
        {
          "internalType": "uint256",
          "name": "",
          "type": "uint256"
        }
      ],
      "stateMutability": "view",
      "type": "function"
    },
    {
      "inputs": [
        {
          "internalType": "uint256",
          "name": "",
          "type": "uint256"
        }
      ],
      "name": "periods",
      "outputs": [
        {
          "internalType": "uint256",
          "name": "id",
          "type": "uint256"
        },
        {
          "internalType": "uint256",
          "name": "interval",
          "type": "uint256"
        },
        {
          "internalType": "uint256",
          "name": "curation_sum",
          "type": "uint256"
        },
        {
          "internalType": "uint256",
          "name": "editor_sum",
          "type": "uint256"
        },
        {
          "internalType": "uint256",
          "name": "reward_for_curation",
          "type": "uint256"
        },
        {
          "internalType": "uint256",
          "name": "reward_for_editor",
          "type": "uint256"
        },
        {
          "internalType": "uint256",
          "name": "forprops",
          "type": "uint256"
        },
        {
          "internalType": "uint256",
          "name": "againstprops",
          "type": "uint256"
        }
      ],
      "stateMutability": "view",
      "type": "function"
    },
    {
      "inputs": [],
      "name": "periodsCounter",
      "outputs": [
        {
          "internalType": "uint256",
          "name": "",
          "type": "uint256"
        }
      ],
      "stateMutability": "view",
      "type": "function"
    },
    {
      "inputs": [
        {
          "internalType": "bytes32",
          "name": "",
          "type": "bytes32"
        }
      ],
      "name": "proposals",
      "outputs": [
        {
          "internalType": "uint256",
          "name": "id",
          "type": "uint256"
        },
        {
          "internalType": "bytes32",
          "name": "proposed_release_hash",
          "type": "bytes32"
        },
        {
          "internalType": "bytes32",
          "name": "disease_id",
          "type": "bytes32"
        },
        {
          "internalType": "uint256",
          "name": "period_id",
          "type": "uint256"
        },
        {
          "internalType": "uint256",
          "name": "chunk_id",
          "type": "uint256"
        },
        {
          "internalType": "address",
          "name": "proposer",
          "type": "address"
        },
        {
          "internalType": "string",
          "name": "title",
          "type": "string"
        },
        {
          "internalType": "string",
          "name": "description",
          "type": "string"
        },
        {
          "internalType": "string",
          "name": "freefield",
          "type": "string"
        },
        {
          "internalType": "string",
          "name": "raw_release_hash",
          "type": "string"
        }
      ],
      "stateMutability": "view",
      "type": "function"
    },
    {
      "inputs": [],
      "name": "proposalsCounter",
      "outputs": [
        {
          "internalType": "uint256",
          "name": "",
          "type": "uint256"
        }
      ],
      "stateMutability": "view",
      "type": "function"
    },
    {
      "inputs": [
        {
          "internalType": "uint256",
          "name": "",
          "type": "uint256"
        }
      ],
      "name": "proposalsbyIndex",
      "outputs": [
        {
          "internalType": "bytes32",
          "name": "",
          "type": "bytes32"
        }
      ],
      "stateMutability": "view",
      "type": "function"
    },
    {
      "inputs": [
        {
          "internalType": "bytes32",
          "name": "_diseasehash",
          "type": "bytes32"
        },
        {
          "internalType": "string",
          "name": "_title",
          "type": "string"
        },
        {
          "internalType": "string",
          "name": "_description",
          "type": "string"
        },
        {
          "internalType": "string",
          "name": "raw_release_hash",
          "type": "string"
        },
        {
          "internalType": "string",
          "name": "_freefield",
          "type": "string"
        },
        {
          "internalType": "uint256",
          "name": "_chunkid",
          "type": "uint256"
        }
      ],
      "name": "propose",
      "outputs": [],
      "stateMutability": "nonpayable",
      "type": "function"
    },
    {
      "inputs": [
        {
          "internalType": "bytes32",
          "name": "",
          "type": "bytes32"
        }
      ],
      "name": "propsdatas",
      "outputs": [
        {
          "internalType": "uint256",
          "name": "starttime",
          "type": "uint256"
        },
        {
          "internalType": "uint256",
          "name": "endtime",
          "type": "uint256"
        },
        {
          "internalType": "uint256",
          "name": "finalized_time",
          "type": "uint256"
        },
        {
          "internalType": "enum EticaRelease.ProposalStatus",
          "name": "status",
          "type": "uint8"
        },
        {
          "internalType": "enum EticaRelease.ProposalStatus",
          "name": "prestatus",
          "type": "uint8"
        },
        {
          "internalType": "bool",
          "name": "istie",
          "type": "bool"
        },
        {
          "internalType": "uint256",
          "name": "nbvoters",
          "type": "uint256"
        },
        {
          "internalType": "uint256",
          "name": "slashingratio",
          "type": "uint256"
        },
        {
          "internalType": "uint256",
          "name": "forvotes",
          "type": "uint256"
        },
        {
          "internalType": "uint256",
          "name": "againstvotes",
          "type": "uint256"
        },
        {
          "internalType": "uint256",
          "name": "lastcuration_weight",
          "type": "uint256"
        },
        {
          "internalType": "uint256",
          "name": "lasteditor_weight",
          "type": "uint256"
        },
        {
          "internalType": "uint256",
          "name": "approvalthreshold",
          "type": "uint256"
        }
      ],
      "stateMutability": "view",
      "type": "function"
    },
    {
      "inputs": [
        {
          "internalType": "address",
          "name": "",
          "type": "address"
        },
        {
          "internalType": "bytes32",
          "name": "",
          "type": "bytes32"
        }
      ],
      "name": "qamounts",
      "outputs": [
        {
          "internalType": "uint256",
          "name": "amount",
          "type": "uint256"
        }
      ],
      "stateMutability": "view",
      "type": "function"
    },
    {
      "inputs": [],
      "name": "randomxBlob",
      "outputs": [
        {
          "internalType": "bytes",
          "name": "",
          "type": "bytes"
        }
      ],
      "stateMutability": "view",
      "type": "function"
    },
    {
      "inputs": [],
      "name": "randomxBlobfirstpart",
      "outputs": [
        {
          "internalType": "bytes32",
          "name": "",
          "type": "bytes32"
        }
      ],
      "stateMutability": "view",
      "type": "function"
    },
    {
      "inputs": [
        {
          "internalType": "bytes32",
          "name": "",
          "type": "bytes32"
        },
        {
          "internalType": "bytes32",
          "name": "",
          "type": "bytes32"
        }
      ],
      "name": "randomxSealSolutions",
      "outputs": [
        {
          "internalType": "bytes32",
          "name": "",
          "type": "bytes32"
        }
      ],
      "stateMutability": "view",
      "type": "function"
    },
    {
      "inputs": [],
      "name": "randomxSeedhash",
      "outputs": [
        {
          "internalType": "bytes",
          "name": "",
          "type": "bytes"
        }
      ],
      "stateMutability": "view",
      "type": "function"
    },
    {
      "inputs": [
        {
          "internalType": "bytes32",
          "name": "_proposed_release_hash",
          "type": "bytes32"
        },
        {
          "internalType": "bool",
          "name": "_approved",
          "type": "bool"
        },
        {
          "internalType": "string",
          "name": "_vary",
          "type": "string"
        }
      ],
      "name": "recovercommit",
      "outputs": [],
      "stateMutability": "nonpayable",
      "type": "function"
    },
    {
      "inputs": [
        {
          "internalType": "bytes32",
          "name": "_votehash",
          "type": "bytes32"
        }
      ],
      "name": "recoverlostcommit",
      "outputs": [],
      "stateMutability": "nonpayable",
      "type": "function"
    },
    {
      "inputs": [],
      "name": "researchMinted",
      "outputs": [
        {
          "internalType": "uint256",
          "name": "",
          "type": "uint256"
        }
      ],
      "stateMutability": "view",
      "type": "function"
    },
    {
      "inputs": [
        {
          "internalType": "bytes32",
          "name": "_proposed_release_hash",
          "type": "bytes32"
        },
        {
          "internalType": "bool",
          "name": "_approved",
          "type": "bool"
        },
        {
          "internalType": "string",
          "name": "_vary",
          "type": "string"
        }
      ],
      "name": "revealvote",
      "outputs": [],
      "stateMutability": "nonpayable",
      "type": "function"
    },
    {
      "inputs": [
        {
          "internalType": "uint256",
          "name": "_stakeidx",
          "type": "uint256"
        }
      ],
      "name": "stakeclmidx",
      "outputs": [],
      "stateMutability": "nonpayable",
      "type": "function"
    },
    {
      "inputs": [
        {
          "internalType": "address",
          "name": "",
          "type": "address"
        },
        {
          "internalType": "uint256",
          "name": "",
          "type": "uint256"
        }
      ],
      "name": "stakes",
      "outputs": [
        {
          "internalType": "uint256",
          "name": "amount",
          "type": "uint256"
        },
        {
          "internalType": "uint256",
          "name": "endTime",
          "type": "uint256"
        }
      ],
      "stateMutability": "view",
      "type": "function"
    },
    {
      "inputs": [
        {
          "internalType": "address",
          "name": "",
          "type": "address"
        }
      ],
      "name": "stakesAmount",
      "outputs": [
        {
          "internalType": "uint256",
          "name": "",
          "type": "uint256"
        }
      ],
      "stateMutability": "view",
      "type": "function"
    },
    {
      "inputs": [
        {
          "internalType": "address",
          "name": "",
          "type": "address"
        }
      ],
      "name": "stakesCounters",
      "outputs": [
        {
          "internalType": "uint256",
          "name": "",
          "type": "uint256"
        }
      ],
      "stateMutability": "view",
      "type": "function"
    },
    {
      "inputs": [
        {
          "internalType": "address",
          "name": "_staker",
          "type": "address"
        }
      ],
      "name": "stakescount",
      "outputs": [
        {
          "internalType": "uint256",
          "name": "slength",
          "type": "uint256"
        }
      ],
      "stateMutability": "view",
      "type": "function"
    },
    {
      "inputs": [
        {
          "internalType": "uint256",
          "name": "_endTime",
          "type": "uint256"
        },
        {
          "internalType": "uint256",
          "name": "_min_limit",
          "type": "uint256"
        },
        {
          "internalType": "uint256",
          "name": "_maxidx",
          "type": "uint256"
        }
      ],
      "name": "stakescsldt",
      "outputs": [],
      "stateMutability": "nonpayable",
      "type": "function"
    },
    {
      "inputs": [
        {
          "internalType": "uint256",
          "name": "_stakeidx",
          "type": "uint256"
        },
        {
          "internalType": "uint256",
          "name": "_snapamount",
          "type": "uint256"
        }
      ],
      "name": "stakesnap",
      "outputs": [],
      "stateMutability": "nonpayable",
      "type": "function"
    },
    {
      "inputs": [],
      "name": "supply",
      "outputs": [
        {
          "internalType": "uint256",
          "name": "",
          "type": "uint256"
        }
      ],
      "stateMutability": "view",
      "type": "function"
    },
    {
      "inputs": [],
      "name": "symbol",
      "outputs": [
        {
          "internalType": "string",
          "name": "",
          "type": "string"
        }
      ],
      "stateMutability": "view",
      "type": "function"
    },
    {
      "inputs": [],
      "name": "tokensMinted",
      "outputs": [
        {
          "internalType": "uint256",
          "name": "",
          "type": "uint256"
        }
      ],
      "stateMutability": "view",
      "type": "function"
    },
    {
      "inputs": [],
      "name": "totalSupply",
      "outputs": [
        {
          "internalType": "uint256",
          "name": "",
          "type": "uint256"
        }
      ],
      "stateMutability": "view",
      "type": "function"
    },
    {
      "inputs": [
        {
          "internalType": "address",
          "name": "to",
          "type": "address"
        },
        {
          "internalType": "uint256",
          "name": "tokens",
          "type": "uint256"
        }
      ],
      "name": "transfer",
      "outputs": [
        {
          "internalType": "bool",
          "name": "success",
          "type": "bool"
        }
      ],
      "stateMutability": "nonpayable",
      "type": "function"
    },
    {
      "inputs": [
        {
          "internalType": "address",
          "name": "from",
          "type": "address"
        },
        {
          "internalType": "address",
          "name": "to",
          "type": "address"
        },
        {
          "internalType": "uint256",
          "name": "tokens",
          "type": "uint256"
        }
      ],
      "name": "transferFrom",
      "outputs": [
        {
          "internalType": "bool",
          "name": "",
          "type": "bool"
        }
      ],
      "stateMutability": "nonpayable",
      "type": "function"
    },
    {
      "inputs": [],
      "name": "updatecost",
      "outputs": [
        {
          "internalType": "bool",
          "name": "success",
          "type": "bool"
        }
      ],
      "stateMutability": "nonpayable",
      "type": "function"
    },
    {
      "inputs": [],
      "name": "updatev2",
      "outputs": [],
      "stateMutability": "nonpayable",
      "type": "function"
    },
    {
      "inputs": [],
      "name": "updatev3",
      "outputs": [],
      "stateMutability": "nonpayable",
      "type": "function"
    },
    {
      "inputs": [],
      "name": "updatev4",
      "outputs": [],
      "stateMutability": "nonpayable",
      "type": "function"
    },
    {
      "inputs": [],
      "name": "updatev5",
      "outputs": [],
      "stateMutability": "nonpayable",
      "type": "function"
    },
    {
      "inputs": [
        {
          "internalType": "bytes32",
          "name": "",
          "type": "bytes32"
        },
        {
          "internalType": "address",
          "name": "",
          "type": "address"
        }
      ],
      "name": "votes",
      "outputs": [
        {
          "internalType": "bytes32",
          "name": "proposal_hash",
          "type": "bytes32"
        },
        {
          "internalType": "bool",
          "name": "approve",
          "type": "bool"
        },
        {
          "internalType": "bool",
          "name": "is_editor",
          "type": "bool"
        },
        {
          "internalType": "uint256",
          "name": "amount",
          "type": "uint256"
        },
        {
          "internalType": "address",
          "name": "voter",
          "type": "address"
        },
        {
          "internalType": "uint256",
          "name": "timestamp",
          "type": "uint256"
        },
        {
          "internalType": "bool",
          "name": "is_claimed",
          "type": "bool"
        }
      ],
      "stateMutability": "view",
      "type": "function"
    },
    {
      "stateMutability": "payable",
      "type": "receive"
    }
  ],
  "bytecode": "0x60c06040526005608090815264457469636160d81b60a0526000906200002690826200055e565b5060408051808201909152600381526245544960e81b60208201526001906200005090826200055e565b5060126002556408e4b1e125600655640e63c506db6007556107e0600e556004600f55600160e01b60105562093a806019556224ea00601a55621baf80601b5562093a80601c55600254600a620000a891906200073d565b620000b59060646200074b565b601d55600254620000c890600a6200073d565b620000d590600a6200074b565b601e55611388601f55600560205560016021819055602255611824602355600060248190556043805460ff1990811690915562093a80604455604580548216905561019a604955604b805482169055604d80549091169055604e553480156200013d57600080fd5b5068056bc75e2d631000006003819055306000908152600960205260409020546200016891620001e3565b3060009081526009602052604090205568da5351938e7eb5b95c6005556002546200019590600a6200073d565b620001a49062b03d306200074b565b600b5560006017556801f30795e38ed87acc60135560105460115542600c55620001cd62000207565b6b1004c20e49aa3240785fcad2600455620007d5565b6000620001f1828462000765565b9050828110156200020157600080fd5b92915050565b600d5462000217906001620001e3565b600d819055600e546200022a9162000791565b6000036200023c576200023c6200028c565b6200024943600162000448565b406012819055601854600d54604080516020810194909452830191909152606082015260800160408051601f198184030181529190528051602090910120601255565b601154600c54600090620002a290429062000448565b600e54909150600090620002b9906102586200046b565b90508082101562000370576000620002e083620002d9846103e86200046b565b906200049d565b9050610fa0811115620002f25750610fa05b60105462000303906103e86200049d565b60115410156200032e5760115462000325908290620002d9906103e86200046b565b60115562000341565b6010546200033d90826200049d565b6011555b6200034e8460046200049d565b60115410156200036957620003658460046200049d565b6011555b5062000417565b60006200038582620002d9856103e86200046b565b9050610fa0811115620003975750610fa05b601054620003a690826200049d565b60115411620003d057601154620003c7906103e890620002d990846200046b565b601155620003d7565b6010546011555b620003e660001960046200049d565b84116200041557620003fa8460046200046b565b60115411156200041557620004118460046200046b565b6011555b505b42600c55600f5460115410156200042f57600f546011555b601054601154111562000443576010546011555b505050565b6000828211156200045857600080fd5b620004648284620007a8565b9392505050565b60006200047982846200074b565b905082158062000493575081620004918483620007be565b145b6200020157600080fd5b6000808211620004ac57600080fd5b620004648284620007be565b634e487b7160e01b600052604160045260246000fd5b600181811c90821680620004e357607f821691505b6020821081036200050457634e487b7160e01b600052602260045260246000fd5b50919050565b601f82111562000443576000816000526020600020601f850160051c81016020861015620005355750805b601f850160051c820191505b81811015620005565782815560010162000541565b505050505050565b81516001600160401b038111156200057a576200057a620004b8565b62000592816200058b8454620004ce565b846200050a565b602080601f831160018114620005ca5760008415620005b15750858301515b600019600386901b1c1916600185901b17855562000556565b600085815260208120601f198616915b82811015620005fb57888601518255948401946001909101908401620005da565b50858210156200061a5787850151600019600388901b60f8161c191681555b5050505050600190811b01905550565b634e487b7160e01b600052601160045260246000fd5b600181815b80851115620006815781600019048211156200066557620006656200062a565b808516156200067357918102915b93841c939080029062000645565b509250929050565b6000826200069a5750600162000201565b81620006a95750600062000201565b8160018114620006c25760028114620006cd57620006ed565b600191505062000201565b60ff841115620006e157620006e16200062a565b50506001821b62000201565b5060208310610133831016604e8410600b841016171562000712575081810a62000201565b6200071e838362000640565b80600019048211156200073557620007356200062a565b029392505050565b600062000464838362000689565b80820281158282048414176200020157620002016200062a565b808201808211156200020157620002016200062a565b634e487b7160e01b600052601260045260246000fd5b600082620007a357620007a36200077b565b500690565b818103818111156200020157620002016200062a565b600082620007d057620007d06200077b565b500490565b61816e80620007e56000396000f3fe6080604052600436106106d65760003560e01c80636de9f32b1161037a578063b5ade81b116101d1578063d893209411610102578063ea4a1104116100a0578063f71ae2aa1161007a578063f71ae2aa146116b6578063f8c12e2c146116cc578063f8d82683146116ec578063fc84abb71461171957600080fd5b8063ea4a1104146115ba578063ecd3cb8214611653578063f08a01f81461167357600080fd5b8063dd62ed3e116100dc578063dd62ed3e146114f7578063e47e25a21461154a578063e723b9d914611577578063e729798e146115a457600080fd5b8063d8932094146114b2578063d89abcb5146114cc578063dc6e9cf9146114e157600080fd5b8063c7bef6ee1161016f578063d03150c611610149578063d03150c614611443578063d40170d714611459578063d732b8351461146f578063d74ce8c51461149c57600080fd5b8063c7bef6ee146113ea578063cb9ae70714611417578063cf70fa401461142d57600080fd5b8063be7d798e116101ab578063be7d798e14611366578063bf6fc7251461137c578063c19885761461139c578063c4ec1714146113d457600080fd5b8063b5ade81b14611320578063b640776914611336578063b87c0c1d1461134c57600080fd5b806391efa914116102ab578063a5ec87e411610249578063b01ab0b211610223578063b01ab0b2146112b5578063b31102e2146112ca578063b4ef00f0146112ea578063b54f31db1461130a57600080fd5b8063a5ec87e41461126a578063a9059cbb14611280578063a99dbddc146112a057600080fd5b806395d89b411161028557806395d89b41146111ae57806397566aa0146111c357806397674ea41461123a578063996901781461125457600080fd5b806391efa914146110775780639386775a146110af57806395bd852e1461118057600080fd5b806381269a561161031857806387a2a9d6116102f257806387a2a9d614611008578063888589851461101e5780638a769d351461104b5780638ae0368b1461106157600080fd5b806381269a5614610fa5578063829965cc14610fc5578063841218ee14610fdb57600080fd5b806370066951116103545780637006695114610eed57806370a0823114610f035780637516528014610f465780637f66cb4e14610f8557600080fd5b80636de9f32b14610e6f5780636fbbbf1d14610e855780636fd396d614610e9b57600080fd5b806332e997081161052e5780634b44c6aa1161045f5780635a2bc22d116103fd57806362adb2e1116103d757806362adb2e114610de15780636352170f14610e1957806369f43e9c14610e395780636bb5a58214610e4f57600080fd5b80635a2bc22d14610d575780635dbdda6914610d885780635dfa739614610d9e57600080fd5b80635327d4af116104395780635327d4af14610ca15780635708416414610cc1578063584b62a114610cee5780635965916f14610d4257600080fd5b80634b44c6aa14610bd85780634ef3762814610c76578063509fce5b14610c8b57600080fd5b80633925bfe7116104cc578063410e1b07116104a6578063410e1b0714610b47578063424d389414610b5d57806346459b2214610b95578063490203a714610bc357600080fd5b80633925bfe714610afb5780633ab3429014610b115780633c5e64d114610b2757600080fd5b8063366c41a311610508578063366c41a314610aa457806336dfec1c14610aba578063370ef54f14610acf57806337eed2d614610ae557600080fd5b806332e9970814610a2c57806332ed5b1214610a41578063356df5ee14610a7757600080fd5b806317da485f11610608578063229cb73c116105a657806327e235e31161058057806327e235e3146109bd5780632e175004146109ea5780632f40907c14610a00578063313ce56714610a1657600080fd5b8063229cb73c1461096857806322ae4ccf1461097d57806323b872dd1461099d57600080fd5b80631853f0a8116105e25780631853f0a8146108e55780631883a8d0146108fb5780631dcc83a914610933578063207c9c8d1461095357600080fd5b806317da485f1461089b5780631801fbe5146108b057806318160ddd146108d057600080fd5b80630d899b1b116106755780631081a47e1161064f5780631081a47e1461081357806310d2fce314610840578063141a3dcf14610870578063163aa00d1461088557600080fd5b80630d899b1b146107c35780630db5fea4146107dd5780630dbc6c55146107fd57600080fd5b8063047fc9aa116106b1578063047fc9aa1461075557806305103f5e1461076b57806306fdde0314610781578063095ea7b3146107a357600080fd5b8062e6e553146106e55780630206cea31461070e578063037d2f351461072557600080fd5b366106e057600080fd5b600080fd5b3480156106f157600080fd5b506106fb60075481565b6040519081526020015b60405180910390f35b34801561071a57600080fd5b50610723611746565b005b34801561073157600080fd5b50610745610740366004617308565b611825565b6040519015158152602001610705565b34801561076157600080fd5b506106fb60035481565b34801561077757600080fd5b506106fb60495481565b34801561078d57600080fd5b50610796611d01565b604051610705919061745a565b3480156107af57600080fd5b506107456107be366004617491565b611d8f565b3480156107cf57600080fd5b506045546107459060ff1681565b3480156107e957600080fd5b506107236107f83660046174bb565b611e09565b34801561080957600080fd5b506106fb60225481565b34801561081f57600080fd5b506106fb61082e366004617519565b602d6020526000908152604090205481565b34801561084c57600080fd5b5061074561085b366004617532565b604c6020526000908152604090205460ff1681565b34801561087c57600080fd5b5061079661251d565b34801561089157600080fd5b506106fb60155481565b3480156108a757600080fd5b506106fb61252a565b3480156108bc57600080fd5b506107456108cb36600461754d565b612548565b3480156108dc57600080fd5b506003546106fb565b3480156108f157600080fd5b506106fb602a5481565b34801561090757600080fd5b506106fb610916366004617491565b604260209081526000928352604080842090915290825290205481565b34801561093f57600080fd5b5061072361094e36600461756f565b6125d3565b34801561095f57600080fd5b50610723612abf565b34801561097457600080fd5b506106fb612b48565b34801561098957600080fd5b5061072361099836600461754d565b612b61565b3480156109a957600080fd5b506107456109b836600461762e565b612d86565b3480156109c957600080fd5b506106fb6109d8366004617532565b60096020526000908152604090205481565b3480156109f657600080fd5b506106fb601a5481565b348015610a0c57600080fd5b506106fb60365481565b348015610a2257600080fd5b506106fb60025481565b348015610a3857600080fd5b506011546106fb565b348015610a4d57600080fd5b50610a61610a5c366004617519565b612eb8565b6040516107059a9998979695949392919061766a565b348015610a8357600080fd5b506106fb610a92366004617519565b60326020526000908152604090205481565b348015610ab057600080fd5b506106fb601d5481565b348015610ac657600080fd5b50610796613140565b348015610adb57600080fd5b506106fb601b5481565b348015610af157600080fd5b506106fb60245481565b348015610b0757600080fd5b506106fb601c5481565b348015610b1d57600080fd5b506106fb601f5481565b348015610b3357600080fd5b50610723610b42366004617707565b61314d565b348015610b5357600080fd5b506106fb600b5481565b348015610b6957600080fd5b506106fb610b7836600461754d565b603760209081526000928352604080842090915290825290205481565b348015610ba157600080fd5b50610bb5610bb0366004617519565b6132ed565b60405161070592919061776a565b348015610bcf57600080fd5b506106fb613392565b348015610be457600080fd5b50610c5d610bf3366004617519565b603460205260009081526040902080546001820154600283015460038401546004850154600586015460068701546007880154600889015460098a0154600a909a015498999798969760ff808816986101008904821698620100009004909116969594939291908d565b6040516107059d9c9b9a999897969594939291906177ed565b348015610c8257600080fd5b506012546106fb565b348015610c9757600080fd5b506106fb60085481565b348015610cad57600080fd5b50610723610cbc366004617863565b6133ac565b348015610ccd57600080fd5b506106fb610cdc366004617532565b603d6020526000908152604090205481565b348015610cfa57600080fd5b50610d2d610d09366004617491565b603e6020908152600092835260408084209091529082529020805460019091015482565b60408051928352602083019190915201610705565b348015610d4e57600080fd5b50610796613546565b348015610d6357600080fd5b50610d77610d72366004617519565b613563565b60405161070595949392919061788f565b348015610d9457600080fd5b506106fb60195481565b348015610daa57600080fd5b506106fb610db9366004617532565b73ffffffffffffffffffffffffffffffffffffffff166000908152603f602052604090205490565b348015610ded57600080fd5b506106fb610dfc36600461754d565b602f60209081526000928352604080842090915290825290205481565b348015610e2557600080fd5b50610723610e343660046174bb565b6136a4565b348015610e4557600080fd5b506106fb604a5481565b348015610e5b57600080fd5b50610723610e6a3660046178d2565b613ec0565b348015610e7b57600080fd5b506106fb60175481565b348015610e9157600080fd5b506106fb602c5481565b348015610ea757600080fd5b50601454610ec89073ffffffffffffffffffffffffffffffffffffffff1681565b60405173ffffffffffffffffffffffffffffffffffffffff9091168152602001610705565b348015610ef957600080fd5b506106fb60215481565b348015610f0f57600080fd5b506106fb610f1e366004617532565b73ffffffffffffffffffffffffffffffffffffffff1660009081526009602052604090205490565b348015610f5257600080fd5b50610d2d610f61366004617491565b603c6020908152600092835260408084209091529082529020805460019091015482565b348015610f9157600080fd5b50610723610fa0366004617519565b614070565b348015610fb157600080fd5b50610745610fc0366004617907565b614522565b348015610fd157600080fd5b506106fb600d5481565b348015610fe757600080fd5b506106fb610ff6366004617519565b60306020526000908152604090205481565b34801561101457600080fd5b506106fb60105481565b34801561102a57600080fd5b506106fb611039366004617519565b60296020526000908152604090205481565b34801561105757600080fd5b506106fb60115481565b34801561106d57600080fd5b506106fb60125481565b34801561108357600080fd5b506106fb61109236600461754d565b604660209081526000928352604080842090915290825290205481565b3480156110bb57600080fd5b5061112d6110ca366004617939565b603b602090815260009283526040808420909152908252902080546001820154600283015460038401546004850154600590950154939460ff8085169561010090950481169473ffffffffffffffffffffffffffffffffffffffff909316921687565b60408051978852951515602088015293151594860194909452606085019190915273ffffffffffffffffffffffffffffffffffffffff16608084015260a0830191909152151560c082015260e001610705565b34801561118c57600080fd5b506111a061119b366004617965565b614592565b6040516107059291906179dc565b3480156111ba57600080fd5b50610796614784565b3480156111cf57600080fd5b506106fb6111de366004617863565b604080516020808201939093523360601b7fffffffffffffffffffffffffffffffffffffffff00000000000000000000000016818301526054808201959095528151808203909501855260740190528251920191909120919050565b34801561124657600080fd5b50604d546107459060ff1681565b34801561126057600080fd5b506106fb601e5481565b34801561127657600080fd5b506106fb60335481565b34801561128c57600080fd5b5061074561129b366004617491565b614791565b3480156112ac57600080fd5b50610723614850565b3480156112c157600080fd5b50610745614903565b3480156112d657600080fd5b506107236112e536600461754d565b61498e565b3480156112f657600080fd5b506106fb6113053660046178d2565b614b1f565b34801561131657600080fd5b506106fb60065481565b34801561132c57600080fd5b506106fb600e5481565b34801561134257600080fd5b506106fb60045481565b34801561135857600080fd5b506043546107459060ff1681565b34801561137257600080fd5b506106fb60205481565b34801561138857600080fd5b50610745611397366004617491565b614b47565b3480156113a857600080fd5b506106fb6113b736600461754d565b603860209081526000928352604080842090915290825290205481565b3480156113e057600080fd5b506106fb604e5481565b3480156113f657600080fd5b506106fb611405366004617532565b60406020819052600091825290205481565b34801561142357600080fd5b506106fb600c5481565b34801561143957600080fd5b506106fb60135481565b34801561144f57600080fd5b506106fb60285481565b34801561146557600080fd5b506106fb60055481565b34801561147b57600080fd5b506106fb61148a366004617532565b603f6020526000908152604090205481565b3480156114a857600080fd5b506106fb60265481565b3480156114be57600080fd5b50604b546107459060ff1681565b3480156114d857600080fd5b50610723614b96565b3480156114ed57600080fd5b506106fb600f5481565b34801561150357600080fd5b506106fb6115123660046179f7565b73ffffffffffffffffffffffffffffffffffffffff9182166000908152600a6020908152604080832093909416825291909152205490565b34801561155657600080fd5b506106fb611565366004617519565b603a6020526000908152604090205481565b34801561158357600080fd5b506106fb611592366004617519565b60396020526000908152604090205481565b3480156115b057600080fd5b506106fb60235481565b3480156115c657600080fd5b506116186115d5366004617519565b6025602052600090815260409020805460018201546002830154600384015460048501546005860154600687015460079097015495969495939492939192909188565b604080519889526020890197909752958701949094526060860192909252608085015260a084015260c083015260e082015261010001610705565b34801561165f57600080fd5b5061072361166e366004617519565b614c4b565b34801561167f57600080fd5b506106fb61168e366004617532565b73ffffffffffffffffffffffffffffffffffffffff166000908152603d602052604090205490565b3480156116c257600080fd5b506106fb60445481565b3480156116d857600080fd5b506107236116e7366004617519565b614e6f565b3480156116f857600080fd5b506106fb611707366004617519565b60276020526000908152604090205481565b34801561172557600080fd5b506106fb611734366004617532565b60416020526000908152604090205481565b60455460ff161561175657600080fd5b60025461176490600a617b70565b611770906103e8617b7c565b601e5561177b6157d3565b6047906117889082617c36565b5061179161591a565b60489061179e9082617c36565b507fffffffffffffffffffffffffffffffffffffffffffffffffffffffffffffffff60108190556117d290622625a0615984565b60115561019a6049556002546117e990600a617b70565b6117f5906101f4617b7c565b601d55604580547fffffffffffffffffffffffffffffffffffffffffffffffffffffffffffffff00166001179055565b600060476040516118369190617d50565b60405180910390208780519060200120146118b2576040517f08c379a000000000000000000000000000000000000000000000000000000000815260206004820152601460248201527f426c6f636b486561646572206d69736d6174636800000000000000000000000060448201526064015b60405180910390fd5b60125486146118c057600080fd5b60486040516118cf9190617d50565b6040518091039020838051906020012014611946576040517f08c379a000000000000000000000000000000000000000000000000000000000815260206004820152601160248201527f5365656468617368206d69736d6174636800000000000000000000000000000060448201526064016118a9565b60115484111561195557600080fd5b6040517fffffffffffffffffffffffffffffffffffffffff0000000000000000000000003360601b1660208201527fffffffff0000000000000000000000000000000000000000000000000000000089166034820152600090603801604080517fffffffffffffffffffffffffffffffffffffffffffffffffffffffffffffffe081840301815291815281516020928301206012546000908152604684528281208282529093529082205490925090819003611a1057600080fd5b60008a87878a604051602001611a299493929190617de4565b604051602081830303815290604052805190602001209050818114611a4d57600080fd5b6012546000908152601660205260409020548015611a6a57600080fd5b6012546000908152601660205260409020839055600254611a8c90600a617b70565b611a9990621cd6d0617b7c565b60175411611ab3576801f30795e38ed87acc601355611bce565b600254611ac190600a617b70565b611ace906269be50617b7c565b6017541015611ae9576801bb94f70329a3fb60601355611bce565b600254611af790600a617b70565b611b049062aba950617b7c565b6017541015611b1f5768011d28e7efbf572199601355611bce565b600254611b2d90600a617b70565b611b3a9062cc9ed0617b7c565b6017541015611b5457678e9473f7dfab90cc601355611bce565b600254611b6290600a617b70565b611b6f9062dd1990617b7c565b6017541015611b895767474a39fbefd5c866601355611bce565b600354600090611b9b906127106159a3565b90506000611baa826064615984565b9050611bc8631f5406b0611bc26064818560056159a3565b90615984565b60135550505b601354601754611bdd916159cf565b6017819055600b5411611bf257611bf2617e49565b601354600354611c01916159cf565b60035560135433600090815260096020526040902054611c20916159cf565b33600081815260096020526040902091909155601480547fffffffffffffffffffffffff000000000000000000000000000000000000000016909117905543601555611c6a6159ea565b601354600d546012546040805193845260208401929092529082015233907fcf6fbb9dcea7d07263ab4f5c3a92f53af33dffc421d9d121e1c74b307e68189d9060600160405180910390a2601354604051908152339030907fddf252ad1be2c89b69c2b068fc378daa952ba7f163c4a11628f55a4df523b3ef9060200160405180910390a35060019b9a5050505050505050505050565b60008054611d0e90617b93565b80601f0160208091040260200160405190810160405280929190818152602001828054611d3a90617b93565b8015611d875780601f10611d5c57610100808354040283529160200191611d87565b820191906000526020600020905b815481529060010190602001808311611d6a57829003601f168201915b505050505081565b336000818152600a6020908152604080832073ffffffffffffffffffffffffffffffffffffffff8716808552925280832085905551919290917f8c5be1e5ebec7d5bd14f71427d1e84f3dd0314c0f7b2291e5b200ac8c7c3b92590611df79086815260200190565b60405180910390a35060015b92915050565b600083833384604051602001611e229493929190617e78565b604080517fffffffffffffffffffffffffffffffffffffffffffffffffffffffffffffffe08184030181529181528151602092830120336000908152603c8452828120828252909352912054909150611e7a57600080fd5b6000848152603160205260409020805415801590611e9b5750848160010154145b611ea457600080fd5b6000858152603460205260409020601c546001820154611ec3916159cf565b4211611ece57600080fd5b336000818152603c602090815260408083208784528252808320549383526041909152902054611efd91615ac8565b336000908152604160209081526040808320939093556003850154825260259052908120601954909190611f32904290615984565b90506000611f5e6001611f58601954611bc2601c54601b546159cf90919063ffffffff16565b906159cf565b6001840154909150611f7090826159cf565b821015611f7c57600080fd5b60008815611f88575060015b336000908152603c602090815260408083208a84529091528120546005870154602154601a54929392611fd19261271092611bc292611fcb9160049183916159a3565b906159a3565b905060038088810154610100900460ff1690811115611ff257611ff2617783565b03611ffc57506044545b600387810154610100900460ff169081111561201a5761201a617783565b83600381111561202c5761202c617783565b0361206b57612068612710611bc2896005015461271161204c9190617eb5565b611fcb6002611fcb602154601a546159a390919063ffffffff16565b90505b336000908152603c602090815260408083208c845290915281205461209890606490611bc290600a6159a3565b90506126ac88600501541180156120dd5750600388810154610100900460ff16908111156120c8576120c8617783565b8460038111156120da576120da617783565b14155b156120f0576120ed8160026159a3565b90505b60408051828152602081018f905233917f53ef86fe8b545e88c8078a71aa8a9be4140e6f140b4e36f0ffee9207cf1ee896910160405180910390a260085461213890826159cf565b600855336000908152603c602090815260408083208d84529091529020546121609082615ac8565b925060015b336000908152603f6020526040902054811161225757336000908152603e6020908152604080832084845290915290205482101561220d57336000908152603e602090815260408083208484529091529020546121c29083615ac8565b336000818152603e602090815260408083208684528252808320949094559181529082905220546121f39083615ac8565b336000908152604060208190528120919091559150612257565b336000908152603e60209081526040808320848452909152902054612233908390615ac8565b915061223f3382615ae1565b8115612257578061224f81617ec8565b915050612165565b50821561249c5760408051848152602081018f905290810183905233907fd93567a4d470fa277429086aae141410cccc35c73954734ea3e24152fc044f359060600160405180910390a260015b336000908152603f6020526040902054811161249a57336000908152603e6020908152604080832084845290915290205484106123a757336000908152603e6020908152604080832084845290915290206001015442101561234b57336000908152603e6020908152604080832084845290915290206001015461232890846159cf565b336000908152603e60209081526040808320858452909152902060010155612374565b61235542846159cf565b336000908152603e602090815260408083208584529091529020600101555b336000908152603e6020908152604080832084845290915290205461239a908590615ac8565b9350831561249a57612488565b336000908152603e602090815260408083208484529091528120546123cc9086615ac8565b336000908152603e6020908152604080832086845290915290206001810154908790559091504281111561244557336000908152603e6020908152604080832086845290915290206001015461242290866159cf565b336000908152603e6020908152604080832087845290915290206001015561246e565b61244f42866159cf565b336000908152603e602090815260408083208784529091529020600101555b81156124815761247f338383615c20565b505b505061249a565b8061249281617ec8565b9150506122a4565b505b6001890154336000818152603c602090815260408083208f84528252918290205491519182527f3ededec39a86b2261e09be07993014ceae66346b9af09000ec0cc87fe2d8f9de910160405180910390a3336000908152603c602090815260408083208d845290915281208181556001015550505050505050505050505050565b60488054611d0e90617b93565b600061254360115460105461598490919063ffffffff16565b905090565b6040517f08c379a000000000000000000000000000000000000000000000000000000000815260206004820152603460248201527f46756e6374696f6e2064697361626c6564202d207265706c616365642062792060448201527f6d696e7472616e646f6d582066756e6374696f6e00000000000000000000000060648201526000906084016118a9565b6000868152602d6020526040902054158015906126005750602c546000878152602d602052604090205411155b61260957600080fd5b6000868152602d60209081526040808320548352602b909152902054861461263057600080fd5b60365481111561263f57600080fd5b60008387604051602001612654929190617f00565b604080517fffffffffffffffffffffffffffffffffffffffffffffffffffffffffffffffe0818403018152918152815160209283012060008a815260309093529120549091506126a59060016159cf565b6000888152603060209081526040808320849055602f8252808320938352929052208190556033546126d89060016159cf565b6033819055600090815260326020908152604080832084905583835260319091529020600101548015158061271a575060008281526031602052604090205415155b1561272457600080fd5b600061273b6019544261598490919063ffffffff16565b6000818152602960205260408120549192500361275a5761275a615cc0565b60008381526031602090815260408083206033548155600281018d90558484526029909252909120546003820155600181018490556005810180547fffffffffffffffffffffffff00000000000000000000000000000000000000001633179055600681016127c98a82617c36565b50600781016127d88982617c36565b50600981016127e78882617c36565b50600881016127f68782617c36565b5060008481526034602052604081206003810180547fffffffffffffffffffffffffffffffffffffffffffffffffffffffffff00000016620102021790556004810182905560058101829055600681018290556007810182905560088101829055600981019190915542808255601b5461287091906159cf565b6001820155601f54600a820155601e54336000908152603d6020526040902054101561289b57600080fd5b601e54336000908152603d60205260409020546128b791615ac8565b336000908152603d6020908152604080832093909355601e546041909152919020546128e2916159cf565b33600081815260416020908152604080832094909455600186810154808452603b8352858420858552835285842090815590810180547fffffffffffffffffffffffffffffffffffffffffffffffffffffffffffff000016610101179055601e546002820155600380820180547fffffffffffffffffffffffff00000000000000000000000000000000000000001690951790945542600482015592850180547fffffffffffffffffffffffffffffffffffffffffffffffffffffffffffff00ff1661030017905589825260359052919091205480158015906129d557506000888152603560205260409020600101548d145b15612a2657600484018890556000888152603a60205260409020546129fb9060016159cf565b6000898152603a60209081526040808320849055600188015460388352818420948452939091529020555b6018546040805160208101929092528101889052606001604080518083037fffffffffffffffffffffffffffffffffffffffffffffffffffffffffffffffe001815290829052805160209182012060185560028601548983528a92909133917ff20f961bd89931f54768689d741307497501063bee5847fc3fcaa72b026d1859910160405180910390a450505050505050505050505050565b604b5460ff1615612acf57600080fd5b735ccccb6d334197c7c4ba94e7873d0ef11381cd4e600052604c6020527f611c760936f6bcd8b272aaf27c956ce8682ee5346240bf1157df84e64607fb9e805460017fffffffffffffffffffffffffffffffffffffffffffffffffffffffffffffff009182168117909255604b80549091169091179055565b6000612543600854600354615ac890919063ffffffff16565b6127108211612b6f57600080fd5b336000908152603d6020526040902054821115612b8b57600080fd5b336000908152603d6020526040902054612ba59083615ac8565b336000908152603d6020908152604080832093909355604190522054612bcb90836159cf565b336000908152604160209081526040808320849055603d909152902054612bf1916159cf565b336000908152604060208190529020541015612cb5576040517f08c379a000000000000000000000000000000000000000000000000000000000815260206004820152605760248201527f457469636152656c656173653a2045786365737320626f736f6d7320666f722060448201527f74686973206e657720766f746520616d6f756e742c20636c61696d20736f6d6560648201527f207374616b6573206265666f7265206e657720766f7465000000000000000000608482015260a4016118a9565b336000908152603c60209081526040808320848452909152902054612cda90836159cf565b336000908152603c60209081526040808320858452825291829020928355426001909301929092556018548151928301528101829052606001604080518083037fffffffffffffffffffffffffffffffffffffffffffffffffffffffffffffffe00181528282528051602091820120601855838352820184905233917f8a1ff244f8a72f76c71ce96c1ddf485af695058f9e3638a8359e74257d71a30691015b60405180910390a25050565b73ffffffffffffffffffffffffffffffffffffffff8316600090815260096020526040812054612db69083615ac8565b73ffffffffffffffffffffffffffffffffffffffff8516600090815260096020908152604080832093909355600a815282822033835290522054612dfa9083615ac8565b73ffffffffffffffffffffffffffffffffffffffff8086166000908152600a60209081526040808320338452825280832094909455918616815260099091522054612e4590836159cf565b73ffffffffffffffffffffffffffffffffffffffff80851660008181526009602052604090819020939093559151908616907fddf252ad1be2c89b69c2b068fc378daa952ba7f163c4a11628f55a4df523b3ef90612ea69086815260200190565b60405180910390a35060019392505050565b60316020526000908152604090208054600182015460028301546003840154600485015460058601546006870180549697959694959394929373ffffffffffffffffffffffffffffffffffffffff90921692612f1390617b93565b80601f0160208091040260200160405190810160405280929190818152602001828054612f3f90617b93565b8015612f8c5780601f10612f6157610100808354040283529160200191612f8c565b820191906000526020600020905b815481529060010190602001808311612f6f57829003601f168201915b505050505090806007018054612fa190617b93565b80601f0160208091040260200160405190810160405280929190818152602001828054612fcd90617b93565b801561301a5780601f10612fef5761010080835404028352916020019161301a565b820191906000526020600020905b815481529060010190602001808311612ffd57829003601f168201915b50505050509080600801805461302f90617b93565b80601f016020809104026020016040519081016040528092919081815260200182805461305b90617b93565b80156130a85780601f1061307d576101008083540402835291602001916130a8565b820191906000526020600020905b81548152906001019060200180831161308b57829003601f168201915b5050505050908060090180546130bd90617b93565b80601f01602080910402602001604051908101604052809291908181526020018280546130e990617b93565b80156131365780601f1061310b57610100808354040283529160200191613136565b820191906000526020600020905b81548152906001019060200180831161311957829003601f168201915b505050505090508a565b60478054611d0e90617b93565b6000838152602d60205260409020541580159061317a5750602c546000848152602d602052604090205411155b61318357600080fd5b6000838152602d60209081526040808320548352602b90915290205483146131aa57600080fd5b601d546000906131bb906005615984565b336000908152600960205260409020549091508111156131da57600080fd5b6131e43082614791565b506036546131f39060016159cf565b6036556000848152603960205260409020546132109060016159cf565b600085815260396020908152604080832084815560365460378452828520958552948352818420859055815160a0810183528581528084018a81529154818401908152606082018a8152608083018a9052968652603590945291909320815181559251600184015590516002830155915160038201906132909082617c36565b50608082015160048201906132a59082617c36565b50506008546132b59150826159cf565b6008556036546040518591907fb733708a2586752275a4854aac54c7bb263ad67859f07d16147feea53ca009d790600090a350505050565b602b602052600090815260409020805460018201805491929161330f90617b93565b80601f016020809104026020016040519081016040528092919081815260200182805461333b90617b93565b80156133885780601f1061335d57610100808354040283529160200191613388565b820191906000526020600020905b81548152906001019060200180831161336b57829003601f168201915b5050505050905082565b6000600b54601754116133a6575060135490565b50600090565b6133ba426303c267006159cf565b83106133c557600080fd5b603281111580156133e55750336000908152603f60205260409020548111155b6133ee57600080fd5b6000806001805b8481116134ef57336000908152603f60205260409020546002116134dd57336000908152603f602052604090205481116134315780915061344e565b61343b8184615ac8565b9150600182101561344e5761344e617e49565b336000908152603e6020908152604080832085845290915290206001015487108015906134985750336000908152603e602090815260408083208584529091529020600101548611155b156134dd57336000908152603e602090815260408083208584529091529020546134c39085906159cf565b93506134cf3383615ae1565b6134da8360016159cf565b92505b806134e781617ec8565b9150506133f5565b50821561350357613501338488615e20565b505b604080518781526020810187905233917f52806950881c6df8cc206c3b151fcc9aea7b2d53d8ff441469dffd05e851e3ab910160405180910390a2505050505050565b60405180610100016040528060d9815260200161806060d9913981565b60356020526000908152604090208054600182015460028301546003840180549394929391929161359390617b93565b80601f01602080910402602001604051908101604052809291908181526020018280546135bf90617b93565b801561360c5780601f106135e15761010080835404028352916020019161360c565b820191906000526020600020905b8154815290600101906020018083116135ef57829003601f168201915b50505050509080600401805461362190617b93565b80601f016020809104026020016040519081016040528092919081815260200182805461364d90617b93565b801561369a5780601f1061366f5761010080835404028352916020019161369a565b820191906000526020600020905b81548152906001019060200180831161367d57829003601f168201915b5050505050905085565b6000838333846040516020016136bd9493929190617e78565b604080517fffffffffffffffffffffffffffffffffffffffffffffffffffffffffffffffe08184030181529181528151602092830120336000908152603c845282812082825290935291205490915061371557600080fd5b60008481526031602052604090208054158015906137365750848160010154145b61373f57600080fd5b6000858152603460209081526040808320600180820154338652603c8552838620888752909452919093200154111561377757600080fd5b80600101544211801561379a5750601c546001820154613796916159cf565b4211155b6137a357600080fd5b6002600382810154610100900460ff16908111156137c3576137c3617783565b036137cd57600080fd5b600881015460098201546003840154600090815260256020908152604080832060018801548452603b83528184203385529092529091205480151580613833575060018601546000908152603b6020908152604080832033845290915290206002015415155b1561383d57600080fd5b6000603b60008860010154815260200190815260200160002060003373ffffffffffffffffffffffffffffffffffffffff1673ffffffffffffffffffffffffffffffffffffffff168152602001908152602001600020905086600101548160000181905550898160010160006101000a81548160ff02191690831515021790555060008160010160016101000a81548160ff021916908315150217905550603c60003373ffffffffffffffffffffffffffffffffffffffff1673ffffffffffffffffffffffffffffffffffffffff1681526020019081526020016000206000898152602001908152602001600020600001548160020181905550338160030160006101000a81548173ffffffffffffffffffffffffffffffffffffffff021916908373ffffffffffffffffffffffffffffffffffffffff16021790555042816004018190555061399b600187600401546159cf90919063ffffffff16565b6004870155336000908152603c602090815260408083208b8452909152812054670de0b6b3a764000011156139f757336000908152603c602090815260408083208c84529091529020546139f0906002615984565b9050613a2d565b613a2a613a27670a688906bd8b0000336000908152603c602090815260408083208f845290915290205490615f3e565b90565b90505b33600090815260426020908152604080832060018c0154845290915290208190558a15613a6d576006870154613a6390826159cf565b6006880155613a82565b6007870154613a7c90826159cf565b60078801555b6000806000613aa28a600701548b600601546159cf90919063ffffffff16565b90506000613abf6127108c600601546159a390919063ffffffff16565b600a8c0154909150600090613ad48385615984565b1115613adf57600194505b600a8c0154613aee8385615984565b03613af857600193505b60038c0180547fffffffffffffffffffffffffffffffffffffffffffffffffffffffffff00ffff1662010000861515021790558415613b8457613b4d612710611bc2858f600a0154612710611fcb9190617eb5565b9050613b6c81611bc26127108f600701546159a390919063ffffffff16565b9050613b7a81612710617eb5565b60058d0155613bd4565b613ba1612710611bc28e600a0154866159a390919063ffffffff16565b9050613bc081611bc26127108f600601546159a390919063ffffffff16565b9050613bce81612710617eb5565b60058d01555b6127108c600501541115613be757600080fd5b60008515613bf3575060015b6003808e810154610100900460ff1690811115613c1257613c12617783565b03613c51578515613c375760068a0154613c2d9060016159cf565b60068b0155613cef565b60078a0154613c479060016159cf565b60078b0155613cef565b60038d810154610100900460ff1690811115613c6f57613c6f617783565b816003811115613c8157613c81617783565b14613cef576001816003811115613c9a57613c9a617783565b03613cc45760078a0154613caf906001615ac8565b60078b015560068a0154613c2d9060016159cf565b60068a0154613cd4906001615ac8565b60068b015560078a0154613ce99060016159cf565b60078b01555b8415613d5a5760038d0180547fffffffffffffffffffffffffffffffffffffffffffffffffffffffffffff00ff169055600060088e0181905560098e015560028a0154613d3c908d615ac8565b60028b015560038a0154613d50908c615ac8565b60038b0155613e3e565b8515613dd35760038d0180547fffffffffffffffffffffffffffffffffffffffffffffffffffffffffffff00ff1661010017905560068d015460088e0181905560098e0181905560028b0154613db59190611f58908f615ac8565b60028b015560098d015460038b0154613d509190611f58908e615ac8565b60038d0180547fffffffffffffffffffffffffffffffffffffffffffffffffffffffffffff00ff16905560078d015460088e01819055600060098f015560028b0154613e249190611f58908f615ac8565b60028b015560038a0154613e38908c615ac8565b60038b01555b60018e0154600289015460405190815233907f4627acd8194d77d62502e6eb464100f9c2d8a487c62a6fd54048d3d8f1cb5c519060200160405180910390a3613eac8f336000908152603c602090815260408083208484528083529083208381559383529052600190910155565b505050505050505050505050505050505050565b6040805160008152602081018083528151902091613ee091849101617f22565b6040516020818303038152906040528051906020012003613f0057600080fd5b601d54336000908152600960205260409020541015613f1e57600080fd5b613f2a30601d54614791565b50601d54600854613f3a916159cf565b600855604051600090613f5190839060200161745a565b604051602081830303815290604052805190602001209050613f7f6001602c546159cf90919063ffffffff16565b602c556000818152602d602052604090205415613f9b57600080fd5b602e82604051613fab9190617f22565b9081526040519081900360200190205415613fc557600080fd5b6040805180820182528281526020808201858152602c546000908152602b90925292902081518155915190919060018201906140019082617c36565b5050602c546000838152602d6020526040908190209190915551829150602e9061402c908590617f22565b908152602001604051809103902081905550602c547f830578780908e1ff0fbde38777892998c31b30c39451a5a3b0e99cbf7bd781df83604051612d7a919061745a565b336000908152603c6020908152604080832084845290915290205461409457600080fd5b336000818152603c6020908152604080832085845282528083205493835260419091529020546140c391615ac8565b33600090815260416020908152604080832093909355603c815282822084835290529081205460445490916140fe6064611bc28560156159a3565b604080518281526000602082015291925033917f53ef86fe8b545e88c8078a71aa8a9be4140e6f140b4e36f0ffee9207cf1ee896910160405180910390a260085461414990826159cf565b600855336000908152603c602090815260408083208784529091529020546141719082615ac8565b925060015b336000908152603f6020526040902054811161426857336000908152603e6020908152604080832084845290915290205482101561421e57336000908152603e602090815260408083208484529091529020546141d39083615ac8565b336000818152603e602090815260408083208684528252808320949094559181529082905220546142049083615ac8565b336000908152604060208190528120919091559150614268565b336000908152603e60209081526040808320848452909152902054614244908390615ac8565b91506142503382615ae1565b8115614268578061426081617ec8565b915050614176565b5082156144ad57604080518481526000602082015290810183905233907fd93567a4d470fa277429086aae141410cccc35c73954734ea3e24152fc044f359060600160405180910390a260015b336000908152603f602052604090205481116144ab57336000908152603e6020908152604080832084845290915290205484106143b857336000908152603e6020908152604080832084845290915290206001015442101561435c57336000908152603e6020908152604080832084845290915290206001015461433990846159cf565b336000908152603e60209081526040808320858452909152902060010155614385565b61436642846159cf565b336000908152603e602090815260408083208584529091529020600101555b336000908152603e602090815260408083208484529091529020546143ab908590615ac8565b935083156144ab57614499565b336000908152603e602090815260408083208484529091528120546143dd9086615ac8565b336000908152603e6020908152604080832086845290915290206001810154908790559091504281111561445657336000908152603e6020908152604080832086845290915290206001015461443390866159cf565b336000908152603e6020908152604080832087845290915290206001015561447f565b61446042866159cf565b336000908152603e602090815260408083208784529091529020600101555b811561449257614490338383615c20565b505b50506144ab565b806144a381617ec8565b9150506142b5565b505b336000818152603c6020908152604080832088845282528083205490519081529192917f3ededec39a86b2261e09be07993014ceae66346b9af09000ec0cc87fe2d8f9de910160405180910390a3336000908152603c6020908152604080832087845290915281208181556001015550505050565b6040805160208082018590523360601b7fffffffffffffffffffffffffffffffffffffffff0000000000000000000000001682840152605480830188905283518084039091018152607490920190925280519101206000908281111561458757600080fd5b909314949350505050565b6000606060476040516145a59190617d50565b60405180910390208680519060200120146145f857505060408051808201909152601481527f426c6f636b486561646572206d69736d61746368000000000000000000000000602082015260009061477b565b601254851461463f57505060408051808201909152601281527f4368616c6c656e6765206d69736d617463680000000000000000000000000000602082015260009061477b565b604860405161464e9190617d50565b60405180910390208380519060200120146146a157505060408051808201909152601181527f5365656468617368206d69736d61746368000000000000000000000000000000602082015260009061477b565b6011548411156146e957505060408051808201909152601781527f436c61696d65642074617267657420746f6f2068696768000000000000000000602082015260009061477b565b601254600090815260166020526040902054156147415760006040518060400160405280602081526020017f4368616c6c656e676520616c726561647920686173206120736f6c7574696f6e8152509150915061477b565b505060408051808201909152601481527f416c6c20706172616d65746572732076616c696400000000000000000000000060208201526001905b94509492505050565b60018054611d0e90617b93565b600080821161479f57600080fd5b336000908152600960205260409020546147b99083615ac8565b336000908152600960205260408082209290925573ffffffffffffffffffffffffffffffffffffffff8516815220546147f290836159cf565b73ffffffffffffffffffffffffffffffffffffffff84166000818152600960205260409081902092909255905133907fddf252ad1be2c89b69c2b068fc378daa952ba7f163c4a11628f55a4df523b3ef90611df79086815260200190565b604d5460ff161561486057600080fd5b735ccccb6d334197c7c4ba94e7873d0ef11381cd4e600052604c6020527f611c760936f6bcd8b272aaf27c956ce8682ee5346240bf1157df84e64607fb9e80547fffffffffffffffffffffffffffffffffffffffffffffffffffffffffffffff001690556017546003546148d391615ac8565b604e55604d80547fffffffffffffffffffffffffffffffffffffffffffffffffffffffffffffff00166001179055565b6040517f08c379a000000000000000000000000000000000000000000000000000000000815260206004820152602f60248201527f46756e6374696f6e2064697361626c6564202d20636f7374732075706461746560448201527f64207669612068617264666f726b73000000000000000000000000000000000060648201526000906084016118a9565b6000811161499b57600080fd5b6000821180156149ba5750336000908152603f60205260409020548211155b6149c357600080fd5b336000908152603e602090815260408083208584529091529020805482106149ea57600080fd5b80546000906149f99084615ac8565b838355336000908152603f6020526040902054909150614a1a9060016159cf565b336000908152603f6020526040902081905560641015614a96576040517f08c379a000000000000000000000000000000000000000000000000000000000815260206004820181905260248201527f43616e6e6f74206d616b65206d6f7265207468616e20313030207374616b657360448201526064016118a9565b6040805180820182528281526001808501546020808401918252336000908152603e8252858120603f83528682205482529091529390932091518255915191015580614ae457614ae4617e49565b60405183815233907f5bbe98d566948f7d7db717dafb0a14082df525118fac86c23df2302f161c03479060200160405180910390a250505050565b6000602e82604051614b319190617f22565b9081526020016040518091039020549050919050565b60003373ffffffffffffffffffffffffffffffffffffffff841614614b6b57600080fd5b60008211614b7857600080fd5b614b823083614791565b50614b8d8383616050565b50600192915050565b60435460ff1615614ba657600080fd5b600254614bb490600a617b70565b614bbf906064617b7c565b601e556090600e55600254614bd590600a617b70565b614be29062f05370617b7c565b600b55614bed6160b8565b601054601154614bff906101006159a3565b11614c1757601154614c13906101006159a3565b6011555b62127500604455604380547fffffffffffffffffffffffffffffffffffffffffffffffffffffffffffffff00166001179055565b600081118015614c6a5750336000908152603f60205260409020548111155b614c7357600080fd5b336000908152603e60209081526040808320848452909152902060018101544211614c9d57600080fd5b336000908152604160209081526040808320549181905290912054614cc191615ac8565b81541115614cce57600080fd5b33600090815260416020908152604080832054603d90925290912054614cf3916159cf565b815433600090815260406020819052902054614d0e91615ac8565b1015614d9c573360009081526041602090815260408083205484549282905290832054614d4592614d3f9190615ac8565b90615ac8565b1115614d8b5733600090815260416020908152604080832054845492829052922054614d769291614d3f9190615ac8565b336000908152603d6020526040902055614d9c565b336000908152603d60205260408120555b805430600090815260096020526040902054614db791615ac8565b3060009081526009602052604080822092909255825433825291902054614ddd916159cf565b336000818152600960209081526040918290209390935583549051908152909130917fddf252ad1be2c89b69c2b068fc378daa952ba7f163c4a11628f55a4df523b3ef910160405180910390a3805460405190815233907f2aeea59856f5616c244717fd488ead1d1b5fd33608d9583a4607b4c4ba3631e49060200160405180910390a2614e6b3383615ae1565b5050565b6000818152603160205260409020805415801590614e905750818160010154145b614e9957600080fd5b6000828152603460205260409020601c546001820154614eb8916159cf565b4211614ec357600080fd5b60018201546000908152603b60209081526040808320338452909152902080548414614eee57600080fd5b600581015460ff1615614f0057600080fd5b6005810180547fffffffffffffffffffffffffffffffffffffffffffffffffffffffffffffff00166001179055600281015433600090815260416020526040902054614f4b91615ac8565b336000908152604160209081526040808320939093556003860154825260259052908120601954909190614f80904290615984565b90506000614fa66001611f58601954611bc2601c54601b546159cf90919063ffffffff16565b6001840154909150614fb890826159cf565b821015614fc457600080fd5b600260038087015460ff1690811115614fdf57614fdf617783565b0361506d576001600386810154610100900460ff169081111561500457615004617783565b0361503b576003850180547fffffffffffffffffffffffffffffffffffffffffffffffffffffffffffffff00166001179055615066565b6003850180547fffffffffffffffffffffffffffffffffffffffffffffffffffffffffffffff001690555b4260028601555b600385015462010000900460ff1661574557600184015460009060ff1615615093575060015b60038087015460ff16908111156150ac576150ac617783565b8160038111156150be576150be617783565b146155385760008560020154905060006150f3612710611bc28a60050154611fcb602154601a546159a390919063ffffffff16565b6001880154909150610100900460ff1615615119576022546151169082906159a3565b90505b612328886005015411156152eb5760006151466064611bc260038b600201546159a390919063ffffffff16565b90506126ac89600501541115615176576151736064611bc260078b600201546159a390919063ffffffff16565b90505b6001880154610100900460ff161561518f575060028701545b875460405133917f53ef86fe8b545e88c8078a71aa8a9be4140e6f140b4e36f0ffee9207cf1ee896916151ca91858252602082015260400190565b60405180910390a26008546151df90826159cf565b60085560028801546151f19082615ac8565b925060015b336000908152603f602052604090205481116152e857336000908152603e6020908152604080832084845290915290205482101561529e57336000908152603e602090815260408083208484529091529020546152539083615ac8565b336000818152603e602090815260408083208684528252808320949094559181529082905220546152849083615ac8565b3360009081526040602081905281209190915591506152e8565b336000908152603e602090815260408083208484529091529020546152c4908390615ac8565b91506152d03382615ae1565b81156152e857806152e081617ec8565b9150506151f6565b50505b8115615531578654604080518481526020810192909252810182905233907fd93567a4d470fa277429086aae141410cccc35c73954734ea3e24152fc044f359060600160405180910390a260015b336000908152603f6020526040902054811161552f57336000908152603e60209081526040808320848452909152902054831061543c57336000908152603e602090815260408083208484529091529020600101544210156153e057336000908152603e602090815260408083208484529091529020600101546153bd90836159cf565b336000908152603e60209081526040808320858452909152902060010155615409565b6153ea42836159cf565b336000908152603e602090815260408083208584529091529020600101555b336000908152603e6020908152604080832084845290915290205461542f908490615ac8565b9250821561552f5761551d565b336000908152603e602090815260408083208484529091528120546154619085615ac8565b336000908152603e602090815260408083208684529091529020600181015490869055909150428111156154da57336000908152603e602090815260408083208684529091529020600101546154b790856159cf565b336000908152603e60209081526040808320878452909152902060010155615503565b6154e442856159cf565b336000908152603e602090815260408083208784529091529020600101555b811561551657615514338383615c20565b505b505061552f565b8061552781617ec8565b915050615339565b505b5050615743565b60008085600201541161554a57600080fd5b6001860154610100900460ff166155ea573360009081526042602090815260408083208c8452909152902054156155c157600285015460048601543360009081526042602090815260408083208e84529091529020546155ba926155b3929091611bc2916159a3565b82906159cf565b90506155ea565b6155e76155b38660020154611bc288600401548a600201546159a390919063ffffffff16565b90505b6001860154610100900460ff16801561561b5750600160038089015460ff169081111561561957615619617783565b145b1561565a57600085600301541161563157600080fd5b6156576155b38660030154611bc288600501548b600901546159a390919063ffffffff16565b90505b6005850154600486015461566d916159cf565b81111561567957600080fd5b306000908152600960205260409020546156939082615ac8565b306000908152600960205260408082209290925533815220546156b690826159cf565b336000818152600960205260409081902092909255905130907fddf252ad1be2c89b69c2b068fc378daa952ba7f163c4a11628f55a4df523b3ef906156fe9085815260200190565b60405180910390a360408051828152602081018b905233917fe413caa6d70a6d9b51c2af2575a2914490f614355049af8ae7cde5caab9fd201910160405180910390a2505b505b3360009081526042602090815260408083208a845290915290205415615781573360009081526042602090815260408083208a84529091528120555b600385015462010000900460ff16156157ca5760405187815233907f3e0648214287dbba314854c056353ff9db951ab8f6459ea7c7f922025ba9fdfe9060200160405180910390a25b50505050505050565b606060006157e2600143617eb5565b601854601254604080519340602085015283019190915260608201526080016040516020818303038152906040528051906020012090506000816001436158299190617eb5565b604080516020810193909352904090820152336060820152608001604080517fffffffffffffffffffffffffffffffffffffffffffffffffffffffffffffffe08184030181528282528051602091820120600d54918401819052918301529150600090606001604080518083037fffffffffffffffffffffffffffffffffffffffffffffffffffffffffffffffe00181528282528051602091820120604a8790559083018690529082018490527fffffffffffffffffffffffffffffffff00000000000000000000000000000000811660608301529150607001604051602081830303815290604052935050505090565b60185460125460405160609261593592604892602001617f3e565b604080517fffffffffffffffffffffffffffffffffffffffffffffffffffffffffffffffe081840301815282825280516020918201209083015201604051602081830303815290604052905090565b600080821161599257600080fd5b61599c8284618024565b9392505050565b60006159af8284617b7c565b90508215806159c65750816159c48483618024565b145b611e0357600080fd5b60006159db8284618038565b905082811015611e0357600080fd5b600d546159f89060016159cf565b600d819055600e54615a099161804b565b600003615a1857615a186160b8565b604954600d54615a28919061804b565b600003615a4657615a3761591a565b604890615a449082617c36565b505b615a51436001615ac8565b406012819055601854600d546040805160208101949094528301919091526060820152608001604080517fffffffffffffffffffffffffffffffffffffffffffffffffffffffffffffffe08184030181529190528051602090910120601255615ab86157d3565b604790615ac59082617c36565b50565b600082821115615ad757600080fd5b61599c8284617eb5565b600081118015615b16575073ffffffffffffffffffffffffffffffffffffffff82166000908152603f60205260409020548111155b615b1f57600080fd5b73ffffffffffffffffffffffffffffffffffffffff82166000818152603e6020908152604080832085845282528083205493835290819052902054615b6391615ac8565b73ffffffffffffffffffffffffffffffffffffffff831660008181526040602081815281832094909455603e8452808220603f808652828420805485528287528385208886528486208154815560019182015490820155845180860186528681528089018781528354885294895294862094518555925193830193909355939092529190925254615bf391615ac8565b73ffffffffffffffffffffffffffffffffffffffff9092166000908152603f602052604090209190915550565b6000808311615c2e57600080fd5b73ffffffffffffffffffffffffffffffffffffffff84166000908152603f6020526040902054615c5f9060016159cf565b73ffffffffffffffffffffffffffffffffffffffff949094166000818152603f6020908152604080832088905580518082018252968752868201958652928252603e8152828220968252959095529093209151825551600191820155919050565b6000615cd76019544261598490919063ffffffff16565b6000818152602960205260409020549091508015615cf457600080fd5b602654615d029060016159cf565b6026818155604080516101008101825283815260208082018781526000838501818152606085018281526080860183815260a0870184815260c0880185815260e089018681529b8652602588528986209851895595516001808a0191909155935160028901559151600388015551600487015551600586015591516006850155955160079093019290925592548685526029909352922055602a54615da6916159cf565b602a55602654615db590616270565b50602054602654615dc7906001615ac8565b615dd1919061804b565b158015615de057506001602654115b15615ded57615ded6164d1565b6026546040518381527ff74223d764da704d974281758065d2eb6c9066dc940e3f549b72e894b0404aef90602001612d7a565b6000808311615e2e57600080fd5b73ffffffffffffffffffffffffffffffffffffffff84166000908152603f6020526040902054615e5f9060016159cf565b73ffffffffffffffffffffffffffffffffffffffff85166000908152603f60209081526040808320939093558290522054615e9a90846159cf565b73ffffffffffffffffffffffffffffffffffffffff85166000818152604060208181528183209490945580518082018252878152808501878152848452603e8652828420603f87528385205485529095529181902091518255925160019091015590517f42e99fbad9601d25ee3bb515eeee966f97c3c383adadbe5720f651df8c18989d90615f2c9086815260200190565b60405180910390a25060019392505050565b60008282818303615f69578015615f56576000615f60565b670de0b6b3a76400005b92505050611e03565b670de0b6b3a76400008203615f8a57670de0b6b3a764000092505050611e03565b80600003615fa457670de0b6b3a764000092505050611e03565b670de0b6b3a76400008103615fbd578492505050611e03565b670de0b6b3a7640000821115615fee57615fe7615fe2615fdc8761664e565b866167b4565b6167c3565b9250616048565b600061600c613a27846ec097ce7bc90715b34b9f1000000000618024565b90506000616025615fe261601f8461664e565b886167b4565b9050616043613a27826ec097ce7bc90715b34b9f1000000000618024565b945050505b505092915050565b61605a828261683a565b5073ffffffffffffffffffffffffffffffffffffffff82166000908152603d602052604090205461608b90826159cf565b73ffffffffffffffffffffffffffffffffffffffff9092166000908152603d602052604090209190915550565b601154600c546000906160cc904290615ac8565b905060006160e7610258600e546159a390919063ffffffff16565b90508082101561618957600061610383611bc2846103e86159a3565b9050610fa08111156161145750610fa05b601054616123906103e8615984565b601154101561614f5761614781611bc26103e86011546159a390919063ffffffff16565b601155616160565b60105461615c9082615984565b6011555b61616b846004615984565b60115410156161835761617f846004615984565b6011555b50616241565b600061619b82611bc2856103e86159a3565b9050610fa08111156161ac5750610fa05b6010546161b99082615984565b601154116161e4576161dc6103e8611bc2836011546159a390919063ffffffff16565b6011556161eb565b6010546011555b6162167fffffffffffffffffffffffffffffffffffffffffffffffffffffffffffffffff6004615984565b841161623f576162278460046159a3565b601154111561623f5761623b8460046159a3565b6011555b505b42600c55600f54601154101561625857600f546011555b601054601154111561626b576010546011555b505050565b6000806026541161628057600080fd5b60008211801561629257506026548211155b61629b57600080fd5b600082815260256020526040812080549091036162b757600080fd5b805460009081526027602052604090205480156162d357600080fd5b6000600254600a6162e49190617b70565b6162f190621cd6d0617b7c565b60175411616309575068da5351938e7eb5b95c616418565b60025461631790600a617b70565b6163249062166e30617b7c565b604e54101561633e57506901b4a6a3271cfd6b72b8616418565b60025461634c90600a617b70565b616359906226e8f0617b7c565b604e5410156163735750690118b444500059c512e4616418565b60025461638190600a617b70565b61638e90622f2650617b7c565b604e5410156163a75750688c5a2228002ce289a4616418565b6002546163b590600a617b70565b6163c29062334500617b7c565b604e5410156163db575068462d111400167144a0616418565b6003546000906163ed906127106159a3565b905060006163fc826064615984565b90506164136207f4d5611bc260648185605f6159a3565b925050505b6005819055604e5461642a90826159cf565b604e556006546164469064174876e80090611bc29084906159a3565b60048401556007546164649064174876e80090611bc29084906159a3565b600584015560035461647690826159cf565b6003553060009081526009602052604090205461649390826159cf565b306000908152600960209081526040808320939093558554825260279052208190556028546164c39060016159cf565b602855506001949350505050565b6000806000806164ee602054602654615ac890919063ffffffff16565b90505b6026546164ff906001615ac8565b8111616556576000818152602560205260409020600601546165229084906159cf565b6000828152602560205260409020600701549093506165429083906159cf565b91508061654e81617ec8565b9150506164f1565b5061656182826159cf565b60000361657257611388925061658e565b61658b61657f83836159cf565b611bc2846127106159a3565b92505b6023548310156165e0576023546000906165a89085615ac8565b90506165d76165ce612710611bc284611fcb611194601f54615ac890919063ffffffff16565b601f5490615ac8565b601f5550616624565b60006165f760235485615ac890919063ffffffff16565b905061661f616616612710611bc284601f54612710611fcb9190617eb5565b601f54906159cf565b601f55505b611194601f54101561663757611194601f555b6126ac601f54111561626b576126ac601f55505050565b600081670de0b6b3a7640000811015616696576040517f36d32ef0000000000000000000000000000000000000000000000000000000008152600481018490526024016118a9565b6000616722670de0b6b3a7640000830460016fffffffffffffffffffffffffffffffff821160071b91821c67ffffffffffffffff811160061b90811c63ffffffff811160051b90811c61ffff811160041b90811c60ff8111600390811b91821c600f811160021b90811c918211871b91821c969096119490961792909217171791909117919091171790565b9050670de0b6b3a7640000810282821c7ffffffffffffffffffffffffffffffffffffffffffffffffff21f494c589c0000810161676557815b9695505050505050565b671bc16d674ec800006706f05b59d3b200005b80156167a857670de0b6b3a76400008380020492508183106167a0579283019260019290921c915b60011c616778565b50919695505050505050565b600061599c613a27848461697e565b600081680a688906bd8affffff81111561680c576040517fb3b6ba1f000000000000000000000000000000000000000000000000000000008152600481018490526024016118a9565b6000616824670de0b6b3a7640000604084901b618024565b9050616832613a2782616a85565b949350505050565b600080821161684857600080fd5b73ffffffffffffffffffffffffffffffffffffffff83166000908152603f60205260409020546168799060016159cf565b73ffffffffffffffffffffffffffffffffffffffff84166000908152603f602090815260408083209390935582905220546168b490836159cf565b73ffffffffffffffffffffffffffffffffffffffff8416600090815260406020819052812091909155601a546168eb9042906159cf565b604080518082018252858152602080820184815273ffffffffffffffffffffffffffffffffffffffff89166000818152603e8452858120603f855286822054825284528590209351845590516001909301929092559151868152929350917f42e99fbad9601d25ee3bb515eeee966f97c3c383adadbe5720f651df8c18989d910160405180910390a25060019392505050565b600080807fffffffffffffffffffffffffffffffffffffffffffffffffffffffffffffffff848609848602925082811083820303915050806000036169d05750670de0b6b3a764000090049050611e03565b670de0b6b3a76400008110616a1b576040517f5173648d00000000000000000000000000000000000000000000000000000000815260048101869052602481018590526044016118a9565b6000670de0b6b3a7640000858709620400008185030493109091037d40000000000000000000000000000000000000000000000000000000000002919091177faccb18165bd6fe31ae1cf318dc5b51eee0e1ba569b88cd74c1773b91fac106690291505092915050565b7780000000000000000000000000000000000000000000000067ff00000000000000821615616ba657678000000000000000821615616acd5768016a09e667f3bcc9090260401c5b674000000000000000821615616aec576801306fe0a31b7152df0260401c5b672000000000000000821615616b0b576801172b83c7d517adce0260401c5b671000000000000000821615616b2a5768010b5586cf9890f62a0260401c5b670800000000000000821615616b49576801059b0d31585743ae0260401c5b670400000000000000821615616b6857680102c9a3e778060ee70260401c5b670200000000000000821615616b875768010163da9fb33356d80260401c5b670100000000000000821615616ba657680100b1afa5abcbed610260401c5b66ff000000000000821615616ca5576680000000000000821615616bd35768010058c86da1c09ea20260401c5b6640000000000000821615616bf1576801002c605e2e8cec500260401c5b6620000000000000821615616c0f57680100162f3904051fa10260401c5b6610000000000000821615616c2d576801000b175effdc76ba0260401c5b6608000000000000821615616c4b57680100058ba01fb9f96d0260401c5b6604000000000000821615616c695768010002c5cc37da94920260401c5b6602000000000000821615616c87576801000162e525ee05470260401c5b6601000000000000821615616ca55768010000b17255775c040260401c5b65ff0000000000821615616d9b5765800000000000821615616cd0576801000058b91b5bc9ae0260401c5b65400000000000821615616ced57680100002c5c89d5ec6d0260401c5b65200000000000821615616d0a5768010000162e43f4f8310260401c5b65100000000000821615616d2757680100000b1721bcfc9a0260401c5b65080000000000821615616d445768010000058b90cf1e6e0260401c5b65040000000000821615616d61576801000002c5c863b73f0260401c5b65020000000000821615616d7e57680100000162e430e5a20260401c5b65010000000000821615616d9b576801000000b1721835510260401c5b64ff00000000821615616e8857648000000000821615616dc457680100000058b90c0b490260401c5b644000000000821615616de05768010000002c5c8601cc0260401c5b642000000000821615616dfc576801000000162e42fff00260401c5b641000000000821615616e185768010000000b17217fbb0260401c5b640800000000821615616e34576801000000058b90bfce0260401c5b640400000000821615616e5057680100000002c5c85fe30260401c5b640200000000821615616e6c5768010000000162e42ff10260401c5b640100000000821615616e8857680100000000b17217f80260401c5b63ff000000821615616f6c576380000000821615616eaf5768010000000058b90bfc0260401c5b6340000000821615616eca576801000000002c5c85fe0260401c5b6320000000821615616ee557680100000000162e42ff0260401c5b6310000000821615616f00576801000000000b17217f0260401c5b6308000000821615616f1b57680100000000058b90c00260401c5b6304000000821615616f365768010000000002c5c8600260401c5b6302000000821615616f51576801000000000162e4300260401c5b6301000000821615616f6c5768010000000000b172180260401c5b62ff00008216156170475762800000821615616f91576801000000000058b90c0260401c5b62400000821615616fab57680100000000002c5c860260401c5b62200000821615616fc55768010000000000162e430260401c5b62100000821615616fdf57680100000000000b17210260401c5b62080000821615616ff95768010000000000058b910260401c5b62040000821615617013576801000000000002c5c80260401c5b6202000082161561702d57680100000000000162e40260401c5b62010000821615617047576801000000000000b1720260401c5b61ff008216156171195761800082161561706a57680100000000000058b90260401c5b6140008216156170835768010000000000002c5d0260401c5b61200082161561709c576801000000000000162e0260401c5b6110008216156170b55768010000000000000b170260401c5b6108008216156170ce576801000000000000058c0260401c5b6104008216156170e757680100000000000002c60260401c5b61020082161561710057680100000000000001630260401c5b61010082161561711957680100000000000000b10260401c5b60ff8216156171e257608082161561713a57680100000000000000590260401c5b6040821615617152576801000000000000002c0260401c5b602082161561716a57680100000000000000160260401c5b6010821615617182576801000000000000000b0260401c5b600882161561719a57680100000000000000060260401c5b60048216156171b257680100000000000000030260401c5b60028216156171ca57680100000000000000010260401c5b60018216156171e257680100000000000000010260401c5b670de0b6b3a76400000260409190911c60bf031c90565b7f4e487b7100000000000000000000000000000000000000000000000000000000600052604160045260246000fd5b600082601f83011261723957600080fd5b813567ffffffffffffffff80821115617254576172546171f9565b604051601f83017fffffffffffffffffffffffffffffffffffffffffffffffffffffffffffffffe0908116603f0116810190828211818310171561729a5761729a6171f9565b816040528381528660208588010111156172b357600080fd5b836020870160208301376000602085830101528094505050505092915050565b80357fffffffffffffffff0000000000000000000000000000000000000000000000008116811461730357600080fd5b919050565b600080600080600080600060e0888a03121561732357600080fd5b87357fffffffff000000000000000000000000000000000000000000000000000000008116811461735357600080fd5b9650602088013567ffffffffffffffff8082111561737057600080fd5b61737c8b838c01617228565b975060408a0135965060608a013591508082111561739957600080fd5b6173a58b838c01617228565b955060808a0135945060a08a01359150808211156173c257600080fd5b506173cf8a828b01617228565b9250506173de60c089016172d3565b905092959891949750929550565b60005b838110156174075781810151838201526020016173ef565b50506000910152565b600081518084526174288160208601602086016173ec565b601f017fffffffffffffffffffffffffffffffffffffffffffffffffffffffffffffffe0169290920160200192915050565b60208152600061599c6020830184617410565b803573ffffffffffffffffffffffffffffffffffffffff8116811461730357600080fd5b600080604083850312156174a457600080fd5b6174ad8361746d565b946020939093013593505050565b6000806000606084860312156174d057600080fd5b83359250602084013580151581146174e757600080fd5b9150604084013567ffffffffffffffff81111561750357600080fd5b61750f86828701617228565b9150509250925092565b60006020828403121561752b57600080fd5b5035919050565b60006020828403121561754457600080fd5b61599c8261746d565b6000806040838503121561756057600080fd5b50508035926020909101359150565b60008060008060008060c0878903121561758857600080fd5b86359550602087013567ffffffffffffffff808211156175a757600080fd5b6175b38a838b01617228565b965060408901359150808211156175c957600080fd5b6175d58a838b01617228565b955060608901359150808211156175eb57600080fd5b6175f78a838b01617228565b9450608089013591508082111561760d57600080fd5b5061761a89828a01617228565b92505060a087013590509295509295509295565b60008060006060848603121561764357600080fd5b61764c8461746d565b925061765a6020850161746d565b9150604084013590509250925092565b60006101408c83528b60208401528a604084015289606084015288608084015273ffffffffffffffffffffffffffffffffffffffff881660a08401528060c08401526176b881840188617410565b905082810360e08401526176cc8187617410565b90508281036101008401526176e18186617410565b90508281036101208401526176f68185617410565b9d9c50505050505050505050505050565b60008060006060848603121561771c57600080fd5b83359250602084013567ffffffffffffffff8082111561773b57600080fd5b61774787838801617228565b9350604086013591508082111561775d57600080fd5b5061750f86828701617228565b8281526040602082015260006168326040830184617410565b7f4e487b7100000000000000000000000000000000000000000000000000000000600052602160045260246000fd5b600481106177e9577f4e487b7100000000000000000000000000000000000000000000000000000000600052602160045260246000fd5b9052565b8d8152602081018d9052604081018c90526101a08101617810606083018d6177b2565b61781d608083018c6177b2565b98151560a082015260c081019790975260e08701959095526101008601939093526101208501919091526101408401526101608301526101809091015295945050505050565b60008060006060848603121561787857600080fd5b505081359360208301359350604090920135919050565b85815284602082015283604082015260a0606082015260006178b460a0830185617410565b82810360808401526178c68185617410565b98975050505050505050565b6000602082840312156178e457600080fd5b813567ffffffffffffffff8111156178fb57600080fd5b61683284828501617228565b6000806000806080858703121561791d57600080fd5b5050823594602084013594506040840135936060013592509050565b6000806040838503121561794c57600080fd5b8235915061795c6020840161746d565b90509250929050565b6000806000806080858703121561797b57600080fd5b843567ffffffffffffffff8082111561799357600080fd5b61799f88838901617228565b9550602087013594506040870135935060608701359150808211156179c357600080fd5b506179d087828801617228565b91505092959194509250565b82151581526040602082015260006168326040830184617410565b60008060408385031215617a0a57600080fd5b617a138361746d565b915061795c6020840161746d565b7f4e487b7100000000000000000000000000000000000000000000000000000000600052601160045260246000fd5b600181815b80851115617aa957817fffffffffffffffffffffffffffffffffffffffffffffffffffffffffffffffff04821115617a8f57617a8f617a21565b80851615617a9c57918102915b93841c9390800290617a55565b509250929050565b600082617ac057506001611e03565b81617acd57506000611e03565b8160018114617ae35760028114617aed57617b09565b6001915050611e03565b60ff841115617afe57617afe617a21565b50506001821b611e03565b5060208310610133831016604e8410600b8410161715617b2c575081810a611e03565b617b368383617a50565b807fffffffffffffffffffffffffffffffffffffffffffffffffffffffffffffffff04821115617b6857617b68617a21565b029392505050565b600061599c8383617ab1565b8082028115828204841417611e0357611e03617a21565b600181811c90821680617ba757607f821691505b602082108103617be0577f4e487b7100000000000000000000000000000000000000000000000000000000600052602260045260246000fd5b50919050565b601f82111561626b576000816000526020600020601f850160051c81016020861015617c0f5750805b601f850160051c820191505b81811015617c2e57828155600101617c1b565b505050505050565b815167ffffffffffffffff811115617c5057617c506171f9565b617c6481617c5e8454617b93565b84617be6565b602080601f831160018114617cb75760008415617c815750858301515b7fffffffffffffffffffffffffffffffffffffffffffffffffffffffffffffffff600386901b1c1916600185901b178555617c2e565b6000858152602081207fffffffffffffffffffffffffffffffffffffffffffffffffffffffffffffffe08616915b82811015617d0457888601518255948401946001909101908401617ce5565b5085821015617d4057878501517fffffffffffffffffffffffffffffffffffffffffffffffffffffffffffffffff600388901b60f8161c191681555b5050505050600190811b01905550565b6000808354617d5e81617b93565b60018281168015617d765760018114617da957617dd8565b7fffffffffffffffffffffffffffffffffffffffffffffffffffffffffffffff0084168752821515830287019450617dd8565b8760005260208060002060005b85811015617dcf5781548a820152908401908201617db6565b50505082870194505b50929695505050505050565b7fffffffff000000000000000000000000000000000000000000000000000000008516815283600482015260008351617e248160248501602088016173ec565b835190830190617e3b8160248401602088016173ec565b016024019695505050505050565b7f4e487b7100000000000000000000000000000000000000000000000000000000600052600160045260246000fd5b848152831515602082015273ffffffffffffffffffffffffffffffffffffffff8316604082015260806060820152600061675b6080830184617410565b81810381811115611e0357611e03617a21565b60007fffffffffffffffffffffffffffffffffffffffffffffffffffffffffffffffff8203617ef957617ef9617a21565b5060010190565b604081526000617f136040830185617410565b90508260208301529392505050565b60008251617f348184602087016173ec565b9190910192915050565b606081526000808554617f5081617b93565b8060608601526080600180841660008114617f725760018114617fac57617fde565b7fffffffffffffffffffffffffffffffffffffffffffffffffffffffffffffff0085166080890152608084151560051b8901019550617fde565b8a60005260208060002060005b86811015617fd45781548b8201870152908401908201617fb9565b8a01608001975050505b505050505060208301949094525060400152919050565b7f4e487b7100000000000000000000000000000000000000000000000000000000600052601260045260246000fd5b60008261803357618033617ff5565b500490565b80820180821115611e0357611e03617a21565b60008261805a5761805a617ff5565b50069056fe5468697320736d61727420636f6e74726163742069732072756e6e696e67207468652041656769732048617264666f726b2c2045746963612076352e20446973636f766572696e67206f7572206265737420467574757265732e204e6f20496e74656c6c65637475616c2050726f70657274792c20416c6c2070726f706f73616c7320617265206d61646520756e64657220746865206c6963656e736520437265617469766520436f6d6d6f6e73204174747269627574696f6e20342e3020496e7465726e6174696f6e616c2028434320425920342e30292ea26469706673582212206e2d2f010290ab12a80488a73ad9164273158fb264491b1356f1abc1f5b5b75364736f6c63430008160033",
  "linkReferences": {},
  "deployedLinkReferences": {}
}