{
  "_format": "hh-sol-artifact-1",
  "contractName": "EticaRelease",
  "sourceName": "contracts/EticaRelease.sol",
  "abi": [
    {
      "inputs": [
        {
          "internalType": "uint256",
          "name": "x",
          "type": "uint256"
        },
        {
          "internalType": "uint256",
          "name": "y",
          "type": "uint256"
        }
      ],
      "name": "PRBMath_MulDiv18_Overflow",
      "type": "error"
    },
    {
      "inputs": [
        {
          "internalType": "UD60x18",
          "name": "x",
          "type": "uint256"
        }
      ],
      "name": "PRBMath_UD60x18_Exp2_InputTooBig",
      "type": "error"
    },
    {
      "inputs": [
        {
          "internalType": "UD60x18",
          "name": "x",
          "type": "uint256"
        }
      ],
      "name": "PRBMath_UD60x18_Log_InputTooSmall",
      "type": "error"
    },
    {
      "anonymous": false,
      "inputs": [
        {
          "indexed": true,
          "internalType": "address",
          "name": "tokenOwner",
          "type": "address"
        },
        {
          "indexed": true,
          "internalType": "address",
          "name": "spender",
          "type": "address"
        },
        {
          "indexed": false,
          "internalType": "uint256",
          "name": "tokens",
          "type": "uint256"
        }
      ],
      "name": "Approval",
      "type": "event"
    },
    {
      "anonymous": false,
      "inputs": [
        {
          "indexed": true,
          "internalType": "uint256",
          "name": "period_id",
          "type": "uint256"
        },
        {
          "indexed": false,
          "internalType": "uint256",
          "name": "interval",
          "type": "uint256"
        }
      ],
      "name": "CreatedPeriod",
      "type": "event"
    },
    {
      "anonymous": false,
      "inputs": [
        {
          "indexed": true,
          "internalType": "address",
          "name": "from",
          "type": "address"
        },
        {
          "indexed": false,
          "internalType": "uint256",
          "name": "blockreward",
          "type": "uint256"
        },
        {
          "indexed": false,
          "internalType": "uint256",
          "name": "epochCount",
          "type": "uint256"
        },
        {
          "indexed": false,
          "internalType": "bytes32",
          "name": "newChallengeNumber",
          "type": "bytes32"
        }
      ],
      "name": "Mint",
      "type": "event"
    },
    {
      "anonymous": false,
      "inputs": [
        {
          "indexed": true,
          "internalType": "uint256",
          "name": "chunkid",
          "type": "uint256"
        },
        {
          "indexed": true,
          "internalType": "bytes32",
          "name": "diseasehash",
          "type": "bytes32"
        }
      ],
      "name": "NewChunk",
      "type": "event"
    },
    {
      "anonymous": false,
      "inputs": [
        {
          "indexed": true,
          "internalType": "address",
          "name": "_voter",
          "type": "address"
        },
        {
          "indexed": false,
          "internalType": "bytes32",
          "name": "votehash",
          "type": "bytes32"
        },
        {
          "indexed": false,
          "internalType": "uint256",
          "name": "amount",
          "type": "uint256"
        }
      ],
      "name": "NewCommit",
      "type": "event"
    },
    {
      "anonymous": false,
      "inputs": [
        {
          "indexed": true,
          "internalType": "uint256",
          "name": "diseaseindex",
          "type": "uint256"
        },
        {
          "indexed": false,
          "internalType": "string",
          "name": "title",
          "type": "string"
        }
      ],
      "name": "NewDisease",
      "type": "event"
    },
    {
      "anonymous": false,
      "inputs": [
        {
          "indexed": true,
          "internalType": "address",
          "name": "voter",
          "type": "address"
        },
        {
          "indexed": false,
          "internalType": "uint256",
          "name": "fee",
          "type": "uint256"
        },
        {
          "indexed": false,
          "internalType": "bytes32",
          "name": "proposal_hash",
          "type": "bytes32"
        }
      ],
      "name": "NewFee",
      "type": "event"
    },
    {
      "anonymous": false,
      "inputs": [
        {
          "indexed": false,
          "internalType": "bytes32",
          "name": "proposed_release_hash",
          "type": "bytes32"
        },
        {
          "indexed": true,
          "internalType": "address",
          "name": "_proposer",
          "type": "address"
        },
        {
          "indexed": true,
          "internalType": "bytes32",
          "name": "diseasehash",
          "type": "bytes32"
        },
        {
          "indexed": true,
          "internalType": "uint256",
          "name": "chunkid",
          "type": "uint256"
        }
      ],
      "name": "NewProposal",
      "type": "event"
    },
    {
      "anonymous": false,
      "inputs": [
        {
          "indexed": true,
          "internalType": "address",
          "name": "_voter",
          "type": "address"
        },
        {
          "indexed": true,
          "internalType": "bytes32",
          "name": "_proposal",
          "type": "bytes32"
        },
        {
          "indexed": false,
          "internalType": "uint256",
          "name": "amount",
          "type": "uint256"
        }
      ],
      "name": "NewRecover",
      "type": "event"
    },
    {
      "anonymous": false,
      "inputs": [
        {
          "indexed": true,
          "internalType": "address",
          "name": "_voter",
          "type": "address"
        },
        {
          "indexed": true,
          "internalType": "bytes32",
          "name": "_proposal",
          "type": "bytes32"
        },
        {
          "indexed": false,
          "internalType": "uint256",
          "name": "amount",
          "type": "uint256"
        }
      ],
      "name": "NewReveal",
      "type": "event"
    },
    {
      "anonymous": false,
      "inputs": [
        {
          "indexed": true,
          "internalType": "address",
          "name": "voter",
          "type": "address"
        },
        {
          "indexed": false,
          "internalType": "uint256",
          "name": "amount",
          "type": "uint256"
        },
        {
          "indexed": false,
          "internalType": "bytes32",
          "name": "proposal_hash",
          "type": "bytes32"
        },
        {
          "indexed": false,
          "internalType": "uint256",
          "name": "duration",
          "type": "uint256"
        }
      ],
      "name": "NewSlash",
      "type": "event"
    },
    {
      "anonymous": false,
      "inputs": [
        {
          "indexed": true,
          "internalType": "address",
          "name": "staker",
          "type": "address"
        },
        {
          "indexed": false,
          "internalType": "uint256",
          "name": "amount",
          "type": "uint256"
        }
      ],
      "name": "NewStake",
      "type": "event"
    },
    {
      "anonymous": false,
      "inputs": [
        {
          "indexed": true,
          "internalType": "address",
          "name": "staker",
          "type": "address"
        },
        {
          "indexed": false,
          "internalType": "uint256",
          "name": "endtime",
          "type": "uint256"
        },
        {
          "indexed": false,
          "internalType": "uint256",
          "name": "minlimit",
          "type": "uint256"
        }
      ],
      "name": "NewStakescsldt",
      "type": "event"
    },
    {
      "anonymous": false,
      "inputs": [
        {
          "indexed": true,
          "internalType": "address",
          "name": "staker",
          "type": "address"
        },
        {
          "indexed": false,
          "internalType": "uint256",
          "name": "snapamount",
          "type": "uint256"
        }
      ],
      "name": "NewStakesnap",
      "type": "event"
    },
    {
      "anonymous": false,
      "inputs": [
        {
          "indexed": true,
          "internalType": "address",
          "name": "voter",
          "type": "address"
        },
        {
          "indexed": false,
          "internalType": "uint256",
          "name": "amount",
          "type": "uint256"
        },
        {
          "indexed": false,
          "internalType": "bytes32",
          "name": "proposal_hash",
          "type": "bytes32"
        }
      ],
      "name": "RewardClaimed",
      "type": "event"
    },
    {
      "anonymous": false,
      "inputs": [
        {
          "indexed": true,
          "internalType": "address",
          "name": "staker",
          "type": "address"
        },
        {
          "indexed": false,
          "internalType": "uint256",
          "name": "stakeamount",
          "type": "uint256"
        }
      ],
      "name": "StakeClaimed",
      "type": "event"
    },
    {
      "anonymous": false,
      "inputs": [
        {
          "indexed": true,
          "internalType": "address",
          "name": "voter",
          "type": "address"
        },
        {
          "indexed": false,
          "internalType": "bytes32",
          "name": "proposal_hash",
          "type": "bytes32"
        }
      ],
      "name": "TieClaimed",
      "type": "event"
    },
    {
      "anonymous": false,
      "inputs": [
        {
          "indexed": true,
          "internalType": "address",
          "name": "from",
          "type": "address"
        },
        {
          "indexed": true,
          "internalType": "address",
          "name": "to",
          "type": "address"
        },
        {
          "indexed": false,
          "internalType": "uint256",
          "name": "tokens",
          "type": "uint256"
        }
      ],
      "name": "Transfer",
      "type": "event"
    },
    {
      "inputs": [],
      "name": "APPROVAL_THRESHOLD",
      "outputs": [
        {
          "internalType": "uint256",
          "name": "",
          "type": "uint256"
        }
      ],
      "stateMutability": "view",
      "type": "function"
    },
    {
      "inputs": [],
      "name": "DEFAULT_EXTRA_TIME",
      "outputs": [
        {
          "internalType": "uint256",
          "name": "",
          "type": "uint256"
        }
      ],
      "stateMutability": "view",
      "type": "function"
    },
    {
      "inputs": [],
      "name": "DEFAULT_REVEALING_TIME",
      "outputs": [
        {
          "internalType": "uint256",
          "name": "",
          "type": "uint256"
        }
      ],
      "stateMutability": "view",
      "type": "function"
    },
    {
      "inputs": [],
      "name": "DEFAULT_VOTING_TIME",
      "outputs": [
        {
          "internalType": "uint256",
          "name": "",
          "type": "uint256"
        }
      ],
      "stateMutability": "view",
      "type": "function"
    },
    {
      "inputs": [],
      "name": "DISEASE_CREATION_AMOUNT",
      "outputs": [
        {
          "internalType": "uint256",
          "name": "",
          "type": "uint256"
        }
      ],
      "stateMutability": "view",
      "type": "function"
    },
    {
      "inputs": [
        {
          "internalType": "uint256",
          "name": "",
          "type": "uint256"
        }
      ],
      "name": "IntervalsPeriods",
      "outputs": [
        {
          "internalType": "uint256",
          "name": "",
          "type": "uint256"
        }
      ],
      "stateMutability": "view",
      "type": "function"
    },
    {
      "inputs": [],
      "name": "IntervalsPeriodsCounter",
      "outputs": [
        {
          "internalType": "uint256",
          "name": "",
          "type": "uint256"
        }
      ],
      "stateMutability": "view",
      "type": "function"
    },
    {
      "inputs": [],
      "name": "LAST_PERIOD_COST_UPDATE",
      "outputs": [
        {
          "internalType": "uint256",
          "name": "",
          "type": "uint256"
        }
      ],
      "stateMutability": "view",
      "type": "function"
    },
    {
      "inputs": [],
      "name": "PERIODS_PER_THRESHOLD",
      "outputs": [
        {
          "internalType": "uint256",
          "name": "",
          "type": "uint256"
        }
      ],
      "stateMutability": "view",
      "type": "function"
    },
    {
      "inputs": [],
      "name": "PERIOD_CURATION_REWARD_RATIO",
      "outputs": [
        {
          "internalType": "uint256",
          "name": "",
          "type": "uint256"
        }
      ],
      "stateMutability": "view",
      "type": "function"
    },
    {
      "inputs": [],
      "name": "PERIOD_EDITOR_REWARD_RATIO",
      "outputs": [
        {
          "internalType": "uint256",
          "name": "",
          "type": "uint256"
        }
      ],
      "stateMutability": "view",
      "type": "function"
    },
    {
      "inputs": [],
      "name": "PROPOSAL_DEFAULT_VOTE",
      "outputs": [
        {
          "internalType": "uint256",
          "name": "",
          "type": "uint256"
        }
      ],
      "stateMutability": "view",
      "type": "function"
    },
    {
      "inputs": [],
      "name": "PROPOSERS_INCREASER",
      "outputs": [
        {
          "internalType": "uint256",
          "name": "",
          "type": "uint256"
        }
      ],
      "stateMutability": "view",
      "type": "function"
    },
    {
      "inputs": [],
      "name": "PROTOCOL_RATIO_TARGET",
      "outputs": [
        {
          "internalType": "uint256",
          "name": "",
          "type": "uint256"
        }
      ],
      "stateMutability": "view",
      "type": "function"
    },
    {
      "inputs": [
        {
          "internalType": "uint256",
          "name": "",
          "type": "uint256"
        }
      ],
      "name": "PeriodsIssued",
      "outputs": [
        {
          "internalType": "uint256",
          "name": "",
          "type": "uint256"
        }
      ],
      "stateMutability": "view",
      "type": "function"
    },
    {
      "inputs": [],
      "name": "PeriodsIssuedCounter",
      "outputs": [
        {
          "internalType": "uint256",
          "name": "",
          "type": "uint256"
        }
      ],
      "stateMutability": "view",
      "type": "function"
    },
    {
      "inputs": [],
      "name": "REWARD_INTERVAL",
      "outputs": [
        {
          "internalType": "uint256",
          "name": "",
          "type": "uint256"
        }
      ],
      "stateMutability": "view",
      "type": "function"
    },
    {
      "inputs": [],
      "name": "SEEDHASH_EPOCH_BLOCKS",
      "outputs": [
        {
          "internalType": "uint256",
          "name": "",
          "type": "uint256"
        }
      ],
      "stateMutability": "view",
      "type": "function"
    },
    {
      "inputs": [],
      "name": "SEVERITY_LEVEL",
      "outputs": [
        {
          "internalType": "uint256",
          "name": "",
          "type": "uint256"
        }
      ],
      "stateMutability": "view",
      "type": "function"
    },
    {
      "inputs": [],
      "name": "STAKING_DURATION",
      "outputs": [
        {
          "internalType": "uint256",
          "name": "",
          "type": "uint256"
        }
      ],
      "stateMutability": "view",
      "type": "function"
    },
    {
      "inputs": [],
      "name": "UNRECOVERABLE_ETI",
      "outputs": [
        {
          "internalType": "uint256",
          "name": "",
          "type": "uint256"
        }
      ],
      "stateMutability": "view",
      "type": "function"
    },
    {
      "inputs": [],
      "name": "UPDATEDV2",
      "outputs": [
        {
          "internalType": "bool",
          "name": "",
          "type": "bool"
        }
      ],
      "stateMutability": "view",
      "type": "function"
    },
    {
      "inputs": [],
      "name": "UPDATEDV3",
      "outputs": [
        {
          "internalType": "bool",
          "name": "",
          "type": "bool"
        }
      ],
      "stateMutability": "view",
      "type": "function"
    },
    {
      "inputs": [],
      "name": "_BLOCKS_PER_READJUSTMENT",
      "outputs": [
        {
          "internalType": "uint256",
          "name": "",
          "type": "uint256"
        }
      ],
      "stateMutability": "view",
      "type": "function"
    },
    {
      "inputs": [],
      "name": "_MAXIMUM_TARGET",
      "outputs": [
        {
          "internalType": "uint256",
          "name": "",
          "type": "uint256"
        }
      ],
      "stateMutability": "view",
      "type": "function"
    },
    {
      "inputs": [],
      "name": "_MINIMUM_TARGET",
      "outputs": [
        {
          "internalType": "uint256",
          "name": "",
          "type": "uint256"
        }
      ],
      "stateMutability": "view",
      "type": "function"
    },
    {
      "inputs": [],
      "name": "_totalMiningSupply",
      "outputs": [
        {
          "internalType": "uint256",
          "name": "",
          "type": "uint256"
        }
      ],
      "stateMutability": "view",
      "type": "function"
    },
    {
      "inputs": [],
      "name": "accessibleSupply",
      "outputs": [
        {
          "internalType": "uint256",
          "name": "",
          "type": "uint256"
        }
      ],
      "stateMutability": "view",
      "type": "function"
    },
    {
      "inputs": [
        {
          "internalType": "address",
          "name": "tokenOwner",
          "type": "address"
        },
        {
          "internalType": "address",
          "name": "spender",
          "type": "address"
        }
      ],
      "name": "allowance",
      "outputs": [
        {
          "internalType": "uint256",
          "name": "",
          "type": "uint256"
        }
      ],
      "stateMutability": "view",
      "type": "function"
    },
    {
      "inputs": [
        {
          "internalType": "address",
          "name": "spender",
          "type": "address"
        },
        {
          "internalType": "uint256",
          "name": "tokens",
          "type": "uint256"
        }
      ],
      "name": "approve",
      "outputs": [
        {
          "internalType": "bool",
          "name": "",
          "type": "bool"
        }
      ],
      "stateMutability": "nonpayable",
      "type": "function"
    },
    {
      "inputs": [
        {
          "internalType": "address",
          "name": "tokenOwner",
          "type": "address"
        }
      ],
      "name": "balanceOf",
      "outputs": [
        {
          "internalType": "uint256",
          "name": "balance",
          "type": "uint256"
        }
      ],
      "stateMutability": "view",
      "type": "function"
    },
    {
      "inputs": [
        {
          "internalType": "address",
          "name": "",
          "type": "address"
        }
      ],
      "name": "balances",
      "outputs": [
        {
          "internalType": "uint256",
          "name": "",
          "type": "uint256"
        }
      ],
      "stateMutability": "view",
      "type": "function"
    },
    {
      "inputs": [
        {
          "internalType": "address",
          "name": "",
          "type": "address"
        }
      ],
      "name": "blockedeticas",
      "outputs": [
        {
          "internalType": "uint256",
          "name": "",
          "type": "uint256"
        }
      ],
      "stateMutability": "view",
      "type": "function"
    },
    {
      "inputs": [],
      "name": "blockreward",
      "outputs": [
        {
          "internalType": "uint256",
          "name": "",
          "type": "uint256"
        }
      ],
      "stateMutability": "view",
      "type": "function"
    },
    {
      "inputs": [
        {
          "internalType": "address",
          "name": "",
          "type": "address"
        }
      ],
      "name": "bosoms",
      "outputs": [
        {
          "internalType": "uint256",
          "name": "",
          "type": "uint256"
        }
      ],
      "stateMutability": "view",
      "type": "function"
    },
    {
      "inputs": [
        {
          "internalType": "address",
          "name": "tokenOwner",
          "type": "address"
        }
      ],
      "name": "bosomsOf",
      "outputs": [
        {
          "internalType": "uint256",
          "name": "_bosoms",
          "type": "uint256"
        }
      ],
      "stateMutability": "view",
      "type": "function"
    },
    {
      "inputs": [],
      "name": "challengeNumber",
      "outputs": [
        {
          "internalType": "bytes32",
          "name": "",
          "type": "bytes32"
        }
      ],
      "stateMutability": "view",
      "type": "function"
    },
    {
      "inputs": [
        {
          "internalType": "bytes",
          "name": "blockHeader",
          "type": "bytes"
        },
        {
          "internalType": "bytes32",
          "name": "currentChallenge",
          "type": "bytes32"
        },
        {
          "internalType": "uint256",
          "name": "claimedTarget",
          "type": "uint256"
        },
        {
          "internalType": "bytes",
          "name": "seedHash",
          "type": "bytes"
        }
      ],
      "name": "checkMintRandomxInputs",
      "outputs": [
        {
          "internalType": "bool",
          "name": "isValid",
          "type": "bool"
        },
        {
          "internalType": "string",
          "name": "errorMessage",
          "type": "string"
        }
      ],
      "stateMutability": "view",
      "type": "function"
    },
    {
      "inputs": [
        {
          "internalType": "uint256",
          "name": "nonce",
          "type": "uint256"
        },
        {
          "internalType": "bytes32",
          "name": "challenge_digest",
          "type": "bytes32"
        },
        {
          "internalType": "bytes32",
          "name": "challenge_number",
          "type": "bytes32"
        },
        {
          "internalType": "uint256",
          "name": "testTarget",
          "type": "uint256"
        }
      ],
      "name": "checkMintSolution",
      "outputs": [
        {
          "internalType": "bool",
          "name": "success",
          "type": "bool"
        }
      ],
      "stateMutability": "view",
      "type": "function"
    },
    {
      "inputs": [
        {
          "internalType": "uint256",
          "name": "",
          "type": "uint256"
        }
      ],
      "name": "chunkProposalsCounter",
      "outputs": [
        {
          "internalType": "uint256",
          "name": "",
          "type": "uint256"
        }
      ],
      "stateMutability": "view",
      "type": "function"
    },
    {
      "inputs": [
        {
          "internalType": "uint256",
          "name": "",
          "type": "uint256"
        },
        {
          "internalType": "uint256",
          "name": "",
          "type": "uint256"
        }
      ],
      "name": "chunkproposals",
      "outputs": [
        {
          "internalType": "bytes32",
          "name": "",
          "type": "bytes32"
        }
      ],
      "stateMutability": "view",
      "type": "function"
    },
    {
      "inputs": [
        {
          "internalType": "uint256",
          "name": "",
          "type": "uint256"
        }
      ],
      "name": "chunks",
      "outputs": [
        {
          "internalType": "uint256",
          "name": "id",
          "type": "uint256"
        },
        {
          "internalType": "bytes32",
          "name": "diseaseid",
          "type": "bytes32"
        },
        {
          "internalType": "uint256",
          "name": "idx",
          "type": "uint256"
        },
        {
          "internalType": "string",
          "name": "title",
          "type": "string"
        },
        {
          "internalType": "string",
          "name": "desc",
          "type": "string"
        }
      ],
      "stateMutability": "view",
      "type": "function"
    },
    {
      "inputs": [],
      "name": "chunksCounter",
      "outputs": [
        {
          "internalType": "uint256",
          "name": "",
          "type": "uint256"
        }
      ],
      "stateMutability": "view",
      "type": "function"
    },
    {
      "inputs": [
        {
          "internalType": "bytes32",
          "name": "_proposed_release_hash",
          "type": "bytes32"
        }
      ],
      "name": "clmpropbyhash",
      "outputs": [],
      "stateMutability": "nonpayable",
      "type": "function"
    },
    {
      "inputs": [
        {
          "internalType": "address",
          "name": "",
          "type": "address"
        },
        {
          "internalType": "bytes32",
          "name": "",
          "type": "bytes32"
        }
      ],
      "name": "commits",
      "outputs": [
        {
          "internalType": "uint256",
          "name": "amount",
          "type": "uint256"
        },
        {
          "internalType": "uint256",
          "name": "timestamp",
          "type": "uint256"
        }
      ],
      "stateMutability": "view",
      "type": "function"
    },
    {
      "inputs": [
        {
          "internalType": "uint256",
          "name": "_amount",
          "type": "uint256"
        },
        {
          "internalType": "bytes32",
          "name": "_votehash",
          "type": "bytes32"
        }
      ],
      "name": "commitvote",
      "outputs": [],
      "stateMutability": "nonpayable",
      "type": "function"
    },
    {
      "inputs": [
        {
          "internalType": "bytes32",
          "name": "_diseasehash",
          "type": "bytes32"
        },
        {
          "internalType": "string",
          "name": "_title",
          "type": "string"
        },
        {
          "internalType": "string",
          "name": "_description",
          "type": "string"
        }
      ],
      "name": "createchunk",
      "outputs": [],
      "stateMutability": "nonpayable",
      "type": "function"
    },
    {
      "inputs": [
        {
          "internalType": "string",
          "name": "_name",
          "type": "string"
        }
      ],
      "name": "createdisease",
      "outputs": [],
      "stateMutability": "nonpayable",
      "type": "function"
    },
    {
      "inputs": [],
      "name": "decimals",
      "outputs": [
        {
          "internalType": "uint256",
          "name": "",
          "type": "uint256"
        }
      ],
      "stateMutability": "view",
      "type": "function"
    },
    {
      "inputs": [
        {
          "internalType": "bytes32",
          "name": "",
          "type": "bytes32"
        }
      ],
      "name": "diseaseChunksCounter",
      "outputs": [
        {
          "internalType": "uint256",
          "name": "",
          "type": "uint256"
        }
      ],
      "stateMutability": "view",
      "type": "function"
    },
    {
      "inputs": [
        {
          "internalType": "bytes32",
          "name": "",
          "type": "bytes32"
        }
      ],
      "name": "diseaseProposalsCounter",
      "outputs": [
        {
          "internalType": "uint256",
          "name": "",
          "type": "uint256"
        }
      ],
      "stateMutability": "view",
      "type": "function"
    },
    {
      "inputs": [
        {
          "internalType": "bytes32",
          "name": "",
          "type": "bytes32"
        },
        {
          "internalType": "uint256",
          "name": "",
          "type": "uint256"
        }
      ],
      "name": "diseasechunks",
      "outputs": [
        {
          "internalType": "uint256",
          "name": "",
          "type": "uint256"
        }
      ],
      "stateMutability": "view",
      "type": "function"
    },
    {
      "inputs": [
        {
          "internalType": "bytes32",
          "name": "",
          "type": "bytes32"
        },
        {
          "internalType": "uint256",
          "name": "",
          "type": "uint256"
        }
      ],
      "name": "diseaseproposals",
      "outputs": [
        {
          "internalType": "bytes32",
          "name": "",
          "type": "bytes32"
        }
      ],
      "stateMutability": "view",
      "type": "function"
    },
    {
      "inputs": [
        {
          "internalType": "uint256",
          "name": "",
          "type": "uint256"
        }
      ],
      "name": "diseases",
      "outputs": [
        {
          "internalType": "bytes32",
          "name": "disease_hash",
          "type": "bytes32"
        },
        {
          "internalType": "string",
          "name": "name",
          "type": "string"
        }
      ],
      "stateMutability": "view",
      "type": "function"
    },
    {
      "inputs": [],
      "name": "diseasesCounter",
      "outputs": [
        {
          "internalType": "uint256",
          "name": "",
          "type": "uint256"
        }
      ],
      "stateMutability": "view",
      "type": "function"
    },
    {
      "inputs": [
        {
          "internalType": "bytes32",
          "name": "",
          "type": "bytes32"
        }
      ],
      "name": "diseasesbyIds",
      "outputs": [
        {
          "internalType": "uint256",
          "name": "",
          "type": "uint256"
        }
      ],
      "stateMutability": "view",
      "type": "function"
    },
    {
      "inputs": [],
      "name": "epochCount",
      "outputs": [
        {
          "internalType": "uint256",
          "name": "",
          "type": "uint256"
        }
      ],
      "stateMutability": "view",
      "type": "function"
    },
    {
      "inputs": [
        {
          "internalType": "address",
          "name": "_staker",
          "type": "address"
        },
        {
          "internalType": "uint256",
          "name": "_amount",
          "type": "uint256"
        }
      ],
      "name": "eticatobosoms",
      "outputs": [
        {
          "internalType": "bool",
          "name": "success",
          "type": "bool"
        }
      ],
      "stateMutability": "nonpayable",
      "type": "function"
    },
    {
      "inputs": [],
      "name": "getChallengeNumber",
      "outputs": [
        {
          "internalType": "bytes32",
          "name": "",
          "type": "bytes32"
        }
      ],
      "stateMutability": "view",
      "type": "function"
    },
    {
      "inputs": [],
      "name": "getMiningDifficulty",
      "outputs": [
        {
          "internalType": "uint256",
          "name": "",
          "type": "uint256"
        }
      ],
      "stateMutability": "view",
      "type": "function"
    },
    {
      "inputs": [],
      "name": "getMiningReward",
      "outputs": [
        {
          "internalType": "uint256",
          "name": "",
          "type": "uint256"
        }
      ],
      "stateMutability": "view",
      "type": "function"
    },
    {
      "inputs": [],
      "name": "getMiningTarget",
      "outputs": [
        {
          "internalType": "uint256",
          "name": "",
          "type": "uint256"
        }
      ],
      "stateMutability": "view",
      "type": "function"
    },
    {
      "inputs": [
        {
          "internalType": "uint256",
          "name": "nonce",
          "type": "uint256"
        },
        {
          "internalType": "bytes32",
          "name": "challenge_digest",
          "type": "bytes32"
        },
        {
          "internalType": "bytes32",
          "name": "challenge_number",
          "type": "bytes32"
        }
      ],
      "name": "getMintDigest",
      "outputs": [
        {
          "internalType": "bytes32",
          "name": "digesttest",
          "type": "bytes32"
        }
      ],
      "stateMutability": "view",
      "type": "function"
    },
    {
      "inputs": [
        {
          "internalType": "string",
          "name": "_name",
          "type": "string"
        }
      ],
      "name": "getdiseasehashbyName",
      "outputs": [
        {
          "internalType": "bytes32",
          "name": "_diseasehash",
          "type": "bytes32"
        }
      ],
      "stateMutability": "view",
      "type": "function"
    },
    {
      "inputs": [],
      "name": "inflationrate",
      "outputs": [
        {
          "internalType": "uint256",
          "name": "",
          "type": "uint256"
        }
      ],
      "stateMutability": "view",
      "type": "function"
    },
    {
      "inputs": [],
      "name": "initiatormsg",
      "outputs": [
        {
          "internalType": "string",
          "name": "",
          "type": "string"
        }
      ],
      "stateMutability": "view",
      "type": "function"
    },
    {
      "inputs": [],
      "name": "lastRewardEthBlockNumber",
      "outputs": [
        {
          "internalType": "uint256",
          "name": "",
          "type": "uint256"
        }
      ],
      "stateMutability": "view",
      "type": "function"
    },
    {
      "inputs": [],
      "name": "lastRewardTo",
      "outputs": [
        {
          "internalType": "address",
          "name": "",
          "type": "address"
        }
      ],
      "stateMutability": "view",
      "type": "function"
    },
    {
      "inputs": [],
      "name": "latestDifficultyPeriodStarted",
      "outputs": [
        {
          "internalType": "uint256",
          "name": "",
          "type": "uint256"
        }
      ],
      "stateMutability": "view",
      "type": "function"
    },
    {
      "inputs": [],
      "name": "miningTarget",
      "outputs": [
        {
          "internalType": "uint256",
          "name": "",
          "type": "uint256"
        }
      ],
      "stateMutability": "view",
      "type": "function"
    },
    {
      "inputs": [
        {
          "internalType": "uint256",
          "name": "nonce",
          "type": "uint256"
        },
        {
          "internalType": "bytes32",
          "name": "challenge_digest",
          "type": "bytes32"
        }
      ],
      "name": "mint",
      "outputs": [
        {
          "internalType": "bool",
          "name": "success",
          "type": "bool"
        }
      ],
      "stateMutability": "nonpayable",
      "type": "function"
    },
    {
      "inputs": [
        {
          "internalType": "bytes4",
          "name": "nonce",
          "type": "bytes4"
        },
        {
          "internalType": "bytes",
          "name": "blockHeader",
          "type": "bytes"
        },
        {
          "internalType": "bytes32",
          "name": "currentChallenge",
          "type": "bytes32"
        },
        {
          "internalType": "bytes",
          "name": "randomxHash",
          "type": "bytes"
        },
        {
          "internalType": "uint256",
          "name": "claimedTarget",
          "type": "uint256"
        },
        {
          "internalType": "bytes",
          "name": "seedHash",
          "type": "bytes"
        },
        {
          "internalType": "bytes8",
          "name": "extraNonce",
          "type": "bytes8"
        }
      ],
      "name": "mintrandomX",
      "outputs": [
        {
          "internalType": "bool",
          "name": "success",
          "type": "bool"
        }
      ],
      "stateMutability": "nonpayable",
      "type": "function"
    },
    {
      "inputs": [],
      "name": "name",
      "outputs": [
        {
          "internalType": "string",
          "name": "",
          "type": "string"
        }
      ],
      "stateMutability": "view",
      "type": "function"
    },
    {
      "inputs": [],
      "name": "periodrewardtemp",
      "outputs": [
        {
          "internalType": "uint256",
          "name": "",
          "type": "uint256"
        }
      ],
      "stateMutability": "view",
      "type": "function"
    },
    {
      "inputs": [
        {
          "internalType": "uint256",
          "name": "",
          "type": "uint256"
        }
      ],
      "name": "periods",
      "outputs": [
        {
          "internalType": "uint256",
          "name": "id",
          "type": "uint256"
        },
        {
          "internalType": "uint256",
          "name": "interval",
          "type": "uint256"
        },
        {
          "internalType": "uint256",
          "name": "curation_sum",
          "type": "uint256"
        },
        {
          "internalType": "uint256",
          "name": "editor_sum",
          "type": "uint256"
        },
        {
          "internalType": "uint256",
          "name": "reward_for_curation",
          "type": "uint256"
        },
        {
          "internalType": "uint256",
          "name": "reward_for_editor",
          "type": "uint256"
        },
        {
          "internalType": "uint256",
          "name": "forprops",
          "type": "uint256"
        },
        {
          "internalType": "uint256",
          "name": "againstprops",
          "type": "uint256"
        }
      ],
      "stateMutability": "view",
      "type": "function"
    },
    {
      "inputs": [],
      "name": "periodsCounter",
      "outputs": [
        {
          "internalType": "uint256",
          "name": "",
          "type": "uint256"
        }
      ],
      "stateMutability": "view",
      "type": "function"
    },
    {
      "inputs": [
        {
          "internalType": "bytes32",
          "name": "",
          "type": "bytes32"
        }
      ],
      "name": "proposals",
      "outputs": [
        {
          "internalType": "uint256",
          "name": "id",
          "type": "uint256"
        },
        {
          "internalType": "bytes32",
          "name": "proposed_release_hash",
          "type": "bytes32"
        },
        {
          "internalType": "bytes32",
          "name": "disease_id",
          "type": "bytes32"
        },
        {
          "internalType": "uint256",
          "name": "period_id",
          "type": "uint256"
        },
        {
          "internalType": "uint256",
          "name": "chunk_id",
          "type": "uint256"
        },
        {
          "internalType": "address",
          "name": "proposer",
          "type": "address"
        },
        {
          "internalType": "string",
          "name": "title",
          "type": "string"
        },
        {
          "internalType": "string",
          "name": "description",
          "type": "string"
        },
        {
          "internalType": "string",
          "name": "freefield",
          "type": "string"
        },
        {
          "internalType": "string",
          "name": "raw_release_hash",
          "type": "string"
        }
      ],
      "stateMutability": "view",
      "type": "function"
    },
    {
      "inputs": [],
      "name": "proposalsCounter",
      "outputs": [
        {
          "internalType": "uint256",
          "name": "",
          "type": "uint256"
        }
      ],
      "stateMutability": "view",
      "type": "function"
    },
    {
      "inputs": [
        {
          "internalType": "uint256",
          "name": "",
          "type": "uint256"
        }
      ],
      "name": "proposalsbyIndex",
      "outputs": [
        {
          "internalType": "bytes32",
          "name": "",
          "type": "bytes32"
        }
      ],
      "stateMutability": "view",
      "type": "function"
    },
    {
      "inputs": [
        {
          "internalType": "bytes32",
          "name": "_diseasehash",
          "type": "bytes32"
        },
        {
          "internalType": "string",
          "name": "_title",
          "type": "string"
        },
        {
          "internalType": "string",
          "name": "_description",
          "type": "string"
        },
        {
          "internalType": "string",
          "name": "raw_release_hash",
          "type": "string"
        },
        {
          "internalType": "string",
          "name": "_freefield",
          "type": "string"
        },
        {
          "internalType": "uint256",
          "name": "_chunkid",
          "type": "uint256"
        }
      ],
      "name": "propose",
      "outputs": [],
      "stateMutability": "nonpayable",
      "type": "function"
    },
    {
      "inputs": [
        {
          "internalType": "bytes32",
          "name": "",
          "type": "bytes32"
        }
      ],
      "name": "propsdatas",
      "outputs": [
        {
          "internalType": "uint256",
          "name": "starttime",
          "type": "uint256"
        },
        {
          "internalType": "uint256",
          "name": "endtime",
          "type": "uint256"
        },
        {
          "internalType": "uint256",
          "name": "finalized_time",
          "type": "uint256"
        },
        {
          "internalType": "enum EticaRelease.ProposalStatus",
          "name": "status",
          "type": "uint8"
        },
        {
          "internalType": "enum EticaRelease.ProposalStatus",
          "name": "prestatus",
          "type": "uint8"
        },
        {
          "internalType": "bool",
          "name": "istie",
          "type": "bool"
        },
        {
          "internalType": "uint256",
          "name": "nbvoters",
          "type": "uint256"
        },
        {
          "internalType": "uint256",
          "name": "slashingratio",
          "type": "uint256"
        },
        {
          "internalType": "uint256",
          "name": "forvotes",
          "type": "uint256"
        },
        {
          "internalType": "uint256",
          "name": "againstvotes",
          "type": "uint256"
        },
        {
          "internalType": "uint256",
          "name": "lastcuration_weight",
          "type": "uint256"
        },
        {
          "internalType": "uint256",
          "name": "lasteditor_weight",
          "type": "uint256"
        },
        {
          "internalType": "uint256",
          "name": "approvalthreshold",
          "type": "uint256"
        }
      ],
      "stateMutability": "view",
      "type": "function"
    },
    {
      "inputs": [
        {
          "internalType": "address",
          "name": "",
          "type": "address"
        },
        {
          "internalType": "bytes32",
          "name": "",
          "type": "bytes32"
        }
      ],
      "name": "qamounts",
      "outputs": [
        {
          "internalType": "uint256",
          "name": "amount",
          "type": "uint256"
        }
      ],
      "stateMutability": "view",
      "type": "function"
    },
    {
      "inputs": [],
      "name": "randomxBlob",
      "outputs": [
        {
          "internalType": "bytes",
          "name": "",
          "type": "bytes"
        }
      ],
      "stateMutability": "view",
      "type": "function"
    },
    {
      "inputs": [],
      "name": "randomxBlobfirstpart",
      "outputs": [
        {
          "internalType": "bytes32",
          "name": "",
          "type": "bytes32"
        }
      ],
      "stateMutability": "view",
      "type": "function"
    },
    {
      "inputs": [
        {
          "internalType": "bytes32",
          "name": "",
          "type": "bytes32"
        },
        {
          "internalType": "bytes32",
          "name": "",
          "type": "bytes32"
        }
      ],
      "name": "randomxSealSolutions",
      "outputs": [
        {
          "internalType": "bytes32",
          "name": "",
          "type": "bytes32"
        }
      ],
      "stateMutability": "view",
      "type": "function"
    },
    {
      "inputs": [],
      "name": "randomxSeedhash",
      "outputs": [
        {
          "internalType": "bytes",
          "name": "",
          "type": "bytes"
        }
      ],
      "stateMutability": "view",
      "type": "function"
    },
    {
      "inputs": [
        {
          "internalType": "bytes32",
          "name": "_proposed_release_hash",
          "type": "bytes32"
        },
        {
          "internalType": "bool",
          "name": "_approved",
          "type": "bool"
        },
        {
          "internalType": "string",
          "name": "_vary",
          "type": "string"
        }
      ],
      "name": "recovercommit",
      "outputs": [],
      "stateMutability": "nonpayable",
      "type": "function"
    },
    {
      "inputs": [
        {
          "internalType": "bytes32",
          "name": "_votehash",
          "type": "bytes32"
        }
      ],
      "name": "recoverlostcommit",
      "outputs": [],
      "stateMutability": "nonpayable",
      "type": "function"
    },
    {
      "inputs": [
        {
          "internalType": "bytes32",
          "name": "_proposed_release_hash",
          "type": "bytes32"
        },
        {
          "internalType": "bool",
          "name": "_approved",
          "type": "bool"
        },
        {
          "internalType": "string",
          "name": "_vary",
          "type": "string"
        }
      ],
      "name": "revealvote",
      "outputs": [],
      "stateMutability": "nonpayable",
      "type": "function"
    },
    {
      "inputs": [
        {
          "internalType": "uint256",
          "name": "_stakeidx",
          "type": "uint256"
        }
      ],
      "name": "stakeclmidx",
      "outputs": [],
      "stateMutability": "nonpayable",
      "type": "function"
    },
    {
      "inputs": [
        {
          "internalType": "address",
          "name": "",
          "type": "address"
        },
        {
          "internalType": "uint256",
          "name": "",
          "type": "uint256"
        }
      ],
      "name": "stakes",
      "outputs": [
        {
          "internalType": "uint256",
          "name": "amount",
          "type": "uint256"
        },
        {
          "internalType": "uint256",
          "name": "endTime",
          "type": "uint256"
        }
      ],
      "stateMutability": "view",
      "type": "function"
    },
    {
      "inputs": [
        {
          "internalType": "address",
          "name": "",
          "type": "address"
        }
      ],
      "name": "stakesAmount",
      "outputs": [
        {
          "internalType": "uint256",
          "name": "",
          "type": "uint256"
        }
      ],
      "stateMutability": "view",
      "type": "function"
    },
    {
      "inputs": [
        {
          "internalType": "address",
          "name": "",
          "type": "address"
        }
      ],
      "name": "stakesCounters",
      "outputs": [
        {
          "internalType": "uint256",
          "name": "",
          "type": "uint256"
        }
      ],
      "stateMutability": "view",
      "type": "function"
    },
    {
      "inputs": [
        {
          "internalType": "address",
          "name": "_staker",
          "type": "address"
        }
      ],
      "name": "stakescount",
      "outputs": [
        {
          "internalType": "uint256",
          "name": "slength",
          "type": "uint256"
        }
      ],
      "stateMutability": "view",
      "type": "function"
    },
    {
      "inputs": [
        {
          "internalType": "uint256",
          "name": "_endTime",
          "type": "uint256"
        },
        {
          "internalType": "uint256",
          "name": "_min_limit",
          "type": "uint256"
        },
        {
          "internalType": "uint256",
          "name": "_maxidx",
          "type": "uint256"
        }
      ],
      "name": "stakescsldt",
      "outputs": [],
      "stateMutability": "nonpayable",
      "type": "function"
    },
    {
      "inputs": [
        {
          "internalType": "uint256",
          "name": "_stakeidx",
          "type": "uint256"
        },
        {
          "internalType": "uint256",
          "name": "_snapamount",
          "type": "uint256"
        }
      ],
      "name": "stakesnap",
      "outputs": [],
      "stateMutability": "nonpayable",
      "type": "function"
    },
    {
      "inputs": [],
      "name": "supply",
      "outputs": [
        {
          "internalType": "uint256",
          "name": "",
          "type": "uint256"
        }
      ],
      "stateMutability": "view",
      "type": "function"
    },
    {
      "inputs": [],
      "name": "symbol",
      "outputs": [
        {
          "internalType": "string",
          "name": "",
          "type": "string"
        }
      ],
      "stateMutability": "view",
      "type": "function"
    },
    {
      "inputs": [],
      "name": "tokensMinted",
      "outputs": [
        {
          "internalType": "uint256",
          "name": "",
          "type": "uint256"
        }
      ],
      "stateMutability": "view",
      "type": "function"
    },
    {
      "inputs": [],
      "name": "totalSupply",
      "outputs": [
        {
          "internalType": "uint256",
          "name": "",
          "type": "uint256"
        }
      ],
      "stateMutability": "view",
      "type": "function"
    },
    {
      "inputs": [
        {
          "internalType": "address",
          "name": "to",
          "type": "address"
        },
        {
          "internalType": "uint256",
          "name": "tokens",
          "type": "uint256"
        }
      ],
      "name": "transfer",
      "outputs": [
        {
          "internalType": "bool",
          "name": "success",
          "type": "bool"
        }
      ],
      "stateMutability": "nonpayable",
      "type": "function"
    },
    {
      "inputs": [
        {
          "internalType": "address",
          "name": "from",
          "type": "address"
        },
        {
          "internalType": "address",
          "name": "to",
          "type": "address"
        },
        {
          "internalType": "uint256",
          "name": "tokens",
          "type": "uint256"
        }
      ],
      "name": "transferFrom",
      "outputs": [
        {
          "internalType": "bool",
          "name": "",
          "type": "bool"
        }
      ],
      "stateMutability": "nonpayable",
      "type": "function"
    },
    {
      "inputs": [],
      "name": "updatecost",
      "outputs": [],
      "stateMutability": "nonpayable",
      "type": "function"
    },
    {
      "inputs": [],
      "name": "updatev2",
      "outputs": [],
      "stateMutability": "nonpayable",
      "type": "function"
    },
    {
      "inputs": [],
      "name": "updatev3",
      "outputs": [],
      "stateMutability": "nonpayable",
      "type": "function"
    },
    {
      "inputs": [
        {
          "internalType": "bytes32",
          "name": "",
          "type": "bytes32"
        },
        {
          "internalType": "address",
          "name": "",
          "type": "address"
        }
      ],
      "name": "votes",
      "outputs": [
        {
          "internalType": "bytes32",
          "name": "proposal_hash",
          "type": "bytes32"
        },
        {
          "internalType": "bool",
          "name": "approve",
          "type": "bool"
        },
        {
          "internalType": "bool",
          "name": "is_editor",
          "type": "bool"
        },
        {
          "internalType": "uint256",
          "name": "amount",
          "type": "uint256"
        },
        {
          "internalType": "address",
          "name": "voter",
          "type": "address"
        },
        {
          "internalType": "uint256",
          "name": "timestamp",
          "type": "uint256"
        },
        {
          "internalType": "bool",
          "name": "is_claimed",
          "type": "bool"
        }
      ],
      "stateMutability": "view",
      "type": "function"
    },
    {
      "stateMutability": "payable",
      "type": "receive"
    }
  ],
  "bytecode": "0x60c06040526005608090815264457469636160d81b60a05260009062000026908262000549565b5060408051808201909152600381526245544960e81b602082015260019062000050908262000549565b5060126002556408e4b1e125600655640e63c506db6007556107e0600e556004600f55600160e01b60105562093a806019556224ea00601a55621baf80601b5562093a80601c55600254600a620000a8919062000728565b620000b590606462000736565b601d55600254620000c890600a62000728565b620000d590600a62000736565b601e55611388601f5560056020556001602181905560225561182460235560006024556043805460ff1990811690915562093a8060445560458054909116905561019a6049553480156200012857600080fd5b5068056bc75e2d631000006003819055306000908152600960205260409020546200015391620001ce565b3060009081526009602052604090205568da5351938e7eb5b95c6005556002546200018090600a62000728565b6200018f9062b03d3062000736565b600b5560006017556801f30795e38ed87acc60135560105460115542600c55620001b8620001f2565b6b1004c20e49aa3240785fcad2600455620007c0565b6000620001dc828462000750565b905082811015620001ec57600080fd5b92915050565b600d5462000202906001620001ce565b600d819055600e5462000215916200077c565b60000362000227576200022762000277565b6200023443600162000433565b406012819055601854600d54604080516020810194909452830191909152606082015260800160408051601f198184030181529190528051602090910120601255565b601154600c546000906200028d90429062000433565b600e54909150600090620002a49061025862000456565b9050808210156200035b576000620002cb83620002c4846103e862000456565b9062000488565b9050610fa0811115620002dd5750610fa05b601054620002ee906103e862000488565b6011541015620003195760115462000310908290620002c4906103e862000456565b6011556200032c565b60105462000328908262000488565b6011555b6200033984600462000488565b601154101562000354576200035084600462000488565b6011555b5062000402565b60006200037082620002c4856103e862000456565b9050610fa0811115620003825750610fa05b60105462000391908262000488565b60115411620003bb57601154620003b2906103e890620002c4908462000456565b601155620003c2565b6010546011555b620003d1600019600462000488565b84116200040057620003e584600462000456565b60115411156200040057620003fc84600462000456565b6011555b505b42600c55600f5460115410156200041a57600f546011555b60105460115411156200042e576010546011555b505050565b6000828211156200044357600080fd5b6200044f828462000793565b9392505050565b600062000464828462000736565b90508215806200047e5750816200047c8483620007a9565b145b620001ec57600080fd5b60008082116200049757600080fd5b6200044f8284620007a9565b634e487b7160e01b600052604160045260246000fd5b600181811c90821680620004ce57607f821691505b602082108103620004ef57634e487b7160e01b600052602260045260246000fd5b50919050565b601f8211156200042e576000816000526020600020601f850160051c81016020861015620005205750805b601f850160051c820191505b8181101562000541578281556001016200052c565b505050505050565b81516001600160401b03811115620005655762000565620004a3565b6200057d81620005768454620004b9565b84620004f5565b602080601f831160018114620005b557600084156200059c5750858301515b600019600386901b1c1916600185901b17855562000541565b600085815260208120601f198616915b82811015620005e657888601518255948401946001909101908401620005c5565b5085821015620006055787850151600019600388901b60f8161c191681555b5050505050600190811b01905550565b634e487b7160e01b600052601160045260246000fd5b600181815b808511156200066c57816000190482111562000650576200065062000615565b808516156200065e57918102915b93841c939080029062000630565b509250929050565b6000826200068557506001620001ec565b816200069457506000620001ec565b8160018114620006ad5760028114620006b857620006d8565b6001915050620001ec565b60ff841115620006cc57620006cc62000615565b50506001821b620001ec565b5060208310610133831016604e8410600b8410161715620006fd575081810a620001ec565b6200070983836200062b565b806000190482111562000720576200072062000615565b029392505050565b60006200044f838362000674565b8082028115828204841417620001ec57620001ec62000615565b80820180821115620001ec57620001ec62000615565b634e487b7160e01b600052601260045260246000fd5b6000826200078e576200078e62000766565b500690565b81810381811115620001ec57620001ec62000615565b600082620007bb57620007bb62000766565b500490565b617e7480620007d06000396000f3fe6080604052600436106106945760003560e01c80636bb5a58211610359578063b54f31db116101c6578063d74ce8c511610102578063ea4a1104116100a0578063f71ae2aa1161007a578063f71ae2aa146115d3578063f8c12e2c146115e9578063f8d8268314611609578063fc84abb71461163657600080fd5b8063ea4a1104146114d7578063ecd3cb8214611570578063f08a01f81461159057600080fd5b8063dd62ed3e116100dc578063dd62ed3e14611414578063e47e25a214611467578063e723b9d914611494578063e729798e146114c157600080fd5b8063d74ce8c5146113d3578063d89abcb5146113e9578063dc6e9cf9146113fe57600080fd5b8063c19885761161016f578063cf70fa4011610149578063cf70fa4014611364578063d03150c61461137a578063d40170d714611390578063d732b835146113a657600080fd5b8063c1988576146112e9578063c7bef6ee14611321578063cb9ae7071461134e57600080fd5b8063b87c0c1d116101a0578063b87c0c1d14611299578063be7d798e146112b3578063bf6fc725146112c957600080fd5b8063b54f31db14611257578063b5ade81b1461126d578063b64077691461128357600080fd5b80638a769d351161029557806397566aa01161023e578063a9059cbb11610218578063a9059cbb146111e2578063b01ab0b214611202578063b31102e214611217578063b4ef00f01461123757600080fd5b806397566aa01461113f57806399690178146111b6578063a5ec87e4146111cc57600080fd5b80639386775a1161026f5780639386775a1461102b57806395bd852e146110fc57806395d89b411461112a57600080fd5b80638a769d3514610fc75780638ae0368b14610fdd57806391efa91414610ff357600080fd5b80637516528011610302578063829965cc116102dc578063829965cc14610f41578063841218ee14610f5757806387a2a9d614610f845780638885898514610f9a57600080fd5b80637516528014610ec25780637f66cb4e14610f0157806381269a5614610f2157600080fd5b80636fd396d6116103335780636fd396d614610e175780637006695114610e6957806370a0823114610e7f57600080fd5b80636bb5a58214610dcb5780636de9f32b14610deb5780636fbbbf1d14610e0157600080fd5b806332e9970811610502578063490203a71161043e5780635965916f116103dc5780635dfa7396116103b65780635dfa739614610d1a57806362adb2e114610d5d5780636352170f14610d9557806369f43e9c14610db557600080fd5b80635965916f14610cbe5780635a2bc22d14610cd35780635dbdda6914610d0457600080fd5b8063509fce5b11610418578063509fce5b14610c075780635327d4af14610c1d5780635708416414610c3d578063584b62a114610c6a57600080fd5b8063490203a714610b3f5780634b44c6aa14610b545780634ef3762814610bf257600080fd5b806337eed2d6116104ab5780633c5e64d1116104855780633c5e64d114610aa3578063410e1b0714610ac3578063424d389414610ad957806346459b2214610b1157600080fd5b806337eed2d614610a615780633925bfe714610a775780633ab3429014610a8d57600080fd5b8063366c41a3116104dc578063366c41a314610a2057806336dfec1c14610a36578063370ef54f14610a4b57600080fd5b806332e99708146109a857806332ed5b12146109bd578063356df5ee146109f357600080fd5b806317da485f116105d1578063229cb73c1161057a57806327e235e31161055457806327e235e3146109395780632e175004146109665780632f40907c1461097c578063313ce5671461099257600080fd5b8063229cb73c146108e457806322ae4ccf146108f957806323b872dd1461091957600080fd5b80631853f0a8116105ab5780631853f0a8146108765780631883a8d01461088c5780631dcc83a9146108c457600080fd5b806317da485f146108295780631801fbe51461083e57806318160ddd1461086157600080fd5b8063095ea7b31161063e5780630dbc6c55116106185780630dbc6c55146107bb5780631081a47e146107d1578063141a3dcf146107fe578063163aa00d1461081357600080fd5b8063095ea7b3146107615780630d899b1b146107815780630db5fea41461079b57600080fd5b8063047fc9aa1161066f578063047fc9aa1461071357806305103f5e1461072957806306fdde031461073f57600080fd5b8062e6e553146106a35780630206cea3146106cc578063037d2f35146106e357600080fd5b3661069e57600080fd5b600080fd5b3480156106af57600080fd5b506106b960075481565b6040519081526020015b60405180910390f35b3480156106d857600080fd5b506106e1611663565b005b3480156106ef57600080fd5b506107036106fe36600461700f565b611742565b60405190151581526020016106c3565b34801561071f57600080fd5b506106b960035481565b34801561073557600080fd5b506106b960495481565b34801561074b57600080fd5b50610754611c79565b6040516106c39190617161565b34801561076d57600080fd5b5061070361077c366004617198565b611d07565b34801561078d57600080fd5b506045546107039060ff1681565b3480156107a757600080fd5b506106e16107b63660046171c2565b611da3565b3480156107c757600080fd5b506106b960225481565b3480156107dd57600080fd5b506106b96107ec366004617220565b602d6020526000908152604090205481565b34801561080a57600080fd5b506107546124b7565b34801561081f57600080fd5b506106b960155481565b34801561083557600080fd5b506106b96124c4565b34801561084a57600080fd5b50610703610859366004617239565b600092915050565b34801561086d57600080fd5b506003546106b9565b34801561088257600080fd5b506106b9602a5481565b34801561089857600080fd5b506106b96108a7366004617198565b604260209081526000928352604080842090915290825290205481565b3480156108d057600080fd5b506106e16108df36600461725b565b6124e2565b3480156108f057600080fd5b506106b96129ce565b34801561090557600080fd5b506106e1610914366004617239565b6129e7565b34801561092557600080fd5b5061070361093436600461731a565b612c0c565b34801561094557600080fd5b506106b9610954366004617356565b60096020526000908152604090205481565b34801561097257600080fd5b506106b9601a5481565b34801561098857600080fd5b506106b960365481565b34801561099e57600080fd5b506106b960025481565b3480156109b457600080fd5b506011546106b9565b3480156109c957600080fd5b506109dd6109d8366004617220565b612d3e565b6040516106c39a99989796959493929190617371565b3480156109ff57600080fd5b506106b9610a0e366004617220565b60326020526000908152604090205481565b348015610a2c57600080fd5b506106b9601d5481565b348015610a4257600080fd5b50610754612fc6565b348015610a5757600080fd5b506106b9601b5481565b348015610a6d57600080fd5b506106b960245481565b348015610a8357600080fd5b506106b9601c5481565b348015610a9957600080fd5b506106b9601f5481565b348015610aaf57600080fd5b506106e1610abe36600461740e565b612fd3565b348015610acf57600080fd5b506106b9600b5481565b348015610ae557600080fd5b506106b9610af4366004617239565b603760209081526000928352604080842090915290825290205481565b348015610b1d57600080fd5b50610b31610b2c366004617220565b613173565b6040516106c3929190617471565b348015610b4b57600080fd5b506106b9613218565b348015610b6057600080fd5b50610bd9610b6f366004617220565b603460205260009081526040902080546001820154600283015460038401546004850154600586015460068701546007880154600889015460098a0154600a909a015498999798969760ff808816986101008904821698620100009004909116969594939291908d565b6040516106c39d9c9b9a999897969594939291906174f4565b348015610bfe57600080fd5b506012546106b9565b348015610c1357600080fd5b506106b960085481565b348015610c2957600080fd5b506106e1610c3836600461756a565b613232565b348015610c4957600080fd5b506106b9610c58366004617356565b603d6020526000908152604090205481565b348015610c7657600080fd5b50610ca9610c85366004617198565b603e6020908152600092835260408084209091529082529020805460019091015482565b604080519283526020830191909152016106c3565b348015610cca57600080fd5b506107546133cc565b348015610cdf57600080fd5b50610cf3610cee366004617220565b6133e9565b6040516106c3959493929190617596565b348015610d1057600080fd5b506106b960195481565b348015610d2657600080fd5b506106b9610d35366004617356565b73ffffffffffffffffffffffffffffffffffffffff166000908152603f602052604090205490565b348015610d6957600080fd5b506106b9610d78366004617239565b602f60209081526000928352604080842090915290825290205481565b348015610da157600080fd5b506106e1610db03660046171c2565b61352a565b348015610dc157600080fd5b506106b9604a5481565b348015610dd757600080fd5b506106e1610de63660046175d9565b613d46565b348015610df757600080fd5b506106b960175481565b348015610e0d57600080fd5b506106b9602c5481565b348015610e2357600080fd5b50601454610e449073ffffffffffffffffffffffffffffffffffffffff1681565b60405173ffffffffffffffffffffffffffffffffffffffff90911681526020016106c3565b348015610e7557600080fd5b506106b960215481565b348015610e8b57600080fd5b506106b9610e9a366004617356565b73ffffffffffffffffffffffffffffffffffffffff1660009081526009602052604090205490565b348015610ece57600080fd5b50610ca9610edd366004617198565b603c6020908152600092835260408084209091529082529020805460019091015482565b348015610f0d57600080fd5b506106e1610f1c366004617220565b613ef6565b348015610f2d57600080fd5b50610703610f3c36600461760e565b6143a8565b348015610f4d57600080fd5b506106b9600d5481565b348015610f6357600080fd5b506106b9610f72366004617220565b60306020526000908152604090205481565b348015610f9057600080fd5b506106b960105481565b348015610fa657600080fd5b506106b9610fb5366004617220565b60296020526000908152604090205481565b348015610fd357600080fd5b506106b960115481565b348015610fe957600080fd5b506106b960125481565b348015610fff57600080fd5b506106b961100e366004617239565b604660209081526000928352604080842090915290825290205481565b34801561103757600080fd5b506110a9611046366004617640565b603b602090815260009283526040808420909152908252902080546001820154600283015460038401546004850154600590950154939460ff8085169561010090950481169473ffffffffffffffffffffffffffffffffffffffff909316921687565b60408051978852951515602088015293151594860194909452606085019190915273ffffffffffffffffffffffffffffffffffffffff16608084015260a0830191909152151560c082015260e0016106c3565b34801561110857600080fd5b5061111c61111736600461766c565b614418565b6040516106c39291906176e3565b34801561113657600080fd5b5061075461460a565b34801561114b57600080fd5b506106b961115a36600461756a565b604080516020808201939093523360601b7fffffffffffffffffffffffffffffffffffffffff00000000000000000000000016818301526054808201959095528151808203909501855260740190528251920191909120919050565b3480156111c257600080fd5b506106b9601e5481565b3480156111d857600080fd5b506106b960335481565b3480156111ee57600080fd5b506107036111fd366004617198565b614617565b34801561120e57600080fd5b506106e16146d6565b34801561122357600080fd5b506106e1611232366004617239565b61478f565b34801561124357600080fd5b506106b96112523660046175d9565b614920565b34801561126357600080fd5b506106b960065481565b34801561127957600080fd5b506106b9600e5481565b34801561128f57600080fd5b506106b960045481565b3480156112a557600080fd5b506043546107039060ff1681565b3480156112bf57600080fd5b506106b960205481565b3480156112d557600080fd5b506107036112e4366004617198565b614948565b3480156112f557600080fd5b506106b9611304366004617239565b603860209081526000928352604080842090915290825290205481565b34801561132d57600080fd5b506106b961133c366004617356565b60406020819052600091825290205481565b34801561135a57600080fd5b506106b9600c5481565b34801561137057600080fd5b506106b960135481565b34801561138657600080fd5b506106b960285481565b34801561139c57600080fd5b506106b960055481565b3480156113b257600080fd5b506106b96113c1366004617356565b603f6020526000908152604090205481565b3480156113df57600080fd5b506106b960265481565b3480156113f557600080fd5b506106e1614997565b34801561140a57600080fd5b506106b9600f5481565b34801561142057600080fd5b506106b961142f3660046176fe565b73ffffffffffffffffffffffffffffffffffffffff9182166000908152600a6020908152604080832093909416825291909152205490565b34801561147357600080fd5b506106b9611482366004617220565b603a6020526000908152604090205481565b3480156114a057600080fd5b506106b96114af366004617220565b60396020526000908152604090205481565b3480156114cd57600080fd5b506106b960235481565b3480156114e357600080fd5b506115356114f2366004617220565b6025602052600090815260409020805460018201546002830154600384015460048501546005860154600687015460079097015495969495939492939192909188565b604080519889526020890197909752958701949094526060860192909252608085015260a084015260c083015260e0820152610100016106c3565b34801561157c57600080fd5b506106e161158b366004617220565b614a4c565b34801561159c57600080fd5b506106b96115ab366004617356565b73ffffffffffffffffffffffffffffffffffffffff166000908152603d602052604090205490565b3480156115df57600080fd5b506106b960445481565b3480156115f557600080fd5b506106e1611604366004617220565b614c70565b34801561161557600080fd5b506106b9611624366004617220565b60276020526000908152604090205481565b34801561164257600080fd5b506106b9611651366004617356565b60416020526000908152604090205481565b60455460ff161561167357600080fd5b60025461168190600a617877565b61168d906103e8617883565b601e556116986155d4565b6047906116a5908261793d565b506116ae61571b565b6048906116bb908261793d565b507fffffffffffffffffffffffffffffffffffffffffffffffffffffffffffffffff60108190556116ef90622625a0615785565b60115561019a60495560025461170690600a617877565b611712906101f4617883565b601d55604580547fffffffffffffffffffffffffffffffffffffffffffffffffffffffffffffff00166001179055565b600060476040516117539190617a57565b60405180910390208780519060200120146117cf576040517f08c379a000000000000000000000000000000000000000000000000000000000815260206004820152601460248201527f426c6f636b486561646572206d69736d6174636800000000000000000000000060448201526064015b60405180910390fd5b60125486146117dd57600080fd5b60486040516117ec9190617a57565b6040518091039020838051906020012014611863576040517f08c379a000000000000000000000000000000000000000000000000000000000815260206004820152601160248201527f5365656468617368206d69736d6174636800000000000000000000000000000060448201526064016117c6565b60115484111561187257600080fd5b6040517fffffffffffffffffffffffffffffffffffffffff0000000000000000000000003360601b1660208201527fffffffff0000000000000000000000000000000000000000000000000000000089166034820152600090603801604080517fffffffffffffffffffffffffffffffffffffffffffffffffffffffffffffffe08184030181529181528151602092830120601254600090815260468452828120828252909352908220549092509081900361192d57600080fd5b60008a87878a6040516020016119469493929190617aeb565b60405160208183030381529060405280519060200120905081811461196a57600080fd5b601254600090815260166020526040902054801561198757600080fd5b60125460009081526016602052604090208390556002546119a990600a617877565b6119b690621cd6d0617883565b601754116119dd576801f30795e38ed87acc60135568da5351938e7eb5b95c600555611b46565b6002546119eb90600a617877565b6119f8906269be50617883565b6017541015611a21576801bb94f70329a3fb606013556901b4a6a3271cfd6b72b8600555611b46565b600254611a2f90600a617877565b611a3c9062aba950617883565b6017541015611a655768011d28e7efbf572199601355690118b444500059c512e4600555611b46565b600254611a7390600a617877565b611a809062cc9ed0617883565b6017541015611aa757678e9473f7dfab90cc601355688c5a2228002ce289a4600555611b46565b600254611ab590600a617877565b611ac29062dd1990617883565b6017541015611ae95767474a39fbefd5c86660135568462d111400167144a0600555611b46565b600354600090611afb906127106157a4565b90506000611b0a826064615785565b9050611b28631f5406b0611b226064818560506157a4565b90615785565b601355611b406207f4d5611b226064818560146157a4565b60055550505b601354601754611b55916157d0565b6017819055600b5411611b6a57611b6a617b50565b601354600354611b79916157d0565b60035560135433600090815260096020526040902054611b98916157d0565b33600081815260096020526040902091909155601480547fffffffffffffffffffffffff000000000000000000000000000000000000000016909117905543601555611be26157eb565b601354600d546012546040805193845260208401929092529082015233907fcf6fbb9dcea7d07263ab4f5c3a92f53af33dffc421d9d121e1c74b307e68189d9060600160405180910390a2601354604051908152339030907fddf252ad1be2c89b69c2b068fc378daa952ba7f163c4a11628f55a4df523b3ef9060200160405180910390a35060019b9a5050505050505050505050565b60008054611c869061789a565b80601f0160208091040260200160405190810160405280929190818152602001828054611cb29061789a565b8015611cff5780601f10611cd457610100808354040283529160200191611cff565b820191906000526020600020905b815481529060010190602001808311611ce257829003601f168201915b505050505081565b33600090815260096020526040812054821115611d2357600080fd5b60008211611d3057600080fd5b336000818152600a6020908152604080832073ffffffffffffffffffffffffffffffffffffffff881680855290835292819020869055518581529192917f8c5be1e5ebec7d5bd14f71427d1e84f3dd0314c0f7b2291e5b200ac8c7c3b92591015b60405180910390a35060015b92915050565b600083833384604051602001611dbc9493929190617b7f565b604080517fffffffffffffffffffffffffffffffffffffffffffffffffffffffffffffffe08184030181529181528151602092830120336000908152603c8452828120828252909352912054909150611e1457600080fd5b6000848152603160205260409020805415801590611e355750848160010154145b611e3e57600080fd5b6000858152603460205260409020601c546001820154611e5d916157d0565b4211611e6857600080fd5b336000818152603c602090815260408083208784528252808320549383526041909152902054611e97916158c9565b336000908152604160209081526040808320939093556003850154825260259052908120601954909190611ecc904290615785565b90506000611ef86001611ef2601954611b22601c54601b546157d090919063ffffffff16565b906157d0565b6001840154909150611f0a90826157d0565b821015611f1657600080fd5b60008815611f22575060015b336000908152603c602090815260408083208a84529091528120546005870154602154601a54929392611f6b9261271092611b2292611f659160049183916157a4565b906157a4565b905060038088810154610100900460ff1690811115611f8c57611f8c61748a565b03611f9657506044545b600387810154610100900460ff1690811115611fb457611fb461748a565b836003811115611fc657611fc661748a565b0361200557612002612710611b228960050154612711611fe69190617bbc565b611f656002611f65602154601a546157a490919063ffffffff16565b90505b336000908152603c602090815260408083208c845290915281205461203290606490611b2290600a6157a4565b90506126ac88600501541180156120775750600388810154610100900460ff16908111156120625761206261748a565b8460038111156120745761207461748a565b14155b1561208a576120878160026157a4565b90505b60408051828152602081018f905233917f53ef86fe8b545e88c8078a71aa8a9be4140e6f140b4e36f0ffee9207cf1ee896910160405180910390a26008546120d290826157d0565b600855336000908152603c602090815260408083208d84529091529020546120fa90826158c9565b925060015b336000908152603f602052604090205481116121f157336000908152603e602090815260408083208484529091529020548210156121a757336000908152603e6020908152604080832084845290915290205461215c90836158c9565b336000818152603e6020908152604080832086845282528083209490945591815290829052205461218d90836158c9565b3360009081526040602081905281209190915591506121f1565b336000908152603e602090815260408083208484529091529020546121cd9083906158c9565b91506121d933826158e2565b81156121f157806121e981617bcf565b9150506120ff565b5082156124365760408051848152602081018f905290810183905233907fd93567a4d470fa277429086aae141410cccc35c73954734ea3e24152fc044f359060600160405180910390a260015b336000908152603f6020526040902054811161243457336000908152603e60209081526040808320848452909152902054841061234157336000908152603e602090815260408083208484529091529020600101544210156122e557336000908152603e602090815260408083208484529091529020600101546122c290846157d0565b336000908152603e6020908152604080832085845290915290206001015561230e565b6122ef42846157d0565b336000908152603e602090815260408083208584529091529020600101555b336000908152603e602090815260408083208484529091529020546123349085906158c9565b9350831561243457612422565b336000908152603e6020908152604080832084845290915281205461236690866158c9565b336000908152603e602090815260408083208684529091529020600181015490879055909150428111156123df57336000908152603e602090815260408083208684529091529020600101546123bc90866157d0565b336000908152603e60209081526040808320878452909152902060010155612408565b6123e942866157d0565b336000908152603e602090815260408083208784529091529020600101555b811561241b57612419338383615a21565b505b5050612434565b8061242c81617bcf565b91505061223e565b505b6001890154336000818152603c602090815260408083208f84528252918290205491519182527f3ededec39a86b2261e09be07993014ceae66346b9af09000ec0cc87fe2d8f9de910160405180910390a3336000908152603c602090815260408083208d845290915281208181556001015550505050505050505050505050565b60488054611c869061789a565b60006124dd60115460105461578590919063ffffffff16565b905090565b6000868152602d60205260409020541580159061250f5750602c546000878152602d602052604090205411155b61251857600080fd5b6000868152602d60209081526040808320548352602b909152902054861461253f57600080fd5b60365481111561254e57600080fd5b60008387604051602001612563929190617c07565b604080517fffffffffffffffffffffffffffffffffffffffffffffffffffffffffffffffe0818403018152918152815160209283012060008a815260309093529120549091506125b49060016157d0565b6000888152603060209081526040808320849055602f8252808320938352929052208190556033546125e79060016157d0565b60338190556000908152603260209081526040808320849055838352603190915290206001015480151580612629575060008281526031602052604090205415155b1561263357600080fd5b600061264a6019544261578590919063ffffffff16565b6000818152602960205260408120549192500361266957612669615ac1565b60008381526031602090815260408083206033548155600281018d90558484526029909252909120546003820155600181018490556005810180547fffffffffffffffffffffffff00000000000000000000000000000000000000001633179055600681016126d88a8261793d565b50600781016126e7898261793d565b50600981016126f6888261793d565b5060088101612705878261793d565b5060008481526034602052604081206003810180547fffffffffffffffffffffffffffffffffffffffffffffffffffffffffff00000016620102021790556004810182905560058101829055600681018290556007810182905560088101829055600981019190915542808255601b5461277f91906157d0565b6001820155601f54600a820155601e54336000908152603d602052604090205410156127aa57600080fd5b601e54336000908152603d60205260409020546127c6916158c9565b336000908152603d6020908152604080832093909355601e546041909152919020546127f1916157d0565b33600081815260416020908152604080832094909455600186810154808452603b8352858420858552835285842090815590810180547fffffffffffffffffffffffffffffffffffffffffffffffffffffffffffff000016610101179055601e546002820155600380820180547fffffffffffffffffffffffff00000000000000000000000000000000000000001690951790945542600482015592850180547fffffffffffffffffffffffffffffffffffffffffffffffffffffffffffff00ff1661030017905589825260359052919091205480158015906128e457506000888152603560205260409020600101548d145b1561293557600484018890556000888152603a602052604090205461290a9060016157d0565b6000898152603a60209081526040808320849055600188015460388352818420948452939091529020555b6018546040805160208101929092528101889052606001604080518083037fffffffffffffffffffffffffffffffffffffffffffffffffffffffffffffffe001815290829052805160209182012060185560028601548983528a92909133917ff20f961bd89931f54768689d741307497501063bee5847fc3fcaa72b026d1859910160405180910390a450505050505050505050505050565b60006124dd6008546003546158c990919063ffffffff16565b61271082116129f557600080fd5b336000908152603d6020526040902054821115612a1157600080fd5b336000908152603d6020526040902054612a2b90836158c9565b336000908152603d6020908152604080832093909355604190522054612a5190836157d0565b336000908152604160209081526040808320849055603d909152902054612a77916157d0565b336000908152604060208190529020541015612b3b576040517f08c379a000000000000000000000000000000000000000000000000000000000815260206004820152605760248201527f457469636152656c656173653a2045786365737320626f736f6d7320666f722060448201527f74686973206e657720766f746520616d6f756e742c20636c61696d20736f6d6560648201527f207374616b6573206265666f7265206e657720766f7465000000000000000000608482015260a4016117c6565b336000908152603c60209081526040808320848452909152902054612b6090836157d0565b336000908152603c60209081526040808320858452825291829020928355426001909301929092556018548151928301528101829052606001604080518083037fffffffffffffffffffffffffffffffffffffffffffffffffffffffffffffffe00181528282528051602091820120601855838352820184905233917f8a1ff244f8a72f76c71ce96c1ddf485af695058f9e3638a8359e74257d71a30691015b60405180910390a25050565b73ffffffffffffffffffffffffffffffffffffffff8316600090815260096020526040812054612c3c90836158c9565b73ffffffffffffffffffffffffffffffffffffffff8516600090815260096020908152604080832093909355600a815282822033835290522054612c8090836158c9565b73ffffffffffffffffffffffffffffffffffffffff8086166000908152600a60209081526040808320338452825280832094909455918616815260099091522054612ccb90836157d0565b73ffffffffffffffffffffffffffffffffffffffff80851660008181526009602052604090819020939093559151908616907fddf252ad1be2c89b69c2b068fc378daa952ba7f163c4a11628f55a4df523b3ef90612d2c9086815260200190565b60405180910390a35060019392505050565b60316020526000908152604090208054600182015460028301546003840154600485015460058601546006870180549697959694959394929373ffffffffffffffffffffffffffffffffffffffff90921692612d999061789a565b80601f0160208091040260200160405190810160405280929190818152602001828054612dc59061789a565b8015612e125780601f10612de757610100808354040283529160200191612e12565b820191906000526020600020905b815481529060010190602001808311612df557829003601f168201915b505050505090806007018054612e279061789a565b80601f0160208091040260200160405190810160405280929190818152602001828054612e539061789a565b8015612ea05780601f10612e7557610100808354040283529160200191612ea0565b820191906000526020600020905b815481529060010190602001808311612e8357829003601f168201915b505050505090806008018054612eb59061789a565b80601f0160208091040260200160405190810160405280929190818152602001828054612ee19061789a565b8015612f2e5780601f10612f0357610100808354040283529160200191612f2e565b820191906000526020600020905b815481529060010190602001808311612f1157829003601f168201915b505050505090806009018054612f439061789a565b80601f0160208091040260200160405190810160405280929190818152602001828054612f6f9061789a565b8015612fbc5780601f10612f9157610100808354040283529160200191612fbc565b820191906000526020600020905b815481529060010190602001808311612f9f57829003601f168201915b505050505090508a565b60478054611c869061789a565b6000838152602d6020526040902054158015906130005750602c546000848152602d602052604090205411155b61300957600080fd5b6000838152602d60209081526040808320548352602b909152902054831461303057600080fd5b601d54600090613041906005615785565b3360009081526009602052604090205490915081111561306057600080fd5b61306a3082614617565b506036546130799060016157d0565b6036556000848152603960205260409020546130969060016157d0565b600085815260396020908152604080832084815560365460378452828520958552948352818420859055815160a0810183528581528084018a81529154818401908152606082018a8152608083018a905296865260359094529190932081518155925160018401559051600283015591516003820190613116908261793d565b506080820151600482019061312b908261793d565b505060085461313b9150826157d0565b6008556036546040518591907fb733708a2586752275a4854aac54c7bb263ad67859f07d16147feea53ca009d790600090a350505050565b602b60205260009081526040902080546001820180549192916131959061789a565b80601f01602080910402602001604051908101604052809291908181526020018280546131c19061789a565b801561320e5780601f106131e35761010080835404028352916020019161320e565b820191906000526020600020905b8154815290600101906020018083116131f157829003601f168201915b5050505050905082565b6000600b546017541161322c575060135490565b50600090565b613240426303c267006157d0565b831061324b57600080fd5b6032811115801561326b5750336000908152603f60205260409020548111155b61327457600080fd5b6000806001805b84811161337557336000908152603f602052604090205460021161336357336000908152603f602052604090205481116132b7578091506132d4565b6132c181846158c9565b915060018210156132d4576132d4617b50565b336000908152603e60209081526040808320858452909152902060010154871080159061331e5750336000908152603e602090815260408083208584529091529020600101548611155b1561336357336000908152603e602090815260408083208584529091529020546133499085906157d0565b935061335533836158e2565b6133608360016157d0565b92505b8061336d81617bcf565b91505061327b565b50821561338957613387338488615c21565b505b604080518781526020810187905233917f52806950881c6df8cc206c3b151fcc9aea7b2d53d8ff441469dffd05e851e3ab910160405180910390a2505050505050565b60405180610100016040528060d88152602001617d6760d8913981565b6035602052600090815260409020805460018201546002830154600384018054939492939192916134199061789a565b80601f01602080910402602001604051908101604052809291908181526020018280546134459061789a565b80156134925780601f1061346757610100808354040283529160200191613492565b820191906000526020600020905b81548152906001019060200180831161347557829003601f168201915b5050505050908060040180546134a79061789a565b80601f01602080910402602001604051908101604052809291908181526020018280546134d39061789a565b80156135205780601f106134f557610100808354040283529160200191613520565b820191906000526020600020905b81548152906001019060200180831161350357829003601f168201915b5050505050905085565b6000838333846040516020016135439493929190617b7f565b604080517fffffffffffffffffffffffffffffffffffffffffffffffffffffffffffffffe08184030181529181528151602092830120336000908152603c845282812082825290935291205490915061359b57600080fd5b60008481526031602052604090208054158015906135bc5750848160010154145b6135c557600080fd5b6000858152603460209081526040808320600180820154338652603c855283862088875290945291909320015411156135fd57600080fd5b8060010154421180156136205750601c54600182015461361c916157d0565b4211155b61362957600080fd5b6002600382810154610100900460ff16908111156136495761364961748a565b0361365357600080fd5b600881015460098201546003840154600090815260256020908152604080832060018801548452603b835281842033855290925290912054801515806136b9575060018601546000908152603b6020908152604080832033845290915290206002015415155b156136c357600080fd5b6000603b60008860010154815260200190815260200160002060003373ffffffffffffffffffffffffffffffffffffffff1673ffffffffffffffffffffffffffffffffffffffff168152602001908152602001600020905086600101548160000181905550898160010160006101000a81548160ff02191690831515021790555060008160010160016101000a81548160ff021916908315150217905550603c60003373ffffffffffffffffffffffffffffffffffffffff1673ffffffffffffffffffffffffffffffffffffffff1681526020019081526020016000206000898152602001908152602001600020600001548160020181905550338160030160006101000a81548173ffffffffffffffffffffffffffffffffffffffff021916908373ffffffffffffffffffffffffffffffffffffffff160217905550428160040181905550613821600187600401546157d090919063ffffffff16565b6004870155336000908152603c602090815260408083208b8452909152812054670de0b6b3a7640000111561387d57336000908152603c602090815260408083208c8452909152902054613876906002615785565b90506138b3565b6138b06138ad670a688906bd8b0000336000908152603c602090815260408083208f845290915290205490615d3f565b90565b90505b33600090815260426020908152604080832060018c0154845290915290208190558a156138f35760068701546138e990826157d0565b6006880155613908565b600787015461390290826157d0565b60078801555b60008060006139288a600701548b600601546157d090919063ffffffff16565b905060006139456127108c600601546157a490919063ffffffff16565b600a8c015490915060009061395a8385615785565b111561396557600194505b600a8c01546139748385615785565b0361397e57600193505b60038c0180547fffffffffffffffffffffffffffffffffffffffffffffffffffffffffff00ffff1662010000861515021790558415613a0a576139d3612710611b22858f600a0154612710611f659190617bbc565b90506139f281611b226127108f600701546157a490919063ffffffff16565b9050613a0081612710617bbc565b60058d0155613a5a565b613a27612710611b228e600a0154866157a490919063ffffffff16565b9050613a4681611b226127108f600601546157a490919063ffffffff16565b9050613a5481612710617bbc565b60058d01555b6127108c600501541115613a6d57600080fd5b60008515613a79575060015b6003808e810154610100900460ff1690811115613a9857613a9861748a565b03613ad7578515613abd5760068a0154613ab39060016157d0565b60068b0155613b75565b60078a0154613acd9060016157d0565b60078b0155613b75565b60038d810154610100900460ff1690811115613af557613af561748a565b816003811115613b0757613b0761748a565b14613b75576001816003811115613b2057613b2061748a565b03613b4a5760078a0154613b359060016158c9565b60078b015560068a0154613ab39060016157d0565b60068a0154613b5a9060016158c9565b60068b015560078a0154613b6f9060016157d0565b60078b01555b8415613be05760038d0180547fffffffffffffffffffffffffffffffffffffffffffffffffffffffffffff00ff169055600060088e0181905560098e015560028a0154613bc2908d6158c9565b60028b015560038a0154613bd6908c6158c9565b60038b0155613cc4565b8515613c595760038d0180547fffffffffffffffffffffffffffffffffffffffffffffffffffffffffffff00ff1661010017905560068d015460088e0181905560098e0181905560028b0154613c3b9190611ef2908f6158c9565b60028b015560098d015460038b0154613bd69190611ef2908e6158c9565b60038d0180547fffffffffffffffffffffffffffffffffffffffffffffffffffffffffffff00ff16905560078d015460088e01819055600060098f015560028b0154613caa9190611ef2908f6158c9565b60028b015560038a0154613cbe908c6158c9565b60038b01555b60018e0154600289015460405190815233907f4627acd8194d77d62502e6eb464100f9c2d8a487c62a6fd54048d3d8f1cb5c519060200160405180910390a3613d328f336000908152603c602090815260408083208484528083529083208381559383529052600190910155565b505050505050505050505050505050505050565b6040805160008152602081018083528151902091613d6691849101617c29565b6040516020818303038152906040528051906020012003613d8657600080fd5b601d54336000908152600960205260409020541015613da457600080fd5b613db030601d54614617565b50601d54600854613dc0916157d0565b600855604051600090613dd7908390602001617161565b604051602081830303815290604052805190602001209050613e056001602c546157d090919063ffffffff16565b602c556000818152602d602052604090205415613e2157600080fd5b602e82604051613e319190617c29565b9081526040519081900360200190205415613e4b57600080fd5b6040805180820182528281526020808201858152602c546000908152602b9092529290208151815591519091906001820190613e87908261793d565b5050602c546000838152602d6020526040908190209190915551829150602e90613eb2908590617c29565b908152602001604051809103902081905550602c547f830578780908e1ff0fbde38777892998c31b30c39451a5a3b0e99cbf7bd781df83604051612c009190617161565b336000908152603c60209081526040808320848452909152902054613f1a57600080fd5b336000818152603c602090815260408083208584528252808320549383526041909152902054613f49916158c9565b33600090815260416020908152604080832093909355603c81528282208483529052908120546044549091613f846064611b228560156157a4565b604080518281526000602082015291925033917f53ef86fe8b545e88c8078a71aa8a9be4140e6f140b4e36f0ffee9207cf1ee896910160405180910390a2600854613fcf90826157d0565b600855336000908152603c60209081526040808320878452909152902054613ff790826158c9565b925060015b336000908152603f602052604090205481116140ee57336000908152603e602090815260408083208484529091529020548210156140a457336000908152603e6020908152604080832084845290915290205461405990836158c9565b336000818152603e6020908152604080832086845282528083209490945591815290829052205461408a90836158c9565b3360009081526040602081905281209190915591506140ee565b336000908152603e602090815260408083208484529091529020546140ca9083906158c9565b91506140d633826158e2565b81156140ee57806140e681617bcf565b915050613ffc565b50821561433357604080518481526000602082015290810183905233907fd93567a4d470fa277429086aae141410cccc35c73954734ea3e24152fc044f359060600160405180910390a260015b336000908152603f6020526040902054811161433157336000908152603e60209081526040808320848452909152902054841061423e57336000908152603e602090815260408083208484529091529020600101544210156141e257336000908152603e602090815260408083208484529091529020600101546141bf90846157d0565b336000908152603e6020908152604080832085845290915290206001015561420b565b6141ec42846157d0565b336000908152603e602090815260408083208584529091529020600101555b336000908152603e602090815260408083208484529091529020546142319085906158c9565b935083156143315761431f565b336000908152603e6020908152604080832084845290915281205461426390866158c9565b336000908152603e602090815260408083208684529091529020600181015490879055909150428111156142dc57336000908152603e602090815260408083208684529091529020600101546142b990866157d0565b336000908152603e60209081526040808320878452909152902060010155614305565b6142e642866157d0565b336000908152603e602090815260408083208784529091529020600101555b811561431857614316338383615a21565b505b5050614331565b8061432981617bcf565b91505061413b565b505b336000818152603c6020908152604080832088845282528083205490519081529192917f3ededec39a86b2261e09be07993014ceae66346b9af09000ec0cc87fe2d8f9de910160405180910390a3336000908152603c6020908152604080832087845290915281208181556001015550505050565b6040805160208082018590523360601b7fffffffffffffffffffffffffffffffffffffffff0000000000000000000000001682840152605480830188905283518084039091018152607490920190925280519101206000908281111561440d57600080fd5b909314949350505050565b60006060604760405161442b9190617a57565b604051809103902086805190602001201461447e57505060408051808201909152601481527f426c6f636b486561646572206d69736d617463680000000000000000000000006020820152600090614601565b60125485146144c557505060408051808201909152601281527f4368616c6c656e6765206d69736d6174636800000000000000000000000000006020820152600090614601565b60486040516144d49190617a57565b604051809103902083805190602001201461452757505060408051808201909152601181527f5365656468617368206d69736d617463680000000000000000000000000000006020820152600090614601565b60115484111561456f57505060408051808201909152601781527f436c61696d65642074617267657420746f6f20686967680000000000000000006020820152600090614601565b601254600090815260166020526040902054156145c75760006040518060400160405280602081526020017f4368616c6c656e676520616c726561647920686173206120736f6c7574696f6e81525091509150614601565b505060408051808201909152601481527f416c6c20706172616d65746572732076616c696400000000000000000000000060208201526001905b94509492505050565b60018054611c869061789a565b600080821161462557600080fd5b3360009081526009602052604090205461463f90836158c9565b336000908152600960205260408082209290925573ffffffffffffffffffffffffffffffffffffffff85168152205461467890836157d0565b73ffffffffffffffffffffffffffffffffffffffff84166000818152600960205260409081902092909255905133907fddf252ad1be2c89b69c2b068fc378daa952ba7f163c4a11628f55a4df523b3ef90611d919086815260200190565b6002546146e490600a617877565b6146f2906301406f40617883565b600354101561470057600080fd5b603460265461470f9190617c74565b1561471957600080fd5b600061473e6509184e72a000611b226302d69be66003546157a490919063ffffffff16565b90506000614765655af3107a4000611b226302d69be66003546157a490919063ffffffff16565b601e819055601d8390556026546024549192501161478557614785617b50565b5050602654602455565b6000811161479c57600080fd5b6000821180156147bb5750336000908152603f60205260409020548211155b6147c457600080fd5b336000908152603e602090815260408083208584529091529020805482106147eb57600080fd5b80546000906147fa90846158c9565b838355336000908152603f602052604090205490915061481b9060016157d0565b336000908152603f6020526040902081905560641015614897576040517f08c379a000000000000000000000000000000000000000000000000000000000815260206004820181905260248201527f43616e6e6f74206d616b65206d6f7265207468616e20313030207374616b657360448201526064016117c6565b6040805180820182528281526001808501546020808401918252336000908152603e8252858120603f835286822054825290915293909320915182559151910155806148e5576148e5617b50565b60405183815233907f5bbe98d566948f7d7db717dafb0a14082df525118fac86c23df2302f161c03479060200160405180910390a250505050565b6000602e826040516149329190617c29565b9081526020016040518091039020549050919050565b60003373ffffffffffffffffffffffffffffffffffffffff84161461496c57600080fd5b6000821161497957600080fd5b6149833083614617565b5061498e8383615e51565b50600192915050565b60435460ff16156149a757600080fd5b6002546149b590600a617877565b6149c0906064617883565b601e556090600e556002546149d690600a617877565b6149e39062f05370617883565b600b556149ee615eb9565b601054601154614a00906101006157a4565b11614a1857601154614a14906101006157a4565b6011555b62127500604455604380547fffffffffffffffffffffffffffffffffffffffffffffffffffffffffffffff00166001179055565b600081118015614a6b5750336000908152603f60205260409020548111155b614a7457600080fd5b336000908152603e60209081526040808320848452909152902060018101544211614a9e57600080fd5b336000908152604160209081526040808320549181905290912054614ac2916158c9565b81541115614acf57600080fd5b33600090815260416020908152604080832054603d90925290912054614af4916157d0565b815433600090815260406020819052902054614b0f916158c9565b1015614b9d573360009081526041602090815260408083205484549282905290832054614b4692614b4091906158c9565b906158c9565b1115614b8c5733600090815260416020908152604080832054845492829052922054614b779291614b4091906158c9565b336000908152603d6020526040902055614b9d565b336000908152603d60205260408120555b805430600090815260096020526040902054614bb8916158c9565b3060009081526009602052604080822092909255825433825291902054614bde916157d0565b336000818152600960209081526040918290209390935583549051908152909130917fddf252ad1be2c89b69c2b068fc378daa952ba7f163c4a11628f55a4df523b3ef910160405180910390a3805460405190815233907f2aeea59856f5616c244717fd488ead1d1b5fd33608d9583a4607b4c4ba3631e49060200160405180910390a2614c6c33836158e2565b5050565b6000818152603160205260409020805415801590614c915750818160010154145b614c9a57600080fd5b6000828152603460205260409020601c546001820154614cb9916157d0565b4211614cc457600080fd5b60018201546000908152603b60209081526040808320338452909152902080548414614cef57600080fd5b600581015460ff1615614d0157600080fd5b6005810180547fffffffffffffffffffffffffffffffffffffffffffffffffffffffffffffff00166001179055600281015433600090815260416020526040902054614d4c916158c9565b336000908152604160209081526040808320939093556003860154825260259052908120601954909190614d81904290615785565b90506000614da76001611ef2601954611b22601c54601b546157d090919063ffffffff16565b6001840154909150614db990826157d0565b821015614dc557600080fd5b600260038087015460ff1690811115614de057614de061748a565b03614e6e576001600386810154610100900460ff1690811115614e0557614e0561748a565b03614e3c576003850180547fffffffffffffffffffffffffffffffffffffffffffffffffffffffffffffff00166001179055614e67565b6003850180547fffffffffffffffffffffffffffffffffffffffffffffffffffffffffffffff001690555b4260028601555b600385015462010000900460ff1661554657600184015460009060ff1615614e94575060015b60038087015460ff1690811115614ead57614ead61748a565b816003811115614ebf57614ebf61748a565b14615339576000856002015490506000614ef4612710611b228a60050154611f65602154601a546157a490919063ffffffff16565b6001880154909150610100900460ff1615614f1a57602254614f179082906157a4565b90505b612328886005015411156150ec576000614f476064611b2260038b600201546157a490919063ffffffff16565b90506126ac89600501541115614f7757614f746064611b2260078b600201546157a490919063ffffffff16565b90505b6001880154610100900460ff1615614f90575060028701545b875460405133917f53ef86fe8b545e88c8078a71aa8a9be4140e6f140b4e36f0ffee9207cf1ee89691614fcb91858252602082015260400190565b60405180910390a2600854614fe090826157d0565b6008556002880154614ff290826158c9565b925060015b336000908152603f602052604090205481116150e957336000908152603e6020908152604080832084845290915290205482101561509f57336000908152603e6020908152604080832084845290915290205461505490836158c9565b336000818152603e6020908152604080832086845282528083209490945591815290829052205461508590836158c9565b3360009081526040602081905281209190915591506150e9565b336000908152603e602090815260408083208484529091529020546150c59083906158c9565b91506150d133826158e2565b81156150e957806150e181617bcf565b915050614ff7565b50505b8115615332578654604080518481526020810192909252810182905233907fd93567a4d470fa277429086aae141410cccc35c73954734ea3e24152fc044f359060600160405180910390a260015b336000908152603f6020526040902054811161533057336000908152603e60209081526040808320848452909152902054831061523d57336000908152603e602090815260408083208484529091529020600101544210156151e157336000908152603e602090815260408083208484529091529020600101546151be90836157d0565b336000908152603e6020908152604080832085845290915290206001015561520a565b6151eb42836157d0565b336000908152603e602090815260408083208584529091529020600101555b336000908152603e602090815260408083208484529091529020546152309084906158c9565b925082156153305761531e565b336000908152603e6020908152604080832084845290915281205461526290856158c9565b336000908152603e602090815260408083208684529091529020600181015490869055909150428111156152db57336000908152603e602090815260408083208684529091529020600101546152b890856157d0565b336000908152603e60209081526040808320878452909152902060010155615304565b6152e542856157d0565b336000908152603e602090815260408083208784529091529020600101555b811561531757615315338383615a21565b505b5050615330565b8061532881617bcf565b91505061513a565b505b5050615544565b60008085600201541161534b57600080fd5b6001860154610100900460ff166153eb573360009081526042602090815260408083208c8452909152902054156153c257600285015460048601543360009081526042602090815260408083208e84529091529020546153bb926153b4929091611b22916157a4565b82906157d0565b90506153eb565b6153e86153b48660020154611b2288600401548a600201546157a490919063ffffffff16565b90505b6001860154610100900460ff16801561541c5750600160038089015460ff169081111561541a5761541a61748a565b145b1561545b57600085600301541161543257600080fd5b6154586153b48660030154611b2288600501548b600901546157a490919063ffffffff16565b90505b6005850154600486015461546e916157d0565b81111561547a57600080fd5b3060009081526009602052604090205461549490826158c9565b306000908152600960205260408082209290925533815220546154b790826157d0565b336000818152600960205260409081902092909255905130907fddf252ad1be2c89b69c2b068fc378daa952ba7f163c4a11628f55a4df523b3ef906154ff9085815260200190565b60405180910390a360408051828152602081018b905233917fe413caa6d70a6d9b51c2af2575a2914490f614355049af8ae7cde5caab9fd201910160405180910390a2505b505b3360009081526042602090815260408083208a845290915290205415615582573360009081526042602090815260408083208a84529091528120555b600385015462010000900460ff16156155cb5760405187815233907f3e0648214287dbba314854c056353ff9db951ab8f6459ea7c7f922025ba9fdfe9060200160405180910390a25b50505050505050565b606060006155e3600143617bbc565b6018546012546040805193406020850152830191909152606082015260800160405160208183030381529060405280519060200120905060008160014361562a9190617bbc565b604080516020810193909352904090820152336060820152608001604080517fffffffffffffffffffffffffffffffffffffffffffffffffffffffffffffffe08184030181528282528051602091820120600d54918401819052918301529150600090606001604080518083037fffffffffffffffffffffffffffffffffffffffffffffffffffffffffffffffe00181528282528051602091820120604a8790559083018690529082018490527fffffffffffffffffffffffffffffffff00000000000000000000000000000000811660608301529150607001604051602081830303815290604052935050505090565b60185460125460405160609261573692604892602001617c88565b604080517fffffffffffffffffffffffffffffffffffffffffffffffffffffffffffffffe081840301815282825280516020918201209083015201604051602081830303815290604052905090565b600080821161579357600080fd5b61579d8284617d3f565b9392505050565b60006157b08284617883565b90508215806157c75750816157c58483617d3f565b145b611d9d57600080fd5b60006157dc8284617d53565b905082811015611d9d57600080fd5b600d546157f99060016157d0565b600d819055600e5461580a91617c74565b60000361581957615819615eb9565b604954600d546158299190617c74565b6000036158475761583861571b565b604890615845908261793d565b505b6158524360016158c9565b406012819055601854600d546040805160208101949094528301919091526060820152608001604080517fffffffffffffffffffffffffffffffffffffffffffffffffffffffffffffffe081840301815291905280516020909101206012556158b96155d4565b6047906158c6908261793d565b50565b6000828211156158d857600080fd5b61579d8284617bbc565b600081118015615917575073ffffffffffffffffffffffffffffffffffffffff82166000908152603f60205260409020548111155b61592057600080fd5b73ffffffffffffffffffffffffffffffffffffffff82166000818152603e6020908152604080832085845282528083205493835290819052902054615964916158c9565b73ffffffffffffffffffffffffffffffffffffffff831660008181526040602081815281832094909455603e8452808220603f8086528284208054855282875283852088865284862081548155600191820154908201558451808601865286815280890187815283548852948952948620945185559251938301939093559390925291909252546159f4916158c9565b73ffffffffffffffffffffffffffffffffffffffff9092166000908152603f602052604090209190915550565b6000808311615a2f57600080fd5b73ffffffffffffffffffffffffffffffffffffffff84166000908152603f6020526040902054615a609060016157d0565b73ffffffffffffffffffffffffffffffffffffffff949094166000818152603f6020908152604080832088905580518082018252968752868201958652928252603e8152828220968252959095529093209151825551600191820155919050565b6000615ad86019544261578590919063ffffffff16565b6000818152602960205260409020549091508015615af557600080fd5b602654615b039060016157d0565b6026818155604080516101008101825283815260208082018781526000838501818152606085018281526080860183815260a0870184815260c0880185815260e089018681529b8652602588528986209851895595516001808a0191909155935160028901559151600388015551600487015551600586015591516006850155955160079093019290925592548685526029909352922055602a54615ba7916157d0565b602a55602654615bb690616071565b50602054602654615bc89060016158c9565b615bd29190617c74565b158015615be157506001602654115b15615bee57615bee6161d8565b6026546040518381527ff74223d764da704d974281758065d2eb6c9066dc940e3f549b72e894b0404aef90602001612c00565b6000808311615c2f57600080fd5b73ffffffffffffffffffffffffffffffffffffffff84166000908152603f6020526040902054615c609060016157d0565b73ffffffffffffffffffffffffffffffffffffffff85166000908152603f60209081526040808320939093558290522054615c9b90846157d0565b73ffffffffffffffffffffffffffffffffffffffff85166000818152604060208181528183209490945580518082018252878152808501878152848452603e8652828420603f87528385205485529095529181902091518255925160019091015590517f42e99fbad9601d25ee3bb515eeee966f97c3c383adadbe5720f651df8c18989d90615d2d9086815260200190565b60405180910390a25060019392505050565b60008282818303615d6a578015615d57576000615d61565b670de0b6b3a76400005b92505050611d9d565b670de0b6b3a76400008203615d8b57670de0b6b3a764000092505050611d9d565b80600003615da557670de0b6b3a764000092505050611d9d565b670de0b6b3a76400008103615dbe578492505050611d9d565b670de0b6b3a7640000821115615def57615de8615de3615ddd87616355565b866164bb565b6164ca565b9250615e49565b6000615e0d6138ad846ec097ce7bc90715b34b9f1000000000617d3f565b90506000615e26615de3615e2084616355565b886164bb565b9050615e446138ad826ec097ce7bc90715b34b9f1000000000617d3f565b945050505b505092915050565b615e5b8282616541565b5073ffffffffffffffffffffffffffffffffffffffff82166000908152603d6020526040902054615e8c90826157d0565b73ffffffffffffffffffffffffffffffffffffffff9092166000908152603d602052604090209190915550565b601154600c54600090615ecd9042906158c9565b90506000615ee8610258600e546157a490919063ffffffff16565b905080821015615f8a576000615f0483611b22846103e86157a4565b9050610fa0811115615f155750610fa05b601054615f24906103e8615785565b6011541015615f5057615f4881611b226103e86011546157a490919063ffffffff16565b601155615f61565b601054615f5d9082615785565b6011555b615f6c846004615785565b6011541015615f8457615f80846004615785565b6011555b50616042565b6000615f9c82611b22856103e86157a4565b9050610fa0811115615fad5750610fa05b601054615fba9082615785565b60115411615fe557615fdd6103e8611b22836011546157a490919063ffffffff16565b601155615fec565b6010546011555b6160177fffffffffffffffffffffffffffffffffffffffffffffffffffffffffffffffff6004615785565b8411616040576160288460046157a4565b60115411156160405761603c8460046157a4565b6011555b505b42600c55600f54601154101561605957600f546011555b601054601154111561606c576010546011555b505050565b6000806026541161608157600080fd5b60008211801561609357506026548211155b61609c57600080fd5b600082815260256020526040812080549091036160b857600080fd5b805460009081526027602052604090205480156160d457600080fd5b6000600254600a6160e59190617877565b6160f3906301406f40617883565b6003541061612a576161236c7e37be2022c0914b2680000000611b226004546003546157a490919063ffffffff16565b905061612f565b506005545b61614d64174876e800611b22600654846157a490919063ffffffff16565b600484015560075461616b9064174876e80090611b229084906157a4565b600584015560035461617d90826157d0565b6003553060009081526009602052604090205461619a90826157d0565b306000908152600960209081526040808320939093558554825260279052208190556028546161ca9060016157d0565b602855506001949350505050565b6000806000806161f56020546026546158c990919063ffffffff16565b90505b6026546162069060016158c9565b811161625d576000818152602560205260409020600601546162299084906157d0565b6000828152602560205260409020600701549093506162499083906157d0565b91508061625581617bcf565b9150506161f8565b5061626882826157d0565b600003616279576113889250616295565b61629261628683836157d0565b611b22846127106157a4565b92505b6023548310156162e7576023546000906162af90856158c9565b90506162de6162d5612710611b2284611f65611194601f546158c990919063ffffffff16565b601f54906158c9565b601f555061632b565b60006162fe602354856158c990919063ffffffff16565b905061632661631d612710611b2284601f54612710611f659190617bbc565b601f54906157d0565b601f55505b611194601f54101561633e57611194601f555b6126ac601f54111561606c576126ac601f55505050565b600081670de0b6b3a764000081101561639d576040517f36d32ef0000000000000000000000000000000000000000000000000000000008152600481018490526024016117c6565b6000616429670de0b6b3a7640000830460016fffffffffffffffffffffffffffffffff821160071b91821c67ffffffffffffffff811160061b90811c63ffffffff811160051b90811c61ffff811160041b90811c60ff8111600390811b91821c600f811160021b90811c918211871b91821c969096119490961792909217171791909117919091171790565b9050670de0b6b3a7640000810282821c7ffffffffffffffffffffffffffffffffffffffffffffffffff21f494c589c0000810161646c57815b9695505050505050565b671bc16d674ec800006706f05b59d3b200005b80156164af57670de0b6b3a76400008380020492508183106164a7579283019260019290921c915b60011c61647f565b50919695505050505050565b600061579d6138ad8484616685565b600081680a688906bd8affffff811115616513576040517fb3b6ba1f000000000000000000000000000000000000000000000000000000008152600481018490526024016117c6565b600061652b670de0b6b3a7640000604084901b617d3f565b90506165396138ad8261678c565b949350505050565b600080821161654f57600080fd5b73ffffffffffffffffffffffffffffffffffffffff83166000908152603f60205260409020546165809060016157d0565b73ffffffffffffffffffffffffffffffffffffffff84166000908152603f602090815260408083209390935582905220546165bb90836157d0565b73ffffffffffffffffffffffffffffffffffffffff8416600090815260406020819052812091909155601a546165f29042906157d0565b604080518082018252858152602080820184815273ffffffffffffffffffffffffffffffffffffffff89166000818152603e8452858120603f855286822054825284528590209351845590516001909301929092559151868152929350917f42e99fbad9601d25ee3bb515eeee966f97c3c383adadbe5720f651df8c18989d910160405180910390a25060019392505050565b600080807fffffffffffffffffffffffffffffffffffffffffffffffffffffffffffffffff848609848602925082811083820303915050806000036166d75750670de0b6b3a764000090049050611d9d565b670de0b6b3a76400008110616722576040517f5173648d00000000000000000000000000000000000000000000000000000000815260048101869052602481018590526044016117c6565b6000670de0b6b3a7640000858709620400008185030493109091037d40000000000000000000000000000000000000000000000000000000000002919091177faccb18165bd6fe31ae1cf318dc5b51eee0e1ba569b88cd74c1773b91fac106690291505092915050565b7780000000000000000000000000000000000000000000000067ff000000000000008216156168ad576780000000000000008216156167d45768016a09e667f3bcc9090260401c5b6740000000000000008216156167f3576801306fe0a31b7152df0260401c5b672000000000000000821615616812576801172b83c7d517adce0260401c5b6710000000000000008216156168315768010b5586cf9890f62a0260401c5b670800000000000000821615616850576801059b0d31585743ae0260401c5b67040000000000000082161561686f57680102c9a3e778060ee70260401c5b67020000000000000082161561688e5768010163da9fb33356d80260401c5b6701000000000000008216156168ad57680100b1afa5abcbed610260401c5b66ff0000000000008216156169ac5766800000000000008216156168da5768010058c86da1c09ea20260401c5b66400000000000008216156168f8576801002c605e2e8cec500260401c5b662000000000000082161561691657680100162f3904051fa10260401c5b6610000000000000821615616934576801000b175effdc76ba0260401c5b660800000000000082161561695257680100058ba01fb9f96d0260401c5b66040000000000008216156169705768010002c5cc37da94920260401c5b660200000000000082161561698e576801000162e525ee05470260401c5b66010000000000008216156169ac5768010000b17255775c040260401c5b65ff0000000000821615616aa257658000000000008216156169d7576801000058b91b5bc9ae0260401c5b654000000000008216156169f457680100002c5c89d5ec6d0260401c5b65200000000000821615616a115768010000162e43f4f8310260401c5b65100000000000821615616a2e57680100000b1721bcfc9a0260401c5b65080000000000821615616a4b5768010000058b90cf1e6e0260401c5b65040000000000821615616a68576801000002c5c863b73f0260401c5b65020000000000821615616a8557680100000162e430e5a20260401c5b65010000000000821615616aa2576801000000b1721835510260401c5b64ff00000000821615616b8f57648000000000821615616acb57680100000058b90c0b490260401c5b644000000000821615616ae75768010000002c5c8601cc0260401c5b642000000000821615616b03576801000000162e42fff00260401c5b641000000000821615616b1f5768010000000b17217fbb0260401c5b640800000000821615616b3b576801000000058b90bfce0260401c5b640400000000821615616b5757680100000002c5c85fe30260401c5b640200000000821615616b735768010000000162e42ff10260401c5b640100000000821615616b8f57680100000000b17217f80260401c5b63ff000000821615616c73576380000000821615616bb65768010000000058b90bfc0260401c5b6340000000821615616bd1576801000000002c5c85fe0260401c5b6320000000821615616bec57680100000000162e42ff0260401c5b6310000000821615616c07576801000000000b17217f0260401c5b6308000000821615616c2257680100000000058b90c00260401c5b6304000000821615616c3d5768010000000002c5c8600260401c5b6302000000821615616c58576801000000000162e4300260401c5b6301000000821615616c735768010000000000b172180260401c5b62ff0000821615616d4e5762800000821615616c98576801000000000058b90c0260401c5b62400000821615616cb257680100000000002c5c860260401c5b62200000821615616ccc5768010000000000162e430260401c5b62100000821615616ce657680100000000000b17210260401c5b62080000821615616d005768010000000000058b910260401c5b62040000821615616d1a576801000000000002c5c80260401c5b62020000821615616d3457680100000000000162e40260401c5b62010000821615616d4e576801000000000000b1720260401c5b61ff00821615616e2057618000821615616d7157680100000000000058b90260401c5b614000821615616d8a5768010000000000002c5d0260401c5b612000821615616da3576801000000000000162e0260401c5b611000821615616dbc5768010000000000000b170260401c5b610800821615616dd5576801000000000000058c0260401c5b610400821615616dee57680100000000000002c60260401c5b610200821615616e0757680100000000000001630260401c5b610100821615616e2057680100000000000000b10260401c5b60ff821615616ee9576080821615616e4157680100000000000000590260401c5b6040821615616e59576801000000000000002c0260401c5b6020821615616e7157680100000000000000160260401c5b6010821615616e89576801000000000000000b0260401c5b6008821615616ea157680100000000000000060260401c5b6004821615616eb957680100000000000000030260401c5b6002821615616ed157680100000000000000010260401c5b6001821615616ee957680100000000000000010260401c5b670de0b6b3a76400000260409190911c60bf031c90565b7f4e487b7100000000000000000000000000000000000000000000000000000000600052604160045260246000fd5b600082601f830112616f4057600080fd5b813567ffffffffffffffff80821115616f5b57616f5b616f00565b604051601f83017fffffffffffffffffffffffffffffffffffffffffffffffffffffffffffffffe0908116603f01168101908282118183101715616fa157616fa1616f00565b81604052838152866020858801011115616fba57600080fd5b836020870160208301376000602085830101528094505050505092915050565b80357fffffffffffffffff0000000000000000000000000000000000000000000000008116811461700a57600080fd5b919050565b600080600080600080600060e0888a03121561702a57600080fd5b87357fffffffff000000000000000000000000000000000000000000000000000000008116811461705a57600080fd5b9650602088013567ffffffffffffffff8082111561707757600080fd5b6170838b838c01616f2f565b975060408a0135965060608a01359150808211156170a057600080fd5b6170ac8b838c01616f2f565b955060808a0135945060a08a01359150808211156170c957600080fd5b506170d68a828b01616f2f565b9250506170e560c08901616fda565b905092959891949750929550565b60005b8381101561710e5781810151838201526020016170f6565b50506000910152565b6000815180845261712f8160208601602086016170f3565b601f017fffffffffffffffffffffffffffffffffffffffffffffffffffffffffffffffe0169290920160200192915050565b60208152600061579d6020830184617117565b803573ffffffffffffffffffffffffffffffffffffffff8116811461700a57600080fd5b600080604083850312156171ab57600080fd5b6171b483617174565b946020939093013593505050565b6000806000606084860312156171d757600080fd5b83359250602084013580151581146171ee57600080fd5b9150604084013567ffffffffffffffff81111561720a57600080fd5b61721686828701616f2f565b9150509250925092565b60006020828403121561723257600080fd5b5035919050565b6000806040838503121561724c57600080fd5b50508035926020909101359150565b60008060008060008060c0878903121561727457600080fd5b86359550602087013567ffffffffffffffff8082111561729357600080fd5b61729f8a838b01616f2f565b965060408901359150808211156172b557600080fd5b6172c18a838b01616f2f565b955060608901359150808211156172d757600080fd5b6172e38a838b01616f2f565b945060808901359150808211156172f957600080fd5b5061730689828a01616f2f565b92505060a087013590509295509295509295565b60008060006060848603121561732f57600080fd5b61733884617174565b925061734660208501617174565b9150604084013590509250925092565b60006020828403121561736857600080fd5b61579d82617174565b60006101408c83528b60208401528a604084015289606084015288608084015273ffffffffffffffffffffffffffffffffffffffff881660a08401528060c08401526173bf81840188617117565b905082810360e08401526173d38187617117565b90508281036101008401526173e88186617117565b90508281036101208401526173fd8185617117565b9d9c50505050505050505050505050565b60008060006060848603121561742357600080fd5b83359250602084013567ffffffffffffffff8082111561744257600080fd5b61744e87838801616f2f565b9350604086013591508082111561746457600080fd5b5061721686828701616f2f565b8281526040602082015260006165396040830184617117565b7f4e487b7100000000000000000000000000000000000000000000000000000000600052602160045260246000fd5b600481106174f0577f4e487b7100000000000000000000000000000000000000000000000000000000600052602160045260246000fd5b9052565b8d8152602081018d9052604081018c90526101a08101617517606083018d6174b9565b617524608083018c6174b9565b98151560a082015260c081019790975260e08701959095526101008601939093526101208501919091526101408401526101608301526101809091015295945050505050565b60008060006060848603121561757f57600080fd5b505081359360208301359350604090920135919050565b85815284602082015283604082015260a0606082015260006175bb60a0830185617117565b82810360808401526175cd8185617117565b98975050505050505050565b6000602082840312156175eb57600080fd5b813567ffffffffffffffff81111561760257600080fd5b61653984828501616f2f565b6000806000806080858703121561762457600080fd5b5050823594602084013594506040840135936060013592509050565b6000806040838503121561765357600080fd5b8235915061766360208401617174565b90509250929050565b6000806000806080858703121561768257600080fd5b843567ffffffffffffffff8082111561769a57600080fd5b6176a688838901616f2f565b9550602087013594506040870135935060608701359150808211156176ca57600080fd5b506176d787828801616f2f565b91505092959194509250565b82151581526040602082015260006165396040830184617117565b6000806040838503121561771157600080fd5b61771a83617174565b915061766360208401617174565b7f4e487b7100000000000000000000000000000000000000000000000000000000600052601160045260246000fd5b600181815b808511156177b057817fffffffffffffffffffffffffffffffffffffffffffffffffffffffffffffffff0482111561779657617796617728565b808516156177a357918102915b93841c939080029061775c565b509250929050565b6000826177c757506001611d9d565b816177d457506000611d9d565b81600181146177ea57600281146177f457617810565b6001915050611d9d565b60ff84111561780557617805617728565b50506001821b611d9d565b5060208310610133831016604e8410600b8410161715617833575081810a611d9d565b61783d8383617757565b807fffffffffffffffffffffffffffffffffffffffffffffffffffffffffffffffff0482111561786f5761786f617728565b029392505050565b600061579d83836177b8565b8082028115828204841417611d9d57611d9d617728565b600181811c908216806178ae57607f821691505b6020821081036178e7577f4e487b7100000000000000000000000000000000000000000000000000000000600052602260045260246000fd5b50919050565b601f82111561606c576000816000526020600020601f850160051c810160208610156179165750805b601f850160051c820191505b8181101561793557828155600101617922565b505050505050565b815167ffffffffffffffff81111561795757617957616f00565b61796b81617965845461789a565b846178ed565b602080601f8311600181146179be57600084156179885750858301515b7fffffffffffffffffffffffffffffffffffffffffffffffffffffffffffffffff600386901b1c1916600185901b178555617935565b6000858152602081207fffffffffffffffffffffffffffffffffffffffffffffffffffffffffffffffe08616915b82811015617a0b578886015182559484019460019091019084016179ec565b5085821015617a4757878501517fffffffffffffffffffffffffffffffffffffffffffffffffffffffffffffffff600388901b60f8161c191681555b5050505050600190811b01905550565b6000808354617a658161789a565b60018281168015617a7d5760018114617ab057617adf565b7fffffffffffffffffffffffffffffffffffffffffffffffffffffffffffffff0084168752821515830287019450617adf565b8760005260208060002060005b85811015617ad65781548a820152908401908201617abd565b50505082870194505b50929695505050505050565b7fffffffff000000000000000000000000000000000000000000000000000000008516815283600482015260008351617b2b8160248501602088016170f3565b835190830190617b428160248401602088016170f3565b016024019695505050505050565b7f4e487b7100000000000000000000000000000000000000000000000000000000600052600160045260246000fd5b848152831515602082015273ffffffffffffffffffffffffffffffffffffffff831660408201526080606082015260006164626080830184617117565b81810381811115611d9d57611d9d617728565b60007fffffffffffffffffffffffffffffffffffffffffffffffffffffffffffffffff8203617c0057617c00617728565b5060010190565b604081526000617c1a6040830185617117565b90508260208301529392505050565b60008251617c3b8184602087016170f3565b9190910192915050565b7f4e487b7100000000000000000000000000000000000000000000000000000000600052601260045260246000fd5b600082617c8357617c83617c45565b500690565b606081526000808554617c9a8161789a565b8060608601526080600180841660008114617cbc5760018114617cf657617d28565b7fffffffffffffffffffffffffffffffffffffffffffffffffffffffffffffff0085166080890152608084151560051b8901019550617d28565b8a60005260208060002060005b86811015617d1e5781548b8201870152908401908201617d03565b8a01608001975050505b505050505060208301949094525060400152919050565b600082617d4e57617d4e617c45565b500490565b80820180821115611d9d57611d9d61772856fe5468697320736d61727420636f6e74726163742069732072756e6e696e6720477561726469616e2048617264666f726b2c2045746963612076332e20446973636f766572696e67206f7572206265737420467574757265732e204e6f20496e74656c6c65637475616c2050726f70657274792c20416c6c2070726f706f73616c7320617265206d61646520756e64657220746865206c6963656e736520437265617469766520436f6d6d6f6e73204174747269627574696f6e20342e3020496e7465726e6174696f6e616c2028434320425920342e30292ea26469706673582212205cf5aee568144d8902986b3840e050a9d76bf10e8420efea35e973295498e11464736f6c63430008160033",
  "linkReferences": {},
  "deployedLinkReferences": {}
}