{
  "_format": "hh-sol-artifact-1",
  "contractName": "EticaRelease",
  "sourceName": "contracts/EticaRelease.sol",
  "abi": [
    {
      "inputs": [
        {
          "internalType": "uint256",
          "name": "x",
          "type": "uint256"
        },
        {
          "internalType": "uint256",
          "name": "y",
          "type": "uint256"
        }
      ],
      "name": "PRBMath_MulDiv18_Overflow",
      "type": "error"
    },
    {
      "inputs": [
        {
          "internalType": "UD60x18",
          "name": "x",
          "type": "uint256"
        }
      ],
      "name": "PRBMath_UD60x18_Exp2_InputTooBig",
      "type": "error"
    },
    {
      "inputs": [
        {
          "internalType": "UD60x18",
          "name": "x",
          "type": "uint256"
        }
      ],
      "name": "PRBMath_UD60x18_Log_InputTooSmall",
      "type": "error"
    },
    {
      "anonymous": false,
      "inputs": [
        {
          "indexed": true,
          "internalType": "address",
          "name": "tokenOwner",
          "type": "address"
        },
        {
          "indexed": true,
          "internalType": "address",
          "name": "spender",
          "type": "address"
        },
        {
          "indexed": false,
          "internalType": "uint256",
          "name": "tokens",
          "type": "uint256"
        }
      ],
      "name": "Approval",
      "type": "event"
    },
    {
      "anonymous": false,
      "inputs": [
        {
          "indexed": true,
          "internalType": "uint256",
          "name": "period_id",
          "type": "uint256"
        },
        {
          "indexed": false,
          "internalType": "uint256",
          "name": "interval",
          "type": "uint256"
        }
      ],
      "name": "CreatedPeriod",
      "type": "event"
    },
    {
      "anonymous": false,
      "inputs": [
        {
          "indexed": true,
          "internalType": "address",
          "name": "from",
          "type": "address"
        },
        {
          "indexed": false,
          "internalType": "uint256",
          "name": "blockreward",
          "type": "uint256"
        },
        {
          "indexed": false,
          "internalType": "uint256",
          "name": "epochCount",
          "type": "uint256"
        },
        {
          "indexed": false,
          "internalType": "bytes32",
          "name": "newChallengeNumber",
          "type": "bytes32"
        }
      ],
      "name": "Mint",
      "type": "event"
    },
    {
      "anonymous": false,
      "inputs": [
        {
          "indexed": true,
          "internalType": "uint256",
          "name": "chunkid",
          "type": "uint256"
        },
        {
          "indexed": true,
          "internalType": "bytes32",
          "name": "diseasehash",
          "type": "bytes32"
        }
      ],
      "name": "NewChunk",
      "type": "event"
    },
    {
      "anonymous": false,
      "inputs": [
        {
          "indexed": true,
          "internalType": "address",
          "name": "_voter",
          "type": "address"
        },
        {
          "indexed": false,
          "internalType": "bytes32",
          "name": "votehash",
          "type": "bytes32"
        },
        {
          "indexed": false,
          "internalType": "uint256",
          "name": "amount",
          "type": "uint256"
        }
      ],
      "name": "NewCommit",
      "type": "event"
    },
    {
      "anonymous": false,
      "inputs": [
        {
          "indexed": true,
          "internalType": "uint256",
          "name": "diseaseindex",
          "type": "uint256"
        },
        {
          "indexed": false,
          "internalType": "string",
          "name": "title",
          "type": "string"
        }
      ],
      "name": "NewDisease",
      "type": "event"
    },
    {
      "anonymous": false,
      "inputs": [
        {
          "indexed": true,
          "internalType": "address",
          "name": "voter",
          "type": "address"
        },
        {
          "indexed": false,
          "internalType": "uint256",
          "name": "fee",
          "type": "uint256"
        },
        {
          "indexed": false,
          "internalType": "bytes32",
          "name": "proposal_hash",
          "type": "bytes32"
        }
      ],
      "name": "NewFee",
      "type": "event"
    },
    {
      "anonymous": false,
      "inputs": [
        {
          "indexed": false,
          "internalType": "bytes32",
          "name": "proposed_release_hash",
          "type": "bytes32"
        },
        {
          "indexed": true,
          "internalType": "address",
          "name": "_proposer",
          "type": "address"
        },
        {
          "indexed": true,
          "internalType": "bytes32",
          "name": "diseasehash",
          "type": "bytes32"
        },
        {
          "indexed": true,
          "internalType": "uint256",
          "name": "chunkid",
          "type": "uint256"
        }
      ],
      "name": "NewProposal",
      "type": "event"
    },
    {
      "anonymous": false,
      "inputs": [
        {
          "indexed": true,
          "internalType": "address",
          "name": "_voter",
          "type": "address"
        },
        {
          "indexed": true,
          "internalType": "bytes32",
          "name": "_proposal",
          "type": "bytes32"
        },
        {
          "indexed": false,
          "internalType": "uint256",
          "name": "amount",
          "type": "uint256"
        }
      ],
      "name": "NewRecover",
      "type": "event"
    },
    {
      "anonymous": false,
      "inputs": [
        {
          "indexed": true,
          "internalType": "address",
          "name": "_voter",
          "type": "address"
        },
        {
          "indexed": true,
          "internalType": "bytes32",
          "name": "_proposal",
          "type": "bytes32"
        },
        {
          "indexed": false,
          "internalType": "uint256",
          "name": "amount",
          "type": "uint256"
        }
      ],
      "name": "NewReveal",
      "type": "event"
    },
    {
      "anonymous": false,
      "inputs": [
        {
          "indexed": true,
          "internalType": "address",
          "name": "voter",
          "type": "address"
        },
        {
          "indexed": false,
          "internalType": "uint256",
          "name": "amount",
          "type": "uint256"
        },
        {
          "indexed": false,
          "internalType": "bytes32",
          "name": "proposal_hash",
          "type": "bytes32"
        },
        {
          "indexed": false,
          "internalType": "uint256",
          "name": "duration",
          "type": "uint256"
        }
      ],
      "name": "NewSlash",
      "type": "event"
    },
    {
      "anonymous": false,
      "inputs": [
        {
          "indexed": true,
          "internalType": "address",
          "name": "staker",
          "type": "address"
        },
        {
          "indexed": false,
          "internalType": "uint256",
          "name": "amount",
          "type": "uint256"
        }
      ],
      "name": "NewStake",
      "type": "event"
    },
    {
      "anonymous": false,
      "inputs": [
        {
          "indexed": true,
          "internalType": "address",
          "name": "staker",
          "type": "address"
        },
        {
          "indexed": false,
          "internalType": "uint256",
          "name": "endtime",
          "type": "uint256"
        },
        {
          "indexed": false,
          "internalType": "uint256",
          "name": "minlimit",
          "type": "uint256"
        }
      ],
      "name": "NewStakescsldt",
      "type": "event"
    },
    {
      "anonymous": false,
      "inputs": [
        {
          "indexed": true,
          "internalType": "address",
          "name": "staker",
          "type": "address"
        },
        {
          "indexed": false,
          "internalType": "uint256",
          "name": "snapamount",
          "type": "uint256"
        }
      ],
      "name": "NewStakesnap",
      "type": "event"
    },
    {
      "anonymous": false,
      "inputs": [
        {
          "indexed": true,
          "internalType": "address",
          "name": "voter",
          "type": "address"
        },
        {
          "indexed": false,
          "internalType": "uint256",
          "name": "amount",
          "type": "uint256"
        },
        {
          "indexed": false,
          "internalType": "bytes32",
          "name": "proposal_hash",
          "type": "bytes32"
        }
      ],
      "name": "RewardClaimed",
      "type": "event"
    },
    {
      "anonymous": false,
      "inputs": [
        {
          "indexed": true,
          "internalType": "address",
          "name": "staker",
          "type": "address"
        },
        {
          "indexed": false,
          "internalType": "uint256",
          "name": "stakeamount",
          "type": "uint256"
        }
      ],
      "name": "StakeClaimed",
      "type": "event"
    },
    {
      "anonymous": false,
      "inputs": [
        {
          "indexed": true,
          "internalType": "address",
          "name": "voter",
          "type": "address"
        },
        {
          "indexed": false,
          "internalType": "bytes32",
          "name": "proposal_hash",
          "type": "bytes32"
        }
      ],
      "name": "TieClaimed",
      "type": "event"
    },
    {
      "anonymous": false,
      "inputs": [
        {
          "indexed": true,
          "internalType": "address",
          "name": "from",
          "type": "address"
        },
        {
          "indexed": true,
          "internalType": "address",
          "name": "to",
          "type": "address"
        },
        {
          "indexed": false,
          "internalType": "uint256",
          "name": "tokens",
          "type": "uint256"
        }
      ],
      "name": "Transfer",
      "type": "event"
    },
    {
      "inputs": [],
      "name": "APPROVAL_THRESHOLD",
      "outputs": [
        {
          "internalType": "uint256",
          "name": "",
          "type": "uint256"
        }
      ],
      "stateMutability": "view",
      "type": "function"
    },
    {
      "inputs": [],
      "name": "DEFAULT_EXTRA_TIME",
      "outputs": [
        {
          "internalType": "uint256",
          "name": "",
          "type": "uint256"
        }
      ],
      "stateMutability": "view",
      "type": "function"
    },
    {
      "inputs": [],
      "name": "DEFAULT_REVEALING_TIME",
      "outputs": [
        {
          "internalType": "uint256",
          "name": "",
          "type": "uint256"
        }
      ],
      "stateMutability": "view",
      "type": "function"
    },
    {
      "inputs": [],
      "name": "DEFAULT_VOTING_TIME",
      "outputs": [
        {
          "internalType": "uint256",
          "name": "",
          "type": "uint256"
        }
      ],
      "stateMutability": "view",
      "type": "function"
    },
    {
      "inputs": [],
      "name": "DISEASE_CREATION_AMOUNT",
      "outputs": [
        {
          "internalType": "uint256",
          "name": "",
          "type": "uint256"
        }
      ],
      "stateMutability": "view",
      "type": "function"
    },
    {
      "inputs": [
        {
          "internalType": "uint256",
          "name": "",
          "type": "uint256"
        }
      ],
      "name": "IntervalsPeriods",
      "outputs": [
        {
          "internalType": "uint256",
          "name": "",
          "type": "uint256"
        }
      ],
      "stateMutability": "view",
      "type": "function"
    },
    {
      "inputs": [],
      "name": "IntervalsPeriodsCounter",
      "outputs": [
        {
          "internalType": "uint256",
          "name": "",
          "type": "uint256"
        }
      ],
      "stateMutability": "view",
      "type": "function"
    },
    {
      "inputs": [],
      "name": "LAST_PERIOD_COST_UPDATE",
      "outputs": [
        {
          "internalType": "uint256",
          "name": "",
          "type": "uint256"
        }
      ],
      "stateMutability": "view",
      "type": "function"
    },
    {
      "inputs": [],
      "name": "PERIODS_PER_THRESHOLD",
      "outputs": [
        {
          "internalType": "uint256",
          "name": "",
          "type": "uint256"
        }
      ],
      "stateMutability": "view",
      "type": "function"
    },
    {
      "inputs": [],
      "name": "PERIOD_CURATION_REWARD_RATIO",
      "outputs": [
        {
          "internalType": "uint256",
          "name": "",
          "type": "uint256"
        }
      ],
      "stateMutability": "view",
      "type": "function"
    },
    {
      "inputs": [],
      "name": "PERIOD_EDITOR_REWARD_RATIO",
      "outputs": [
        {
          "internalType": "uint256",
          "name": "",
          "type": "uint256"
        }
      ],
      "stateMutability": "view",
      "type": "function"
    },
    {
      "inputs": [],
      "name": "PROPOSAL_DEFAULT_VOTE",
      "outputs": [
        {
          "internalType": "uint256",
          "name": "",
          "type": "uint256"
        }
      ],
      "stateMutability": "view",
      "type": "function"
    },
    {
      "inputs": [],
      "name": "PROPOSERS_INCREASER",
      "outputs": [
        {
          "internalType": "uint256",
          "name": "",
          "type": "uint256"
        }
      ],
      "stateMutability": "view",
      "type": "function"
    },
    {
      "inputs": [],
      "name": "PROTOCOL_RATIO_TARGET",
      "outputs": [
        {
          "internalType": "uint256",
          "name": "",
          "type": "uint256"
        }
      ],
      "stateMutability": "view",
      "type": "function"
    },
    {
      "inputs": [
        {
          "internalType": "uint256",
          "name": "",
          "type": "uint256"
        }
      ],
      "name": "PeriodsIssued",
      "outputs": [
        {
          "internalType": "uint256",
          "name": "",
          "type": "uint256"
        }
      ],
      "stateMutability": "view",
      "type": "function"
    },
    {
      "inputs": [],
      "name": "PeriodsIssuedCounter",
      "outputs": [
        {
          "internalType": "uint256",
          "name": "",
          "type": "uint256"
        }
      ],
      "stateMutability": "view",
      "type": "function"
    },
    {
      "inputs": [],
      "name": "REWARD_INTERVAL",
      "outputs": [
        {
          "internalType": "uint256",
          "name": "",
          "type": "uint256"
        }
      ],
      "stateMutability": "view",
      "type": "function"
    },
    {
      "inputs": [],
      "name": "SEEDHASH_EPOCH_BLOCKS",
      "outputs": [
        {
          "internalType": "uint256",
          "name": "",
          "type": "uint256"
        }
      ],
      "stateMutability": "view",
      "type": "function"
    },
    {
      "inputs": [],
      "name": "SEVERITY_LEVEL",
      "outputs": [
        {
          "internalType": "uint256",
          "name": "",
          "type": "uint256"
        }
      ],
      "stateMutability": "view",
      "type": "function"
    },
    {
      "inputs": [],
      "name": "STAKING_DURATION",
      "outputs": [
        {
          "internalType": "uint256",
          "name": "",
          "type": "uint256"
        }
      ],
      "stateMutability": "view",
      "type": "function"
    },
    {
      "inputs": [],
      "name": "UNRECOVERABLE_ETI",
      "outputs": [
        {
          "internalType": "uint256",
          "name": "",
          "type": "uint256"
        }
      ],
      "stateMutability": "view",
      "type": "function"
    },
    {
      "inputs": [],
      "name": "UPDATEDV2",
      "outputs": [
        {
          "internalType": "bool",
          "name": "",
          "type": "bool"
        }
      ],
      "stateMutability": "view",
      "type": "function"
    },
    {
      "inputs": [],
      "name": "UPDATEDV3",
      "outputs": [
        {
          "internalType": "bool",
          "name": "",
          "type": "bool"
        }
      ],
      "stateMutability": "view",
      "type": "function"
    },
    {
      "inputs": [],
      "name": "UPDATEDV4",
      "outputs": [
        {
          "internalType": "bool",
          "name": "",
          "type": "bool"
        }
      ],
      "stateMutability": "view",
      "type": "function"
    },
    {
      "inputs": [],
      "name": "UPDATEDV5",
      "outputs": [
        {
          "internalType": "bool",
          "name": "",
          "type": "bool"
        }
      ],
      "stateMutability": "view",
      "type": "function"
    },
    {
      "inputs": [],
      "name": "_BLOCKS_PER_READJUSTMENT",
      "outputs": [
        {
          "internalType": "uint256",
          "name": "",
          "type": "uint256"
        }
      ],
      "stateMutability": "view",
      "type": "function"
    },
    {
      "inputs": [],
      "name": "_MAXIMUM_TARGET",
      "outputs": [
        {
          "internalType": "uint256",
          "name": "",
          "type": "uint256"
        }
      ],
      "stateMutability": "view",
      "type": "function"
    },
    {
      "inputs": [],
      "name": "_MINIMUM_TARGET",
      "outputs": [
        {
          "internalType": "uint256",
          "name": "",
          "type": "uint256"
        }
      ],
      "stateMutability": "view",
      "type": "function"
    },
    {
      "inputs": [],
      "name": "_totalMiningSupply",
      "outputs": [
        {
          "internalType": "uint256",
          "name": "",
          "type": "uint256"
        }
      ],
      "stateMutability": "view",
      "type": "function"
    },
    {
      "inputs": [],
      "name": "accessibleSupply",
      "outputs": [
        {
          "internalType": "uint256",
          "name": "",
          "type": "uint256"
        }
      ],
      "stateMutability": "view",
      "type": "function"
    },
    {
      "inputs": [
        {
          "internalType": "address",
          "name": "tokenOwner",
          "type": "address"
        },
        {
          "internalType": "address",
          "name": "spender",
          "type": "address"
        }
      ],
      "name": "allowance",
      "outputs": [
        {
          "internalType": "uint256",
          "name": "",
          "type": "uint256"
        }
      ],
      "stateMutability": "view",
      "type": "function"
    },
    {
      "inputs": [
        {
          "internalType": "address",
          "name": "spender",
          "type": "address"
        },
        {
          "internalType": "uint256",
          "name": "tokens",
          "type": "uint256"
        }
      ],
      "name": "approve",
      "outputs": [
        {
          "internalType": "bool",
          "name": "",
          "type": "bool"
        }
      ],
      "stateMutability": "nonpayable",
      "type": "function"
    },
    {
      "inputs": [
        {
          "internalType": "address",
          "name": "tokenOwner",
          "type": "address"
        }
      ],
      "name": "balanceOf",
      "outputs": [
        {
          "internalType": "uint256",
          "name": "balance",
          "type": "uint256"
        }
      ],
      "stateMutability": "view",
      "type": "function"
    },
    {
      "inputs": [
        {
          "internalType": "address",
          "name": "",
          "type": "address"
        }
      ],
      "name": "balances",
      "outputs": [
        {
          "internalType": "uint256",
          "name": "",
          "type": "uint256"
        }
      ],
      "stateMutability": "view",
      "type": "function"
    },
    {
      "inputs": [
        {
          "internalType": "address",
          "name": "",
          "type": "address"
        }
      ],
      "name": "blockedeticas",
      "outputs": [
        {
          "internalType": "uint256",
          "name": "",
          "type": "uint256"
        }
      ],
      "stateMutability": "view",
      "type": "function"
    },
    {
      "inputs": [],
      "name": "blockreward",
      "outputs": [
        {
          "internalType": "uint256",
          "name": "",
          "type": "uint256"
        }
      ],
      "stateMutability": "view",
      "type": "function"
    },
    {
      "inputs": [
        {
          "internalType": "address",
          "name": "",
          "type": "address"
        }
      ],
      "name": "bosoms",
      "outputs": [
        {
          "internalType": "uint256",
          "name": "",
          "type": "uint256"
        }
      ],
      "stateMutability": "view",
      "type": "function"
    },
    {
      "inputs": [
        {
          "internalType": "address",
          "name": "tokenOwner",
          "type": "address"
        }
      ],
      "name": "bosomsOf",
      "outputs": [
        {
          "internalType": "uint256",
          "name": "_bosoms",
          "type": "uint256"
        }
      ],
      "stateMutability": "view",
      "type": "function"
    },
    {
      "inputs": [],
      "name": "challengeNumber",
      "outputs": [
        {
          "internalType": "bytes32",
          "name": "",
          "type": "bytes32"
        }
      ],
      "stateMutability": "view",
      "type": "function"
    },
    {
      "inputs": [
        {
          "internalType": "bytes",
          "name": "blockHeader",
          "type": "bytes"
        },
        {
          "internalType": "bytes32",
          "name": "currentChallenge",
          "type": "bytes32"
        },
        {
          "internalType": "uint256",
          "name": "claimedTarget",
          "type": "uint256"
        },
        {
          "internalType": "bytes",
          "name": "seedHash",
          "type": "bytes"
        }
      ],
      "name": "checkMintRandomxInputs",
      "outputs": [
        {
          "internalType": "bool",
          "name": "isValid",
          "type": "bool"
        },
        {
          "internalType": "string",
          "name": "errorMessage",
          "type": "string"
        }
      ],
      "stateMutability": "view",
      "type": "function"
    },
    {
      "inputs": [
        {
          "internalType": "uint256",
          "name": "nonce",
          "type": "uint256"
        },
        {
          "internalType": "bytes32",
          "name": "challenge_digest",
          "type": "bytes32"
        },
        {
          "internalType": "bytes32",
          "name": "challenge_number",
          "type": "bytes32"
        },
        {
          "internalType": "uint256",
          "name": "testTarget",
          "type": "uint256"
        }
      ],
      "name": "checkMintSolution",
      "outputs": [
        {
          "internalType": "bool",
          "name": "success",
          "type": "bool"
        }
      ],
      "stateMutability": "view",
      "type": "function"
    },
    {
      "inputs": [
        {
          "internalType": "uint256",
          "name": "",
          "type": "uint256"
        }
      ],
      "name": "chunkProposalsCounter",
      "outputs": [
        {
          "internalType": "uint256",
          "name": "",
          "type": "uint256"
        }
      ],
      "stateMutability": "view",
      "type": "function"
    },
    {
      "inputs": [
        {
          "internalType": "uint256",
          "name": "",
          "type": "uint256"
        },
        {
          "internalType": "uint256",
          "name": "",
          "type": "uint256"
        }
      ],
      "name": "chunkproposals",
      "outputs": [
        {
          "internalType": "bytes32",
          "name": "",
          "type": "bytes32"
        }
      ],
      "stateMutability": "view",
      "type": "function"
    },
    {
      "inputs": [
        {
          "internalType": "uint256",
          "name": "",
          "type": "uint256"
        }
      ],
      "name": "chunks",
      "outputs": [
        {
          "internalType": "uint256",
          "name": "id",
          "type": "uint256"
        },
        {
          "internalType": "bytes32",
          "name": "diseaseid",
          "type": "bytes32"
        },
        {
          "internalType": "uint256",
          "name": "idx",
          "type": "uint256"
        },
        {
          "internalType": "string",
          "name": "title",
          "type": "string"
        },
        {
          "internalType": "string",
          "name": "desc",
          "type": "string"
        }
      ],
      "stateMutability": "view",
      "type": "function"
    },
    {
      "inputs": [],
      "name": "chunksCounter",
      "outputs": [
        {
          "internalType": "uint256",
          "name": "",
          "type": "uint256"
        }
      ],
      "stateMutability": "view",
      "type": "function"
    },
    {
      "inputs": [
        {
          "internalType": "bytes32",
          "name": "_proposed_release_hash",
          "type": "bytes32"
        }
      ],
      "name": "clmpropbyhash",
      "outputs": [],
      "stateMutability": "nonpayable",
      "type": "function"
    },
    {
      "inputs": [
        {
          "internalType": "address",
          "name": "",
          "type": "address"
        },
        {
          "internalType": "bytes32",
          "name": "",
          "type": "bytes32"
        }
      ],
      "name": "commits",
      "outputs": [
        {
          "internalType": "uint256",
          "name": "amount",
          "type": "uint256"
        },
        {
          "internalType": "uint256",
          "name": "timestamp",
          "type": "uint256"
        }
      ],
      "stateMutability": "view",
      "type": "function"
    },
    {
      "inputs": [
        {
          "internalType": "uint256",
          "name": "_amount",
          "type": "uint256"
        },
        {
          "internalType": "bytes32",
          "name": "_votehash",
          "type": "bytes32"
        }
      ],
      "name": "commitvote",
      "outputs": [],
      "stateMutability": "nonpayable",
      "type": "function"
    },
    {
      "inputs": [
        {
          "internalType": "bytes32",
          "name": "_diseasehash",
          "type": "bytes32"
        },
        {
          "internalType": "string",
          "name": "_title",
          "type": "string"
        },
        {
          "internalType": "string",
          "name": "_description",
          "type": "string"
        }
      ],
      "name": "createchunk",
      "outputs": [],
      "stateMutability": "nonpayable",
      "type": "function"
    },
    {
      "inputs": [
        {
          "internalType": "string",
          "name": "_name",
          "type": "string"
        }
      ],
      "name": "createdisease",
      "outputs": [],
      "stateMutability": "nonpayable",
      "type": "function"
    },
    {
      "inputs": [],
      "name": "decimals",
      "outputs": [
        {
          "internalType": "uint256",
          "name": "",
          "type": "uint256"
        }
      ],
      "stateMutability": "view",
      "type": "function"
    },
    {
      "inputs": [
        {
          "internalType": "bytes32",
          "name": "",
          "type": "bytes32"
        }
      ],
      "name": "diseaseChunksCounter",
      "outputs": [
        {
          "internalType": "uint256",
          "name": "",
          "type": "uint256"
        }
      ],
      "stateMutability": "view",
      "type": "function"
    },
    {
      "inputs": [
        {
          "internalType": "bytes32",
          "name": "",
          "type": "bytes32"
        }
      ],
      "name": "diseaseProposalsCounter",
      "outputs": [
        {
          "internalType": "uint256",
          "name": "",
          "type": "uint256"
        }
      ],
      "stateMutability": "view",
      "type": "function"
    },
    {
      "inputs": [
        {
          "internalType": "bytes32",
          "name": "",
          "type": "bytes32"
        },
        {
          "internalType": "uint256",
          "name": "",
          "type": "uint256"
        }
      ],
      "name": "diseasechunks",
      "outputs": [
        {
          "internalType": "uint256",
          "name": "",
          "type": "uint256"
        }
      ],
      "stateMutability": "view",
      "type": "function"
    },
    {
      "inputs": [
        {
          "internalType": "bytes32",
          "name": "",
          "type": "bytes32"
        },
        {
          "internalType": "uint256",
          "name": "",
          "type": "uint256"
        }
      ],
      "name": "diseaseproposals",
      "outputs": [
        {
          "internalType": "bytes32",
          "name": "",
          "type": "bytes32"
        }
      ],
      "stateMutability": "view",
      "type": "function"
    },
    {
      "inputs": [
        {
          "internalType": "uint256",
          "name": "",
          "type": "uint256"
        }
      ],
      "name": "diseases",
      "outputs": [
        {
          "internalType": "bytes32",
          "name": "disease_hash",
          "type": "bytes32"
        },
        {
          "internalType": "string",
          "name": "name",
          "type": "string"
        }
      ],
      "stateMutability": "view",
      "type": "function"
    },
    {
      "inputs": [],
      "name": "diseasesCounter",
      "outputs": [
        {
          "internalType": "uint256",
          "name": "",
          "type": "uint256"
        }
      ],
      "stateMutability": "view",
      "type": "function"
    },
    {
      "inputs": [
        {
          "internalType": "bytes32",
          "name": "",
          "type": "bytes32"
        }
      ],
      "name": "diseasesbyIds",
      "outputs": [
        {
          "internalType": "uint256",
          "name": "",
          "type": "uint256"
        }
      ],
      "stateMutability": "view",
      "type": "function"
    },
    {
      "inputs": [],
      "name": "epochCount",
      "outputs": [
        {
          "internalType": "uint256",
          "name": "",
          "type": "uint256"
        }
      ],
      "stateMutability": "view",
      "type": "function"
    },
    {
      "inputs": [
        {
          "internalType": "address",
          "name": "_staker",
          "type": "address"
        },
        {
          "internalType": "uint256",
          "name": "_amount",
          "type": "uint256"
        }
      ],
      "name": "eticatobosoms",
      "outputs": [
        {
          "internalType": "bool",
          "name": "success",
          "type": "bool"
        }
      ],
      "stateMutability": "nonpayable",
      "type": "function"
    },
    {
      "inputs": [],
      "name": "getChallengeNumber",
      "outputs": [
        {
          "internalType": "bytes32",
          "name": "",
          "type": "bytes32"
        }
      ],
      "stateMutability": "view",
      "type": "function"
    },
    {
      "inputs": [],
      "name": "getMiningDifficulty",
      "outputs": [
        {
          "internalType": "uint256",
          "name": "",
          "type": "uint256"
        }
      ],
      "stateMutability": "view",
      "type": "function"
    },
    {
      "inputs": [],
      "name": "getMiningReward",
      "outputs": [
        {
          "internalType": "uint256",
          "name": "",
          "type": "uint256"
        }
      ],
      "stateMutability": "view",
      "type": "function"
    },
    {
      "inputs": [],
      "name": "getMiningTarget",
      "outputs": [
        {
          "internalType": "uint256",
          "name": "",
          "type": "uint256"
        }
      ],
      "stateMutability": "view",
      "type": "function"
    },
    {
      "inputs": [
        {
          "internalType": "uint256",
          "name": "nonce",
          "type": "uint256"
        },
        {
          "internalType": "bytes32",
          "name": "challenge_digest",
          "type": "bytes32"
        },
        {
          "internalType": "bytes32",
          "name": "challenge_number",
          "type": "bytes32"
        }
      ],
      "name": "getMintDigest",
      "outputs": [
        {
          "internalType": "bytes32",
          "name": "digesttest",
          "type": "bytes32"
        }
      ],
      "stateMutability": "view",
      "type": "function"
    },
    {
      "inputs": [
        {
          "internalType": "string",
          "name": "_name",
          "type": "string"
        }
      ],
      "name": "getdiseasehashbyName",
      "outputs": [
        {
          "internalType": "bytes32",
          "name": "_diseasehash",
          "type": "bytes32"
        }
      ],
      "stateMutability": "view",
      "type": "function"
    },
    {
      "inputs": [],
      "name": "inflationrate",
      "outputs": [
        {
          "internalType": "uint256",
          "name": "",
          "type": "uint256"
        }
      ],
      "stateMutability": "view",
      "type": "function"
    },
    {
      "inputs": [],
      "name": "initiatormsg",
      "outputs": [
        {
          "internalType": "string",
          "name": "",
          "type": "string"
        }
      ],
      "stateMutability": "view",
      "type": "function"
    },
    {
      "inputs": [],
      "name": "lastRewardEthBlockNumber",
      "outputs": [
        {
          "internalType": "uint256",
          "name": "",
          "type": "uint256"
        }
      ],
      "stateMutability": "view",
      "type": "function"
    },
    {
      "inputs": [],
      "name": "lastRewardTo",
      "outputs": [
        {
          "internalType": "address",
          "name": "",
          "type": "address"
        }
      ],
      "stateMutability": "view",
      "type": "function"
    },
    {
      "inputs": [],
      "name": "latestDifficultyPeriodStarted",
      "outputs": [
        {
          "internalType": "uint256",
          "name": "",
          "type": "uint256"
        }
      ],
      "stateMutability": "view",
      "type": "function"
    },
    {
      "inputs": [],
      "name": "miningTarget",
      "outputs": [
        {
          "internalType": "uint256",
          "name": "",
          "type": "uint256"
        }
      ],
      "stateMutability": "view",
      "type": "function"
    },
    {
      "inputs": [
        {
          "internalType": "uint256",
          "name": "nonce",
          "type": "uint256"
        },
        {
          "internalType": "bytes32",
          "name": "challenge_digest",
          "type": "bytes32"
        }
      ],
      "name": "mint",
      "outputs": [
        {
          "internalType": "bool",
          "name": "success",
          "type": "bool"
        }
      ],
      "stateMutability": "nonpayable",
      "type": "function"
    },
    {
      "inputs": [
        {
          "internalType": "bytes4",
          "name": "nonce",
          "type": "bytes4"
        },
        {
          "internalType": "bytes",
          "name": "blockHeader",
          "type": "bytes"
        },
        {
          "internalType": "bytes32",
          "name": "currentChallenge",
          "type": "bytes32"
        },
        {
          "internalType": "bytes",
          "name": "randomxHash",
          "type": "bytes"
        },
        {
          "internalType": "uint256",
          "name": "claimedTarget",
          "type": "uint256"
        },
        {
          "internalType": "bytes",
          "name": "seedHash",
          "type": "bytes"
        },
        {
          "internalType": "bytes8",
          "name": "extraNonce",
          "type": "bytes8"
        }
      ],
      "name": "mintrandomX",
      "outputs": [
        {
          "internalType": "bool",
          "name": "success",
          "type": "bool"
        }
      ],
      "stateMutability": "nonpayable",
      "type": "function"
    },
    {
      "inputs": [],
      "name": "name",
      "outputs": [
        {
          "internalType": "string",
          "name": "",
          "type": "string"
        }
      ],
      "stateMutability": "view",
      "type": "function"
    },
    {
      "inputs": [
        {
          "internalType": "address",
          "name": "",
          "type": "address"
        }
      ],
      "name": "networkGuardAddresses",
      "outputs": [
        {
          "internalType": "bool",
          "name": "",
          "type": "bool"
        }
      ],
      "stateMutability": "view",
      "type": "function"
    },
    {
      "inputs": [],
      "name": "periodrewardtemp",
      "outputs": [
        {
          "internalType": "uint256",
          "name": "",
          "type": "uint256"
        }
      ],
      "stateMutability": "view",
      "type": "function"
    },
    {
      "inputs": [
        {
          "internalType": "uint256",
          "name": "",
          "type": "uint256"
        }
      ],
      "name": "periods",
      "outputs": [
        {
          "internalType": "uint256",
          "name": "id",
          "type": "uint256"
        },
        {
          "internalType": "uint256",
          "name": "interval",
          "type": "uint256"
        },
        {
          "internalType": "uint256",
          "name": "curation_sum",
          "type": "uint256"
        },
        {
          "internalType": "uint256",
          "name": "editor_sum",
          "type": "uint256"
        },
        {
          "internalType": "uint256",
          "name": "reward_for_curation",
          "type": "uint256"
        },
        {
          "internalType": "uint256",
          "name": "reward_for_editor",
          "type": "uint256"
        },
        {
          "internalType": "uint256",
          "name": "forprops",
          "type": "uint256"
        },
        {
          "internalType": "uint256",
          "name": "againstprops",
          "type": "uint256"
        }
      ],
      "stateMutability": "view",
      "type": "function"
    },
    {
      "inputs": [],
      "name": "periodsCounter",
      "outputs": [
        {
          "internalType": "uint256",
          "name": "",
          "type": "uint256"
        }
      ],
      "stateMutability": "view",
      "type": "function"
    },
    {
      "inputs": [
        {
          "internalType": "bytes32",
          "name": "",
          "type": "bytes32"
        }
      ],
      "name": "proposals",
      "outputs": [
        {
          "internalType": "uint256",
          "name": "id",
          "type": "uint256"
        },
        {
          "internalType": "bytes32",
          "name": "proposed_release_hash",
          "type": "bytes32"
        },
        {
          "internalType": "bytes32",
          "name": "disease_id",
          "type": "bytes32"
        },
        {
          "internalType": "uint256",
          "name": "period_id",
          "type": "uint256"
        },
        {
          "internalType": "uint256",
          "name": "chunk_id",
          "type": "uint256"
        },
        {
          "internalType": "address",
          "name": "proposer",
          "type": "address"
        },
        {
          "internalType": "string",
          "name": "title",
          "type": "string"
        },
        {
          "internalType": "string",
          "name": "description",
          "type": "string"
        },
        {
          "internalType": "string",
          "name": "freefield",
          "type": "string"
        },
        {
          "internalType": "string",
          "name": "raw_release_hash",
          "type": "string"
        }
      ],
      "stateMutability": "view",
      "type": "function"
    },
    {
      "inputs": [],
      "name": "proposalsCounter",
      "outputs": [
        {
          "internalType": "uint256",
          "name": "",
          "type": "uint256"
        }
      ],
      "stateMutability": "view",
      "type": "function"
    },
    {
      "inputs": [
        {
          "internalType": "uint256",
          "name": "",
          "type": "uint256"
        }
      ],
      "name": "proposalsbyIndex",
      "outputs": [
        {
          "internalType": "bytes32",
          "name": "",
          "type": "bytes32"
        }
      ],
      "stateMutability": "view",
      "type": "function"
    },
    {
      "inputs": [
        {
          "internalType": "bytes32",
          "name": "_diseasehash",
          "type": "bytes32"
        },
        {
          "internalType": "string",
          "name": "_title",
          "type": "string"
        },
        {
          "internalType": "string",
          "name": "_description",
          "type": "string"
        },
        {
          "internalType": "string",
          "name": "raw_release_hash",
          "type": "string"
        },
        {
          "internalType": "string",
          "name": "_freefield",
          "type": "string"
        },
        {
          "internalType": "uint256",
          "name": "_chunkid",
          "type": "uint256"
        }
      ],
      "name": "propose",
      "outputs": [],
      "stateMutability": "nonpayable",
      "type": "function"
    },
    {
      "inputs": [
        {
          "internalType": "bytes32",
          "name": "",
          "type": "bytes32"
        }
      ],
      "name": "propsdatas",
      "outputs": [
        {
          "internalType": "uint256",
          "name": "starttime",
          "type": "uint256"
        },
        {
          "internalType": "uint256",
          "name": "endtime",
          "type": "uint256"
        },
        {
          "internalType": "uint256",
          "name": "finalized_time",
          "type": "uint256"
        },
        {
          "internalType": "enum EticaRelease.ProposalStatus",
          "name": "status",
          "type": "uint8"
        },
        {
          "internalType": "enum EticaRelease.ProposalStatus",
          "name": "prestatus",
          "type": "uint8"
        },
        {
          "internalType": "bool",
          "name": "istie",
          "type": "bool"
        },
        {
          "internalType": "uint256",
          "name": "nbvoters",
          "type": "uint256"
        },
        {
          "internalType": "uint256",
          "name": "slashingratio",
          "type": "uint256"
        },
        {
          "internalType": "uint256",
          "name": "forvotes",
          "type": "uint256"
        },
        {
          "internalType": "uint256",
          "name": "againstvotes",
          "type": "uint256"
        },
        {
          "internalType": "uint256",
          "name": "lastcuration_weight",
          "type": "uint256"
        },
        {
          "internalType": "uint256",
          "name": "lasteditor_weight",
          "type": "uint256"
        },
        {
          "internalType": "uint256",
          "name": "approvalthreshold",
          "type": "uint256"
        }
      ],
      "stateMutability": "view",
      "type": "function"
    },
    {
      "inputs": [
        {
          "internalType": "address",
          "name": "",
          "type": "address"
        },
        {
          "internalType": "bytes32",
          "name": "",
          "type": "bytes32"
        }
      ],
      "name": "qamounts",
      "outputs": [
        {
          "internalType": "uint256",
          "name": "amount",
          "type": "uint256"
        }
      ],
      "stateMutability": "view",
      "type": "function"
    },
    {
      "inputs": [],
      "name": "randomxBlob",
      "outputs": [
        {
          "internalType": "bytes",
          "name": "",
          "type": "bytes"
        }
      ],
      "stateMutability": "view",
      "type": "function"
    },
    {
      "inputs": [],
      "name": "randomxBlobfirstpart",
      "outputs": [
        {
          "internalType": "bytes32",
          "name": "",
          "type": "bytes32"
        }
      ],
      "stateMutability": "view",
      "type": "function"
    },
    {
      "inputs": [
        {
          "internalType": "bytes32",
          "name": "",
          "type": "bytes32"
        },
        {
          "internalType": "bytes32",
          "name": "",
          "type": "bytes32"
        }
      ],
      "name": "randomxSealSolutions",
      "outputs": [
        {
          "internalType": "bytes32",
          "name": "",
          "type": "bytes32"
        }
      ],
      "stateMutability": "view",
      "type": "function"
    },
    {
      "inputs": [],
      "name": "randomxSeedhash",
      "outputs": [
        {
          "internalType": "bytes",
          "name": "",
          "type": "bytes"
        }
      ],
      "stateMutability": "view",
      "type": "function"
    },
    {
      "inputs": [
        {
          "internalType": "bytes32",
          "name": "_proposed_release_hash",
          "type": "bytes32"
        },
        {
          "internalType": "bool",
          "name": "_approved",
          "type": "bool"
        },
        {
          "internalType": "string",
          "name": "_vary",
          "type": "string"
        }
      ],
      "name": "recovercommit",
      "outputs": [],
      "stateMutability": "nonpayable",
      "type": "function"
    },
    {
      "inputs": [
        {
          "internalType": "bytes32",
          "name": "_votehash",
          "type": "bytes32"
        }
      ],
      "name": "recoverlostcommit",
      "outputs": [],
      "stateMutability": "nonpayable",
      "type": "function"
    },
    {
      "inputs": [],
      "name": "researchMinted",
      "outputs": [
        {
          "internalType": "uint256",
          "name": "",
          "type": "uint256"
        }
      ],
      "stateMutability": "view",
      "type": "function"
    },
    {
      "inputs": [
        {
          "internalType": "bytes32",
          "name": "_proposed_release_hash",
          "type": "bytes32"
        },
        {
          "internalType": "bool",
          "name": "_approved",
          "type": "bool"
        },
        {
          "internalType": "string",
          "name": "_vary",
          "type": "string"
        }
      ],
      "name": "revealvote",
      "outputs": [],
      "stateMutability": "nonpayable",
      "type": "function"
    },
    {
      "inputs": [
        {
          "internalType": "uint256",
          "name": "_stakeidx",
          "type": "uint256"
        }
      ],
      "name": "stakeclmidx",
      "outputs": [],
      "stateMutability": "nonpayable",
      "type": "function"
    },
    {
      "inputs": [
        {
          "internalType": "address",
          "name": "",
          "type": "address"
        },
        {
          "internalType": "uint256",
          "name": "",
          "type": "uint256"
        }
      ],
      "name": "stakes",
      "outputs": [
        {
          "internalType": "uint256",
          "name": "amount",
          "type": "uint256"
        },
        {
          "internalType": "uint256",
          "name": "endTime",
          "type": "uint256"
        }
      ],
      "stateMutability": "view",
      "type": "function"
    },
    {
      "inputs": [
        {
          "internalType": "address",
          "name": "",
          "type": "address"
        }
      ],
      "name": "stakesAmount",
      "outputs": [
        {
          "internalType": "uint256",
          "name": "",
          "type": "uint256"
        }
      ],
      "stateMutability": "view",
      "type": "function"
    },
    {
      "inputs": [
        {
          "internalType": "address",
          "name": "",
          "type": "address"
        }
      ],
      "name": "stakesCounters",
      "outputs": [
        {
          "internalType": "uint256",
          "name": "",
          "type": "uint256"
        }
      ],
      "stateMutability": "view",
      "type": "function"
    },
    {
      "inputs": [
        {
          "internalType": "address",
          "name": "_staker",
          "type": "address"
        }
      ],
      "name": "stakescount",
      "outputs": [
        {
          "internalType": "uint256",
          "name": "slength",
          "type": "uint256"
        }
      ],
      "stateMutability": "view",
      "type": "function"
    },
    {
      "inputs": [
        {
          "internalType": "uint256",
          "name": "_endTime",
          "type": "uint256"
        },
        {
          "internalType": "uint256",
          "name": "_min_limit",
          "type": "uint256"
        },
        {
          "internalType": "uint256",
          "name": "_maxidx",
          "type": "uint256"
        }
      ],
      "name": "stakescsldt",
      "outputs": [],
      "stateMutability": "nonpayable",
      "type": "function"
    },
    {
      "inputs": [
        {
          "internalType": "uint256",
          "name": "_stakeidx",
          "type": "uint256"
        },
        {
          "internalType": "uint256",
          "name": "_snapamount",
          "type": "uint256"
        }
      ],
      "name": "stakesnap",
      "outputs": [],
      "stateMutability": "nonpayable",
      "type": "function"
    },
    {
      "inputs": [],
      "name": "supply",
      "outputs": [
        {
          "internalType": "uint256",
          "name": "",
          "type": "uint256"
        }
      ],
      "stateMutability": "view",
      "type": "function"
    },
    {
      "inputs": [],
      "name": "symbol",
      "outputs": [
        {
          "internalType": "string",
          "name": "",
          "type": "string"
        }
      ],
      "stateMutability": "view",
      "type": "function"
    },
    {
      "inputs": [],
      "name": "tokensMinted",
      "outputs": [
        {
          "internalType": "uint256",
          "name": "",
          "type": "uint256"
        }
      ],
      "stateMutability": "view",
      "type": "function"
    },
    {
      "inputs": [],
      "name": "totalSupply",
      "outputs": [
        {
          "internalType": "uint256",
          "name": "",
          "type": "uint256"
        }
      ],
      "stateMutability": "view",
      "type": "function"
    },
    {
      "inputs": [
        {
          "internalType": "address",
          "name": "to",
          "type": "address"
        },
        {
          "internalType": "uint256",
          "name": "tokens",
          "type": "uint256"
        }
      ],
      "name": "transfer",
      "outputs": [
        {
          "internalType": "bool",
          "name": "success",
          "type": "bool"
        }
      ],
      "stateMutability": "nonpayable",
      "type": "function"
    },
    {
      "inputs": [
        {
          "internalType": "address",
          "name": "from",
          "type": "address"
        },
        {
          "internalType": "address",
          "name": "to",
          "type": "address"
        },
        {
          "internalType": "uint256",
          "name": "tokens",
          "type": "uint256"
        }
      ],
      "name": "transferFrom",
      "outputs": [
        {
          "internalType": "bool",
          "name": "",
          "type": "bool"
        }
      ],
      "stateMutability": "nonpayable",
      "type": "function"
    },
    {
      "inputs": [],
      "name": "updatecost",
      "outputs": [],
      "stateMutability": "nonpayable",
      "type": "function"
    },
    {
      "inputs": [],
      "name": "updatev2",
      "outputs": [],
      "stateMutability": "nonpayable",
      "type": "function"
    },
    {
      "inputs": [],
      "name": "updatev3",
      "outputs": [],
      "stateMutability": "nonpayable",
      "type": "function"
    },
    {
      "inputs": [],
      "name": "updatev4",
      "outputs": [],
      "stateMutability": "nonpayable",
      "type": "function"
    },
    {
      "inputs": [],
      "name": "updatev5",
      "outputs": [],
      "stateMutability": "nonpayable",
      "type": "function"
    },
    {
      "inputs": [
        {
          "internalType": "bytes32",
          "name": "",
          "type": "bytes32"
        },
        {
          "internalType": "address",
          "name": "",
          "type": "address"
        }
      ],
      "name": "votes",
      "outputs": [
        {
          "internalType": "bytes32",
          "name": "proposal_hash",
          "type": "bytes32"
        },
        {
          "internalType": "bool",
          "name": "approve",
          "type": "bool"
        },
        {
          "internalType": "bool",
          "name": "is_editor",
          "type": "bool"
        },
        {
          "internalType": "uint256",
          "name": "amount",
          "type": "uint256"
        },
        {
          "internalType": "address",
          "name": "voter",
          "type": "address"
        },
        {
          "internalType": "uint256",
          "name": "timestamp",
          "type": "uint256"
        },
        {
          "internalType": "bool",
          "name": "is_claimed",
          "type": "bool"
        }
      ],
      "stateMutability": "view",
      "type": "function"
    },
    {
      "stateMutability": "payable",
      "type": "receive"
    }
  ],
  "bytecode": "0x60c06040526005608090815264457469636160d81b60a0526000906200002690826200055e565b5060408051808201909152600381526245544960e81b60208201526001906200005090826200055e565b5060126002556408e4b1e125600655640e63c506db6007556107e0600e556004600f55600160e01b60105562093a806019556224ea00601a55621baf80601b5562093a80601c55600254600a620000a891906200073d565b620000b59060646200074b565b601d55600254620000c890600a6200073d565b620000d590600a6200074b565b601e55611388601f55600560205560016021819055602255611824602355600060248190556043805460ff1990811690915562093a80604455604580548216905561019a604955604b805482169055604d80549091169055604e553480156200013d57600080fd5b5068056bc75e2d631000006003819055306000908152600960205260409020546200016891620001e3565b3060009081526009602052604090205568da5351938e7eb5b95c6005556002546200019590600a6200073d565b620001a49062b03d306200074b565b600b5560006017556801f30795e38ed87acc60135560105460115542600c55620001cd62000207565b6b1004c20e49aa3240785fcad2600455620007d5565b6000620001f1828462000765565b9050828110156200020157600080fd5b92915050565b600d5462000217906001620001e3565b600d819055600e546200022a9162000791565b6000036200023c576200023c6200028c565b6200024943600162000448565b406012819055601854600d54604080516020810194909452830191909152606082015260800160408051601f198184030181529190528051602090910120601255565b601154600c54600090620002a290429062000448565b600e54909150600090620002b9906102586200046b565b90508082101562000370576000620002e083620002d9846103e86200046b565b906200049d565b9050610fa0811115620002f25750610fa05b60105462000303906103e86200049d565b60115410156200032e5760115462000325908290620002d9906103e86200046b565b60115562000341565b6010546200033d90826200049d565b6011555b6200034e8460046200049d565b60115410156200036957620003658460046200049d565b6011555b5062000417565b60006200038582620002d9856103e86200046b565b9050610fa0811115620003975750610fa05b601054620003a690826200049d565b60115411620003d057601154620003c7906103e890620002d990846200046b565b601155620003d7565b6010546011555b620003e660001960046200049d565b84116200041557620003fa8460046200046b565b60115411156200041557620004118460046200046b565b6011555b505b42600c55600f5460115410156200042f57600f546011555b601054601154111562000443576010546011555b505050565b6000828211156200045857600080fd5b620004648284620007a8565b9392505050565b60006200047982846200074b565b905082158062000493575081620004918483620007be565b145b6200020157600080fd5b6000808211620004ac57600080fd5b620004648284620007be565b634e487b7160e01b600052604160045260246000fd5b600181811c90821680620004e357607f821691505b6020821081036200050457634e487b7160e01b600052602260045260246000fd5b50919050565b601f82111562000443576000816000526020600020601f850160051c81016020861015620005355750805b601f850160051c820191505b81811015620005565782815560010162000541565b505050505050565b81516001600160401b038111156200057a576200057a620004b8565b62000592816200058b8454620004ce565b846200050a565b602080601f831160018114620005ca5760008415620005b15750858301515b600019600386901b1c1916600185901b17855562000556565b600085815260208120601f198616915b82811015620005fb57888601518255948401946001909101908401620005da565b50858210156200061a5787850151600019600388901b60f8161c191681555b5050505050600190811b01905550565b634e487b7160e01b600052601160045260246000fd5b600181815b80851115620006815781600019048211156200066557620006656200062a565b808516156200067357918102915b93841c939080029062000645565b509250929050565b6000826200069a5750600162000201565b81620006a95750600062000201565b8160018114620006c25760028114620006cd57620006ed565b600191505062000201565b60ff841115620006e157620006e16200062a565b50506001821b62000201565b5060208310610133831016604e8410600b841016171562000712575081810a62000201565b6200071e838362000640565b80600019048211156200073557620007356200062a565b029392505050565b600062000464838362000689565b80820281158282048414176200020157620002016200062a565b808201808211156200020157620002016200062a565b634e487b7160e01b600052601260045260246000fd5b600082620007a357620007a36200077b565b500690565b818103818111156200020157620002016200062a565b600082620007d057620007d06200077b565b500490565b6181a480620007e56000396000f3fe6080604052600436106106d65760003560e01c80636de9f32b1161037a578063b5ade81b116101d1578063d893209411610102578063ea4a1104116100a0578063f71ae2aa1161007a578063f71ae2aa146116b9578063f8c12e2c146116cf578063f8d82683146116ef578063fc84abb71461171c57600080fd5b8063ea4a1104146115bd578063ecd3cb8214611656578063f08a01f81461167657600080fd5b8063dd62ed3e116100dc578063dd62ed3e146114fa578063e47e25a21461154d578063e723b9d91461157a578063e729798e146115a757600080fd5b8063d8932094146114b5578063d89abcb5146114cf578063dc6e9cf9146114e457600080fd5b8063c7bef6ee1161016f578063d03150c611610149578063d03150c614611446578063d40170d71461145c578063d732b83514611472578063d74ce8c51461149f57600080fd5b8063c7bef6ee146113ed578063cb9ae7071461141a578063cf70fa401461143057600080fd5b8063be7d798e116101ab578063be7d798e14611369578063bf6fc7251461137f578063c19885761461139f578063c4ec1714146113d757600080fd5b8063b5ade81b14611323578063b640776914611339578063b87c0c1d1461134f57600080fd5b806391efa914116102ab578063a5ec87e411610249578063b01ab0b211610223578063b01ab0b2146112b8578063b31102e2146112cd578063b4ef00f0146112ed578063b54f31db1461130d57600080fd5b8063a5ec87e41461126d578063a9059cbb14611283578063a99dbddc146112a357600080fd5b806395d89b411161028557806395d89b41146111b157806397566aa0146111c657806397674ea41461123d578063996901781461125757600080fd5b806391efa9141461107a5780639386775a146110b257806395bd852e1461118357600080fd5b806381269a561161031857806387a2a9d6116102f257806387a2a9d61461100b57806388858985146110215780638a769d351461104e5780638ae0368b1461106457600080fd5b806381269a5614610fa8578063829965cc14610fc8578063841218ee14610fde57600080fd5b806370066951116103545780637006695114610ef057806370a0823114610f065780637516528014610f495780637f66cb4e14610f8857600080fd5b80636de9f32b14610e725780636fbbbf1d14610e885780636fd396d614610e9e57600080fd5b806332e997081161052e5780634b44c6aa1161045f5780635a2bc22d116103fd57806362adb2e1116103d757806362adb2e114610de45780636352170f14610e1c57806369f43e9c14610e3c5780636bb5a58214610e5257600080fd5b80635a2bc22d14610d5a5780635dbdda6914610d8b5780635dfa739614610da157600080fd5b80635327d4af116104395780635327d4af14610ca45780635708416414610cc4578063584b62a114610cf15780635965916f14610d4557600080fd5b80634b44c6aa14610bdb5780634ef3762814610c79578063509fce5b14610c8e57600080fd5b80633925bfe7116104cc578063410e1b07116104a6578063410e1b0714610b4a578063424d389414610b6057806346459b2214610b98578063490203a714610bc657600080fd5b80633925bfe714610afe5780633ab3429014610b145780633c5e64d114610b2a57600080fd5b8063366c41a311610508578063366c41a314610aa757806336dfec1c14610abd578063370ef54f14610ad257806337eed2d614610ae857600080fd5b806332e9970814610a2f57806332ed5b1214610a44578063356df5ee14610a7a57600080fd5b806317da485f11610608578063229cb73c116105a657806327e235e31161058057806327e235e3146109c05780632e175004146109ed5780632f40907c14610a03578063313ce56714610a1957600080fd5b8063229cb73c1461096b57806322ae4ccf1461098057806323b872dd146109a057600080fd5b80631853f0a8116105e25780631853f0a8146108e85780631883a8d0146108fe5780631dcc83a914610936578063207c9c8d1461095657600080fd5b806317da485f1461089b5780631801fbe5146108b057806318160ddd146108d357600080fd5b80630d899b1b116106755780631081a47e1161064f5780631081a47e1461081357806310d2fce314610840578063141a3dcf14610870578063163aa00d1461088557600080fd5b80630d899b1b146107c35780630db5fea4146107dd5780630dbc6c55146107fd57600080fd5b8063047fc9aa116106b1578063047fc9aa1461075557806305103f5e1461076b57806306fdde0314610781578063095ea7b3146107a357600080fd5b8062e6e553146106e55780630206cea31461070e578063037d2f351461072557600080fd5b366106e057600080fd5b600080fd5b3480156106f157600080fd5b506106fb60075481565b6040519081526020015b60405180910390f35b34801561071a57600080fd5b50610723611749565b005b34801561073157600080fd5b5061074561074036600461733e565b611828565b6040519015158152602001610705565b34801561076157600080fd5b506106fb60035481565b34801561077757600080fd5b506106fb60495481565b34801561078d57600080fd5b50610796611d04565b6040516107059190617490565b3480156107af57600080fd5b506107456107be3660046174c7565b611d92565b3480156107cf57600080fd5b506045546107459060ff1681565b3480156107e957600080fd5b506107236107f83660046174f1565b611e0c565b34801561080957600080fd5b506106fb60225481565b34801561081f57600080fd5b506106fb61082e36600461754f565b602d6020526000908152604090205481565b34801561084c57600080fd5b5061074561085b366004617568565b604c6020526000908152604090205460ff1681565b34801561087c57600080fd5b50610796612520565b34801561089157600080fd5b506106fb60155481565b3480156108a757600080fd5b506106fb61252d565b3480156108bc57600080fd5b506107456108cb366004617583565b600092915050565b3480156108df57600080fd5b506003546106fb565b3480156108f457600080fd5b506106fb602a5481565b34801561090a57600080fd5b506106fb6109193660046174c7565b604260209081526000928352604080842090915290825290205481565b34801561094257600080fd5b506107236109513660046175a5565b61254b565b34801561096257600080fd5b50610723612a37565b34801561097757600080fd5b506106fb612ac0565b34801561098c57600080fd5b5061072361099b366004617583565b612ad9565b3480156109ac57600080fd5b506107456109bb366004617664565b612cfe565b3480156109cc57600080fd5b506106fb6109db366004617568565b60096020526000908152604090205481565b3480156109f957600080fd5b506106fb601a5481565b348015610a0f57600080fd5b506106fb60365481565b348015610a2557600080fd5b506106fb60025481565b348015610a3b57600080fd5b506011546106fb565b348015610a5057600080fd5b50610a64610a5f36600461754f565b612ec0565b6040516107059a999897969594939291906176a0565b348015610a8657600080fd5b506106fb610a9536600461754f565b60326020526000908152604090205481565b348015610ab357600080fd5b506106fb601d5481565b348015610ac957600080fd5b50610796613148565b348015610ade57600080fd5b506106fb601b5481565b348015610af457600080fd5b506106fb60245481565b348015610b0a57600080fd5b506106fb601c5481565b348015610b2057600080fd5b506106fb601f5481565b348015610b3657600080fd5b50610723610b4536600461773d565b613155565b348015610b5657600080fd5b506106fb600b5481565b348015610b6c57600080fd5b506106fb610b7b366004617583565b603760209081526000928352604080842090915290825290205481565b348015610ba457600080fd5b50610bb8610bb336600461754f565b6132f5565b6040516107059291906177a0565b348015610bd257600080fd5b506106fb61339a565b348015610be757600080fd5b50610c60610bf636600461754f565b603460205260009081526040902080546001820154600283015460038401546004850154600586015460068701546007880154600889015460098a0154600a909a015498999798969760ff808816986101008904821698620100009004909116969594939291908d565b6040516107059d9c9b9a99989796959493929190617823565b348015610c8557600080fd5b506012546106fb565b348015610c9a57600080fd5b506106fb60085481565b348015610cb057600080fd5b50610723610cbf366004617899565b6133b4565b348015610cd057600080fd5b506106fb610cdf366004617568565b603d6020526000908152604090205481565b348015610cfd57600080fd5b50610d30610d0c3660046174c7565b603e6020908152600092835260408084209091529082529020805460019091015482565b60408051928352602083019190915201610705565b348015610d5157600080fd5b5061079661354e565b348015610d6657600080fd5b50610d7a610d7536600461754f565b61356b565b6040516107059594939291906178c5565b348015610d9757600080fd5b506106fb60195481565b348015610dad57600080fd5b506106fb610dbc366004617568565b73ffffffffffffffffffffffffffffffffffffffff166000908152603f602052604090205490565b348015610df057600080fd5b506106fb610dff366004617583565b602f60209081526000928352604080842090915290825290205481565b348015610e2857600080fd5b50610723610e373660046174f1565b6136ac565b348015610e4857600080fd5b506106fb604a5481565b348015610e5e57600080fd5b50610723610e6d366004617908565b613ec8565b348015610e7e57600080fd5b506106fb60175481565b348015610e9457600080fd5b506106fb602c5481565b348015610eaa57600080fd5b50601454610ecb9073ffffffffffffffffffffffffffffffffffffffff1681565b60405173ffffffffffffffffffffffffffffffffffffffff9091168152602001610705565b348015610efc57600080fd5b506106fb60215481565b348015610f1257600080fd5b506106fb610f21366004617568565b73ffffffffffffffffffffffffffffffffffffffff1660009081526009602052604090205490565b348015610f5557600080fd5b50610d30610f643660046174c7565b603c6020908152600092835260408084209091529082529020805460019091015482565b348015610f9457600080fd5b50610723610fa336600461754f565b614078565b348015610fb457600080fd5b50610745610fc336600461793d565b61452a565b348015610fd457600080fd5b506106fb600d5481565b348015610fea57600080fd5b506106fb610ff936600461754f565b60306020526000908152604090205481565b34801561101757600080fd5b506106fb60105481565b34801561102d57600080fd5b506106fb61103c36600461754f565b60296020526000908152604090205481565b34801561105a57600080fd5b506106fb60115481565b34801561107057600080fd5b506106fb60125481565b34801561108657600080fd5b506106fb611095366004617583565b604660209081526000928352604080842090915290825290205481565b3480156110be57600080fd5b506111306110cd36600461796f565b603b602090815260009283526040808420909152908252902080546001820154600283015460038401546004850154600590950154939460ff8085169561010090950481169473ffffffffffffffffffffffffffffffffffffffff909316921687565b60408051978852951515602088015293151594860194909452606085019190915273ffffffffffffffffffffffffffffffffffffffff16608084015260a0830191909152151560c082015260e001610705565b34801561118f57600080fd5b506111a361119e36600461799b565b61459a565b604051610705929190617a12565b3480156111bd57600080fd5b5061079661478c565b3480156111d257600080fd5b506106fb6111e1366004617899565b604080516020808201939093523360601b7fffffffffffffffffffffffffffffffffffffffff00000000000000000000000016818301526054808201959095528151808203909501855260740190528251920191909120919050565b34801561124957600080fd5b50604d546107459060ff1681565b34801561126357600080fd5b506106fb601e5481565b34801561127957600080fd5b506106fb60335481565b34801561128f57600080fd5b5061074561129e3660046174c7565b614799565b3480156112af57600080fd5b50610723614858565b3480156112c457600080fd5b5061072361490b565b3480156112d957600080fd5b506107236112e8366004617583565b6149c4565b3480156112f957600080fd5b506106fb611308366004617908565b614b55565b34801561131957600080fd5b506106fb60065481565b34801561132f57600080fd5b506106fb600e5481565b34801561134557600080fd5b506106fb60045481565b34801561135b57600080fd5b506043546107459060ff1681565b34801561137557600080fd5b506106fb60205481565b34801561138b57600080fd5b5061074561139a3660046174c7565b614b7d565b3480156113ab57600080fd5b506106fb6113ba366004617583565b603860209081526000928352604080842090915290825290205481565b3480156113e357600080fd5b506106fb604e5481565b3480156113f957600080fd5b506106fb611408366004617568565b60406020819052600091825290205481565b34801561142657600080fd5b506106fb600c5481565b34801561143c57600080fd5b506106fb60135481565b34801561145257600080fd5b506106fb60285481565b34801561146857600080fd5b506106fb60055481565b34801561147e57600080fd5b506106fb61148d366004617568565b603f6020526000908152604090205481565b3480156114ab57600080fd5b506106fb60265481565b3480156114c157600080fd5b50604b546107459060ff1681565b3480156114db57600080fd5b50610723614bcc565b3480156114f057600080fd5b506106fb600f5481565b34801561150657600080fd5b506106fb611515366004617a2d565b73ffffffffffffffffffffffffffffffffffffffff9182166000908152600a6020908152604080832093909416825291909152205490565b34801561155957600080fd5b506106fb61156836600461754f565b603a6020526000908152604090205481565b34801561158657600080fd5b506106fb61159536600461754f565b60396020526000908152604090205481565b3480156115b357600080fd5b506106fb60235481565b3480156115c957600080fd5b5061161b6115d836600461754f565b6025602052600090815260409020805460018201546002830154600384015460048501546005860154600687015460079097015495969495939492939192909188565b604080519889526020890197909752958701949094526060860192909252608085015260a084015260c083015260e082015261010001610705565b34801561166257600080fd5b5061072361167136600461754f565b614c81565b34801561168257600080fd5b506106fb611691366004617568565b73ffffffffffffffffffffffffffffffffffffffff166000908152603d602052604090205490565b3480156116c557600080fd5b506106fb60445481565b3480156116db57600080fd5b506107236116ea36600461754f565b614ea5565b3480156116fb57600080fd5b506106fb61170a36600461754f565b60276020526000908152604090205481565b34801561172857600080fd5b506106fb611737366004617568565b60416020526000908152604090205481565b60455460ff161561175957600080fd5b60025461176790600a617ba6565b611773906103e8617bb2565b601e5561177e615809565b60479061178b9082617c6c565b50611794615950565b6048906117a19082617c6c565b507fffffffffffffffffffffffffffffffffffffffffffffffffffffffffffffffff60108190556117d590622625a06159ba565b60115561019a6049556002546117ec90600a617ba6565b6117f8906101f4617bb2565b601d55604580547fffffffffffffffffffffffffffffffffffffffffffffffffffffffffffffff00166001179055565b600060476040516118399190617d86565b60405180910390208780519060200120146118b5576040517f08c379a000000000000000000000000000000000000000000000000000000000815260206004820152601460248201527f426c6f636b486561646572206d69736d6174636800000000000000000000000060448201526064015b60405180910390fd5b60125486146118c357600080fd5b60486040516118d29190617d86565b6040518091039020838051906020012014611949576040517f08c379a000000000000000000000000000000000000000000000000000000000815260206004820152601160248201527f5365656468617368206d69736d6174636800000000000000000000000000000060448201526064016118ac565b60115484111561195857600080fd5b6040517fffffffffffffffffffffffffffffffffffffffff0000000000000000000000003360601b1660208201527fffffffff0000000000000000000000000000000000000000000000000000000089166034820152600090603801604080517fffffffffffffffffffffffffffffffffffffffffffffffffffffffffffffffe081840301815291815281516020928301206012546000908152604684528281208282529093529082205490925090819003611a1357600080fd5b60008a87878a604051602001611a2c9493929190617e1a565b604051602081830303815290604052805190602001209050818114611a5057600080fd5b6012546000908152601660205260409020548015611a6d57600080fd5b6012546000908152601660205260409020839055600254611a8f90600a617ba6565b611a9c90621cd6d0617bb2565b60175411611ab6576801f30795e38ed87acc601355611bd1565b600254611ac490600a617ba6565b611ad1906269be50617bb2565b6017541015611aec576801bb94f70329a3fb60601355611bd1565b600254611afa90600a617ba6565b611b079062aba950617bb2565b6017541015611b225768011d28e7efbf572199601355611bd1565b600254611b3090600a617ba6565b611b3d9062cc9ed0617bb2565b6017541015611b5757678e9473f7dfab90cc601355611bd1565b600254611b6590600a617ba6565b611b729062dd1990617bb2565b6017541015611b8c5767474a39fbefd5c866601355611bd1565b600354600090611b9e906127106159d9565b90506000611bad8260646159ba565b9050611bcb631f5406b0611bc56064818560056159d9565b906159ba565b60135550505b601354601754611be091615a05565b6017819055600b5411611bf557611bf5617e7f565b601354600354611c0491615a05565b60035560135433600090815260096020526040902054611c2391615a05565b33600081815260096020526040902091909155601480547fffffffffffffffffffffffff000000000000000000000000000000000000000016909117905543601555611c6d615a20565b601354600d546012546040805193845260208401929092529082015233907fcf6fbb9dcea7d07263ab4f5c3a92f53af33dffc421d9d121e1c74b307e68189d9060600160405180910390a2601354604051908152339030907fddf252ad1be2c89b69c2b068fc378daa952ba7f163c4a11628f55a4df523b3ef9060200160405180910390a35060019b9a5050505050505050505050565b60008054611d1190617bc9565b80601f0160208091040260200160405190810160405280929190818152602001828054611d3d90617bc9565b8015611d8a5780601f10611d5f57610100808354040283529160200191611d8a565b820191906000526020600020905b815481529060010190602001808311611d6d57829003601f168201915b505050505081565b336000818152600a6020908152604080832073ffffffffffffffffffffffffffffffffffffffff8716808552925280832085905551919290917f8c5be1e5ebec7d5bd14f71427d1e84f3dd0314c0f7b2291e5b200ac8c7c3b92590611dfa9086815260200190565b60405180910390a35060015b92915050565b600083833384604051602001611e259493929190617eae565b604080517fffffffffffffffffffffffffffffffffffffffffffffffffffffffffffffffe08184030181529181528151602092830120336000908152603c8452828120828252909352912054909150611e7d57600080fd5b6000848152603160205260409020805415801590611e9e5750848160010154145b611ea757600080fd5b6000858152603460205260409020601c546001820154611ec691615a05565b4211611ed157600080fd5b336000818152603c602090815260408083208784528252808320549383526041909152902054611f0091615afe565b336000908152604160209081526040808320939093556003850154825260259052908120601954909190611f359042906159ba565b90506000611f616001611f5b601954611bc5601c54601b54615a0590919063ffffffff16565b90615a05565b6001840154909150611f739082615a05565b821015611f7f57600080fd5b60008815611f8b575060015b336000908152603c602090815260408083208a84529091528120546005870154602154601a54929392611fd49261271092611bc592611fce9160049183916159d9565b906159d9565b905060038088810154610100900460ff1690811115611ff557611ff56177b9565b03611fff57506044545b600387810154610100900460ff169081111561201d5761201d6177b9565b83600381111561202f5761202f6177b9565b0361206e5761206b612710611bc5896005015461271161204f9190617eeb565b611fce6002611fce602154601a546159d990919063ffffffff16565b90505b336000908152603c602090815260408083208c845290915281205461209b90606490611bc590600a6159d9565b90506126ac88600501541180156120e05750600388810154610100900460ff16908111156120cb576120cb6177b9565b8460038111156120dd576120dd6177b9565b14155b156120f3576120f08160026159d9565b90505b60408051828152602081018f905233917f53ef86fe8b545e88c8078a71aa8a9be4140e6f140b4e36f0ffee9207cf1ee896910160405180910390a260085461213b9082615a05565b600855336000908152603c602090815260408083208d84529091529020546121639082615afe565b925060015b336000908152603f6020526040902054811161225a57336000908152603e6020908152604080832084845290915290205482101561221057336000908152603e602090815260408083208484529091529020546121c59083615afe565b336000818152603e602090815260408083208684528252808320949094559181529082905220546121f69083615afe565b33600090815260406020819052812091909155915061225a565b336000908152603e60209081526040808320848452909152902054612236908390615afe565b91506122423382615b17565b811561225a578061225281617efe565b915050612168565b50821561249f5760408051848152602081018f905290810183905233907fd93567a4d470fa277429086aae141410cccc35c73954734ea3e24152fc044f359060600160405180910390a260015b336000908152603f6020526040902054811161249d57336000908152603e6020908152604080832084845290915290205484106123aa57336000908152603e6020908152604080832084845290915290206001015442101561234e57336000908152603e6020908152604080832084845290915290206001015461232b9084615a05565b336000908152603e60209081526040808320858452909152902060010155612377565b6123584284615a05565b336000908152603e602090815260408083208584529091529020600101555b336000908152603e6020908152604080832084845290915290205461239d908590615afe565b9350831561249d5761248b565b336000908152603e602090815260408083208484529091528120546123cf9086615afe565b336000908152603e6020908152604080832086845290915290206001810154908790559091504281111561244857336000908152603e602090815260408083208684529091529020600101546124259086615a05565b336000908152603e60209081526040808320878452909152902060010155612471565b6124524286615a05565b336000908152603e602090815260408083208784529091529020600101555b811561248457612482338383615c56565b505b505061249d565b8061249581617efe565b9150506122a7565b505b6001890154336000818152603c602090815260408083208f84528252918290205491519182527f3ededec39a86b2261e09be07993014ceae66346b9af09000ec0cc87fe2d8f9de910160405180910390a3336000908152603c602090815260408083208d845290915281208181556001015550505050505050505050505050565b60488054611d1190617bc9565b60006125466011546010546159ba90919063ffffffff16565b905090565b6000868152602d6020526040902054158015906125785750602c546000878152602d602052604090205411155b61258157600080fd5b6000868152602d60209081526040808320548352602b90915290205486146125a857600080fd5b6036548111156125b757600080fd5b600083876040516020016125cc929190617f36565b604080517fffffffffffffffffffffffffffffffffffffffffffffffffffffffffffffffe0818403018152918152815160209283012060008a8152603090935291205490915061261d906001615a05565b6000888152603060209081526040808320849055602f825280832093835292905220819055603354612650906001615a05565b60338190556000908152603260209081526040808320849055838352603190915290206001015480151580612692575060008281526031602052604090205415155b1561269c57600080fd5b60006126b3601954426159ba90919063ffffffff16565b600081815260296020526040812054919250036126d2576126d2615cf6565b60008381526031602090815260408083206033548155600281018d90558484526029909252909120546003820155600181018490556005810180547fffffffffffffffffffffffff00000000000000000000000000000000000000001633179055600681016127418a82617c6c565b50600781016127508982617c6c565b506009810161275f8882617c6c565b506008810161276e8782617c6c565b5060008481526034602052604081206003810180547fffffffffffffffffffffffffffffffffffffffffffffffffffffffffff00000016620102021790556004810182905560058101829055600681018290556007810182905560088101829055600981019190915542808255601b546127e89190615a05565b6001820155601f54600a820155601e54336000908152603d6020526040902054101561281357600080fd5b601e54336000908152603d602052604090205461282f91615afe565b336000908152603d6020908152604080832093909355601e5460419091529190205461285a91615a05565b33600081815260416020908152604080832094909455600186810154808452603b8352858420858552835285842090815590810180547fffffffffffffffffffffffffffffffffffffffffffffffffffffffffffff000016610101179055601e546002820155600380820180547fffffffffffffffffffffffff00000000000000000000000000000000000000001690951790945542600482015592850180547fffffffffffffffffffffffffffffffffffffffffffffffffffffffffffff00ff16610300179055898252603590529190912054801580159061294d57506000888152603560205260409020600101548d145b1561299e57600484018890556000888152603a6020526040902054612973906001615a05565b6000898152603a60209081526040808320849055600188015460388352818420948452939091529020555b6018546040805160208101929092528101889052606001604080518083037fffffffffffffffffffffffffffffffffffffffffffffffffffffffffffffffe001815290829052805160209182012060185560028601548983528a92909133917ff20f961bd89931f54768689d741307497501063bee5847fc3fcaa72b026d1859910160405180910390a450505050505050505050505050565b604b5460ff1615612a4757600080fd5b735ccccb6d334197c7c4ba94e7873d0ef11381cd4e600052604c6020527f611c760936f6bcd8b272aaf27c956ce8682ee5346240bf1157df84e64607fb9e805460017fffffffffffffffffffffffffffffffffffffffffffffffffffffffffffffff009182168117909255604b80549091169091179055565b6000612546600854600354615afe90919063ffffffff16565b6127108211612ae757600080fd5b336000908152603d6020526040902054821115612b0357600080fd5b336000908152603d6020526040902054612b1d9083615afe565b336000908152603d6020908152604080832093909355604190522054612b439083615a05565b336000908152604160209081526040808320849055603d909152902054612b6991615a05565b336000908152604060208190529020541015612c2d576040517f08c379a000000000000000000000000000000000000000000000000000000000815260206004820152605760248201527f457469636152656c656173653a2045786365737320626f736f6d7320666f722060448201527f74686973206e657720766f746520616d6f756e742c20636c61696d20736f6d6560648201527f207374616b6573206265666f7265206e657720766f7465000000000000000000608482015260a4016118ac565b336000908152603c60209081526040808320848452909152902054612c529083615a05565b336000908152603c60209081526040808320858452825291829020928355426001909301929092556018548151928301528101829052606001604080518083037fffffffffffffffffffffffffffffffffffffffffffffffffffffffffffffffe00181528282528051602091820120601855838352820184905233917f8a1ff244f8a72f76c71ce96c1ddf485af695058f9e3638a8359e74257d71a30691015b60405180910390a25050565b73ffffffffffffffffffffffffffffffffffffffff83166000908152604c602052604081205460ff1615612d8e576040517f08c379a000000000000000000000000000000000000000000000000000000000815260206004820152601760248201527f46726f6d206164647265737320697320626c6f636b656400000000000000000060448201526064016118ac565b73ffffffffffffffffffffffffffffffffffffffff8416600090815260096020526040902054612dbe9083615afe565b73ffffffffffffffffffffffffffffffffffffffff8516600090815260096020908152604080832093909355600a815282822033835290522054612e029083615afe565b73ffffffffffffffffffffffffffffffffffffffff8086166000908152600a60209081526040808320338452825280832094909455918616815260099091522054612e4d9083615a05565b73ffffffffffffffffffffffffffffffffffffffff80851660008181526009602052604090819020939093559151908616907fddf252ad1be2c89b69c2b068fc378daa952ba7f163c4a11628f55a4df523b3ef90612eae9086815260200190565b60405180910390a35060019392505050565b60316020526000908152604090208054600182015460028301546003840154600485015460058601546006870180549697959694959394929373ffffffffffffffffffffffffffffffffffffffff90921692612f1b90617bc9565b80601f0160208091040260200160405190810160405280929190818152602001828054612f4790617bc9565b8015612f945780601f10612f6957610100808354040283529160200191612f94565b820191906000526020600020905b815481529060010190602001808311612f7757829003601f168201915b505050505090806007018054612fa990617bc9565b80601f0160208091040260200160405190810160405280929190818152602001828054612fd590617bc9565b80156130225780601f10612ff757610100808354040283529160200191613022565b820191906000526020600020905b81548152906001019060200180831161300557829003601f168201915b50505050509080600801805461303790617bc9565b80601f016020809104026020016040519081016040528092919081815260200182805461306390617bc9565b80156130b05780601f10613085576101008083540402835291602001916130b0565b820191906000526020600020905b81548152906001019060200180831161309357829003601f168201915b5050505050908060090180546130c590617bc9565b80601f01602080910402602001604051908101604052809291908181526020018280546130f190617bc9565b801561313e5780601f106131135761010080835404028352916020019161313e565b820191906000526020600020905b81548152906001019060200180831161312157829003601f168201915b505050505090508a565b60478054611d1190617bc9565b6000838152602d6020526040902054158015906131825750602c546000848152602d602052604090205411155b61318b57600080fd5b6000838152602d60209081526040808320548352602b90915290205483146131b257600080fd5b601d546000906131c39060056159ba565b336000908152600960205260409020549091508111156131e257600080fd5b6131ec3082614799565b506036546131fb906001615a05565b603655600084815260396020526040902054613218906001615a05565b600085815260396020908152604080832084815560365460378452828520958552948352818420859055815160a0810183528581528084018a81529154818401908152606082018a8152608083018a9052968652603590945291909320815181559251600184015590516002830155915160038201906132989082617c6c565b50608082015160048201906132ad9082617c6c565b50506008546132bd915082615a05565b6008556036546040518591907fb733708a2586752275a4854aac54c7bb263ad67859f07d16147feea53ca009d790600090a350505050565b602b602052600090815260409020805460018201805491929161331790617bc9565b80601f016020809104026020016040519081016040528092919081815260200182805461334390617bc9565b80156133905780601f1061336557610100808354040283529160200191613390565b820191906000526020600020905b81548152906001019060200180831161337357829003601f168201915b5050505050905082565b6000600b54601754116133ae575060135490565b50600090565b6133c2426303c26700615a05565b83106133cd57600080fd5b603281111580156133ed5750336000908152603f60205260409020548111155b6133f657600080fd5b6000806001805b8481116134f757336000908152603f60205260409020546002116134e557336000908152603f6020526040902054811161343957809150613456565b6134438184615afe565b9150600182101561345657613456617e7f565b336000908152603e6020908152604080832085845290915290206001015487108015906134a05750336000908152603e602090815260408083208584529091529020600101548611155b156134e557336000908152603e602090815260408083208584529091529020546134cb908590615a05565b93506134d73383615b17565b6134e2836001615a05565b92505b806134ef81617efe565b9150506133fd565b50821561350b57613509338488615e56565b505b604080518781526020810187905233917f52806950881c6df8cc206c3b151fcc9aea7b2d53d8ff441469dffd05e851e3ab910160405180910390a2505050505050565b60405180610100016040528060d9815260200161809660d9913981565b60356020526000908152604090208054600182015460028301546003840180549394929391929161359b90617bc9565b80601f01602080910402602001604051908101604052809291908181526020018280546135c790617bc9565b80156136145780601f106135e957610100808354040283529160200191613614565b820191906000526020600020905b8154815290600101906020018083116135f757829003601f168201915b50505050509080600401805461362990617bc9565b80601f016020809104026020016040519081016040528092919081815260200182805461365590617bc9565b80156136a25780601f10613677576101008083540402835291602001916136a2565b820191906000526020600020905b81548152906001019060200180831161368557829003601f168201915b5050505050905085565b6000838333846040516020016136c59493929190617eae565b604080517fffffffffffffffffffffffffffffffffffffffffffffffffffffffffffffffe08184030181529181528151602092830120336000908152603c845282812082825290935291205490915061371d57600080fd5b600084815260316020526040902080541580159061373e5750848160010154145b61374757600080fd5b6000858152603460209081526040808320600180820154338652603c8552838620888752909452919093200154111561377f57600080fd5b8060010154421180156137a25750601c54600182015461379e91615a05565b4211155b6137ab57600080fd5b6002600382810154610100900460ff16908111156137cb576137cb6177b9565b036137d557600080fd5b600881015460098201546003840154600090815260256020908152604080832060018801548452603b8352818420338552909252909120548015158061383b575060018601546000908152603b6020908152604080832033845290915290206002015415155b1561384557600080fd5b6000603b60008860010154815260200190815260200160002060003373ffffffffffffffffffffffffffffffffffffffff1673ffffffffffffffffffffffffffffffffffffffff168152602001908152602001600020905086600101548160000181905550898160010160006101000a81548160ff02191690831515021790555060008160010160016101000a81548160ff021916908315150217905550603c60003373ffffffffffffffffffffffffffffffffffffffff1673ffffffffffffffffffffffffffffffffffffffff1681526020019081526020016000206000898152602001908152602001600020600001548160020181905550338160030160006101000a81548173ffffffffffffffffffffffffffffffffffffffff021916908373ffffffffffffffffffffffffffffffffffffffff1602179055504281600401819055506139a360018760040154615a0590919063ffffffff16565b6004870155336000908152603c602090815260408083208b8452909152812054670de0b6b3a764000011156139ff57336000908152603c602090815260408083208c84529091529020546139f89060026159ba565b9050613a35565b613a32613a2f670a688906bd8b0000336000908152603c602090815260408083208f845290915290205490615f74565b90565b90505b33600090815260426020908152604080832060018c0154845290915290208190558a15613a75576006870154613a6b9082615a05565b6006880155613a8a565b6007870154613a849082615a05565b60078801555b6000806000613aaa8a600701548b60060154615a0590919063ffffffff16565b90506000613ac76127108c600601546159d990919063ffffffff16565b600a8c0154909150600090613adc83856159ba565b1115613ae757600194505b600a8c0154613af683856159ba565b03613b0057600193505b60038c0180547fffffffffffffffffffffffffffffffffffffffffffffffffffffffffff00ffff1662010000861515021790558415613b8c57613b55612710611bc5858f600a0154612710611fce9190617eeb565b9050613b7481611bc56127108f600701546159d990919063ffffffff16565b9050613b8281612710617eeb565b60058d0155613bdc565b613ba9612710611bc58e600a0154866159d990919063ffffffff16565b9050613bc881611bc56127108f600601546159d990919063ffffffff16565b9050613bd681612710617eeb565b60058d01555b6127108c600501541115613bef57600080fd5b60008515613bfb575060015b6003808e810154610100900460ff1690811115613c1a57613c1a6177b9565b03613c59578515613c3f5760068a0154613c35906001615a05565b60068b0155613cf7565b60078a0154613c4f906001615a05565b60078b0155613cf7565b60038d810154610100900460ff1690811115613c7757613c776177b9565b816003811115613c8957613c896177b9565b14613cf7576001816003811115613ca257613ca26177b9565b03613ccc5760078a0154613cb7906001615afe565b60078b015560068a0154613c35906001615a05565b60068a0154613cdc906001615afe565b60068b015560078a0154613cf1906001615a05565b60078b01555b8415613d625760038d0180547fffffffffffffffffffffffffffffffffffffffffffffffffffffffffffff00ff169055600060088e0181905560098e015560028a0154613d44908d615afe565b60028b015560038a0154613d58908c615afe565b60038b0155613e46565b8515613ddb5760038d0180547fffffffffffffffffffffffffffffffffffffffffffffffffffffffffffff00ff1661010017905560068d015460088e0181905560098e0181905560028b0154613dbd9190611f5b908f615afe565b60028b015560098d015460038b0154613d589190611f5b908e615afe565b60038d0180547fffffffffffffffffffffffffffffffffffffffffffffffffffffffffffff00ff16905560078d015460088e01819055600060098f015560028b0154613e2c9190611f5b908f615afe565b60028b015560038a0154613e40908c615afe565b60038b01555b60018e0154600289015460405190815233907f4627acd8194d77d62502e6eb464100f9c2d8a487c62a6fd54048d3d8f1cb5c519060200160405180910390a3613eb48f336000908152603c602090815260408083208484528083529083208381559383529052600190910155565b505050505050505050505050505050505050565b6040805160008152602081018083528151902091613ee891849101617f58565b6040516020818303038152906040528051906020012003613f0857600080fd5b601d54336000908152600960205260409020541015613f2657600080fd5b613f3230601d54614799565b50601d54600854613f4291615a05565b600855604051600090613f59908390602001617490565b604051602081830303815290604052805190602001209050613f876001602c54615a0590919063ffffffff16565b602c556000818152602d602052604090205415613fa357600080fd5b602e82604051613fb39190617f58565b9081526040519081900360200190205415613fcd57600080fd5b6040805180820182528281526020808201858152602c546000908152602b90925292902081518155915190919060018201906140099082617c6c565b5050602c546000838152602d6020526040908190209190915551829150602e90614034908590617f58565b908152602001604051809103902081905550602c547f830578780908e1ff0fbde38777892998c31b30c39451a5a3b0e99cbf7bd781df83604051612cf29190617490565b336000908152603c6020908152604080832084845290915290205461409c57600080fd5b336000818152603c6020908152604080832085845282528083205493835260419091529020546140cb91615afe565b33600090815260416020908152604080832093909355603c815282822084835290529081205460445490916141066064611bc58560156159d9565b604080518281526000602082015291925033917f53ef86fe8b545e88c8078a71aa8a9be4140e6f140b4e36f0ffee9207cf1ee896910160405180910390a26008546141519082615a05565b600855336000908152603c602090815260408083208784529091529020546141799082615afe565b925060015b336000908152603f6020526040902054811161427057336000908152603e6020908152604080832084845290915290205482101561422657336000908152603e602090815260408083208484529091529020546141db9083615afe565b336000818152603e6020908152604080832086845282528083209490945591815290829052205461420c9083615afe565b336000908152604060208190528120919091559150614270565b336000908152603e6020908152604080832084845290915290205461424c908390615afe565b91506142583382615b17565b8115614270578061426881617efe565b91505061417e565b5082156144b557604080518481526000602082015290810183905233907fd93567a4d470fa277429086aae141410cccc35c73954734ea3e24152fc044f359060600160405180910390a260015b336000908152603f602052604090205481116144b357336000908152603e6020908152604080832084845290915290205484106143c057336000908152603e6020908152604080832084845290915290206001015442101561436457336000908152603e602090815260408083208484529091529020600101546143419084615a05565b336000908152603e6020908152604080832085845290915290206001015561438d565b61436e4284615a05565b336000908152603e602090815260408083208584529091529020600101555b336000908152603e602090815260408083208484529091529020546143b3908590615afe565b935083156144b3576144a1565b336000908152603e602090815260408083208484529091528120546143e59086615afe565b336000908152603e6020908152604080832086845290915290206001810154908790559091504281111561445e57336000908152603e6020908152604080832086845290915290206001015461443b9086615a05565b336000908152603e60209081526040808320878452909152902060010155614487565b6144684286615a05565b336000908152603e602090815260408083208784529091529020600101555b811561449a57614498338383615c56565b505b50506144b3565b806144ab81617efe565b9150506142bd565b505b336000818152603c6020908152604080832088845282528083205490519081529192917f3ededec39a86b2261e09be07993014ceae66346b9af09000ec0cc87fe2d8f9de910160405180910390a3336000908152603c6020908152604080832087845290915281208181556001015550505050565b6040805160208082018590523360601b7fffffffffffffffffffffffffffffffffffffffff0000000000000000000000001682840152605480830188905283518084039091018152607490920190925280519101206000908281111561458f57600080fd5b909314949350505050565b6000606060476040516145ad9190617d86565b604051809103902086805190602001201461460057505060408051808201909152601481527f426c6f636b486561646572206d69736d617463680000000000000000000000006020820152600090614783565b601254851461464757505060408051808201909152601281527f4368616c6c656e6765206d69736d6174636800000000000000000000000000006020820152600090614783565b60486040516146569190617d86565b60405180910390208380519060200120146146a957505060408051808201909152601181527f5365656468617368206d69736d617463680000000000000000000000000000006020820152600090614783565b6011548411156146f157505060408051808201909152601781527f436c61696d65642074617267657420746f6f20686967680000000000000000006020820152600090614783565b601254600090815260166020526040902054156147495760006040518060400160405280602081526020017f4368616c6c656e676520616c726561647920686173206120736f6c7574696f6e81525091509150614783565b505060408051808201909152601481527f416c6c20706172616d65746572732076616c696400000000000000000000000060208201526001905b94509492505050565b60018054611d1190617bc9565b60008082116147a757600080fd5b336000908152600960205260409020546147c19083615afe565b336000908152600960205260408082209290925573ffffffffffffffffffffffffffffffffffffffff8516815220546147fa9083615a05565b73ffffffffffffffffffffffffffffffffffffffff84166000818152600960205260409081902092909255905133907fddf252ad1be2c89b69c2b068fc378daa952ba7f163c4a11628f55a4df523b3ef90611dfa9086815260200190565b604d5460ff161561486857600080fd5b735ccccb6d334197c7c4ba94e7873d0ef11381cd4e600052604c6020527f611c760936f6bcd8b272aaf27c956ce8682ee5346240bf1157df84e64607fb9e80547fffffffffffffffffffffffffffffffffffffffffffffffffffffffffffffff001690556017546003546148db91615afe565b604e55604d80547fffffffffffffffffffffffffffffffffffffffffffffffffffffffffffffff00166001179055565b60025461491990600a617ba6565b614927906301406f40617bb2565b600354101561493557600080fd5b60346026546149449190617fa3565b1561494e57600080fd5b60006149736509184e72a000611bc56302d69be66003546159d990919063ffffffff16565b9050600061499a655af3107a4000611bc56302d69be66003546159d990919063ffffffff16565b601e819055601d839055602654602454919250116149ba576149ba617e7f565b5050602654602455565b600081116149d157600080fd5b6000821180156149f05750336000908152603f60205260409020548211155b6149f957600080fd5b336000908152603e60209081526040808320858452909152902080548210614a2057600080fd5b8054600090614a2f9084615afe565b838355336000908152603f6020526040902054909150614a50906001615a05565b336000908152603f6020526040902081905560641015614acc576040517f08c379a000000000000000000000000000000000000000000000000000000000815260206004820181905260248201527f43616e6e6f74206d616b65206d6f7265207468616e20313030207374616b657360448201526064016118ac565b6040805180820182528281526001808501546020808401918252336000908152603e8252858120603f83528682205482529091529390932091518255915191015580614b1a57614b1a617e7f565b60405183815233907f5bbe98d566948f7d7db717dafb0a14082df525118fac86c23df2302f161c03479060200160405180910390a250505050565b6000602e82604051614b679190617f58565b9081526020016040518091039020549050919050565b60003373ffffffffffffffffffffffffffffffffffffffff841614614ba157600080fd5b60008211614bae57600080fd5b614bb83083614799565b50614bc38383616086565b50600192915050565b60435460ff1615614bdc57600080fd5b600254614bea90600a617ba6565b614bf5906064617bb2565b601e556090600e55600254614c0b90600a617ba6565b614c189062f05370617bb2565b600b55614c236160ee565b601054601154614c35906101006159d9565b11614c4d57601154614c49906101006159d9565b6011555b62127500604455604380547fffffffffffffffffffffffffffffffffffffffffffffffffffffffffffffff00166001179055565b600081118015614ca05750336000908152603f60205260409020548111155b614ca957600080fd5b336000908152603e60209081526040808320848452909152902060018101544211614cd357600080fd5b336000908152604160209081526040808320549181905290912054614cf791615afe565b81541115614d0457600080fd5b33600090815260416020908152604080832054603d90925290912054614d2991615a05565b815433600090815260406020819052902054614d4491615afe565b1015614dd2573360009081526041602090815260408083205484549282905290832054614d7b92614d759190615afe565b90615afe565b1115614dc15733600090815260416020908152604080832054845492829052922054614dac9291614d759190615afe565b336000908152603d6020526040902055614dd2565b336000908152603d60205260408120555b805430600090815260096020526040902054614ded91615afe565b3060009081526009602052604080822092909255825433825291902054614e1391615a05565b336000818152600960209081526040918290209390935583549051908152909130917fddf252ad1be2c89b69c2b068fc378daa952ba7f163c4a11628f55a4df523b3ef910160405180910390a3805460405190815233907f2aeea59856f5616c244717fd488ead1d1b5fd33608d9583a4607b4c4ba3631e49060200160405180910390a2614ea13383615b17565b5050565b6000818152603160205260409020805415801590614ec65750818160010154145b614ecf57600080fd5b6000828152603460205260409020601c546001820154614eee91615a05565b4211614ef957600080fd5b60018201546000908152603b60209081526040808320338452909152902080548414614f2457600080fd5b600581015460ff1615614f3657600080fd5b6005810180547fffffffffffffffffffffffffffffffffffffffffffffffffffffffffffffff00166001179055600281015433600090815260416020526040902054614f8191615afe565b336000908152604160209081526040808320939093556003860154825260259052908120601954909190614fb69042906159ba565b90506000614fdc6001611f5b601954611bc5601c54601b54615a0590919063ffffffff16565b6001840154909150614fee9082615a05565b821015614ffa57600080fd5b600260038087015460ff1690811115615015576150156177b9565b036150a3576001600386810154610100900460ff169081111561503a5761503a6177b9565b03615071576003850180547fffffffffffffffffffffffffffffffffffffffffffffffffffffffffffffff0016600117905561509c565b6003850180547fffffffffffffffffffffffffffffffffffffffffffffffffffffffffffffff001690555b4260028601555b600385015462010000900460ff1661577b57600184015460009060ff16156150c9575060015b60038087015460ff16908111156150e2576150e26177b9565b8160038111156150f4576150f46177b9565b1461556e576000856002015490506000615129612710611bc58a60050154611fce602154601a546159d990919063ffffffff16565b6001880154909150610100900460ff161561514f5760225461514c9082906159d9565b90505b6123288860050154111561532157600061517c6064611bc560038b600201546159d990919063ffffffff16565b90506126ac896005015411156151ac576151a96064611bc560078b600201546159d990919063ffffffff16565b90505b6001880154610100900460ff16156151c5575060028701545b875460405133917f53ef86fe8b545e88c8078a71aa8a9be4140e6f140b4e36f0ffee9207cf1ee8969161520091858252602082015260400190565b60405180910390a26008546152159082615a05565b60085560028801546152279082615afe565b925060015b336000908152603f6020526040902054811161531e57336000908152603e602090815260408083208484529091529020548210156152d457336000908152603e602090815260408083208484529091529020546152899083615afe565b336000818152603e602090815260408083208684528252808320949094559181529082905220546152ba9083615afe565b33600090815260406020819052812091909155915061531e565b336000908152603e602090815260408083208484529091529020546152fa908390615afe565b91506153063382615b17565b811561531e578061531681617efe565b91505061522c565b50505b8115615567578654604080518481526020810192909252810182905233907fd93567a4d470fa277429086aae141410cccc35c73954734ea3e24152fc044f359060600160405180910390a260015b336000908152603f6020526040902054811161556557336000908152603e60209081526040808320848452909152902054831061547257336000908152603e6020908152604080832084845290915290206001015442101561541657336000908152603e602090815260408083208484529091529020600101546153f39083615a05565b336000908152603e6020908152604080832085845290915290206001015561543f565b6154204283615a05565b336000908152603e602090815260408083208584529091529020600101555b336000908152603e60209081526040808320848452909152902054615465908490615afe565b9250821561556557615553565b336000908152603e602090815260408083208484529091528120546154979085615afe565b336000908152603e6020908152604080832086845290915290206001810154908690559091504281111561551057336000908152603e602090815260408083208684529091529020600101546154ed9085615a05565b336000908152603e60209081526040808320878452909152902060010155615539565b61551a4285615a05565b336000908152603e602090815260408083208784529091529020600101555b811561554c5761554a338383615c56565b505b5050615565565b8061555d81617efe565b91505061536f565b505b5050615779565b60008085600201541161558057600080fd5b6001860154610100900460ff16615620573360009081526042602090815260408083208c8452909152902054156155f757600285015460048601543360009081526042602090815260408083208e84529091529020546155f0926155e9929091611bc5916159d9565b8290615a05565b9050615620565b61561d6155e98660020154611bc588600401548a600201546159d990919063ffffffff16565b90505b6001860154610100900460ff1680156156515750600160038089015460ff169081111561564f5761564f6177b9565b145b1561569057600085600301541161566757600080fd5b61568d6155e98660030154611bc588600501548b600901546159d990919063ffffffff16565b90505b600585015460048601546156a391615a05565b8111156156af57600080fd5b306000908152600960205260409020546156c99082615afe565b306000908152600960205260408082209290925533815220546156ec9082615a05565b336000818152600960205260409081902092909255905130907fddf252ad1be2c89b69c2b068fc378daa952ba7f163c4a11628f55a4df523b3ef906157349085815260200190565b60405180910390a360408051828152602081018b905233917fe413caa6d70a6d9b51c2af2575a2914490f614355049af8ae7cde5caab9fd201910160405180910390a2505b505b3360009081526042602090815260408083208a8452909152902054156157b7573360009081526042602090815260408083208a84529091528120555b600385015462010000900460ff16156158005760405187815233907f3e0648214287dbba314854c056353ff9db951ab8f6459ea7c7f922025ba9fdfe9060200160405180910390a25b50505050505050565b60606000615818600143617eeb565b6018546012546040805193406020850152830191909152606082015260800160405160208183030381529060405280519060200120905060008160014361585f9190617eeb565b604080516020810193909352904090820152336060820152608001604080517fffffffffffffffffffffffffffffffffffffffffffffffffffffffffffffffe08184030181528282528051602091820120600d54918401819052918301529150600090606001604080518083037fffffffffffffffffffffffffffffffffffffffffffffffffffffffffffffffe00181528282528051602091820120604a8790559083018690529082018490527fffffffffffffffffffffffffffffffff00000000000000000000000000000000811660608301529150607001604051602081830303815290604052935050505090565b60185460125460405160609261596b92604892602001617fb7565b604080517fffffffffffffffffffffffffffffffffffffffffffffffffffffffffffffffe081840301815282825280516020918201209083015201604051602081830303815290604052905090565b60008082116159c857600080fd5b6159d2828461806e565b9392505050565b60006159e58284617bb2565b90508215806159fc5750816159fa848361806e565b145b611e0657600080fd5b6000615a118284618082565b905082811015611e0657600080fd5b600d54615a2e906001615a05565b600d819055600e54615a3f91617fa3565b600003615a4e57615a4e6160ee565b604954600d54615a5e9190617fa3565b600003615a7c57615a6d615950565b604890615a7a9082617c6c565b505b615a87436001615afe565b406012819055601854600d546040805160208101949094528301919091526060820152608001604080517fffffffffffffffffffffffffffffffffffffffffffffffffffffffffffffffe08184030181529190528051602090910120601255615aee615809565b604790615afb9082617c6c565b50565b600082821115615b0d57600080fd5b6159d28284617eeb565b600081118015615b4c575073ffffffffffffffffffffffffffffffffffffffff82166000908152603f60205260409020548111155b615b5557600080fd5b73ffffffffffffffffffffffffffffffffffffffff82166000818152603e6020908152604080832085845282528083205493835290819052902054615b9991615afe565b73ffffffffffffffffffffffffffffffffffffffff831660008181526040602081815281832094909455603e8452808220603f808652828420805485528287528385208886528486208154815560019182015490820155845180860186528681528089018781528354885294895294862094518555925193830193909355939092529190925254615c2991615afe565b73ffffffffffffffffffffffffffffffffffffffff9092166000908152603f602052604090209190915550565b6000808311615c6457600080fd5b73ffffffffffffffffffffffffffffffffffffffff84166000908152603f6020526040902054615c95906001615a05565b73ffffffffffffffffffffffffffffffffffffffff949094166000818152603f6020908152604080832088905580518082018252968752868201958652928252603e8152828220968252959095529093209151825551600191820155919050565b6000615d0d601954426159ba90919063ffffffff16565b6000818152602960205260409020549091508015615d2a57600080fd5b602654615d38906001615a05565b6026818155604080516101008101825283815260208082018781526000838501818152606085018281526080860183815260a0870184815260c0880185815260e089018681529b8652602588528986209851895595516001808a0191909155935160028901559151600388015551600487015551600586015591516006850155955160079093019290925592548685526029909352922055602a54615ddc91615a05565b602a55602654615deb906162a6565b50602054602654615dfd906001615afe565b615e079190617fa3565b158015615e1657506001602654115b15615e2357615e23616507565b6026546040518381527ff74223d764da704d974281758065d2eb6c9066dc940e3f549b72e894b0404aef90602001612cf2565b6000808311615e6457600080fd5b73ffffffffffffffffffffffffffffffffffffffff84166000908152603f6020526040902054615e95906001615a05565b73ffffffffffffffffffffffffffffffffffffffff85166000908152603f60209081526040808320939093558290522054615ed09084615a05565b73ffffffffffffffffffffffffffffffffffffffff85166000818152604060208181528183209490945580518082018252878152808501878152848452603e8652828420603f87528385205485529095529181902091518255925160019091015590517f42e99fbad9601d25ee3bb515eeee966f97c3c383adadbe5720f651df8c18989d90615f629086815260200190565b60405180910390a25060019392505050565b60008282818303615f9f578015615f8c576000615f96565b670de0b6b3a76400005b92505050611e06565b670de0b6b3a76400008203615fc057670de0b6b3a764000092505050611e06565b80600003615fda57670de0b6b3a764000092505050611e06565b670de0b6b3a76400008103615ff3578492505050611e06565b670de0b6b3a76400008211156160245761601d61601861601287616684565b866167ea565b6167f9565b925061607e565b6000616042613a2f846ec097ce7bc90715b34b9f100000000061806e565b9050600061605b61601861605584616684565b886167ea565b9050616079613a2f826ec097ce7bc90715b34b9f100000000061806e565b945050505b505092915050565b6160908282616870565b5073ffffffffffffffffffffffffffffffffffffffff82166000908152603d60205260409020546160c19082615a05565b73ffffffffffffffffffffffffffffffffffffffff9092166000908152603d602052604090209190915550565b601154600c54600090616102904290615afe565b9050600061611d610258600e546159d990919063ffffffff16565b9050808210156161bf57600061613983611bc5846103e86159d9565b9050610fa081111561614a5750610fa05b601054616159906103e86159ba565b60115410156161855761617d81611bc56103e86011546159d990919063ffffffff16565b601155616196565b60105461619290826159ba565b6011555b6161a18460046159ba565b60115410156161b9576161b58460046159ba565b6011555b50616277565b60006161d182611bc5856103e86159d9565b9050610fa08111156161e25750610fa05b6010546161ef90826159ba565b6011541161621a576162126103e8611bc5836011546159d990919063ffffffff16565b601155616221565b6010546011555b61624c7fffffffffffffffffffffffffffffffffffffffffffffffffffffffffffffffff60046159ba565b84116162755761625d8460046159d9565b6011541115616275576162718460046159d9565b6011555b505b42600c55600f54601154101561628e57600f546011555b60105460115411156162a1576010546011555b505050565b600080602654116162b657600080fd5b6000821180156162c857506026548211155b6162d157600080fd5b600082815260256020526040812080549091036162ed57600080fd5b8054600090815260276020526040902054801561630957600080fd5b6000600254600a61631a9190617ba6565b61632790621cd6d0617bb2565b6017541161633f575068da5351938e7eb5b95c61644e565b60025461634d90600a617ba6565b61635a9062166e30617bb2565b604e54101561637457506901b4a6a3271cfd6b72b861644e565b60025461638290600a617ba6565b61638f906226e8f0617bb2565b604e5410156163a95750690118b444500059c512e461644e565b6002546163b790600a617ba6565b6163c490622f2650617bb2565b604e5410156163dd5750688c5a2228002ce289a461644e565b6002546163eb90600a617ba6565b6163f89062334500617bb2565b604e541015616411575068462d111400167144a061644e565b600354600090616423906127106159d9565b905060006164328260646159ba565b90506164496207f4d5611bc560648185605f6159d9565b925050505b6005819055604e546164609082615a05565b604e5560065461647c9064174876e80090611bc59084906159d9565b600484015560075461649a9064174876e80090611bc59084906159d9565b60058401556003546164ac9082615a05565b600355306000908152600960205260409020546164c99082615a05565b306000908152600960209081526040808320939093558554825260279052208190556028546164f9906001615a05565b602855506001949350505050565b600080600080616524602054602654615afe90919063ffffffff16565b90505b602654616535906001615afe565b811161658c57600081815260256020526040902060060154616558908490615a05565b600082815260256020526040902060070154909350616578908390615a05565b91508061658481617efe565b915050616527565b506165978282615a05565b6000036165a85761138892506165c4565b6165c16165b58383615a05565b611bc5846127106159d9565b92505b602354831015616616576023546000906165de9085615afe565b905061660d616604612710611bc584611fce611194601f54615afe90919063ffffffff16565b601f5490615afe565b601f555061665a565b600061662d60235485615afe90919063ffffffff16565b905061665561664c612710611bc584601f54612710611fce9190617eeb565b601f5490615a05565b601f55505b611194601f54101561666d57611194601f555b6126ac601f5411156162a1576126ac601f55505050565b600081670de0b6b3a76400008110156166cc576040517f36d32ef0000000000000000000000000000000000000000000000000000000008152600481018490526024016118ac565b6000616758670de0b6b3a7640000830460016fffffffffffffffffffffffffffffffff821160071b91821c67ffffffffffffffff811160061b90811c63ffffffff811160051b90811c61ffff811160041b90811c60ff8111600390811b91821c600f811160021b90811c918211871b91821c969096119490961792909217171791909117919091171790565b9050670de0b6b3a7640000810282821c7ffffffffffffffffffffffffffffffffffffffffffffffffff21f494c589c0000810161679b57815b9695505050505050565b671bc16d674ec800006706f05b59d3b200005b80156167de57670de0b6b3a76400008380020492508183106167d6579283019260019290921c915b60011c6167ae565b50919695505050505050565b60006159d2613a2f84846169b4565b600081680a688906bd8affffff811115616842576040517fb3b6ba1f000000000000000000000000000000000000000000000000000000008152600481018490526024016118ac565b600061685a670de0b6b3a7640000604084901b61806e565b9050616868613a2f82616abb565b949350505050565b600080821161687e57600080fd5b73ffffffffffffffffffffffffffffffffffffffff83166000908152603f60205260409020546168af906001615a05565b73ffffffffffffffffffffffffffffffffffffffff84166000908152603f602090815260408083209390935582905220546168ea9083615a05565b73ffffffffffffffffffffffffffffffffffffffff8416600090815260406020819052812091909155601a54616921904290615a05565b604080518082018252858152602080820184815273ffffffffffffffffffffffffffffffffffffffff89166000818152603e8452858120603f855286822054825284528590209351845590516001909301929092559151868152929350917f42e99fbad9601d25ee3bb515eeee966f97c3c383adadbe5720f651df8c18989d910160405180910390a25060019392505050565b600080807fffffffffffffffffffffffffffffffffffffffffffffffffffffffffffffffff84860984860292508281108382030391505080600003616a065750670de0b6b3a764000090049050611e06565b670de0b6b3a76400008110616a51576040517f5173648d00000000000000000000000000000000000000000000000000000000815260048101869052602481018590526044016118ac565b6000670de0b6b3a7640000858709620400008185030493109091037d40000000000000000000000000000000000000000000000000000000000002919091177faccb18165bd6fe31ae1cf318dc5b51eee0e1ba569b88cd74c1773b91fac106690291505092915050565b7780000000000000000000000000000000000000000000000067ff00000000000000821615616bdc57678000000000000000821615616b035768016a09e667f3bcc9090260401c5b674000000000000000821615616b22576801306fe0a31b7152df0260401c5b672000000000000000821615616b41576801172b83c7d517adce0260401c5b671000000000000000821615616b605768010b5586cf9890f62a0260401c5b670800000000000000821615616b7f576801059b0d31585743ae0260401c5b670400000000000000821615616b9e57680102c9a3e778060ee70260401c5b670200000000000000821615616bbd5768010163da9fb33356d80260401c5b670100000000000000821615616bdc57680100b1afa5abcbed610260401c5b66ff000000000000821615616cdb576680000000000000821615616c095768010058c86da1c09ea20260401c5b6640000000000000821615616c27576801002c605e2e8cec500260401c5b6620000000000000821615616c4557680100162f3904051fa10260401c5b6610000000000000821615616c63576801000b175effdc76ba0260401c5b6608000000000000821615616c8157680100058ba01fb9f96d0260401c5b6604000000000000821615616c9f5768010002c5cc37da94920260401c5b6602000000000000821615616cbd576801000162e525ee05470260401c5b6601000000000000821615616cdb5768010000b17255775c040260401c5b65ff0000000000821615616dd15765800000000000821615616d06576801000058b91b5bc9ae0260401c5b65400000000000821615616d2357680100002c5c89d5ec6d0260401c5b65200000000000821615616d405768010000162e43f4f8310260401c5b65100000000000821615616d5d57680100000b1721bcfc9a0260401c5b65080000000000821615616d7a5768010000058b90cf1e6e0260401c5b65040000000000821615616d97576801000002c5c863b73f0260401c5b65020000000000821615616db457680100000162e430e5a20260401c5b65010000000000821615616dd1576801000000b1721835510260401c5b64ff00000000821615616ebe57648000000000821615616dfa57680100000058b90c0b490260401c5b644000000000821615616e165768010000002c5c8601cc0260401c5b642000000000821615616e32576801000000162e42fff00260401c5b641000000000821615616e4e5768010000000b17217fbb0260401c5b640800000000821615616e6a576801000000058b90bfce0260401c5b640400000000821615616e8657680100000002c5c85fe30260401c5b640200000000821615616ea25768010000000162e42ff10260401c5b640100000000821615616ebe57680100000000b17217f80260401c5b63ff000000821615616fa2576380000000821615616ee55768010000000058b90bfc0260401c5b6340000000821615616f00576801000000002c5c85fe0260401c5b6320000000821615616f1b57680100000000162e42ff0260401c5b6310000000821615616f36576801000000000b17217f0260401c5b6308000000821615616f5157680100000000058b90c00260401c5b6304000000821615616f6c5768010000000002c5c8600260401c5b6302000000821615616f87576801000000000162e4300260401c5b6301000000821615616fa25768010000000000b172180260401c5b62ff000082161561707d5762800000821615616fc7576801000000000058b90c0260401c5b62400000821615616fe157680100000000002c5c860260401c5b62200000821615616ffb5768010000000000162e430260401c5b6210000082161561701557680100000000000b17210260401c5b6208000082161561702f5768010000000000058b910260401c5b62040000821615617049576801000000000002c5c80260401c5b6202000082161561706357680100000000000162e40260401c5b6201000082161561707d576801000000000000b1720260401c5b61ff0082161561714f576180008216156170a057680100000000000058b90260401c5b6140008216156170b95768010000000000002c5d0260401c5b6120008216156170d2576801000000000000162e0260401c5b6110008216156170eb5768010000000000000b170260401c5b610800821615617104576801000000000000058c0260401c5b61040082161561711d57680100000000000002c60260401c5b61020082161561713657680100000000000001630260401c5b61010082161561714f57680100000000000000b10260401c5b60ff82161561721857608082161561717057680100000000000000590260401c5b6040821615617188576801000000000000002c0260401c5b60208216156171a057680100000000000000160260401c5b60108216156171b8576801000000000000000b0260401c5b60088216156171d057680100000000000000060260401c5b60048216156171e857680100000000000000030260401c5b600282161561720057680100000000000000010260401c5b600182161561721857680100000000000000010260401c5b670de0b6b3a76400000260409190911c60bf031c90565b7f4e487b7100000000000000000000000000000000000000000000000000000000600052604160045260246000fd5b600082601f83011261726f57600080fd5b813567ffffffffffffffff8082111561728a5761728a61722f565b604051601f83017fffffffffffffffffffffffffffffffffffffffffffffffffffffffffffffffe0908116603f011681019082821181831017156172d0576172d061722f565b816040528381528660208588010111156172e957600080fd5b836020870160208301376000602085830101528094505050505092915050565b80357fffffffffffffffff0000000000000000000000000000000000000000000000008116811461733957600080fd5b919050565b600080600080600080600060e0888a03121561735957600080fd5b87357fffffffff000000000000000000000000000000000000000000000000000000008116811461738957600080fd5b9650602088013567ffffffffffffffff808211156173a657600080fd5b6173b28b838c0161725e565b975060408a0135965060608a01359150808211156173cf57600080fd5b6173db8b838c0161725e565b955060808a0135945060a08a01359150808211156173f857600080fd5b506174058a828b0161725e565b92505061741460c08901617309565b905092959891949750929550565b60005b8381101561743d578181015183820152602001617425565b50506000910152565b6000815180845261745e816020860160208601617422565b601f017fffffffffffffffffffffffffffffffffffffffffffffffffffffffffffffffe0169290920160200192915050565b6020815260006159d26020830184617446565b803573ffffffffffffffffffffffffffffffffffffffff8116811461733957600080fd5b600080604083850312156174da57600080fd5b6174e3836174a3565b946020939093013593505050565b60008060006060848603121561750657600080fd5b833592506020840135801515811461751d57600080fd5b9150604084013567ffffffffffffffff81111561753957600080fd5b6175458682870161725e565b9150509250925092565b60006020828403121561756157600080fd5b5035919050565b60006020828403121561757a57600080fd5b6159d2826174a3565b6000806040838503121561759657600080fd5b50508035926020909101359150565b60008060008060008060c087890312156175be57600080fd5b86359550602087013567ffffffffffffffff808211156175dd57600080fd5b6175e98a838b0161725e565b965060408901359150808211156175ff57600080fd5b61760b8a838b0161725e565b9550606089013591508082111561762157600080fd5b61762d8a838b0161725e565b9450608089013591508082111561764357600080fd5b5061765089828a0161725e565b92505060a087013590509295509295509295565b60008060006060848603121561767957600080fd5b617682846174a3565b9250617690602085016174a3565b9150604084013590509250925092565b60006101408c83528b60208401528a604084015289606084015288608084015273ffffffffffffffffffffffffffffffffffffffff881660a08401528060c08401526176ee81840188617446565b905082810360e08401526177028187617446565b90508281036101008401526177178186617446565b905082810361012084015261772c8185617446565b9d9c50505050505050505050505050565b60008060006060848603121561775257600080fd5b83359250602084013567ffffffffffffffff8082111561777157600080fd5b61777d8783880161725e565b9350604086013591508082111561779357600080fd5b506175458682870161725e565b8281526040602082015260006168686040830184617446565b7f4e487b7100000000000000000000000000000000000000000000000000000000600052602160045260246000fd5b6004811061781f577f4e487b7100000000000000000000000000000000000000000000000000000000600052602160045260246000fd5b9052565b8d8152602081018d9052604081018c90526101a08101617846606083018d6177e8565b617853608083018c6177e8565b98151560a082015260c081019790975260e08701959095526101008601939093526101208501919091526101408401526101608301526101809091015295945050505050565b6000806000606084860312156178ae57600080fd5b505081359360208301359350604090920135919050565b85815284602082015283604082015260a0606082015260006178ea60a0830185617446565b82810360808401526178fc8185617446565b98975050505050505050565b60006020828403121561791a57600080fd5b813567ffffffffffffffff81111561793157600080fd5b6168688482850161725e565b6000806000806080858703121561795357600080fd5b5050823594602084013594506040840135936060013592509050565b6000806040838503121561798257600080fd5b82359150617992602084016174a3565b90509250929050565b600080600080608085870312156179b157600080fd5b843567ffffffffffffffff808211156179c957600080fd5b6179d58883890161725e565b9550602087013594506040870135935060608701359150808211156179f957600080fd5b50617a068782880161725e565b91505092959194509250565b82151581526040602082015260006168686040830184617446565b60008060408385031215617a4057600080fd5b617a49836174a3565b9150617992602084016174a3565b7f4e487b7100000000000000000000000000000000000000000000000000000000600052601160045260246000fd5b600181815b80851115617adf57817fffffffffffffffffffffffffffffffffffffffffffffffffffffffffffffffff04821115617ac557617ac5617a57565b80851615617ad257918102915b93841c9390800290617a8b565b509250929050565b600082617af657506001611e06565b81617b0357506000611e06565b8160018114617b195760028114617b2357617b3f565b6001915050611e06565b60ff841115617b3457617b34617a57565b50506001821b611e06565b5060208310610133831016604e8410600b8410161715617b62575081810a611e06565b617b6c8383617a86565b807fffffffffffffffffffffffffffffffffffffffffffffffffffffffffffffffff04821115617b9e57617b9e617a57565b029392505050565b60006159d28383617ae7565b8082028115828204841417611e0657611e06617a57565b600181811c90821680617bdd57607f821691505b602082108103617c16577f4e487b7100000000000000000000000000000000000000000000000000000000600052602260045260246000fd5b50919050565b601f8211156162a1576000816000526020600020601f850160051c81016020861015617c455750805b601f850160051c820191505b81811015617c6457828155600101617c51565b505050505050565b815167ffffffffffffffff811115617c8657617c8661722f565b617c9a81617c948454617bc9565b84617c1c565b602080601f831160018114617ced5760008415617cb75750858301515b7fffffffffffffffffffffffffffffffffffffffffffffffffffffffffffffffff600386901b1c1916600185901b178555617c64565b6000858152602081207fffffffffffffffffffffffffffffffffffffffffffffffffffffffffffffffe08616915b82811015617d3a57888601518255948401946001909101908401617d1b565b5085821015617d7657878501517fffffffffffffffffffffffffffffffffffffffffffffffffffffffffffffffff600388901b60f8161c191681555b5050505050600190811b01905550565b6000808354617d9481617bc9565b60018281168015617dac5760018114617ddf57617e0e565b7fffffffffffffffffffffffffffffffffffffffffffffffffffffffffffffff0084168752821515830287019450617e0e565b8760005260208060002060005b85811015617e055781548a820152908401908201617dec565b50505082870194505b50929695505050505050565b7fffffffff000000000000000000000000000000000000000000000000000000008516815283600482015260008351617e5a816024850160208801617422565b835190830190617e71816024840160208801617422565b016024019695505050505050565b7f4e487b7100000000000000000000000000000000000000000000000000000000600052600160045260246000fd5b848152831515602082015273ffffffffffffffffffffffffffffffffffffffff831660408201526080606082015260006167916080830184617446565b81810381811115611e0657611e06617a57565b60007fffffffffffffffffffffffffffffffffffffffffffffffffffffffffffffffff8203617f2f57617f2f617a57565b5060010190565b604081526000617f496040830185617446565b90508260208301529392505050565b60008251617f6a818460208701617422565b9190910192915050565b7f4e487b7100000000000000000000000000000000000000000000000000000000600052601260045260246000fd5b600082617fb257617fb2617f74565b500690565b606081526000808554617fc981617bc9565b8060608601526080600180841660008114617feb576001811461802557618057565b7fffffffffffffffffffffffffffffffffffffffffffffffffffffffffffffff0085166080890152608084151560051b8901019550618057565b8a60005260208060002060005b8681101561804d5781548b8201870152908401908201618032565b8a01608001975050505b505050505060208301949094525060400152919050565b60008261807d5761807d617f74565b500490565b80820180821115611e0657611e06617a5756fe5468697320736d61727420636f6e74726163742069732072756e6e696e67207468652041656769732048617264666f726b2c2045746963612076352e20446973636f766572696e67206f7572206265737420467574757265732e204e6f20496e74656c6c65637475616c2050726f70657274792c20416c6c2070726f706f73616c7320617265206d61646520756e64657220746865206c6963656e736520437265617469766520436f6d6d6f6e73204174747269627574696f6e20342e3020496e7465726e6174696f6e616c2028434320425920342e30292ea2646970667358221220938fc31cc3198811402b3874316a62b3423e7b26fa49f8b6b847f242bdc5fb5064736f6c63430008160033",
  "linkReferences": {},
  "deployedLinkReferences": {}
}