{
  "_format": "hh-sol-artifact-1",
  "contractName": "EticaRelease",
  "sourceName": "contracts/EticaRelease.sol",
  "abi": [
    {
      "inputs": [
        {
          "internalType": "uint256",
          "name": "x",
          "type": "uint256"
        },
        {
          "internalType": "uint256",
          "name": "y",
          "type": "uint256"
        }
      ],
      "name": "PRBMath_MulDiv18_Overflow",
      "type": "error"
    },
    {
      "inputs": [
        {
          "internalType": "UD60x18",
          "name": "x",
          "type": "uint256"
        }
      ],
      "name": "PRBMath_UD60x18_Exp2_InputTooBig",
      "type": "error"
    },
    {
      "inputs": [
        {
          "internalType": "UD60x18",
          "name": "x",
          "type": "uint256"
        }
      ],
      "name": "PRBMath_UD60x18_Log_InputTooSmall",
      "type": "error"
    },
    {
      "anonymous": false,
      "inputs": [
        {
          "indexed": true,
          "internalType": "address",
          "name": "tokenOwner",
          "type": "address"
        },
        {
          "indexed": true,
          "internalType": "address",
          "name": "spender",
          "type": "address"
        },
        {
          "indexed": false,
          "internalType": "uint256",
          "name": "tokens",
          "type": "uint256"
        }
      ],
      "name": "Approval",
      "type": "event"
    },
    {
      "anonymous": false,
      "inputs": [
        {
          "indexed": true,
          "internalType": "uint256",
          "name": "period_id",
          "type": "uint256"
        },
        {
          "indexed": false,
          "internalType": "uint256",
          "name": "interval",
          "type": "uint256"
        }
      ],
      "name": "CreatedPeriod",
      "type": "event"
    },
    {
      "anonymous": false,
      "inputs": [
        {
          "indexed": true,
          "internalType": "address",
          "name": "from",
          "type": "address"
        },
        {
          "indexed": false,
          "internalType": "uint256",
          "name": "blockreward",
          "type": "uint256"
        },
        {
          "indexed": false,
          "internalType": "uint256",
          "name": "epochCount",
          "type": "uint256"
        },
        {
          "indexed": false,
          "internalType": "bytes32",
          "name": "newChallengeNumber",
          "type": "bytes32"
        }
      ],
      "name": "Mint",
      "type": "event"
    },
    {
      "anonymous": false,
      "inputs": [
        {
          "indexed": true,
          "internalType": "uint256",
          "name": "chunkid",
          "type": "uint256"
        },
        {
          "indexed": true,
          "internalType": "bytes32",
          "name": "diseasehash",
          "type": "bytes32"
        }
      ],
      "name": "NewChunk",
      "type": "event"
    },
    {
      "anonymous": false,
      "inputs": [
        {
          "indexed": true,
          "internalType": "address",
          "name": "_voter",
          "type": "address"
        },
        {
          "indexed": false,
          "internalType": "bytes32",
          "name": "votehash",
          "type": "bytes32"
        },
        {
          "indexed": false,
          "internalType": "uint256",
          "name": "amount",
          "type": "uint256"
        }
      ],
      "name": "NewCommit",
      "type": "event"
    },
    {
      "anonymous": false,
      "inputs": [
        {
          "indexed": true,
          "internalType": "uint256",
          "name": "diseaseindex",
          "type": "uint256"
        },
        {
          "indexed": false,
          "internalType": "string",
          "name": "title",
          "type": "string"
        }
      ],
      "name": "NewDisease",
      "type": "event"
    },
    {
      "anonymous": false,
      "inputs": [
        {
          "indexed": true,
          "internalType": "address",
          "name": "voter",
          "type": "address"
        },
        {
          "indexed": false,
          "internalType": "uint256",
          "name": "fee",
          "type": "uint256"
        },
        {
          "indexed": false,
          "internalType": "bytes32",
          "name": "proposal_hash",
          "type": "bytes32"
        }
      ],
      "name": "NewFee",
      "type": "event"
    },
    {
      "anonymous": false,
      "inputs": [
        {
          "indexed": false,
          "internalType": "bytes32",
          "name": "proposed_release_hash",
          "type": "bytes32"
        },
        {
          "indexed": true,
          "internalType": "address",
          "name": "_proposer",
          "type": "address"
        },
        {
          "indexed": true,
          "internalType": "bytes32",
          "name": "diseasehash",
          "type": "bytes32"
        },
        {
          "indexed": true,
          "internalType": "uint256",
          "name": "chunkid",
          "type": "uint256"
        }
      ],
      "name": "NewProposal",
      "type": "event"
    },
    {
      "anonymous": false,
      "inputs": [
        {
          "indexed": true,
          "internalType": "address",
          "name": "_voter",
          "type": "address"
        },
        {
          "indexed": true,
          "internalType": "bytes32",
          "name": "_proposal",
          "type": "bytes32"
        },
        {
          "indexed": false,
          "internalType": "uint256",
          "name": "amount",
          "type": "uint256"
        }
      ],
      "name": "NewRecover",
      "type": "event"
    },
    {
      "anonymous": false,
      "inputs": [
        {
          "indexed": true,
          "internalType": "address",
          "name": "_voter",
          "type": "address"
        },
        {
          "indexed": true,
          "internalType": "bytes32",
          "name": "_proposal",
          "type": "bytes32"
        },
        {
          "indexed": false,
          "internalType": "uint256",
          "name": "amount",
          "type": "uint256"
        }
      ],
      "name": "NewReveal",
      "type": "event"
    },
    {
      "anonymous": false,
      "inputs": [
        {
          "indexed": true,
          "internalType": "address",
          "name": "voter",
          "type": "address"
        },
        {
          "indexed": false,
          "internalType": "uint256",
          "name": "amount",
          "type": "uint256"
        },
        {
          "indexed": false,
          "internalType": "bytes32",
          "name": "proposal_hash",
          "type": "bytes32"
        },
        {
          "indexed": false,
          "internalType": "uint256",
          "name": "duration",
          "type": "uint256"
        }
      ],
      "name": "NewSlash",
      "type": "event"
    },
    {
      "anonymous": false,
      "inputs": [
        {
          "indexed": true,
          "internalType": "address",
          "name": "staker",
          "type": "address"
        },
        {
          "indexed": false,
          "internalType": "uint256",
          "name": "amount",
          "type": "uint256"
        }
      ],
      "name": "NewStake",
      "type": "event"
    },
    {
      "anonymous": false,
      "inputs": [
        {
          "indexed": true,
          "internalType": "address",
          "name": "staker",
          "type": "address"
        },
        {
          "indexed": false,
          "internalType": "uint256",
          "name": "endtime",
          "type": "uint256"
        },
        {
          "indexed": false,
          "internalType": "uint256",
          "name": "minlimit",
          "type": "uint256"
        }
      ],
      "name": "NewStakescsldt",
      "type": "event"
    },
    {
      "anonymous": false,
      "inputs": [
        {
          "indexed": true,
          "internalType": "address",
          "name": "staker",
          "type": "address"
        },
        {
          "indexed": false,
          "internalType": "uint256",
          "name": "snapamount",
          "type": "uint256"
        }
      ],
      "name": "NewStakesnap",
      "type": "event"
    },
    {
      "anonymous": false,
      "inputs": [
        {
          "indexed": true,
          "internalType": "address",
          "name": "voter",
          "type": "address"
        },
        {
          "indexed": false,
          "internalType": "uint256",
          "name": "amount",
          "type": "uint256"
        },
        {
          "indexed": false,
          "internalType": "bytes32",
          "name": "proposal_hash",
          "type": "bytes32"
        }
      ],
      "name": "RewardClaimed",
      "type": "event"
    },
    {
      "anonymous": false,
      "inputs": [
        {
          "indexed": true,
          "internalType": "address",
          "name": "staker",
          "type": "address"
        },
        {
          "indexed": false,
          "internalType": "uint256",
          "name": "stakeamount",
          "type": "uint256"
        }
      ],
      "name": "StakeClaimed",
      "type": "event"
    },
    {
      "anonymous": false,
      "inputs": [
        {
          "indexed": true,
          "internalType": "address",
          "name": "voter",
          "type": "address"
        },
        {
          "indexed": false,
          "internalType": "bytes32",
          "name": "proposal_hash",
          "type": "bytes32"
        }
      ],
      "name": "TieClaimed",
      "type": "event"
    },
    {
      "anonymous": false,
      "inputs": [
        {
          "indexed": true,
          "internalType": "address",
          "name": "from",
          "type": "address"
        },
        {
          "indexed": true,
          "internalType": "address",
          "name": "to",
          "type": "address"
        },
        {
          "indexed": false,
          "internalType": "uint256",
          "name": "tokens",
          "type": "uint256"
        }
      ],
      "name": "Transfer",
      "type": "event"
    },
    {
      "inputs": [],
      "name": "APPROVAL_THRESHOLD",
      "outputs": [
        {
          "internalType": "uint256",
          "name": "",
          "type": "uint256"
        }
      ],
      "stateMutability": "view",
      "type": "function"
    },
    {
      "inputs": [],
      "name": "DEFAULT_EXTRA_TIME",
      "outputs": [
        {
          "internalType": "uint256",
          "name": "",
          "type": "uint256"
        }
      ],
      "stateMutability": "view",
      "type": "function"
    },
    {
      "inputs": [],
      "name": "DEFAULT_REVEALING_TIME",
      "outputs": [
        {
          "internalType": "uint256",
          "name": "",
          "type": "uint256"
        }
      ],
      "stateMutability": "view",
      "type": "function"
    },
    {
      "inputs": [],
      "name": "DEFAULT_VOTING_TIME",
      "outputs": [
        {
          "internalType": "uint256",
          "name": "",
          "type": "uint256"
        }
      ],
      "stateMutability": "view",
      "type": "function"
    },
    {
      "inputs": [],
      "name": "DISEASE_CREATION_AMOUNT",
      "outputs": [
        {
          "internalType": "uint256",
          "name": "",
          "type": "uint256"
        }
      ],
      "stateMutability": "view",
      "type": "function"
    },
    {
      "inputs": [
        {
          "internalType": "uint256",
          "name": "",
          "type": "uint256"
        }
      ],
      "name": "IntervalsPeriods",
      "outputs": [
        {
          "internalType": "uint256",
          "name": "",
          "type": "uint256"
        }
      ],
      "stateMutability": "view",
      "type": "function"
    },
    {
      "inputs": [],
      "name": "IntervalsPeriodsCounter",
      "outputs": [
        {
          "internalType": "uint256",
          "name": "",
          "type": "uint256"
        }
      ],
      "stateMutability": "view",
      "type": "function"
    },
    {
      "inputs": [],
      "name": "LAST_PERIOD_COST_UPDATE",
      "outputs": [
        {
          "internalType": "uint256",
          "name": "",
          "type": "uint256"
        }
      ],
      "stateMutability": "view",
      "type": "function"
    },
    {
      "inputs": [],
      "name": "PERIODS_PER_THRESHOLD",
      "outputs": [
        {
          "internalType": "uint256",
          "name": "",
          "type": "uint256"
        }
      ],
      "stateMutability": "view",
      "type": "function"
    },
    {
      "inputs": [],
      "name": "PERIOD_CURATION_REWARD_RATIO",
      "outputs": [
        {
          "internalType": "uint256",
          "name": "",
          "type": "uint256"
        }
      ],
      "stateMutability": "view",
      "type": "function"
    },
    {
      "inputs": [],
      "name": "PERIOD_EDITOR_REWARD_RATIO",
      "outputs": [
        {
          "internalType": "uint256",
          "name": "",
          "type": "uint256"
        }
      ],
      "stateMutability": "view",
      "type": "function"
    },
    {
      "inputs": [],
      "name": "PROPOSAL_DEFAULT_VOTE",
      "outputs": [
        {
          "internalType": "uint256",
          "name": "",
          "type": "uint256"
        }
      ],
      "stateMutability": "view",
      "type": "function"
    },
    {
      "inputs": [],
      "name": "PROPOSERS_INCREASER",
      "outputs": [
        {
          "internalType": "uint256",
          "name": "",
          "type": "uint256"
        }
      ],
      "stateMutability": "view",
      "type": "function"
    },
    {
      "inputs": [],
      "name": "PROTOCOL_RATIO_TARGET",
      "outputs": [
        {
          "internalType": "uint256",
          "name": "",
          "type": "uint256"
        }
      ],
      "stateMutability": "view",
      "type": "function"
    },
    {
      "inputs": [
        {
          "internalType": "uint256",
          "name": "",
          "type": "uint256"
        }
      ],
      "name": "PeriodsIssued",
      "outputs": [
        {
          "internalType": "uint256",
          "name": "",
          "type": "uint256"
        }
      ],
      "stateMutability": "view",
      "type": "function"
    },
    {
      "inputs": [],
      "name": "PeriodsIssuedCounter",
      "outputs": [
        {
          "internalType": "uint256",
          "name": "",
          "type": "uint256"
        }
      ],
      "stateMutability": "view",
      "type": "function"
    },
    {
      "inputs": [],
      "name": "REWARD_INTERVAL",
      "outputs": [
        {
          "internalType": "uint256",
          "name": "",
          "type": "uint256"
        }
      ],
      "stateMutability": "view",
      "type": "function"
    },
    {
      "inputs": [],
      "name": "SEEDHASH_EPOCH_BLOCKS",
      "outputs": [
        {
          "internalType": "uint256",
          "name": "",
          "type": "uint256"
        }
      ],
      "stateMutability": "view",
      "type": "function"
    },
    {
      "inputs": [],
      "name": "SEVERITY_LEVEL",
      "outputs": [
        {
          "internalType": "uint256",
          "name": "",
          "type": "uint256"
        }
      ],
      "stateMutability": "view",
      "type": "function"
    },
    {
      "inputs": [],
      "name": "STAKING_DURATION",
      "outputs": [
        {
          "internalType": "uint256",
          "name": "",
          "type": "uint256"
        }
      ],
      "stateMutability": "view",
      "type": "function"
    },
    {
      "inputs": [],
      "name": "UNRECOVERABLE_ETI",
      "outputs": [
        {
          "internalType": "uint256",
          "name": "",
          "type": "uint256"
        }
      ],
      "stateMutability": "view",
      "type": "function"
    },
    {
      "inputs": [],
      "name": "UPDATEDV2",
      "outputs": [
        {
          "internalType": "bool",
          "name": "",
          "type": "bool"
        }
      ],
      "stateMutability": "view",
      "type": "function"
    },
    {
      "inputs": [],
      "name": "UPDATEDV3",
      "outputs": [
        {
          "internalType": "bool",
          "name": "",
          "type": "bool"
        }
      ],
      "stateMutability": "view",
      "type": "function"
    },
    {
      "inputs": [],
      "name": "UPDATEDV4",
      "outputs": [
        {
          "internalType": "bool",
          "name": "",
          "type": "bool"
        }
      ],
      "stateMutability": "view",
      "type": "function"
    },
    {
      "inputs": [],
      "name": "_BLOCKS_PER_READJUSTMENT",
      "outputs": [
        {
          "internalType": "uint256",
          "name": "",
          "type": "uint256"
        }
      ],
      "stateMutability": "view",
      "type": "function"
    },
    {
      "inputs": [],
      "name": "_MAXIMUM_TARGET",
      "outputs": [
        {
          "internalType": "uint256",
          "name": "",
          "type": "uint256"
        }
      ],
      "stateMutability": "view",
      "type": "function"
    },
    {
      "inputs": [],
      "name": "_MINIMUM_TARGET",
      "outputs": [
        {
          "internalType": "uint256",
          "name": "",
          "type": "uint256"
        }
      ],
      "stateMutability": "view",
      "type": "function"
    },
    {
      "inputs": [],
      "name": "_totalMiningSupply",
      "outputs": [
        {
          "internalType": "uint256",
          "name": "",
          "type": "uint256"
        }
      ],
      "stateMutability": "view",
      "type": "function"
    },
    {
      "inputs": [],
      "name": "accessibleSupply",
      "outputs": [
        {
          "internalType": "uint256",
          "name": "",
          "type": "uint256"
        }
      ],
      "stateMutability": "view",
      "type": "function"
    },
    {
      "inputs": [
        {
          "internalType": "address",
          "name": "tokenOwner",
          "type": "address"
        },
        {
          "internalType": "address",
          "name": "spender",
          "type": "address"
        }
      ],
      "name": "allowance",
      "outputs": [
        {
          "internalType": "uint256",
          "name": "",
          "type": "uint256"
        }
      ],
      "stateMutability": "view",
      "type": "function"
    },
    {
      "inputs": [
        {
          "internalType": "address",
          "name": "spender",
          "type": "address"
        },
        {
          "internalType": "uint256",
          "name": "tokens",
          "type": "uint256"
        }
      ],
      "name": "approve",
      "outputs": [
        {
          "internalType": "bool",
          "name": "",
          "type": "bool"
        }
      ],
      "stateMutability": "nonpayable",
      "type": "function"
    },
    {
      "inputs": [
        {
          "internalType": "address",
          "name": "tokenOwner",
          "type": "address"
        }
      ],
      "name": "balanceOf",
      "outputs": [
        {
          "internalType": "uint256",
          "name": "balance",
          "type": "uint256"
        }
      ],
      "stateMutability": "view",
      "type": "function"
    },
    {
      "inputs": [
        {
          "internalType": "address",
          "name": "",
          "type": "address"
        }
      ],
      "name": "balances",
      "outputs": [
        {
          "internalType": "uint256",
          "name": "",
          "type": "uint256"
        }
      ],
      "stateMutability": "view",
      "type": "function"
    },
    {
      "inputs": [
        {
          "internalType": "address",
          "name": "",
          "type": "address"
        }
      ],
      "name": "blockedeticas",
      "outputs": [
        {
          "internalType": "uint256",
          "name": "",
          "type": "uint256"
        }
      ],
      "stateMutability": "view",
      "type": "function"
    },
    {
      "inputs": [],
      "name": "blockreward",
      "outputs": [
        {
          "internalType": "uint256",
          "name": "",
          "type": "uint256"
        }
      ],
      "stateMutability": "view",
      "type": "function"
    },
    {
      "inputs": [
        {
          "internalType": "address",
          "name": "",
          "type": "address"
        }
      ],
      "name": "bosoms",
      "outputs": [
        {
          "internalType": "uint256",
          "name": "",
          "type": "uint256"
        }
      ],
      "stateMutability": "view",
      "type": "function"
    },
    {
      "inputs": [
        {
          "internalType": "address",
          "name": "tokenOwner",
          "type": "address"
        }
      ],
      "name": "bosomsOf",
      "outputs": [
        {
          "internalType": "uint256",
          "name": "_bosoms",
          "type": "uint256"
        }
      ],
      "stateMutability": "view",
      "type": "function"
    },
    {
      "inputs": [],
      "name": "challengeNumber",
      "outputs": [
        {
          "internalType": "bytes32",
          "name": "",
          "type": "bytes32"
        }
      ],
      "stateMutability": "view",
      "type": "function"
    },
    {
      "inputs": [
        {
          "internalType": "bytes",
          "name": "blockHeader",
          "type": "bytes"
        },
        {
          "internalType": "bytes32",
          "name": "currentChallenge",
          "type": "bytes32"
        },
        {
          "internalType": "uint256",
          "name": "claimedTarget",
          "type": "uint256"
        },
        {
          "internalType": "bytes",
          "name": "seedHash",
          "type": "bytes"
        }
      ],
      "name": "checkMintRandomxInputs",
      "outputs": [
        {
          "internalType": "bool",
          "name": "isValid",
          "type": "bool"
        },
        {
          "internalType": "string",
          "name": "errorMessage",
          "type": "string"
        }
      ],
      "stateMutability": "view",
      "type": "function"
    },
    {
      "inputs": [
        {
          "internalType": "uint256",
          "name": "nonce",
          "type": "uint256"
        },
        {
          "internalType": "bytes32",
          "name": "challenge_digest",
          "type": "bytes32"
        },
        {
          "internalType": "bytes32",
          "name": "challenge_number",
          "type": "bytes32"
        },
        {
          "internalType": "uint256",
          "name": "testTarget",
          "type": "uint256"
        }
      ],
      "name": "checkMintSolution",
      "outputs": [
        {
          "internalType": "bool",
          "name": "success",
          "type": "bool"
        }
      ],
      "stateMutability": "view",
      "type": "function"
    },
    {
      "inputs": [
        {
          "internalType": "uint256",
          "name": "",
          "type": "uint256"
        }
      ],
      "name": "chunkProposalsCounter",
      "outputs": [
        {
          "internalType": "uint256",
          "name": "",
          "type": "uint256"
        }
      ],
      "stateMutability": "view",
      "type": "function"
    },
    {
      "inputs": [
        {
          "internalType": "uint256",
          "name": "",
          "type": "uint256"
        },
        {
          "internalType": "uint256",
          "name": "",
          "type": "uint256"
        }
      ],
      "name": "chunkproposals",
      "outputs": [
        {
          "internalType": "bytes32",
          "name": "",
          "type": "bytes32"
        }
      ],
      "stateMutability": "view",
      "type": "function"
    },
    {
      "inputs": [
        {
          "internalType": "uint256",
          "name": "",
          "type": "uint256"
        }
      ],
      "name": "chunks",
      "outputs": [
        {
          "internalType": "uint256",
          "name": "id",
          "type": "uint256"
        },
        {
          "internalType": "bytes32",
          "name": "diseaseid",
          "type": "bytes32"
        },
        {
          "internalType": "uint256",
          "name": "idx",
          "type": "uint256"
        },
        {
          "internalType": "string",
          "name": "title",
          "type": "string"
        },
        {
          "internalType": "string",
          "name": "desc",
          "type": "string"
        }
      ],
      "stateMutability": "view",
      "type": "function"
    },
    {
      "inputs": [],
      "name": "chunksCounter",
      "outputs": [
        {
          "internalType": "uint256",
          "name": "",
          "type": "uint256"
        }
      ],
      "stateMutability": "view",
      "type": "function"
    },
    {
      "inputs": [
        {
          "internalType": "bytes32",
          "name": "_proposed_release_hash",
          "type": "bytes32"
        }
      ],
      "name": "clmpropbyhash",
      "outputs": [],
      "stateMutability": "nonpayable",
      "type": "function"
    },
    {
      "inputs": [
        {
          "internalType": "address",
          "name": "",
          "type": "address"
        },
        {
          "internalType": "bytes32",
          "name": "",
          "type": "bytes32"
        }
      ],
      "name": "commits",
      "outputs": [
        {
          "internalType": "uint256",
          "name": "amount",
          "type": "uint256"
        },
        {
          "internalType": "uint256",
          "name": "timestamp",
          "type": "uint256"
        }
      ],
      "stateMutability": "view",
      "type": "function"
    },
    {
      "inputs": [
        {
          "internalType": "uint256",
          "name": "_amount",
          "type": "uint256"
        },
        {
          "internalType": "bytes32",
          "name": "_votehash",
          "type": "bytes32"
        }
      ],
      "name": "commitvote",
      "outputs": [],
      "stateMutability": "nonpayable",
      "type": "function"
    },
    {
      "inputs": [
        {
          "internalType": "bytes32",
          "name": "_diseasehash",
          "type": "bytes32"
        },
        {
          "internalType": "string",
          "name": "_title",
          "type": "string"
        },
        {
          "internalType": "string",
          "name": "_description",
          "type": "string"
        }
      ],
      "name": "createchunk",
      "outputs": [],
      "stateMutability": "nonpayable",
      "type": "function"
    },
    {
      "inputs": [
        {
          "internalType": "string",
          "name": "_name",
          "type": "string"
        }
      ],
      "name": "createdisease",
      "outputs": [],
      "stateMutability": "nonpayable",
      "type": "function"
    },
    {
      "inputs": [],
      "name": "decimals",
      "outputs": [
        {
          "internalType": "uint256",
          "name": "",
          "type": "uint256"
        }
      ],
      "stateMutability": "view",
      "type": "function"
    },
    {
      "inputs": [
        {
          "internalType": "bytes32",
          "name": "",
          "type": "bytes32"
        }
      ],
      "name": "diseaseChunksCounter",
      "outputs": [
        {
          "internalType": "uint256",
          "name": "",
          "type": "uint256"
        }
      ],
      "stateMutability": "view",
      "type": "function"
    },
    {
      "inputs": [
        {
          "internalType": "bytes32",
          "name": "",
          "type": "bytes32"
        }
      ],
      "name": "diseaseProposalsCounter",
      "outputs": [
        {
          "internalType": "uint256",
          "name": "",
          "type": "uint256"
        }
      ],
      "stateMutability": "view",
      "type": "function"
    },
    {
      "inputs": [
        {
          "internalType": "bytes32",
          "name": "",
          "type": "bytes32"
        },
        {
          "internalType": "uint256",
          "name": "",
          "type": "uint256"
        }
      ],
      "name": "diseasechunks",
      "outputs": [
        {
          "internalType": "uint256",
          "name": "",
          "type": "uint256"
        }
      ],
      "stateMutability": "view",
      "type": "function"
    },
    {
      "inputs": [
        {
          "internalType": "bytes32",
          "name": "",
          "type": "bytes32"
        },
        {
          "internalType": "uint256",
          "name": "",
          "type": "uint256"
        }
      ],
      "name": "diseaseproposals",
      "outputs": [
        {
          "internalType": "bytes32",
          "name": "",
          "type": "bytes32"
        }
      ],
      "stateMutability": "view",
      "type": "function"
    },
    {
      "inputs": [
        {
          "internalType": "uint256",
          "name": "",
          "type": "uint256"
        }
      ],
      "name": "diseases",
      "outputs": [
        {
          "internalType": "bytes32",
          "name": "disease_hash",
          "type": "bytes32"
        },
        {
          "internalType": "string",
          "name": "name",
          "type": "string"
        }
      ],
      "stateMutability": "view",
      "type": "function"
    },
    {
      "inputs": [],
      "name": "diseasesCounter",
      "outputs": [
        {
          "internalType": "uint256",
          "name": "",
          "type": "uint256"
        }
      ],
      "stateMutability": "view",
      "type": "function"
    },
    {
      "inputs": [
        {
          "internalType": "bytes32",
          "name": "",
          "type": "bytes32"
        }
      ],
      "name": "diseasesbyIds",
      "outputs": [
        {
          "internalType": "uint256",
          "name": "",
          "type": "uint256"
        }
      ],
      "stateMutability": "view",
      "type": "function"
    },
    {
      "inputs": [],
      "name": "epochCount",
      "outputs": [
        {
          "internalType": "uint256",
          "name": "",
          "type": "uint256"
        }
      ],
      "stateMutability": "view",
      "type": "function"
    },
    {
      "inputs": [
        {
          "internalType": "address",
          "name": "_staker",
          "type": "address"
        },
        {
          "internalType": "uint256",
          "name": "_amount",
          "type": "uint256"
        }
      ],
      "name": "eticatobosoms",
      "outputs": [
        {
          "internalType": "bool",
          "name": "success",
          "type": "bool"
        }
      ],
      "stateMutability": "nonpayable",
      "type": "function"
    },
    {
      "inputs": [],
      "name": "getChallengeNumber",
      "outputs": [
        {
          "internalType": "bytes32",
          "name": "",
          "type": "bytes32"
        }
      ],
      "stateMutability": "view",
      "type": "function"
    },
    {
      "inputs": [],
      "name": "getMiningDifficulty",
      "outputs": [
        {
          "internalType": "uint256",
          "name": "",
          "type": "uint256"
        }
      ],
      "stateMutability": "view",
      "type": "function"
    },
    {
      "inputs": [],
      "name": "getMiningReward",
      "outputs": [
        {
          "internalType": "uint256",
          "name": "",
          "type": "uint256"
        }
      ],
      "stateMutability": "view",
      "type": "function"
    },
    {
      "inputs": [],
      "name": "getMiningTarget",
      "outputs": [
        {
          "internalType": "uint256",
          "name": "",
          "type": "uint256"
        }
      ],
      "stateMutability": "view",
      "type": "function"
    },
    {
      "inputs": [
        {
          "internalType": "uint256",
          "name": "nonce",
          "type": "uint256"
        },
        {
          "internalType": "bytes32",
          "name": "challenge_digest",
          "type": "bytes32"
        },
        {
          "internalType": "bytes32",
          "name": "challenge_number",
          "type": "bytes32"
        }
      ],
      "name": "getMintDigest",
      "outputs": [
        {
          "internalType": "bytes32",
          "name": "digesttest",
          "type": "bytes32"
        }
      ],
      "stateMutability": "view",
      "type": "function"
    },
    {
      "inputs": [
        {
          "internalType": "string",
          "name": "_name",
          "type": "string"
        }
      ],
      "name": "getdiseasehashbyName",
      "outputs": [
        {
          "internalType": "bytes32",
          "name": "_diseasehash",
          "type": "bytes32"
        }
      ],
      "stateMutability": "view",
      "type": "function"
    },
    {
      "inputs": [],
      "name": "inflationrate",
      "outputs": [
        {
          "internalType": "uint256",
          "name": "",
          "type": "uint256"
        }
      ],
      "stateMutability": "view",
      "type": "function"
    },
    {
      "inputs": [],
      "name": "initiatormsg",
      "outputs": [
        {
          "internalType": "string",
          "name": "",
          "type": "string"
        }
      ],
      "stateMutability": "view",
      "type": "function"
    },
    {
      "inputs": [],
      "name": "lastRewardEthBlockNumber",
      "outputs": [
        {
          "internalType": "uint256",
          "name": "",
          "type": "uint256"
        }
      ],
      "stateMutability": "view",
      "type": "function"
    },
    {
      "inputs": [],
      "name": "lastRewardTo",
      "outputs": [
        {
          "internalType": "address",
          "name": "",
          "type": "address"
        }
      ],
      "stateMutability": "view",
      "type": "function"
    },
    {
      "inputs": [],
      "name": "latestDifficultyPeriodStarted",
      "outputs": [
        {
          "internalType": "uint256",
          "name": "",
          "type": "uint256"
        }
      ],
      "stateMutability": "view",
      "type": "function"
    },
    {
      "inputs": [],
      "name": "miningTarget",
      "outputs": [
        {
          "internalType": "uint256",
          "name": "",
          "type": "uint256"
        }
      ],
      "stateMutability": "view",
      "type": "function"
    },
    {
      "inputs": [
        {
          "internalType": "uint256",
          "name": "nonce",
          "type": "uint256"
        },
        {
          "internalType": "bytes32",
          "name": "challenge_digest",
          "type": "bytes32"
        }
      ],
      "name": "mint",
      "outputs": [
        {
          "internalType": "bool",
          "name": "success",
          "type": "bool"
        }
      ],
      "stateMutability": "nonpayable",
      "type": "function"
    },
    {
      "inputs": [
        {
          "internalType": "bytes4",
          "name": "nonce",
          "type": "bytes4"
        },
        {
          "internalType": "bytes",
          "name": "blockHeader",
          "type": "bytes"
        },
        {
          "internalType": "bytes32",
          "name": "currentChallenge",
          "type": "bytes32"
        },
        {
          "internalType": "bytes",
          "name": "randomxHash",
          "type": "bytes"
        },
        {
          "internalType": "uint256",
          "name": "claimedTarget",
          "type": "uint256"
        },
        {
          "internalType": "bytes",
          "name": "seedHash",
          "type": "bytes"
        },
        {
          "internalType": "bytes8",
          "name": "extraNonce",
          "type": "bytes8"
        }
      ],
      "name": "mintrandomX",
      "outputs": [
        {
          "internalType": "bool",
          "name": "success",
          "type": "bool"
        }
      ],
      "stateMutability": "nonpayable",
      "type": "function"
    },
    {
      "inputs": [],
      "name": "name",
      "outputs": [
        {
          "internalType": "string",
          "name": "",
          "type": "string"
        }
      ],
      "stateMutability": "view",
      "type": "function"
    },
    {
      "inputs": [
        {
          "internalType": "address",
          "name": "",
          "type": "address"
        }
      ],
      "name": "networkGuardAddresses",
      "outputs": [
        {
          "internalType": "bool",
          "name": "",
          "type": "bool"
        }
      ],
      "stateMutability": "view",
      "type": "function"
    },
    {
      "inputs": [],
      "name": "periodrewardtemp",
      "outputs": [
        {
          "internalType": "uint256",
          "name": "",
          "type": "uint256"
        }
      ],
      "stateMutability": "view",
      "type": "function"
    },
    {
      "inputs": [
        {
          "internalType": "uint256",
          "name": "",
          "type": "uint256"
        }
      ],
      "name": "periods",
      "outputs": [
        {
          "internalType": "uint256",
          "name": "id",
          "type": "uint256"
        },
        {
          "internalType": "uint256",
          "name": "interval",
          "type": "uint256"
        },
        {
          "internalType": "uint256",
          "name": "curation_sum",
          "type": "uint256"
        },
        {
          "internalType": "uint256",
          "name": "editor_sum",
          "type": "uint256"
        },
        {
          "internalType": "uint256",
          "name": "reward_for_curation",
          "type": "uint256"
        },
        {
          "internalType": "uint256",
          "name": "reward_for_editor",
          "type": "uint256"
        },
        {
          "internalType": "uint256",
          "name": "forprops",
          "type": "uint256"
        },
        {
          "internalType": "uint256",
          "name": "againstprops",
          "type": "uint256"
        }
      ],
      "stateMutability": "view",
      "type": "function"
    },
    {
      "inputs": [],
      "name": "periodsCounter",
      "outputs": [
        {
          "internalType": "uint256",
          "name": "",
          "type": "uint256"
        }
      ],
      "stateMutability": "view",
      "type": "function"
    },
    {
      "inputs": [
        {
          "internalType": "bytes32",
          "name": "",
          "type": "bytes32"
        }
      ],
      "name": "proposals",
      "outputs": [
        {
          "internalType": "uint256",
          "name": "id",
          "type": "uint256"
        },
        {
          "internalType": "bytes32",
          "name": "proposed_release_hash",
          "type": "bytes32"
        },
        {
          "internalType": "bytes32",
          "name": "disease_id",
          "type": "bytes32"
        },
        {
          "internalType": "uint256",
          "name": "period_id",
          "type": "uint256"
        },
        {
          "internalType": "uint256",
          "name": "chunk_id",
          "type": "uint256"
        },
        {
          "internalType": "address",
          "name": "proposer",
          "type": "address"
        },
        {
          "internalType": "string",
          "name": "title",
          "type": "string"
        },
        {
          "internalType": "string",
          "name": "description",
          "type": "string"
        },
        {
          "internalType": "string",
          "name": "freefield",
          "type": "string"
        },
        {
          "internalType": "string",
          "name": "raw_release_hash",
          "type": "string"
        }
      ],
      "stateMutability": "view",
      "type": "function"
    },
    {
      "inputs": [],
      "name": "proposalsCounter",
      "outputs": [
        {
          "internalType": "uint256",
          "name": "",
          "type": "uint256"
        }
      ],
      "stateMutability": "view",
      "type": "function"
    },
    {
      "inputs": [
        {
          "internalType": "uint256",
          "name": "",
          "type": "uint256"
        }
      ],
      "name": "proposalsbyIndex",
      "outputs": [
        {
          "internalType": "bytes32",
          "name": "",
          "type": "bytes32"
        }
      ],
      "stateMutability": "view",
      "type": "function"
    },
    {
      "inputs": [
        {
          "internalType": "bytes32",
          "name": "_diseasehash",
          "type": "bytes32"
        },
        {
          "internalType": "string",
          "name": "_title",
          "type": "string"
        },
        {
          "internalType": "string",
          "name": "_description",
          "type": "string"
        },
        {
          "internalType": "string",
          "name": "raw_release_hash",
          "type": "string"
        },
        {
          "internalType": "string",
          "name": "_freefield",
          "type": "string"
        },
        {
          "internalType": "uint256",
          "name": "_chunkid",
          "type": "uint256"
        }
      ],
      "name": "propose",
      "outputs": [],
      "stateMutability": "nonpayable",
      "type": "function"
    },
    {
      "inputs": [
        {
          "internalType": "bytes32",
          "name": "",
          "type": "bytes32"
        }
      ],
      "name": "propsdatas",
      "outputs": [
        {
          "internalType": "uint256",
          "name": "starttime",
          "type": "uint256"
        },
        {
          "internalType": "uint256",
          "name": "endtime",
          "type": "uint256"
        },
        {
          "internalType": "uint256",
          "name": "finalized_time",
          "type": "uint256"
        },
        {
          "internalType": "enum EticaRelease.ProposalStatus",
          "name": "status",
          "type": "uint8"
        },
        {
          "internalType": "enum EticaRelease.ProposalStatus",
          "name": "prestatus",
          "type": "uint8"
        },
        {
          "internalType": "bool",
          "name": "istie",
          "type": "bool"
        },
        {
          "internalType": "uint256",
          "name": "nbvoters",
          "type": "uint256"
        },
        {
          "internalType": "uint256",
          "name": "slashingratio",
          "type": "uint256"
        },
        {
          "internalType": "uint256",
          "name": "forvotes",
          "type": "uint256"
        },
        {
          "internalType": "uint256",
          "name": "againstvotes",
          "type": "uint256"
        },
        {
          "internalType": "uint256",
          "name": "lastcuration_weight",
          "type": "uint256"
        },
        {
          "internalType": "uint256",
          "name": "lasteditor_weight",
          "type": "uint256"
        },
        {
          "internalType": "uint256",
          "name": "approvalthreshold",
          "type": "uint256"
        }
      ],
      "stateMutability": "view",
      "type": "function"
    },
    {
      "inputs": [
        {
          "internalType": "address",
          "name": "",
          "type": "address"
        },
        {
          "internalType": "bytes32",
          "name": "",
          "type": "bytes32"
        }
      ],
      "name": "qamounts",
      "outputs": [
        {
          "internalType": "uint256",
          "name": "amount",
          "type": "uint256"
        }
      ],
      "stateMutability": "view",
      "type": "function"
    },
    {
      "inputs": [],
      "name": "randomxBlob",
      "outputs": [
        {
          "internalType": "bytes",
          "name": "",
          "type": "bytes"
        }
      ],
      "stateMutability": "view",
      "type": "function"
    },
    {
      "inputs": [],
      "name": "randomxBlobfirstpart",
      "outputs": [
        {
          "internalType": "bytes32",
          "name": "",
          "type": "bytes32"
        }
      ],
      "stateMutability": "view",
      "type": "function"
    },
    {
      "inputs": [
        {
          "internalType": "bytes32",
          "name": "",
          "type": "bytes32"
        },
        {
          "internalType": "bytes32",
          "name": "",
          "type": "bytes32"
        }
      ],
      "name": "randomxSealSolutions",
      "outputs": [
        {
          "internalType": "bytes32",
          "name": "",
          "type": "bytes32"
        }
      ],
      "stateMutability": "view",
      "type": "function"
    },
    {
      "inputs": [],
      "name": "randomxSeedhash",
      "outputs": [
        {
          "internalType": "bytes",
          "name": "",
          "type": "bytes"
        }
      ],
      "stateMutability": "view",
      "type": "function"
    },
    {
      "inputs": [
        {
          "internalType": "bytes32",
          "name": "_proposed_release_hash",
          "type": "bytes32"
        },
        {
          "internalType": "bool",
          "name": "_approved",
          "type": "bool"
        },
        {
          "internalType": "string",
          "name": "_vary",
          "type": "string"
        }
      ],
      "name": "recovercommit",
      "outputs": [],
      "stateMutability": "nonpayable",
      "type": "function"
    },
    {
      "inputs": [
        {
          "internalType": "bytes32",
          "name": "_votehash",
          "type": "bytes32"
        }
      ],
      "name": "recoverlostcommit",
      "outputs": [],
      "stateMutability": "nonpayable",
      "type": "function"
    },
    {
      "inputs": [
        {
          "internalType": "bytes32",
          "name": "_proposed_release_hash",
          "type": "bytes32"
        },
        {
          "internalType": "bool",
          "name": "_approved",
          "type": "bool"
        },
        {
          "internalType": "string",
          "name": "_vary",
          "type": "string"
        }
      ],
      "name": "revealvote",
      "outputs": [],
      "stateMutability": "nonpayable",
      "type": "function"
    },
    {
      "inputs": [
        {
          "internalType": "uint256",
          "name": "_stakeidx",
          "type": "uint256"
        }
      ],
      "name": "stakeclmidx",
      "outputs": [],
      "stateMutability": "nonpayable",
      "type": "function"
    },
    {
      "inputs": [
        {
          "internalType": "address",
          "name": "",
          "type": "address"
        },
        {
          "internalType": "uint256",
          "name": "",
          "type": "uint256"
        }
      ],
      "name": "stakes",
      "outputs": [
        {
          "internalType": "uint256",
          "name": "amount",
          "type": "uint256"
        },
        {
          "internalType": "uint256",
          "name": "endTime",
          "type": "uint256"
        }
      ],
      "stateMutability": "view",
      "type": "function"
    },
    {
      "inputs": [
        {
          "internalType": "address",
          "name": "",
          "type": "address"
        }
      ],
      "name": "stakesAmount",
      "outputs": [
        {
          "internalType": "uint256",
          "name": "",
          "type": "uint256"
        }
      ],
      "stateMutability": "view",
      "type": "function"
    },
    {
      "inputs": [
        {
          "internalType": "address",
          "name": "",
          "type": "address"
        }
      ],
      "name": "stakesCounters",
      "outputs": [
        {
          "internalType": "uint256",
          "name": "",
          "type": "uint256"
        }
      ],
      "stateMutability": "view",
      "type": "function"
    },
    {
      "inputs": [
        {
          "internalType": "address",
          "name": "_staker",
          "type": "address"
        }
      ],
      "name": "stakescount",
      "outputs": [
        {
          "internalType": "uint256",
          "name": "slength",
          "type": "uint256"
        }
      ],
      "stateMutability": "view",
      "type": "function"
    },
    {
      "inputs": [
        {
          "internalType": "uint256",
          "name": "_endTime",
          "type": "uint256"
        },
        {
          "internalType": "uint256",
          "name": "_min_limit",
          "type": "uint256"
        },
        {
          "internalType": "uint256",
          "name": "_maxidx",
          "type": "uint256"
        }
      ],
      "name": "stakescsldt",
      "outputs": [],
      "stateMutability": "nonpayable",
      "type": "function"
    },
    {
      "inputs": [
        {
          "internalType": "uint256",
          "name": "_stakeidx",
          "type": "uint256"
        },
        {
          "internalType": "uint256",
          "name": "_snapamount",
          "type": "uint256"
        }
      ],
      "name": "stakesnap",
      "outputs": [],
      "stateMutability": "nonpayable",
      "type": "function"
    },
    {
      "inputs": [],
      "name": "supply",
      "outputs": [
        {
          "internalType": "uint256",
          "name": "",
          "type": "uint256"
        }
      ],
      "stateMutability": "view",
      "type": "function"
    },
    {
      "inputs": [],
      "name": "symbol",
      "outputs": [
        {
          "internalType": "string",
          "name": "",
          "type": "string"
        }
      ],
      "stateMutability": "view",
      "type": "function"
    },
    {
      "inputs": [],
      "name": "tokensMinted",
      "outputs": [
        {
          "internalType": "uint256",
          "name": "",
          "type": "uint256"
        }
      ],
      "stateMutability": "view",
      "type": "function"
    },
    {
      "inputs": [],
      "name": "totalSupply",
      "outputs": [
        {
          "internalType": "uint256",
          "name": "",
          "type": "uint256"
        }
      ],
      "stateMutability": "view",
      "type": "function"
    },
    {
      "inputs": [
        {
          "internalType": "address",
          "name": "to",
          "type": "address"
        },
        {
          "internalType": "uint256",
          "name": "tokens",
          "type": "uint256"
        }
      ],
      "name": "transfer",
      "outputs": [
        {
          "internalType": "bool",
          "name": "success",
          "type": "bool"
        }
      ],
      "stateMutability": "nonpayable",
      "type": "function"
    },
    {
      "inputs": [
        {
          "internalType": "address",
          "name": "from",
          "type": "address"
        },
        {
          "internalType": "address",
          "name": "to",
          "type": "address"
        },
        {
          "internalType": "uint256",
          "name": "tokens",
          "type": "uint256"
        }
      ],
      "name": "transferFrom",
      "outputs": [
        {
          "internalType": "bool",
          "name": "",
          "type": "bool"
        }
      ],
      "stateMutability": "nonpayable",
      "type": "function"
    },
    {
      "inputs": [],
      "name": "updatecost",
      "outputs": [],
      "stateMutability": "nonpayable",
      "type": "function"
    },
    {
      "inputs": [],
      "name": "updatev2",
      "outputs": [],
      "stateMutability": "nonpayable",
      "type": "function"
    },
    {
      "inputs": [],
      "name": "updatev3",
      "outputs": [],
      "stateMutability": "nonpayable",
      "type": "function"
    },
    {
      "inputs": [],
      "name": "updatev4",
      "outputs": [],
      "stateMutability": "nonpayable",
      "type": "function"
    },
    {
      "inputs": [
        {
          "internalType": "bytes32",
          "name": "",
          "type": "bytes32"
        },
        {
          "internalType": "address",
          "name": "",
          "type": "address"
        }
      ],
      "name": "votes",
      "outputs": [
        {
          "internalType": "bytes32",
          "name": "proposal_hash",
          "type": "bytes32"
        },
        {
          "internalType": "bool",
          "name": "approve",
          "type": "bool"
        },
        {
          "internalType": "bool",
          "name": "is_editor",
          "type": "bool"
        },
        {
          "internalType": "uint256",
          "name": "amount",
          "type": "uint256"
        },
        {
          "internalType": "address",
          "name": "voter",
          "type": "address"
        },
        {
          "internalType": "uint256",
          "name": "timestamp",
          "type": "uint256"
        },
        {
          "internalType": "bool",
          "name": "is_claimed",
          "type": "bool"
        }
      ],
      "stateMutability": "view",
      "type": "function"
    },
    {
      "stateMutability": "payable",
      "type": "receive"
    }
  ],
  "bytecode": "0x60c06040526005608090815264457469636160d81b60a05260009062000026908262000551565b5060408051808201909152600381526245544960e81b602082015260019062000050908262000551565b5060126002556408e4b1e125600655640e63c506db6007556107e0600e556004600f55600160e01b60105562093a806019556224ea00601a55621baf80601b5562093a80601c55600254600a620000a8919062000730565b620000b59060646200073e565b601d55600254620000c890600a62000730565b620000d590600a6200073e565b601e55611388601f5560056020556001602181905560225561182460235560006024556043805460ff1990811690915562093a80604455604580548216905561019a604955604b805490911690553480156200013057600080fd5b5068056bc75e2d631000006003819055306000908152600960205260409020546200015b91620001d6565b3060009081526009602052604090205568da5351938e7eb5b95c6005556002546200018890600a62000730565b620001979062b03d306200073e565b600b5560006017556801f30795e38ed87acc60135560105460115542600c55620001c0620001fa565b6b1004c20e49aa3240785fcad2600455620007c8565b6000620001e4828462000758565b905082811015620001f457600080fd5b92915050565b600d546200020a906001620001d6565b600d819055600e546200021d9162000784565b6000036200022f576200022f6200027f565b6200023c4360016200043b565b406012819055601854600d54604080516020810194909452830191909152606082015260800160408051601f198184030181529190528051602090910120601255565b601154600c54600090620002959042906200043b565b600e54909150600090620002ac906102586200045e565b90508082101562000363576000620002d383620002cc846103e86200045e565b9062000490565b9050610fa0811115620002e55750610fa05b601054620002f6906103e862000490565b6011541015620003215760115462000318908290620002cc906103e86200045e565b60115562000334565b60105462000330908262000490565b6011555b6200034184600462000490565b60115410156200035c576200035884600462000490565b6011555b506200040a565b60006200037882620002cc856103e86200045e565b9050610fa08111156200038a5750610fa05b60105462000399908262000490565b60115411620003c357601154620003ba906103e890620002cc90846200045e565b601155620003ca565b6010546011555b620003d9600019600462000490565b84116200040857620003ed8460046200045e565b60115411156200040857620004048460046200045e565b6011555b505b42600c55600f5460115410156200042257600f546011555b601054601154111562000436576010546011555b505050565b6000828211156200044b57600080fd5b6200045782846200079b565b9392505050565b60006200046c82846200073e565b905082158062000486575081620004848483620007b1565b145b620001f457600080fd5b60008082116200049f57600080fd5b620004578284620007b1565b634e487b7160e01b600052604160045260246000fd5b600181811c90821680620004d657607f821691505b602082108103620004f757634e487b7160e01b600052602260045260246000fd5b50919050565b601f82111562000436576000816000526020600020601f850160051c81016020861015620005285750805b601f850160051c820191505b81811015620005495782815560010162000534565b505050505050565b81516001600160401b038111156200056d576200056d620004ab565b62000585816200057e8454620004c1565b84620004fd565b602080601f831160018114620005bd5760008415620005a45750858301515b600019600386901b1c1916600185901b17855562000549565b600085815260208120601f198616915b82811015620005ee57888601518255948401946001909101908401620005cd565b50858210156200060d5787850151600019600388901b60f8161c191681555b5050505050600190811b01905550565b634e487b7160e01b600052601160045260246000fd5b600181815b80851115620006745781600019048211156200065857620006586200061d565b808516156200066657918102915b93841c939080029062000638565b509250929050565b6000826200068d57506001620001f4565b816200069c57506000620001f4565b8160018114620006b55760028114620006c057620006e0565b6001915050620001f4565b60ff841115620006d457620006d46200061d565b50506001821b620001f4565b5060208310610133831016604e8410600b841016171562000705575081810a620001f4565b62000711838362000633565b80600019048211156200072857620007286200061d565b029392505050565b60006200045783836200067c565b8082028115828204841417620001f457620001f46200061d565b80820180821115620001f457620001f46200061d565b634e487b7160e01b600052601260045260246000fd5b6000826200079657620007966200076e565b500690565b81810381811115620001f457620001f46200061d565b600082620007c357620007c36200076e565b500490565b617ff080620007d86000396000f3fe6080604052600436106106b55760003560e01c806369f43e9c1161036f578063b54f31db116101d1578063d893209411610102578063ea4a1104116100a0578063f71ae2aa1161007a578063f71ae2aa14611653578063f8c12e2c14611669578063f8d8268314611689578063fc84abb7146116b657600080fd5b8063ea4a110414611557578063ecd3cb82146115f0578063f08a01f81461161057600080fd5b8063dd62ed3e116100dc578063dd62ed3e14611494578063e47e25a2146114e7578063e723b9d914611514578063e729798e1461154157600080fd5b8063d89320941461144f578063d89abcb514611469578063dc6e9cf91461147e57600080fd5b8063c7bef6ee1161016f578063d03150c611610149578063d03150c6146113e0578063d40170d7146113f6578063d732b8351461140c578063d74ce8c51461143957600080fd5b8063c7bef6ee14611387578063cb9ae707146113b4578063cf70fa40146113ca57600080fd5b8063b87c0c1d116101ab578063b87c0c1d146112ff578063be7d798e14611319578063bf6fc7251461132f578063c19885761461134f57600080fd5b8063b54f31db146112bd578063b5ade81b146112d3578063b6407769146112e957600080fd5b806388858985116102ab57806397566aa011610249578063a9059cbb11610223578063a9059cbb14611248578063b01ab0b214611268578063b31102e21461127d578063b4ef00f01461129d57600080fd5b806397566aa0146111a5578063996901781461121c578063a5ec87e41461123257600080fd5b806391efa9141161028557806391efa914146110595780639386775a1461109157806395bd852e1461116257806395d89b411461119057600080fd5b806388858985146110005780638a769d351461102d5780638ae0368b1461104357600080fd5b806370a082311161031857806381269a56116102f257806381269a5614610f87578063829965cc14610fa7578063841218ee14610fbd57806387a2a9d614610fea57600080fd5b806370a0823114610ee55780637516528014610f285780637f66cb4e14610f6757600080fd5b80636fbbbf1d116103495780636fbbbf1d14610e675780636fd396d614610e7d5780637006695114610ecf57600080fd5b806369f43e9c14610e1b5780636bb5a58214610e315780636de9f32b14610e5157600080fd5b8063313ce5671161051857806346459b2211610454578063584b62a1116103f25780635dbdda69116103cc5780635dbdda6914610d6a5780635dfa739614610d8057806362adb2e114610dc35780636352170f14610dfb57600080fd5b8063584b62a114610cd05780635965916f14610d245780635a2bc22d14610d3957600080fd5b80634ef376281161042e5780634ef3762814610c58578063509fce5b14610c6d5780635327d4af14610c835780635708416414610ca357600080fd5b806346459b2214610b77578063490203a714610ba55780634b44c6aa14610bba57600080fd5b8063370ef54f116104c15780633ab342901161049b5780633ab3429014610af35780633c5e64d114610b09578063410e1b0714610b29578063424d389414610b3f57600080fd5b8063370ef54f14610ab157806337eed2d614610ac75780633925bfe714610add57600080fd5b8063356df5ee116104f2578063356df5ee14610a59578063366c41a314610a8657806336dfec1c14610a9c57600080fd5b8063313ce567146109f857806332e9970814610a0e57806332ed5b1214610a2357600080fd5b8063163aa00d116105f2578063207c9c8d1161059057806323b872dd1161056a57806323b872dd1461097f57806327e235e31461099f5780632e175004146109cc5780632f40907c146109e257600080fd5b8063207c9c8d14610935578063229cb73c1461094a57806322ae4ccf1461095f57600080fd5b806318160ddd116105cc57806318160ddd146108b25780631853f0a8146108c75780631883a8d0146108dd5780631dcc83a91461091557600080fd5b8063163aa00d1461086457806317da485f1461087a5780631801fbe51461088f57600080fd5b8063095ea7b31161065f5780630dbc6c55116106395780630dbc6c55146107dc5780631081a47e146107f257806310d2fce31461081f578063141a3dcf1461084f57600080fd5b8063095ea7b3146107825780630d899b1b146107a25780630db5fea4146107bc57600080fd5b8063047fc9aa11610690578063047fc9aa1461073457806305103f5e1461074a57806306fdde031461076057600080fd5b8062e6e553146106c45780630206cea3146106ed578063037d2f351461070457600080fd5b366106bf57600080fd5b600080fd5b3480156106d057600080fd5b506106da60075481565b6040519081526020015b60405180910390f35b3480156106f957600080fd5b506107026116e3565b005b34801561071057600080fd5b5061072461071f366004617186565b6117c2565b60405190151581526020016106e4565b34801561074057600080fd5b506106da60035481565b34801561075657600080fd5b506106da60495481565b34801561076c57600080fd5b50610775611cf9565b6040516106e491906172d8565b34801561078e57600080fd5b5061072461079d36600461730f565b611d87565b3480156107ae57600080fd5b506045546107249060ff1681565b3480156107c857600080fd5b506107026107d7366004617339565b611e01565b3480156107e857600080fd5b506106da60225481565b3480156107fe57600080fd5b506106da61080d366004617397565b602d6020526000908152604090205481565b34801561082b57600080fd5b5061072461083a3660046173b0565b604c6020526000908152604090205460ff1681565b34801561085b57600080fd5b50610775612515565b34801561087057600080fd5b506106da60155481565b34801561088657600080fd5b506106da612522565b34801561089b57600080fd5b506107246108aa3660046173cb565b600092915050565b3480156108be57600080fd5b506003546106da565b3480156108d357600080fd5b506106da602a5481565b3480156108e957600080fd5b506106da6108f836600461730f565b604260209081526000928352604080842090915290825290205481565b34801561092157600080fd5b506107026109303660046173ed565b612540565b34801561094157600080fd5b50610702612a2c565b34801561095657600080fd5b506106da612ab5565b34801561096b57600080fd5b5061070261097a3660046173cb565b612ace565b34801561098b57600080fd5b5061072461099a3660046174ac565b612cf3565b3480156109ab57600080fd5b506106da6109ba3660046173b0565b60096020526000908152604090205481565b3480156109d857600080fd5b506106da601a5481565b3480156109ee57600080fd5b506106da60365481565b348015610a0457600080fd5b506106da60025481565b348015610a1a57600080fd5b506011546106da565b348015610a2f57600080fd5b50610a43610a3e366004617397565b612eb5565b6040516106e49a999897969594939291906174e8565b348015610a6557600080fd5b506106da610a74366004617397565b60326020526000908152604090205481565b348015610a9257600080fd5b506106da601d5481565b348015610aa857600080fd5b5061077561313d565b348015610abd57600080fd5b506106da601b5481565b348015610ad357600080fd5b506106da60245481565b348015610ae957600080fd5b506106da601c5481565b348015610aff57600080fd5b506106da601f5481565b348015610b1557600080fd5b50610702610b24366004617585565b61314a565b348015610b3557600080fd5b506106da600b5481565b348015610b4b57600080fd5b506106da610b5a3660046173cb565b603760209081526000928352604080842090915290825290205481565b348015610b8357600080fd5b50610b97610b92366004617397565b6132ea565b6040516106e49291906175e8565b348015610bb157600080fd5b506106da61338f565b348015610bc657600080fd5b50610c3f610bd5366004617397565b603460205260009081526040902080546001820154600283015460038401546004850154600586015460068701546007880154600889015460098a0154600a909a015498999798969760ff808816986101008904821698620100009004909116969594939291908d565b6040516106e49d9c9b9a9998979695949392919061766b565b348015610c6457600080fd5b506012546106da565b348015610c7957600080fd5b506106da60085481565b348015610c8f57600080fd5b50610702610c9e3660046176e1565b6133a9565b348015610caf57600080fd5b506106da610cbe3660046173b0565b603d6020526000908152604090205481565b348015610cdc57600080fd5b50610d0f610ceb36600461730f565b603e6020908152600092835260408084209091529082529020805460019091015482565b604080519283526020830191909152016106e4565b348015610d3057600080fd5b50610775613543565b348015610d4557600080fd5b50610d59610d54366004617397565b613560565b6040516106e495949392919061770d565b348015610d7657600080fd5b506106da60195481565b348015610d8c57600080fd5b506106da610d9b3660046173b0565b73ffffffffffffffffffffffffffffffffffffffff166000908152603f602052604090205490565b348015610dcf57600080fd5b506106da610dde3660046173cb565b602f60209081526000928352604080842090915290825290205481565b348015610e0757600080fd5b50610702610e16366004617339565b6136a1565b348015610e2757600080fd5b506106da604a5481565b348015610e3d57600080fd5b50610702610e4c366004617750565b613ebd565b348015610e5d57600080fd5b506106da60175481565b348015610e7357600080fd5b506106da602c5481565b348015610e8957600080fd5b50601454610eaa9073ffffffffffffffffffffffffffffffffffffffff1681565b60405173ffffffffffffffffffffffffffffffffffffffff90911681526020016106e4565b348015610edb57600080fd5b506106da60215481565b348015610ef157600080fd5b506106da610f003660046173b0565b73ffffffffffffffffffffffffffffffffffffffff1660009081526009602052604090205490565b348015610f3457600080fd5b50610d0f610f4336600461730f565b603c6020908152600092835260408084209091529082529020805460019091015482565b348015610f7357600080fd5b50610702610f82366004617397565b61406d565b348015610f9357600080fd5b50610724610fa2366004617785565b61451f565b348015610fb357600080fd5b506106da600d5481565b348015610fc957600080fd5b506106da610fd8366004617397565b60306020526000908152604090205481565b348015610ff657600080fd5b506106da60105481565b34801561100c57600080fd5b506106da61101b366004617397565b60296020526000908152604090205481565b34801561103957600080fd5b506106da60115481565b34801561104f57600080fd5b506106da60125481565b34801561106557600080fd5b506106da6110743660046173cb565b604660209081526000928352604080842090915290825290205481565b34801561109d57600080fd5b5061110f6110ac3660046177b7565b603b602090815260009283526040808420909152908252902080546001820154600283015460038401546004850154600590950154939460ff8085169561010090950481169473ffffffffffffffffffffffffffffffffffffffff909316921687565b60408051978852951515602088015293151594860194909452606085019190915273ffffffffffffffffffffffffffffffffffffffff16608084015260a0830191909152151560c082015260e0016106e4565b34801561116e57600080fd5b5061118261117d3660046177e3565b61458f565b6040516106e492919061785a565b34801561119c57600080fd5b50610775614781565b3480156111b157600080fd5b506106da6111c03660046176e1565b604080516020808201939093523360601b7fffffffffffffffffffffffffffffffffffffffff00000000000000000000000016818301526054808201959095528151808203909501855260740190528251920191909120919050565b34801561122857600080fd5b506106da601e5481565b34801561123e57600080fd5b506106da60335481565b34801561125457600080fd5b5061072461126336600461730f565b61478e565b34801561127457600080fd5b5061070261484d565b34801561128957600080fd5b506107026112983660046173cb565b614906565b3480156112a957600080fd5b506106da6112b8366004617750565b614a97565b3480156112c957600080fd5b506106da60065481565b3480156112df57600080fd5b506106da600e5481565b3480156112f557600080fd5b506106da60045481565b34801561130b57600080fd5b506043546107249060ff1681565b34801561132557600080fd5b506106da60205481565b34801561133b57600080fd5b5061072461134a36600461730f565b614abf565b34801561135b57600080fd5b506106da61136a3660046173cb565b603860209081526000928352604080842090915290825290205481565b34801561139357600080fd5b506106da6113a23660046173b0565b60406020819052600091825290205481565b3480156113c057600080fd5b506106da600c5481565b3480156113d657600080fd5b506106da60135481565b3480156113ec57600080fd5b506106da60285481565b34801561140257600080fd5b506106da60055481565b34801561141857600080fd5b506106da6114273660046173b0565b603f6020526000908152604090205481565b34801561144557600080fd5b506106da60265481565b34801561145b57600080fd5b50604b546107249060ff1681565b34801561147557600080fd5b50610702614b0e565b34801561148a57600080fd5b506106da600f5481565b3480156114a057600080fd5b506106da6114af366004617875565b73ffffffffffffffffffffffffffffffffffffffff9182166000908152600a6020908152604080832093909416825291909152205490565b3480156114f357600080fd5b506106da611502366004617397565b603a6020526000908152604090205481565b34801561152057600080fd5b506106da61152f366004617397565b60396020526000908152604090205481565b34801561154d57600080fd5b506106da60235481565b34801561156357600080fd5b506115b5611572366004617397565b6025602052600090815260409020805460018201546002830154600384015460048501546005860154600687015460079097015495969495939492939192909188565b604080519889526020890197909752958701949094526060860192909252608085015260a084015260c083015260e0820152610100016106e4565b3480156115fc57600080fd5b5061070261160b366004617397565b614bc3565b34801561161c57600080fd5b506106da61162b3660046173b0565b73ffffffffffffffffffffffffffffffffffffffff166000908152603d602052604090205490565b34801561165f57600080fd5b506106da60445481565b34801561167557600080fd5b50610702611684366004617397565b614de7565b34801561169557600080fd5b506106da6116a4366004617397565b60276020526000908152604090205481565b3480156116c257600080fd5b506106da6116d13660046173b0565b60416020526000908152604090205481565b60455460ff16156116f357600080fd5b60025461170190600a6179ee565b61170d906103e86179fa565b601e5561171861574b565b6047906117259082617ab4565b5061172e615892565b60489061173b9082617ab4565b507fffffffffffffffffffffffffffffffffffffffffffffffffffffffffffffffff601081905561176f90622625a06158fc565b60115561019a60495560025461178690600a6179ee565b611792906101f46179fa565b601d55604580547fffffffffffffffffffffffffffffffffffffffffffffffffffffffffffffff00166001179055565b600060476040516117d39190617bce565b604051809103902087805190602001201461184f576040517f08c379a000000000000000000000000000000000000000000000000000000000815260206004820152601460248201527f426c6f636b486561646572206d69736d6174636800000000000000000000000060448201526064015b60405180910390fd5b601254861461185d57600080fd5b604860405161186c9190617bce565b60405180910390208380519060200120146118e3576040517f08c379a000000000000000000000000000000000000000000000000000000000815260206004820152601160248201527f5365656468617368206d69736d617463680000000000000000000000000000006044820152606401611846565b6011548411156118f257600080fd5b6040517fffffffffffffffffffffffffffffffffffffffff0000000000000000000000003360601b1660208201527fffffffff0000000000000000000000000000000000000000000000000000000089166034820152600090603801604080517fffffffffffffffffffffffffffffffffffffffffffffffffffffffffffffffe0818403018152918152815160209283012060125460009081526046845282812082825290935290822054909250908190036119ad57600080fd5b60008a87878a6040516020016119c69493929190617c62565b6040516020818303038152906040528051906020012090508181146119ea57600080fd5b6012546000908152601660205260409020548015611a0757600080fd5b6012546000908152601660205260409020839055600254611a2990600a6179ee565b611a3690621cd6d06179fa565b60175411611a5d576801f30795e38ed87acc60135568da5351938e7eb5b95c600555611bc6565b600254611a6b90600a6179ee565b611a78906269be506179fa565b6017541015611aa1576801bb94f70329a3fb606013556901b4a6a3271cfd6b72b8600555611bc6565b600254611aaf90600a6179ee565b611abc9062aba9506179fa565b6017541015611ae55768011d28e7efbf572199601355690118b444500059c512e4600555611bc6565b600254611af390600a6179ee565b611b009062cc9ed06179fa565b6017541015611b2757678e9473f7dfab90cc601355688c5a2228002ce289a4600555611bc6565b600254611b3590600a6179ee565b611b429062dd19906179fa565b6017541015611b695767474a39fbefd5c86660135568462d111400167144a0600555611bc6565b600354600090611b7b9061271061591b565b90506000611b8a8260646158fc565b9050611ba8631f5406b0611ba260648185605061591b565b906158fc565b601355611bc06207f4d5611ba260648185601461591b565b60055550505b601354601754611bd591615947565b6017819055600b5411611bea57611bea617cc7565b601354600354611bf991615947565b60035560135433600090815260096020526040902054611c1891615947565b33600081815260096020526040902091909155601480547fffffffffffffffffffffffff000000000000000000000000000000000000000016909117905543601555611c62615962565b601354600d546012546040805193845260208401929092529082015233907fcf6fbb9dcea7d07263ab4f5c3a92f53af33dffc421d9d121e1c74b307e68189d9060600160405180910390a2601354604051908152339030907fddf252ad1be2c89b69c2b068fc378daa952ba7f163c4a11628f55a4df523b3ef9060200160405180910390a35060019b9a5050505050505050505050565b60008054611d0690617a11565b80601f0160208091040260200160405190810160405280929190818152602001828054611d3290617a11565b8015611d7f5780601f10611d5457610100808354040283529160200191611d7f565b820191906000526020600020905b815481529060010190602001808311611d6257829003601f168201915b505050505081565b336000818152600a6020908152604080832073ffffffffffffffffffffffffffffffffffffffff8716808552925280832085905551919290917f8c5be1e5ebec7d5bd14f71427d1e84f3dd0314c0f7b2291e5b200ac8c7c3b92590611def9086815260200190565b60405180910390a35060015b92915050565b600083833384604051602001611e1a9493929190617cf6565b604080517fffffffffffffffffffffffffffffffffffffffffffffffffffffffffffffffe08184030181529181528151602092830120336000908152603c8452828120828252909352912054909150611e7257600080fd5b6000848152603160205260409020805415801590611e935750848160010154145b611e9c57600080fd5b6000858152603460205260409020601c546001820154611ebb91615947565b4211611ec657600080fd5b336000818152603c602090815260408083208784528252808320549383526041909152902054611ef591615a40565b336000908152604160209081526040808320939093556003850154825260259052908120601954909190611f2a9042906158fc565b90506000611f566001611f50601954611ba2601c54601b5461594790919063ffffffff16565b90615947565b6001840154909150611f689082615947565b821015611f7457600080fd5b60008815611f80575060015b336000908152603c602090815260408083208a84529091528120546005870154602154601a54929392611fc99261271092611ba292611fc391600491839161591b565b9061591b565b905060038088810154610100900460ff1690811115611fea57611fea617601565b03611ff457506044545b600387810154610100900460ff169081111561201257612012617601565b83600381111561202457612024617601565b0361206357612060612710611ba289600501546127116120449190617d33565b611fc36002611fc3602154601a5461591b90919063ffffffff16565b90505b336000908152603c602090815260408083208c845290915281205461209090606490611ba290600a61591b565b90506126ac88600501541180156120d55750600388810154610100900460ff16908111156120c0576120c0617601565b8460038111156120d2576120d2617601565b14155b156120e8576120e581600261591b565b90505b60408051828152602081018f905233917f53ef86fe8b545e88c8078a71aa8a9be4140e6f140b4e36f0ffee9207cf1ee896910160405180910390a26008546121309082615947565b600855336000908152603c602090815260408083208d84529091529020546121589082615a40565b925060015b336000908152603f6020526040902054811161224f57336000908152603e6020908152604080832084845290915290205482101561220557336000908152603e602090815260408083208484529091529020546121ba9083615a40565b336000818152603e602090815260408083208684528252808320949094559181529082905220546121eb9083615a40565b33600090815260406020819052812091909155915061224f565b336000908152603e6020908152604080832084845290915290205461222b908390615a40565b91506122373382615a59565b811561224f578061224781617d46565b91505061215d565b5082156124945760408051848152602081018f905290810183905233907fd93567a4d470fa277429086aae141410cccc35c73954734ea3e24152fc044f359060600160405180910390a260015b336000908152603f6020526040902054811161249257336000908152603e60209081526040808320848452909152902054841061239f57336000908152603e6020908152604080832084845290915290206001015442101561234357336000908152603e602090815260408083208484529091529020600101546123209084615947565b336000908152603e6020908152604080832085845290915290206001015561236c565b61234d4284615947565b336000908152603e602090815260408083208584529091529020600101555b336000908152603e60209081526040808320848452909152902054612392908590615a40565b9350831561249257612480565b336000908152603e602090815260408083208484529091528120546123c49086615a40565b336000908152603e6020908152604080832086845290915290206001810154908790559091504281111561243d57336000908152603e6020908152604080832086845290915290206001015461241a9086615947565b336000908152603e60209081526040808320878452909152902060010155612466565b6124474286615947565b336000908152603e602090815260408083208784529091529020600101555b811561247957612477338383615b98565b505b5050612492565b8061248a81617d46565b91505061229c565b505b6001890154336000818152603c602090815260408083208f84528252918290205491519182527f3ededec39a86b2261e09be07993014ceae66346b9af09000ec0cc87fe2d8f9de910160405180910390a3336000908152603c602090815260408083208d845290915281208181556001015550505050505050505050505050565b60488054611d0690617a11565b600061253b6011546010546158fc90919063ffffffff16565b905090565b6000868152602d60205260409020541580159061256d5750602c546000878152602d602052604090205411155b61257657600080fd5b6000868152602d60209081526040808320548352602b909152902054861461259d57600080fd5b6036548111156125ac57600080fd5b600083876040516020016125c1929190617d7e565b604080517fffffffffffffffffffffffffffffffffffffffffffffffffffffffffffffffe0818403018152918152815160209283012060008a81526030909352912054909150612612906001615947565b6000888152603060209081526040808320849055602f825280832093835292905220819055603354612645906001615947565b60338190556000908152603260209081526040808320849055838352603190915290206001015480151580612687575060008281526031602052604090205415155b1561269157600080fd5b60006126a8601954426158fc90919063ffffffff16565b600081815260296020526040812054919250036126c7576126c7615c38565b60008381526031602090815260408083206033548155600281018d90558484526029909252909120546003820155600181018490556005810180547fffffffffffffffffffffffff00000000000000000000000000000000000000001633179055600681016127368a82617ab4565b50600781016127458982617ab4565b50600981016127548882617ab4565b50600881016127638782617ab4565b5060008481526034602052604081206003810180547fffffffffffffffffffffffffffffffffffffffffffffffffffffffffff00000016620102021790556004810182905560058101829055600681018290556007810182905560088101829055600981019190915542808255601b546127dd9190615947565b6001820155601f54600a820155601e54336000908152603d6020526040902054101561280857600080fd5b601e54336000908152603d602052604090205461282491615a40565b336000908152603d6020908152604080832093909355601e5460419091529190205461284f91615947565b33600081815260416020908152604080832094909455600186810154808452603b8352858420858552835285842090815590810180547fffffffffffffffffffffffffffffffffffffffffffffffffffffffffffff000016610101179055601e546002820155600380820180547fffffffffffffffffffffffff00000000000000000000000000000000000000001690951790945542600482015592850180547fffffffffffffffffffffffffffffffffffffffffffffffffffffffffffff00ff16610300179055898252603590529190912054801580159061294257506000888152603560205260409020600101548d145b1561299357600484018890556000888152603a6020526040902054612968906001615947565b6000898152603a60209081526040808320849055600188015460388352818420948452939091529020555b6018546040805160208101929092528101889052606001604080518083037fffffffffffffffffffffffffffffffffffffffffffffffffffffffffffffffe001815290829052805160209182012060185560028601548983528a92909133917ff20f961bd89931f54768689d741307497501063bee5847fc3fcaa72b026d1859910160405180910390a450505050505050505050505050565b604b5460ff1615612a3c57600080fd5b735ccccb6d334197c7c4ba94e7873d0ef11381cd4e600052604c6020527f611c760936f6bcd8b272aaf27c956ce8682ee5346240bf1157df84e64607fb9e805460017fffffffffffffffffffffffffffffffffffffffffffffffffffffffffffffff009182168117909255604b80549091169091179055565b600061253b600854600354615a4090919063ffffffff16565b6127108211612adc57600080fd5b336000908152603d6020526040902054821115612af857600080fd5b336000908152603d6020526040902054612b129083615a40565b336000908152603d6020908152604080832093909355604190522054612b389083615947565b336000908152604160209081526040808320849055603d909152902054612b5e91615947565b336000908152604060208190529020541015612c22576040517f08c379a000000000000000000000000000000000000000000000000000000000815260206004820152605760248201527f457469636152656c656173653a2045786365737320626f736f6d7320666f722060448201527f74686973206e657720766f746520616d6f756e742c20636c61696d20736f6d6560648201527f207374616b6573206265666f7265206e657720766f7465000000000000000000608482015260a401611846565b336000908152603c60209081526040808320848452909152902054612c479083615947565b336000908152603c60209081526040808320858452825291829020928355426001909301929092556018548151928301528101829052606001604080518083037fffffffffffffffffffffffffffffffffffffffffffffffffffffffffffffffe00181528282528051602091820120601855838352820184905233917f8a1ff244f8a72f76c71ce96c1ddf485af695058f9e3638a8359e74257d71a30691015b60405180910390a25050565b73ffffffffffffffffffffffffffffffffffffffff83166000908152604c602052604081205460ff1615612d83576040517f08c379a000000000000000000000000000000000000000000000000000000000815260206004820152601760248201527f46726f6d206164647265737320697320626c6f636b65640000000000000000006044820152606401611846565b73ffffffffffffffffffffffffffffffffffffffff8416600090815260096020526040902054612db39083615a40565b73ffffffffffffffffffffffffffffffffffffffff8516600090815260096020908152604080832093909355600a815282822033835290522054612df79083615a40565b73ffffffffffffffffffffffffffffffffffffffff8086166000908152600a60209081526040808320338452825280832094909455918616815260099091522054612e429083615947565b73ffffffffffffffffffffffffffffffffffffffff80851660008181526009602052604090819020939093559151908616907fddf252ad1be2c89b69c2b068fc378daa952ba7f163c4a11628f55a4df523b3ef90612ea39086815260200190565b60405180910390a35060019392505050565b60316020526000908152604090208054600182015460028301546003840154600485015460058601546006870180549697959694959394929373ffffffffffffffffffffffffffffffffffffffff90921692612f1090617a11565b80601f0160208091040260200160405190810160405280929190818152602001828054612f3c90617a11565b8015612f895780601f10612f5e57610100808354040283529160200191612f89565b820191906000526020600020905b815481529060010190602001808311612f6c57829003601f168201915b505050505090806007018054612f9e90617a11565b80601f0160208091040260200160405190810160405280929190818152602001828054612fca90617a11565b80156130175780601f10612fec57610100808354040283529160200191613017565b820191906000526020600020905b815481529060010190602001808311612ffa57829003601f168201915b50505050509080600801805461302c90617a11565b80601f016020809104026020016040519081016040528092919081815260200182805461305890617a11565b80156130a55780601f1061307a576101008083540402835291602001916130a5565b820191906000526020600020905b81548152906001019060200180831161308857829003601f168201915b5050505050908060090180546130ba90617a11565b80601f01602080910402602001604051908101604052809291908181526020018280546130e690617a11565b80156131335780601f1061310857610100808354040283529160200191613133565b820191906000526020600020905b81548152906001019060200180831161311657829003601f168201915b505050505090508a565b60478054611d0690617a11565b6000838152602d6020526040902054158015906131775750602c546000848152602d602052604090205411155b61318057600080fd5b6000838152602d60209081526040808320548352602b90915290205483146131a757600080fd5b601d546000906131b89060056158fc565b336000908152600960205260409020549091508111156131d757600080fd5b6131e1308261478e565b506036546131f0906001615947565b60365560008481526039602052604090205461320d906001615947565b600085815260396020908152604080832084815560365460378452828520958552948352818420859055815160a0810183528581528084018a81529154818401908152606082018a8152608083018a90529686526035909452919093208151815592516001840155905160028301559151600382019061328d9082617ab4565b50608082015160048201906132a29082617ab4565b50506008546132b2915082615947565b6008556036546040518591907fb733708a2586752275a4854aac54c7bb263ad67859f07d16147feea53ca009d790600090a350505050565b602b602052600090815260409020805460018201805491929161330c90617a11565b80601f016020809104026020016040519081016040528092919081815260200182805461333890617a11565b80156133855780601f1061335a57610100808354040283529160200191613385565b820191906000526020600020905b81548152906001019060200180831161336857829003601f168201915b5050505050905082565b6000600b54601754116133a3575060135490565b50600090565b6133b7426303c26700615947565b83106133c257600080fd5b603281111580156133e25750336000908152603f60205260409020548111155b6133eb57600080fd5b6000806001805b8481116134ec57336000908152603f60205260409020546002116134da57336000908152603f6020526040902054811161342e5780915061344b565b6134388184615a40565b9150600182101561344b5761344b617cc7565b336000908152603e6020908152604080832085845290915290206001015487108015906134955750336000908152603e602090815260408083208584529091529020600101548611155b156134da57336000908152603e602090815260408083208584529091529020546134c0908590615947565b93506134cc3383615a59565b6134d7836001615947565b92505b806134e481617d46565b9150506133f2565b508215613500576134fe338488615d98565b505b604080518781526020810187905233917f52806950881c6df8cc206c3b151fcc9aea7b2d53d8ff441469dffd05e851e3ab910160405180910390a2505050505050565b60405180610100016040528060dd8152602001617ede60dd913981565b60356020526000908152604090208054600182015460028301546003840180549394929391929161359090617a11565b80601f01602080910402602001604051908101604052809291908181526020018280546135bc90617a11565b80156136095780601f106135de57610100808354040283529160200191613609565b820191906000526020600020905b8154815290600101906020018083116135ec57829003601f168201915b50505050509080600401805461361e90617a11565b80601f016020809104026020016040519081016040528092919081815260200182805461364a90617a11565b80156136975780601f1061366c57610100808354040283529160200191613697565b820191906000526020600020905b81548152906001019060200180831161367a57829003601f168201915b5050505050905085565b6000838333846040516020016136ba9493929190617cf6565b604080517fffffffffffffffffffffffffffffffffffffffffffffffffffffffffffffffe08184030181529181528151602092830120336000908152603c845282812082825290935291205490915061371257600080fd5b60008481526031602052604090208054158015906137335750848160010154145b61373c57600080fd5b6000858152603460209081526040808320600180820154338652603c8552838620888752909452919093200154111561377457600080fd5b8060010154421180156137975750601c54600182015461379391615947565b4211155b6137a057600080fd5b6002600382810154610100900460ff16908111156137c0576137c0617601565b036137ca57600080fd5b600881015460098201546003840154600090815260256020908152604080832060018801548452603b83528184203385529092529091205480151580613830575060018601546000908152603b6020908152604080832033845290915290206002015415155b1561383a57600080fd5b6000603b60008860010154815260200190815260200160002060003373ffffffffffffffffffffffffffffffffffffffff1673ffffffffffffffffffffffffffffffffffffffff168152602001908152602001600020905086600101548160000181905550898160010160006101000a81548160ff02191690831515021790555060008160010160016101000a81548160ff021916908315150217905550603c60003373ffffffffffffffffffffffffffffffffffffffff1673ffffffffffffffffffffffffffffffffffffffff1681526020019081526020016000206000898152602001908152602001600020600001548160020181905550338160030160006101000a81548173ffffffffffffffffffffffffffffffffffffffff021916908373ffffffffffffffffffffffffffffffffffffffff1602179055504281600401819055506139986001876004015461594790919063ffffffff16565b6004870155336000908152603c602090815260408083208b8452909152812054670de0b6b3a764000011156139f457336000908152603c602090815260408083208c84529091529020546139ed9060026158fc565b9050613a2a565b613a27613a24670a688906bd8b0000336000908152603c602090815260408083208f845290915290205490615eb6565b90565b90505b33600090815260426020908152604080832060018c0154845290915290208190558a15613a6a576006870154613a609082615947565b6006880155613a7f565b6007870154613a799082615947565b60078801555b6000806000613a9f8a600701548b6006015461594790919063ffffffff16565b90506000613abc6127108c6006015461591b90919063ffffffff16565b600a8c0154909150600090613ad183856158fc565b1115613adc57600194505b600a8c0154613aeb83856158fc565b03613af557600193505b60038c0180547fffffffffffffffffffffffffffffffffffffffffffffffffffffffffff00ffff1662010000861515021790558415613b8157613b4a612710611ba2858f600a0154612710611fc39190617d33565b9050613b6981611ba26127108f6007015461591b90919063ffffffff16565b9050613b7781612710617d33565b60058d0155613bd1565b613b9e612710611ba28e600a01548661591b90919063ffffffff16565b9050613bbd81611ba26127108f6006015461591b90919063ffffffff16565b9050613bcb81612710617d33565b60058d01555b6127108c600501541115613be457600080fd5b60008515613bf0575060015b6003808e810154610100900460ff1690811115613c0f57613c0f617601565b03613c4e578515613c345760068a0154613c2a906001615947565b60068b0155613cec565b60078a0154613c44906001615947565b60078b0155613cec565b60038d810154610100900460ff1690811115613c6c57613c6c617601565b816003811115613c7e57613c7e617601565b14613cec576001816003811115613c9757613c97617601565b03613cc15760078a0154613cac906001615a40565b60078b015560068a0154613c2a906001615947565b60068a0154613cd1906001615a40565b60068b015560078a0154613ce6906001615947565b60078b01555b8415613d575760038d0180547fffffffffffffffffffffffffffffffffffffffffffffffffffffffffffff00ff169055600060088e0181905560098e015560028a0154613d39908d615a40565b60028b015560038a0154613d4d908c615a40565b60038b0155613e3b565b8515613dd05760038d0180547fffffffffffffffffffffffffffffffffffffffffffffffffffffffffffff00ff1661010017905560068d015460088e0181905560098e0181905560028b0154613db29190611f50908f615a40565b60028b015560098d015460038b0154613d4d9190611f50908e615a40565b60038d0180547fffffffffffffffffffffffffffffffffffffffffffffffffffffffffffff00ff16905560078d015460088e01819055600060098f015560028b0154613e219190611f50908f615a40565b60028b015560038a0154613e35908c615a40565b60038b01555b60018e0154600289015460405190815233907f4627acd8194d77d62502e6eb464100f9c2d8a487c62a6fd54048d3d8f1cb5c519060200160405180910390a3613ea98f336000908152603c602090815260408083208484528083529083208381559383529052600190910155565b505050505050505050505050505050505050565b6040805160008152602081018083528151902091613edd91849101617da0565b6040516020818303038152906040528051906020012003613efd57600080fd5b601d54336000908152600960205260409020541015613f1b57600080fd5b613f2730601d5461478e565b50601d54600854613f3791615947565b600855604051600090613f4e9083906020016172d8565b604051602081830303815290604052805190602001209050613f7c6001602c5461594790919063ffffffff16565b602c556000818152602d602052604090205415613f9857600080fd5b602e82604051613fa89190617da0565b9081526040519081900360200190205415613fc257600080fd5b6040805180820182528281526020808201858152602c546000908152602b9092529290208151815591519091906001820190613ffe9082617ab4565b5050602c546000838152602d6020526040908190209190915551829150602e90614029908590617da0565b908152602001604051809103902081905550602c547f830578780908e1ff0fbde38777892998c31b30c39451a5a3b0e99cbf7bd781df83604051612ce791906172d8565b336000908152603c6020908152604080832084845290915290205461409157600080fd5b336000818152603c6020908152604080832085845282528083205493835260419091529020546140c091615a40565b33600090815260416020908152604080832093909355603c815282822084835290529081205460445490916140fb6064611ba285601561591b565b604080518281526000602082015291925033917f53ef86fe8b545e88c8078a71aa8a9be4140e6f140b4e36f0ffee9207cf1ee896910160405180910390a26008546141469082615947565b600855336000908152603c6020908152604080832087845290915290205461416e9082615a40565b925060015b336000908152603f6020526040902054811161426557336000908152603e6020908152604080832084845290915290205482101561421b57336000908152603e602090815260408083208484529091529020546141d09083615a40565b336000818152603e602090815260408083208684528252808320949094559181529082905220546142019083615a40565b336000908152604060208190528120919091559150614265565b336000908152603e60209081526040808320848452909152902054614241908390615a40565b915061424d3382615a59565b8115614265578061425d81617d46565b915050614173565b5082156144aa57604080518481526000602082015290810183905233907fd93567a4d470fa277429086aae141410cccc35c73954734ea3e24152fc044f359060600160405180910390a260015b336000908152603f602052604090205481116144a857336000908152603e6020908152604080832084845290915290205484106143b557336000908152603e6020908152604080832084845290915290206001015442101561435957336000908152603e602090815260408083208484529091529020600101546143369084615947565b336000908152603e60209081526040808320858452909152902060010155614382565b6143634284615947565b336000908152603e602090815260408083208584529091529020600101555b336000908152603e602090815260408083208484529091529020546143a8908590615a40565b935083156144a857614496565b336000908152603e602090815260408083208484529091528120546143da9086615a40565b336000908152603e6020908152604080832086845290915290206001810154908790559091504281111561445357336000908152603e602090815260408083208684529091529020600101546144309086615947565b336000908152603e6020908152604080832087845290915290206001015561447c565b61445d4286615947565b336000908152603e602090815260408083208784529091529020600101555b811561448f5761448d338383615b98565b505b50506144a8565b806144a081617d46565b9150506142b2565b505b336000818152603c6020908152604080832088845282528083205490519081529192917f3ededec39a86b2261e09be07993014ceae66346b9af09000ec0cc87fe2d8f9de910160405180910390a3336000908152603c6020908152604080832087845290915281208181556001015550505050565b6040805160208082018590523360601b7fffffffffffffffffffffffffffffffffffffffff0000000000000000000000001682840152605480830188905283518084039091018152607490920190925280519101206000908281111561458457600080fd5b909314949350505050565b6000606060476040516145a29190617bce565b60405180910390208680519060200120146145f557505060408051808201909152601481527f426c6f636b486561646572206d69736d617463680000000000000000000000006020820152600090614778565b601254851461463c57505060408051808201909152601281527f4368616c6c656e6765206d69736d6174636800000000000000000000000000006020820152600090614778565b604860405161464b9190617bce565b604051809103902083805190602001201461469e57505060408051808201909152601181527f5365656468617368206d69736d617463680000000000000000000000000000006020820152600090614778565b6011548411156146e657505060408051808201909152601781527f436c61696d65642074617267657420746f6f20686967680000000000000000006020820152600090614778565b6012546000908152601660205260409020541561473e5760006040518060400160405280602081526020017f4368616c6c656e676520616c726561647920686173206120736f6c7574696f6e81525091509150614778565b505060408051808201909152601481527f416c6c20706172616d65746572732076616c696400000000000000000000000060208201526001905b94509492505050565b60018054611d0690617a11565b600080821161479c57600080fd5b336000908152600960205260409020546147b69083615a40565b336000908152600960205260408082209290925573ffffffffffffffffffffffffffffffffffffffff8516815220546147ef9083615947565b73ffffffffffffffffffffffffffffffffffffffff84166000818152600960205260409081902092909255905133907fddf252ad1be2c89b69c2b068fc378daa952ba7f163c4a11628f55a4df523b3ef90611def9086815260200190565b60025461485b90600a6179ee565b614869906301406f406179fa565b600354101561487757600080fd5b60346026546148869190617deb565b1561489057600080fd5b60006148b56509184e72a000611ba26302d69be660035461591b90919063ffffffff16565b905060006148dc655af3107a4000611ba26302d69be660035461591b90919063ffffffff16565b601e819055601d839055602654602454919250116148fc576148fc617cc7565b5050602654602455565b6000811161491357600080fd5b6000821180156149325750336000908152603f60205260409020548211155b61493b57600080fd5b336000908152603e6020908152604080832085845290915290208054821061496257600080fd5b80546000906149719084615a40565b838355336000908152603f6020526040902054909150614992906001615947565b336000908152603f6020526040902081905560641015614a0e576040517f08c379a000000000000000000000000000000000000000000000000000000000815260206004820181905260248201527f43616e6e6f74206d616b65206d6f7265207468616e20313030207374616b65736044820152606401611846565b6040805180820182528281526001808501546020808401918252336000908152603e8252858120603f83528682205482529091529390932091518255915191015580614a5c57614a5c617cc7565b60405183815233907f5bbe98d566948f7d7db717dafb0a14082df525118fac86c23df2302f161c03479060200160405180910390a250505050565b6000602e82604051614aa99190617da0565b9081526020016040518091039020549050919050565b60003373ffffffffffffffffffffffffffffffffffffffff841614614ae357600080fd5b60008211614af057600080fd5b614afa308361478e565b50614b058383615fc8565b50600192915050565b60435460ff1615614b1e57600080fd5b600254614b2c90600a6179ee565b614b379060646179fa565b601e556090600e55600254614b4d90600a6179ee565b614b5a9062f053706179fa565b600b55614b65616030565b601054601154614b779061010061591b565b11614b8f57601154614b8b9061010061591b565b6011555b62127500604455604380547fffffffffffffffffffffffffffffffffffffffffffffffffffffffffffffff00166001179055565b600081118015614be25750336000908152603f60205260409020548111155b614beb57600080fd5b336000908152603e60209081526040808320848452909152902060018101544211614c1557600080fd5b336000908152604160209081526040808320549181905290912054614c3991615a40565b81541115614c4657600080fd5b33600090815260416020908152604080832054603d90925290912054614c6b91615947565b815433600090815260406020819052902054614c8691615a40565b1015614d14573360009081526041602090815260408083205484549282905290832054614cbd92614cb79190615a40565b90615a40565b1115614d035733600090815260416020908152604080832054845492829052922054614cee9291614cb79190615a40565b336000908152603d6020526040902055614d14565b336000908152603d60205260408120555b805430600090815260096020526040902054614d2f91615a40565b3060009081526009602052604080822092909255825433825291902054614d5591615947565b336000818152600960209081526040918290209390935583549051908152909130917fddf252ad1be2c89b69c2b068fc378daa952ba7f163c4a11628f55a4df523b3ef910160405180910390a3805460405190815233907f2aeea59856f5616c244717fd488ead1d1b5fd33608d9583a4607b4c4ba3631e49060200160405180910390a2614de33383615a59565b5050565b6000818152603160205260409020805415801590614e085750818160010154145b614e1157600080fd5b6000828152603460205260409020601c546001820154614e3091615947565b4211614e3b57600080fd5b60018201546000908152603b60209081526040808320338452909152902080548414614e6657600080fd5b600581015460ff1615614e7857600080fd5b6005810180547fffffffffffffffffffffffffffffffffffffffffffffffffffffffffffffff00166001179055600281015433600090815260416020526040902054614ec391615a40565b336000908152604160209081526040808320939093556003860154825260259052908120601954909190614ef89042906158fc565b90506000614f1e6001611f50601954611ba2601c54601b5461594790919063ffffffff16565b6001840154909150614f309082615947565b821015614f3c57600080fd5b600260038087015460ff1690811115614f5757614f57617601565b03614fe5576001600386810154610100900460ff1690811115614f7c57614f7c617601565b03614fb3576003850180547fffffffffffffffffffffffffffffffffffffffffffffffffffffffffffffff00166001179055614fde565b6003850180547fffffffffffffffffffffffffffffffffffffffffffffffffffffffffffffff001690555b4260028601555b600385015462010000900460ff166156bd57600184015460009060ff161561500b575060015b60038087015460ff169081111561502457615024617601565b81600381111561503657615036617601565b146154b057600085600201549050600061506b612710611ba28a60050154611fc3602154601a5461591b90919063ffffffff16565b6001880154909150610100900460ff16156150915760225461508e90829061591b565b90505b612328886005015411156152635760006150be6064611ba260038b6002015461591b90919063ffffffff16565b90506126ac896005015411156150ee576150eb6064611ba260078b6002015461591b90919063ffffffff16565b90505b6001880154610100900460ff1615615107575060028701545b875460405133917f53ef86fe8b545e88c8078a71aa8a9be4140e6f140b4e36f0ffee9207cf1ee8969161514291858252602082015260400190565b60405180910390a26008546151579082615947565b60085560028801546151699082615a40565b925060015b336000908152603f6020526040902054811161526057336000908152603e6020908152604080832084845290915290205482101561521657336000908152603e602090815260408083208484529091529020546151cb9083615a40565b336000818152603e602090815260408083208684528252808320949094559181529082905220546151fc9083615a40565b336000908152604060208190528120919091559150615260565b336000908152603e6020908152604080832084845290915290205461523c908390615a40565b91506152483382615a59565b8115615260578061525881617d46565b91505061516e565b50505b81156154a9578654604080518481526020810192909252810182905233907fd93567a4d470fa277429086aae141410cccc35c73954734ea3e24152fc044f359060600160405180910390a260015b336000908152603f602052604090205481116154a757336000908152603e6020908152604080832084845290915290205483106153b457336000908152603e6020908152604080832084845290915290206001015442101561535857336000908152603e602090815260408083208484529091529020600101546153359083615947565b336000908152603e60209081526040808320858452909152902060010155615381565b6153624283615947565b336000908152603e602090815260408083208584529091529020600101555b336000908152603e602090815260408083208484529091529020546153a7908490615a40565b925082156154a757615495565b336000908152603e602090815260408083208484529091528120546153d99085615a40565b336000908152603e6020908152604080832086845290915290206001810154908690559091504281111561545257336000908152603e6020908152604080832086845290915290206001015461542f9085615947565b336000908152603e6020908152604080832087845290915290206001015561547b565b61545c4285615947565b336000908152603e602090815260408083208784529091529020600101555b811561548e5761548c338383615b98565b505b50506154a7565b8061549f81617d46565b9150506152b1565b505b50506156bb565b6000808560020154116154c257600080fd5b6001860154610100900460ff16615562573360009081526042602090815260408083208c84529091529020541561553957600285015460048601543360009081526042602090815260408083208e84529091529020546155329261552b929091611ba29161591b565b8290615947565b9050615562565b61555f61552b8660020154611ba288600401548a6002015461591b90919063ffffffff16565b90505b6001860154610100900460ff1680156155935750600160038089015460ff169081111561559157615591617601565b145b156155d25760008560030154116155a957600080fd5b6155cf61552b8660030154611ba288600501548b6009015461591b90919063ffffffff16565b90505b600585015460048601546155e591615947565b8111156155f157600080fd5b3060009081526009602052604090205461560b9082615a40565b3060009081526009602052604080822092909255338152205461562e9082615947565b336000818152600960205260409081902092909255905130907fddf252ad1be2c89b69c2b068fc378daa952ba7f163c4a11628f55a4df523b3ef906156769085815260200190565b60405180910390a360408051828152602081018b905233917fe413caa6d70a6d9b51c2af2575a2914490f614355049af8ae7cde5caab9fd201910160405180910390a2505b505b3360009081526042602090815260408083208a8452909152902054156156f9573360009081526042602090815260408083208a84529091528120555b600385015462010000900460ff16156157425760405187815233907f3e0648214287dbba314854c056353ff9db951ab8f6459ea7c7f922025ba9fdfe9060200160405180910390a25b50505050505050565b6060600061575a600143617d33565b601854601254604080519340602085015283019190915260608201526080016040516020818303038152906040528051906020012090506000816001436157a19190617d33565b604080516020810193909352904090820152336060820152608001604080517fffffffffffffffffffffffffffffffffffffffffffffffffffffffffffffffe08184030181528282528051602091820120600d54918401819052918301529150600090606001604080518083037fffffffffffffffffffffffffffffffffffffffffffffffffffffffffffffffe00181528282528051602091820120604a8790559083018690529082018490527fffffffffffffffffffffffffffffffff00000000000000000000000000000000811660608301529150607001604051602081830303815290604052935050505090565b6018546012546040516060926158ad92604892602001617dff565b604080517fffffffffffffffffffffffffffffffffffffffffffffffffffffffffffffffe081840301815282825280516020918201209083015201604051602081830303815290604052905090565b600080821161590a57600080fd5b6159148284617eb6565b9392505050565b600061592782846179fa565b905082158061593e57508161593c8483617eb6565b145b611dfb57600080fd5b60006159538284617eca565b905082811015611dfb57600080fd5b600d54615970906001615947565b600d819055600e5461598191617deb565b60000361599057615990616030565b604954600d546159a09190617deb565b6000036159be576159af615892565b6048906159bc9082617ab4565b505b6159c9436001615a40565b406012819055601854600d546040805160208101949094528301919091526060820152608001604080517fffffffffffffffffffffffffffffffffffffffffffffffffffffffffffffffe08184030181529190528051602090910120601255615a3061574b565b604790615a3d9082617ab4565b50565b600082821115615a4f57600080fd5b6159148284617d33565b600081118015615a8e575073ffffffffffffffffffffffffffffffffffffffff82166000908152603f60205260409020548111155b615a9757600080fd5b73ffffffffffffffffffffffffffffffffffffffff82166000818152603e6020908152604080832085845282528083205493835290819052902054615adb91615a40565b73ffffffffffffffffffffffffffffffffffffffff831660008181526040602081815281832094909455603e8452808220603f808652828420805485528287528385208886528486208154815560019182015490820155845180860186528681528089018781528354885294895294862094518555925193830193909355939092529190925254615b6b91615a40565b73ffffffffffffffffffffffffffffffffffffffff9092166000908152603f602052604090209190915550565b6000808311615ba657600080fd5b73ffffffffffffffffffffffffffffffffffffffff84166000908152603f6020526040902054615bd7906001615947565b73ffffffffffffffffffffffffffffffffffffffff949094166000818152603f6020908152604080832088905580518082018252968752868201958652928252603e8152828220968252959095529093209151825551600191820155919050565b6000615c4f601954426158fc90919063ffffffff16565b6000818152602960205260409020549091508015615c6c57600080fd5b602654615c7a906001615947565b6026818155604080516101008101825283815260208082018781526000838501818152606085018281526080860183815260a0870184815260c0880185815260e089018681529b8652602588528986209851895595516001808a0191909155935160028901559151600388015551600487015551600586015591516006850155955160079093019290925592548685526029909352922055602a54615d1e91615947565b602a55602654615d2d906161e8565b50602054602654615d3f906001615a40565b615d499190617deb565b158015615d5857506001602654115b15615d6557615d6561634f565b6026546040518381527ff74223d764da704d974281758065d2eb6c9066dc940e3f549b72e894b0404aef90602001612ce7565b6000808311615da657600080fd5b73ffffffffffffffffffffffffffffffffffffffff84166000908152603f6020526040902054615dd7906001615947565b73ffffffffffffffffffffffffffffffffffffffff85166000908152603f60209081526040808320939093558290522054615e129084615947565b73ffffffffffffffffffffffffffffffffffffffff85166000818152604060208181528183209490945580518082018252878152808501878152848452603e8652828420603f87528385205485529095529181902091518255925160019091015590517f42e99fbad9601d25ee3bb515eeee966f97c3c383adadbe5720f651df8c18989d90615ea49086815260200190565b60405180910390a25060019392505050565b60008282818303615ee1578015615ece576000615ed8565b670de0b6b3a76400005b92505050611dfb565b670de0b6b3a76400008203615f0257670de0b6b3a764000092505050611dfb565b80600003615f1c57670de0b6b3a764000092505050611dfb565b670de0b6b3a76400008103615f35578492505050611dfb565b670de0b6b3a7640000821115615f6657615f5f615f5a615f54876164cc565b86616632565b616641565b9250615fc0565b6000615f84613a24846ec097ce7bc90715b34b9f1000000000617eb6565b90506000615f9d615f5a615f97846164cc565b88616632565b9050615fbb613a24826ec097ce7bc90715b34b9f1000000000617eb6565b945050505b505092915050565b615fd282826166b8565b5073ffffffffffffffffffffffffffffffffffffffff82166000908152603d60205260409020546160039082615947565b73ffffffffffffffffffffffffffffffffffffffff9092166000908152603d602052604090209190915550565b601154600c54600090616044904290615a40565b9050600061605f610258600e5461591b90919063ffffffff16565b90508082101561610157600061607b83611ba2846103e861591b565b9050610fa081111561608c5750610fa05b60105461609b906103e86158fc565b60115410156160c7576160bf81611ba26103e860115461591b90919063ffffffff16565b6011556160d8565b6010546160d490826158fc565b6011555b6160e38460046158fc565b60115410156160fb576160f78460046158fc565b6011555b506161b9565b600061611382611ba2856103e861591b565b9050610fa08111156161245750610fa05b60105461613190826158fc565b6011541161615c576161546103e8611ba28360115461591b90919063ffffffff16565b601155616163565b6010546011555b61618e7fffffffffffffffffffffffffffffffffffffffffffffffffffffffffffffffff60046158fc565b84116161b75761619f84600461591b565b60115411156161b7576161b384600461591b565b6011555b505b42600c55600f5460115410156161d057600f546011555b60105460115411156161e3576010546011555b505050565b600080602654116161f857600080fd5b60008211801561620a57506026548211155b61621357600080fd5b6000828152602560205260408120805490910361622f57600080fd5b8054600090815260276020526040902054801561624b57600080fd5b6000600254600a61625c91906179ee565b61626a906301406f406179fa565b600354106162a15761629a6c7e37be2022c0914b2680000000611ba260045460035461591b90919063ffffffff16565b90506162a6565b506005545b6162c464174876e800611ba26006548461591b90919063ffffffff16565b60048401556007546162e29064174876e80090611ba290849061591b565b60058401556003546162f49082615947565b600355306000908152600960205260409020546163119082615947565b30600090815260096020908152604080832093909355855482526027905220819055602854616341906001615947565b602855506001949350505050565b60008060008061636c602054602654615a4090919063ffffffff16565b90505b60265461637d906001615a40565b81116163d4576000818152602560205260409020600601546163a0908490615947565b6000828152602560205260409020600701549093506163c0908390615947565b9150806163cc81617d46565b91505061636f565b506163df8282615947565b6000036163f057611388925061640c565b6164096163fd8383615947565b611ba28461271061591b565b92505b60235483101561645e576023546000906164269085615a40565b905061645561644c612710611ba284611fc3611194601f54615a4090919063ffffffff16565b601f5490615a40565b601f55506164a2565b600061647560235485615a4090919063ffffffff16565b905061649d616494612710611ba284601f54612710611fc39190617d33565b601f5490615947565b601f55505b611194601f5410156164b557611194601f555b6126ac601f5411156161e3576126ac601f55505050565b600081670de0b6b3a7640000811015616514576040517f36d32ef000000000000000000000000000000000000000000000000000000000815260048101849052602401611846565b60006165a0670de0b6b3a7640000830460016fffffffffffffffffffffffffffffffff821160071b91821c67ffffffffffffffff811160061b90811c63ffffffff811160051b90811c61ffff811160041b90811c60ff8111600390811b91821c600f811160021b90811c918211871b91821c969096119490961792909217171791909117919091171790565b9050670de0b6b3a7640000810282821c7ffffffffffffffffffffffffffffffffffffffffffffffffff21f494c589c000081016165e357815b9695505050505050565b671bc16d674ec800006706f05b59d3b200005b801561662657670de0b6b3a764000083800204925081831061661e579283019260019290921c915b60011c6165f6565b50919695505050505050565b6000615914613a2484846167fc565b600081680a688906bd8affffff81111561668a576040517fb3b6ba1f00000000000000000000000000000000000000000000000000000000815260048101849052602401611846565b60006166a2670de0b6b3a7640000604084901b617eb6565b90506166b0613a2482616903565b949350505050565b60008082116166c657600080fd5b73ffffffffffffffffffffffffffffffffffffffff83166000908152603f60205260409020546166f7906001615947565b73ffffffffffffffffffffffffffffffffffffffff84166000908152603f602090815260408083209390935582905220546167329083615947565b73ffffffffffffffffffffffffffffffffffffffff8416600090815260406020819052812091909155601a54616769904290615947565b604080518082018252858152602080820184815273ffffffffffffffffffffffffffffffffffffffff89166000818152603e8452858120603f855286822054825284528590209351845590516001909301929092559151868152929350917f42e99fbad9601d25ee3bb515eeee966f97c3c383adadbe5720f651df8c18989d910160405180910390a25060019392505050565b600080807fffffffffffffffffffffffffffffffffffffffffffffffffffffffffffffffff8486098486029250828110838203039150508060000361684e5750670de0b6b3a764000090049050611dfb565b670de0b6b3a76400008110616899576040517f5173648d0000000000000000000000000000000000000000000000000000000081526004810186905260248101859052604401611846565b6000670de0b6b3a7640000858709620400008185030493109091037d40000000000000000000000000000000000000000000000000000000000002919091177faccb18165bd6fe31ae1cf318dc5b51eee0e1ba569b88cd74c1773b91fac106690291505092915050565b7780000000000000000000000000000000000000000000000067ff00000000000000821615616a245767800000000000000082161561694b5768016a09e667f3bcc9090260401c5b67400000000000000082161561696a576801306fe0a31b7152df0260401c5b672000000000000000821615616989576801172b83c7d517adce0260401c5b6710000000000000008216156169a85768010b5586cf9890f62a0260401c5b6708000000000000008216156169c7576801059b0d31585743ae0260401c5b6704000000000000008216156169e657680102c9a3e778060ee70260401c5b670200000000000000821615616a055768010163da9fb33356d80260401c5b670100000000000000821615616a2457680100b1afa5abcbed610260401c5b66ff000000000000821615616b23576680000000000000821615616a515768010058c86da1c09ea20260401c5b6640000000000000821615616a6f576801002c605e2e8cec500260401c5b6620000000000000821615616a8d57680100162f3904051fa10260401c5b6610000000000000821615616aab576801000b175effdc76ba0260401c5b6608000000000000821615616ac957680100058ba01fb9f96d0260401c5b6604000000000000821615616ae75768010002c5cc37da94920260401c5b6602000000000000821615616b05576801000162e525ee05470260401c5b6601000000000000821615616b235768010000b17255775c040260401c5b65ff0000000000821615616c195765800000000000821615616b4e576801000058b91b5bc9ae0260401c5b65400000000000821615616b6b57680100002c5c89d5ec6d0260401c5b65200000000000821615616b885768010000162e43f4f8310260401c5b65100000000000821615616ba557680100000b1721bcfc9a0260401c5b65080000000000821615616bc25768010000058b90cf1e6e0260401c5b65040000000000821615616bdf576801000002c5c863b73f0260401c5b65020000000000821615616bfc57680100000162e430e5a20260401c5b65010000000000821615616c19576801000000b1721835510260401c5b64ff00000000821615616d0657648000000000821615616c4257680100000058b90c0b490260401c5b644000000000821615616c5e5768010000002c5c8601cc0260401c5b642000000000821615616c7a576801000000162e42fff00260401c5b641000000000821615616c965768010000000b17217fbb0260401c5b640800000000821615616cb2576801000000058b90bfce0260401c5b640400000000821615616cce57680100000002c5c85fe30260401c5b640200000000821615616cea5768010000000162e42ff10260401c5b640100000000821615616d0657680100000000b17217f80260401c5b63ff000000821615616dea576380000000821615616d2d5768010000000058b90bfc0260401c5b6340000000821615616d48576801000000002c5c85fe0260401c5b6320000000821615616d6357680100000000162e42ff0260401c5b6310000000821615616d7e576801000000000b17217f0260401c5b6308000000821615616d9957680100000000058b90c00260401c5b6304000000821615616db45768010000000002c5c8600260401c5b6302000000821615616dcf576801000000000162e4300260401c5b6301000000821615616dea5768010000000000b172180260401c5b62ff0000821615616ec55762800000821615616e0f576801000000000058b90c0260401c5b62400000821615616e2957680100000000002c5c860260401c5b62200000821615616e435768010000000000162e430260401c5b62100000821615616e5d57680100000000000b17210260401c5b62080000821615616e775768010000000000058b910260401c5b62040000821615616e91576801000000000002c5c80260401c5b62020000821615616eab57680100000000000162e40260401c5b62010000821615616ec5576801000000000000b1720260401c5b61ff00821615616f9757618000821615616ee857680100000000000058b90260401c5b614000821615616f015768010000000000002c5d0260401c5b612000821615616f1a576801000000000000162e0260401c5b611000821615616f335768010000000000000b170260401c5b610800821615616f4c576801000000000000058c0260401c5b610400821615616f6557680100000000000002c60260401c5b610200821615616f7e57680100000000000001630260401c5b610100821615616f9757680100000000000000b10260401c5b60ff821615617060576080821615616fb857680100000000000000590260401c5b6040821615616fd0576801000000000000002c0260401c5b6020821615616fe857680100000000000000160260401c5b6010821615617000576801000000000000000b0260401c5b600882161561701857680100000000000000060260401c5b600482161561703057680100000000000000030260401c5b600282161561704857680100000000000000010260401c5b600182161561706057680100000000000000010260401c5b670de0b6b3a76400000260409190911c60bf031c90565b7f4e487b7100000000000000000000000000000000000000000000000000000000600052604160045260246000fd5b600082601f8301126170b757600080fd5b813567ffffffffffffffff808211156170d2576170d2617077565b604051601f83017fffffffffffffffffffffffffffffffffffffffffffffffffffffffffffffffe0908116603f0116810190828211818310171561711857617118617077565b8160405283815286602085880101111561713157600080fd5b836020870160208301376000602085830101528094505050505092915050565b80357fffffffffffffffff0000000000000000000000000000000000000000000000008116811461718157600080fd5b919050565b600080600080600080600060e0888a0312156171a157600080fd5b87357fffffffff00000000000000000000000000000000000000000000000000000000811681146171d157600080fd5b9650602088013567ffffffffffffffff808211156171ee57600080fd5b6171fa8b838c016170a6565b975060408a0135965060608a013591508082111561721757600080fd5b6172238b838c016170a6565b955060808a0135945060a08a013591508082111561724057600080fd5b5061724d8a828b016170a6565b92505061725c60c08901617151565b905092959891949750929550565b60005b8381101561728557818101518382015260200161726d565b50506000910152565b600081518084526172a681602086016020860161726a565b601f017fffffffffffffffffffffffffffffffffffffffffffffffffffffffffffffffe0169290920160200192915050565b602081526000615914602083018461728e565b803573ffffffffffffffffffffffffffffffffffffffff8116811461718157600080fd5b6000806040838503121561732257600080fd5b61732b836172eb565b946020939093013593505050565b60008060006060848603121561734e57600080fd5b833592506020840135801515811461736557600080fd5b9150604084013567ffffffffffffffff81111561738157600080fd5b61738d868287016170a6565b9150509250925092565b6000602082840312156173a957600080fd5b5035919050565b6000602082840312156173c257600080fd5b615914826172eb565b600080604083850312156173de57600080fd5b50508035926020909101359150565b60008060008060008060c0878903121561740657600080fd5b86359550602087013567ffffffffffffffff8082111561742557600080fd5b6174318a838b016170a6565b9650604089013591508082111561744757600080fd5b6174538a838b016170a6565b9550606089013591508082111561746957600080fd5b6174758a838b016170a6565b9450608089013591508082111561748b57600080fd5b5061749889828a016170a6565b92505060a087013590509295509295509295565b6000806000606084860312156174c157600080fd5b6174ca846172eb565b92506174d8602085016172eb565b9150604084013590509250925092565b60006101408c83528b60208401528a604084015289606084015288608084015273ffffffffffffffffffffffffffffffffffffffff881660a08401528060c08401526175368184018861728e565b905082810360e084015261754a818761728e565b905082810361010084015261755f818661728e565b9050828103610120840152617574818561728e565b9d9c50505050505050505050505050565b60008060006060848603121561759a57600080fd5b83359250602084013567ffffffffffffffff808211156175b957600080fd5b6175c5878388016170a6565b935060408601359150808211156175db57600080fd5b5061738d868287016170a6565b8281526040602082015260006166b0604083018461728e565b7f4e487b7100000000000000000000000000000000000000000000000000000000600052602160045260246000fd5b60048110617667577f4e487b7100000000000000000000000000000000000000000000000000000000600052602160045260246000fd5b9052565b8d8152602081018d9052604081018c90526101a0810161768e606083018d617630565b61769b608083018c617630565b98151560a082015260c081019790975260e08701959095526101008601939093526101208501919091526101408401526101608301526101809091015295945050505050565b6000806000606084860312156176f657600080fd5b505081359360208301359350604090920135919050565b85815284602082015283604082015260a06060820152600061773260a083018561728e565b8281036080840152617744818561728e565b98975050505050505050565b60006020828403121561776257600080fd5b813567ffffffffffffffff81111561777957600080fd5b6166b0848285016170a6565b6000806000806080858703121561779b57600080fd5b5050823594602084013594506040840135936060013592509050565b600080604083850312156177ca57600080fd5b823591506177da602084016172eb565b90509250929050565b600080600080608085870312156177f957600080fd5b843567ffffffffffffffff8082111561781157600080fd5b61781d888389016170a6565b95506020870135945060408701359350606087013591508082111561784157600080fd5b5061784e878288016170a6565b91505092959194509250565b82151581526040602082015260006166b0604083018461728e565b6000806040838503121561788857600080fd5b617891836172eb565b91506177da602084016172eb565b7f4e487b7100000000000000000000000000000000000000000000000000000000600052601160045260246000fd5b600181815b8085111561792757817fffffffffffffffffffffffffffffffffffffffffffffffffffffffffffffffff0482111561790d5761790d61789f565b8085161561791a57918102915b93841c93908002906178d3565b509250929050565b60008261793e57506001611dfb565b8161794b57506000611dfb565b8160018114617961576002811461796b57617987565b6001915050611dfb565b60ff84111561797c5761797c61789f565b50506001821b611dfb565b5060208310610133831016604e8410600b84101617156179aa575081810a611dfb565b6179b483836178ce565b807fffffffffffffffffffffffffffffffffffffffffffffffffffffffffffffffff048211156179e6576179e661789f565b029392505050565b6000615914838361792f565b8082028115828204841417611dfb57611dfb61789f565b600181811c90821680617a2557607f821691505b602082108103617a5e577f4e487b7100000000000000000000000000000000000000000000000000000000600052602260045260246000fd5b50919050565b601f8211156161e3576000816000526020600020601f850160051c81016020861015617a8d5750805b601f850160051c820191505b81811015617aac57828155600101617a99565b505050505050565b815167ffffffffffffffff811115617ace57617ace617077565b617ae281617adc8454617a11565b84617a64565b602080601f831160018114617b355760008415617aff5750858301515b7fffffffffffffffffffffffffffffffffffffffffffffffffffffffffffffffff600386901b1c1916600185901b178555617aac565b6000858152602081207fffffffffffffffffffffffffffffffffffffffffffffffffffffffffffffffe08616915b82811015617b8257888601518255948401946001909101908401617b63565b5085821015617bbe57878501517fffffffffffffffffffffffffffffffffffffffffffffffffffffffffffffffff600388901b60f8161c191681555b5050505050600190811b01905550565b6000808354617bdc81617a11565b60018281168015617bf45760018114617c2757617c56565b7fffffffffffffffffffffffffffffffffffffffffffffffffffffffffffffff0084168752821515830287019450617c56565b8760005260208060002060005b85811015617c4d5781548a820152908401908201617c34565b50505082870194505b50929695505050505050565b7fffffffff000000000000000000000000000000000000000000000000000000008516815283600482015260008351617ca281602485016020880161726a565b835190830190617cb981602484016020880161726a565b016024019695505050505050565b7f4e487b7100000000000000000000000000000000000000000000000000000000600052600160045260246000fd5b848152831515602082015273ffffffffffffffffffffffffffffffffffffffff831660408201526080606082015260006165d9608083018461728e565b81810381811115611dfb57611dfb61789f565b60007fffffffffffffffffffffffffffffffffffffffffffffffffffffffffffffffff8203617d7757617d7761789f565b5060010190565b604081526000617d91604083018561728e565b90508260208301529392505050565b60008251617db281846020870161726a565b9190910192915050565b7f4e487b7100000000000000000000000000000000000000000000000000000000600052601260045260246000fd5b600082617dfa57617dfa617dbc565b500690565b606081526000808554617e1181617a11565b8060608601526080600180841660008114617e335760018114617e6d57617e9f565b7fffffffffffffffffffffffffffffffffffffffffffffffffffffffffffffff0085166080890152608084151560051b8901019550617e9f565b8a60005260208060002060005b86811015617e955781548b8201870152908401908201617e7a565b8a01608001975050505b505050505060208301949094525060400152919050565b600082617ec557617ec5617dbc565b500490565b80820180821115611dfb57611dfb61789f56fe5468697320736d61727420636f6e74726163742069732072756e6e696e6720746865205075727375616e63652048617264666f726b2c2045746963612076342e20446973636f766572696e67206f7572206265737420467574757265732e204e6f20496e74656c6c65637475616c2050726f70657274792c20416c6c2070726f706f73616c7320617265206d61646520756e64657220746865206c6963656e736520437265617469766520436f6d6d6f6e73204174747269627574696f6e20342e3020496e7465726e6174696f6e616c2028434320425920342e30292ea26469706673582212209eddcaa4d170a58625b0699cc8b74a861ece9f4bbde76de23022e65d18ca2c0064736f6c63430008160033",
  "linkReferences": {},
  "deployedLinkReferences": {}
}