{
  "_format": "hh-sol-artifact-1",
  "contractName": "EticaToken",
  "sourceName": "contracts/EticaRelease.sol",
  "abi": [
    {
      "inputs": [],
      "stateMutability": "nonpayable",
      "type": "constructor"
    },
    {
      "anonymous": false,
      "inputs": [
        {
          "indexed": true,
          "internalType": "address",
          "name": "tokenOwner",
          "type": "address"
        },
        {
          "indexed": true,
          "internalType": "address",
          "name": "spender",
          "type": "address"
        },
        {
          "indexed": false,
          "internalType": "uint256",
          "name": "tokens",
          "type": "uint256"
        }
      ],
      "name": "Approval",
      "type": "event"
    },
    {
      "anonymous": false,
      "inputs": [
        {
          "indexed": true,
          "internalType": "address",
          "name": "from",
          "type": "address"
        },
        {
          "indexed": false,
          "internalType": "uint256",
          "name": "blockreward",
          "type": "uint256"
        },
        {
          "indexed": false,
          "internalType": "uint256",
          "name": "epochCount",
          "type": "uint256"
        },
        {
          "indexed": false,
          "internalType": "bytes32",
          "name": "newChallengeNumber",
          "type": "bytes32"
        }
      ],
      "name": "Mint",
      "type": "event"
    },
    {
      "anonymous": false,
      "inputs": [
        {
          "indexed": true,
          "internalType": "address",
          "name": "from",
          "type": "address"
        },
        {
          "indexed": true,
          "internalType": "address",
          "name": "to",
          "type": "address"
        },
        {
          "indexed": false,
          "internalType": "uint256",
          "name": "tokens",
          "type": "uint256"
        }
      ],
      "name": "Transfer",
      "type": "event"
    },
    {
      "inputs": [],
      "name": "PERIOD_CURATION_REWARD_RATIO",
      "outputs": [
        {
          "internalType": "uint256",
          "name": "",
          "type": "uint256"
        }
      ],
      "stateMutability": "view",
      "type": "function"
    },
    {
      "inputs": [],
      "name": "PERIOD_EDITOR_REWARD_RATIO",
      "outputs": [
        {
          "internalType": "uint256",
          "name": "",
          "type": "uint256"
        }
      ],
      "stateMutability": "view",
      "type": "function"
    },
    {
      "inputs": [],
      "name": "UNRECOVERABLE_ETI",
      "outputs": [
        {
          "internalType": "uint256",
          "name": "",
          "type": "uint256"
        }
      ],
      "stateMutability": "view",
      "type": "function"
    },
    {
      "inputs": [],
      "name": "_BLOCKS_PER_READJUSTMENT",
      "outputs": [
        {
          "internalType": "uint256",
          "name": "",
          "type": "uint256"
        }
      ],
      "stateMutability": "view",
      "type": "function"
    },
    {
      "inputs": [],
      "name": "_MAXIMUM_TARGET",
      "outputs": [
        {
          "internalType": "uint256",
          "name": "",
          "type": "uint256"
        }
      ],
      "stateMutability": "view",
      "type": "function"
    },
    {
      "inputs": [],
      "name": "_MINIMUM_TARGET",
      "outputs": [
        {
          "internalType": "uint256",
          "name": "",
          "type": "uint256"
        }
      ],
      "stateMutability": "view",
      "type": "function"
    },
    {
      "inputs": [],
      "name": "_totalMiningSupply",
      "outputs": [
        {
          "internalType": "uint256",
          "name": "",
          "type": "uint256"
        }
      ],
      "stateMutability": "view",
      "type": "function"
    },
    {
      "inputs": [],
      "name": "accessibleSupply",
      "outputs": [
        {
          "internalType": "uint256",
          "name": "",
          "type": "uint256"
        }
      ],
      "stateMutability": "view",
      "type": "function"
    },
    {
      "inputs": [
        {
          "internalType": "address",
          "name": "tokenOwner",
          "type": "address"
        },
        {
          "internalType": "address",
          "name": "spender",
          "type": "address"
        }
      ],
      "name": "allowance",
      "outputs": [
        {
          "internalType": "uint256",
          "name": "",
          "type": "uint256"
        }
      ],
      "stateMutability": "view",
      "type": "function"
    },
    {
      "inputs": [
        {
          "internalType": "address",
          "name": "spender",
          "type": "address"
        },
        {
          "internalType": "uint256",
          "name": "tokens",
          "type": "uint256"
        }
      ],
      "name": "approve",
      "outputs": [
        {
          "internalType": "bool",
          "name": "",
          "type": "bool"
        }
      ],
      "stateMutability": "nonpayable",
      "type": "function"
    },
    {
      "inputs": [
        {
          "internalType": "address",
          "name": "tokenOwner",
          "type": "address"
        }
      ],
      "name": "balanceOf",
      "outputs": [
        {
          "internalType": "uint256",
          "name": "balance",
          "type": "uint256"
        }
      ],
      "stateMutability": "view",
      "type": "function"
    },
    {
      "inputs": [
        {
          "internalType": "address",
          "name": "",
          "type": "address"
        }
      ],
      "name": "balances",
      "outputs": [
        {
          "internalType": "uint256",
          "name": "",
          "type": "uint256"
        }
      ],
      "stateMutability": "view",
      "type": "function"
    },
    {
      "inputs": [],
      "name": "blockreward",
      "outputs": [
        {
          "internalType": "uint256",
          "name": "",
          "type": "uint256"
        }
      ],
      "stateMutability": "view",
      "type": "function"
    },
    {
      "inputs": [],
      "name": "challengeNumber",
      "outputs": [
        {
          "internalType": "bytes32",
          "name": "",
          "type": "bytes32"
        }
      ],
      "stateMutability": "view",
      "type": "function"
    },
    {
      "inputs": [
        {
          "internalType": "uint256",
          "name": "nonce",
          "type": "uint256"
        },
        {
          "internalType": "bytes32",
          "name": "challenge_digest",
          "type": "bytes32"
        },
        {
          "internalType": "bytes32",
          "name": "challenge_number",
          "type": "bytes32"
        },
        {
          "internalType": "uint256",
          "name": "testTarget",
          "type": "uint256"
        }
      ],
      "name": "checkMintSolution",
      "outputs": [
        {
          "internalType": "bool",
          "name": "success",
          "type": "bool"
        }
      ],
      "stateMutability": "view",
      "type": "function"
    },
    {
      "inputs": [],
      "name": "decimals",
      "outputs": [
        {
          "internalType": "uint256",
          "name": "",
          "type": "uint256"
        }
      ],
      "stateMutability": "view",
      "type": "function"
    },
    {
      "inputs": [],
      "name": "epochCount",
      "outputs": [
        {
          "internalType": "uint256",
          "name": "",
          "type": "uint256"
        }
      ],
      "stateMutability": "view",
      "type": "function"
    },
    {
      "inputs": [],
      "name": "getChallengeNumber",
      "outputs": [
        {
          "internalType": "bytes32",
          "name": "",
          "type": "bytes32"
        }
      ],
      "stateMutability": "view",
      "type": "function"
    },
    {
      "inputs": [],
      "name": "getMiningDifficulty",
      "outputs": [
        {
          "internalType": "uint256",
          "name": "",
          "type": "uint256"
        }
      ],
      "stateMutability": "view",
      "type": "function"
    },
    {
      "inputs": [],
      "name": "getMiningReward",
      "outputs": [
        {
          "internalType": "uint256",
          "name": "",
          "type": "uint256"
        }
      ],
      "stateMutability": "view",
      "type": "function"
    },
    {
      "inputs": [],
      "name": "getMiningTarget",
      "outputs": [
        {
          "internalType": "uint256",
          "name": "",
          "type": "uint256"
        }
      ],
      "stateMutability": "view",
      "type": "function"
    },
    {
      "inputs": [
        {
          "internalType": "uint256",
          "name": "nonce",
          "type": "uint256"
        },
        {
          "internalType": "bytes32",
          "name": "challenge_digest",
          "type": "bytes32"
        },
        {
          "internalType": "bytes32",
          "name": "challenge_number",
          "type": "bytes32"
        }
      ],
      "name": "getMintDigest",
      "outputs": [
        {
          "internalType": "bytes32",
          "name": "digesttest",
          "type": "bytes32"
        }
      ],
      "stateMutability": "view",
      "type": "function"
    },
    {
      "inputs": [],
      "name": "inflationrate",
      "outputs": [
        {
          "internalType": "uint256",
          "name": "",
          "type": "uint256"
        }
      ],
      "stateMutability": "view",
      "type": "function"
    },
    {
      "inputs": [],
      "name": "initiatormsg",
      "outputs": [
        {
          "internalType": "string",
          "name": "",
          "type": "string"
        }
      ],
      "stateMutability": "view",
      "type": "function"
    },
    {
      "inputs": [],
      "name": "lastRewardEthBlockNumber",
      "outputs": [
        {
          "internalType": "uint256",
          "name": "",
          "type": "uint256"
        }
      ],
      "stateMutability": "view",
      "type": "function"
    },
    {
      "inputs": [],
      "name": "lastRewardTo",
      "outputs": [
        {
          "internalType": "address",
          "name": "",
          "type": "address"
        }
      ],
      "stateMutability": "view",
      "type": "function"
    },
    {
      "inputs": [],
      "name": "latestDifficultyPeriodStarted",
      "outputs": [
        {
          "internalType": "uint256",
          "name": "",
          "type": "uint256"
        }
      ],
      "stateMutability": "view",
      "type": "function"
    },
    {
      "inputs": [],
      "name": "miningTarget",
      "outputs": [
        {
          "internalType": "uint256",
          "name": "",
          "type": "uint256"
        }
      ],
      "stateMutability": "view",
      "type": "function"
    },
    {
      "inputs": [
        {
          "internalType": "uint256",
          "name": "nonce",
          "type": "uint256"
        },
        {
          "internalType": "bytes32",
          "name": "challenge_digest",
          "type": "bytes32"
        }
      ],
      "name": "mint",
      "outputs": [
        {
          "internalType": "bool",
          "name": "success",
          "type": "bool"
        }
      ],
      "stateMutability": "nonpayable",
      "type": "function"
    },
    {
      "inputs": [],
      "name": "name",
      "outputs": [
        {
          "internalType": "string",
          "name": "",
          "type": "string"
        }
      ],
      "stateMutability": "view",
      "type": "function"
    },
    {
      "inputs": [],
      "name": "periodrewardtemp",
      "outputs": [
        {
          "internalType": "uint256",
          "name": "",
          "type": "uint256"
        }
      ],
      "stateMutability": "view",
      "type": "function"
    },
    {
      "inputs": [],
      "name": "supply",
      "outputs": [
        {
          "internalType": "uint256",
          "name": "",
          "type": "uint256"
        }
      ],
      "stateMutability": "view",
      "type": "function"
    },
    {
      "inputs": [],
      "name": "symbol",
      "outputs": [
        {
          "internalType": "string",
          "name": "",
          "type": "string"
        }
      ],
      "stateMutability": "view",
      "type": "function"
    },
    {
      "inputs": [],
      "name": "tokensMinted",
      "outputs": [
        {
          "internalType": "uint256",
          "name": "",
          "type": "uint256"
        }
      ],
      "stateMutability": "view",
      "type": "function"
    },
    {
      "inputs": [],
      "name": "totalSupply",
      "outputs": [
        {
          "internalType": "uint256",
          "name": "",
          "type": "uint256"
        }
      ],
      "stateMutability": "view",
      "type": "function"
    },
    {
      "inputs": [
        {
          "internalType": "address",
          "name": "to",
          "type": "address"
        },
        {
          "internalType": "uint256",
          "name": "tokens",
          "type": "uint256"
        }
      ],
      "name": "transfer",
      "outputs": [
        {
          "internalType": "bool",
          "name": "success",
          "type": "bool"
        }
      ],
      "stateMutability": "nonpayable",
      "type": "function"
    },
    {
      "inputs": [
        {
          "internalType": "address",
          "name": "from",
          "type": "address"
        },
        {
          "internalType": "address",
          "name": "to",
          "type": "address"
        },
        {
          "internalType": "uint256",
          "name": "tokens",
          "type": "uint256"
        }
      ],
      "name": "transferFrom",
      "outputs": [
        {
          "internalType": "bool",
          "name": "",
          "type": "bool"
        }
      ],
      "stateMutability": "nonpayable",
      "type": "function"
    },
    {
      "stateMutability": "payable",
      "type": "receive"
    }
  ],
  "bytecode": "0x60c06040526005608090815264457469636160d81b60a052600090620000269082620004a9565b5060408051808201909152600381526245544960e81b6020820152600190620000509082620004a9565b5060126002556408e4b1e125600655640e63c506db6007556107e0600e556004600f55600160e01b6010553480156200008857600080fd5b5068056bc75e2d63100000600381905530600090815260096020526040902054620000b3916200012e565b3060009081526009602052604090205568da5351938e7eb5b95c600555600254620000e090600a62000688565b620000ef9062b03d3062000696565b600b5560006017556801f30795e38ed87acc60135560105460115542600c556200011862000152565b6b1004c20e49aa3240785fcad260045562000720565b60006200013c8284620006b0565b9050828110156200014c57600080fd5b92915050565b600d54620001629060016200012e565b600d819055600e546200017591620006dc565b600003620001875762000187620001d7565b6200019443600162000393565b406012819055601854600d54604080516020810194909452830191909152606082015260800160408051601f198184030181529190528051602090910120601255565b601154600c54600090620001ed90429062000393565b600e549091506000906200020490610258620003b6565b905080821015620002bb5760006200022b8362000224846103e8620003b6565b90620003e8565b9050610fa08111156200023d5750610fa05b6010546200024e906103e8620003e8565b601154101562000279576011546200027090829062000224906103e8620003b6565b6011556200028c565b601054620002889082620003e8565b6011555b62000299846004620003e8565b6011541015620002b457620002b0846004620003e8565b6011555b5062000362565b6000620002d08262000224856103e8620003b6565b9050610fa0811115620002e25750610fa05b601054620002f19082620003e8565b601154116200031b5760115462000312906103e890620002249084620003b6565b60115562000322565b6010546011555b620003316000196004620003e8565b8411620003605762000345846004620003b6565b601154111562000360576200035c846004620003b6565b6011555b505b42600c55600f5460115410156200037a57600f546011555b60105460115411156200038e576010546011555b505050565b600082821115620003a357600080fd5b620003af8284620006f3565b9392505050565b6000620003c4828462000696565b9050821580620003de575081620003dc848362000709565b145b6200014c57600080fd5b6000808211620003f757600080fd5b620003af828462000709565b634e487b7160e01b600052604160045260246000fd5b600181811c908216806200042e57607f821691505b6020821081036200044f57634e487b7160e01b600052602260045260246000fd5b50919050565b601f8211156200038e576000816000526020600020601f850160051c81016020861015620004805750805b601f850160051c820191505b81811015620004a1578281556001016200048c565b505050505050565b81516001600160401b03811115620004c557620004c562000403565b620004dd81620004d6845462000419565b8462000455565b602080601f831160018114620005155760008415620004fc5750858301515b600019600386901b1c1916600185901b178555620004a1565b600085815260208120601f198616915b82811015620005465788860151825594840194600190910190840162000525565b5085821015620005655787850151600019600388901b60f8161c191681555b5050505050600190811b01905550565b634e487b7160e01b600052601160045260246000fd5b600181815b80851115620005cc578160001904821115620005b057620005b062000575565b80851615620005be57918102915b93841c939080029062000590565b509250929050565b600082620005e5575060016200014c565b81620005f4575060006200014c565b81600181146200060d5760028114620006185762000638565b60019150506200014c565b60ff8411156200062c576200062c62000575565b50506001821b6200014c565b5060208310610133831016604e8410600b84101617156200065d575081810a6200014c565b6200066983836200058b565b806000190482111562000680576200068062000575565b029392505050565b6000620003af8383620005d4565b80820281158282048414176200014c576200014c62000575565b808201808211156200014c576200014c62000575565b634e487b7160e01b600052601260045260246000fd5b600082620006ee57620006ee620006c6565b500690565b818103818111156200014c576200014c62000575565b6000826200071b576200071b620006c6565b500490565b610fc580620007306000396000f3fe60806040526004361061026d5760003560e01c80636de9f32b1161015357806397566aa0116100cb578063cb9ae7071161007f578063d40170d711610064578063d40170d7146106a2578063dc6e9cf9146106b8578063dd62ed3e146106ce57600080fd5b8063cb9ae70714610676578063cf70fa401461068c57600080fd5b8063b54f31db116100b0578063b54f31db14610634578063b5ade81b1461064a578063b64077691461066057600080fd5b806397566aa01461059d578063a9059cbb1461061457600080fd5b8063829965cc116101225780638a769d35116101075780638a769d351461055c5780638ae0368b1461057257806395d89b411461058857600080fd5b8063829965cc1461053057806387a2a9d61461054657600080fd5b80636de9f32b146104655780636fd396d61461047b57806370a08231146104cd57806381269a561461051057600080fd5b806323b872dd116101e6578063410e1b07116101b55780634ef376281161019a5780634ef3762814610425578063509fce5b1461043a5780635965916f1461045057600080fd5b8063410e1b07146103fa578063490203a71461041057600080fd5b806323b872dd1461038257806327e235e3146103a2578063313ce567146103cf57806332e99708146103e557600080fd5b8063163aa00d1161023d5780631801fbe5116102225780631801fbe51461033857806318160ddd14610358578063229cb73c1461036d57600080fd5b8063163aa00d1461030d57806317da485f1461032357600080fd5b8062e6e5531461027c578063047fc9aa146102a557806306fdde03146102bb578063095ea7b3146102dd57600080fd5b3661027757600080fd5b600080fd5b34801561028857600080fd5b5061029260075481565b6040519081526020015b60405180910390f35b3480156102b157600080fd5b5061029260035481565b3480156102c757600080fd5b506102d0610721565b60405161029c9190610c09565b3480156102e957600080fd5b506102fd6102f8366004610c9f565b6107af565b604051901515815260200161029c565b34801561031957600080fd5b5061029260155481565b34801561032f57600080fd5b5061029261084b565b34801561034457600080fd5b506102fd610353366004610cc9565b610869565b34801561036457600080fd5b50600354610292565b34801561037957600080fd5b506102926108f8565b34801561038e57600080fd5b506102fd61039d366004610ceb565b610911565b3480156103ae57600080fd5b506102926103bd366004610d27565b60096020526000908152604090205481565b3480156103db57600080fd5b5061029260025481565b3480156103f157600080fd5b50601154610292565b34801561040657600080fd5b50610292600b5481565b34801561041c57600080fd5b50610292610a43565b34801561043157600080fd5b50601254610292565b34801561044657600080fd5b5061029260085481565b34801561045c57600080fd5b506102d0610a5d565b34801561047157600080fd5b5061029260175481565b34801561048757600080fd5b506014546104a89073ffffffffffffffffffffffffffffffffffffffff1681565b60405173ffffffffffffffffffffffffffffffffffffffff909116815260200161029c565b3480156104d957600080fd5b506102926104e8366004610d27565b73ffffffffffffffffffffffffffffffffffffffff1660009081526009602052604090205490565b34801561051c57600080fd5b506102fd61052b366004610d42565b610a7a565b34801561053c57600080fd5b50610292600d5481565b34801561055257600080fd5b5061029260105481565b34801561056857600080fd5b5061029260115481565b34801561057e57600080fd5b5061029260125481565b34801561059457600080fd5b506102d0610aea565b3480156105a957600080fd5b506102926105b8366004610d74565b604080516020808201939093523360601b7fffffffffffffffffffffffffffffffffffffffff00000000000000000000000016818301526054808201959095528151808203909501855260740190528251920191909120919050565b34801561062057600080fd5b506102fd61062f366004610c9f565b610af7565b34801561064057600080fd5b5061029260065481565b34801561065657600080fd5b50610292600e5481565b34801561066c57600080fd5b5061029260045481565b34801561068257600080fd5b50610292600c5481565b34801561069857600080fd5b5061029260135481565b3480156106ae57600080fd5b5061029260055481565b3480156106c457600080fd5b50610292600f5481565b3480156106da57600080fd5b506102926106e9366004610da0565b73ffffffffffffffffffffffffffffffffffffffff9182166000908152600a6020908152604080832093909416825291909152205490565b6000805461072e90610dd3565b80601f016020809104026020016040519081016040528092919081815260200182805461075a90610dd3565b80156107a75780601f1061077c576101008083540402835291602001916107a7565b820191906000526020600020905b81548152906001019060200180831161078a57829003601f168201915b505050505081565b336000908152600960205260408120548211156107cb57600080fd5b600082116107d857600080fd5b336000818152600a6020908152604080832073ffffffffffffffffffffffffffffffffffffffff881680855290835292819020869055518581529192917f8c5be1e5ebec7d5bd14f71427d1e84f3dd0314c0f7b2291e5b200ac8c7c3b92591015b60405180910390a35060015b92915050565b6000610864601154601054610bb690919063ffffffff16565b905090565b6040517f08c379a000000000000000000000000000000000000000000000000000000000815260206004820152603460248201527f46756e6374696f6e2064697361626c6564202d207265706c616365642062792060448201527f6d696e7472616e646f6d582066756e6374696f6e000000000000000000000000606482015260009060840160405180910390fd5b6000610864600854600354610bd590919063ffffffff16565b73ffffffffffffffffffffffffffffffffffffffff83166000908152600960205260408120546109419083610bd5565b73ffffffffffffffffffffffffffffffffffffffff8516600090815260096020908152604080832093909355600a8152828220338352905220546109859083610bd5565b73ffffffffffffffffffffffffffffffffffffffff8086166000908152600a602090815260408083203384528252808320949094559186168152600990915220546109d09083610bee565b73ffffffffffffffffffffffffffffffffffffffff80851660008181526009602052604090819020939093559151908616907fddf252ad1be2c89b69c2b068fc378daa952ba7f163c4a11628f55a4df523b3ef90610a319086815260200190565b60405180910390a35060019392505050565b6000600b5460175411610a57575060135490565b50600090565b60405180610100016040528060d98152602001610eb760d9913981565b6040805160208082018590523360601b7fffffffffffffffffffffffffffffffffffffffff00000000000000000000000016828401526054808301889052835180840390910181526074909201909252805191012060009082811115610adf57600080fd5b909314949350505050565b6001805461072e90610dd3565b6000808211610b0557600080fd5b33600090815260096020526040902054610b1f9083610bd5565b336000908152600960205260408082209290925573ffffffffffffffffffffffffffffffffffffffff851681522054610b589083610bee565b73ffffffffffffffffffffffffffffffffffffffff84166000818152600960205260409081902092909255905133907fddf252ad1be2c89b69c2b068fc378daa952ba7f163c4a11628f55a4df523b3ef906108399086815260200190565b6000808211610bc457600080fd5b610bce8284610e55565b9392505050565b600082821115610be457600080fd5b610bce8284610e90565b6000610bfa8284610ea3565b90508281101561084557600080fd5b60006020808352835180602085015260005b81811015610c3757858101830151858201604001528201610c1b565b5060006040828601015260407fffffffffffffffffffffffffffffffffffffffffffffffffffffffffffffffe0601f8301168501019250505092915050565b803573ffffffffffffffffffffffffffffffffffffffff81168114610c9a57600080fd5b919050565b60008060408385031215610cb257600080fd5b610cbb83610c76565b946020939093013593505050565b60008060408385031215610cdc57600080fd5b50508035926020909101359150565b600080600060608486031215610d0057600080fd5b610d0984610c76565b9250610d1760208501610c76565b9150604084013590509250925092565b600060208284031215610d3957600080fd5b610bce82610c76565b60008060008060808587031215610d5857600080fd5b5050823594602084013594506040840135936060013592509050565b600080600060608486031215610d8957600080fd5b505081359360208301359350604090920135919050565b60008060408385031215610db357600080fd5b610dbc83610c76565b9150610dca60208401610c76565b90509250929050565b600181811c90821680610de757607f821691505b602082108103610e20577f4e487b7100000000000000000000000000000000000000000000000000000000600052602260045260246000fd5b50919050565b7f4e487b7100000000000000000000000000000000000000000000000000000000600052601160045260246000fd5b600082610e8b577f4e487b7100000000000000000000000000000000000000000000000000000000600052601260045260246000fd5b500490565b8181038181111561084557610845610e26565b8082018082111561084557610845610e2656fe5468697320736d61727420636f6e74726163742069732072756e6e696e67207468652041656769732048617264666f726b2c2045746963612076352e20446973636f766572696e67206f7572206265737420467574757265732e204e6f20496e74656c6c65637475616c2050726f70657274792c20416c6c2070726f706f73616c7320617265206d61646520756e64657220746865206c6963656e736520437265617469766520436f6d6d6f6e73204174747269627574696f6e20342e3020496e7465726e6174696f6e616c2028434320425920342e30292ea26469706673582212200fa01cff016b2ef22d3781e043ab28a8175147f9652d3ee5cf07eacd23a6dd7c64736f6c63430008160033",
  "linkReferences": {},
  "deployedLinkReferences": {}
}