{
  "_format": "hh-sol-artifact-1",
  "contractName": "CrucibleRelease",
  "sourceName": "contracts/CrucibleRelease.sol",
  "abi": [
    {
      "inputs": [
        {
          "internalType": "uint256",
          "name": "x",
          "type": "uint256"
        },
        {
          "internalType": "uint256",
          "name": "y",
          "type": "uint256"
        }
      ],
      "name": "PRBMath_MulDiv18_Overflow",
      "type": "error"
    },
    {
      "inputs": [
        {
          "internalType": "UD60x18",
          "name": "x",
          "type": "uint256"
        }
      ],
      "name": "PRBMath_UD60x18_Exp2_InputTooBig",
      "type": "error"
    },
    {
      "inputs": [
        {
          "internalType": "UD60x18",
          "name": "x",
          "type": "uint256"
        }
      ],
      "name": "PRBMath_UD60x18_Log_InputTooSmall",
      "type": "error"
    },
    {
      "anonymous": false,
      "inputs": [
        {
          "indexed": true,
          "internalType": "address",
          "name": "tokenOwner",
          "type": "address"
        },
        {
          "indexed": true,
          "internalType": "address",
          "name": "spender",
          "type": "address"
        },
        {
          "indexed": false,
          "internalType": "uint256",
          "name": "tokens",
          "type": "uint256"
        }
      ],
      "name": "Approval",
      "type": "event"
    },
    {
      "anonymous": false,
      "inputs": [
        {
          "indexed": true,
          "internalType": "uint256",
          "name": "period_id",
          "type": "uint256"
        },
        {
          "indexed": false,
          "internalType": "uint256",
          "name": "interval",
          "type": "uint256"
        }
      ],
      "name": "CreatedPeriod",
      "type": "event"
    },
    {
      "anonymous": false,
      "inputs": [
        {
          "indexed": true,
          "internalType": "address",
          "name": "from",
          "type": "address"
        },
        {
          "indexed": false,
          "internalType": "uint256",
          "name": "blockreward",
          "type": "uint256"
        },
        {
          "indexed": false,
          "internalType": "uint256",
          "name": "epochCount",
          "type": "uint256"
        },
        {
          "indexed": false,
          "internalType": "bytes32",
          "name": "newChallengeNumber",
          "type": "bytes32"
        }
      ],
      "name": "Mint",
      "type": "event"
    },
    {
      "anonymous": false,
      "inputs": [
        {
          "indexed": true,
          "internalType": "uint256",
          "name": "chunkid",
          "type": "uint256"
        },
        {
          "indexed": true,
          "internalType": "bytes32",
          "name": "diseasehash",
          "type": "bytes32"
        }
      ],
      "name": "NewChunk",
      "type": "event"
    },
    {
      "anonymous": false,
      "inputs": [
        {
          "indexed": true,
          "internalType": "address",
          "name": "_voter",
          "type": "address"
        },
        {
          "indexed": false,
          "internalType": "bytes32",
          "name": "votehash",
          "type": "bytes32"
        },
        {
          "indexed": false,
          "internalType": "uint256",
          "name": "amount",
          "type": "uint256"
        }
      ],
      "name": "NewCommit",
      "type": "event"
    },
    {
      "anonymous": false,
      "inputs": [
        {
          "indexed": true,
          "internalType": "uint256",
          "name": "diseaseindex",
          "type": "uint256"
        },
        {
          "indexed": false,
          "internalType": "string",
          "name": "title",
          "type": "string"
        }
      ],
      "name": "NewDisease",
      "type": "event"
    },
    {
      "anonymous": false,
      "inputs": [
        {
          "indexed": true,
          "internalType": "address",
          "name": "voter",
          "type": "address"
        },
        {
          "indexed": false,
          "internalType": "uint256",
          "name": "fee",
          "type": "uint256"
        },
        {
          "indexed": false,
          "internalType": "bytes32",
          "name": "proposal_hash",
          "type": "bytes32"
        }
      ],
      "name": "NewFee",
      "type": "event"
    },
    {
      "anonymous": false,
      "inputs": [
        {
          "indexed": false,
          "internalType": "bytes32",
          "name": "proposed_release_hash",
          "type": "bytes32"
        },
        {
          "indexed": true,
          "internalType": "address",
          "name": "_proposer",
          "type": "address"
        },
        {
          "indexed": true,
          "internalType": "bytes32",
          "name": "diseasehash",
          "type": "bytes32"
        },
        {
          "indexed": true,
          "internalType": "uint256",
          "name": "chunkid",
          "type": "uint256"
        }
      ],
      "name": "NewProposal",
      "type": "event"
    },
    {
      "anonymous": false,
      "inputs": [
        {
          "indexed": true,
          "internalType": "address",
          "name": "_voter",
          "type": "address"
        },
        {
          "indexed": true,
          "internalType": "bytes32",
          "name": "_proposal",
          "type": "bytes32"
        },
        {
          "indexed": false,
          "internalType": "uint256",
          "name": "amount",
          "type": "uint256"
        }
      ],
      "name": "NewRecover",
      "type": "event"
    },
    {
      "anonymous": false,
      "inputs": [
        {
          "indexed": true,
          "internalType": "address",
          "name": "_voter",
          "type": "address"
        },
        {
          "indexed": true,
          "internalType": "bytes32",
          "name": "_proposal",
          "type": "bytes32"
        },
        {
          "indexed": false,
          "internalType": "uint256",
          "name": "amount",
          "type": "uint256"
        }
      ],
      "name": "NewReveal",
      "type": "event"
    },
    {
      "anonymous": false,
      "inputs": [
        {
          "indexed": true,
          "internalType": "address",
          "name": "voter",
          "type": "address"
        },
        {
          "indexed": false,
          "internalType": "uint256",
          "name": "amount",
          "type": "uint256"
        },
        {
          "indexed": false,
          "internalType": "bytes32",
          "name": "proposal_hash",
          "type": "bytes32"
        },
        {
          "indexed": false,
          "internalType": "uint256",
          "name": "duration",
          "type": "uint256"
        }
      ],
      "name": "NewSlash",
      "type": "event"
    },
    {
      "anonymous": false,
      "inputs": [
        {
          "indexed": true,
          "internalType": "address",
          "name": "staker",
          "type": "address"
        },
        {
          "indexed": false,
          "internalType": "uint256",
          "name": "amount",
          "type": "uint256"
        }
      ],
      "name": "NewStake",
      "type": "event"
    },
    {
      "anonymous": false,
      "inputs": [
        {
          "indexed": true,
          "internalType": "address",
          "name": "staker",
          "type": "address"
        },
        {
          "indexed": false,
          "internalType": "uint256",
          "name": "endtime",
          "type": "uint256"
        },
        {
          "indexed": false,
          "internalType": "uint256",
          "name": "minlimit",
          "type": "uint256"
        }
      ],
      "name": "NewStakescsldt",
      "type": "event"
    },
    {
      "anonymous": false,
      "inputs": [
        {
          "indexed": true,
          "internalType": "address",
          "name": "staker",
          "type": "address"
        },
        {
          "indexed": false,
          "internalType": "uint256",
          "name": "snapamount",
          "type": "uint256"
        }
      ],
      "name": "NewStakesnap",
      "type": "event"
    },
    {
      "anonymous": false,
      "inputs": [
        {
          "indexed": true,
          "internalType": "address",
          "name": "voter",
          "type": "address"
        },
        {
          "indexed": false,
          "internalType": "uint256",
          "name": "amount",
          "type": "uint256"
        },
        {
          "indexed": false,
          "internalType": "bytes32",
          "name": "proposal_hash",
          "type": "bytes32"
        }
      ],
      "name": "RewardClaimed",
      "type": "event"
    },
    {
      "anonymous": false,
      "inputs": [
        {
          "indexed": true,
          "internalType": "address",
          "name": "staker",
          "type": "address"
        },
        {
          "indexed": false,
          "internalType": "uint256",
          "name": "stakeamount",
          "type": "uint256"
        }
      ],
      "name": "StakeClaimed",
      "type": "event"
    },
    {
      "anonymous": false,
      "inputs": [
        {
          "indexed": true,
          "internalType": "address",
          "name": "voter",
          "type": "address"
        },
        {
          "indexed": false,
          "internalType": "bytes32",
          "name": "proposal_hash",
          "type": "bytes32"
        }
      ],
      "name": "TieClaimed",
      "type": "event"
    },
    {
      "anonymous": false,
      "inputs": [
        {
          "indexed": true,
          "internalType": "address",
          "name": "from",
          "type": "address"
        },
        {
          "indexed": true,
          "internalType": "address",
          "name": "to",
          "type": "address"
        },
        {
          "indexed": false,
          "internalType": "uint256",
          "name": "tokens",
          "type": "uint256"
        }
      ],
      "name": "Transfer",
      "type": "event"
    },
    {
      "inputs": [],
      "name": "APPROVAL_THRESHOLD",
      "outputs": [
        {
          "internalType": "uint256",
          "name": "",
          "type": "uint256"
        }
      ],
      "stateMutability": "view",
      "type": "function"
    },
    {
      "inputs": [],
      "name": "DEFAULT_EXTRA_TIME",
      "outputs": [
        {
          "internalType": "uint256",
          "name": "",
          "type": "uint256"
        }
      ],
      "stateMutability": "view",
      "type": "function"
    },
    {
      "inputs": [],
      "name": "DEFAULT_REVEALING_TIME",
      "outputs": [
        {
          "internalType": "uint256",
          "name": "",
          "type": "uint256"
        }
      ],
      "stateMutability": "view",
      "type": "function"
    },
    {
      "inputs": [],
      "name": "DEFAULT_VOTING_TIME",
      "outputs": [
        {
          "internalType": "uint256",
          "name": "",
          "type": "uint256"
        }
      ],
      "stateMutability": "view",
      "type": "function"
    },
    {
      "inputs": [],
      "name": "DISEASE_CREATION_AMOUNT",
      "outputs": [
        {
          "internalType": "uint256",
          "name": "",
          "type": "uint256"
        }
      ],
      "stateMutability": "view",
      "type": "function"
    },
    {
      "inputs": [
        {
          "internalType": "uint256",
          "name": "",
          "type": "uint256"
        }
      ],
      "name": "IntervalsPeriods",
      "outputs": [
        {
          "internalType": "uint256",
          "name": "",
          "type": "uint256"
        }
      ],
      "stateMutability": "view",
      "type": "function"
    },
    {
      "inputs": [],
      "name": "IntervalsPeriodsCounter",
      "outputs": [
        {
          "internalType": "uint256",
          "name": "",
          "type": "uint256"
        }
      ],
      "stateMutability": "view",
      "type": "function"
    },
    {
      "inputs": [],
      "name": "LAST_PERIOD_COST_UPDATE",
      "outputs": [
        {
          "internalType": "uint256",
          "name": "",
          "type": "uint256"
        }
      ],
      "stateMutability": "view",
      "type": "function"
    },
    {
      "inputs": [],
      "name": "PERIODS_PER_THRESHOLD",
      "outputs": [
        {
          "internalType": "uint256",
          "name": "",
          "type": "uint256"
        }
      ],
      "stateMutability": "view",
      "type": "function"
    },
    {
      "inputs": [],
      "name": "PERIOD_CURATION_REWARD_RATIO",
      "outputs": [
        {
          "internalType": "uint256",
          "name": "",
          "type": "uint256"
        }
      ],
      "stateMutability": "view",
      "type": "function"
    },
    {
      "inputs": [],
      "name": "PERIOD_EDITOR_REWARD_RATIO",
      "outputs": [
        {
          "internalType": "uint256",
          "name": "",
          "type": "uint256"
        }
      ],
      "stateMutability": "view",
      "type": "function"
    },
    {
      "inputs": [],
      "name": "PROPOSAL_DEFAULT_VOTE",
      "outputs": [
        {
          "internalType": "uint256",
          "name": "",
          "type": "uint256"
        }
      ],
      "stateMutability": "view",
      "type": "function"
    },
    {
      "inputs": [],
      "name": "PROPOSERS_INCREASER",
      "outputs": [
        {
          "internalType": "uint256",
          "name": "",
          "type": "uint256"
        }
      ],
      "stateMutability": "view",
      "type": "function"
    },
    {
      "inputs": [],
      "name": "PROTOCOL_RATIO_TARGET",
      "outputs": [
        {
          "internalType": "uint256",
          "name": "",
          "type": "uint256"
        }
      ],
      "stateMutability": "view",
      "type": "function"
    },
    {
      "inputs": [
        {
          "internalType": "uint256",
          "name": "",
          "type": "uint256"
        }
      ],
      "name": "PeriodsIssued",
      "outputs": [
        {
          "internalType": "uint256",
          "name": "",
          "type": "uint256"
        }
      ],
      "stateMutability": "view",
      "type": "function"
    },
    {
      "inputs": [],
      "name": "PeriodsIssuedCounter",
      "outputs": [
        {
          "internalType": "uint256",
          "name": "",
          "type": "uint256"
        }
      ],
      "stateMutability": "view",
      "type": "function"
    },
    {
      "inputs": [],
      "name": "REWARD_INTERVAL",
      "outputs": [
        {
          "internalType": "uint256",
          "name": "",
          "type": "uint256"
        }
      ],
      "stateMutability": "view",
      "type": "function"
    },
    {
      "inputs": [],
      "name": "SEEDHASH_EPOCH_BLOCKS",
      "outputs": [
        {
          "internalType": "uint256",
          "name": "",
          "type": "uint256"
        }
      ],
      "stateMutability": "view",
      "type": "function"
    },
    {
      "inputs": [],
      "name": "SEVERITY_LEVEL",
      "outputs": [
        {
          "internalType": "uint256",
          "name": "",
          "type": "uint256"
        }
      ],
      "stateMutability": "view",
      "type": "function"
    },
    {
      "inputs": [],
      "name": "STAKING_DURATION",
      "outputs": [
        {
          "internalType": "uint256",
          "name": "",
          "type": "uint256"
        }
      ],
      "stateMutability": "view",
      "type": "function"
    },
    {
      "inputs": [],
      "name": "UNRECOVERABLE_ETI",
      "outputs": [
        {
          "internalType": "uint256",
          "name": "",
          "type": "uint256"
        }
      ],
      "stateMutability": "view",
      "type": "function"
    },
    {
      "inputs": [],
      "name": "UPDATEDV2",
      "outputs": [
        {
          "internalType": "bool",
          "name": "",
          "type": "bool"
        }
      ],
      "stateMutability": "view",
      "type": "function"
    },
    {
      "inputs": [],
      "name": "UPDATEDV3",
      "outputs": [
        {
          "internalType": "bool",
          "name": "",
          "type": "bool"
        }
      ],
      "stateMutability": "view",
      "type": "function"
    },
    {
      "inputs": [],
      "name": "_BLOCKS_PER_READJUSTMENT",
      "outputs": [
        {
          "internalType": "uint256",
          "name": "",
          "type": "uint256"
        }
      ],
      "stateMutability": "view",
      "type": "function"
    },
    {
      "inputs": [],
      "name": "_MAXIMUM_TARGET",
      "outputs": [
        {
          "internalType": "uint256",
          "name": "",
          "type": "uint256"
        }
      ],
      "stateMutability": "view",
      "type": "function"
    },
    {
      "inputs": [],
      "name": "_MINIMUM_TARGET",
      "outputs": [
        {
          "internalType": "uint256",
          "name": "",
          "type": "uint256"
        }
      ],
      "stateMutability": "view",
      "type": "function"
    },
    {
      "inputs": [],
      "name": "_totalMiningSupply",
      "outputs": [
        {
          "internalType": "uint256",
          "name": "",
          "type": "uint256"
        }
      ],
      "stateMutability": "view",
      "type": "function"
    },
    {
      "inputs": [],
      "name": "accessibleSupply",
      "outputs": [
        {
          "internalType": "uint256",
          "name": "",
          "type": "uint256"
        }
      ],
      "stateMutability": "view",
      "type": "function"
    },
    {
      "inputs": [
        {
          "internalType": "address",
          "name": "tokenOwner",
          "type": "address"
        },
        {
          "internalType": "address",
          "name": "spender",
          "type": "address"
        }
      ],
      "name": "allowance",
      "outputs": [
        {
          "internalType": "uint256",
          "name": "",
          "type": "uint256"
        }
      ],
      "stateMutability": "view",
      "type": "function"
    },
    {
      "inputs": [
        {
          "internalType": "address",
          "name": "spender",
          "type": "address"
        },
        {
          "internalType": "uint256",
          "name": "tokens",
          "type": "uint256"
        }
      ],
      "name": "approve",
      "outputs": [
        {
          "internalType": "bool",
          "name": "",
          "type": "bool"
        }
      ],
      "stateMutability": "nonpayable",
      "type": "function"
    },
    {
      "inputs": [
        {
          "internalType": "address",
          "name": "tokenOwner",
          "type": "address"
        }
      ],
      "name": "balanceOf",
      "outputs": [
        {
          "internalType": "uint256",
          "name": "balance",
          "type": "uint256"
        }
      ],
      "stateMutability": "view",
      "type": "function"
    },
    {
      "inputs": [
        {
          "internalType": "address",
          "name": "",
          "type": "address"
        }
      ],
      "name": "balances",
      "outputs": [
        {
          "internalType": "uint256",
          "name": "",
          "type": "uint256"
        }
      ],
      "stateMutability": "view",
      "type": "function"
    },
    {
      "inputs": [
        {
          "internalType": "address",
          "name": "",
          "type": "address"
        }
      ],
      "name": "blockedeticas",
      "outputs": [
        {
          "internalType": "uint256",
          "name": "",
          "type": "uint256"
        }
      ],
      "stateMutability": "view",
      "type": "function"
    },
    {
      "inputs": [],
      "name": "blockreward",
      "outputs": [
        {
          "internalType": "uint256",
          "name": "",
          "type": "uint256"
        }
      ],
      "stateMutability": "view",
      "type": "function"
    },
    {
      "inputs": [
        {
          "internalType": "address",
          "name": "",
          "type": "address"
        }
      ],
      "name": "bosoms",
      "outputs": [
        {
          "internalType": "uint256",
          "name": "",
          "type": "uint256"
        }
      ],
      "stateMutability": "view",
      "type": "function"
    },
    {
      "inputs": [
        {
          "internalType": "address",
          "name": "tokenOwner",
          "type": "address"
        }
      ],
      "name": "bosomsOf",
      "outputs": [
        {
          "internalType": "uint256",
          "name": "_bosoms",
          "type": "uint256"
        }
      ],
      "stateMutability": "view",
      "type": "function"
    },
    {
      "inputs": [],
      "name": "challengeNumber",
      "outputs": [
        {
          "internalType": "bytes32",
          "name": "",
          "type": "bytes32"
        }
      ],
      "stateMutability": "view",
      "type": "function"
    },
    {
      "inputs": [
        {
          "internalType": "bytes",
          "name": "blockHeader",
          "type": "bytes"
        },
        {
          "internalType": "bytes32",
          "name": "currentChallenge",
          "type": "bytes32"
        },
        {
          "internalType": "uint256",
          "name": "claimedTarget",
          "type": "uint256"
        },
        {
          "internalType": "bytes",
          "name": "seedHash",
          "type": "bytes"
        }
      ],
      "name": "checkMintRandomxInputs",
      "outputs": [
        {
          "internalType": "bool",
          "name": "isValid",
          "type": "bool"
        },
        {
          "internalType": "string",
          "name": "errorMessage",
          "type": "string"
        }
      ],
      "stateMutability": "view",
      "type": "function"
    },
    {
      "inputs": [
        {
          "internalType": "uint256",
          "name": "nonce",
          "type": "uint256"
        },
        {
          "internalType": "bytes32",
          "name": "challenge_digest",
          "type": "bytes32"
        },
        {
          "internalType": "bytes32",
          "name": "challenge_number",
          "type": "bytes32"
        },
        {
          "internalType": "uint256",
          "name": "testTarget",
          "type": "uint256"
        }
      ],
      "name": "checkMintSolution",
      "outputs": [
        {
          "internalType": "bool",
          "name": "success",
          "type": "bool"
        }
      ],
      "stateMutability": "view",
      "type": "function"
    },
    {
      "inputs": [
        {
          "internalType": "uint256",
          "name": "",
          "type": "uint256"
        }
      ],
      "name": "chunkProposalsCounter",
      "outputs": [
        {
          "internalType": "uint256",
          "name": "",
          "type": "uint256"
        }
      ],
      "stateMutability": "view",
      "type": "function"
    },
    {
      "inputs": [
        {
          "internalType": "uint256",
          "name": "",
          "type": "uint256"
        },
        {
          "internalType": "uint256",
          "name": "",
          "type": "uint256"
        }
      ],
      "name": "chunkproposals",
      "outputs": [
        {
          "internalType": "bytes32",
          "name": "",
          "type": "bytes32"
        }
      ],
      "stateMutability": "view",
      "type": "function"
    },
    {
      "inputs": [
        {
          "internalType": "uint256",
          "name": "",
          "type": "uint256"
        }
      ],
      "name": "chunks",
      "outputs": [
        {
          "internalType": "uint256",
          "name": "id",
          "type": "uint256"
        },
        {
          "internalType": "bytes32",
          "name": "diseaseid",
          "type": "bytes32"
        },
        {
          "internalType": "uint256",
          "name": "idx",
          "type": "uint256"
        },
        {
          "internalType": "string",
          "name": "title",
          "type": "string"
        },
        {
          "internalType": "string",
          "name": "desc",
          "type": "string"
        }
      ],
      "stateMutability": "view",
      "type": "function"
    },
    {
      "inputs": [],
      "name": "chunksCounter",
      "outputs": [
        {
          "internalType": "uint256",
          "name": "",
          "type": "uint256"
        }
      ],
      "stateMutability": "view",
      "type": "function"
    },
    {
      "inputs": [
        {
          "internalType": "bytes32",
          "name": "_proposed_release_hash",
          "type": "bytes32"
        }
      ],
      "name": "clmpropbyhash",
      "outputs": [],
      "stateMutability": "nonpayable",
      "type": "function"
    },
    {
      "inputs": [
        {
          "internalType": "address",
          "name": "",
          "type": "address"
        },
        {
          "internalType": "bytes32",
          "name": "",
          "type": "bytes32"
        }
      ],
      "name": "commits",
      "outputs": [
        {
          "internalType": "uint256",
          "name": "amount",
          "type": "uint256"
        },
        {
          "internalType": "uint256",
          "name": "timestamp",
          "type": "uint256"
        }
      ],
      "stateMutability": "view",
      "type": "function"
    },
    {
      "inputs": [
        {
          "internalType": "uint256",
          "name": "_amount",
          "type": "uint256"
        },
        {
          "internalType": "bytes32",
          "name": "_votehash",
          "type": "bytes32"
        }
      ],
      "name": "commitvote",
      "outputs": [],
      "stateMutability": "nonpayable",
      "type": "function"
    },
    {
      "inputs": [
        {
          "internalType": "bytes32",
          "name": "_diseasehash",
          "type": "bytes32"
        },
        {
          "internalType": "string",
          "name": "_title",
          "type": "string"
        },
        {
          "internalType": "string",
          "name": "_description",
          "type": "string"
        }
      ],
      "name": "createchunk",
      "outputs": [],
      "stateMutability": "nonpayable",
      "type": "function"
    },
    {
      "inputs": [
        {
          "internalType": "string",
          "name": "_name",
          "type": "string"
        }
      ],
      "name": "createdisease",
      "outputs": [],
      "stateMutability": "nonpayable",
      "type": "function"
    },
    {
      "inputs": [],
      "name": "decimals",
      "outputs": [
        {
          "internalType": "uint256",
          "name": "",
          "type": "uint256"
        }
      ],
      "stateMutability": "view",
      "type": "function"
    },
    {
      "inputs": [
        {
          "internalType": "bytes32",
          "name": "",
          "type": "bytes32"
        }
      ],
      "name": "diseaseChunksCounter",
      "outputs": [
        {
          "internalType": "uint256",
          "name": "",
          "type": "uint256"
        }
      ],
      "stateMutability": "view",
      "type": "function"
    },
    {
      "inputs": [
        {
          "internalType": "bytes32",
          "name": "",
          "type": "bytes32"
        }
      ],
      "name": "diseaseProposalsCounter",
      "outputs": [
        {
          "internalType": "uint256",
          "name": "",
          "type": "uint256"
        }
      ],
      "stateMutability": "view",
      "type": "function"
    },
    {
      "inputs": [
        {
          "internalType": "bytes32",
          "name": "",
          "type": "bytes32"
        },
        {
          "internalType": "uint256",
          "name": "",
          "type": "uint256"
        }
      ],
      "name": "diseasechunks",
      "outputs": [
        {
          "internalType": "uint256",
          "name": "",
          "type": "uint256"
        }
      ],
      "stateMutability": "view",
      "type": "function"
    },
    {
      "inputs": [
        {
          "internalType": "bytes32",
          "name": "",
          "type": "bytes32"
        },
        {
          "internalType": "uint256",
          "name": "",
          "type": "uint256"
        }
      ],
      "name": "diseaseproposals",
      "outputs": [
        {
          "internalType": "bytes32",
          "name": "",
          "type": "bytes32"
        }
      ],
      "stateMutability": "view",
      "type": "function"
    },
    {
      "inputs": [
        {
          "internalType": "uint256",
          "name": "",
          "type": "uint256"
        }
      ],
      "name": "diseases",
      "outputs": [
        {
          "internalType": "bytes32",
          "name": "disease_hash",
          "type": "bytes32"
        },
        {
          "internalType": "string",
          "name": "name",
          "type": "string"
        }
      ],
      "stateMutability": "view",
      "type": "function"
    },
    {
      "inputs": [],
      "name": "diseasesCounter",
      "outputs": [
        {
          "internalType": "uint256",
          "name": "",
          "type": "uint256"
        }
      ],
      "stateMutability": "view",
      "type": "function"
    },
    {
      "inputs": [
        {
          "internalType": "bytes32",
          "name": "",
          "type": "bytes32"
        }
      ],
      "name": "diseasesbyIds",
      "outputs": [
        {
          "internalType": "uint256",
          "name": "",
          "type": "uint256"
        }
      ],
      "stateMutability": "view",
      "type": "function"
    },
    {
      "inputs": [],
      "name": "epochCount",
      "outputs": [
        {
          "internalType": "uint256",
          "name": "",
          "type": "uint256"
        }
      ],
      "stateMutability": "view",
      "type": "function"
    },
    {
      "inputs": [
        {
          "internalType": "address",
          "name": "_staker",
          "type": "address"
        },
        {
          "internalType": "uint256",
          "name": "_amount",
          "type": "uint256"
        }
      ],
      "name": "eticatobosoms",
      "outputs": [
        {
          "internalType": "bool",
          "name": "success",
          "type": "bool"
        }
      ],
      "stateMutability": "nonpayable",
      "type": "function"
    },
    {
      "inputs": [],
      "name": "getChallengeNumber",
      "outputs": [
        {
          "internalType": "bytes32",
          "name": "",
          "type": "bytes32"
        }
      ],
      "stateMutability": "view",
      "type": "function"
    },
    {
      "inputs": [],
      "name": "getMiningDifficulty",
      "outputs": [
        {
          "internalType": "uint256",
          "name": "",
          "type": "uint256"
        }
      ],
      "stateMutability": "view",
      "type": "function"
    },
    {
      "inputs": [],
      "name": "getMiningReward",
      "outputs": [
        {
          "internalType": "uint256",
          "name": "",
          "type": "uint256"
        }
      ],
      "stateMutability": "view",
      "type": "function"
    },
    {
      "inputs": [],
      "name": "getMiningTarget",
      "outputs": [
        {
          "internalType": "uint256",
          "name": "",
          "type": "uint256"
        }
      ],
      "stateMutability": "view",
      "type": "function"
    },
    {
      "inputs": [
        {
          "internalType": "uint256",
          "name": "nonce",
          "type": "uint256"
        },
        {
          "internalType": "bytes32",
          "name": "challenge_digest",
          "type": "bytes32"
        },
        {
          "internalType": "bytes32",
          "name": "challenge_number",
          "type": "bytes32"
        }
      ],
      "name": "getMintDigest",
      "outputs": [
        {
          "internalType": "bytes32",
          "name": "digesttest",
          "type": "bytes32"
        }
      ],
      "stateMutability": "view",
      "type": "function"
    },
    {
      "inputs": [
        {
          "internalType": "string",
          "name": "_name",
          "type": "string"
        }
      ],
      "name": "getdiseasehashbyName",
      "outputs": [
        {
          "internalType": "bytes32",
          "name": "_diseasehash",
          "type": "bytes32"
        }
      ],
      "stateMutability": "view",
      "type": "function"
    },
    {
      "inputs": [],
      "name": "inflationrate",
      "outputs": [
        {
          "internalType": "uint256",
          "name": "",
          "type": "uint256"
        }
      ],
      "stateMutability": "view",
      "type": "function"
    },
    {
      "inputs": [],
      "name": "initiatormsg",
      "outputs": [
        {
          "internalType": "string",
          "name": "",
          "type": "string"
        }
      ],
      "stateMutability": "view",
      "type": "function"
    },
    {
      "inputs": [],
      "name": "lastRewardEthBlockNumber",
      "outputs": [
        {
          "internalType": "uint256",
          "name": "",
          "type": "uint256"
        }
      ],
      "stateMutability": "view",
      "type": "function"
    },
    {
      "inputs": [],
      "name": "lastRewardTo",
      "outputs": [
        {
          "internalType": "address",
          "name": "",
          "type": "address"
        }
      ],
      "stateMutability": "view",
      "type": "function"
    },
    {
      "inputs": [],
      "name": "latestDifficultyPeriodStarted",
      "outputs": [
        {
          "internalType": "uint256",
          "name": "",
          "type": "uint256"
        }
      ],
      "stateMutability": "view",
      "type": "function"
    },
    {
      "inputs": [],
      "name": "miningTarget",
      "outputs": [
        {
          "internalType": "uint256",
          "name": "",
          "type": "uint256"
        }
      ],
      "stateMutability": "view",
      "type": "function"
    },
    {
      "inputs": [
        {
          "internalType": "uint256",
          "name": "nonce",
          "type": "uint256"
        },
        {
          "internalType": "bytes32",
          "name": "challenge_digest",
          "type": "bytes32"
        }
      ],
      "name": "mint",
      "outputs": [
        {
          "internalType": "bool",
          "name": "success",
          "type": "bool"
        }
      ],
      "stateMutability": "nonpayable",
      "type": "function"
    },
    {
      "inputs": [
        {
          "internalType": "bytes4",
          "name": "nonce",
          "type": "bytes4"
        },
        {
          "internalType": "bytes",
          "name": "blockHeader",
          "type": "bytes"
        },
        {
          "internalType": "bytes32",
          "name": "currentChallenge",
          "type": "bytes32"
        },
        {
          "internalType": "bytes",
          "name": "randomxHash",
          "type": "bytes"
        },
        {
          "internalType": "uint256",
          "name": "claimedTarget",
          "type": "uint256"
        },
        {
          "internalType": "bytes",
          "name": "seedHash",
          "type": "bytes"
        },
        {
          "internalType": "bytes8",
          "name": "extraNonce",
          "type": "bytes8"
        }
      ],
      "name": "mintrandomX",
      "outputs": [
        {
          "internalType": "bool",
          "name": "success",
          "type": "bool"
        }
      ],
      "stateMutability": "nonpayable",
      "type": "function"
    },
    {
      "inputs": [],
      "name": "name",
      "outputs": [
        {
          "internalType": "string",
          "name": "",
          "type": "string"
        }
      ],
      "stateMutability": "view",
      "type": "function"
    },
    {
      "inputs": [],
      "name": "periodrewardtemp",
      "outputs": [
        {
          "internalType": "uint256",
          "name": "",
          "type": "uint256"
        }
      ],
      "stateMutability": "view",
      "type": "function"
    },
    {
      "inputs": [
        {
          "internalType": "uint256",
          "name": "",
          "type": "uint256"
        }
      ],
      "name": "periods",
      "outputs": [
        {
          "internalType": "uint256",
          "name": "id",
          "type": "uint256"
        },
        {
          "internalType": "uint256",
          "name": "interval",
          "type": "uint256"
        },
        {
          "internalType": "uint256",
          "name": "curation_sum",
          "type": "uint256"
        },
        {
          "internalType": "uint256",
          "name": "editor_sum",
          "type": "uint256"
        },
        {
          "internalType": "uint256",
          "name": "reward_for_curation",
          "type": "uint256"
        },
        {
          "internalType": "uint256",
          "name": "reward_for_editor",
          "type": "uint256"
        },
        {
          "internalType": "uint256",
          "name": "forprops",
          "type": "uint256"
        },
        {
          "internalType": "uint256",
          "name": "againstprops",
          "type": "uint256"
        }
      ],
      "stateMutability": "view",
      "type": "function"
    },
    {
      "inputs": [],
      "name": "periodsCounter",
      "outputs": [
        {
          "internalType": "uint256",
          "name": "",
          "type": "uint256"
        }
      ],
      "stateMutability": "view",
      "type": "function"
    },
    {
      "inputs": [
        {
          "internalType": "bytes32",
          "name": "",
          "type": "bytes32"
        }
      ],
      "name": "proposals",
      "outputs": [
        {
          "internalType": "uint256",
          "name": "id",
          "type": "uint256"
        },
        {
          "internalType": "bytes32",
          "name": "proposed_release_hash",
          "type": "bytes32"
        },
        {
          "internalType": "bytes32",
          "name": "disease_id",
          "type": "bytes32"
        },
        {
          "internalType": "uint256",
          "name": "period_id",
          "type": "uint256"
        },
        {
          "internalType": "uint256",
          "name": "chunk_id",
          "type": "uint256"
        },
        {
          "internalType": "address",
          "name": "proposer",
          "type": "address"
        },
        {
          "internalType": "string",
          "name": "title",
          "type": "string"
        },
        {
          "internalType": "string",
          "name": "description",
          "type": "string"
        },
        {
          "internalType": "string",
          "name": "freefield",
          "type": "string"
        },
        {
          "internalType": "string",
          "name": "raw_release_hash",
          "type": "string"
        }
      ],
      "stateMutability": "view",
      "type": "function"
    },
    {
      "inputs": [],
      "name": "proposalsCounter",
      "outputs": [
        {
          "internalType": "uint256",
          "name": "",
          "type": "uint256"
        }
      ],
      "stateMutability": "view",
      "type": "function"
    },
    {
      "inputs": [
        {
          "internalType": "uint256",
          "name": "",
          "type": "uint256"
        }
      ],
      "name": "proposalsbyIndex",
      "outputs": [
        {
          "internalType": "bytes32",
          "name": "",
          "type": "bytes32"
        }
      ],
      "stateMutability": "view",
      "type": "function"
    },
    {
      "inputs": [
        {
          "internalType": "bytes32",
          "name": "_diseasehash",
          "type": "bytes32"
        },
        {
          "internalType": "string",
          "name": "_title",
          "type": "string"
        },
        {
          "internalType": "string",
          "name": "_description",
          "type": "string"
        },
        {
          "internalType": "string",
          "name": "raw_release_hash",
          "type": "string"
        },
        {
          "internalType": "string",
          "name": "_freefield",
          "type": "string"
        },
        {
          "internalType": "uint256",
          "name": "_chunkid",
          "type": "uint256"
        }
      ],
      "name": "propose",
      "outputs": [],
      "stateMutability": "nonpayable",
      "type": "function"
    },
    {
      "inputs": [
        {
          "internalType": "bytes32",
          "name": "",
          "type": "bytes32"
        }
      ],
      "name": "propsdatas",
      "outputs": [
        {
          "internalType": "uint256",
          "name": "starttime",
          "type": "uint256"
        },
        {
          "internalType": "uint256",
          "name": "endtime",
          "type": "uint256"
        },
        {
          "internalType": "uint256",
          "name": "finalized_time",
          "type": "uint256"
        },
        {
          "internalType": "enum CrucibleRelease.ProposalStatus",
          "name": "status",
          "type": "uint8"
        },
        {
          "internalType": "enum CrucibleRelease.ProposalStatus",
          "name": "prestatus",
          "type": "uint8"
        },
        {
          "internalType": "bool",
          "name": "istie",
          "type": "bool"
        },
        {
          "internalType": "uint256",
          "name": "nbvoters",
          "type": "uint256"
        },
        {
          "internalType": "uint256",
          "name": "slashingratio",
          "type": "uint256"
        },
        {
          "internalType": "uint256",
          "name": "forvotes",
          "type": "uint256"
        },
        {
          "internalType": "uint256",
          "name": "againstvotes",
          "type": "uint256"
        },
        {
          "internalType": "uint256",
          "name": "lastcuration_weight",
          "type": "uint256"
        },
        {
          "internalType": "uint256",
          "name": "lasteditor_weight",
          "type": "uint256"
        },
        {
          "internalType": "uint256",
          "name": "approvalthreshold",
          "type": "uint256"
        }
      ],
      "stateMutability": "view",
      "type": "function"
    },
    {
      "inputs": [
        {
          "internalType": "address",
          "name": "",
          "type": "address"
        },
        {
          "internalType": "bytes32",
          "name": "",
          "type": "bytes32"
        }
      ],
      "name": "qamounts",
      "outputs": [
        {
          "internalType": "uint256",
          "name": "amount",
          "type": "uint256"
        }
      ],
      "stateMutability": "view",
      "type": "function"
    },
    {
      "inputs": [],
      "name": "randomxBlob",
      "outputs": [
        {
          "internalType": "bytes",
          "name": "",
          "type": "bytes"
        }
      ],
      "stateMutability": "view",
      "type": "function"
    },
    {
      "inputs": [],
      "name": "randomxBlobfirstpart",
      "outputs": [
        {
          "internalType": "bytes32",
          "name": "",
          "type": "bytes32"
        }
      ],
      "stateMutability": "view",
      "type": "function"
    },
    {
      "inputs": [
        {
          "internalType": "bytes32",
          "name": "",
          "type": "bytes32"
        },
        {
          "internalType": "bytes32",
          "name": "",
          "type": "bytes32"
        }
      ],
      "name": "randomxSealSolutions",
      "outputs": [
        {
          "internalType": "bytes32",
          "name": "",
          "type": "bytes32"
        }
      ],
      "stateMutability": "view",
      "type": "function"
    },
    {
      "inputs": [],
      "name": "randomxSeedhash",
      "outputs": [
        {
          "internalType": "bytes",
          "name": "",
          "type": "bytes"
        }
      ],
      "stateMutability": "view",
      "type": "function"
    },
    {
      "inputs": [
        {
          "internalType": "bytes32",
          "name": "_proposed_release_hash",
          "type": "bytes32"
        },
        {
          "internalType": "bool",
          "name": "_approved",
          "type": "bool"
        },
        {
          "internalType": "string",
          "name": "_vary",
          "type": "string"
        }
      ],
      "name": "recovercommit",
      "outputs": [],
      "stateMutability": "nonpayable",
      "type": "function"
    },
    {
      "inputs": [
        {
          "internalType": "bytes32",
          "name": "_votehash",
          "type": "bytes32"
        }
      ],
      "name": "recoverlostcommit",
      "outputs": [],
      "stateMutability": "nonpayable",
      "type": "function"
    },
    {
      "inputs": [
        {
          "internalType": "bytes32",
          "name": "_proposed_release_hash",
          "type": "bytes32"
        },
        {
          "internalType": "bool",
          "name": "_approved",
          "type": "bool"
        },
        {
          "internalType": "string",
          "name": "_vary",
          "type": "string"
        }
      ],
      "name": "revealvote",
      "outputs": [],
      "stateMutability": "nonpayable",
      "type": "function"
    },
    {
      "inputs": [
        {
          "internalType": "uint256",
          "name": "_stakeidx",
          "type": "uint256"
        }
      ],
      "name": "stakeclmidx",
      "outputs": [],
      "stateMutability": "nonpayable",
      "type": "function"
    },
    {
      "inputs": [
        {
          "internalType": "address",
          "name": "",
          "type": "address"
        },
        {
          "internalType": "uint256",
          "name": "",
          "type": "uint256"
        }
      ],
      "name": "stakes",
      "outputs": [
        {
          "internalType": "uint256",
          "name": "amount",
          "type": "uint256"
        },
        {
          "internalType": "uint256",
          "name": "endTime",
          "type": "uint256"
        }
      ],
      "stateMutability": "view",
      "type": "function"
    },
    {
      "inputs": [
        {
          "internalType": "address",
          "name": "",
          "type": "address"
        }
      ],
      "name": "stakesAmount",
      "outputs": [
        {
          "internalType": "uint256",
          "name": "",
          "type": "uint256"
        }
      ],
      "stateMutability": "view",
      "type": "function"
    },
    {
      "inputs": [
        {
          "internalType": "address",
          "name": "",
          "type": "address"
        }
      ],
      "name": "stakesCounters",
      "outputs": [
        {
          "internalType": "uint256",
          "name": "",
          "type": "uint256"
        }
      ],
      "stateMutability": "view",
      "type": "function"
    },
    {
      "inputs": [
        {
          "internalType": "address",
          "name": "_staker",
          "type": "address"
        }
      ],
      "name": "stakescount",
      "outputs": [
        {
          "internalType": "uint256",
          "name": "slength",
          "type": "uint256"
        }
      ],
      "stateMutability": "view",
      "type": "function"
    },
    {
      "inputs": [
        {
          "internalType": "uint256",
          "name": "_endTime",
          "type": "uint256"
        },
        {
          "internalType": "uint256",
          "name": "_min_limit",
          "type": "uint256"
        },
        {
          "internalType": "uint256",
          "name": "_maxidx",
          "type": "uint256"
        }
      ],
      "name": "stakescsldt",
      "outputs": [],
      "stateMutability": "nonpayable",
      "type": "function"
    },
    {
      "inputs": [
        {
          "internalType": "uint256",
          "name": "_stakeidx",
          "type": "uint256"
        },
        {
          "internalType": "uint256",
          "name": "_snapamount",
          "type": "uint256"
        }
      ],
      "name": "stakesnap",
      "outputs": [],
      "stateMutability": "nonpayable",
      "type": "function"
    },
    {
      "inputs": [],
      "name": "supply",
      "outputs": [
        {
          "internalType": "uint256",
          "name": "",
          "type": "uint256"
        }
      ],
      "stateMutability": "view",
      "type": "function"
    },
    {
      "inputs": [],
      "name": "symbol",
      "outputs": [
        {
          "internalType": "string",
          "name": "",
          "type": "string"
        }
      ],
      "stateMutability": "view",
      "type": "function"
    },
    {
      "inputs": [],
      "name": "tokensMinted",
      "outputs": [
        {
          "internalType": "uint256",
          "name": "",
          "type": "uint256"
        }
      ],
      "stateMutability": "view",
      "type": "function"
    },
    {
      "inputs": [],
      "name": "totalSupply",
      "outputs": [
        {
          "internalType": "uint256",
          "name": "",
          "type": "uint256"
        }
      ],
      "stateMutability": "view",
      "type": "function"
    },
    {
      "inputs": [
        {
          "internalType": "address",
          "name": "to",
          "type": "address"
        },
        {
          "internalType": "uint256",
          "name": "tokens",
          "type": "uint256"
        }
      ],
      "name": "transfer",
      "outputs": [
        {
          "internalType": "bool",
          "name": "success",
          "type": "bool"
        }
      ],
      "stateMutability": "nonpayable",
      "type": "function"
    },
    {
      "inputs": [
        {
          "internalType": "address",
          "name": "from",
          "type": "address"
        },
        {
          "internalType": "address",
          "name": "to",
          "type": "address"
        },
        {
          "internalType": "uint256",
          "name": "tokens",
          "type": "uint256"
        }
      ],
      "name": "transferFrom",
      "outputs": [
        {
          "internalType": "bool",
          "name": "",
          "type": "bool"
        }
      ],
      "stateMutability": "nonpayable",
      "type": "function"
    },
    {
      "inputs": [
        {
          "internalType": "uint256",
          "name": "newTarget",
          "type": "uint256"
        }
      ],
      "name": "updateTarget",
      "outputs": [],
      "stateMutability": "nonpayable",
      "type": "function"
    },
    {
      "inputs": [],
      "name": "updatecost",
      "outputs": [],
      "stateMutability": "nonpayable",
      "type": "function"
    },
    {
      "inputs": [],
      "name": "updatev2",
      "outputs": [],
      "stateMutability": "nonpayable",
      "type": "function"
    },
    {
      "inputs": [],
      "name": "updatev3",
      "outputs": [],
      "stateMutability": "nonpayable",
      "type": "function"
    },
    {
      "inputs": [
        {
          "internalType": "bytes32",
          "name": "",
          "type": "bytes32"
        },
        {
          "internalType": "address",
          "name": "",
          "type": "address"
        }
      ],
      "name": "votes",
      "outputs": [
        {
          "internalType": "bytes32",
          "name": "proposal_hash",
          "type": "bytes32"
        },
        {
          "internalType": "bool",
          "name": "approve",
          "type": "bool"
        },
        {
          "internalType": "bool",
          "name": "is_editor",
          "type": "bool"
        },
        {
          "internalType": "uint256",
          "name": "amount",
          "type": "uint256"
        },
        {
          "internalType": "address",
          "name": "voter",
          "type": "address"
        },
        {
          "internalType": "uint256",
          "name": "timestamp",
          "type": "uint256"
        },
        {
          "internalType": "bool",
          "name": "is_claimed",
          "type": "bool"
        }
      ],
      "stateMutability": "view",
      "type": "function"
    },
    {
      "stateMutability": "payable",
      "type": "receive"
    }
  ],
  "bytecode": "0x60c06040526005608090815264457469636160d81b60a05260009062000026908262000543565b5060408051808201909152600381526245544960e81b602082015260019062000050908262000543565b5060126002556408e4b1e125600655640e63c506db6007556107e0600e556004600f55600160e01b60105560786019556101e0601a55610168601b556078601c55600254600a620000a2919062000722565b620000af90606462000730565b601d55600254620000c290600a62000722565b620000cf90600a62000730565b601e55611388601f5560056020556001602181905560225561182460235560006024556043805460ff1990811690915562093a8060445560458054909116905561019a6049553480156200012257600080fd5b5068056bc75e2d631000006003819055306000908152600960205260409020546200014d91620001c8565b3060009081526009602052604090205568da5351938e7eb5b95c6005556002546200017a90600a62000722565b620001899062b03d3062000730565b600b5560006017556801f30795e38ed87acc60135560105460115542600c55620001b2620001ec565b6b1004c20e49aa3240785fcad2600455620007ba565b6000620001d682846200074a565b905082811015620001e657600080fd5b92915050565b600d54620001fc906001620001c8565b600d819055600e546200020f9162000776565b60000362000221576200022162000271565b6200022e4360016200042d565b406012819055601854600d54604080516020810194909452830191909152606082015260800160408051601f198184030181529190528051602090910120601255565b601154600c54600090620002879042906200042d565b600e549091506000906200029e9061025862000450565b90508082101562000355576000620002c583620002be846103e862000450565b9062000482565b9050610fa0811115620002d75750610fa05b601054620002e8906103e862000482565b601154101562000313576011546200030a908290620002be906103e862000450565b60115562000326565b60105462000322908262000482565b6011555b6200033384600462000482565b60115410156200034e576200034a84600462000482565b6011555b50620003fc565b60006200036a82620002be856103e862000450565b9050610fa08111156200037c5750610fa05b6010546200038b908262000482565b60115411620003b557601154620003ac906103e890620002be908462000450565b601155620003bc565b6010546011555b620003cb600019600462000482565b8411620003fa57620003df84600462000450565b6011541115620003fa57620003f684600462000450565b6011555b505b42600c55600f5460115410156200041457600f546011555b601054601154111562000428576010546011555b505050565b6000828211156200043d57600080fd5b6200044982846200078d565b9392505050565b60006200045e828462000730565b905082158062000478575081620004768483620007a3565b145b620001e657600080fd5b60008082116200049157600080fd5b620004498284620007a3565b634e487b7160e01b600052604160045260246000fd5b600181811c90821680620004c857607f821691505b602082108103620004e957634e487b7160e01b600052602260045260246000fd5b50919050565b601f82111562000428576000816000526020600020601f850160051c810160208610156200051a5750805b601f850160051c820191505b818110156200053b5782815560010162000526565b505050505050565b81516001600160401b038111156200055f576200055f6200049d565b6200057781620005708454620004b3565b84620004ef565b602080601f831160018114620005af5760008415620005965750858301515b600019600386901b1c1916600185901b1785556200053b565b600085815260208120601f198616915b82811015620005e057888601518255948401946001909101908401620005bf565b5085821015620005ff5787850151600019600388901b60f8161c191681555b5050505050600190811b01905550565b634e487b7160e01b600052601160045260246000fd5b600181815b80851115620006665781600019048211156200064a576200064a6200060f565b808516156200065857918102915b93841c93908002906200062a565b509250929050565b6000826200067f57506001620001e6565b816200068e57506000620001e6565b8160018114620006a75760028114620006b257620006d2565b6001915050620001e6565b60ff841115620006c657620006c66200060f565b50506001821b620001e6565b5060208310610133831016604e8410600b8410161715620006f7575081810a620001e6565b62000703838362000625565b80600019048211156200071a576200071a6200060f565b029392505050565b60006200044983836200066e565b8082028115828204841417620001e657620001e66200060f565b80820180821115620001e657620001e66200060f565b634e487b7160e01b600052601260045260246000fd5b60008262000788576200078862000760565b500690565b81810381811115620001e657620001e66200060f565b600082620007b557620007b562000760565b500490565b617ea080620007ca6000396000f3fe60806040526004361061069f5760003560e01c80636bb5a58211610364578063b54f31db116101c6578063d74ce8c511610102578063ea4a1104116100a0578063f71ae2aa1161007a578063f71ae2aa146115fe578063f8c12e2c14611614578063f8d8268314611634578063fc84abb71461166157600080fd5b8063ea4a110414611502578063ecd3cb821461159b578063f08a01f8146115bb57600080fd5b8063dd62ed3e116100dc578063dd62ed3e1461143f578063e47e25a214611492578063e723b9d9146114bf578063e729798e146114ec57600080fd5b8063d74ce8c5146113fe578063d89abcb514611414578063dc6e9cf91461142957600080fd5b8063c19885761161016f578063cf70fa4011610149578063cf70fa401461138f578063d03150c6146113a5578063d40170d7146113bb578063d732b835146113d157600080fd5b8063c198857614611314578063c7bef6ee1461134c578063cb9ae7071461137957600080fd5b8063b87c0c1d116101a0578063b87c0c1d146112c4578063be7d798e146112de578063bf6fc725146112f457600080fd5b8063b54f31db14611282578063b5ade81b14611298578063b6407769146112ae57600080fd5b806388858985116102a057806397566aa01161023e578063a9059cbb11610218578063a9059cbb1461120d578063b01ab0b21461122d578063b31102e214611242578063b4ef00f01461126257600080fd5b806397566aa01461116a57806399690178146111e1578063a5ec87e4146111f757600080fd5b806391efa9141161027a57806391efa9141461101e5780639386775a1461105657806395bd852e1461112757806395d89b411461115557600080fd5b80638885898514610fc55780638a769d3514610ff25780638ae0368b1461100857600080fd5b8063751652801161030d57806381269a56116102e757806381269a5614610f4c578063829965cc14610f6c578063841218ee14610f8257806387a2a9d614610faf57600080fd5b80637516528014610ecd57806378199fdf14610f0c5780637f66cb4e14610f2c57600080fd5b80636fd396d61161033e5780636fd396d614610e225780637006695114610e7457806370a0823114610e8a57600080fd5b80636bb5a58214610dd65780636de9f32b14610df65780636fbbbf1d14610e0c57600080fd5b806332e997081161050d578063490203a7116104495780635965916f116103e75780635dfa7396116103c15780635dfa739614610d2557806362adb2e114610d685780636352170f14610da057806369f43e9c14610dc057600080fd5b80635965916f14610cc95780635a2bc22d14610cde5780635dbdda6914610d0f57600080fd5b8063509fce5b11610423578063509fce5b14610c125780635327d4af14610c285780635708416414610c48578063584b62a114610c7557600080fd5b8063490203a714610b4a5780634b44c6aa14610b5f5780634ef3762814610bfd57600080fd5b806337eed2d6116104b65780633c5e64d1116104905780633c5e64d114610aae578063410e1b0714610ace578063424d389414610ae457806346459b2214610b1c57600080fd5b806337eed2d614610a6c5780633925bfe714610a825780633ab3429014610a9857600080fd5b8063366c41a3116104e7578063366c41a314610a2b57806336dfec1c14610a41578063370ef54f14610a5657600080fd5b806332e99708146109b357806332ed5b12146109c8578063356df5ee146109fe57600080fd5b806317da485f116105dc578063229cb73c1161058557806327e235e31161055f57806327e235e3146109445780632e175004146109715780632f40907c14610987578063313ce5671461099d57600080fd5b8063229cb73c146108ef57806322ae4ccf1461090457806323b872dd1461092457600080fd5b80631853f0a8116105b65780631853f0a8146108815780631883a8d0146108975780631dcc83a9146108cf57600080fd5b806317da485f146108345780631801fbe51461084957806318160ddd1461086c57600080fd5b8063095ea7b3116106495780630dbc6c55116106235780630dbc6c55146107c65780631081a47e146107dc578063141a3dcf14610809578063163aa00d1461081e57600080fd5b8063095ea7b31461076c5780630d899b1b1461078c5780630db5fea4146107a657600080fd5b8063047fc9aa1161067a578063047fc9aa1461071e57806305103f5e1461073457806306fdde031461074a57600080fd5b8062e6e553146106ae5780630206cea3146106d7578063037d2f35146106ee57600080fd5b366106a957600080fd5b600080fd5b3480156106ba57600080fd5b506106c460075481565b6040519081526020015b60405180910390f35b3480156106e357600080fd5b506106ec61168e565b005b3480156106fa57600080fd5b5061070e61070936600461703a565b61176d565b60405190151581526020016106ce565b34801561072a57600080fd5b506106c460035481565b34801561074057600080fd5b506106c460495481565b34801561075657600080fd5b5061075f611ca4565b6040516106ce919061718c565b34801561077857600080fd5b5061070e6107873660046171c3565b611d32565b34801561079857600080fd5b5060455461070e9060ff1681565b3480156107b257600080fd5b506106ec6107c13660046171ed565b611dce565b3480156107d257600080fd5b506106c460225481565b3480156107e857600080fd5b506106c46107f736600461724b565b602d6020526000908152604090205481565b34801561081557600080fd5b5061075f6124e2565b34801561082a57600080fd5b506106c460155481565b34801561084057600080fd5b506106c46124ef565b34801561085557600080fd5b5061070e610864366004617264565b600092915050565b34801561087857600080fd5b506003546106c4565b34801561088d57600080fd5b506106c4602a5481565b3480156108a357600080fd5b506106c46108b23660046171c3565b604260209081526000928352604080842090915290825290205481565b3480156108db57600080fd5b506106ec6108ea366004617286565b61250d565b3480156108fb57600080fd5b506106c46129f9565b34801561091057600080fd5b506106ec61091f366004617264565b612a12565b34801561093057600080fd5b5061070e61093f366004617345565b612c37565b34801561095057600080fd5b506106c461095f366004617381565b60096020526000908152604090205481565b34801561097d57600080fd5b506106c4601a5481565b34801561099357600080fd5b506106c460365481565b3480156109a957600080fd5b506106c460025481565b3480156109bf57600080fd5b506011546106c4565b3480156109d457600080fd5b506109e86109e336600461724b565b612d69565b6040516106ce9a9998979695949392919061739c565b348015610a0a57600080fd5b506106c4610a1936600461724b565b60326020526000908152604090205481565b348015610a3757600080fd5b506106c4601d5481565b348015610a4d57600080fd5b5061075f612ff1565b348015610a6257600080fd5b506106c4601b5481565b348015610a7857600080fd5b506106c460245481565b348015610a8e57600080fd5b506106c4601c5481565b348015610aa457600080fd5b506106c4601f5481565b348015610aba57600080fd5b506106ec610ac9366004617439565b612ffe565b348015610ada57600080fd5b506106c4600b5481565b348015610af057600080fd5b506106c4610aff366004617264565b603760209081526000928352604080842090915290825290205481565b348015610b2857600080fd5b50610b3c610b3736600461724b565b61319e565b6040516106ce92919061749c565b348015610b5657600080fd5b506106c4613243565b348015610b6b57600080fd5b50610be4610b7a36600461724b565b603460205260009081526040902080546001820154600283015460038401546004850154600586015460068701546007880154600889015460098a0154600a909a015498999798969760ff808816986101008904821698620100009004909116969594939291908d565b6040516106ce9d9c9b9a9998979695949392919061751f565b348015610c0957600080fd5b506012546106c4565b348015610c1e57600080fd5b506106c460085481565b348015610c3457600080fd5b506106ec610c43366004617595565b61325d565b348015610c5457600080fd5b506106c4610c63366004617381565b603d6020526000908152604090205481565b348015610c8157600080fd5b50610cb4610c903660046171c3565b603e6020908152600092835260408084209091529082529020805460019091015482565b604080519283526020830191909152016106ce565b348015610cd557600080fd5b5061075f6133f7565b348015610cea57600080fd5b50610cfe610cf936600461724b565b613414565b6040516106ce9594939291906175c1565b348015610d1b57600080fd5b506106c460195481565b348015610d3157600080fd5b506106c4610d40366004617381565b73ffffffffffffffffffffffffffffffffffffffff166000908152603f602052604090205490565b348015610d7457600080fd5b506106c4610d83366004617264565b602f60209081526000928352604080842090915290825290205481565b348015610dac57600080fd5b506106ec610dbb3660046171ed565b613555565b348015610dcc57600080fd5b506106c4604a5481565b348015610de257600080fd5b506106ec610df1366004617604565b613d71565b348015610e0257600080fd5b506106c460175481565b348015610e1857600080fd5b506106c4602c5481565b348015610e2e57600080fd5b50601454610e4f9073ffffffffffffffffffffffffffffffffffffffff1681565b60405173ffffffffffffffffffffffffffffffffffffffff90911681526020016106ce565b348015610e8057600080fd5b506106c460215481565b348015610e9657600080fd5b506106c4610ea5366004617381565b73ffffffffffffffffffffffffffffffffffffffff1660009081526009602052604090205490565b348015610ed957600080fd5b50610cb4610ee83660046171c3565b603c6020908152600092835260408084209091529082529020805460019091015482565b348015610f1857600080fd5b506106ec610f2736600461724b565b601155565b348015610f3857600080fd5b506106ec610f4736600461724b565b613f21565b348015610f5857600080fd5b5061070e610f67366004617639565b6143d3565b348015610f7857600080fd5b506106c4600d5481565b348015610f8e57600080fd5b506106c4610f9d36600461724b565b60306020526000908152604090205481565b348015610fbb57600080fd5b506106c460105481565b348015610fd157600080fd5b506106c4610fe036600461724b565b60296020526000908152604090205481565b348015610ffe57600080fd5b506106c460115481565b34801561101457600080fd5b506106c460125481565b34801561102a57600080fd5b506106c4611039366004617264565b604660209081526000928352604080842090915290825290205481565b34801561106257600080fd5b506110d461107136600461766b565b603b602090815260009283526040808420909152908252902080546001820154600283015460038401546004850154600590950154939460ff8085169561010090950481169473ffffffffffffffffffffffffffffffffffffffff909316921687565b60408051978852951515602088015293151594860194909452606085019190915273ffffffffffffffffffffffffffffffffffffffff16608084015260a0830191909152151560c082015260e0016106ce565b34801561113357600080fd5b50611147611142366004617697565b614443565b6040516106ce92919061770e565b34801561116157600080fd5b5061075f614635565b34801561117657600080fd5b506106c4611185366004617595565b604080516020808201939093523360601b7fffffffffffffffffffffffffffffffffffffffff00000000000000000000000016818301526054808201959095528151808203909501855260740190528251920191909120919050565b3480156111ed57600080fd5b506106c4601e5481565b34801561120357600080fd5b506106c460335481565b34801561121957600080fd5b5061070e6112283660046171c3565b614642565b34801561123957600080fd5b506106ec614701565b34801561124e57600080fd5b506106ec61125d366004617264565b6147ba565b34801561126e57600080fd5b506106c461127d366004617604565b61494b565b34801561128e57600080fd5b506106c460065481565b3480156112a457600080fd5b506106c4600e5481565b3480156112ba57600080fd5b506106c460045481565b3480156112d057600080fd5b5060435461070e9060ff1681565b3480156112ea57600080fd5b506106c460205481565b34801561130057600080fd5b5061070e61130f3660046171c3565b614973565b34801561132057600080fd5b506106c461132f366004617264565b603860209081526000928352604080842090915290825290205481565b34801561135857600080fd5b506106c4611367366004617381565b60406020819052600091825290205481565b34801561138557600080fd5b506106c4600c5481565b34801561139b57600080fd5b506106c460135481565b3480156113b157600080fd5b506106c460285481565b3480156113c757600080fd5b506106c460055481565b3480156113dd57600080fd5b506106c46113ec366004617381565b603f6020526000908152604090205481565b34801561140a57600080fd5b506106c460265481565b34801561142057600080fd5b506106ec6149c2565b34801561143557600080fd5b506106c4600f5481565b34801561144b57600080fd5b506106c461145a366004617729565b73ffffffffffffffffffffffffffffffffffffffff9182166000908152600a6020908152604080832093909416825291909152205490565b34801561149e57600080fd5b506106c46114ad36600461724b565b603a6020526000908152604090205481565b3480156114cb57600080fd5b506106c46114da36600461724b565b60396020526000908152604090205481565b3480156114f857600080fd5b506106c460235481565b34801561150e57600080fd5b5061156061151d36600461724b565b6025602052600090815260409020805460018201546002830154600384015460048501546005860154600687015460079097015495969495939492939192909188565b604080519889526020890197909752958701949094526060860192909252608085015260a084015260c083015260e0820152610100016106ce565b3480156115a757600080fd5b506106ec6115b636600461724b565b614a77565b3480156115c757600080fd5b506106c46115d6366004617381565b73ffffffffffffffffffffffffffffffffffffffff166000908152603d602052604090205490565b34801561160a57600080fd5b506106c460445481565b34801561162057600080fd5b506106ec61162f36600461724b565b614c9b565b34801561164057600080fd5b506106c461164f36600461724b565b60276020526000908152604090205481565b34801561166d57600080fd5b506106c461167c366004617381565b60416020526000908152604090205481565b60455460ff161561169e57600080fd5b6002546116ac90600a6178a2565b6116b8906103e86178ae565b601e556116c36155ff565b6047906116d09082617968565b506116d9615746565b6048906116e69082617968565b507fffffffffffffffffffffffffffffffffffffffffffffffffffffffffffffffff601081905561171a90622625a06157b0565b60115561019a60495560025461173190600a6178a2565b61173d906101f46178ae565b601d55604580547fffffffffffffffffffffffffffffffffffffffffffffffffffffffffffffff00166001179055565b6000604760405161177e9190617a82565b60405180910390208780519060200120146117fa576040517f08c379a000000000000000000000000000000000000000000000000000000000815260206004820152601460248201527f426c6f636b486561646572206d69736d6174636800000000000000000000000060448201526064015b60405180910390fd5b601254861461180857600080fd5b60486040516118179190617a82565b604051809103902083805190602001201461188e576040517f08c379a000000000000000000000000000000000000000000000000000000000815260206004820152601160248201527f5365656468617368206d69736d6174636800000000000000000000000000000060448201526064016117f1565b60115484111561189d57600080fd5b6040517fffffffffffffffffffffffffffffffffffffffff0000000000000000000000003360601b1660208201527fffffffff0000000000000000000000000000000000000000000000000000000089166034820152600090603801604080517fffffffffffffffffffffffffffffffffffffffffffffffffffffffffffffffe08184030181529181528151602092830120601254600090815260468452828120828252909352908220549092509081900361195857600080fd5b60008a87878a6040516020016119719493929190617b16565b60405160208183030381529060405280519060200120905081811461199557600080fd5b60125460009081526016602052604090205480156119b257600080fd5b60125460009081526016602052604090208390556002546119d490600a6178a2565b6119e190621cd6d06178ae565b60175411611a08576801f30795e38ed87acc60135568da5351938e7eb5b95c600555611b71565b600254611a1690600a6178a2565b611a23906269be506178ae565b6017541015611a4c576801bb94f70329a3fb606013556901b4a6a3271cfd6b72b8600555611b71565b600254611a5a90600a6178a2565b611a679062aba9506178ae565b6017541015611a905768011d28e7efbf572199601355690118b444500059c512e4600555611b71565b600254611a9e90600a6178a2565b611aab9062cc9ed06178ae565b6017541015611ad257678e9473f7dfab90cc601355688c5a2228002ce289a4600555611b71565b600254611ae090600a6178a2565b611aed9062dd19906178ae565b6017541015611b145767474a39fbefd5c86660135568462d111400167144a0600555611b71565b600354600090611b26906127106157cf565b90506000611b358260646157b0565b9050611b53631f5406b0611b4d6064818560506157cf565b906157b0565b601355611b6b6207f4d5611b4d6064818560146157cf565b60055550505b601354601754611b80916157fb565b6017819055600b5411611b9557611b95617b7b565b601354600354611ba4916157fb565b60035560135433600090815260096020526040902054611bc3916157fb565b33600081815260096020526040902091909155601480547fffffffffffffffffffffffff000000000000000000000000000000000000000016909117905543601555611c0d615816565b601354600d546012546040805193845260208401929092529082015233907fcf6fbb9dcea7d07263ab4f5c3a92f53af33dffc421d9d121e1c74b307e68189d9060600160405180910390a2601354604051908152339030907fddf252ad1be2c89b69c2b068fc378daa952ba7f163c4a11628f55a4df523b3ef9060200160405180910390a35060019b9a5050505050505050505050565b60008054611cb1906178c5565b80601f0160208091040260200160405190810160405280929190818152602001828054611cdd906178c5565b8015611d2a5780601f10611cff57610100808354040283529160200191611d2a565b820191906000526020600020905b815481529060010190602001808311611d0d57829003601f168201915b505050505081565b33600090815260096020526040812054821115611d4e57600080fd5b60008211611d5b57600080fd5b336000818152600a6020908152604080832073ffffffffffffffffffffffffffffffffffffffff881680855290835292819020869055518581529192917f8c5be1e5ebec7d5bd14f71427d1e84f3dd0314c0f7b2291e5b200ac8c7c3b92591015b60405180910390a35060015b92915050565b600083833384604051602001611de79493929190617baa565b604080517fffffffffffffffffffffffffffffffffffffffffffffffffffffffffffffffe08184030181529181528151602092830120336000908152603c8452828120828252909352912054909150611e3f57600080fd5b6000848152603160205260409020805415801590611e605750848160010154145b611e6957600080fd5b6000858152603460205260409020601c546001820154611e88916157fb565b4211611e9357600080fd5b336000818152603c602090815260408083208784528252808320549383526041909152902054611ec2916158f4565b336000908152604160209081526040808320939093556003850154825260259052908120601954909190611ef79042906157b0565b90506000611f236001611f1d601954611b4d601c54601b546157fb90919063ffffffff16565b906157fb565b6001840154909150611f3590826157fb565b821015611f4157600080fd5b60008815611f4d575060015b336000908152603c602090815260408083208a84529091528120546005870154602154601a54929392611f969261271092611b4d92611f909160049183916157cf565b906157cf565b905060038088810154610100900460ff1690811115611fb757611fb76174b5565b03611fc157506044545b600387810154610100900460ff1690811115611fdf57611fdf6174b5565b836003811115611ff157611ff16174b5565b036120305761202d612710611b4d89600501546127116120119190617be7565b611f906002611f90602154601a546157cf90919063ffffffff16565b90505b336000908152603c602090815260408083208c845290915281205461205d90606490611b4d90600a6157cf565b90506126ac88600501541180156120a25750600388810154610100900460ff169081111561208d5761208d6174b5565b84600381111561209f5761209f6174b5565b14155b156120b5576120b28160026157cf565b90505b60408051828152602081018f905233917f53ef86fe8b545e88c8078a71aa8a9be4140e6f140b4e36f0ffee9207cf1ee896910160405180910390a26008546120fd90826157fb565b600855336000908152603c602090815260408083208d845290915290205461212590826158f4565b925060015b336000908152603f6020526040902054811161221c57336000908152603e602090815260408083208484529091529020548210156121d257336000908152603e6020908152604080832084845290915290205461218790836158f4565b336000818152603e602090815260408083208684528252808320949094559181529082905220546121b890836158f4565b33600090815260406020819052812091909155915061221c565b336000908152603e602090815260408083208484529091529020546121f89083906158f4565b9150612204338261590d565b811561221c578061221481617bfa565b91505061212a565b5082156124615760408051848152602081018f905290810183905233907fd93567a4d470fa277429086aae141410cccc35c73954734ea3e24152fc044f359060600160405180910390a260015b336000908152603f6020526040902054811161245f57336000908152603e60209081526040808320848452909152902054841061236c57336000908152603e6020908152604080832084845290915290206001015442101561231057336000908152603e602090815260408083208484529091529020600101546122ed90846157fb565b336000908152603e60209081526040808320858452909152902060010155612339565b61231a42846157fb565b336000908152603e602090815260408083208584529091529020600101555b336000908152603e6020908152604080832084845290915290205461235f9085906158f4565b9350831561245f5761244d565b336000908152603e6020908152604080832084845290915281205461239190866158f4565b336000908152603e6020908152604080832086845290915290206001810154908790559091504281111561240a57336000908152603e602090815260408083208684529091529020600101546123e790866157fb565b336000908152603e60209081526040808320878452909152902060010155612433565b61241442866157fb565b336000908152603e602090815260408083208784529091529020600101555b811561244657612444338383615a4c565b505b505061245f565b8061245781617bfa565b915050612269565b505b6001890154336000818152603c602090815260408083208f84528252918290205491519182527f3ededec39a86b2261e09be07993014ceae66346b9af09000ec0cc87fe2d8f9de910160405180910390a3336000908152603c602090815260408083208d845290915281208181556001015550505050505050505050505050565b60488054611cb1906178c5565b60006125086011546010546157b090919063ffffffff16565b905090565b6000868152602d60205260409020541580159061253a5750602c546000878152602d602052604090205411155b61254357600080fd5b6000868152602d60209081526040808320548352602b909152902054861461256a57600080fd5b60365481111561257957600080fd5b6000838760405160200161258e929190617c32565b604080517fffffffffffffffffffffffffffffffffffffffffffffffffffffffffffffffe0818403018152918152815160209283012060008a815260309093529120549091506125df9060016157fb565b6000888152603060209081526040808320849055602f8252808320938352929052208190556033546126129060016157fb565b60338190556000908152603260209081526040808320849055838352603190915290206001015480151580612654575060008281526031602052604090205415155b1561265e57600080fd5b6000612675601954426157b090919063ffffffff16565b6000818152602960205260408120549192500361269457612694615aec565b60008381526031602090815260408083206033548155600281018d90558484526029909252909120546003820155600181018490556005810180547fffffffffffffffffffffffff00000000000000000000000000000000000000001633179055600681016127038a82617968565b50600781016127128982617968565b50600981016127218882617968565b50600881016127308782617968565b5060008481526034602052604081206003810180547fffffffffffffffffffffffffffffffffffffffffffffffffffffffffff00000016620102021790556004810182905560058101829055600681018290556007810182905560088101829055600981019190915542808255601b546127aa91906157fb565b6001820155601f54600a820155601e54336000908152603d602052604090205410156127d557600080fd5b601e54336000908152603d60205260409020546127f1916158f4565b336000908152603d6020908152604080832093909355601e5460419091529190205461281c916157fb565b33600081815260416020908152604080832094909455600186810154808452603b8352858420858552835285842090815590810180547fffffffffffffffffffffffffffffffffffffffffffffffffffffffffffff000016610101179055601e546002820155600380820180547fffffffffffffffffffffffff00000000000000000000000000000000000000001690951790945542600482015592850180547fffffffffffffffffffffffffffffffffffffffffffffffffffffffffffff00ff16610300179055898252603590529190912054801580159061290f57506000888152603560205260409020600101548d145b1561296057600484018890556000888152603a60205260409020546129359060016157fb565b6000898152603a60209081526040808320849055600188015460388352818420948452939091529020555b6018546040805160208101929092528101889052606001604080518083037fffffffffffffffffffffffffffffffffffffffffffffffffffffffffffffffe001815290829052805160209182012060185560028601548983528a92909133917ff20f961bd89931f54768689d741307497501063bee5847fc3fcaa72b026d1859910160405180910390a450505050505050505050505050565b60006125086008546003546158f490919063ffffffff16565b6127108211612a2057600080fd5b336000908152603d6020526040902054821115612a3c57600080fd5b336000908152603d6020526040902054612a5690836158f4565b336000908152603d6020908152604080832093909355604190522054612a7c90836157fb565b336000908152604160209081526040808320849055603d909152902054612aa2916157fb565b336000908152604060208190529020541015612b66576040517f08c379a000000000000000000000000000000000000000000000000000000000815260206004820152605760248201527f457469636152656c656173653a2045786365737320626f736f6d7320666f722060448201527f74686973206e657720766f746520616d6f756e742c20636c61696d20736f6d6560648201527f207374616b6573206265666f7265206e657720766f7465000000000000000000608482015260a4016117f1565b336000908152603c60209081526040808320848452909152902054612b8b90836157fb565b336000908152603c60209081526040808320858452825291829020928355426001909301929092556018548151928301528101829052606001604080518083037fffffffffffffffffffffffffffffffffffffffffffffffffffffffffffffffe00181528282528051602091820120601855838352820184905233917f8a1ff244f8a72f76c71ce96c1ddf485af695058f9e3638a8359e74257d71a30691015b60405180910390a25050565b73ffffffffffffffffffffffffffffffffffffffff8316600090815260096020526040812054612c6790836158f4565b73ffffffffffffffffffffffffffffffffffffffff8516600090815260096020908152604080832093909355600a815282822033835290522054612cab90836158f4565b73ffffffffffffffffffffffffffffffffffffffff8086166000908152600a60209081526040808320338452825280832094909455918616815260099091522054612cf690836157fb565b73ffffffffffffffffffffffffffffffffffffffff80851660008181526009602052604090819020939093559151908616907fddf252ad1be2c89b69c2b068fc378daa952ba7f163c4a11628f55a4df523b3ef90612d579086815260200190565b60405180910390a35060019392505050565b60316020526000908152604090208054600182015460028301546003840154600485015460058601546006870180549697959694959394929373ffffffffffffffffffffffffffffffffffffffff90921692612dc4906178c5565b80601f0160208091040260200160405190810160405280929190818152602001828054612df0906178c5565b8015612e3d5780601f10612e1257610100808354040283529160200191612e3d565b820191906000526020600020905b815481529060010190602001808311612e2057829003601f168201915b505050505090806007018054612e52906178c5565b80601f0160208091040260200160405190810160405280929190818152602001828054612e7e906178c5565b8015612ecb5780601f10612ea057610100808354040283529160200191612ecb565b820191906000526020600020905b815481529060010190602001808311612eae57829003601f168201915b505050505090806008018054612ee0906178c5565b80601f0160208091040260200160405190810160405280929190818152602001828054612f0c906178c5565b8015612f595780601f10612f2e57610100808354040283529160200191612f59565b820191906000526020600020905b815481529060010190602001808311612f3c57829003601f168201915b505050505090806009018054612f6e906178c5565b80601f0160208091040260200160405190810160405280929190818152602001828054612f9a906178c5565b8015612fe75780601f10612fbc57610100808354040283529160200191612fe7565b820191906000526020600020905b815481529060010190602001808311612fca57829003601f168201915b505050505090508a565b60478054611cb1906178c5565b6000838152602d60205260409020541580159061302b5750602c546000848152602d602052604090205411155b61303457600080fd5b6000838152602d60209081526040808320548352602b909152902054831461305b57600080fd5b601d5460009061306c9060056157b0565b3360009081526009602052604090205490915081111561308b57600080fd5b6130953082614642565b506036546130a49060016157fb565b6036556000848152603960205260409020546130c19060016157fb565b600085815260396020908152604080832084815560365460378452828520958552948352818420859055815160a0810183528581528084018a81529154818401908152606082018a8152608083018a9052968652603590945291909320815181559251600184015590516002830155915160038201906131419082617968565b50608082015160048201906131569082617968565b50506008546131669150826157fb565b6008556036546040518591907fb733708a2586752275a4854aac54c7bb263ad67859f07d16147feea53ca009d790600090a350505050565b602b60205260009081526040902080546001820180549192916131c0906178c5565b80601f01602080910402602001604051908101604052809291908181526020018280546131ec906178c5565b80156132395780601f1061320e57610100808354040283529160200191613239565b820191906000526020600020905b81548152906001019060200180831161321c57829003601f168201915b5050505050905082565b6000600b5460175411613257575060135490565b50600090565b61326b426303c267006157fb565b831061327657600080fd5b603281111580156132965750336000908152603f60205260409020548111155b61329f57600080fd5b6000806001805b8481116133a057336000908152603f602052604090205460021161338e57336000908152603f602052604090205481116132e2578091506132ff565b6132ec81846158f4565b915060018210156132ff576132ff617b7b565b336000908152603e6020908152604080832085845290915290206001015487108015906133495750336000908152603e602090815260408083208584529091529020600101548611155b1561338e57336000908152603e602090815260408083208584529091529020546133749085906157fb565b9350613380338361590d565b61338b8360016157fb565b92505b8061339881617bfa565b9150506132a6565b5082156133b4576133b2338488615c4c565b505b604080518781526020810187905233917f52806950881c6df8cc206c3b151fcc9aea7b2d53d8ff441469dffd05e851e3ab910160405180910390a2505050505050565b60405180610100016040528060d98152602001617d9260d9913981565b603560205260009081526040902080546001820154600283015460038401805493949293919291613444906178c5565b80601f0160208091040260200160405190810160405280929190818152602001828054613470906178c5565b80156134bd5780601f10613492576101008083540402835291602001916134bd565b820191906000526020600020905b8154815290600101906020018083116134a057829003601f168201915b5050505050908060040180546134d2906178c5565b80601f01602080910402602001604051908101604052809291908181526020018280546134fe906178c5565b801561354b5780601f106135205761010080835404028352916020019161354b565b820191906000526020600020905b81548152906001019060200180831161352e57829003601f168201915b5050505050905085565b60008383338460405160200161356e9493929190617baa565b604080517fffffffffffffffffffffffffffffffffffffffffffffffffffffffffffffffe08184030181529181528151602092830120336000908152603c84528281208282529093529120549091506135c657600080fd5b60008481526031602052604090208054158015906135e75750848160010154145b6135f057600080fd5b6000858152603460209081526040808320600180820154338652603c8552838620888752909452919093200154111561362857600080fd5b80600101544211801561364b5750601c546001820154613647916157fb565b4211155b61365457600080fd5b6002600382810154610100900460ff1690811115613674576136746174b5565b0361367e57600080fd5b600881015460098201546003840154600090815260256020908152604080832060018801548452603b835281842033855290925290912054801515806136e4575060018601546000908152603b6020908152604080832033845290915290206002015415155b156136ee57600080fd5b6000603b60008860010154815260200190815260200160002060003373ffffffffffffffffffffffffffffffffffffffff1673ffffffffffffffffffffffffffffffffffffffff168152602001908152602001600020905086600101548160000181905550898160010160006101000a81548160ff02191690831515021790555060008160010160016101000a81548160ff021916908315150217905550603c60003373ffffffffffffffffffffffffffffffffffffffff1673ffffffffffffffffffffffffffffffffffffffff1681526020019081526020016000206000898152602001908152602001600020600001548160020181905550338160030160006101000a81548173ffffffffffffffffffffffffffffffffffffffff021916908373ffffffffffffffffffffffffffffffffffffffff16021790555042816004018190555061384c600187600401546157fb90919063ffffffff16565b6004870155336000908152603c602090815260408083208b8452909152812054670de0b6b3a764000011156138a857336000908152603c602090815260408083208c84529091529020546138a19060026157b0565b90506138de565b6138db6138d8670a688906bd8b0000336000908152603c602090815260408083208f845290915290205490615d6a565b90565b90505b33600090815260426020908152604080832060018c0154845290915290208190558a1561391e57600687015461391490826157fb565b6006880155613933565b600787015461392d90826157fb565b60078801555b60008060006139538a600701548b600601546157fb90919063ffffffff16565b905060006139706127108c600601546157cf90919063ffffffff16565b600a8c015490915060009061398583856157b0565b111561399057600194505b600a8c015461399f83856157b0565b036139a957600193505b60038c0180547fffffffffffffffffffffffffffffffffffffffffffffffffffffffffff00ffff1662010000861515021790558415613a35576139fe612710611b4d858f600a0154612710611f909190617be7565b9050613a1d81611b4d6127108f600701546157cf90919063ffffffff16565b9050613a2b81612710617be7565b60058d0155613a85565b613a52612710611b4d8e600a0154866157cf90919063ffffffff16565b9050613a7181611b4d6127108f600601546157cf90919063ffffffff16565b9050613a7f81612710617be7565b60058d01555b6127108c600501541115613a9857600080fd5b60008515613aa4575060015b6003808e810154610100900460ff1690811115613ac357613ac36174b5565b03613b02578515613ae85760068a0154613ade9060016157fb565b60068b0155613ba0565b60078a0154613af89060016157fb565b60078b0155613ba0565b60038d810154610100900460ff1690811115613b2057613b206174b5565b816003811115613b3257613b326174b5565b14613ba0576001816003811115613b4b57613b4b6174b5565b03613b755760078a0154613b609060016158f4565b60078b015560068a0154613ade9060016157fb565b60068a0154613b859060016158f4565b60068b015560078a0154613b9a9060016157fb565b60078b01555b8415613c0b5760038d0180547fffffffffffffffffffffffffffffffffffffffffffffffffffffffffffff00ff169055600060088e0181905560098e015560028a0154613bed908d6158f4565b60028b015560038a0154613c01908c6158f4565b60038b0155613cef565b8515613c845760038d0180547fffffffffffffffffffffffffffffffffffffffffffffffffffffffffffff00ff1661010017905560068d015460088e0181905560098e0181905560028b0154613c669190611f1d908f6158f4565b60028b015560098d015460038b0154613c019190611f1d908e6158f4565b60038d0180547fffffffffffffffffffffffffffffffffffffffffffffffffffffffffffff00ff16905560078d015460088e01819055600060098f015560028b0154613cd59190611f1d908f6158f4565b60028b015560038a0154613ce9908c6158f4565b60038b01555b60018e0154600289015460405190815233907f4627acd8194d77d62502e6eb464100f9c2d8a487c62a6fd54048d3d8f1cb5c519060200160405180910390a3613d5d8f336000908152603c602090815260408083208484528083529083208381559383529052600190910155565b505050505050505050505050505050505050565b6040805160008152602081018083528151902091613d9191849101617c54565b6040516020818303038152906040528051906020012003613db157600080fd5b601d54336000908152600960205260409020541015613dcf57600080fd5b613ddb30601d54614642565b50601d54600854613deb916157fb565b600855604051600090613e0290839060200161718c565b604051602081830303815290604052805190602001209050613e306001602c546157fb90919063ffffffff16565b602c556000818152602d602052604090205415613e4c57600080fd5b602e82604051613e5c9190617c54565b9081526040519081900360200190205415613e7657600080fd5b6040805180820182528281526020808201858152602c546000908152602b9092529290208151815591519091906001820190613eb29082617968565b5050602c546000838152602d6020526040908190209190915551829150602e90613edd908590617c54565b908152602001604051809103902081905550602c547f830578780908e1ff0fbde38777892998c31b30c39451a5a3b0e99cbf7bd781df83604051612c2b919061718c565b336000908152603c60209081526040808320848452909152902054613f4557600080fd5b336000818152603c602090815260408083208584528252808320549383526041909152902054613f74916158f4565b33600090815260416020908152604080832093909355603c81528282208483529052908120546044549091613faf6064611b4d8560156157cf565b604080518281526000602082015291925033917f53ef86fe8b545e88c8078a71aa8a9be4140e6f140b4e36f0ffee9207cf1ee896910160405180910390a2600854613ffa90826157fb565b600855336000908152603c6020908152604080832087845290915290205461402290826158f4565b925060015b336000908152603f6020526040902054811161411957336000908152603e602090815260408083208484529091529020548210156140cf57336000908152603e6020908152604080832084845290915290205461408490836158f4565b336000818152603e602090815260408083208684528252808320949094559181529082905220546140b590836158f4565b336000908152604060208190528120919091559150614119565b336000908152603e602090815260408083208484529091529020546140f59083906158f4565b9150614101338261590d565b8115614119578061411181617bfa565b915050614027565b50821561435e57604080518481526000602082015290810183905233907fd93567a4d470fa277429086aae141410cccc35c73954734ea3e24152fc044f359060600160405180910390a260015b336000908152603f6020526040902054811161435c57336000908152603e60209081526040808320848452909152902054841061426957336000908152603e6020908152604080832084845290915290206001015442101561420d57336000908152603e602090815260408083208484529091529020600101546141ea90846157fb565b336000908152603e60209081526040808320858452909152902060010155614236565b61421742846157fb565b336000908152603e602090815260408083208584529091529020600101555b336000908152603e6020908152604080832084845290915290205461425c9085906158f4565b9350831561435c5761434a565b336000908152603e6020908152604080832084845290915281205461428e90866158f4565b336000908152603e6020908152604080832086845290915290206001810154908790559091504281111561430757336000908152603e602090815260408083208684529091529020600101546142e490866157fb565b336000908152603e60209081526040808320878452909152902060010155614330565b61431142866157fb565b336000908152603e602090815260408083208784529091529020600101555b811561434357614341338383615a4c565b505b505061435c565b8061435481617bfa565b915050614166565b505b336000818152603c6020908152604080832088845282528083205490519081529192917f3ededec39a86b2261e09be07993014ceae66346b9af09000ec0cc87fe2d8f9de910160405180910390a3336000908152603c6020908152604080832087845290915281208181556001015550505050565b6040805160208082018590523360601b7fffffffffffffffffffffffffffffffffffffffff0000000000000000000000001682840152605480830188905283518084039091018152607490920190925280519101206000908281111561443857600080fd5b909314949350505050565b6000606060476040516144569190617a82565b60405180910390208680519060200120146144a957505060408051808201909152601481527f426c6f636b486561646572206d69736d61746368000000000000000000000000602082015260009061462c565b60125485146144f057505060408051808201909152601281527f4368616c6c656e6765206d69736d617463680000000000000000000000000000602082015260009061462c565b60486040516144ff9190617a82565b604051809103902083805190602001201461455257505060408051808201909152601181527f5365656468617368206d69736d61746368000000000000000000000000000000602082015260009061462c565b60115484111561459a57505060408051808201909152601781527f436c61696d65642074617267657420746f6f2068696768000000000000000000602082015260009061462c565b601254600090815260166020526040902054156145f25760006040518060400160405280602081526020017f4368616c6c656e676520616c726561647920686173206120736f6c7574696f6e8152509150915061462c565b505060408051808201909152601481527f416c6c20706172616d65746572732076616c696400000000000000000000000060208201526001905b94509492505050565b60018054611cb1906178c5565b600080821161465057600080fd5b3360009081526009602052604090205461466a90836158f4565b336000908152600960205260408082209290925573ffffffffffffffffffffffffffffffffffffffff8516815220546146a390836157fb565b73ffffffffffffffffffffffffffffffffffffffff84166000818152600960205260409081902092909255905133907fddf252ad1be2c89b69c2b068fc378daa952ba7f163c4a11628f55a4df523b3ef90611dbc9086815260200190565b60025461470f90600a6178a2565b61471d906301406f406178ae565b600354101561472b57600080fd5b603460265461473a9190617c9f565b1561474457600080fd5b60006147696509184e72a000611b4d6302d69be66003546157cf90919063ffffffff16565b90506000614790655af3107a4000611b4d6302d69be66003546157cf90919063ffffffff16565b601e819055601d839055602654602454919250116147b0576147b0617b7b565b5050602654602455565b600081116147c757600080fd5b6000821180156147e65750336000908152603f60205260409020548211155b6147ef57600080fd5b336000908152603e6020908152604080832085845290915290208054821061481657600080fd5b805460009061482590846158f4565b838355336000908152603f60205260409020549091506148469060016157fb565b336000908152603f60205260409020819055606410156148c2576040517f08c379a000000000000000000000000000000000000000000000000000000000815260206004820181905260248201527f43616e6e6f74206d616b65206d6f7265207468616e20313030207374616b657360448201526064016117f1565b6040805180820182528281526001808501546020808401918252336000908152603e8252858120603f8352868220548252909152939093209151825591519101558061491057614910617b7b565b60405183815233907f5bbe98d566948f7d7db717dafb0a14082df525118fac86c23df2302f161c03479060200160405180910390a250505050565b6000602e8260405161495d9190617c54565b9081526020016040518091039020549050919050565b60003373ffffffffffffffffffffffffffffffffffffffff84161461499757600080fd5b600082116149a457600080fd5b6149ae3083614642565b506149b98383615e7c565b50600192915050565b60435460ff16156149d257600080fd5b6002546149e090600a6178a2565b6149eb9060646178ae565b601e556090600e55600254614a0190600a6178a2565b614a0e9062f053706178ae565b600b55614a19615ee4565b601054601154614a2b906101006157cf565b11614a4357601154614a3f906101006157cf565b6011555b62127500604455604380547fffffffffffffffffffffffffffffffffffffffffffffffffffffffffffffff00166001179055565b600081118015614a965750336000908152603f60205260409020548111155b614a9f57600080fd5b336000908152603e60209081526040808320848452909152902060018101544211614ac957600080fd5b336000908152604160209081526040808320549181905290912054614aed916158f4565b81541115614afa57600080fd5b33600090815260416020908152604080832054603d90925290912054614b1f916157fb565b815433600090815260406020819052902054614b3a916158f4565b1015614bc8573360009081526041602090815260408083205484549282905290832054614b7192614b6b91906158f4565b906158f4565b1115614bb75733600090815260416020908152604080832054845492829052922054614ba29291614b6b91906158f4565b336000908152603d6020526040902055614bc8565b336000908152603d60205260408120555b805430600090815260096020526040902054614be3916158f4565b3060009081526009602052604080822092909255825433825291902054614c09916157fb565b336000818152600960209081526040918290209390935583549051908152909130917fddf252ad1be2c89b69c2b068fc378daa952ba7f163c4a11628f55a4df523b3ef910160405180910390a3805460405190815233907f2aeea59856f5616c244717fd488ead1d1b5fd33608d9583a4607b4c4ba3631e49060200160405180910390a2614c97338361590d565b5050565b6000818152603160205260409020805415801590614cbc5750818160010154145b614cc557600080fd5b6000828152603460205260409020601c546001820154614ce4916157fb565b4211614cef57600080fd5b60018201546000908152603b60209081526040808320338452909152902080548414614d1a57600080fd5b600581015460ff1615614d2c57600080fd5b6005810180547fffffffffffffffffffffffffffffffffffffffffffffffffffffffffffffff00166001179055600281015433600090815260416020526040902054614d77916158f4565b336000908152604160209081526040808320939093556003860154825260259052908120601954909190614dac9042906157b0565b90506000614dd26001611f1d601954611b4d601c54601b546157fb90919063ffffffff16565b6001840154909150614de490826157fb565b821015614df057600080fd5b600260038087015460ff1690811115614e0b57614e0b6174b5565b03614e99576001600386810154610100900460ff1690811115614e3057614e306174b5565b03614e67576003850180547fffffffffffffffffffffffffffffffffffffffffffffffffffffffffffffff00166001179055614e92565b6003850180547fffffffffffffffffffffffffffffffffffffffffffffffffffffffffffffff001690555b4260028601555b600385015462010000900460ff1661557157600184015460009060ff1615614ebf575060015b60038087015460ff1690811115614ed857614ed86174b5565b816003811115614eea57614eea6174b5565b14615364576000856002015490506000614f1f612710611b4d8a60050154611f90602154601a546157cf90919063ffffffff16565b6001880154909150610100900460ff1615614f4557602254614f429082906157cf565b90505b61232888600501541115615117576000614f726064611b4d60038b600201546157cf90919063ffffffff16565b90506126ac89600501541115614fa257614f9f6064611b4d60078b600201546157cf90919063ffffffff16565b90505b6001880154610100900460ff1615614fbb575060028701545b875460405133917f53ef86fe8b545e88c8078a71aa8a9be4140e6f140b4e36f0ffee9207cf1ee89691614ff691858252602082015260400190565b60405180910390a260085461500b90826157fb565b600855600288015461501d90826158f4565b925060015b336000908152603f6020526040902054811161511457336000908152603e602090815260408083208484529091529020548210156150ca57336000908152603e6020908152604080832084845290915290205461507f90836158f4565b336000818152603e602090815260408083208684528252808320949094559181529082905220546150b090836158f4565b336000908152604060208190528120919091559150615114565b336000908152603e602090815260408083208484529091529020546150f09083906158f4565b91506150fc338261590d565b8115615114578061510c81617bfa565b915050615022565b50505b811561535d578654604080518481526020810192909252810182905233907fd93567a4d470fa277429086aae141410cccc35c73954734ea3e24152fc044f359060600160405180910390a260015b336000908152603f6020526040902054811161535b57336000908152603e60209081526040808320848452909152902054831061526857336000908152603e6020908152604080832084845290915290206001015442101561520c57336000908152603e602090815260408083208484529091529020600101546151e990836157fb565b336000908152603e60209081526040808320858452909152902060010155615235565b61521642836157fb565b336000908152603e602090815260408083208584529091529020600101555b336000908152603e6020908152604080832084845290915290205461525b9084906158f4565b9250821561535b57615349565b336000908152603e6020908152604080832084845290915281205461528d90856158f4565b336000908152603e6020908152604080832086845290915290206001810154908690559091504281111561530657336000908152603e602090815260408083208684529091529020600101546152e390856157fb565b336000908152603e6020908152604080832087845290915290206001015561532f565b61531042856157fb565b336000908152603e602090815260408083208784529091529020600101555b811561534257615340338383615a4c565b505b505061535b565b8061535381617bfa565b915050615165565b505b505061556f565b60008085600201541161537657600080fd5b6001860154610100900460ff16615416573360009081526042602090815260408083208c8452909152902054156153ed57600285015460048601543360009081526042602090815260408083208e84529091529020546153e6926153df929091611b4d916157cf565b82906157fb565b9050615416565b6154136153df8660020154611b4d88600401548a600201546157cf90919063ffffffff16565b90505b6001860154610100900460ff1680156154475750600160038089015460ff1690811115615445576154456174b5565b145b1561548657600085600301541161545d57600080fd5b6154836153df8660030154611b4d88600501548b600901546157cf90919063ffffffff16565b90505b60058501546004860154615499916157fb565b8111156154a557600080fd5b306000908152600960205260409020546154bf90826158f4565b306000908152600960205260408082209290925533815220546154e290826157fb565b336000818152600960205260409081902092909255905130907fddf252ad1be2c89b69c2b068fc378daa952ba7f163c4a11628f55a4df523b3ef9061552a9085815260200190565b60405180910390a360408051828152602081018b905233917fe413caa6d70a6d9b51c2af2575a2914490f614355049af8ae7cde5caab9fd201910160405180910390a2505b505b3360009081526042602090815260408083208a8452909152902054156155ad573360009081526042602090815260408083208a84529091528120555b600385015462010000900460ff16156155f65760405187815233907f3e0648214287dbba314854c056353ff9db951ab8f6459ea7c7f922025ba9fdfe9060200160405180910390a25b50505050505050565b6060600061560e600143617be7565b601854601254604080519340602085015283019190915260608201526080016040516020818303038152906040528051906020012090506000816001436156559190617be7565b604080516020810193909352904090820152336060820152608001604080517fffffffffffffffffffffffffffffffffffffffffffffffffffffffffffffffe08184030181528282528051602091820120600d54918401819052918301529150600090606001604080518083037fffffffffffffffffffffffffffffffffffffffffffffffffffffffffffffffe00181528282528051602091820120604a8790559083018690529082018490527fffffffffffffffffffffffffffffffff00000000000000000000000000000000811660608301529150607001604051602081830303815290604052935050505090565b60185460125460405160609261576192604892602001617cb3565b604080517fffffffffffffffffffffffffffffffffffffffffffffffffffffffffffffffe081840301815282825280516020918201209083015201604051602081830303815290604052905090565b60008082116157be57600080fd5b6157c88284617d6a565b9392505050565b60006157db82846178ae565b90508215806157f25750816157f08483617d6a565b145b611dc857600080fd5b60006158078284617d7e565b905082811015611dc857600080fd5b600d546158249060016157fb565b600d819055600e5461583591617c9f565b60000361584457615844615ee4565b604954600d546158549190617c9f565b60000361587257615863615746565b6048906158709082617968565b505b61587d4360016158f4565b406012819055601854600d546040805160208101949094528301919091526060820152608001604080517fffffffffffffffffffffffffffffffffffffffffffffffffffffffffffffffe081840301815291905280516020909101206012556158e46155ff565b6047906158f19082617968565b50565b60008282111561590357600080fd5b6157c88284617be7565b600081118015615942575073ffffffffffffffffffffffffffffffffffffffff82166000908152603f60205260409020548111155b61594b57600080fd5b73ffffffffffffffffffffffffffffffffffffffff82166000818152603e602090815260408083208584528252808320549383529081905290205461598f916158f4565b73ffffffffffffffffffffffffffffffffffffffff831660008181526040602081815281832094909455603e8452808220603f808652828420805485528287528385208886528486208154815560019182015490820155845180860186528681528089018781528354885294895294862094518555925193830193909355939092529190925254615a1f916158f4565b73ffffffffffffffffffffffffffffffffffffffff9092166000908152603f602052604090209190915550565b6000808311615a5a57600080fd5b73ffffffffffffffffffffffffffffffffffffffff84166000908152603f6020526040902054615a8b9060016157fb565b73ffffffffffffffffffffffffffffffffffffffff949094166000818152603f6020908152604080832088905580518082018252968752868201958652928252603e8152828220968252959095529093209151825551600191820155919050565b6000615b03601954426157b090919063ffffffff16565b6000818152602960205260409020549091508015615b2057600080fd5b602654615b2e9060016157fb565b6026818155604080516101008101825283815260208082018781526000838501818152606085018281526080860183815260a0870184815260c0880185815260e089018681529b8652602588528986209851895595516001808a0191909155935160028901559151600388015551600487015551600586015591516006850155955160079093019290925592548685526029909352922055602a54615bd2916157fb565b602a55602654615be19061609c565b50602054602654615bf39060016158f4565b615bfd9190617c9f565b158015615c0c57506001602654115b15615c1957615c19616203565b6026546040518381527ff74223d764da704d974281758065d2eb6c9066dc940e3f549b72e894b0404aef90602001612c2b565b6000808311615c5a57600080fd5b73ffffffffffffffffffffffffffffffffffffffff84166000908152603f6020526040902054615c8b9060016157fb565b73ffffffffffffffffffffffffffffffffffffffff85166000908152603f60209081526040808320939093558290522054615cc690846157fb565b73ffffffffffffffffffffffffffffffffffffffff85166000818152604060208181528183209490945580518082018252878152808501878152848452603e8652828420603f87528385205485529095529181902091518255925160019091015590517f42e99fbad9601d25ee3bb515eeee966f97c3c383adadbe5720f651df8c18989d90615d589086815260200190565b60405180910390a25060019392505050565b60008282818303615d95578015615d82576000615d8c565b670de0b6b3a76400005b92505050611dc8565b670de0b6b3a76400008203615db657670de0b6b3a764000092505050611dc8565b80600003615dd057670de0b6b3a764000092505050611dc8565b670de0b6b3a76400008103615de9578492505050611dc8565b670de0b6b3a7640000821115615e1a57615e13615e0e615e0887616380565b866164e6565b6164f5565b9250615e74565b6000615e386138d8846ec097ce7bc90715b34b9f1000000000617d6a565b90506000615e51615e0e615e4b84616380565b886164e6565b9050615e6f6138d8826ec097ce7bc90715b34b9f1000000000617d6a565b945050505b505092915050565b615e86828261656c565b5073ffffffffffffffffffffffffffffffffffffffff82166000908152603d6020526040902054615eb790826157fb565b73ffffffffffffffffffffffffffffffffffffffff9092166000908152603d602052604090209190915550565b601154600c54600090615ef89042906158f4565b90506000615f13610258600e546157cf90919063ffffffff16565b905080821015615fb5576000615f2f83611b4d846103e86157cf565b9050610fa0811115615f405750610fa05b601054615f4f906103e86157b0565b6011541015615f7b57615f7381611b4d6103e86011546157cf90919063ffffffff16565b601155615f8c565b601054615f8890826157b0565b6011555b615f978460046157b0565b6011541015615faf57615fab8460046157b0565b6011555b5061606d565b6000615fc782611b4d856103e86157cf565b9050610fa0811115615fd85750610fa05b601054615fe590826157b0565b60115411616010576160086103e8611b4d836011546157cf90919063ffffffff16565b601155616017565b6010546011555b6160427fffffffffffffffffffffffffffffffffffffffffffffffffffffffffffffffff60046157b0565b841161606b576160538460046157cf565b601154111561606b576160678460046157cf565b6011555b505b42600c55600f54601154101561608457600f546011555b6010546011541115616097576010546011555b505050565b600080602654116160ac57600080fd5b6000821180156160be57506026548211155b6160c757600080fd5b600082815260256020526040812080549091036160e357600080fd5b805460009081526027602052604090205480156160ff57600080fd5b6000600254600a61611091906178a2565b61611e906301406f406178ae565b600354106161555761614e6c7e37be2022c0914b2680000000611b4d6004546003546157cf90919063ffffffff16565b905061615a565b506005545b61617864174876e800611b4d600654846157cf90919063ffffffff16565b60048401556007546161969064174876e80090611b4d9084906157cf565b60058401556003546161a890826157fb565b600355306000908152600960205260409020546161c590826157fb565b306000908152600960209081526040808320939093558554825260279052208190556028546161f59060016157fb565b602855506001949350505050565b6000806000806162206020546026546158f490919063ffffffff16565b90505b6026546162319060016158f4565b8111616288576000818152602560205260409020600601546162549084906157fb565b6000828152602560205260409020600701549093506162749083906157fb565b91508061628081617bfa565b915050616223565b5061629382826157fb565b6000036162a45761138892506162c0565b6162bd6162b183836157fb565b611b4d846127106157cf565b92505b602354831015616312576023546000906162da90856158f4565b9050616309616300612710611b4d84611f90611194601f546158f490919063ffffffff16565b601f54906158f4565b601f5550616356565b6000616329602354856158f490919063ffffffff16565b9050616351616348612710611b4d84601f54612710611f909190617be7565b601f54906157fb565b601f55505b611194601f54101561636957611194601f555b6126ac601f541115616097576126ac601f55505050565b600081670de0b6b3a76400008110156163c8576040517f36d32ef0000000000000000000000000000000000000000000000000000000008152600481018490526024016117f1565b6000616454670de0b6b3a7640000830460016fffffffffffffffffffffffffffffffff821160071b91821c67ffffffffffffffff811160061b90811c63ffffffff811160051b90811c61ffff811160041b90811c60ff8111600390811b91821c600f811160021b90811c918211871b91821c969096119490961792909217171791909117919091171790565b9050670de0b6b3a7640000810282821c7ffffffffffffffffffffffffffffffffffffffffffffffffff21f494c589c0000810161649757815b9695505050505050565b671bc16d674ec800006706f05b59d3b200005b80156164da57670de0b6b3a76400008380020492508183106164d2579283019260019290921c915b60011c6164aa565b50919695505050505050565b60006157c86138d884846166b0565b600081680a688906bd8affffff81111561653e576040517fb3b6ba1f000000000000000000000000000000000000000000000000000000008152600481018490526024016117f1565b6000616556670de0b6b3a7640000604084901b617d6a565b90506165646138d8826167b7565b949350505050565b600080821161657a57600080fd5b73ffffffffffffffffffffffffffffffffffffffff83166000908152603f60205260409020546165ab9060016157fb565b73ffffffffffffffffffffffffffffffffffffffff84166000908152603f602090815260408083209390935582905220546165e690836157fb565b73ffffffffffffffffffffffffffffffffffffffff8416600090815260406020819052812091909155601a5461661d9042906157fb565b604080518082018252858152602080820184815273ffffffffffffffffffffffffffffffffffffffff89166000818152603e8452858120603f855286822054825284528590209351845590516001909301929092559151868152929350917f42e99fbad9601d25ee3bb515eeee966f97c3c383adadbe5720f651df8c18989d910160405180910390a25060019392505050565b600080807fffffffffffffffffffffffffffffffffffffffffffffffffffffffffffffffff848609848602925082811083820303915050806000036167025750670de0b6b3a764000090049050611dc8565b670de0b6b3a7640000811061674d576040517f5173648d00000000000000000000000000000000000000000000000000000000815260048101869052602481018590526044016117f1565b6000670de0b6b3a7640000858709620400008185030493109091037d40000000000000000000000000000000000000000000000000000000000002919091177faccb18165bd6fe31ae1cf318dc5b51eee0e1ba569b88cd74c1773b91fac106690291505092915050565b7780000000000000000000000000000000000000000000000067ff000000000000008216156168d8576780000000000000008216156167ff5768016a09e667f3bcc9090260401c5b67400000000000000082161561681e576801306fe0a31b7152df0260401c5b67200000000000000082161561683d576801172b83c7d517adce0260401c5b67100000000000000082161561685c5768010b5586cf9890f62a0260401c5b67080000000000000082161561687b576801059b0d31585743ae0260401c5b67040000000000000082161561689a57680102c9a3e778060ee70260401c5b6702000000000000008216156168b95768010163da9fb33356d80260401c5b6701000000000000008216156168d857680100b1afa5abcbed610260401c5b66ff0000000000008216156169d75766800000000000008216156169055768010058c86da1c09ea20260401c5b6640000000000000821615616923576801002c605e2e8cec500260401c5b662000000000000082161561694157680100162f3904051fa10260401c5b661000000000000082161561695f576801000b175effdc76ba0260401c5b660800000000000082161561697d57680100058ba01fb9f96d0260401c5b660400000000000082161561699b5768010002c5cc37da94920260401c5b66020000000000008216156169b9576801000162e525ee05470260401c5b66010000000000008216156169d75768010000b17255775c040260401c5b65ff0000000000821615616acd5765800000000000821615616a02576801000058b91b5bc9ae0260401c5b65400000000000821615616a1f57680100002c5c89d5ec6d0260401c5b65200000000000821615616a3c5768010000162e43f4f8310260401c5b65100000000000821615616a5957680100000b1721bcfc9a0260401c5b65080000000000821615616a765768010000058b90cf1e6e0260401c5b65040000000000821615616a93576801000002c5c863b73f0260401c5b65020000000000821615616ab057680100000162e430e5a20260401c5b65010000000000821615616acd576801000000b1721835510260401c5b64ff00000000821615616bba57648000000000821615616af657680100000058b90c0b490260401c5b644000000000821615616b125768010000002c5c8601cc0260401c5b642000000000821615616b2e576801000000162e42fff00260401c5b641000000000821615616b4a5768010000000b17217fbb0260401c5b640800000000821615616b66576801000000058b90bfce0260401c5b640400000000821615616b8257680100000002c5c85fe30260401c5b640200000000821615616b9e5768010000000162e42ff10260401c5b640100000000821615616bba57680100000000b17217f80260401c5b63ff000000821615616c9e576380000000821615616be15768010000000058b90bfc0260401c5b6340000000821615616bfc576801000000002c5c85fe0260401c5b6320000000821615616c1757680100000000162e42ff0260401c5b6310000000821615616c32576801000000000b17217f0260401c5b6308000000821615616c4d57680100000000058b90c00260401c5b6304000000821615616c685768010000000002c5c8600260401c5b6302000000821615616c83576801000000000162e4300260401c5b6301000000821615616c9e5768010000000000b172180260401c5b62ff0000821615616d795762800000821615616cc3576801000000000058b90c0260401c5b62400000821615616cdd57680100000000002c5c860260401c5b62200000821615616cf75768010000000000162e430260401c5b62100000821615616d1157680100000000000b17210260401c5b62080000821615616d2b5768010000000000058b910260401c5b62040000821615616d45576801000000000002c5c80260401c5b62020000821615616d5f57680100000000000162e40260401c5b62010000821615616d79576801000000000000b1720260401c5b61ff00821615616e4b57618000821615616d9c57680100000000000058b90260401c5b614000821615616db55768010000000000002c5d0260401c5b612000821615616dce576801000000000000162e0260401c5b611000821615616de75768010000000000000b170260401c5b610800821615616e00576801000000000000058c0260401c5b610400821615616e1957680100000000000002c60260401c5b610200821615616e3257680100000000000001630260401c5b610100821615616e4b57680100000000000000b10260401c5b60ff821615616f14576080821615616e6c57680100000000000000590260401c5b6040821615616e84576801000000000000002c0260401c5b6020821615616e9c57680100000000000000160260401c5b6010821615616eb4576801000000000000000b0260401c5b6008821615616ecc57680100000000000000060260401c5b6004821615616ee457680100000000000000030260401c5b6002821615616efc57680100000000000000010260401c5b6001821615616f1457680100000000000000010260401c5b670de0b6b3a76400000260409190911c60bf031c90565b7f4e487b7100000000000000000000000000000000000000000000000000000000600052604160045260246000fd5b600082601f830112616f6b57600080fd5b813567ffffffffffffffff80821115616f8657616f86616f2b565b604051601f83017fffffffffffffffffffffffffffffffffffffffffffffffffffffffffffffffe0908116603f01168101908282118183101715616fcc57616fcc616f2b565b81604052838152866020858801011115616fe557600080fd5b836020870160208301376000602085830101528094505050505092915050565b80357fffffffffffffffff0000000000000000000000000000000000000000000000008116811461703557600080fd5b919050565b600080600080600080600060e0888a03121561705557600080fd5b87357fffffffff000000000000000000000000000000000000000000000000000000008116811461708557600080fd5b9650602088013567ffffffffffffffff808211156170a257600080fd5b6170ae8b838c01616f5a565b975060408a0135965060608a01359150808211156170cb57600080fd5b6170d78b838c01616f5a565b955060808a0135945060a08a01359150808211156170f457600080fd5b506171018a828b01616f5a565b92505061711060c08901617005565b905092959891949750929550565b60005b83811015617139578181015183820152602001617121565b50506000910152565b6000815180845261715a81602086016020860161711e565b601f017fffffffffffffffffffffffffffffffffffffffffffffffffffffffffffffffe0169290920160200192915050565b6020815260006157c86020830184617142565b803573ffffffffffffffffffffffffffffffffffffffff8116811461703557600080fd5b600080604083850312156171d657600080fd5b6171df8361719f565b946020939093013593505050565b60008060006060848603121561720257600080fd5b833592506020840135801515811461721957600080fd5b9150604084013567ffffffffffffffff81111561723557600080fd5b61724186828701616f5a565b9150509250925092565b60006020828403121561725d57600080fd5b5035919050565b6000806040838503121561727757600080fd5b50508035926020909101359150565b60008060008060008060c0878903121561729f57600080fd5b86359550602087013567ffffffffffffffff808211156172be57600080fd5b6172ca8a838b01616f5a565b965060408901359150808211156172e057600080fd5b6172ec8a838b01616f5a565b9550606089013591508082111561730257600080fd5b61730e8a838b01616f5a565b9450608089013591508082111561732457600080fd5b5061733189828a01616f5a565b92505060a087013590509295509295509295565b60008060006060848603121561735a57600080fd5b6173638461719f565b92506173716020850161719f565b9150604084013590509250925092565b60006020828403121561739357600080fd5b6157c88261719f565b60006101408c83528b60208401528a604084015289606084015288608084015273ffffffffffffffffffffffffffffffffffffffff881660a08401528060c08401526173ea81840188617142565b905082810360e08401526173fe8187617142565b90508281036101008401526174138186617142565b90508281036101208401526174288185617142565b9d9c50505050505050505050505050565b60008060006060848603121561744e57600080fd5b83359250602084013567ffffffffffffffff8082111561746d57600080fd5b61747987838801616f5a565b9350604086013591508082111561748f57600080fd5b5061724186828701616f5a565b8281526040602082015260006165646040830184617142565b7f4e487b7100000000000000000000000000000000000000000000000000000000600052602160045260246000fd5b6004811061751b577f4e487b7100000000000000000000000000000000000000000000000000000000600052602160045260246000fd5b9052565b8d8152602081018d9052604081018c90526101a08101617542606083018d6174e4565b61754f608083018c6174e4565b98151560a082015260c081019790975260e08701959095526101008601939093526101208501919091526101408401526101608301526101809091015295945050505050565b6000806000606084860312156175aa57600080fd5b505081359360208301359350604090920135919050565b85815284602082015283604082015260a0606082015260006175e660a0830185617142565b82810360808401526175f88185617142565b98975050505050505050565b60006020828403121561761657600080fd5b813567ffffffffffffffff81111561762d57600080fd5b61656484828501616f5a565b6000806000806080858703121561764f57600080fd5b5050823594602084013594506040840135936060013592509050565b6000806040838503121561767e57600080fd5b8235915061768e6020840161719f565b90509250929050565b600080600080608085870312156176ad57600080fd5b843567ffffffffffffffff808211156176c557600080fd5b6176d188838901616f5a565b9550602087013594506040870135935060608701359150808211156176f557600080fd5b5061770287828801616f5a565b91505092959194509250565b82151581526040602082015260006165646040830184617142565b6000806040838503121561773c57600080fd5b6177458361719f565b915061768e6020840161719f565b7f4e487b7100000000000000000000000000000000000000000000000000000000600052601160045260246000fd5b600181815b808511156177db57817fffffffffffffffffffffffffffffffffffffffffffffffffffffffffffffffff048211156177c1576177c1617753565b808516156177ce57918102915b93841c9390800290617787565b509250929050565b6000826177f257506001611dc8565b816177ff57506000611dc8565b8160018114617815576002811461781f5761783b565b6001915050611dc8565b60ff84111561783057617830617753565b50506001821b611dc8565b5060208310610133831016604e8410600b841016171561785e575081810a611dc8565b6178688383617782565b807fffffffffffffffffffffffffffffffffffffffffffffffffffffffffffffffff0482111561789a5761789a617753565b029392505050565b60006157c883836177e3565b8082028115828204841417611dc857611dc8617753565b600181811c908216806178d957607f821691505b602082108103617912577f4e487b7100000000000000000000000000000000000000000000000000000000600052602260045260246000fd5b50919050565b601f821115616097576000816000526020600020601f850160051c810160208610156179415750805b601f850160051c820191505b818110156179605782815560010161794d565b505050505050565b815167ffffffffffffffff81111561798257617982616f2b565b6179968161799084546178c5565b84617918565b602080601f8311600181146179e957600084156179b35750858301515b7fffffffffffffffffffffffffffffffffffffffffffffffffffffffffffffffff600386901b1c1916600185901b178555617960565b6000858152602081207fffffffffffffffffffffffffffffffffffffffffffffffffffffffffffffffe08616915b82811015617a3657888601518255948401946001909101908401617a17565b5085821015617a7257878501517fffffffffffffffffffffffffffffffffffffffffffffffffffffffffffffffff600388901b60f8161c191681555b5050505050600190811b01905550565b6000808354617a90816178c5565b60018281168015617aa85760018114617adb57617b0a565b7fffffffffffffffffffffffffffffffffffffffffffffffffffffffffffffff0084168752821515830287019450617b0a565b8760005260208060002060005b85811015617b015781548a820152908401908201617ae8565b50505082870194505b50929695505050505050565b7fffffffff000000000000000000000000000000000000000000000000000000008516815283600482015260008351617b5681602485016020880161711e565b835190830190617b6d81602484016020880161711e565b016024019695505050505050565b7f4e487b7100000000000000000000000000000000000000000000000000000000600052600160045260246000fd5b848152831515602082015273ffffffffffffffffffffffffffffffffffffffff8316604082015260806060820152600061648d6080830184617142565b81810381811115611dc857611dc8617753565b60007fffffffffffffffffffffffffffffffffffffffffffffffffffffffffffffffff8203617c2b57617c2b617753565b5060010190565b604081526000617c456040830185617142565b90508260208301529392505050565b60008251617c6681846020870161711e565b9190910192915050565b7f4e487b7100000000000000000000000000000000000000000000000000000000600052601260045260246000fd5b600082617cae57617cae617c70565b500690565b606081526000808554617cc5816178c5565b8060608601526080600180841660008114617ce75760018114617d2157617d53565b7fffffffffffffffffffffffffffffffffffffffffffffffffffffffffffffff0085166080890152608084151560051b8901019550617d53565b8a60005260208060002060005b86811015617d495781548b8201870152908401908201617d2e565b8a01608001975050505b505050505060208301949094525060400152919050565b600082617d7957617d79617c70565b500490565b80820180821115611dc857611dc861775356fe205468697320736d61727420636f6e74726163742069732072756e6e696e6720477561726469616e2048617264666f726b2c2045746963612076332e20446973636f766572696e67206f7572206265737420467574757265732e204e6f20496e74656c6c65637475616c2050726f70657274792c20416c6c2070726f706f73616c7320617265206d61646520756e64657220746865206c6963656e736520437265617469766520436f6d6d6f6e73204174747269627574696f6e20342e3020496e7465726e6174696f6e616c2028434320425920342e30292ea2646970667358221220ba708eadb79ff3f009396aa749e4c65ef7f0298d2ec15c56e7d77a822ef251a764736f6c63430008160033",
  "linkReferences": {},
  "deployedLinkReferences": {}
}