{
  "contractName": "EticaToken",
  "abi": [
    {
      "constant": true,
      "inputs": [],
      "name": "supply",
      "outputs": [
        {
          "name": "",
          "type": "uint256"
        }
      ],
      "payable": false,
      "stateMutability": "view",
      "type": "function"
    },
    {
      "constant": true,
      "inputs": [],
      "name": "name",
      "outputs": [
        {
          "name": "",
          "type": "string"
        }
      ],
      "payable": false,
      "stateMutability": "view",
      "type": "function"
    },
    {
      "constant": true,
      "inputs": [],
      "name": "lastRewardEthBlockNumber",
      "outputs": [
        {
          "name": "",
          "type": "uint256"
        }
      ],
      "payable": false,
      "stateMutability": "view",
      "type": "function"
    },
    {
      "constant": true,
      "inputs": [
        {
          "name": "",
          "type": "address"
        }
      ],
      "name": "balances",
      "outputs": [
        {
          "name": "",
          "type": "uint256"
        }
      ],
      "payable": false,
      "stateMutability": "view",
      "type": "function"
    },
    {
      "constant": true,
      "inputs": [],
      "name": "decimals",
      "outputs": [
        {
          "name": "",
          "type": "uint256"
        }
      ],
      "payable": false,
      "stateMutability": "view",
      "type": "function"
    },
    {
      "constant": true,
      "inputs": [],
      "name": "_totalMiningSupply",
      "outputs": [
        {
          "name": "",
          "type": "uint256"
        }
      ],
      "payable": false,
      "stateMutability": "view",
      "type": "function"
    },
    {
      "constant": true,
      "inputs": [],
      "name": "founder",
      "outputs": [
        {
          "name": "",
          "type": "address"
        }
      ],
      "payable": false,
      "stateMutability": "view",
      "type": "function"
    },
    {
      "constant": true,
      "inputs": [],
      "name": "foundermsgproof",
      "outputs": [
        {
          "name": "",
          "type": "string"
        }
      ],
      "payable": false,
      "stateMutability": "view",
      "type": "function"
    },
    {
      "constant": true,
      "inputs": [],
      "name": "tokensMinted",
      "outputs": [
        {
          "name": "",
          "type": "uint256"
        }
      ],
      "payable": false,
      "stateMutability": "view",
      "type": "function"
    },
    {
      "constant": true,
      "inputs": [],
      "name": "lastRewardTo",
      "outputs": [
        {
          "name": "",
          "type": "address"
        }
      ],
      "payable": false,
      "stateMutability": "view",
      "type": "function"
    },
    {
      "constant": true,
      "inputs": [],
      "name": "epochCount",
      "outputs": [
        {
          "name": "",
          "type": "uint256"
        }
      ],
      "payable": false,
      "stateMutability": "view",
      "type": "function"
    },
    {
      "constant": true,
      "inputs": [],
      "name": "_MAXIMUM_TARGET",
      "outputs": [
        {
          "name": "",
          "type": "uint256"
        }
      ],
      "payable": false,
      "stateMutability": "view",
      "type": "function"
    },
    {
      "constant": true,
      "inputs": [],
      "name": "miningTarget",
      "outputs": [
        {
          "name": "",
          "type": "uint256"
        }
      ],
      "payable": false,
      "stateMutability": "view",
      "type": "function"
    },
    {
      "constant": true,
      "inputs": [],
      "name": "challengeNumber",
      "outputs": [
        {
          "name": "",
          "type": "bytes32"
        }
      ],
      "payable": false,
      "stateMutability": "view",
      "type": "function"
    },
    {
      "constant": true,
      "inputs": [],
      "name": "symbol",
      "outputs": [
        {
          "name": "",
          "type": "string"
        }
      ],
      "payable": false,
      "stateMutability": "view",
      "type": "function"
    },
    {
      "constant": true,
      "inputs": [],
      "name": "_BLOCKS_PER_READJUSTMENT",
      "outputs": [
        {
          "name": "",
          "type": "uint256"
        }
      ],
      "payable": false,
      "stateMutability": "view",
      "type": "function"
    },
    {
      "constant": true,
      "inputs": [],
      "name": "inflationrate",
      "outputs": [
        {
          "name": "",
          "type": "uint256"
        }
      ],
      "payable": false,
      "stateMutability": "view",
      "type": "function"
    },
    {
      "constant": true,
      "inputs": [],
      "name": "latestDifficultyPeriodStarted",
      "outputs": [
        {
          "name": "",
          "type": "uint256"
        }
      ],
      "payable": false,
      "stateMutability": "view",
      "type": "function"
    },
    {
      "constant": true,
      "inputs": [],
      "name": "blockreward",
      "outputs": [
        {
          "name": "",
          "type": "uint256"
        }
      ],
      "payable": false,
      "stateMutability": "view",
      "type": "function"
    },
    {
      "constant": true,
      "inputs": [],
      "name": "periodrewardtemp",
      "outputs": [
        {
          "name": "",
          "type": "uint256"
        }
      ],
      "payable": false,
      "stateMutability": "view",
      "type": "function"
    },
    {
      "constant": true,
      "inputs": [],
      "name": "_MINIMUM_TARGET",
      "outputs": [
        {
          "name": "",
          "type": "uint256"
        }
      ],
      "payable": false,
      "stateMutability": "view",
      "type": "function"
    },
    {
      "inputs": [],
      "payable": false,
      "stateMutability": "nonpayable",
      "type": "constructor"
    },
    {
      "payable": true,
      "stateMutability": "payable",
      "type": "fallback"
    },
    {
      "anonymous": false,
      "inputs": [
        {
          "indexed": true,
          "name": "from",
          "type": "address"
        },
        {
          "indexed": true,
          "name": "to",
          "type": "address"
        },
        {
          "indexed": false,
          "name": "tokens",
          "type": "uint256"
        }
      ],
      "name": "Transfer",
      "type": "event"
    },
    {
      "anonymous": false,
      "inputs": [
        {
          "indexed": true,
          "name": "tokenOwner",
          "type": "address"
        },
        {
          "indexed": true,
          "name": "spender",
          "type": "address"
        },
        {
          "indexed": false,
          "name": "tokens",
          "type": "uint256"
        }
      ],
      "name": "Approval",
      "type": "event"
    },
    {
      "anonymous": false,
      "inputs": [
        {
          "indexed": true,
          "name": "from",
          "type": "address"
        },
        {
          "indexed": false,
          "name": "blockreward",
          "type": "uint256"
        },
        {
          "indexed": false,
          "name": "epochCount",
          "type": "uint256"
        },
        {
          "indexed": false,
          "name": "newChallengeNumber",
          "type": "bytes32"
        }
      ],
      "name": "Mint",
      "type": "event"
    },
    {
      "constant": true,
      "inputs": [
        {
          "name": "tokenOwner",
          "type": "address"
        },
        {
          "name": "spender",
          "type": "address"
        }
      ],
      "name": "allowance",
      "outputs": [
        {
          "name": "",
          "type": "uint256"
        }
      ],
      "payable": false,
      "stateMutability": "view",
      "type": "function"
    },
    {
      "constant": false,
      "inputs": [
        {
          "name": "spender",
          "type": "address"
        },
        {
          "name": "tokens",
          "type": "uint256"
        }
      ],
      "name": "approve",
      "outputs": [
        {
          "name": "",
          "type": "bool"
        }
      ],
      "payable": false,
      "stateMutability": "nonpayable",
      "type": "function"
    },
    {
      "constant": false,
      "inputs": [
        {
          "name": "from",
          "type": "address"
        },
        {
          "name": "to",
          "type": "address"
        },
        {
          "name": "tokens",
          "type": "uint256"
        }
      ],
      "name": "transferFrom",
      "outputs": [
        {
          "name": "",
          "type": "bool"
        }
      ],
      "payable": false,
      "stateMutability": "nonpayable",
      "type": "function"
    },
    {
      "constant": true,
      "inputs": [],
      "name": "totalSupply",
      "outputs": [
        {
          "name": "",
          "type": "uint256"
        }
      ],
      "payable": false,
      "stateMutability": "view",
      "type": "function"
    },
    {
      "constant": true,
      "inputs": [
        {
          "name": "tokenOwner",
          "type": "address"
        }
      ],
      "name": "balanceOf",
      "outputs": [
        {
          "name": "balance",
          "type": "uint256"
        }
      ],
      "payable": false,
      "stateMutability": "view",
      "type": "function"
    },
    {
      "constant": false,
      "inputs": [
        {
          "name": "to",
          "type": "address"
        },
        {
          "name": "tokens",
          "type": "uint256"
        }
      ],
      "name": "transfer",
      "outputs": [
        {
          "name": "success",
          "type": "bool"
        }
      ],
      "payable": false,
      "stateMutability": "nonpayable",
      "type": "function"
    },
    {
      "constant": false,
      "inputs": [
        {
          "name": "nonce",
          "type": "uint256"
        },
        {
          "name": "challenge_digest",
          "type": "bytes32"
        }
      ],
      "name": "mint",
      "outputs": [
        {
          "name": "success",
          "type": "bool"
        }
      ],
      "payable": false,
      "stateMutability": "nonpayable",
      "type": "function"
    },
    {
      "constant": true,
      "inputs": [],
      "name": "getChallengeNumber",
      "outputs": [
        {
          "name": "",
          "type": "bytes32"
        }
      ],
      "payable": false,
      "stateMutability": "view",
      "type": "function"
    },
    {
      "constant": true,
      "inputs": [],
      "name": "getMiningDifficulty",
      "outputs": [
        {
          "name": "",
          "type": "uint256"
        }
      ],
      "payable": false,
      "stateMutability": "view",
      "type": "function"
    },
    {
      "constant": true,
      "inputs": [],
      "name": "getMiningTarget",
      "outputs": [
        {
          "name": "",
          "type": "uint256"
        }
      ],
      "payable": false,
      "stateMutability": "view",
      "type": "function"
    },
    {
      "constant": true,
      "inputs": [
        {
          "name": "nonce",
          "type": "uint256"
        },
        {
          "name": "challenge_digest",
          "type": "bytes32"
        },
        {
          "name": "challenge_number",
          "type": "bytes32"
        }
      ],
      "name": "getMintDigest",
      "outputs": [
        {
          "name": "digesttest",
          "type": "bytes32"
        }
      ],
      "payable": false,
      "stateMutability": "view",
      "type": "function"
    },
    {
      "constant": true,
      "inputs": [
        {
          "name": "nonce",
          "type": "uint256"
        },
        {
          "name": "challenge_digest",
          "type": "bytes32"
        },
        {
          "name": "challenge_number",
          "type": "bytes32"
        },
        {
          "name": "testTarget",
          "type": "uint256"
        }
      ],
      "name": "checkMintSolution",
      "outputs": [
        {
          "name": "success",
          "type": "bool"
        }
      ],
      "payable": false,
      "stateMutability": "view",
      "type": "function"
    }
  ],
  "bytecode": "0x60806040526040805190810160405280600581526020017f457469636100000000000000000000000000000000000000000000000000000081525060009080519060200190620000519291906200067b565b506040805190810160405280600381526020017f4554490000000000000000000000000000000000000000000000000000000000815250600190805190602001906200009f9291906200067b565b506012600255610400600d5562010000600e557e04000000000000000000000000000000000000000000000000000000000000600f556000601560006101000a81548160ff021916908315150217905550348015620000fd57600080fd5b5068056bc75e2d631000006003819055506200017968056bc75e2d63100000600860003073ffffffffffffffffffffffffffffffffffffffff1673ffffffffffffffffffffffffffffffffffffffff16815260200190815260200160002054620002e4640100000000026200189b179091906401000000009004565b600860003073ffffffffffffffffffffffffffffffffffffffff1673ffffffffffffffffffffffffffffffffffffffff168152602001908152602001600020819055506904772abe6c93ed94622e600581905550600254600a0a62a037a002600a81905550601560009054906101000a900460ff1615620001f957600080fd5b6001601560006101000a81548160ff021916908315150217905550600060178190555068012253ff998b28052d601281905550600f5460108190555043600b819055506200025562000301640100000000026401000000009004565b6d014a713d95c1c369e4c10bb9816860048190555033600660006101000a81548173ffffffffffffffffffffffffffffffffffffffff021916908373ffffffffffffffffffffffffffffffffffffffff16021790555060606040519081016040528060278152602001620022646027913960079080519060200190620002dd9291906200067b565b506200072a565b60008183019050828110151515620002fb57600080fd5b92915050565b620003276001600c54620002e4640100000000026200189b179091906401000000009004565b600c819055506000600d54600c548115156200033f57fe5b0614156200036157620003606200036e640100000000026401000000009004565b5b6001430340601181905550565b6000600b54430390506000600d5490506000603c8202905080831015620004a0576000620003d784620003ba606485620005e66401000000000262001ab1179091906401000000009004565b6200061a6401000000000262001877179091906401000000009004565b90506000620004236103e862000406606485620006406401000000000262001901179091906401000000009004565b6200065d6401000000000262001ae2179091906401000000009004565b9050620004926200047282620004556107d06010546200061a6401000000000262001877179091906401000000009004565b620005e66401000000000262001ab1179091906401000000009004565b601054620006406401000000000262001901179091906401000000009004565b6010819055505050620005ac565b6000620004e882620004cb606487620005e66401000000000262001ab1179091906401000000009004565b6200061a6401000000000262001877179091906401000000009004565b90506000620005346103e862000517606485620006406401000000000262001901179091906401000000009004565b6200065d6401000000000262001ae2179091906401000000009004565b9050620005a36200058382620005666107d06010546200061a6401000000000262001877179091906401000000009004565b620005e66401000000000262001ab1179091906401000000009004565b601054620002e4640100000000026200189b179091906401000000009004565b60108190555050505b43600b81905550600e546010541015620005ca57600e546010819055505b600f546010541115620005e157600f546010819055505b505050565b6000818302905060008314806200060857508183828115156200060557fe5b04145b15156200061457600080fd5b92915050565b600080821115156200062b57600080fd5b81838115156200063757fe5b04905092915050565b60008282111515156200065257600080fd5b818303905092915050565b600081831115620006715781905062000675565b8290505b92915050565b828054600181600116156101000203166002900490600052602060002090601f016020900481019282601f10620006be57805160ff1916838001178555620006ef565b82800160010185558215620006ef579182015b82811115620006ee578251825591602001919060010190620006d1565b5b509050620006fe919062000702565b5090565b6200072791905b808211156200072357600081600090555060010162000709565b5090565b90565b611b2a806200073a6000396000f3fe60806040526004361061020b576000357c0100000000000000000000000000000000000000000000000000000000900480636fd396d61161012a57806397566aa0116100bd578063cb9ae7071161008c578063cb9ae70714610a67578063cf70fa4014610a92578063d40170d714610abd578063dc6e9cf914610ae8578063dd62ed3e14610b135761020b565b806397566aa01461093b578063a9059cbb1461099e578063b5ade81b14610a11578063b640776914610a3c5761020b565b806387a2a9d6116100f957806387a2a9d61461082a5780638a769d35146108555780638ae0368b1461088057806395d89b41146108ab5761020b565b80636fd396d6146106d257806370a082311461072957806381269a561461078e578063829965cc146107ff5761020b565b806327e235e3116101a25780634d853ee5116101715780634d853ee5146105955780634ef37628146105ec5780636de7410c146106175780636de9f32b146106a75761020b565b806327e235e3146104af578063313ce5671461051457806332e997081461053f578063410e1b071461056a5761020b565b806317da485f116101de57806317da485f146103695780631801fbe51461039457806318160ddd146103f157806323b872dd1461041c5761020b565b8063047fc9aa1461021057806306fdde031461023b578063095ea7b3146102cb578063163aa00d1461033e575b600080fd5b34801561021c57600080fd5b50610225610b98565b6040518082815260200191505060405180910390f35b34801561024757600080fd5b50610250610b9e565b6040518080602001828103825283818151815260200191508051906020019080838360005b83811015610290578082015181840152602081019050610275565b50505050905090810190601f1680156102bd5780820380516001836020036101000a031916815260200191505b509250505060405180910390f35b3480156102d757600080fd5b50610324600480360360408110156102ee57600080fd5b81019080803573ffffffffffffffffffffffffffffffffffffffff16906020019092919080359060200190929190505050610c3c565b604051808215151515815260200191505060405180910390f35b34801561034a57600080fd5b50610353610d8b565b6040518082815260200191505060405180910390f35b34801561037557600080fd5b5061037e610d91565b6040518082815260200191505060405180910390f35b3480156103a057600080fd5b506103d7600480360360408110156103b757600080fd5b810190808035906020019092919080359060200190929190505050610daf565b604051808215151515815260200191505060405180910390f35b3480156103fd57600080fd5b5061040661102f565b6040518082815260200191505060405180910390f35b34801561042857600080fd5b506104956004803603606081101561043f57600080fd5b81019080803573ffffffffffffffffffffffffffffffffffffffff169060200190929190803573ffffffffffffffffffffffffffffffffffffffff16906020019092919080359060200190929190505050611039565b604051808215151515815260200191505060405180910390f35b3480156104bb57600080fd5b506104fe600480360360208110156104d257600080fd5b81019080803573ffffffffffffffffffffffffffffffffffffffff1690602001909291905050506112e4565b6040518082815260200191505060405180910390f35b34801561052057600080fd5b506105296112fc565b6040518082815260200191505060405180910390f35b34801561054b57600080fd5b50610554611302565b6040518082815260200191505060405180910390f35b34801561057657600080fd5b5061057f61130c565b6040518082815260200191505060405180910390f35b3480156105a157600080fd5b506105aa611312565b604051808273ffffffffffffffffffffffffffffffffffffffff1673ffffffffffffffffffffffffffffffffffffffff16815260200191505060405180910390f35b3480156105f857600080fd5b50610601611338565b6040518082815260200191505060405180910390f35b34801561062357600080fd5b5061062c611342565b6040518080602001828103825283818151815260200191508051906020019080838360005b8381101561066c578082015181840152602081019050610651565b50505050905090810190601f1680156106995780820380516001836020036101000a031916815260200191505b509250505060405180910390f35b3480156106b357600080fd5b506106bc6113e0565b6040518082815260200191505060405180910390f35b3480156106de57600080fd5b506106e76113e6565b604051808273ffffffffffffffffffffffffffffffffffffffff1673ffffffffffffffffffffffffffffffffffffffff16815260200191505060405180910390f35b34801561073557600080fd5b506107786004803603602081101561074c57600080fd5b81019080803573ffffffffffffffffffffffffffffffffffffffff16906020019092919050505061140c565b6040518082815260200191505060405180910390f35b34801561079a57600080fd5b506107e5600480360360808110156107b157600080fd5b8101908080359060200190929190803590602001909291908035906020019092919080359060200190929190505050611455565b604051808215151515815260200191505060405180910390f35b34801561080b57600080fd5b506108146114eb565b6040518082815260200191505060405180910390f35b34801561083657600080fd5b5061083f6114f1565b6040518082815260200191505060405180910390f35b34801561086157600080fd5b5061086a6114f7565b6040518082815260200191505060405180910390f35b34801561088c57600080fd5b506108956114fd565b6040518082815260200191505060405180910390f35b3480156108b757600080fd5b506108c0611503565b6040518080602001828103825283818151815260200191508051906020019080838360005b838110156109005780820151818401526020810190506108e5565b50505050905090810190601f16801561092d5780820380516001836020036101000a031916815260200191505b509250505060405180910390f35b34801561094757600080fd5b506109886004803603606081101561095e57600080fd5b810190808035906020019092919080359060200190929190803590602001909291905050506115a1565b6040518082815260200191505060405180910390f35b3480156109aa57600080fd5b506109f7600480360360408110156109c157600080fd5b81019080803573ffffffffffffffffffffffffffffffffffffffff16906020019092919080359060200190929190505050611623565b604051808215151515815260200191505060405180910390f35b348015610a1d57600080fd5b50610a266117cc565b6040518082815260200191505060405180910390f35b348015610a4857600080fd5b50610a516117d2565b6040518082815260200191505060405180910390f35b348015610a7357600080fd5b50610a7c6117d8565b6040518082815260200191505060405180910390f35b348015610a9e57600080fd5b50610aa76117de565b6040518082815260200191505060405180910390f35b348015610ac957600080fd5b50610ad26117e4565b6040518082815260200191505060405180910390f35b348015610af457600080fd5b50610afd6117ea565b6040518082815260200191505060405180910390f35b348015610b1f57600080fd5b50610b8260048036036040811015610b3657600080fd5b81019080803573ffffffffffffffffffffffffffffffffffffffff169060200190929190803573ffffffffffffffffffffffffffffffffffffffff1690602001909291905050506117f0565b6040518082815260200191505060405180910390f35b60035481565b60008054600181600116156101000203166002900480601f016020809104026020016040519081016040528092919081815260200182805460018160011615610100020316600290048015610c345780601f10610c0957610100808354040283529160200191610c34565b820191906000526020600020905b815481529060010190602001808311610c1757829003601f168201915b505050505081565b600081600860003373ffffffffffffffffffffffffffffffffffffffff1673ffffffffffffffffffffffffffffffffffffffff1681526020019081526020016000205410151515610c8c57600080fd5b600082111515610c9b57600080fd5b81600960003373ffffffffffffffffffffffffffffffffffffffff1673ffffffffffffffffffffffffffffffffffffffff16815260200190815260200160002060008573ffffffffffffffffffffffffffffffffffffffff1673ffffffffffffffffffffffffffffffffffffffff168152602001908152602001600020819055508273ffffffffffffffffffffffffffffffffffffffff163373ffffffffffffffffffffffffffffffffffffffff167f8c5be1e5ebec7d5bd14f71427d1e84f3dd0314c0f7b2291e5b200ac8c7c3b925846040518082815260200191505060405180910390a36001905092915050565b60145481565b6000610daa601054600f5461187790919063ffffffff16565b905090565b6000806011543385604051602001808481526020018373ffffffffffffffffffffffffffffffffffffffff1673ffffffffffffffffffffffffffffffffffffffff166c0100000000000000000000000002815260140182815260200193505050506040516020818303038152906040528051906020012090508281141515610e3657600080fd5b60105481600190041115610e4957600080fd5b60006016600060115481526020019081526020016000205490508160166000601154815260200190815260200160002081905550600060010281141515610e8f57600080fd5b600a54601754101515610e9e57fe5b610eb560125460175461189b90919063ffffffff16565b601781905550610ed260125460035461189b90919063ffffffff16565b600381905550610f2c601254600860003373ffffffffffffffffffffffffffffffffffffffff1673ffffffffffffffffffffffffffffffffffffffff1681526020019081526020016000205461189b90919063ffffffff16565b600860003373ffffffffffffffffffffffffffffffffffffffff1673ffffffffffffffffffffffffffffffffffffffff1681526020019081526020016000208190555033601360006101000a81548173ffffffffffffffffffffffffffffffffffffffff021916908373ffffffffffffffffffffffffffffffffffffffff16021790555043601481905550610fbf6118b7565b3373ffffffffffffffffffffffffffffffffffffffff167fcf6fbb9dcea7d07263ab4f5c3a92f53af33dffc421d9d121e1c74b307e68189d601254600c5460115460405180848152602001838152602001828152602001935050505060405180910390a260019250505092915050565b6000600354905090565b600061108d82600860008773ffffffffffffffffffffffffffffffffffffffff1673ffffffffffffffffffffffffffffffffffffffff1681526020019081526020016000205461190190919063ffffffff16565b600860008673ffffffffffffffffffffffffffffffffffffffff1673ffffffffffffffffffffffffffffffffffffffff1681526020019081526020016000208190555061115f82600960008773ffffffffffffffffffffffffffffffffffffffff1673ffffffffffffffffffffffffffffffffffffffff16815260200190815260200160002060003373ffffffffffffffffffffffffffffffffffffffff1673ffffffffffffffffffffffffffffffffffffffff1681526020019081526020016000205461190190919063ffffffff16565b600960008673ffffffffffffffffffffffffffffffffffffffff1673ffffffffffffffffffffffffffffffffffffffff16815260200190815260200160002060003373ffffffffffffffffffffffffffffffffffffffff1673ffffffffffffffffffffffffffffffffffffffff1681526020019081526020016000208190555061123182600860008673ffffffffffffffffffffffffffffffffffffffff1673ffffffffffffffffffffffffffffffffffffffff1681526020019081526020016000205461189b90919063ffffffff16565b600860008573ffffffffffffffffffffffffffffffffffffffff1673ffffffffffffffffffffffffffffffffffffffff168152602001908152602001600020819055508273ffffffffffffffffffffffffffffffffffffffff168473ffffffffffffffffffffffffffffffffffffffff167fddf252ad1be2c89b69c2b068fc378daa952ba7f163c4a11628f55a4df523b3ef846040518082815260200191505060405180910390a3600190509392505050565b60086020528060005260406000206000915090505481565b60025481565b6000601054905090565b600a5481565b600660009054906101000a900473ffffffffffffffffffffffffffffffffffffffff1681565b6000601154905090565b60078054600181600116156101000203166002900480601f0160208091040260200160405190810160405280929190818152602001828054600181600116156101000203166002900480156113d85780601f106113ad576101008083540402835291602001916113d8565b820191906000526020600020905b8154815290600101906020018083116113bb57829003601f168201915b505050505081565b60175481565b601360009054906101000a900473ffffffffffffffffffffffffffffffffffffffff1681565b6000600860008373ffffffffffffffffffffffffffffffffffffffff1673ffffffffffffffffffffffffffffffffffffffff168152602001908152602001600020549050919050565b600080833387604051602001808481526020018373ffffffffffffffffffffffffffffffffffffffff1673ffffffffffffffffffffffffffffffffffffffff166c01000000000000000000000000028152601401828152602001935050505060405160208183030381529060405280519060200120905082816001900411156114dd57600080fd5b848114915050949350505050565b600c5481565b600f5481565b60105481565b60115481565b60018054600181600116156101000203166002900480601f0160208091040260200160405190810160405280929190818152602001828054600181600116156101000203166002900480156115995780601f1061156e57610100808354040283529160200191611599565b820191906000526020600020905b81548152906001019060200180831161157c57829003601f168201915b505050505081565b600080823386604051602001808481526020018373ffffffffffffffffffffffffffffffffffffffff1673ffffffffffffffffffffffffffffffffffffffff166c010000000000000000000000000281526014018281526020019350505050604051602081830303815290604052805190602001209050809150509392505050565b6000808211151561163357600080fd5b61168582600860003373ffffffffffffffffffffffffffffffffffffffff1673ffffffffffffffffffffffffffffffffffffffff1681526020019081526020016000205461190190919063ffffffff16565b600860003373ffffffffffffffffffffffffffffffffffffffff1673ffffffffffffffffffffffffffffffffffffffff1681526020019081526020016000208190555061171a82600860008673ffffffffffffffffffffffffffffffffffffffff1673ffffffffffffffffffffffffffffffffffffffff1681526020019081526020016000205461189b90919063ffffffff16565b600860008573ffffffffffffffffffffffffffffffffffffffff1673ffffffffffffffffffffffffffffffffffffffff168152602001908152602001600020819055508273ffffffffffffffffffffffffffffffffffffffff163373ffffffffffffffffffffffffffffffffffffffff167fddf252ad1be2c89b69c2b068fc378daa952ba7f163c4a11628f55a4df523b3ef846040518082815260200191505060405180910390a36001905092915050565b600d5481565b60045481565b600b5481565b60125481565b60055481565b600e5481565b6000600960008473ffffffffffffffffffffffffffffffffffffffff1673ffffffffffffffffffffffffffffffffffffffff16815260200190815260200160002060008373ffffffffffffffffffffffffffffffffffffffff1673ffffffffffffffffffffffffffffffffffffffff16815260200190815260200160002054905092915050565b6000808211151561188757600080fd5b818381151561189257fe5b04905092915050565b600081830190508281101515156118b157600080fd5b92915050565b6118cd6001600c5461189b90919063ffffffff16565b600c819055506000600d54600c548115156118e457fe5b0614156118f4576118f361191d565b5b6001430340601181905550565b600082821115151561191257600080fd5b818303905092915050565b6000600b54430390506000600d5490506000603c82029050808310156119dd57600061196584611957606485611ab190919063ffffffff16565b61187790919063ffffffff16565b905060006119916103e861198360648561190190919063ffffffff16565b611ae290919063ffffffff16565b90506119d06119bf826119b16107d060105461187790919063ffffffff16565b611ab190919063ffffffff16565b60105461190190919063ffffffff16565b6010819055505050611a79565b6000611a05826119f7606487611ab190919063ffffffff16565b61187790919063ffffffff16565b90506000611a316103e8611a2360648561190190919063ffffffff16565b611ae290919063ffffffff16565b9050611a70611a5f82611a516107d060105461187790919063ffffffff16565b611ab190919063ffffffff16565b60105461189b90919063ffffffff16565b60108190555050505b43600b81905550600e546010541015611a9657600e546010819055505b600f546010541115611aac57600f546010819055505b505050565b600081830290506000831480611ad15750818382811515611ace57fe5b04145b1515611adc57600080fd5b92915050565b600081831115611af457819050611af8565b8290505b9291505056fea165627a7a7230582091a5c39426aa32facbec65ecfc137d32b39199cd6a01d18b122daed382b1c0b70029446973636f766572696e67206f7572206265737420467574757265732e204b6576696e20576164",
  "source": "pragma solidity ^0.5.2;\n// ----------------------------------------------------------------------------\n//this ICO smart contract has been compiled and tested with the Solidity Version 0.5.2\n//There are some minor changes comparing to ICO contract compiled with versions < 0.5.0\n// ----------------------------------------------------------------------------\n\n\n// ----------------------------------------------------------------------------\n\n// Safe maths\n\n// ----------------------------------------------------------------------------\n\nlibrary SafeMath {\n\n    function add(uint a, uint b) internal pure returns (uint c) {\n\n        c = a + b;\n\n        require(c >= a);\n\n    }\n\n    function sub(uint a, uint b) internal pure returns (uint c) {\n\n        require(b <= a);\n\n        c = a - b;\n\n    }\n\n    function mul(uint a, uint b) internal pure returns (uint c) {\n\n        c = a * b;\n\n        require(a == 0 || c / a == b);\n\n    }\n\n    function div(uint a, uint b) internal pure returns (uint c) {\n\n        require(b > 0);\n\n        c = a / b;\n\n    }\n\n}\n\n\n\nlibrary ExtendedMath {\n\n\n    //return the smaller of the two inputs (a or b)\n    function limitLessThan(uint a, uint b) internal pure returns (uint c) {\n\n        if(a > b) return b;\n\n        return a;\n\n    }\n}\n\n\n\ncontract ERC20Interface {\n    function totalSupply() public view returns (uint);\n    function balanceOf(address tokenOwner) public view returns (uint balance);\n    function transfer(address to, uint tokens) public returns (bool success);\n\n\n    function allowance(address tokenOwner, address spender) public view returns (uint remaining);\n    function approve(address spender, uint tokens) public returns (bool success);\n    function transferFrom(address from, address to, uint tokens) public returns (bool success);\n\n    event Transfer(address indexed from, address indexed to, uint tokens);\n    event Approval(address indexed tokenOwner, address indexed spender, uint tokens);\n}\n\n\n\ncontract EticaToken is ERC20Interface{\n\n    using SafeMath for uint;\n    using ExtendedMath for uint;\n\n    string public name = \"Etica\";\n    string public symbol = \"ETI\";\n    uint public decimals = 18;\n\n    uint public supply;\n    // fixed inflation rate after etica supply has reached 21 Million\n    uint public inflationrate;\n    uint public  periodrewardtemp; // Amount of ETI issued per period during phase1\n\n    // We don't want fake Satoshi again. Using it to prove founder's identity\n    address public founder;\n    string public foundermsgproof;\n\n    mapping(address => uint) public balances;\n\n    mapping(address => mapping(address => uint)) allowed;\n\n    //allowed[0x1111....][0x22222...] = 100;\n\n    // Mining system state variables\n    uint public _totalMiningSupply;\n\n\n\n     uint public latestDifficultyPeriodStarted;\n\n\n\n    uint public epochCount;//number of 'blocks' mined\n\n\n    uint public _BLOCKS_PER_READJUSTMENT = 1024;\n\n\n    //a little number\n    uint public  _MINIMUM_TARGET = 2**16;\n\n\n      //a big number is easier ; just find a solution that is smaller\n    //uint public  _MAXIMUM_TARGET = 2**224;  bitcoin uses 224\n    uint public  _MAXIMUM_TARGET = 2**242; // used for tests 243 much faster, 242 seems to be the limit where mining gets much harder\n    // uint public  _MAXIMUM_TARGET = 2**234; // used for prod\n\n\n    uint public miningTarget;\n\n    bytes32 public challengeNumber;   //generate a new one when a new reward is minted\n\n\n    uint public blockreward;\n\n\n    address public lastRewardTo;\n    uint public lastRewardEthBlockNumber;\n\n    bool locked = false;\n\n    mapping(bytes32 => bytes32) solutionForChallenge;\n\n    uint public tokensMinted;\n\n    // Mining system state variables\n\n\n\n\n    event Transfer(address indexed from, address indexed to, uint tokens);\n    event Approval(address indexed tokenOwner, address indexed spender, uint tokens);\n    event Mint(address indexed from, uint blockreward, uint epochCount, bytes32 newChallengeNumber);\n\n\n    constructor() public{\n      supply = 100 * (10**18); // initial supply equals 100 ETI\n      balances[address(this)] = balances[address(this)].add(100 * (10**18)); // 100 ETI as the default contract balance. To avoid any issue that could arise from negative contract balance because of significant numbers approximations\n\n\n      // PHASE 1 (before 21 Million ETI has been reached) -->\n      // 10 500 000 ETI to be issued as periodrewardtemp for ETICA reward system\n      // 10 500 000 ETI to be MINED\n\n\n      // <--phase1--> periodrewardtemp:\n      // fixed Etica issued per period (7 days) during phase1 (before 21 Million ETI has been reached)\n      // The amount of reward will be twice of first rewards of phase 2\n      // Calculation of first rewards of phase 2:\n      // 21 000 000 * 0.26180339887498948482045868343656 = 549787,13763747791812296323521678 ETI (first year reward)\n      // 549787,13763747791812296323521678 / 52.1429 = 10543,854247413893706007207792754 ETI (first weeks reward of phase2)\n      // 10543,854247413893706007207792754 * 2 = 21087,708494827787412014415585507 ETI\n      periodrewardtemp = 21087708494827787412014; // 21087,708494827787412014415585507 ETI per period (7 days) will take about 9,5491502812526287948853291408588 years to reach 10 500 000 ETI\n\n\n      // <--phase1--> mining:\n      _totalMiningSupply = 10500000 * 10**uint(decimals);\n\n      if(locked) revert();\n      locked = true;\n\n      tokensMinted = 0;\n\n\n      // The amount of etica mined per 7 days will be twice of first rewards of phase 2\n      // Calculation of first rewards of phase 2:\n      // 21 000 000 * 0.26180339887498948482045868343656 = 549787,13763747791812296323521678 ETI (first year reward)\n      // 549787,13763747791812296323521678 / 52.1429 = 10543,854247413893706007207792754 ETI (first weeks reward of phase2)\n      // 10543,854247413893706007207792754 * 2 = 21087,708494827787412014415585507 ETI per 7 days\n      // 21087,708494827787412014415585507 ETI per 7 days = 20,920345728995820845252396414193 ETI per block (10 minutes)\n      blockreward = 20920345728995820845;\n\n      miningTarget = _MAXIMUM_TARGET;\n\n      latestDifficultyPeriodStarted = block.number;\n\n      _startNewMiningEpoch();\n\n      // PHASE 1 <--\n\n      // --> PHASE 2\n      // Golden number power 2: 1,6180339887498948482045868343656 * 1,6180339887498948482045868343656 = 2.6180339887498948482045868343656;\n      inflationrate = 26180339887498948482045868343656; // (need to multiple by 10^(-33) to get 0.026180339887498948482045868343656);\n\n       // PHASE 2 <--\n\n\n       //The founder gets nothing! You must mine or earn the Etica ERC20 token\n       //balances[founder] = _totalMiningSupply;\n       //Transfer(address(0), founder, _totalMiningSupply);\n      founder = msg.sender;\n      foundermsgproof = \"Discovering our best Futures. Kevin Wad\";\n    }\n\n\n    function allowance(address tokenOwner, address spender) view public returns(uint){\n        return allowed[tokenOwner][spender];\n    }\n\n\n    //approve allowance\n    function approve(address spender, uint tokens) public returns(bool){\n        require(balances[msg.sender] >= tokens);\n        require(tokens > 0);\n\n        allowed[msg.sender][spender] = tokens;\n        emit Approval(msg.sender, spender, tokens);\n        return true;\n    }\n\n    //transfer tokens from the  owner account to the account that calls the function\n    function transferFrom(address from, address to, uint tokens) public returns(bool){\n\n      balances[from] = balances[from].sub(tokens);\n\n      allowed[from][msg.sender] = allowed[from][msg.sender].sub(tokens);\n\n      balances[to] = balances[to].add(tokens);\n\n      emit Transfer(from, to, tokens);\n\n      return true;\n    }\n\n    function totalSupply() public view returns (uint){\n        return supply;\n    }\n\n    function balanceOf(address tokenOwner) public view returns (uint balance){\n         return balances[tokenOwner];\n     }\n\n\n    function transfer(address to, uint tokens) public returns (bool success){\n         require(tokens > 0);\n\n         balances[msg.sender] = balances[msg.sender].sub(tokens);\n\n         balances[to] = balances[to].add(tokens);\n\n         emit Transfer(msg.sender, to, tokens);\n\n         return true;\n     }\n\n\n     // -------------  Mining system functions ---------------- //\n\n         function mint(uint256 nonce, bytes32 challenge_digest) public returns (bool success) {\n\n\n             //the PoW must contain work that includes a recent ethereum block hash (challenge number) and the msg.sender's address to prevent MITM attacks\n             bytes32 digest =  keccak256(abi.encodePacked(challengeNumber, msg.sender, nonce));\n\n             //the challenge digest must match the expected\n             if (digest != challenge_digest) revert();\n\n             //the digest must be smaller than the target\n             if(uint256(digest) > miningTarget) revert();\n\n\n             //only allow one reward for each challenge\n              bytes32 solution = solutionForChallenge[challengeNumber];\n              solutionForChallenge[challengeNumber] = digest;\n              if(solution != 0x0) revert();  //prevent the same answer from awarding twice\n\n\n             //Cannot mint more tokens than there are: maximum ETI ever mined: _totalMiningSupply + blockreward\n             assert(tokensMinted < _totalMiningSupply);\n\n             tokensMinted = tokensMinted.add(blockreward);\n             supply = supply.add(blockreward);\n             balances[msg.sender] = balances[msg.sender].add(blockreward);\n\n             //set readonly diagnostics data\n             lastRewardTo = msg.sender;\n             lastRewardEthBlockNumber = block.number;\n\n\n              _startNewMiningEpoch();\n\n               emit Mint(msg.sender, blockreward, epochCount, challengeNumber );\n\n            return true;\n\n         }\n\n\n     //a new 'block' to be mined\n     function _startNewMiningEpoch() internal {\n\n\n       epochCount = epochCount.add(1);\n\n       //every so often, readjust difficulty. Dont readjust when deploying\n       if(epochCount % _BLOCKS_PER_READJUSTMENT == 0)\n       {\n         _reAdjustDifficulty();\n       }\n\n\n       //make the latest ethereum block hash a part of the next challenge for PoW to prevent pre-mining future blocks\n       //do this last since this is a protection mechanism in the mint() function\n       challengeNumber = blockhash(block.number - 1);\n\n     }\n\n\n\n\n     //https://en.bitcoin.it/wiki/Difficulty#What_is_the_formula_for_difficulty.3F\n     //as of 2017 the bitcoin difficulty was up to 17 zeroes, it was only 8 in the early days\n\n     //readjust the target by 5 percent\n     function _reAdjustDifficulty() internal {\n\n\n         uint ethBlocksSinceLastDifficultyPeriod = block.number - latestDifficultyPeriodStarted;\n         //assume 360 ethereum blocks per hour\n\n         //we want miners to spend 10 minutes to mine each 'block', about 60 ethereum blocks = one Mining system epoch\n         uint epochsMined = _BLOCKS_PER_READJUSTMENT; //256\n\n         uint targetEthBlocksPerDiffPeriod = epochsMined * 60; //should be 60 times slower than ethereum\n\n         //if there were less eth blocks passed in time than expected\n         if( ethBlocksSinceLastDifficultyPeriod < targetEthBlocksPerDiffPeriod )\n         {\n           uint excess_block_pct = (targetEthBlocksPerDiffPeriod.mul(100)).div( ethBlocksSinceLastDifficultyPeriod );\n\n           uint excess_block_pct_extra = excess_block_pct.sub(100).limitLessThan(1000);\n           // If there were 5% more blocks mined than expected then this is 5.  If there were 100% more blocks mined than expected then this is 100.\n\n           //make it harder\n           miningTarget = miningTarget.sub(miningTarget.div(2000).mul(excess_block_pct_extra));   //by up to 50 %\n         }else{\n           uint shortage_block_pct = (ethBlocksSinceLastDifficultyPeriod.mul(100)).div( targetEthBlocksPerDiffPeriod );\n\n           uint shortage_block_pct_extra = shortage_block_pct.sub(100).limitLessThan(1000); //always between 0 and 1000\n\n           //make it easier\n           miningTarget = miningTarget.add(miningTarget.div(2000).mul(shortage_block_pct_extra));   //by up to 50 %\n         }\n\n\n\n         latestDifficultyPeriodStarted = block.number;\n\n         if(miningTarget < _MINIMUM_TARGET) //very difficult\n         {\n           miningTarget = _MINIMUM_TARGET;\n         }\n\n         if(miningTarget > _MAXIMUM_TARGET) //very easy\n         {\n           miningTarget = _MAXIMUM_TARGET;\n         }\n     }\n\n\n     //this is a recent ethereum block hash, used to prevent pre-mining future blocks\n     function getChallengeNumber() public view returns (bytes32) {\n         return challengeNumber;\n     }\n\n     //the number of zeroes the digest of the PoW solution requires.  Auto adjusts\n      function getMiningDifficulty() public view returns (uint) {\n         return _MAXIMUM_TARGET.div(miningTarget);\n     }\n\n     function getMiningTarget() public view returns (uint) {\n        return miningTarget;\n    }\n\n\n     //help debug mining software\n     function getMintDigest(uint256 nonce, bytes32 challenge_digest, bytes32 challenge_number) public view returns (bytes32 digesttest) {\n\n         bytes32 digest = keccak256(abi.encodePacked(challenge_number,msg.sender,nonce));\n\n         return digest;\n\n       }\n\n         //help debug mining software\n       function checkMintSolution(uint256 nonce, bytes32 challenge_digest, bytes32 challenge_number, uint testTarget) public view returns (bool success) {\n\n           bytes32 digest = keccak256(abi.encodePacked(challenge_number,msg.sender,nonce));\n\n           if(uint256(digest) > testTarget) revert();\n\n           return (digest == challenge_digest);\n\n         }\n\n\n// ------------------      Mining system functions   -------------------------  //\n\n// ------------------------------------------------------------------------\n\n// Don't accept ETH\n\n// ------------------------------------------------------------------------\n\nfunction () payable external {\n\n    revert();\n\n}\n\n}\n\n\n\n\ncontract EticaRelease is EticaToken {\n  /* --------- PROD -------------\nuint TESTING_STARTING_BLOCK_NUMBER = 7739267; // used only for testing as ganache starts at block number 0\nuint REWARD_INTERVAL = 42000; // periods duration (in number of blocks) 42000 blocks = 7 jours (6000 blocks per day)\nuint STAKING_DURATION = 168000; // default stake duration (in number of blocks) 168000 blocks = 28 jours (6000 blocks per day)\nuint ETICA_TO_BOSOM_RATIO = 1; //\n     --------- PROD ------------- */\n\n\nuint TESTING_STARTING_BLOCK_NUMBER = 7739267; // used only for testing as ganache starts at block number 0\nuint REWARD_INTERVAL = 42; // periods duration (in number of blocks) 42000 blocks = 7 jours (6000 blocks per day)\nuint STAKING_DURATION = 168; // default stake duration (in number of blocks) 168000 blocks = 28 jours (6000 blocks per day)\nuint ETICA_TO_BOSOM_RATIO = 1; //\n\nuint public DISEASE_CREATION_AMOUNT = 100 * 10**uint(decimals); // 100 ETI amount to pay for creating a new disease. Necessary in order to avoid spam. Will create a function that periodically increase it in order to take into account inflation\nuint public PROPOSAL_CREATION_AMOUNT = 10 * 10**uint(decimals); // 10 ETI amount to pay for creating a new proposal. Necessary in order to avoid spam. Will create a function that periodically increase it in order to take into account inflation\n\n\nstruct Period{\n    uint id;\n    uint interval;\n    uint curation_sum;\n    uint editor_sum;\n    uint total_voters; // TOTAL nb of voters in this period\n}\n\n  struct Stake{\n      uint amount;\n      uint startBlock;\n      uint endBlock;\n  }\n\n  // -----------  PROPOSALS  ------------  //\n\n\n// Stuct used only inside Proposals as Proposals' s Targets.\n// The software has no independent Target structs with Target ids and details ...\n  struct Target{\n      string name;\n      string kind; // Example: GPCR, Enzyme, Protein Activity ...\n      uint status; // Example: Exploration, Validation, Fully Validated, Null ...\n      string freefield; // used by front end apps and communities to fit their needs and process\n  }\n\n  // Stuct used only inside Proposals as Proposals' s Compounds.\n  // The software has no independent Compounds structs with Compounds ids and details ...\n    struct Compound{\n        string name;\n        string kind; // Example: Small Organic Molecules, Large Protein Molecules ...\n        uint result; // Example: Failure, Success, Undertermined, Null ...\n        string freefield; // used by front end apps and communities to fit their needs and process\n    }\n\n\n// general information of Proposal:\n  struct Proposal{\n      uint id;\n      bytes32 proposed_release_hash; // Hash of \"raw_release_hash + name of Disease\"\n      bytes32 disease_id;\n      uint period_id;\n      address proposer; // account address of the proposer\n      string title; // Title of the Proposal\n      string description; // Description of the Proposal\n  }\n\n// main data of Proposal:\n  struct ProposalData{\n\n      uint starttime; // epoch time of the proposal\n      uint endtime;  // voting limite\n      uint finalized_time; // when first voteclm() was called\n      ProposalStatus status; // will be initialized with value ProposalStatus.Pending\n      ProposalStatus prestatus; // will be initialzed with value ProposalStatus.Pending\n      bool istie;  // will be initialized with value 0. if prop is tie it won't slash nor reward participants\n      uint nbvoters;\n      uint slashingratio; // will be initialized with value 0. solidity does not support float type. So will emulate float type by using uint\n      uint forvotes;\n      uint againstvotes;\n      uint lastcuration_weight; // will be initialized with value 0.\n      uint lasteditor_weight; // will be initialized with value 0.\n  }\n\n  struct ProposalIpfs{\n    // IPFS hashes of the files:\n    string raw_release_hash; // IPFS hash of the files of the proposal\n    string old_release_hash; // raw IPFS hash of the old version\n    string grandparent_hash; // raw IPFS hash of the grandparent\n  }\n\n  struct ProposalFreefield{\n    string firstfield;\n    string secondfield;\n    string thirdfield;\n  }\n\n\n  struct ProposalTenor{\n      Target[] targets;\n      Compound[] compounds;\n  }\n\n  // -----------  PROPOSALS  ------------  //\n\n  struct Disease{\n      bytes32 disease_hash;\n      string name;\n      string description;\n  }\n\n\nenum ProposalStatus { Rejected, Accepted, Pending, Singlevoter }\n\nmapping(uint => Period) public periods;\nuint public periodsCounter;\nmapping(uint => uint) public PeriodsIssued; // keeps track of which periods have already issued ETI\nuint public PeriodsIssuedCounter;\nmapping(uint => uint) public IntervalsPeriods; // keeps track of which intervals have already a period\nuint public IntervalsPeriodsCounter;\n\n\nmapping(uint => Disease) public diseases; // keeps track of which intervals have already a period\nuint public diseasesCounter;\nmapping(bytes32 => uint) public diseasesbyIds; // example:    [leiojej757575ero] => [0]  where leiojej757575ero is id of a Disease\nmapping(string => bytes32) private diseasesbyNames; // example:    [\"name of a disease\"] => [leiojej757575ero]  where leiojej757575ero is id of a Disease. Set visibility to private because mapping with strings as keys have issues when public visibility\n\n// -----------  PROPOSALS  ------------  //\nmapping(bytes32 => Proposal) public proposals;\nuint public proposalsCounter;\n\nmapping(bytes32 => ProposalData) public propsdatas;\nmapping(bytes32 => ProposalIpfs) public propsipfs;\nmapping(bytes32 => ProposalFreefield) public propsfreefields;\nmapping(bytes32 => ProposalTenor) private propstenors;\n// -----------  PROPOSALS  ------------  //\n\nmapping(address => uint) public bosoms;\nmapping(address => mapping(uint => Stake)) public stakes;\nmapping(address => uint) public stakesCounters; // keeps track of how many stakes for each user\n// stakes ----> slashing function will need to loop trough stakes. Can create issues for claiming votes:\n// will create a function to gather stakes when user has to much stakes.\n// The function will take a completion_time as parameter and will loop trough 50 indexes and will put all stakes with\n// lower completion_time into a  single new stake with parameter completion_time\n\nevent CreatedPeriod(uint period_id, uint interval);\nevent IssuedPeriod(uint period_id, uint periodreward);\nevent NewStake(address indexed staker, uint amount);\nevent StakeClaimed(address indexed staker, uint stakeidx);\nevent NewDisease(uint diseaseindex, string title, string description);\nevent NewProposal(bytes32 proposed_release_hash, bytes32 diseasehash, string title, string description);\n\n\n\n// -------------  Reward system functions ---------------- //\n\nfunction issue(uint _id) internal returns (bool success) {\n  // we check whether there is at least one period\n  require(periodsCounter > 0);\n\n  // we check that the period exists\n  require(_id > 0 && _id <= periodsCounter);\n\n  // we retrieve the period\n  Period storage period = periods[_id];\n\n  // we check that the period is legit and has been retrieved\n  require(period.id != 0);\n\n\n//only allow one issuance for each period\nuint rwd = PeriodsIssued[period.id];\nif(rwd != 0x0) revert();  //prevent the same period from issuing twice\n\nuint _periodsupply;\n\n// era 2 (after 21 000 000 ETI has been reached)\nif(supply >= 21000000 * 10**(decimals)){\n uint _rate = uint(inflationrate / 10**(33));\n _periodsupply = supply * _rate;\n}\n// era 1 (before 21 000 000 ETI has been reached)\nelse {\n  _periodsupply = periodrewardtemp;\n}\n\nsupply = supply + _periodsupply;\nbalances[address(this)] = balances[address(this)].add(_periodsupply);\nPeriodsIssued[period.id] = _periodsupply;\nPeriodsIssuedCounter = PeriodsIssuedCounter + 1;\n\nemit IssuedPeriod(periodsCounter, _periodsupply);\n\nreturn true;\n\n}\n\n// --- WARNING this function should be internal, will be called by propose proposal function\n// let public for testing only\n// create a period\nfunction newPeriod() public {\n\n  uint _interval = uint((block.number + TESTING_STARTING_BLOCK_NUMBER).div(REWARD_INTERVAL));\n\n  //only allow one period for each interval\n  uint rwd = IntervalsPeriods[_interval];\n  if(rwd != 0x0) revert();  //prevent the same interval from having 2 periods\n\n\n  periodsCounter++;\n\n  // store this interval period\n  periods[periodsCounter] = Period(\n    periodsCounter,\n    _interval,\n    0x0, //_curation_sum\n    0x0, //_editor_sum\n    0x0 //_total_voters; // TOTAL nb of voters in this period\n  );\n\n  // an interval cannot have 2 Periods\n  IntervalsPeriods[_interval] = periodsCounter;\n  IntervalsPeriodsCounter++;\n\n  // issue ETI for this Period Reward\n  issue(periodsCounter);\n\n  emit CreatedPeriod(periodsCounter, _interval);\n}\n\n\n\n\n// -------------  Reward system functions ---------------- //\n\n\n// ------- STAKING ---------- //\n// Stake etica in exchange for bosom\nfunction eticatobosoms(address _staker, uint _amount) public returns (bool success){\n  require(msg.sender == _staker);\n  require(_amount > 0); // even if transfer require amount > 0 I prefer checking for more security and very few more gas\n  // transfer _amount ETI from staker wallet to contract balance:\n  transfer(address(this), _amount);\n\n  // Get bosoms and add Stake\n  bosomget(_staker, _amount);\n\n\n  return true;\n\n}\n\n\n\n// ----  Get bosoms and add Stake ------  //\n\n// Only contract must be able to call this function:\nfunction bosomget (address _staker, uint _amount) internal {\n\naddStake(_staker, _amount);\n\nuint newBosoms = _amount * ETICA_TO_BOSOM_RATIO;\nbosoms[_staker] = bosoms[_staker].add(newBosoms);\n\n}\n\n\nfunction addStake(address _staker, uint _amount) internal returns (bool success) {\n\n    require(_amount > 0); // may not be necessary as _amount is uint but I let it for better security\n    stakesCounters[_staker] = stakesCounters[_staker] + 1; // notice that first stake will have the index of 1 thus not 0 !\n\n    uint endBlock = block.number + STAKING_DURATION;\n\n    // store this stake in _staker's stakes with the index stakesCounters[_staker]\n    stakes[_staker][stakesCounters[_staker]] = Stake(\n      _amount, // stake amount\n      block.number, // StartBlock\n      endBlock // EndBlock\n    );\n\n    emit NewStake(_staker, _amount);\n\n    return true;\n}\n\n// ----  Get bosoms and add Stake ------  //\n\n\n// ----  Redeem a Stake ------  //\n\nfunction stakeclmidx (uint _stakeidx) public {\n\n  // we check that the stake exists\n  require(_stakeidx > 0 && _stakeidx <= stakesCounters[msg.sender]);\n\n  // we retrieve the stake\n  Stake storage _stake = stakes[msg.sender][_stakeidx];\n\n  // The stake must be over\n  require(block.number > _stake.endBlock);\n\n  require(_stake.amount > 0);\n\n  // transfer back ETI from contract to staker:\n  balances[address(this)] = balances[address(this)].sub(_stake.amount);\n\n  balances[msg.sender] = balances[msg.sender].add(_stake.amount);\n\n  emit Transfer(address(this), msg.sender, _stake.amount);\n  emit StakeClaimed(msg.sender, _stakeidx);\n\n  // deletes the stake\n  _deletestake(msg.sender, _stakeidx);\n\n}\n\nfunction _deletestake(address _staker,uint _index) internal {\n  // we check that the stake exists\n  require(_index > 0 && _index <= stakesCounters[_staker]);\n\n  // replace value of stake to be deleted by value of last stake\n  stakes[_staker][_index] = stakes[_staker][stakesCounters[_staker]];\n\n  // remove last stake\n  stakes[_staker][stakesCounters[_staker]] = Stake(\n    0x0, // amount\n    0x0, // StartBlock\n    0x0 // EndBlock\n    );\n\n  // updates stakesCounter of _staker\n  stakesCounters[_staker] = stakesCounters[_staker] - 1;\n}\n\n// ----  Redeem a Stake ------  //\n\n\nfunction stakescount(address _staker) public view returns (uint slength){\n  return stakesCounters[_staker];\n}\n\n// ------- STAKING ---------- //\n\n\n\n\n\nfunction createdisease(string memory _name, string memory _description) public {\n\n\n  // --- REQUIRE PAYMENT FOR ADDING A DISEASE TO CREATE A BARRIER TO ENTRY AND AVOID SPAM --- //\n\n  // make sure the user has enough ETI to create a disease\n  require(balances[msg.sender] >= DISEASE_CREATION_AMOUNT);\n  // transfer DISEASE_CREATION_AMOUNT ETI from user wallet to contract wallet:\n  transfer(address(this), DISEASE_CREATION_AMOUNT);\n\n  // --- REQUIRE PAYMENT FOR ADDING A DISEASE TO CREATE A BARRIER TO ENTRY AND AVOID SPAM --- //\n\n\n  bytes32 _diseasehash = sha256(abi.encodePacked(_name));\n\n  diseasesCounter = diseasesCounter + 1; // notice that first disease will have the index of 1 thus not 0 !\n\n  //check: if the disease is new we continue, otherwise we exit\n   if(diseasesbyIds[_diseasehash] != 0x0) revert();  //prevent the same disease from being created twice. The software manages diseases uniqueness based on their unique english name. Note that even the first disease will nott have index of 0 thus should pass this check\n\n\n   // store this stake in _staker's stakes with the index stakesCounters[_staker]\n   diseases[diseasesCounter] = Disease(\n     _diseasehash,\n     _name,\n     _description\n   );\n\n   // Updates diseasesbyIds and diseasesbyNames mappings:\n   diseasesbyIds[_diseasehash] = diseasesCounter;\n   diseasesbyNames[_name] = _diseasehash;\n\n   emit NewDisease(diseasesCounter, _name, _description);\n\n}\n\n\n\nfunction propose(bytes32 _diseasehash, string memory _title, string memory _description, string memory raw_release_hash,\n  string memory old_release_hash, string memory grandparent_hash) public {\n\n    // make sure the user has enough ETI to create a disease\n    require(balances[msg.sender] >= PROPOSAL_CREATION_AMOUNT);\n\n    //check if the disease exits\n     require(diseasesbyIds[_diseasehash] > 0 && diseasesbyIds[_diseasehash] <= diseasesCounter);\n     if(diseases[diseasesbyIds[_diseasehash]].disease_hash != _diseasehash) revert(); // second check not necessary but I decided to add it as the gas cost value for security is worth it\n\n\n     bytes32 _proposed_release_hash = sha256(abi.encodePacked(raw_release_hash, _diseasehash));\n\n     proposalsCounter = proposalsCounter + 1; // notice that first proposal will have the index of 1 thus not 0 !\n\n\n     // store this disease in diseases mapping.\n     // ------- Warning ----\n     // Need to  implement check that proposal does not already exitsts\n     Proposal storage proposal = proposals[_proposed_release_hash];\n     // ------- Warning ----\n\n       proposal.id = proposalsCounter;\n       proposal.disease_id = _diseasehash; // _diseasehash has already been checked to equal diseases[diseasesbyIds[_diseasehash]].disease_hash\n       // periodid,\n       proposal.proposed_release_hash = _proposed_release_hash; // Hash of \"raw_release_hash + name of Disease\",\n       proposal.proposer = msg.sender;\n       proposal.title = _title;\n       proposal.description = _description;\n\n\n       // Proposal IPFS:\n       ProposalIpfs storage proposalipfs = propsipfs[_proposed_release_hash];\n       proposalipfs.raw_release_hash = raw_release_hash;\n       proposalipfs.old_release_hash = old_release_hash;\n       proposalipfs.grandparent_hash = grandparent_hash;\n\n\n       //  Proposal Data:\n       ProposalData storage proposaldata = propsdatas[_proposed_release_hash];\n       //starttime,\n       //endtime,\n       //finalized_time,\n       proposaldata.status = ProposalStatus.Pending;\n       proposaldata.istie = false;\n       proposaldata.prestatus = ProposalStatus.Pending;\n       proposaldata.nbvoters = 1;\n       proposaldata.slashingratio = 0;\n       proposaldata.forvotes = PROPOSAL_CREATION_AMOUNT;\n       proposaldata.againstvotes = 0;\n       proposaldata.lastcuration_weight = 0;\n       proposaldata.lasteditor_weight = 0;\n\n\n  // --- REQUIRE DEFAULT VOTE TO CREATE A BARRIER TO ENTRY AND AVOID SPAM --- //\n\n  // make sure the user has enough ETI to create a disease\n  require(balances[msg.sender] >= PROPOSAL_CREATION_AMOUNT);\n\n\n  // Place the default vote\n  // votebyhash( msg.sender, concate_me, true, PROPOSAL_CREATION_AMOUNT );\n\n  // --- REQUIRE DEFAULT VOTE TO CREATE A BARRIER TO ENTRY AND AVOID SPAM --- //\n\n\n    emit NewProposal(_proposed_release_hash, _diseasehash, _title, _description);\n\n}\n\n\n\n// get boms balance of user:\nfunction bosomsOf(address tokenOwner) public view returns (uint _bosoms){\n     return bosoms[tokenOwner];\n }\n\n function getdiseasehashbyName(string memory _name) public view returns (bytes32 _diseasehash){\n     return diseasesbyNames[_name];\n }\n\n\n}\n",
  "sourcePath": "/mnt/d/linux/ethereum/etica/contracts/EticaRelease.sol",
  "compiler": {
    "name": "solc",
    "version": "0.5.2+commit.1df8f40c.Emscripten.clang"
  },
  "schemaVersion": "3.0.9",
  "updatedAt": "2019-06-06T15:27:55.146Z",
  "devdoc": {
    "methods": {}
  },
  "userdoc": {
    "methods": {}
  }
}