{
  "contractName": "EticaToken",
  "abi": [
    {
      "constant": true,
      "inputs": [],
      "name": "supply",
      "outputs": [
        {
          "name": "",
          "type": "uint256"
        }
      ],
      "payable": false,
      "stateMutability": "view",
      "type": "function"
    },
    {
      "constant": true,
      "inputs": [],
      "name": "name",
      "outputs": [
        {
          "name": "",
          "type": "string"
        }
      ],
      "payable": false,
      "stateMutability": "view",
      "type": "function"
    },
    {
      "constant": true,
      "inputs": [
        {
          "name": "",
          "type": "address"
        }
      ],
      "name": "balances",
      "outputs": [
        {
          "name": "",
          "type": "uint256"
        }
      ],
      "payable": false,
      "stateMutability": "view",
      "type": "function"
    },
    {
      "constant": true,
      "inputs": [],
      "name": "decimals",
      "outputs": [
        {
          "name": "",
          "type": "uint256"
        }
      ],
      "payable": false,
      "stateMutability": "view",
      "type": "function"
    },
    {
      "constant": true,
      "inputs": [],
      "name": "maxsupply",
      "outputs": [
        {
          "name": "",
          "type": "uint256"
        }
      ],
      "payable": false,
      "stateMutability": "view",
      "type": "function"
    },
    {
      "constant": true,
      "inputs": [],
      "name": "founder",
      "outputs": [
        {
          "name": "",
          "type": "address"
        }
      ],
      "payable": false,
      "stateMutability": "view",
      "type": "function"
    },
    {
      "constant": true,
      "inputs": [],
      "name": "centuryreward",
      "outputs": [
        {
          "name": "",
          "type": "uint256"
        }
      ],
      "payable": false,
      "stateMutability": "view",
      "type": "function"
    },
    {
      "constant": true,
      "inputs": [],
      "name": "initialreserve",
      "outputs": [
        {
          "name": "",
          "type": "uint256"
        }
      ],
      "payable": false,
      "stateMutability": "view",
      "type": "function"
    },
    {
      "constant": true,
      "inputs": [],
      "name": "weeklyreward",
      "outputs": [
        {
          "name": "",
          "type": "uint256"
        }
      ],
      "payable": false,
      "stateMutability": "view",
      "type": "function"
    },
    {
      "constant": true,
      "inputs": [],
      "name": "symbol",
      "outputs": [
        {
          "name": "",
          "type": "string"
        }
      ],
      "payable": false,
      "stateMutability": "view",
      "type": "function"
    },
    {
      "inputs": [],
      "payable": false,
      "stateMutability": "nonpayable",
      "type": "constructor"
    },
    {
      "anonymous": false,
      "inputs": [
        {
          "indexed": true,
          "name": "from",
          "type": "address"
        },
        {
          "indexed": true,
          "name": "to",
          "type": "address"
        },
        {
          "indexed": false,
          "name": "tokens",
          "type": "uint256"
        }
      ],
      "name": "Transfer",
      "type": "event"
    },
    {
      "anonymous": false,
      "inputs": [
        {
          "indexed": true,
          "name": "tokenOwner",
          "type": "address"
        },
        {
          "indexed": true,
          "name": "spender",
          "type": "address"
        },
        {
          "indexed": false,
          "name": "tokens",
          "type": "uint256"
        }
      ],
      "name": "Approval",
      "type": "event"
    },
    {
      "constant": true,
      "inputs": [
        {
          "name": "tokenOwner",
          "type": "address"
        },
        {
          "name": "spender",
          "type": "address"
        }
      ],
      "name": "allowance",
      "outputs": [
        {
          "name": "",
          "type": "uint256"
        }
      ],
      "payable": false,
      "stateMutability": "view",
      "type": "function"
    },
    {
      "constant": false,
      "inputs": [
        {
          "name": "spender",
          "type": "address"
        },
        {
          "name": "tokens",
          "type": "uint256"
        }
      ],
      "name": "approve",
      "outputs": [
        {
          "name": "",
          "type": "bool"
        }
      ],
      "payable": false,
      "stateMutability": "nonpayable",
      "type": "function"
    },
    {
      "constant": false,
      "inputs": [
        {
          "name": "from",
          "type": "address"
        },
        {
          "name": "to",
          "type": "address"
        },
        {
          "name": "tokens",
          "type": "uint256"
        }
      ],
      "name": "transferFrom",
      "outputs": [
        {
          "name": "",
          "type": "bool"
        }
      ],
      "payable": false,
      "stateMutability": "nonpayable",
      "type": "function"
    },
    {
      "constant": true,
      "inputs": [],
      "name": "totalSupply",
      "outputs": [
        {
          "name": "",
          "type": "uint256"
        }
      ],
      "payable": false,
      "stateMutability": "view",
      "type": "function"
    },
    {
      "constant": true,
      "inputs": [
        {
          "name": "tokenOwner",
          "type": "address"
        }
      ],
      "name": "balanceOf",
      "outputs": [
        {
          "name": "balance",
          "type": "uint256"
        }
      ],
      "payable": false,
      "stateMutability": "view",
      "type": "function"
    },
    {
      "constant": false,
      "inputs": [
        {
          "name": "to",
          "type": "address"
        },
        {
          "name": "tokens",
          "type": "uint256"
        }
      ],
      "name": "transfer",
      "outputs": [
        {
          "name": "success",
          "type": "bool"
        }
      ],
      "payable": false,
      "stateMutability": "nonpayable",
      "type": "function"
    }
  ],
  "bytecode": "0x60806040526040805190810160405280600581526020017f45746963610000000000000000000000000000000000000000000000000000008152506000908051906020019061004f9291906102af565b506040805190810160405280600381526020017f45544900000000000000000000000000000000000000000000000000000000008152506001908051906020019061009b9291906102af565b5060126002553480156100ad57600080fd5b506b033b2e3c9fd0803ce80000006004819055506b01ff39c9307583e5277000006003819055506b013bf4736f5afc57c0900000600681905550690f83174389d9e2d3eda260078190555033600860006101000a81548173ffffffffffffffffffffffffffffffffffffffff021916908373ffffffffffffffffffffffffffffffffffffffff160217905550606460086003540281151561014a57fe5b0460096000600860009054906101000a900473ffffffffffffffffffffffffffffffffffffffff1673ffffffffffffffffffffffffffffffffffffffff1673ffffffffffffffffffffffffffffffffffffffff1681526020019081526020016000208190555068056bc75e2d63100000600960003073ffffffffffffffffffffffffffffffffffffffff1673ffffffffffffffffffffffffffffffffffffffff16815260200190815260200160002081905550600960003073ffffffffffffffffffffffffffffffffffffffff1673ffffffffffffffffffffffffffffffffffffffff1681526020019081526020016000205460096000600860009054906101000a900473ffffffffffffffffffffffffffffffffffffffff1673ffffffffffffffffffffffffffffffffffffffff1673ffffffffffffffffffffffffffffffffffffffff168152602001908152602001600020546003540303600581905550610354565b828054600181600116156101000203166002900490600052602060002090601f016020900481019282601f106102f057805160ff191683800117855561031e565b8280016001018555821561031e579182015b8281111561031d578251825591602001919060010190610302565b5b50905061032b919061032f565b5090565b61035191905b8082111561034d576000816000905550600101610335565b5090565b90565b610d20806103636000396000f3fe608060405234801561001057600080fd5b506004361061011d576000357c0100000000000000000000000000000000000000000000000000000000900480634d853ee5116100b4578063945f3a8311610083578063945f3a831461043f57806395d89b411461045d578063a9059cbb146104e0578063dd62ed3e146105465761011d565b80634d853ee51461036157806370a08231146103ab5780637a750ef21461040357806386dad299146104215761011d565b806323b872dd116100f057806323b872dd1461024757806327e235e3146102cd578063313ce567146103255780634b6406d1146103435761011d565b8063047fc9aa1461012257806306fdde0314610140578063095ea7b3146101c357806318160ddd14610229575b600080fd5b61012a6105be565b6040518082815260200191505060405180910390f35b6101486105c4565b6040518080602001828103825283818151815260200191508051906020019080838360005b8381101561018857808201518184015260208101905061016d565b50505050905090810190601f1680156101b55780820380516001836020036101000a031916815260200191505b509250505060405180910390f35b61020f600480360360408110156101d957600080fd5b81019080803573ffffffffffffffffffffffffffffffffffffffff16906020019092919080359060200190929190505050610662565b604051808215151515815260200191505060405180910390f35b6102316107b1565b6040518082815260200191505060405180910390f35b6102b36004803603606081101561025d57600080fd5b81019080803573ffffffffffffffffffffffffffffffffffffffff169060200190929190803573ffffffffffffffffffffffffffffffffffffffff169060200190929190803590602001909291905050506107bb565b604051808215151515815260200191505060405180910390f35b61030f600480360360208110156102e357600080fd5b81019080803573ffffffffffffffffffffffffffffffffffffffff1690602001909291905050506109c5565b6040518082815260200191505060405180910390f35b61032d6109dd565b6040518082815260200191505060405180910390f35b61034b6109e3565b6040518082815260200191505060405180910390f35b6103696109e9565b604051808273ffffffffffffffffffffffffffffffffffffffff1673ffffffffffffffffffffffffffffffffffffffff16815260200191505060405180910390f35b6103ed600480360360208110156103c157600080fd5b81019080803573ffffffffffffffffffffffffffffffffffffffff169060200190929190505050610a0f565b6040518082815260200191505060405180910390f35b61040b610a58565b6040518082815260200191505060405180910390f35b610429610a5e565b6040518082815260200191505060405180910390f35b610447610a64565b6040518082815260200191505060405180910390f35b610465610a6a565b6040518080602001828103825283818151815260200191508051906020019080838360005b838110156104a557808201518184015260208101905061048a565b50505050905090810190601f1680156104d25780820380516001836020036101000a031916815260200191505b509250505060405180910390f35b61052c600480360360408110156104f657600080fd5b81019080803573ffffffffffffffffffffffffffffffffffffffff16906020019092919080359060200190929190505050610b08565b604051808215151515815260200191505060405180910390f35b6105a86004803603604081101561055c57600080fd5b81019080803573ffffffffffffffffffffffffffffffffffffffff169060200190929190803573ffffffffffffffffffffffffffffffffffffffff169060200190929190505050610c6d565b6040518082815260200191505060405180910390f35b60035481565b60008054600181600116156101000203166002900480601f01602080910402602001604051908101604052809291908181526020018280546001816001161561010002031660029004801561065a5780601f1061062f5761010080835404028352916020019161065a565b820191906000526020600020905b81548152906001019060200180831161063d57829003601f168201915b505050505081565b600081600960003373ffffffffffffffffffffffffffffffffffffffff1673ffffffffffffffffffffffffffffffffffffffff16815260200190815260200160002054101515156106b257600080fd5b6000821115156106c157600080fd5b81600a60003373ffffffffffffffffffffffffffffffffffffffff1673ffffffffffffffffffffffffffffffffffffffff16815260200190815260200160002060008573ffffffffffffffffffffffffffffffffffffffff1673ffffffffffffffffffffffffffffffffffffffff168152602001908152602001600020819055508273ffffffffffffffffffffffffffffffffffffffff163373ffffffffffffffffffffffffffffffffffffffff167f8c5be1e5ebec7d5bd14f71427d1e84f3dd0314c0f7b2291e5b200ac8c7c3b925846040518082815260200191505060405180910390a36001905092915050565b6000600354905090565b600081600a60008673ffffffffffffffffffffffffffffffffffffffff1673ffffffffffffffffffffffffffffffffffffffff16815260200190815260200160002060008573ffffffffffffffffffffffffffffffffffffffff1673ffffffffffffffffffffffffffffffffffffffff168152602001908152602001600020541015151561084857600080fd5b81600960008673ffffffffffffffffffffffffffffffffffffffff1673ffffffffffffffffffffffffffffffffffffffff168152602001908152602001600020541015151561089657600080fd5b81600960008673ffffffffffffffffffffffffffffffffffffffff1673ffffffffffffffffffffffffffffffffffffffff1681526020019081526020016000206000828254039250508190555081600960008573ffffffffffffffffffffffffffffffffffffffff1673ffffffffffffffffffffffffffffffffffffffff1681526020019081526020016000206000828254019250508190555081600a60008673ffffffffffffffffffffffffffffffffffffffff1673ffffffffffffffffffffffffffffffffffffffff16815260200190815260200160002060008573ffffffffffffffffffffffffffffffffffffffff1673ffffffffffffffffffffffffffffffffffffffff16815260200190815260200160002060008282540392505081905550600190509392505050565b60096020528060005260406000206000915090505481565b60025481565b60045481565b600860009054906101000a900473ffffffffffffffffffffffffffffffffffffffff1681565b6000600960008373ffffffffffffffffffffffffffffffffffffffff1673ffffffffffffffffffffffffffffffffffffffff168152602001908152602001600020549050919050565b60065481565b60055481565b60075481565b60018054600181600116156101000203166002900480601f016020809104026020016040519081016040528092919081815260200182805460018160011615610100020316600290048015610b005780601f10610ad557610100808354040283529160200191610b00565b820191906000526020600020905b815481529060010190602001808311610ae357829003601f168201915b505050505081565b600081600960003373ffffffffffffffffffffffffffffffffffffffff1673ffffffffffffffffffffffffffffffffffffffff1681526020019081526020016000205410158015610b595750600082115b1515610b6457600080fd5b81600960008573ffffffffffffffffffffffffffffffffffffffff1673ffffffffffffffffffffffffffffffffffffffff1681526020019081526020016000206000828254019250508190555081600960003373ffffffffffffffffffffffffffffffffffffffff1673ffffffffffffffffffffffffffffffffffffffff168152602001908152602001600020600082825403925050819055508273ffffffffffffffffffffffffffffffffffffffff163373ffffffffffffffffffffffffffffffffffffffff167fddf252ad1be2c89b69c2b068fc378daa952ba7f163c4a11628f55a4df523b3ef846040518082815260200191505060405180910390a36001905092915050565b6000600a60008473ffffffffffffffffffffffffffffffffffffffff1673ffffffffffffffffffffffffffffffffffffffff16815260200190815260200160002060008373ffffffffffffffffffffffffffffffffffffffff1673ffffffffffffffffffffffffffffffffffffffff1681526020019081526020016000205490509291505056fea165627a7a7230582038291f89eb8d45687bb2a8d1c68077d56d4b6e8724c984568de2472603c3dfab0029",
  "source": "pragma solidity ^0.5.2;\r\n// ----------------------------------------------------------------------------\r\n//this ICO smart contract has been compiled and tested with the Solidity Version 0.5.2\r\n//There are some minor changes comparing to ICO contract compiled with versions < 0.5.0\r\n// ----------------------------------------------------------------------------\r\n\r\ncontract ERC20Interface {\r\n    function totalSupply() public view returns (uint);\r\n    function balanceOf(address tokenOwner) public view returns (uint balance);\r\n    function transfer(address to, uint tokens) public returns (bool success);\r\n\r\n\r\n    function allowance(address tokenOwner, address spender) public view returns (uint remaining);\r\n    function approve(address spender, uint tokens) public returns (bool success);\r\n    function transferFrom(address from, address to, uint tokens) public returns (bool success);\r\n\r\n    event Transfer(address indexed from, address indexed to, uint tokens);\r\n    event Approval(address indexed tokenOwner, address indexed spender, uint tokens);\r\n}\r\n\r\ncontract EticaToken is ERC20Interface{\r\n    string public name = \"Etica\";\r\n    string public symbol = \"ETI\";\r\n    uint public decimals = 18;\r\n\r\n    uint public supply;\r\n    uint public maxsupply;\r\n    uint public initialreserve;\r\n    uint public centuryreward; // Amount of ETI issued every 100 years\r\n    uint public weeklyreward; // Amount of ETI issued every week\r\n    address public founder;\r\n\r\n    mapping(address => uint) public balances;\r\n\r\n    mapping(address => mapping(address => uint)) allowed;\r\n\r\n    //allowed[0x1111....][0x22222...] = 100;\r\n\r\n\r\n    event Transfer(address indexed from, address indexed to, uint tokens);\r\n    event Approval(address indexed tokenOwner, address indexed spender, uint tokens);\r\n\r\n\r\n    constructor() public{\r\n      maxsupply = 1000000000 * (10**18); // 1 Billion ETI\r\n      supply = 618033980 * (10**18); // initial supply equals 618033980 ETI fibonacci golden ratio\r\n      centuryreward = 381966020 * (10**18); // 381966020 ETI issued per century\r\n      weeklyreward = 73253697051755847871906; // 381966020 ETI per century equals 73253,697051755847871905858707513 ETI Issued each week : (centuryreward / (100 * 52,1429));\r\n      founder = msg.sender;\r\n      balances[founder] = supply * 8 / 100;\r\n      balances[address(this)] = 100 * (10**18); // 100 ETI as the default contract balance. To avoid any issue that could arise from negative contract balance because of significant numbers approximations \r\n      initialreserve = supply - balances[founder] - balances[address(this)];\r\n    }\r\n\r\n\r\n    function allowance(address tokenOwner, address spender) view public returns(uint){\r\n        return allowed[tokenOwner][spender];\r\n    }\r\n\r\n\r\n    //approve allowance\r\n    function approve(address spender, uint tokens) public returns(bool){\r\n        require(balances[msg.sender] >= tokens);\r\n        require(tokens > 0);\r\n\r\n        allowed[msg.sender][spender] = tokens;\r\n        emit Approval(msg.sender, spender, tokens);\r\n        return true;\r\n    }\r\n\r\n    //transfer tokens from the  owner account to the account that calls the function\r\n    function transferFrom(address from, address to, uint tokens) public returns(bool){\r\n        require(allowed[from][to] >= tokens);\r\n        require(balances[from] >= tokens);\r\n\r\n        balances[from] -= tokens;\r\n        balances[to] += tokens;\r\n\r\n\r\n        allowed[from][to] -= tokens;\r\n\r\n        return true;\r\n    }\r\n\r\n    function totalSupply() public view returns (uint){\r\n        return supply;\r\n    }\r\n\r\n    function balanceOf(address tokenOwner) public view returns (uint balance){\r\n         return balances[tokenOwner];\r\n     }\r\n\r\n\r\n    function transfer(address to, uint tokens) public returns (bool success){\r\n         require(balances[msg.sender] >= tokens && tokens > 0);\r\n\r\n         balances[to] += tokens;\r\n         balances[msg.sender] -= tokens;\r\n         emit Transfer(msg.sender, to, tokens);\r\n         return true;\r\n     }\r\n}\r\n\r\n\r\ncontract EticaBosoms is EticaToken{\r\n    address public admin;\r\n\r\n\r\n    //starting with solidity version 0.5.0 only a payable address has the transfer() member function\r\n    //it's mandatory to declare the variable payable\r\n    address payable public deposit;\r\n\r\n    //token price in wei: 1ETI = 0.001 ETHER, 1 ETHER = 1000 ETI\r\n    uint tokenPrice = 1000000000000000;\r\n\r\n    // 618033980 ETI fibonacci golden ratio\r\n    uint public hardCap = 618033980000000000000000; // 618033980 ETI  equals 618033.980 Ether equals 618033980000000000000000 in wei\r\n\r\n    uint public raisedAmount;\r\n\r\n    uint public saleStart = now;\r\n    uint public saleEnd = now + 604800; //one week\r\n    uint public coinTradeStart = saleEnd + 604800; //transferable in a week after salesEnd\r\n\r\n    uint public maxInvestment = 5000000000000000000;\r\n    uint public minInvestment = 10000000000000000;\r\n\r\n    enum State { beforeStart, running, afterEnd, halted}\r\n    State public icoState;\r\n\r\n\r\n    modifier onlyAdmin(){\r\n        require(msg.sender == admin);\r\n        _;\r\n    }\r\n\r\n    event Invest(address investor, uint value, uint tokens);\r\n\r\n\r\n    //in solidity version > 0.5.0 the deposit argument must be payable\r\n    constructor(address payable _deposit) public{\r\n        deposit = _deposit;\r\n        admin = msg.sender;\r\n        icoState = State.beforeStart;\r\n    }\r\n\r\n    //emergency stop\r\n    function halt() public onlyAdmin{\r\n        icoState = State.halted;\r\n    }\r\n\r\n    //restart\r\n    function unhalt() public onlyAdmin{\r\n        icoState = State.running;\r\n    }\r\n\r\n\r\n    //only the admin can change the deposit address\r\n    //in solidity version > 0.5.0 the deposit argument must be payable\r\n    function changeDepositAddress(address payable newDeposit) public onlyAdmin{\r\n        deposit = newDeposit;\r\n    }\r\n\r\n\r\n    //returns ico state\r\n    function getCurrentState() public view returns(State){\r\n        if(icoState == State.halted){\r\n            return State.halted;\r\n        }else if(block.timestamp < saleStart){\r\n            return State.beforeStart;\r\n        }else if(block.timestamp >= saleStart && block.timestamp <= saleEnd){\r\n            return State.running;\r\n        }else{\r\n            return State.afterEnd;\r\n        }\r\n    }\r\n\r\n\r\n    function invest() payable public returns(bool){\r\n        //invest only in running\r\n        icoState = getCurrentState();\r\n        require(icoState == State.running);\r\n\r\n        require(msg.value >= minInvestment && msg.value <= maxInvestment);\r\n\r\n        uint tokens = msg.value / tokenPrice;\r\n\r\n        //initial supply not raised\r\n        require( tokens <= initialreserve);\r\n\r\n        raisedAmount += msg.value;\r\n\r\n        //add tokens to investor balance from founder balance\r\n        balances[msg.sender] += tokens;\r\n        // retrieve tokens from initil supply\r\n        initialreserve -= tokens;\r\n\r\n        deposit.transfer(msg.value);//transfer eth to the deposit address\r\n\r\n        //emit event\r\n        emit Invest(msg.sender, msg.value, tokens);\r\n\r\n        return true;\r\n\r\n    }\r\n\r\n    //the payable function must be declared external in solidity versions > 0.5.0\r\n    function () payable external{\r\n        invest();\r\n    }\r\n\r\n\r\n\r\n    function burn() public returns(bool){\r\n        icoState = getCurrentState();\r\n        require(icoState == State.afterEnd);\r\n        balances[founder] = 0;\r\n\r\n    }\r\n\r\n\r\n    function transfer(address to, uint value) public returns(bool){\r\n        require(block.timestamp > coinTradeStart);\r\n        super.transfer(to, value);\r\n    }\r\n\r\n    function transferFrom(address _from, address _to, uint _value) public returns(bool){\r\n        require(block.timestamp > coinTradeStart);\r\n        super.transferFrom(_from, _to, _value);\r\n    }\r\n\r\n}\r\n",
  "sourcePath": "/mnt/d/linux/ethereum/etica/contracts/EticaBosoms.sol",
  "compiler": {
    "name": "solc",
    "version": "0.5.2+commit.1df8f40c.Emscripten.clang"
  },
  "schemaVersion": "3.0.1",
  "updatedAt": "2019-04-30T17:05:42.571Z",
  "devdoc": {
    "methods": {}
  },
  "userdoc": {
    "methods": {}
  }
}