{
  "contractName": "EticaRelease",
  "abi": [
    {
      "constant": true,
      "inputs": [],
      "name": "supply",
      "outputs": [
        {
          "name": "",
          "type": "uint256"
        }
      ],
      "payable": false,
      "stateMutability": "view",
      "type": "function"
    },
    {
      "constant": true,
      "inputs": [],
      "name": "name",
      "outputs": [
        {
          "name": "",
          "type": "string"
        }
      ],
      "payable": false,
      "stateMutability": "view",
      "type": "function"
    },
    {
      "constant": false,
      "inputs": [
        {
          "name": "spender",
          "type": "address"
        },
        {
          "name": "tokens",
          "type": "uint256"
        }
      ],
      "name": "approve",
      "outputs": [
        {
          "name": "",
          "type": "bool"
        }
      ],
      "payable": false,
      "stateMutability": "nonpayable",
      "type": "function"
    },
    {
      "constant": true,
      "inputs": [
        {
          "name": "",
          "type": "bytes32"
        }
      ],
      "name": "diseasesbyIds",
      "outputs": [
        {
          "name": "",
          "type": "uint256"
        }
      ],
      "payable": false,
      "stateMutability": "view",
      "type": "function"
    },
    {
      "constant": true,
      "inputs": [],
      "name": "lastRewardEthBlockNumber",
      "outputs": [
        {
          "name": "",
          "type": "uint256"
        }
      ],
      "payable": false,
      "stateMutability": "view",
      "type": "function"
    },
    {
      "constant": true,
      "inputs": [],
      "name": "getMiningDifficulty",
      "outputs": [
        {
          "name": "",
          "type": "uint256"
        }
      ],
      "payable": false,
      "stateMutability": "view",
      "type": "function"
    },
    {
      "constant": false,
      "inputs": [
        {
          "name": "nonce",
          "type": "uint256"
        },
        {
          "name": "challenge_digest",
          "type": "bytes32"
        }
      ],
      "name": "mint",
      "outputs": [
        {
          "name": "success",
          "type": "bool"
        }
      ],
      "payable": false,
      "stateMutability": "nonpayable",
      "type": "function"
    },
    {
      "constant": true,
      "inputs": [],
      "name": "totalSupply",
      "outputs": [
        {
          "name": "",
          "type": "uint256"
        }
      ],
      "payable": false,
      "stateMutability": "view",
      "type": "function"
    },
    {
      "constant": true,
      "inputs": [],
      "name": "IntervalsPeriodsCounter",
      "outputs": [
        {
          "name": "",
          "type": "uint256"
        }
      ],
      "payable": false,
      "stateMutability": "view",
      "type": "function"
    },
    {
      "constant": false,
      "inputs": [
        {
          "name": "from",
          "type": "address"
        },
        {
          "name": "to",
          "type": "address"
        },
        {
          "name": "tokens",
          "type": "uint256"
        }
      ],
      "name": "transferFrom",
      "outputs": [
        {
          "name": "",
          "type": "bool"
        }
      ],
      "payable": false,
      "stateMutability": "nonpayable",
      "type": "function"
    },
    {
      "constant": true,
      "inputs": [
        {
          "name": "",
          "type": "address"
        }
      ],
      "name": "balances",
      "outputs": [
        {
          "name": "",
          "type": "uint256"
        }
      ],
      "payable": false,
      "stateMutability": "view",
      "type": "function"
    },
    {
      "constant": true,
      "inputs": [],
      "name": "decimals",
      "outputs": [
        {
          "name": "",
          "type": "uint256"
        }
      ],
      "payable": false,
      "stateMutability": "view",
      "type": "function"
    },
    {
      "constant": true,
      "inputs": [],
      "name": "getMiningTarget",
      "outputs": [
        {
          "name": "",
          "type": "uint256"
        }
      ],
      "payable": false,
      "stateMutability": "view",
      "type": "function"
    },
    {
      "constant": true,
      "inputs": [],
      "name": "DISEASE_CREATION_AMOUNT",
      "outputs": [
        {
          "name": "",
          "type": "uint256"
        }
      ],
      "payable": false,
      "stateMutability": "view",
      "type": "function"
    },
    {
      "constant": true,
      "inputs": [],
      "name": "_totalMiningSupply",
      "outputs": [
        {
          "name": "",
          "type": "uint256"
        }
      ],
      "payable": false,
      "stateMutability": "view",
      "type": "function"
    },
    {
      "constant": true,
      "inputs": [
        {
          "name": "",
          "type": "uint256"
        }
      ],
      "name": "diseases",
      "outputs": [
        {
          "name": "disease_hash",
          "type": "bytes32"
        },
        {
          "name": "name",
          "type": "string"
        },
        {
          "name": "description",
          "type": "string"
        }
      ],
      "payable": false,
      "stateMutability": "view",
      "type": "function"
    },
    {
      "constant": true,
      "inputs": [],
      "name": "founder",
      "outputs": [
        {
          "name": "",
          "type": "address"
        }
      ],
      "payable": false,
      "stateMutability": "view",
      "type": "function"
    },
    {
      "constant": true,
      "inputs": [],
      "name": "getChallengeNumber",
      "outputs": [
        {
          "name": "",
          "type": "bytes32"
        }
      ],
      "payable": false,
      "stateMutability": "view",
      "type": "function"
    },
    {
      "constant": true,
      "inputs": [
        {
          "name": "",
          "type": "address"
        }
      ],
      "name": "bosoms",
      "outputs": [
        {
          "name": "",
          "type": "uint256"
        }
      ],
      "payable": false,
      "stateMutability": "view",
      "type": "function"
    },
    {
      "constant": true,
      "inputs": [
        {
          "name": "",
          "type": "address"
        },
        {
          "name": "",
          "type": "uint256"
        }
      ],
      "name": "stakes",
      "outputs": [
        {
          "name": "amount",
          "type": "uint256"
        },
        {
          "name": "startBlock",
          "type": "uint256"
        },
        {
          "name": "endBlock",
          "type": "uint256"
        }
      ],
      "payable": false,
      "stateMutability": "view",
      "type": "function"
    },
    {
      "constant": true,
      "inputs": [],
      "name": "foundermsgproof",
      "outputs": [
        {
          "name": "",
          "type": "string"
        }
      ],
      "payable": false,
      "stateMutability": "view",
      "type": "function"
    },
    {
      "constant": true,
      "inputs": [],
      "name": "tokensMinted",
      "outputs": [
        {
          "name": "",
          "type": "uint256"
        }
      ],
      "payable": false,
      "stateMutability": "view",
      "type": "function"
    },
    {
      "constant": true,
      "inputs": [],
      "name": "diseasesCounter",
      "outputs": [
        {
          "name": "",
          "type": "uint256"
        }
      ],
      "payable": false,
      "stateMutability": "view",
      "type": "function"
    },
    {
      "constant": true,
      "inputs": [],
      "name": "lastRewardTo",
      "outputs": [
        {
          "name": "",
          "type": "address"
        }
      ],
      "payable": false,
      "stateMutability": "view",
      "type": "function"
    },
    {
      "constant": true,
      "inputs": [
        {
          "name": "tokenOwner",
          "type": "address"
        }
      ],
      "name": "balanceOf",
      "outputs": [
        {
          "name": "balance",
          "type": "uint256"
        }
      ],
      "payable": false,
      "stateMutability": "view",
      "type": "function"
    },
    {
      "constant": true,
      "inputs": [
        {
          "name": "nonce",
          "type": "uint256"
        },
        {
          "name": "challenge_digest",
          "type": "bytes32"
        },
        {
          "name": "challenge_number",
          "type": "bytes32"
        },
        {
          "name": "testTarget",
          "type": "uint256"
        }
      ],
      "name": "checkMintSolution",
      "outputs": [
        {
          "name": "success",
          "type": "bool"
        }
      ],
      "payable": false,
      "stateMutability": "view",
      "type": "function"
    },
    {
      "constant": true,
      "inputs": [],
      "name": "epochCount",
      "outputs": [
        {
          "name": "",
          "type": "uint256"
        }
      ],
      "payable": false,
      "stateMutability": "view",
      "type": "function"
    },
    {
      "constant": true,
      "inputs": [],
      "name": "_MAXIMUM_TARGET",
      "outputs": [
        {
          "name": "",
          "type": "uint256"
        }
      ],
      "payable": false,
      "stateMutability": "view",
      "type": "function"
    },
    {
      "constant": true,
      "inputs": [
        {
          "name": "",
          "type": "uint256"
        }
      ],
      "name": "IntervalsPeriods",
      "outputs": [
        {
          "name": "",
          "type": "uint256"
        }
      ],
      "payable": false,
      "stateMutability": "view",
      "type": "function"
    },
    {
      "constant": true,
      "inputs": [],
      "name": "miningTarget",
      "outputs": [
        {
          "name": "",
          "type": "uint256"
        }
      ],
      "payable": false,
      "stateMutability": "view",
      "type": "function"
    },
    {
      "constant": true,
      "inputs": [],
      "name": "challengeNumber",
      "outputs": [
        {
          "name": "",
          "type": "bytes32"
        }
      ],
      "payable": false,
      "stateMutability": "view",
      "type": "function"
    },
    {
      "constant": true,
      "inputs": [],
      "name": "symbol",
      "outputs": [
        {
          "name": "",
          "type": "string"
        }
      ],
      "payable": false,
      "stateMutability": "view",
      "type": "function"
    },
    {
      "constant": true,
      "inputs": [
        {
          "name": "nonce",
          "type": "uint256"
        },
        {
          "name": "challenge_digest",
          "type": "bytes32"
        },
        {
          "name": "challenge_number",
          "type": "bytes32"
        }
      ],
      "name": "getMintDigest",
      "outputs": [
        {
          "name": "digesttest",
          "type": "bytes32"
        }
      ],
      "payable": false,
      "stateMutability": "view",
      "type": "function"
    },
    {
      "constant": false,
      "inputs": [
        {
          "name": "to",
          "type": "address"
        },
        {
          "name": "tokens",
          "type": "uint256"
        }
      ],
      "name": "transfer",
      "outputs": [
        {
          "name": "success",
          "type": "bool"
        }
      ],
      "payable": false,
      "stateMutability": "nonpayable",
      "type": "function"
    },
    {
      "constant": true,
      "inputs": [],
      "name": "_BLOCKS_PER_READJUSTMENT",
      "outputs": [
        {
          "name": "",
          "type": "uint256"
        }
      ],
      "payable": false,
      "stateMutability": "view",
      "type": "function"
    },
    {
      "constant": true,
      "inputs": [],
      "name": "inflationrate",
      "outputs": [
        {
          "name": "",
          "type": "uint256"
        }
      ],
      "payable": false,
      "stateMutability": "view",
      "type": "function"
    },
    {
      "constant": true,
      "inputs": [],
      "name": "latestDifficultyPeriodStarted",
      "outputs": [
        {
          "name": "",
          "type": "uint256"
        }
      ],
      "payable": false,
      "stateMutability": "view",
      "type": "function"
    },
    {
      "constant": true,
      "inputs": [],
      "name": "blockreward",
      "outputs": [
        {
          "name": "",
          "type": "uint256"
        }
      ],
      "payable": false,
      "stateMutability": "view",
      "type": "function"
    },
    {
      "constant": true,
      "inputs": [],
      "name": "PeriodsIssuedCounter",
      "outputs": [
        {
          "name": "",
          "type": "uint256"
        }
      ],
      "payable": false,
      "stateMutability": "view",
      "type": "function"
    },
    {
      "constant": true,
      "inputs": [],
      "name": "periodrewardtemp",
      "outputs": [
        {
          "name": "",
          "type": "uint256"
        }
      ],
      "payable": false,
      "stateMutability": "view",
      "type": "function"
    },
    {
      "constant": true,
      "inputs": [
        {
          "name": "",
          "type": "address"
        }
      ],
      "name": "stakesCounters",
      "outputs": [
        {
          "name": "",
          "type": "uint256"
        }
      ],
      "payable": false,
      "stateMutability": "view",
      "type": "function"
    },
    {
      "constant": true,
      "inputs": [],
      "name": "periodsCounter",
      "outputs": [
        {
          "name": "",
          "type": "uint256"
        }
      ],
      "payable": false,
      "stateMutability": "view",
      "type": "function"
    },
    {
      "constant": true,
      "inputs": [],
      "name": "_MINIMUM_TARGET",
      "outputs": [
        {
          "name": "",
          "type": "uint256"
        }
      ],
      "payable": false,
      "stateMutability": "view",
      "type": "function"
    },
    {
      "constant": true,
      "inputs": [
        {
          "name": "tokenOwner",
          "type": "address"
        },
        {
          "name": "spender",
          "type": "address"
        }
      ],
      "name": "allowance",
      "outputs": [
        {
          "name": "",
          "type": "uint256"
        }
      ],
      "payable": false,
      "stateMutability": "view",
      "type": "function"
    },
    {
      "constant": true,
      "inputs": [
        {
          "name": "",
          "type": "uint256"
        }
      ],
      "name": "periods",
      "outputs": [
        {
          "name": "id",
          "type": "uint256"
        },
        {
          "name": "interval",
          "type": "uint256"
        },
        {
          "name": "curation_sum",
          "type": "uint256"
        },
        {
          "name": "editor_sum",
          "type": "uint256"
        },
        {
          "name": "total_voters",
          "type": "uint256"
        }
      ],
      "payable": false,
      "stateMutability": "view",
      "type": "function"
    },
    {
      "constant": true,
      "inputs": [
        {
          "name": "",
          "type": "uint256"
        }
      ],
      "name": "PeriodsIssued",
      "outputs": [
        {
          "name": "",
          "type": "uint256"
        }
      ],
      "payable": false,
      "stateMutability": "view",
      "type": "function"
    },
    {
      "payable": true,
      "stateMutability": "payable",
      "type": "fallback"
    },
    {
      "anonymous": false,
      "inputs": [
        {
          "indexed": false,
          "name": "period_id",
          "type": "uint256"
        },
        {
          "indexed": false,
          "name": "interval",
          "type": "uint256"
        }
      ],
      "name": "CreatedPeriod",
      "type": "event"
    },
    {
      "anonymous": false,
      "inputs": [
        {
          "indexed": false,
          "name": "period_id",
          "type": "uint256"
        },
        {
          "indexed": false,
          "name": "periodreward",
          "type": "uint256"
        }
      ],
      "name": "IssuedPeriod",
      "type": "event"
    },
    {
      "anonymous": false,
      "inputs": [
        {
          "indexed": true,
          "name": "staker",
          "type": "address"
        },
        {
          "indexed": false,
          "name": "amount",
          "type": "uint256"
        }
      ],
      "name": "NewStake",
      "type": "event"
    },
    {
      "anonymous": false,
      "inputs": [
        {
          "indexed": true,
          "name": "staker",
          "type": "address"
        },
        {
          "indexed": false,
          "name": "stakeidx",
          "type": "uint256"
        }
      ],
      "name": "StakeClaimed",
      "type": "event"
    },
    {
      "anonymous": false,
      "inputs": [
        {
          "indexed": false,
          "name": "diseaseindex",
          "type": "uint256"
        },
        {
          "indexed": false,
          "name": "title",
          "type": "string"
        },
        {
          "indexed": false,
          "name": "description",
          "type": "string"
        }
      ],
      "name": "NewDisease",
      "type": "event"
    },
    {
      "anonymous": false,
      "inputs": [
        {
          "indexed": true,
          "name": "from",
          "type": "address"
        },
        {
          "indexed": true,
          "name": "to",
          "type": "address"
        },
        {
          "indexed": false,
          "name": "tokens",
          "type": "uint256"
        }
      ],
      "name": "Transfer",
      "type": "event"
    },
    {
      "anonymous": false,
      "inputs": [
        {
          "indexed": true,
          "name": "tokenOwner",
          "type": "address"
        },
        {
          "indexed": true,
          "name": "spender",
          "type": "address"
        },
        {
          "indexed": false,
          "name": "tokens",
          "type": "uint256"
        }
      ],
      "name": "Approval",
      "type": "event"
    },
    {
      "anonymous": false,
      "inputs": [
        {
          "indexed": true,
          "name": "from",
          "type": "address"
        },
        {
          "indexed": false,
          "name": "blockreward",
          "type": "uint256"
        },
        {
          "indexed": false,
          "name": "epochCount",
          "type": "uint256"
        },
        {
          "indexed": false,
          "name": "newChallengeNumber",
          "type": "bytes32"
        }
      ],
      "name": "Mint",
      "type": "event"
    },
    {
      "constant": false,
      "inputs": [],
      "name": "newPeriod",
      "outputs": [],
      "payable": false,
      "stateMutability": "nonpayable",
      "type": "function"
    },
    {
      "constant": false,
      "inputs": [
        {
          "name": "_staker",
          "type": "address"
        },
        {
          "name": "_amount",
          "type": "uint256"
        }
      ],
      "name": "eticatobosoms",
      "outputs": [
        {
          "name": "success",
          "type": "bool"
        }
      ],
      "payable": false,
      "stateMutability": "nonpayable",
      "type": "function"
    },
    {
      "constant": false,
      "inputs": [
        {
          "name": "_stakeidx",
          "type": "uint256"
        }
      ],
      "name": "stakeclmidx",
      "outputs": [],
      "payable": false,
      "stateMutability": "nonpayable",
      "type": "function"
    },
    {
      "constant": true,
      "inputs": [
        {
          "name": "_staker",
          "type": "address"
        }
      ],
      "name": "stakescount",
      "outputs": [
        {
          "name": "slength",
          "type": "uint256"
        }
      ],
      "payable": false,
      "stateMutability": "view",
      "type": "function"
    },
    {
      "constant": false,
      "inputs": [
        {
          "name": "_name",
          "type": "string"
        },
        {
          "name": "_description",
          "type": "string"
        }
      ],
      "name": "createdisease",
      "outputs": [],
      "payable": false,
      "stateMutability": "nonpayable",
      "type": "function"
    },
    {
      "constant": false,
      "inputs": [
        {
          "name": "_title",
          "type": "string"
        },
        {
          "name": "_description",
          "type": "string"
        },
        {
          "name": "_diseasehash",
          "type": "bytes32"
        },
        {
          "name": "_ipfshash",
          "type": "string"
        },
        {
          "name": "raw_release_hash",
          "type": "string"
        },
        {
          "name": "old_release_hash",
          "type": "string"
        },
        {
          "name": "grandparent_hash",
          "type": "string"
        }
      ],
      "name": "propose",
      "outputs": [],
      "payable": false,
      "stateMutability": "nonpayable",
      "type": "function"
    },
    {
      "constant": true,
      "inputs": [
        {
          "name": "tokenOwner",
          "type": "address"
        }
      ],
      "name": "bosomsOf",
      "outputs": [
        {
          "name": "_bosoms",
          "type": "uint256"
        }
      ],
      "payable": false,
      "stateMutability": "view",
      "type": "function"
    }
  ],
  "bytecode": "0x60806040526040805190810160405280600581526020017f457469636100000000000000000000000000000000000000000000000000000081525060009080519060200190620000519291906200068f565b506040805190810160405280600381526020017f4554490000000000000000000000000000000000000000000000000000000000815250600190805190602001906200009f9291906200068f565b506012600255610400600d5562010000600e557e04000000000000000000000000000000000000000000000000000000000000600f556000601560006101000a81548160ff02191690831515021790555062761783601855602a60195560a8601a556001601b55600254600a0a606402601c5568056bc75e2d631000006003819055506200018d68056bc75e2d63100000600860003073ffffffffffffffffffffffffffffffffffffffff1673ffffffffffffffffffffffffffffffffffffffff16815260200190815260200160002054620002f8640100000000026200308f179091906401000000009004565b600860003073ffffffffffffffffffffffffffffffffffffffff1673ffffffffffffffffffffffffffffffffffffffff168152602001908152602001600020819055506904772abe6c93ed94622e600581905550600254600a0a62a037a002600a81905550601560009054906101000a900460ff16156200020d57600080fd5b6001601560006101000a81548160ff021916908315150217905550600060178190555068012253ff998b28052d601281905550600f5460108190555043600b819055506200026962000315640100000000026401000000009004565b6d014a713d95c1c369e4c10bb9816860048190555033600660006101000a81548173ffffffffffffffffffffffffffffffffffffffff021916908373ffffffffffffffffffffffffffffffffffffffff160217905550606060405190810160405280602781526020016200421b6027913960079080519060200190620002f19291906200068f565b506200073e565b600081830190508281101515156200030f57600080fd5b92915050565b6200033b6001600c54620002f8640100000000026200308f179091906401000000009004565b600c819055506000600d54600c548115156200035357fe5b06141562000375576200037462000382640100000000026401000000009004565b5b6001430340601181905550565b6000600b54430390506000600d5490506000603c8202905080831015620004b4576000620003eb84620003ce606485620005fa64010000000002620039af179091906401000000009004565b6200062e640100000000026200306b179091906401000000009004565b90506000620004376103e86200041a6064856200065464010000000002620030f5179091906401000000009004565b6200067164010000000002620039e0179091906401000000009004565b9050620004a66200048682620004696107d06010546200062e640100000000026200306b179091906401000000009004565b620005fa64010000000002620039af179091906401000000009004565b6010546200065464010000000002620030f5179091906401000000009004565b6010819055505050620005c0565b6000620004fc82620004df606487620005fa64010000000002620039af179091906401000000009004565b6200062e640100000000026200306b179091906401000000009004565b90506000620005486103e86200052b6064856200065464010000000002620030f5179091906401000000009004565b6200067164010000000002620039e0179091906401000000009004565b9050620005b762000597826200057a6107d06010546200062e640100000000026200306b179091906401000000009004565b620005fa64010000000002620039af179091906401000000009004565b601054620002f8640100000000026200308f179091906401000000009004565b60108190555050505b43600b81905550600e546010541015620005de57600e546010819055505b600f546010541115620005f557600f546010819055505b505050565b6000818302905060008314806200061c57508183828115156200061957fe5b04145b15156200062857600080fd5b92915050565b600080821115156200063f57600080fd5b81838115156200064b57fe5b04905092915050565b60008282111515156200066657600080fd5b818303905092915050565b600081831115620006855781905062000689565b8290505b92915050565b828054600181600116156101000203166002900490600052602060002090601f016020900481019282601f10620006d257805160ff191683800117855562000703565b8280016001018555821562000703579182015b8281111562000702578251825591602001919060010190620006e5565b5b50905062000712919062000716565b5090565b6200073b91905b80821115620007375760008160009055506001016200071d565b5090565b90565b613acd806200074e6000396000f3fe608060405260043610610337576000357c0100000000000000000000000000000000000000000000000000000000900480636fbbbf1d116101c8578063b640776911610114578063d74ce8c5116100b2578063ea4a11041161008c578063ea4a1104146116ba578063ecd3cb8214611725578063f08a01f814611760578063f8d82683146117c557610337565b8063d74ce8c5146115df578063dc6e9cf91461160a578063dd62ed3e1461163557610337565b8063cf70fa40116100ee578063cf70fa40146114f9578063d03150c614611524578063d40170d71461154f578063d732b8351461157a57610337565b8063b640776914611430578063bf6fc7251461145b578063cb9ae707146114ce57610337565b8063888589851161018157806395d89b411161015b57806395d89b411461129f57806397566aa01461132f578063a9059cbb14611392578063b5ade81b1461140557610337565b806388858985146111fa5780638a769d35146112495780638ae0368b1461127457610337565b80636fbbbf1d1461104c5780636fd396d61461107757806370a08231146110ce57806381269a5614611133578063829965cc146111a457806387a2a9d6146111cf57610337565b8063313ce567116102875780634ef37628116102405780635dfa73961161021a5780635dfa739614610f155780635e11544b14610f7a5780636de7410c14610f915780636de9f32b1461102157610337565b80634ef3762814610e085780635708416414610e33578063584b62a114610e9857610337565b8063313ce56714610bde57806332e9970814610c09578063366c41a314610c34578063410e1b0714610c5f57806346459b2214610c8a5780634d853ee514610db157610337565b8063163aa00d116102f457806318160ddd116102ce57806318160ddd14610a905780631853f0a814610abb57806323b872dd14610ae657806327e235e314610b7957610337565b8063163aa00d146109dd57806317da485f14610a085780631801fbe514610a3357610337565b8063047fc9aa1461033c57806306fdde0314610367578063081e3c2a146103f7578063095ea7b3146107bc5780630bd92a731461082f5780631081a47e1461098e575b600080fd5b34801561034857600080fd5b50610351611814565b6040518082815260200191505060405180910390f35b34801561037357600080fd5b5061037c61181a565b6040518080602001828103825283818151815260200191508051906020019080838360005b838110156103bc5780820151818401526020810190506103a1565b50505050905090810190601f1680156103e95780820380516001836020036101000a031916815260200191505b509250505060405180910390f35b34801561040357600080fd5b506107ba600480360360e081101561041a57600080fd5b810190808035906020019064010000000081111561043757600080fd5b82018360208201111561044957600080fd5b8035906020019184600183028401116401000000008311171561046b57600080fd5b91908080601f016020809104026020016040519081016040528093929190818152602001838380828437600081840152601f19601f820116905080830192505050505050509192919290803590602001906401000000008111156104ce57600080fd5b8201836020820111156104e057600080fd5b8035906020019184600183028401116401000000008311171561050257600080fd5b91908080601f016020809104026020016040519081016040528093929190818152602001838380828437600081840152601f19601f820116905080830192505050505050509192919290803590602001909291908035906020019064010000000081111561056f57600080fd5b82018360208201111561058157600080fd5b803590602001918460018302840111640100000000831117156105a357600080fd5b91908080601f016020809104026020016040519081016040528093929190818152602001838380828437600081840152601f19601f8201169050808301925050505050505091929192908035906020019064010000000081111561060657600080fd5b82018360208201111561061857600080fd5b8035906020019184600183028401116401000000008311171561063a57600080fd5b91908080601f016020809104026020016040519081016040528093929190818152602001838380828437600081840152601f19601f8201169050808301925050505050505091929192908035906020019064010000000081111561069d57600080fd5b8201836020820111156106af57600080fd5b803590602001918460018302840111640100000000831117156106d157600080fd5b91908080601f016020809104026020016040519081016040528093929190818152602001838380828437600081840152601f19601f8201169050808301925050505050505091929192908035906020019064010000000081111561073457600080fd5b82018360208201111561074657600080fd5b8035906020019184600183028401116401000000008311171561076857600080fd5b91908080601f016020809104026020016040519081016040528093929190818152602001838380828437600081840152601f19601f8201169050808301925050505050505091929192905050506118b8565b005b3480156107c857600080fd5b50610815600480360360408110156107df57600080fd5b81019080803573ffffffffffffffffffffffffffffffffffffffff16906020019092919080359060200190929190505050611998565b604051808215151515815260200191505060405180910390f35b34801561083b57600080fd5b5061098c6004803603604081101561085257600080fd5b810190808035906020019064010000000081111561086f57600080fd5b82018360208201111561088157600080fd5b803590602001918460018302840111640100000000831117156108a357600080fd5b91908080601f016020809104026020016040519081016040528093929190818152602001838380828437600081840152601f19601f8201169050808301925050505050505091929192908035906020019064010000000081111561090657600080fd5b82018360208201111561091857600080fd5b8035906020019184600183028401116401000000008311171561093a57600080fd5b91908080601f016020809104026020016040519081016040528093929190818152602001838380828437600081840152601f19601f820116905080830192505050505050509192919290505050611ae7565b005b34801561099a57600080fd5b506109c7600480360360208110156109b157600080fd5b8101908080359060200190929190505050611e12565b6040518082815260200191505060405180910390f35b3480156109e957600080fd5b506109f2611e2a565b6040518082815260200191505060405180910390f35b348015610a1457600080fd5b50610a1d611e30565b6040518082815260200191505060405180910390f35b348015610a3f57600080fd5b50610a7660048036036040811015610a5657600080fd5b810190808035906020019092919080359060200190929190505050611e4e565b604051808215151515815260200191505060405180910390f35b348015610a9c57600080fd5b50610aa56120ce565b6040518082815260200191505060405180910390f35b348015610ac757600080fd5b50610ad06120d8565b6040518082815260200191505060405180910390f35b348015610af257600080fd5b50610b5f60048036036060811015610b0957600080fd5b81019080803573ffffffffffffffffffffffffffffffffffffffff169060200190929190803573ffffffffffffffffffffffffffffffffffffffff169060200190929190803590602001909291905050506120de565b604051808215151515815260200191505060405180910390f35b348015610b8557600080fd5b50610bc860048036036020811015610b9c57600080fd5b81019080803573ffffffffffffffffffffffffffffffffffffffff169060200190929190505050612389565b6040518082815260200191505060405180910390f35b348015610bea57600080fd5b50610bf36123a1565b6040518082815260200191505060405180910390f35b348015610c1557600080fd5b50610c1e6123a7565b6040518082815260200191505060405180910390f35b348015610c4057600080fd5b50610c496123b1565b6040518082815260200191505060405180910390f35b348015610c6b57600080fd5b50610c746123b7565b6040518082815260200191505060405180910390f35b348015610c9657600080fd5b50610cc360048036036020811015610cad57600080fd5b81019080803590602001909291905050506123bd565b604051808481526020018060200180602001838103835285818151815260200191508051906020019080838360005b83811015610d0d578082015181840152602081019050610cf2565b50505050905090810190601f168015610d3a5780820380516001836020036101000a031916815260200191505b50838103825284818151815260200191508051906020019080838360005b83811015610d73578082015181840152602081019050610d58565b50505050905090810190601f168015610da05780820380516001836020036101000a031916815260200191505b509550505050505060405180910390f35b348015610dbd57600080fd5b50610dc6612517565b604051808273ffffffffffffffffffffffffffffffffffffffff1673ffffffffffffffffffffffffffffffffffffffff16815260200191505060405180910390f35b348015610e1457600080fd5b50610e1d61253d565b6040518082815260200191505060405180910390f35b348015610e3f57600080fd5b50610e8260048036036020811015610e5657600080fd5b81019080803573ffffffffffffffffffffffffffffffffffffffff169060200190929190505050612547565b6040518082815260200191505060405180910390f35b348015610ea457600080fd5b50610ef160048036036040811015610ebb57600080fd5b81019080803573ffffffffffffffffffffffffffffffffffffffff1690602001909291908035906020019092919050505061255f565b60405180848152602001838152602001828152602001935050505060405180910390f35b348015610f2157600080fd5b50610f6460048036036020811015610f3857600080fd5b81019080803573ffffffffffffffffffffffffffffffffffffffff169060200190929190505050612596565b6040518082815260200191505060405180910390f35b348015610f8657600080fd5b50610f8f6125df565b005b348015610f9d57600080fd5b50610fa6612729565b6040518080602001828103825283818151815260200191508051906020019080838360005b83811015610fe6578082015181840152602081019050610fcb565b50505050905090810190601f1680156110135780820380516001836020036101000a031916815260200191505b509250505060405180910390f35b34801561102d57600080fd5b506110366127c7565b6040518082815260200191505060405180910390f35b34801561105857600080fd5b506110616127cd565b6040518082815260200191505060405180910390f35b34801561108357600080fd5b5061108c6127d3565b604051808273ffffffffffffffffffffffffffffffffffffffff1673ffffffffffffffffffffffffffffffffffffffff16815260200191505060405180910390f35b3480156110da57600080fd5b5061111d600480360360208110156110f157600080fd5b81019080803573ffffffffffffffffffffffffffffffffffffffff1690602001909291905050506127f9565b6040518082815260200191505060405180910390f35b34801561113f57600080fd5b5061118a6004803603608081101561115657600080fd5b8101908080359060200190929190803590602001909291908035906020019092919080359060200190929190505050612842565b604051808215151515815260200191505060405180910390f35b3480156111b057600080fd5b506111b96128d8565b6040518082815260200191505060405180910390f35b3480156111db57600080fd5b506111e46128de565b6040518082815260200191505060405180910390f35b34801561120657600080fd5b506112336004803603602081101561121d57600080fd5b81019080803590602001909291905050506128e4565b6040518082815260200191505060405180910390f35b34801561125557600080fd5b5061125e6128fc565b6040518082815260200191505060405180910390f35b34801561128057600080fd5b50611289612902565b6040518082815260200191505060405180910390f35b3480156112ab57600080fd5b506112b4612908565b6040518080602001828103825283818151815260200191508051906020019080838360005b838110156112f45780820151818401526020810190506112d9565b50505050905090810190601f1680156113215780820380516001836020036101000a031916815260200191505b509250505060405180910390f35b34801561133b57600080fd5b5061137c6004803603606081101561135257600080fd5b810190808035906020019092919080359060200190929190803590602001909291905050506129a6565b6040518082815260200191505060405180910390f35b34801561139e57600080fd5b506113eb600480360360408110156113b557600080fd5b81019080803573ffffffffffffffffffffffffffffffffffffffff16906020019092919080359060200190929190505050612a28565b604051808215151515815260200191505060405180910390f35b34801561141157600080fd5b5061141a612bd1565b6040518082815260200191505060405180910390f35b34801561143c57600080fd5b50611445612bd7565b6040518082815260200191505060405180910390f35b34801561146757600080fd5b506114b46004803603604081101561147e57600080fd5b81019080803573ffffffffffffffffffffffffffffffffffffffff16906020019092919080359060200190929190505050612bdd565b604051808215151515815260200191505060405180910390f35b3480156114da57600080fd5b506114e3612c47565b6040518082815260200191505060405180910390f35b34801561150557600080fd5b5061150e612c4d565b6040518082815260200191505060405180910390f35b34801561153057600080fd5b50611539612c53565b6040518082815260200191505060405180910390f35b34801561155b57600080fd5b50611564612c59565b6040518082815260200191505060405180910390f35b34801561158657600080fd5b506115c96004803603602081101561159d57600080fd5b81019080803573ffffffffffffffffffffffffffffffffffffffff169060200190929190505050612c5f565b6040518082815260200191505060405180910390f35b3480156115eb57600080fd5b506115f4612c77565b6040518082815260200191505060405180910390f35b34801561161657600080fd5b5061161f612c7d565b6040518082815260200191505060405180910390f35b34801561164157600080fd5b506116a46004803603604081101561165857600080fd5b81019080803573ffffffffffffffffffffffffffffffffffffffff169060200190929190803573ffffffffffffffffffffffffffffffffffffffff169060200190929190505050612c83565b6040518082815260200191505060405180910390f35b3480156116c657600080fd5b506116f3600480360360208110156116dd57600080fd5b8101908080359060200190929190505050612d0a565b604051808681526020018581526020018481526020018381526020018281526020019550505050505060405180910390f35b34801561173157600080fd5b5061175e6004803603602081101561174857600080fd5b8101908080359060200190929190505050612d40565b005b34801561176c57600080fd5b506117af6004803603602081101561178357600080fd5b81019080803573ffffffffffffffffffffffffffffffffffffffff16906020019092919050505061300a565b6040518082815260200191505060405180910390f35b3480156117d157600080fd5b506117fe600480360360208110156117e857600080fd5b8101908080359060200190929190505050613053565b6040518082815260200191505060405180910390f35b60035481565b60008054600181600116156101000203166002900480601f0160208091040260200160405190810160405280929190818152602001828054600181600116156101000203166002900480156118b05780601f10611885576101008083540402835291602001916118b0565b820191906000526020600020905b81548152906001019060200180831161189357829003601f168201915b505050505081565b600060256000878152602001908152602001600020541180156118f05750602454602560008781526020019081526020016000205411155b15156118fb57600080fd5b8460236000602560008981526020019081526020016000205481526020019081526020016000206000015414151561193257600080fd5b601c54600860003373ffffffffffffffffffffffffffffffffffffffff1673ffffffffffffffffffffffffffffffffffffffff168152602001908152602001600020541015151561198257600080fd5b61198e30601c54612a28565b5050505050505050565b600081600860003373ffffffffffffffffffffffffffffffffffffffff1673ffffffffffffffffffffffffffffffffffffffff16815260200190815260200160002054101515156119e857600080fd5b6000821115156119f757600080fd5b81600960003373ffffffffffffffffffffffffffffffffffffffff1673ffffffffffffffffffffffffffffffffffffffff16815260200190815260200160002060008573ffffffffffffffffffffffffffffffffffffffff1673ffffffffffffffffffffffffffffffffffffffff168152602001908152602001600020819055508273ffffffffffffffffffffffffffffffffffffffff163373ffffffffffffffffffffffffffffffffffffffff167f8c5be1e5ebec7d5bd14f71427d1e84f3dd0314c0f7b2291e5b200ac8c7c3b925846040518082815260200191505060405180910390a36001905092915050565b601c54600860003373ffffffffffffffffffffffffffffffffffffffff1673ffffffffffffffffffffffffffffffffffffffff1681526020019081526020016000205410151515611b3757600080fd5b611b4330601c54612a28565b5060006002836040516020018082805190602001908083835b602083101515611b815780518252602082019150602081019050602083039250611b5c565b6001836020036101000a0380198251168184511680821785525050505050509050019150506040516020818303038152906040526040518082805190602001908083835b602083101515611bea5780518252602082019150602081019050602083039250611bc5565b6001836020036101000a038019825116818451168082178552505050505050905001915050602060405180830381855afa158015611c2c573d6000803e3d6000fd5b5050506040513d6020811015611c4157600080fd5b8101908080519060200190929190505050905060016024540160248190555060006025600083815260200190815260200160002054141515611c8257600080fd5b60606040519081016040528082815260200184815260200183815250602360006024548152602001908152602001600020600082015181600001556020820151816001019080519060200190611cd99291906139fc565b506040820151816002019080519060200190611cf69291906139fc565b509050507f93c49c8e82ac37419e0bd454c617e7bc2735fb664182ddb06a31ae693c854e1f6024548484604051808481526020018060200180602001838103835285818151815260200191508051906020019080838360005b83811015611d6a578082015181840152602081019050611d4f565b50505050905090810190601f168015611d975780820380516001836020036101000a031916815260200191505b50838103825284818151815260200191508051906020019080838360005b83811015611dd0578082015181840152602081019050611db5565b50505050905090810190601f168015611dfd5780820380516001836020036101000a031916815260200191505b509550505050505060405180910390a1505050565b60256020528060005260406000206000915090505481565b60145481565b6000611e49601054600f5461306b90919063ffffffff16565b905090565b6000806011543385604051602001808481526020018373ffffffffffffffffffffffffffffffffffffffff1673ffffffffffffffffffffffffffffffffffffffff166c0100000000000000000000000002815260140182815260200193505050506040516020818303038152906040528051906020012090508281141515611ed557600080fd5b60105481600190041115611ee857600080fd5b60006016600060115481526020019081526020016000205490508160166000601154815260200190815260200160002081905550600060010281141515611f2e57600080fd5b600a54601754101515611f3d57fe5b611f5460125460175461308f90919063ffffffff16565b601781905550611f7160125460035461308f90919063ffffffff16565b600381905550611fcb601254600860003373ffffffffffffffffffffffffffffffffffffffff1673ffffffffffffffffffffffffffffffffffffffff1681526020019081526020016000205461308f90919063ffffffff16565b600860003373ffffffffffffffffffffffffffffffffffffffff1673ffffffffffffffffffffffffffffffffffffffff1681526020019081526020016000208190555033601360006101000a81548173ffffffffffffffffffffffffffffffffffffffff021916908373ffffffffffffffffffffffffffffffffffffffff1602179055504360148190555061205e6130ab565b3373ffffffffffffffffffffffffffffffffffffffff167fcf6fbb9dcea7d07263ab4f5c3a92f53af33dffc421d9d121e1c74b307e68189d601254600c5460115460405180848152602001838152602001828152602001935050505060405180910390a260019250505092915050565b6000600354905090565b60225481565b600061213282600860008773ffffffffffffffffffffffffffffffffffffffff1673ffffffffffffffffffffffffffffffffffffffff168152602001908152602001600020546130f590919063ffffffff16565b600860008673ffffffffffffffffffffffffffffffffffffffff1673ffffffffffffffffffffffffffffffffffffffff1681526020019081526020016000208190555061220482600960008773ffffffffffffffffffffffffffffffffffffffff1673ffffffffffffffffffffffffffffffffffffffff16815260200190815260200160002060003373ffffffffffffffffffffffffffffffffffffffff1673ffffffffffffffffffffffffffffffffffffffff168152602001908152602001600020546130f590919063ffffffff16565b600960008673ffffffffffffffffffffffffffffffffffffffff1673ffffffffffffffffffffffffffffffffffffffff16815260200190815260200160002060003373ffffffffffffffffffffffffffffffffffffffff1673ffffffffffffffffffffffffffffffffffffffff168152602001908152602001600020819055506122d682600860008673ffffffffffffffffffffffffffffffffffffffff1673ffffffffffffffffffffffffffffffffffffffff1681526020019081526020016000205461308f90919063ffffffff16565b600860008573ffffffffffffffffffffffffffffffffffffffff1673ffffffffffffffffffffffffffffffffffffffff168152602001908152602001600020819055508273ffffffffffffffffffffffffffffffffffffffff168473ffffffffffffffffffffffffffffffffffffffff167fddf252ad1be2c89b69c2b068fc378daa952ba7f163c4a11628f55a4df523b3ef846040518082815260200191505060405180910390a3600190509392505050565b60086020528060005260406000206000915090505481565b60025481565b6000601054905090565b601c5481565b600a5481565b6023602052806000526040600020600091509050806000015490806001018054600181600116156101000203166002900480601f01602080910402602001604051908101604052809291908181526020018280546001816001161561010002031660029004801561246f5780601f106124445761010080835404028352916020019161246f565b820191906000526020600020905b81548152906001019060200180831161245257829003601f168201915b505050505090806002018054600181600116156101000203166002900480601f01602080910402602001604051908101604052809291908181526020018280546001816001161561010002031660029004801561250d5780601f106124e25761010080835404028352916020019161250d565b820191906000526020600020905b8154815290600101906020018083116124f057829003601f168201915b5050505050905083565b600660009054906101000a900473ffffffffffffffffffffffffffffffffffffffff1681565b6000601154905090565b60276020528060005260406000206000915090505481565b6028602052816000526040600020602052806000526040600020600091509150508060000154908060010154908060020154905083565b6000602960008373ffffffffffffffffffffffffffffffffffffffff1673ffffffffffffffffffffffffffffffffffffffff168152602001908152602001600020549050919050565b60006125fa601954601854430161306b90919063ffffffff16565b905060006021600083815260200190815260200160002054905060008114151561262357600080fd5b601e6000815480929190600101919050555060a060405190810160405280601e54815260200183815260200160008152602001600081526020016000815250601d6000601e5481526020019081526020016000206000820151816000015560208201518160010155604082015181600201556060820151816003015560808201518160040155905050601e5460216000848152602001908152602001600020819055506022600081548092919060010191905055506126e3601e54613111565b507ff74223d764da704d974281758065d2eb6c9066dc940e3f549b72e894b0404aef601e5483604051808381526020018281526020019250505060405180910390a15050565b60078054600181600116156101000203166002900480601f0160208091040260200160405190810160405280929190818152602001828054600181600116156101000203166002900480156127bf5780601f10612794576101008083540402835291602001916127bf565b820191906000526020600020905b8154815290600101906020018083116127a257829003601f168201915b505050505081565b60175481565b60245481565b601360009054906101000a900473ffffffffffffffffffffffffffffffffffffffff1681565b6000600860008373ffffffffffffffffffffffffffffffffffffffff1673ffffffffffffffffffffffffffffffffffffffff168152602001908152602001600020549050919050565b600080833387604051602001808481526020018373ffffffffffffffffffffffffffffffffffffffff1673ffffffffffffffffffffffffffffffffffffffff166c01000000000000000000000000028152601401828152602001935050505060405160208183030381529060405280519060200120905082816001900411156128ca57600080fd5b848114915050949350505050565b600c5481565b600f5481565b60216020528060005260406000206000915090505481565b60105481565b60115481565b60018054600181600116156101000203166002900480601f01602080910402602001604051908101604052809291908181526020018280546001816001161561010002031660029004801561299e5780601f106129735761010080835404028352916020019161299e565b820191906000526020600020905b81548152906001019060200180831161298157829003601f168201915b505050505081565b600080823386604051602001808481526020018373ffffffffffffffffffffffffffffffffffffffff1673ffffffffffffffffffffffffffffffffffffffff166c010000000000000000000000000281526014018281526020019350505050604051602081830303815290604052805190602001209050809150509392505050565b60008082111515612a3857600080fd5b612a8a82600860003373ffffffffffffffffffffffffffffffffffffffff1673ffffffffffffffffffffffffffffffffffffffff168152602001908152602001600020546130f590919063ffffffff16565b600860003373ffffffffffffffffffffffffffffffffffffffff1673ffffffffffffffffffffffffffffffffffffffff16815260200190815260200160002081905550612b1f82600860008673ffffffffffffffffffffffffffffffffffffffff1673ffffffffffffffffffffffffffffffffffffffff1681526020019081526020016000205461308f90919063ffffffff16565b600860008573ffffffffffffffffffffffffffffffffffffffff1673ffffffffffffffffffffffffffffffffffffffff168152602001908152602001600020819055508273ffffffffffffffffffffffffffffffffffffffff163373ffffffffffffffffffffffffffffffffffffffff167fddf252ad1be2c89b69c2b068fc378daa952ba7f163c4a11628f55a4df523b3ef846040518082815260200191505060405180910390a36001905092915050565b600d5481565b60045481565b60008273ffffffffffffffffffffffffffffffffffffffff163373ffffffffffffffffffffffffffffffffffffffff16141515612c1957600080fd5b600082111515612c2857600080fd5b612c323083612a28565b50612c3d83836132f6565b6001905092915050565b600b5481565b60125481565b60205481565b60055481565b60296020528060005260406000206000915090505481565b601e5481565b600e5481565b6000600960008473ffffffffffffffffffffffffffffffffffffffff1673ffffffffffffffffffffffffffffffffffffffff16815260200190815260200160002060008373ffffffffffffffffffffffffffffffffffffffff1673ffffffffffffffffffffffffffffffffffffffff16815260200190815260200160002054905092915050565b601d6020528060005260406000206000915090508060000154908060010154908060020154908060030154908060040154905085565b600081118015612d8f5750602960003373ffffffffffffffffffffffffffffffffffffffff1673ffffffffffffffffffffffffffffffffffffffff168152602001908152602001600020548111155b1515612d9a57600080fd5b6000602860003373ffffffffffffffffffffffffffffffffffffffff1673ffffffffffffffffffffffffffffffffffffffff16815260200190815260200160002060008381526020019081526020016000209050806002015443111515612e0057600080fd5b60008160000154111515612e1357600080fd5b612e698160000154600860003073ffffffffffffffffffffffffffffffffffffffff1673ffffffffffffffffffffffffffffffffffffffff168152602001908152602001600020546130f590919063ffffffff16565b600860003073ffffffffffffffffffffffffffffffffffffffff1673ffffffffffffffffffffffffffffffffffffffff16815260200190815260200160002081905550612f028160000154600860003373ffffffffffffffffffffffffffffffffffffffff1673ffffffffffffffffffffffffffffffffffffffff1681526020019081526020016000205461308f90919063ffffffff16565b600860003373ffffffffffffffffffffffffffffffffffffffff1673ffffffffffffffffffffffffffffffffffffffff168152602001908152602001600020819055503373ffffffffffffffffffffffffffffffffffffffff163073ffffffffffffffffffffffffffffffffffffffff167fddf252ad1be2c89b69c2b068fc378daa952ba7f163c4a11628f55a4df523b3ef83600001546040518082815260200191505060405180910390a33373ffffffffffffffffffffffffffffffffffffffff167f2aeea59856f5616c244717fd488ead1d1b5fd33608d9583a4607b4c4ba3631e4836040518082815260200191505060405180910390a261300633836133a4565b5050565b6000602760008373ffffffffffffffffffffffffffffffffffffffff1673ffffffffffffffffffffffffffffffffffffffff168152602001908152602001600020549050919050565b601f6020528060005260406000206000915090505481565b6000808211151561307b57600080fd5b818381151561308657fe5b04905092915050565b600081830190508281101515156130a557600080fd5b92915050565b6130c16001600c5461308f90919063ffffffff16565b600c819055506000600d54600c548115156130d857fe5b0614156130e8576130e7613657565b5b6001430340601181905550565b600082821115151561310657600080fd5b818303905092915050565b600080601e5411151561312357600080fd5b6000821180156131355750601e548211155b151561314057600080fd5b6000601d60008481526020019081526020016000209050600081600001541415151561316b57600080fd5b6000601f60008360000154815260200190815260200160002054905060008114151561319657600080fd5b6000600254600a0a6301406f40026003541015156131db5760006d314dc6448d9338c15b0a000000006004548115156131cb57fe5b04905080600354029150506131e1565b60055490505b806003540160038190555061323e81600860003073ffffffffffffffffffffffffffffffffffffffff1673ffffffffffffffffffffffffffffffffffffffff1681526020019081526020016000205461308f90919063ffffffff16565b600860003073ffffffffffffffffffffffffffffffffffffffff1673ffffffffffffffffffffffffffffffffffffffff1681526020019081526020016000208190555080601f600085600001548152602001908152602001600020819055506001602054016020819055507fc4d2a0744d2542d38943e09effa7977cb89527fce223d12bf02ff6de50526b92601e5482604051808381526020018281526020019250505060405180910390a160019350505050919050565b61330082826137eb565b506000601b548202905061335c81602760008673ffffffffffffffffffffffffffffffffffffffff1673ffffffffffffffffffffffffffffffffffffffff1681526020019081526020016000205461308f90919063ffffffff16565b602760008573ffffffffffffffffffffffffffffffffffffffff1673ffffffffffffffffffffffffffffffffffffffff16815260200190815260200160002081905550505050565b6000811180156133f35750602960008373ffffffffffffffffffffffffffffffffffffffff1673ffffffffffffffffffffffffffffffffffffffff168152602001908152602001600020548111155b15156133fe57600080fd5b602860008373ffffffffffffffffffffffffffffffffffffffff1673ffffffffffffffffffffffffffffffffffffffff1681526020019081526020016000206000602960008573ffffffffffffffffffffffffffffffffffffffff1673ffffffffffffffffffffffffffffffffffffffff168152602001908152602001600020548152602001908152602001600020602860008473ffffffffffffffffffffffffffffffffffffffff1673ffffffffffffffffffffffffffffffffffffffff168152602001908152602001600020600083815260200190815260200160002060008201548160000155600182015481600101556002820154816002015590505060606040519081016040528060008152602001600081526020016000815250602860008473ffffffffffffffffffffffffffffffffffffffff1673ffffffffffffffffffffffffffffffffffffffff1681526020019081526020016000206000602960008673ffffffffffffffffffffffffffffffffffffffff1673ffffffffffffffffffffffffffffffffffffffff1681526020019081526020016000205481526020019081526020016000206000820151816000015560208201518160010155604082015181600201559050506001602960008473ffffffffffffffffffffffffffffffffffffffff1673ffffffffffffffffffffffffffffffffffffffff1681526020019081526020016000205403602960008473ffffffffffffffffffffffffffffffffffffffff1673ffffffffffffffffffffffffffffffffffffffff168152602001908152602001600020819055505050565b6000600b54430390506000600d5490506000603c820290508083101561371757600061369f846136916064856139af90919063ffffffff16565b61306b90919063ffffffff16565b905060006136cb6103e86136bd6064856130f590919063ffffffff16565b6139e090919063ffffffff16565b905061370a6136f9826136eb6107d060105461306b90919063ffffffff16565b6139af90919063ffffffff16565b6010546130f590919063ffffffff16565b60108190555050506137b3565b600061373f826137316064876139af90919063ffffffff16565b61306b90919063ffffffff16565b9050600061376b6103e861375d6064856130f590919063ffffffff16565b6139e090919063ffffffff16565b90506137aa6137998261378b6107d060105461306b90919063ffffffff16565b6139af90919063ffffffff16565b60105461308f90919063ffffffff16565b60108190555050505b43600b81905550600e5460105410156137d057600e546010819055505b600f5460105411156137e657600f546010819055505b505050565b600080821115156137fb57600080fd5b6001602960008573ffffffffffffffffffffffffffffffffffffffff1673ffffffffffffffffffffffffffffffffffffffff1681526020019081526020016000205401602960008573ffffffffffffffffffffffffffffffffffffffff1673ffffffffffffffffffffffffffffffffffffffff168152602001908152602001600020819055506000601a544301905060606040519081016040528084815260200143815260200182815250602860008673ffffffffffffffffffffffffffffffffffffffff1673ffffffffffffffffffffffffffffffffffffffff1681526020019081526020016000206000602960008873ffffffffffffffffffffffffffffffffffffffff1673ffffffffffffffffffffffffffffffffffffffff1681526020019081526020016000205481526020019081526020016000206000820151816000015560208201518160010155604082015181600201559050508373ffffffffffffffffffffffffffffffffffffffff167f42e99fbad9601d25ee3bb515eeee966f97c3c383adadbe5720f651df8c18989d846040518082815260200191505060405180910390a2600191505092915050565b6000818302905060008314806139cf57508183828115156139cc57fe5b04145b15156139da57600080fd5b92915050565b6000818311156139f2578190506139f6565b8290505b92915050565b828054600181600116156101000203166002900490600052602060002090601f016020900481019282601f10613a3d57805160ff1916838001178555613a6b565b82800160010185558215613a6b579182015b82811115613a6a578251825591602001919060010190613a4f565b5b509050613a789190613a7c565b5090565b613a9e91905b80821115613a9a576000816000905550600101613a82565b5090565b9056fea165627a7a723058201bb111cb18c1ba75c0ba60dec97c0d369023729f7ba6f9175a7d9961a9ce72740029446973636f766572696e67206f7572206265737420467574757265732e204b6576696e20576164",
  "source": "pragma solidity ^0.5.2;\r\n// ----------------------------------------------------------------------------\r\n//this ICO smart contract has been compiled and tested with the Solidity Version 0.5.2\r\n//There are some minor changes comparing to ICO contract compiled with versions < 0.5.0\r\n// ----------------------------------------------------------------------------\r\n\r\n\r\n// ----------------------------------------------------------------------------\r\n\r\n// Safe maths\r\n\r\n// ----------------------------------------------------------------------------\r\n\r\nlibrary SafeMath {\r\n\r\n    function add(uint a, uint b) internal pure returns (uint c) {\r\n\r\n        c = a + b;\r\n\r\n        require(c >= a);\r\n\r\n    }\r\n\r\n    function sub(uint a, uint b) internal pure returns (uint c) {\r\n\r\n        require(b <= a);\r\n\r\n        c = a - b;\r\n\r\n    }\r\n\r\n    function mul(uint a, uint b) internal pure returns (uint c) {\r\n\r\n        c = a * b;\r\n\r\n        require(a == 0 || c / a == b);\r\n\r\n    }\r\n\r\n    function div(uint a, uint b) internal pure returns (uint c) {\r\n\r\n        require(b > 0);\r\n\r\n        c = a / b;\r\n\r\n    }\r\n\r\n}\r\n\r\n\r\n\r\nlibrary ExtendedMath {\r\n\r\n\r\n    //return the smaller of the two inputs (a or b)\r\n    function limitLessThan(uint a, uint b) internal pure returns (uint c) {\r\n\r\n        if(a > b) return b;\r\n\r\n        return a;\r\n\r\n    }\r\n}\r\n\r\n\r\n\r\ncontract ERC20Interface {\r\n    function totalSupply() public view returns (uint);\r\n    function balanceOf(address tokenOwner) public view returns (uint balance);\r\n    function transfer(address to, uint tokens) public returns (bool success);\r\n\r\n\r\n    function allowance(address tokenOwner, address spender) public view returns (uint remaining);\r\n    function approve(address spender, uint tokens) public returns (bool success);\r\n    function transferFrom(address from, address to, uint tokens) public returns (bool success);\r\n\r\n    event Transfer(address indexed from, address indexed to, uint tokens);\r\n    event Approval(address indexed tokenOwner, address indexed spender, uint tokens);\r\n}\r\n\r\n\r\n\r\ncontract EticaToken is ERC20Interface{\r\n\r\n    using SafeMath for uint;\r\n    using ExtendedMath for uint;\r\n\r\n    string public name = \"Etica\";\r\n    string public symbol = \"ETI\";\r\n    uint public decimals = 18;\r\n\r\n    uint public supply;\r\n    // fixed inflation rate after etica supply has reached 21 Million\r\n    uint public inflationrate;\r\n    uint public  periodrewardtemp; // Amount of ETI issued per period during phase1\r\n\r\n    // We don't want fake Satoshi again. Using it to prove founder's identity\r\n    address public founder;\r\n    string public foundermsgproof;\r\n\r\n    mapping(address => uint) public balances;\r\n\r\n    mapping(address => mapping(address => uint)) allowed;\r\n\r\n    //allowed[0x1111....][0x22222...] = 100;\r\n\r\n    // Mining system state variables\r\n    uint public _totalMiningSupply;\r\n\r\n\r\n\r\n     uint public latestDifficultyPeriodStarted;\r\n\r\n\r\n\r\n    uint public epochCount;//number of 'blocks' mined\r\n\r\n\r\n    uint public _BLOCKS_PER_READJUSTMENT = 1024;\r\n\r\n\r\n    //a little number\r\n    uint public  _MINIMUM_TARGET = 2**16;\r\n\r\n\r\n      //a big number is easier ; just find a solution that is smaller\r\n    //uint public  _MAXIMUM_TARGET = 2**224;  bitcoin uses 224\r\n    uint public  _MAXIMUM_TARGET = 2**242; // used for tests 243 much faster, 242 seems to be the limit where mining gets much harder\r\n    // uint public  _MAXIMUM_TARGET = 2**234; // used for prod\r\n\r\n\r\n    uint public miningTarget;\r\n\r\n    bytes32 public challengeNumber;   //generate a new one when a new reward is minted\r\n\r\n\r\n    uint public blockreward;\r\n\r\n\r\n    address public lastRewardTo;\r\n    uint public lastRewardEthBlockNumber;\r\n\r\n    bool locked = false;\r\n\r\n    mapping(bytes32 => bytes32) solutionForChallenge;\r\n\r\n    uint public tokensMinted;\r\n\r\n    // Mining system state variables\r\n\r\n\r\n\r\n\r\n    event Transfer(address indexed from, address indexed to, uint tokens);\r\n    event Approval(address indexed tokenOwner, address indexed spender, uint tokens);\r\n    event Mint(address indexed from, uint blockreward, uint epochCount, bytes32 newChallengeNumber);\r\n\r\n\r\n    constructor() public{\r\n      supply = 100 * (10**18); // initial supply equals 100 ETI\r\n      balances[address(this)] = balances[address(this)].add(100 * (10**18)); // 100 ETI as the default contract balance. To avoid any issue that could arise from negative contract balance because of significant numbers approximations\r\n\r\n\r\n      // PHASE 1 (before 21 Million ETI has been reached) -->\r\n      // 10 500 000 ETI to be issued as periodrewardtemp for ETICA reward system\r\n      // 10 500 000 ETI to be MINED\r\n\r\n\r\n      // <--phase1--> periodrewardtemp:\r\n      // fixed Etica issued per period (7 days) during phase1 (before 21 Million ETI has been reached)\r\n      // The amount of reward will be twice of first rewards of phase 2\r\n      // Calculation of first rewards of phase 2:\r\n      // 21 000 000 * 0.26180339887498948482045868343656 = 549787,13763747791812296323521678 ETI (first year reward)\r\n      // 549787,13763747791812296323521678 / 52.1429 = 10543,854247413893706007207792754 ETI (first weeks reward of phase2)\r\n      // 10543,854247413893706007207792754 * 2 = 21087,708494827787412014415585507 ETI\r\n      periodrewardtemp = 21087708494827787412014; // 21087,708494827787412014415585507 ETI per period (7 days) will take about 9,5491502812526287948853291408588 years to reach 10 500 000 ETI\r\n\r\n\r\n      // <--phase1--> mining:\r\n      _totalMiningSupply = 10500000 * 10**uint(decimals);\r\n\r\n      if(locked) revert();\r\n      locked = true;\r\n\r\n      tokensMinted = 0;\r\n\r\n\r\n      // The amount of etica mined per 7 days will be twice of first rewards of phase 2\r\n      // Calculation of first rewards of phase 2:\r\n      // 21 000 000 * 0.26180339887498948482045868343656 = 549787,13763747791812296323521678 ETI (first year reward)\r\n      // 549787,13763747791812296323521678 / 52.1429 = 10543,854247413893706007207792754 ETI (first weeks reward of phase2)\r\n      // 10543,854247413893706007207792754 * 2 = 21087,708494827787412014415585507 ETI per 7 days\r\n      // 21087,708494827787412014415585507 ETI per 7 days = 20,920345728995820845252396414193 ETI per block (10 minutes)\r\n      blockreward = 20920345728995820845;\r\n\r\n      miningTarget = _MAXIMUM_TARGET;\r\n\r\n      latestDifficultyPeriodStarted = block.number;\r\n\r\n      _startNewMiningEpoch();\r\n\r\n      // PHASE 1 <--\r\n\r\n      // --> PHASE 2\r\n      // Golden number power 2: 1,6180339887498948482045868343656 * 1,6180339887498948482045868343656 = 2.6180339887498948482045868343656;\r\n      inflationrate = 26180339887498948482045868343656; // (need to multiple by 10^(-33) to get 0.026180339887498948482045868343656);\r\n\r\n       // PHASE 2 <--\r\n\r\n\r\n       //The founder gets nothing! You must mine or earn the Etica ERC20 token\r\n       //balances[founder] = _totalMiningSupply;\r\n       //Transfer(address(0), founder, _totalMiningSupply);\r\n      founder = msg.sender;\r\n      foundermsgproof = \"Discovering our best Futures. Kevin Wad\";\r\n    }\r\n\r\n\r\n    function allowance(address tokenOwner, address spender) view public returns(uint){\r\n        return allowed[tokenOwner][spender];\r\n    }\r\n\r\n\r\n    //approve allowance\r\n    function approve(address spender, uint tokens) public returns(bool){\r\n        require(balances[msg.sender] >= tokens);\r\n        require(tokens > 0);\r\n\r\n        allowed[msg.sender][spender] = tokens;\r\n        emit Approval(msg.sender, spender, tokens);\r\n        return true;\r\n    }\r\n\r\n    //transfer tokens from the  owner account to the account that calls the function\r\n    function transferFrom(address from, address to, uint tokens) public returns(bool){\r\n\r\n      balances[from] = balances[from].sub(tokens);\r\n\r\n      allowed[from][msg.sender] = allowed[from][msg.sender].sub(tokens);\r\n\r\n      balances[to] = balances[to].add(tokens);\r\n\r\n      emit Transfer(from, to, tokens);\r\n\r\n      return true;\r\n    }\r\n\r\n    function totalSupply() public view returns (uint){\r\n        return supply;\r\n    }\r\n\r\n    function balanceOf(address tokenOwner) public view returns (uint balance){\r\n         return balances[tokenOwner];\r\n     }\r\n\r\n\r\n    function transfer(address to, uint tokens) public returns (bool success){\r\n         require(tokens > 0);\r\n\r\n         balances[msg.sender] = balances[msg.sender].sub(tokens);\r\n\r\n         balances[to] = balances[to].add(tokens);\r\n\r\n         emit Transfer(msg.sender, to, tokens);\r\n\r\n         return true;\r\n     }\r\n\r\n\r\n     // -------------  Mining system functions ---------------- //\r\n\r\n         function mint(uint256 nonce, bytes32 challenge_digest) public returns (bool success) {\r\n\r\n\r\n             //the PoW must contain work that includes a recent ethereum block hash (challenge number) and the msg.sender's address to prevent MITM attacks\r\n             bytes32 digest =  keccak256(abi.encodePacked(challengeNumber, msg.sender, nonce));\r\n\r\n             //the challenge digest must match the expected\r\n             if (digest != challenge_digest) revert();\r\n\r\n             //the digest must be smaller than the target\r\n             if(uint256(digest) > miningTarget) revert();\r\n\r\n\r\n             //only allow one reward for each challenge\r\n              bytes32 solution = solutionForChallenge[challengeNumber];\r\n              solutionForChallenge[challengeNumber] = digest;\r\n              if(solution != 0x0) revert();  //prevent the same answer from awarding twice\r\n\r\n\r\n             //Cannot mint more tokens than there are: maximum ETI ever mined: _totalMiningSupply + blockreward\r\n             assert(tokensMinted < _totalMiningSupply);\r\n\r\n             tokensMinted = tokensMinted.add(blockreward);\r\n             supply = supply.add(blockreward);\r\n             balances[msg.sender] = balances[msg.sender].add(blockreward);\r\n\r\n             //set readonly diagnostics data\r\n             lastRewardTo = msg.sender;\r\n             lastRewardEthBlockNumber = block.number;\r\n\r\n\r\n              _startNewMiningEpoch();\r\n\r\n               emit Mint(msg.sender, blockreward, epochCount, challengeNumber );\r\n\r\n            return true;\r\n\r\n         }\r\n\r\n\r\n     //a new 'block' to be mined\r\n     function _startNewMiningEpoch() internal {\r\n\r\n\r\n       epochCount = epochCount.add(1);\r\n\r\n       //every so often, readjust difficulty. Dont readjust when deploying\r\n       if(epochCount % _BLOCKS_PER_READJUSTMENT == 0)\r\n       {\r\n         _reAdjustDifficulty();\r\n       }\r\n\r\n\r\n       //make the latest ethereum block hash a part of the next challenge for PoW to prevent pre-mining future blocks\r\n       //do this last since this is a protection mechanism in the mint() function\r\n       challengeNumber = blockhash(block.number - 1);\r\n\r\n     }\r\n\r\n\r\n\r\n\r\n     //https://en.bitcoin.it/wiki/Difficulty#What_is_the_formula_for_difficulty.3F\r\n     //as of 2017 the bitcoin difficulty was up to 17 zeroes, it was only 8 in the early days\r\n\r\n     //readjust the target by 5 percent\r\n     function _reAdjustDifficulty() internal {\r\n\r\n\r\n         uint ethBlocksSinceLastDifficultyPeriod = block.number - latestDifficultyPeriodStarted;\r\n         //assume 360 ethereum blocks per hour\r\n\r\n         //we want miners to spend 10 minutes to mine each 'block', about 60 ethereum blocks = one Mining system epoch\r\n         uint epochsMined = _BLOCKS_PER_READJUSTMENT; //256\r\n\r\n         uint targetEthBlocksPerDiffPeriod = epochsMined * 60; //should be 60 times slower than ethereum\r\n\r\n         //if there were less eth blocks passed in time than expected\r\n         if( ethBlocksSinceLastDifficultyPeriod < targetEthBlocksPerDiffPeriod )\r\n         {\r\n           uint excess_block_pct = (targetEthBlocksPerDiffPeriod.mul(100)).div( ethBlocksSinceLastDifficultyPeriod );\r\n\r\n           uint excess_block_pct_extra = excess_block_pct.sub(100).limitLessThan(1000);\r\n           // If there were 5% more blocks mined than expected then this is 5.  If there were 100% more blocks mined than expected then this is 100.\r\n\r\n           //make it harder\r\n           miningTarget = miningTarget.sub(miningTarget.div(2000).mul(excess_block_pct_extra));   //by up to 50 %\r\n         }else{\r\n           uint shortage_block_pct = (ethBlocksSinceLastDifficultyPeriod.mul(100)).div( targetEthBlocksPerDiffPeriod );\r\n\r\n           uint shortage_block_pct_extra = shortage_block_pct.sub(100).limitLessThan(1000); //always between 0 and 1000\r\n\r\n           //make it easier\r\n           miningTarget = miningTarget.add(miningTarget.div(2000).mul(shortage_block_pct_extra));   //by up to 50 %\r\n         }\r\n\r\n\r\n\r\n         latestDifficultyPeriodStarted = block.number;\r\n\r\n         if(miningTarget < _MINIMUM_TARGET) //very difficult\r\n         {\r\n           miningTarget = _MINIMUM_TARGET;\r\n         }\r\n\r\n         if(miningTarget > _MAXIMUM_TARGET) //very easy\r\n         {\r\n           miningTarget = _MAXIMUM_TARGET;\r\n         }\r\n     }\r\n\r\n\r\n     //this is a recent ethereum block hash, used to prevent pre-mining future blocks\r\n     function getChallengeNumber() public view returns (bytes32) {\r\n         return challengeNumber;\r\n     }\r\n\r\n     //the number of zeroes the digest of the PoW solution requires.  Auto adjusts\r\n      function getMiningDifficulty() public view returns (uint) {\r\n         return _MAXIMUM_TARGET.div(miningTarget);\r\n     }\r\n\r\n     function getMiningTarget() public view returns (uint) {\r\n        return miningTarget;\r\n    }\r\n\r\n\r\n     //help debug mining software\r\n     function getMintDigest(uint256 nonce, bytes32 challenge_digest, bytes32 challenge_number) public view returns (bytes32 digesttest) {\r\n\r\n         bytes32 digest = keccak256(abi.encodePacked(challenge_number,msg.sender,nonce));\r\n\r\n         return digest;\r\n\r\n       }\r\n\r\n         //help debug mining software\r\n       function checkMintSolution(uint256 nonce, bytes32 challenge_digest, bytes32 challenge_number, uint testTarget) public view returns (bool success) {\r\n\r\n           bytes32 digest = keccak256(abi.encodePacked(challenge_number,msg.sender,nonce));\r\n\r\n           if(uint256(digest) > testTarget) revert();\r\n\r\n           return (digest == challenge_digest);\r\n\r\n         }\r\n\r\n\r\n// ------------------      Mining system functions   -------------------------  //\r\n\r\n// ------------------------------------------------------------------------\r\n\r\n// Don't accept ETH\r\n\r\n// ------------------------------------------------------------------------\r\n\r\nfunction () payable external {\r\n\r\n    revert();\r\n\r\n}\r\n\r\n}\r\n\r\n\r\n\r\n\r\ncontract EticaRelease is EticaToken {\r\n  /* --------- PROD -------------\r\nuint TESTING_STARTING_BLOCK_NUMBER = 7739267; // used only for testing as ganache starts at block number 0\r\nuint REWARD_INTERVAL = 42000; // periods duration (in number of blocks) 42000 blocks = 7 jours (6000 blocks per day)\r\nuint STAKING_DURATION = 168000; // default stake duration (in number of blocks) 168000 blocks = 28 jours (6000 blocks per day)\r\nuint ETICA_TO_BOSOM_RATIO = 1; //\r\n     --------- PROD ------------- */\r\n\r\n\r\nuint TESTING_STARTING_BLOCK_NUMBER = 7739267; // used only for testing as ganache starts at block number 0\r\nuint REWARD_INTERVAL = 42; // periods duration (in number of blocks) 42000 blocks = 7 jours (6000 blocks per day)\r\nuint STAKING_DURATION = 168; // default stake duration (in number of blocks) 168000 blocks = 28 jours (6000 blocks per day)\r\nuint ETICA_TO_BOSOM_RATIO = 1; //\r\n\r\nuint public DISEASE_CREATION_AMOUNT = 100 * 10**uint(decimals); // 100 ETI amount to pay for creating a new disease. Necessary in order to avoid spam. Will create a function that periodically increase it in order to take into account inflation\r\n\r\n\r\nstruct Period{\r\n    uint id;\r\n    uint interval;\r\n    uint curation_sum;\r\n    uint editor_sum;\r\n    uint total_voters; // TOTAL nb of voters in this period\r\n}\r\n\r\n  struct Stake{\r\n      uint amount;\r\n      uint startBlock;\r\n      uint endBlock;\r\n  }\r\n\r\n\r\n// Stuct used only inside Proposals as Proposals' s Targets.\r\n// The software has no independent Target structs with Target ids and details ...\r\n  struct Target{\r\n      string name;\r\n      string kind; // Example: GPCR, Enzyme, Protein Activity ...\r\n      uint status; // Example: Exploration, Validation, Fully Validated, Null ...\r\n      string freefield; // used by front end apps and communities to fit their needs and process\r\n  }\r\n\r\n  // Stuct used only inside Proposals as Proposals' s Compounds.\r\n  // The software has no independent Compounds structs with Compounds ids and details ...\r\n    struct Compound{\r\n        string name;\r\n        string kind; // Example: Small Organic Molecules, Large Protein Molecules ...\r\n        uint result; // Example: Failure, Success, Undertermined, Null ...\r\n        string freefield; // used by front end apps and communities to fit their needs and process\r\n    }\r\n\r\n  struct Proposal{\r\n      uint id;\r\n      uint disease_id;\r\n      uint period_id;\r\n      string proposed_release_hash; // Hash of \"raw_release_hash + name of Disease\"\r\n\r\n      // IPFS hashes of the files:\r\n      string raw_release_hash; // IPFS hash of the files of the proposal\r\n      string old_release_hash; // raw IPFS hash of the old version\r\n      string grandparent_hash; // raw IPFS hash of the grandparent\r\n      address proposer; // account address of the proposer\r\n      string title; // Title of the Proposal\r\n      string description; // Description of the Proposal\r\n      uint starttime; // epoch time of the proposal\r\n      uint endtime;  // voting limite\r\n      uint finalized_time; // when first voteclm() was called\r\n      uint status; // will be initialized with value ProposalStatus.Pending\r\n      bool istie;  // will be initialized with value 0. if prop is tie it won't slash nor reward participants\r\n\r\n      uint prestatus; // will be initialzed with value ProposalStatus.Pending\r\n      uint nbvoters;\r\n      uint slashingratio; // will be initialized with value 0. solidity does not support float type. So will emulate float type by using uint\r\n      uint forvotes;\r\n      uint againstvotes;\r\n      uint lastcuration_weight; // will be initialized with value 0.\r\n      uint lasteditor_weight; // will be initialized with value 0.\r\n\r\n      Target[] targets;\r\n      Compound[] compounds;\r\n      string freefield; // used by front end apps and communities to fit their needs and process\r\n  }\r\n\r\n  struct Disease{\r\n      bytes32 disease_hash;\r\n      string name;\r\n      string description;\r\n  }\r\n\r\n\r\nenum ProposalStatus { Rejected, Accepted, Pending, Singlevoter }\r\n\r\nmapping(uint => Period) public periods;\r\nuint public periodsCounter;\r\nmapping(uint => uint) public PeriodsIssued; // keeps track of which periods have already issued ETI\r\nuint public PeriodsIssuedCounter;\r\nmapping(uint => uint) public IntervalsPeriods; // keeps track of which intervals have already a period\r\nuint public IntervalsPeriodsCounter;\r\n\r\n\r\nmapping(uint => Disease) public diseases; // keeps track of which intervals have already a period\r\nuint public diseasesCounter;\r\nmapping(bytes32 => uint) public diseasesbyIds; // example:    [leiojej757575ero] => [0]  where leiojej757575ero is id of a Disease\r\nmapping(string => bytes32) private diseasesbyNames; // example:    [\"name of a disease\"] => [leiojej757575ero]  where leiojej757575ero is id of a Disease. Set visibility to private because mapping with strings as keys have issues when public visibility\r\n\r\n\r\nmapping(address => uint) public bosoms;\r\nmapping(address => mapping(uint => Stake)) public stakes;\r\nmapping(address => uint) public stakesCounters; // keeps track of how many stakes for each user\r\n// stakes ----> slashing function will need to loop trough stakes. Can create issues for claiming votes:\r\n// will create a function to gather stakes when user has to much stakes.\r\n// The function will take a completion_time as parameter and will loop trough 50 indexes and will put all stakes with\r\n// lower completion_time into a  single new stake with parameter completion_time\r\n\r\nevent CreatedPeriod(uint period_id, uint interval);\r\nevent IssuedPeriod(uint period_id, uint periodreward);\r\nevent NewStake(address indexed staker, uint amount);\r\nevent StakeClaimed(address indexed staker, uint stakeidx);\r\nevent NewDisease(uint diseaseindex, string title, string description);\r\n\r\n\r\n\r\n// -------------  Reward system functions ---------------- //\r\n\r\nfunction issue(uint _id) internal returns (bool success) {\r\n  // we check whether there is at least one period\r\n  require(periodsCounter > 0);\r\n\r\n  // we check that the period exists\r\n  require(_id > 0 && _id <= periodsCounter);\r\n\r\n  // we retrieve the period\r\n  Period storage period = periods[_id];\r\n\r\n  // we check that the period is legit and has been retrieved\r\n  require(period.id != 0);\r\n\r\n\r\n//only allow one issuance for each period\r\nuint rwd = PeriodsIssued[period.id];\r\nif(rwd != 0x0) revert();  //prevent the same period from issuing twice\r\n\r\nuint _periodsupply;\r\n\r\n// era 2 (after 21 000 000 ETI has been reached)\r\nif(supply >= 21000000 * 10**(decimals)){\r\n uint _rate = uint(inflationrate / 10**(33));\r\n _periodsupply = supply * _rate;\r\n}\r\n// era 1 (before 21 000 000 ETI has been reached)\r\nelse {\r\n  _periodsupply = periodrewardtemp;\r\n}\r\n\r\nsupply = supply + _periodsupply;\r\nbalances[address(this)] = balances[address(this)].add(_periodsupply);\r\nPeriodsIssued[period.id] = _periodsupply;\r\nPeriodsIssuedCounter = PeriodsIssuedCounter + 1;\r\n\r\nemit IssuedPeriod(periodsCounter, _periodsupply);\r\n\r\nreturn true;\r\n\r\n}\r\n\r\n// --- WARNING this function should be internal, will be called by propose proposal function\r\n// let public for testing only\r\n// create a period\r\nfunction newPeriod() public {\r\n\r\n  uint _interval = uint((block.number + TESTING_STARTING_BLOCK_NUMBER).div(REWARD_INTERVAL));\r\n\r\n  //only allow one period for each interval\r\n  uint rwd = IntervalsPeriods[_interval];\r\n  if(rwd != 0x0) revert();  //prevent the same interval from having 2 periods\r\n\r\n\r\n  periodsCounter++;\r\n\r\n  // store this interval period\r\n  periods[periodsCounter] = Period(\r\n    periodsCounter,\r\n    _interval,\r\n    0x0, //_curation_sum\r\n    0x0, //_editor_sum\r\n    0x0 //_total_voters; // TOTAL nb of voters in this period\r\n  );\r\n\r\n  // an interval cannot have 2 Periods\r\n  IntervalsPeriods[_interval] = periodsCounter;\r\n  IntervalsPeriodsCounter++;\r\n\r\n  // issue ETI for this Period Reward\r\n  issue(periodsCounter);\r\n\r\n  emit CreatedPeriod(periodsCounter, _interval);\r\n}\r\n\r\n\r\n\r\n\r\n// -------------  Reward system functions ---------------- //\r\n\r\n\r\n// ------- STAKING ---------- //\r\n// Stake etica in exchange for bosom\r\nfunction eticatobosoms(address _staker, uint _amount) public returns (bool success){\r\n  require(msg.sender == _staker);\r\n  require(_amount > 0); // even if transfer require amount > 0 I prefer checking for more security and very few more gas\r\n  // transfer _amount ETI from staker wallet to contract balance:\r\n  transfer(address(this), _amount);\r\n\r\n  // Get bosoms and add Stake\r\n  bosomget(_staker, _amount);\r\n\r\n\r\n  return true;\r\n\r\n}\r\n\r\n\r\n\r\n// ----  Get bosoms and add Stake ------  //\r\n\r\n// Only contract must be able to call this function:\r\nfunction bosomget (address _staker, uint _amount) internal {\r\n\r\naddStake(_staker, _amount);\r\n\r\nuint newBosoms = _amount * ETICA_TO_BOSOM_RATIO;\r\nbosoms[_staker] = bosoms[_staker].add(newBosoms);\r\n\r\n}\r\n\r\n\r\nfunction addStake(address _staker, uint _amount) internal returns (bool success) {\r\n\r\n    require(_amount > 0); // may not be necessary as _amount is uint but I let it for better security\r\n    stakesCounters[_staker] = stakesCounters[_staker] + 1; // notice that first stake will have the index of 1 thus not 0 !\r\n\r\n    uint endBlock = block.number + STAKING_DURATION;\r\n\r\n    // store this stake in _staker's stakes with the index stakesCounters[_staker]\r\n    stakes[_staker][stakesCounters[_staker]] = Stake(\r\n      _amount, // stake amount\r\n      block.number, // StartBlock\r\n      endBlock // EndBlock\r\n    );\r\n\r\n    emit NewStake(_staker, _amount);\r\n\r\n    return true;\r\n}\r\n\r\n// ----  Get bosoms and add Stake ------  //\r\n\r\n\r\n// ----  Redeem a Stake ------  //\r\n\r\nfunction stakeclmidx (uint _stakeidx) public {\r\n\r\n  // we check that the stake exists\r\n  require(_stakeidx > 0 && _stakeidx <= stakesCounters[msg.sender]);\r\n\r\n  // we retrieve the stake\r\n  Stake storage _stake = stakes[msg.sender][_stakeidx];\r\n\r\n  // The stake must be over\r\n  require(block.number > _stake.endBlock);\r\n\r\n  require(_stake.amount > 0);\r\n\r\n  // transfer back ETI from contract to staker:\r\n  balances[address(this)] = balances[address(this)].sub(_stake.amount);\r\n\r\n  balances[msg.sender] = balances[msg.sender].add(_stake.amount);\r\n\r\n  emit Transfer(address(this), msg.sender, _stake.amount);\r\n  emit StakeClaimed(msg.sender, _stakeidx);\r\n\r\n  // deletes the stake\r\n  _deletestake(msg.sender, _stakeidx);\r\n\r\n}\r\n\r\nfunction _deletestake(address _staker,uint _index) internal {\r\n  // we check that the stake exists\r\n  require(_index > 0 && _index <= stakesCounters[_staker]);\r\n\r\n  // replace value of stake to be deleted by value of last stake\r\n  stakes[_staker][_index] = stakes[_staker][stakesCounters[_staker]];\r\n\r\n  // remove last stake\r\n  stakes[_staker][stakesCounters[_staker]] = Stake(\r\n    0x0, // amount\r\n    0x0, // StartBlock\r\n    0x0 // EndBlock\r\n    );\r\n\r\n  // updates stakesCounter of _staker\r\n  stakesCounters[_staker] = stakesCounters[_staker] - 1;\r\n}\r\n\r\n// ----  Redeem a Stake ------  //\r\n\r\n\r\nfunction stakescount(address _staker) public view returns (uint slength){\r\n  return stakesCounters[_staker];\r\n}\r\n\r\n// ------- STAKING ---------- //\r\n\r\n\r\n\r\n\r\n\r\nfunction createdisease(string memory _name, string memory _description) public {\r\n\r\n\r\n  // --- REQUIRE PAYMENT FOR ADDING A DISEASE TO CREATE A BARRIER TO ENTRY AND AVOID SPAM --- //\r\n\r\n  // make sure the user has enough ETI to create a disease\r\n  require(balances[msg.sender] >= DISEASE_CREATION_AMOUNT);\r\n  // transfer DISEASE_CREATION_AMOUNT ETI from user wallet to contract wallet:\r\n  transfer(address(this), DISEASE_CREATION_AMOUNT);\r\n\r\n  // --- REQUIRE PAYMENT FOR ADDING A DISEASE TO CREATE A BARRIER TO ENTRY AND AVOID SPAM --- //\r\n\r\n\r\n  bytes32 _diseasehash = sha256(abi.encodePacked(_name));\r\n\r\n  diseasesCounter = diseasesCounter + 1; // notice that first disease will have the index of 1 thus not 0 !\r\n\r\n  //check: if the disease is new we continue, otherwise we exit\r\n   if(diseasesbyIds[_diseasehash] != 0x0) revert();  //prevent the same disease from being created twice. The software manages diseases uniqueness based on their unique english name. Note that even the first disease will nott have index of 0 thus should pass this check\r\n\r\n\r\n   // store this stake in _staker's stakes with the index stakesCounters[_staker]\r\n   diseases[diseasesCounter] = Disease(\r\n     _diseasehash,\r\n     _name,\r\n     _description\r\n   );\r\n\r\n   emit NewDisease(diseasesCounter, _name, _description);\r\n\r\n}\r\n\r\n\r\n\r\nfunction propose(string memory _title, string memory _description, bytes32 _diseasehash, string memory _ipfshash, string memory raw_release_hash, string memory old_release_hash, string memory grandparent_hash) public {\r\n\r\n  //check if the disease exits\r\n   require(diseasesbyIds[_diseasehash] > 0 && diseasesbyIds[_diseasehash] <= diseasesCounter);\r\n   if(diseases[diseasesbyIds[_diseasehash]].disease_hash != _diseasehash) revert(); // second check not necessary but I decided to add it as the gas cost value for security is worth it\r\n\r\n\r\n  // --- REQUIRE PAYMENT FOR ADDING A DISEASE TO CREATE A BARRIER TO ENTRY AND AVOID SPAM --- //\r\n\r\n  // make sure the user has enough ETI to create a disease\r\n  require(balances[msg.sender] >= DISEASE_CREATION_AMOUNT);\r\n  // transfer DISEASE_CREATION_AMOUNT ETI from user wallet to contract wallet:\r\n  transfer(address(this), DISEASE_CREATION_AMOUNT);\r\n\r\n  // --- REQUIRE PAYMENT FOR ADDING A DISEASE TO CREATE A BARRIER TO ENTRY AND AVOID SPAM --- //\r\n\r\n\r\n   // emit NewProposal(_diseasehash, _title, _description);\r\n\r\n}\r\n\r\n\r\n\r\n// get boms balance of user:\r\nfunction bosomsOf(address tokenOwner) public view returns (uint _bosoms){\r\n     return bosoms[tokenOwner];\r\n }\r\n\r\n\r\n}\r\n",
  "sourcePath": "/mnt/d/linux/ethereum/etica/contracts/EticaRelease.sol",
  "compiler": {
    "name": "solc",
    "version": "0.5.2+commit.1df8f40c.Emscripten.clang"
  },
  "schemaVersion": "3.0.9",
  "updatedAt": "2019-06-04T16:25:40.489Z",
  "devdoc": {
    "methods": {}
  },
  "userdoc": {
    "methods": {}
  }
}