{
  "contractName": "EticaRelease",
  "abi": [
    {
      "constant": true,
      "inputs": [],
      "name": "PROPOSAL_CREATION_AMOUNT",
      "outputs": [
        {
          "name": "",
          "type": "uint256"
        }
      ],
      "payable": false,
      "stateMutability": "view",
      "type": "function"
    },
    {
      "constant": true,
      "inputs": [],
      "name": "supply",
      "outputs": [
        {
          "name": "",
          "type": "uint256"
        }
      ],
      "payable": false,
      "stateMutability": "view",
      "type": "function"
    },
    {
      "constant": true,
      "inputs": [],
      "name": "name",
      "outputs": [
        {
          "name": "",
          "type": "string"
        }
      ],
      "payable": false,
      "stateMutability": "view",
      "type": "function"
    },
    {
      "constant": false,
      "inputs": [
        {
          "name": "spender",
          "type": "address"
        },
        {
          "name": "tokens",
          "type": "uint256"
        }
      ],
      "name": "approve",
      "outputs": [
        {
          "name": "",
          "type": "bool"
        }
      ],
      "payable": false,
      "stateMutability": "nonpayable",
      "type": "function"
    },
    {
      "constant": true,
      "inputs": [
        {
          "name": "",
          "type": "bytes32"
        }
      ],
      "name": "diseasesbyIds",
      "outputs": [
        {
          "name": "",
          "type": "uint256"
        }
      ],
      "payable": false,
      "stateMutability": "view",
      "type": "function"
    },
    {
      "constant": true,
      "inputs": [],
      "name": "lastRewardEthBlockNumber",
      "outputs": [
        {
          "name": "",
          "type": "uint256"
        }
      ],
      "payable": false,
      "stateMutability": "view",
      "type": "function"
    },
    {
      "constant": true,
      "inputs": [],
      "name": "getMiningDifficulty",
      "outputs": [
        {
          "name": "",
          "type": "uint256"
        }
      ],
      "payable": false,
      "stateMutability": "view",
      "type": "function"
    },
    {
      "constant": false,
      "inputs": [
        {
          "name": "nonce",
          "type": "uint256"
        },
        {
          "name": "challenge_digest",
          "type": "bytes32"
        }
      ],
      "name": "mint",
      "outputs": [
        {
          "name": "success",
          "type": "bool"
        }
      ],
      "payable": false,
      "stateMutability": "nonpayable",
      "type": "function"
    },
    {
      "constant": true,
      "inputs": [],
      "name": "totalSupply",
      "outputs": [
        {
          "name": "",
          "type": "uint256"
        }
      ],
      "payable": false,
      "stateMutability": "view",
      "type": "function"
    },
    {
      "constant": true,
      "inputs": [],
      "name": "IntervalsPeriodsCounter",
      "outputs": [
        {
          "name": "",
          "type": "uint256"
        }
      ],
      "payable": false,
      "stateMutability": "view",
      "type": "function"
    },
    {
      "constant": false,
      "inputs": [
        {
          "name": "from",
          "type": "address"
        },
        {
          "name": "to",
          "type": "address"
        },
        {
          "name": "tokens",
          "type": "uint256"
        }
      ],
      "name": "transferFrom",
      "outputs": [
        {
          "name": "",
          "type": "bool"
        }
      ],
      "payable": false,
      "stateMutability": "nonpayable",
      "type": "function"
    },
    {
      "constant": true,
      "inputs": [
        {
          "name": "",
          "type": "address"
        }
      ],
      "name": "balances",
      "outputs": [
        {
          "name": "",
          "type": "uint256"
        }
      ],
      "payable": false,
      "stateMutability": "view",
      "type": "function"
    },
    {
      "constant": true,
      "inputs": [],
      "name": "decimals",
      "outputs": [
        {
          "name": "",
          "type": "uint256"
        }
      ],
      "payable": false,
      "stateMutability": "view",
      "type": "function"
    },
    {
      "constant": true,
      "inputs": [],
      "name": "getMiningTarget",
      "outputs": [
        {
          "name": "",
          "type": "uint256"
        }
      ],
      "payable": false,
      "stateMutability": "view",
      "type": "function"
    },
    {
      "constant": true,
      "inputs": [
        {
          "name": "",
          "type": "bytes32"
        }
      ],
      "name": "proposals",
      "outputs": [
        {
          "name": "id",
          "type": "uint256"
        },
        {
          "name": "proposed_release_hash",
          "type": "bytes32"
        },
        {
          "name": "disease_id",
          "type": "bytes32"
        },
        {
          "name": "period_id",
          "type": "uint256"
        },
        {
          "name": "proposer",
          "type": "address"
        },
        {
          "name": "title",
          "type": "string"
        },
        {
          "name": "description",
          "type": "string"
        }
      ],
      "payable": false,
      "stateMutability": "view",
      "type": "function"
    },
    {
      "constant": true,
      "inputs": [],
      "name": "DISEASE_CREATION_AMOUNT",
      "outputs": [
        {
          "name": "",
          "type": "uint256"
        }
      ],
      "payable": false,
      "stateMutability": "view",
      "type": "function"
    },
    {
      "constant": true,
      "inputs": [],
      "name": "_totalMiningSupply",
      "outputs": [
        {
          "name": "",
          "type": "uint256"
        }
      ],
      "payable": false,
      "stateMutability": "view",
      "type": "function"
    },
    {
      "constant": true,
      "inputs": [
        {
          "name": "",
          "type": "uint256"
        }
      ],
      "name": "diseases",
      "outputs": [
        {
          "name": "disease_hash",
          "type": "bytes32"
        },
        {
          "name": "name",
          "type": "string"
        },
        {
          "name": "description",
          "type": "string"
        }
      ],
      "payable": false,
      "stateMutability": "view",
      "type": "function"
    },
    {
      "constant": true,
      "inputs": [
        {
          "name": "",
          "type": "bytes32"
        }
      ],
      "name": "propsdatas",
      "outputs": [
        {
          "name": "starttime",
          "type": "uint256"
        },
        {
          "name": "endtime",
          "type": "uint256"
        },
        {
          "name": "finalized_time",
          "type": "uint256"
        },
        {
          "name": "status",
          "type": "uint8"
        },
        {
          "name": "prestatus",
          "type": "uint8"
        },
        {
          "name": "istie",
          "type": "bool"
        },
        {
          "name": "nbvoters",
          "type": "uint256"
        },
        {
          "name": "slashingratio",
          "type": "uint256"
        },
        {
          "name": "forvotes",
          "type": "uint256"
        },
        {
          "name": "againstvotes",
          "type": "uint256"
        },
        {
          "name": "lastcuration_weight",
          "type": "uint256"
        },
        {
          "name": "lasteditor_weight",
          "type": "uint256"
        }
      ],
      "payable": false,
      "stateMutability": "view",
      "type": "function"
    },
    {
      "constant": true,
      "inputs": [],
      "name": "founder",
      "outputs": [
        {
          "name": "",
          "type": "address"
        }
      ],
      "payable": false,
      "stateMutability": "view",
      "type": "function"
    },
    {
      "constant": true,
      "inputs": [],
      "name": "getChallengeNumber",
      "outputs": [
        {
          "name": "",
          "type": "bytes32"
        }
      ],
      "payable": false,
      "stateMutability": "view",
      "type": "function"
    },
    {
      "constant": true,
      "inputs": [
        {
          "name": "",
          "type": "address"
        }
      ],
      "name": "bosoms",
      "outputs": [
        {
          "name": "",
          "type": "uint256"
        }
      ],
      "payable": false,
      "stateMutability": "view",
      "type": "function"
    },
    {
      "constant": true,
      "inputs": [
        {
          "name": "",
          "type": "address"
        },
        {
          "name": "",
          "type": "uint256"
        }
      ],
      "name": "stakes",
      "outputs": [
        {
          "name": "amount",
          "type": "uint256"
        },
        {
          "name": "startBlock",
          "type": "uint256"
        },
        {
          "name": "endBlock",
          "type": "uint256"
        }
      ],
      "payable": false,
      "stateMutability": "view",
      "type": "function"
    },
    {
      "constant": true,
      "inputs": [
        {
          "name": "",
          "type": "bytes32"
        }
      ],
      "name": "propsfreefields",
      "outputs": [
        {
          "name": "firstfield",
          "type": "string"
        },
        {
          "name": "secondfield",
          "type": "string"
        },
        {
          "name": "thirdfield",
          "type": "string"
        }
      ],
      "payable": false,
      "stateMutability": "view",
      "type": "function"
    },
    {
      "constant": true,
      "inputs": [],
      "name": "foundermsgproof",
      "outputs": [
        {
          "name": "",
          "type": "string"
        }
      ],
      "payable": false,
      "stateMutability": "view",
      "type": "function"
    },
    {
      "constant": true,
      "inputs": [],
      "name": "tokensMinted",
      "outputs": [
        {
          "name": "",
          "type": "uint256"
        }
      ],
      "payable": false,
      "stateMutability": "view",
      "type": "function"
    },
    {
      "constant": true,
      "inputs": [],
      "name": "diseasesCounter",
      "outputs": [
        {
          "name": "",
          "type": "uint256"
        }
      ],
      "payable": false,
      "stateMutability": "view",
      "type": "function"
    },
    {
      "constant": true,
      "inputs": [],
      "name": "lastRewardTo",
      "outputs": [
        {
          "name": "",
          "type": "address"
        }
      ],
      "payable": false,
      "stateMutability": "view",
      "type": "function"
    },
    {
      "constant": true,
      "inputs": [
        {
          "name": "tokenOwner",
          "type": "address"
        }
      ],
      "name": "balanceOf",
      "outputs": [
        {
          "name": "balance",
          "type": "uint256"
        }
      ],
      "payable": false,
      "stateMutability": "view",
      "type": "function"
    },
    {
      "constant": true,
      "inputs": [
        {
          "name": "nonce",
          "type": "uint256"
        },
        {
          "name": "challenge_digest",
          "type": "bytes32"
        },
        {
          "name": "challenge_number",
          "type": "bytes32"
        },
        {
          "name": "testTarget",
          "type": "uint256"
        }
      ],
      "name": "checkMintSolution",
      "outputs": [
        {
          "name": "success",
          "type": "bool"
        }
      ],
      "payable": false,
      "stateMutability": "view",
      "type": "function"
    },
    {
      "constant": true,
      "inputs": [],
      "name": "epochCount",
      "outputs": [
        {
          "name": "",
          "type": "uint256"
        }
      ],
      "payable": false,
      "stateMutability": "view",
      "type": "function"
    },
    {
      "constant": true,
      "inputs": [],
      "name": "_MAXIMUM_TARGET",
      "outputs": [
        {
          "name": "",
          "type": "uint256"
        }
      ],
      "payable": false,
      "stateMutability": "view",
      "type": "function"
    },
    {
      "constant": true,
      "inputs": [
        {
          "name": "",
          "type": "uint256"
        }
      ],
      "name": "IntervalsPeriods",
      "outputs": [
        {
          "name": "",
          "type": "uint256"
        }
      ],
      "payable": false,
      "stateMutability": "view",
      "type": "function"
    },
    {
      "constant": true,
      "inputs": [],
      "name": "miningTarget",
      "outputs": [
        {
          "name": "",
          "type": "uint256"
        }
      ],
      "payable": false,
      "stateMutability": "view",
      "type": "function"
    },
    {
      "constant": true,
      "inputs": [],
      "name": "challengeNumber",
      "outputs": [
        {
          "name": "",
          "type": "bytes32"
        }
      ],
      "payable": false,
      "stateMutability": "view",
      "type": "function"
    },
    {
      "constant": true,
      "inputs": [
        {
          "name": "",
          "type": "bytes32"
        },
        {
          "name": "",
          "type": "address"
        }
      ],
      "name": "votes",
      "outputs": [
        {
          "name": "id",
          "type": "uint256"
        },
        {
          "name": "proposal_hash",
          "type": "bytes32"
        },
        {
          "name": "approve",
          "type": "bool"
        },
        {
          "name": "is_editor",
          "type": "bool"
        },
        {
          "name": "amount",
          "type": "uint256"
        },
        {
          "name": "voter",
          "type": "address"
        },
        {
          "name": "timestamp",
          "type": "uint256"
        }
      ],
      "payable": false,
      "stateMutability": "view",
      "type": "function"
    },
    {
      "constant": true,
      "inputs": [],
      "name": "symbol",
      "outputs": [
        {
          "name": "",
          "type": "string"
        }
      ],
      "payable": false,
      "stateMutability": "view",
      "type": "function"
    },
    {
      "constant": true,
      "inputs": [
        {
          "name": "nonce",
          "type": "uint256"
        },
        {
          "name": "challenge_digest",
          "type": "bytes32"
        },
        {
          "name": "challenge_number",
          "type": "bytes32"
        }
      ],
      "name": "getMintDigest",
      "outputs": [
        {
          "name": "digesttest",
          "type": "bytes32"
        }
      ],
      "payable": false,
      "stateMutability": "view",
      "type": "function"
    },
    {
      "constant": true,
      "inputs": [],
      "name": "proposalsCounter",
      "outputs": [
        {
          "name": "",
          "type": "uint256"
        }
      ],
      "payable": false,
      "stateMutability": "view",
      "type": "function"
    },
    {
      "constant": false,
      "inputs": [
        {
          "name": "to",
          "type": "address"
        },
        {
          "name": "tokens",
          "type": "uint256"
        }
      ],
      "name": "transfer",
      "outputs": [
        {
          "name": "success",
          "type": "bool"
        }
      ],
      "payable": false,
      "stateMutability": "nonpayable",
      "type": "function"
    },
    {
      "constant": true,
      "inputs": [],
      "name": "_BLOCKS_PER_READJUSTMENT",
      "outputs": [
        {
          "name": "",
          "type": "uint256"
        }
      ],
      "payable": false,
      "stateMutability": "view",
      "type": "function"
    },
    {
      "constant": true,
      "inputs": [],
      "name": "inflationrate",
      "outputs": [
        {
          "name": "",
          "type": "uint256"
        }
      ],
      "payable": false,
      "stateMutability": "view",
      "type": "function"
    },
    {
      "constant": true,
      "inputs": [],
      "name": "latestDifficultyPeriodStarted",
      "outputs": [
        {
          "name": "",
          "type": "uint256"
        }
      ],
      "payable": false,
      "stateMutability": "view",
      "type": "function"
    },
    {
      "constant": true,
      "inputs": [],
      "name": "blockreward",
      "outputs": [
        {
          "name": "",
          "type": "uint256"
        }
      ],
      "payable": false,
      "stateMutability": "view",
      "type": "function"
    },
    {
      "constant": true,
      "inputs": [],
      "name": "PeriodsIssuedCounter",
      "outputs": [
        {
          "name": "",
          "type": "uint256"
        }
      ],
      "payable": false,
      "stateMutability": "view",
      "type": "function"
    },
    {
      "constant": true,
      "inputs": [],
      "name": "periodrewardtemp",
      "outputs": [
        {
          "name": "",
          "type": "uint256"
        }
      ],
      "payable": false,
      "stateMutability": "view",
      "type": "function"
    },
    {
      "constant": true,
      "inputs": [
        {
          "name": "",
          "type": "address"
        }
      ],
      "name": "stakesCounters",
      "outputs": [
        {
          "name": "",
          "type": "uint256"
        }
      ],
      "payable": false,
      "stateMutability": "view",
      "type": "function"
    },
    {
      "constant": true,
      "inputs": [],
      "name": "periodsCounter",
      "outputs": [
        {
          "name": "",
          "type": "uint256"
        }
      ],
      "payable": false,
      "stateMutability": "view",
      "type": "function"
    },
    {
      "constant": true,
      "inputs": [],
      "name": "_MINIMUM_TARGET",
      "outputs": [
        {
          "name": "",
          "type": "uint256"
        }
      ],
      "payable": false,
      "stateMutability": "view",
      "type": "function"
    },
    {
      "constant": true,
      "inputs": [
        {
          "name": "tokenOwner",
          "type": "address"
        },
        {
          "name": "spender",
          "type": "address"
        }
      ],
      "name": "allowance",
      "outputs": [
        {
          "name": "",
          "type": "uint256"
        }
      ],
      "payable": false,
      "stateMutability": "view",
      "type": "function"
    },
    {
      "constant": true,
      "inputs": [
        {
          "name": "",
          "type": "uint256"
        }
      ],
      "name": "periods",
      "outputs": [
        {
          "name": "id",
          "type": "uint256"
        },
        {
          "name": "interval",
          "type": "uint256"
        },
        {
          "name": "curation_sum",
          "type": "uint256"
        },
        {
          "name": "editor_sum",
          "type": "uint256"
        },
        {
          "name": "total_voters",
          "type": "uint256"
        }
      ],
      "payable": false,
      "stateMutability": "view",
      "type": "function"
    },
    {
      "constant": true,
      "inputs": [
        {
          "name": "",
          "type": "uint256"
        }
      ],
      "name": "PeriodsIssued",
      "outputs": [
        {
          "name": "",
          "type": "uint256"
        }
      ],
      "payable": false,
      "stateMutability": "view",
      "type": "function"
    },
    {
      "constant": true,
      "inputs": [
        {
          "name": "",
          "type": "bytes32"
        }
      ],
      "name": "propsipfs",
      "outputs": [
        {
          "name": "raw_release_hash",
          "type": "string"
        },
        {
          "name": "old_release_hash",
          "type": "string"
        },
        {
          "name": "grandparent_hash",
          "type": "string"
        }
      ],
      "payable": false,
      "stateMutability": "view",
      "type": "function"
    },
    {
      "constant": true,
      "inputs": [
        {
          "name": "",
          "type": "address"
        }
      ],
      "name": "blockedeticas",
      "outputs": [
        {
          "name": "",
          "type": "uint256"
        }
      ],
      "payable": false,
      "stateMutability": "view",
      "type": "function"
    },
    {
      "payable": true,
      "stateMutability": "payable",
      "type": "fallback"
    },
    {
      "anonymous": false,
      "inputs": [
        {
          "indexed": false,
          "name": "period_id",
          "type": "uint256"
        },
        {
          "indexed": false,
          "name": "interval",
          "type": "uint256"
        }
      ],
      "name": "CreatedPeriod",
      "type": "event"
    },
    {
      "anonymous": false,
      "inputs": [
        {
          "indexed": false,
          "name": "period_id",
          "type": "uint256"
        },
        {
          "indexed": false,
          "name": "periodreward",
          "type": "uint256"
        }
      ],
      "name": "IssuedPeriod",
      "type": "event"
    },
    {
      "anonymous": false,
      "inputs": [
        {
          "indexed": true,
          "name": "staker",
          "type": "address"
        },
        {
          "indexed": false,
          "name": "amount",
          "type": "uint256"
        }
      ],
      "name": "NewStake",
      "type": "event"
    },
    {
      "anonymous": false,
      "inputs": [
        {
          "indexed": true,
          "name": "staker",
          "type": "address"
        },
        {
          "indexed": false,
          "name": "stakeidx",
          "type": "uint256"
        }
      ],
      "name": "StakeClaimed",
      "type": "event"
    },
    {
      "anonymous": false,
      "inputs": [
        {
          "indexed": false,
          "name": "diseaseindex",
          "type": "uint256"
        },
        {
          "indexed": false,
          "name": "title",
          "type": "string"
        },
        {
          "indexed": false,
          "name": "description",
          "type": "string"
        }
      ],
      "name": "NewDisease",
      "type": "event"
    },
    {
      "anonymous": false,
      "inputs": [
        {
          "indexed": false,
          "name": "proposed_release_hash",
          "type": "bytes32"
        },
        {
          "indexed": false,
          "name": "diseasehash",
          "type": "bytes32"
        },
        {
          "indexed": false,
          "name": "title",
          "type": "string"
        },
        {
          "indexed": false,
          "name": "description",
          "type": "string"
        }
      ],
      "name": "NewProposal",
      "type": "event"
    },
    {
      "anonymous": false,
      "inputs": [
        {
          "indexed": true,
          "name": "from",
          "type": "address"
        },
        {
          "indexed": true,
          "name": "to",
          "type": "address"
        },
        {
          "indexed": false,
          "name": "tokens",
          "type": "uint256"
        }
      ],
      "name": "Transfer",
      "type": "event"
    },
    {
      "anonymous": false,
      "inputs": [
        {
          "indexed": true,
          "name": "tokenOwner",
          "type": "address"
        },
        {
          "indexed": true,
          "name": "spender",
          "type": "address"
        },
        {
          "indexed": false,
          "name": "tokens",
          "type": "uint256"
        }
      ],
      "name": "Approval",
      "type": "event"
    },
    {
      "anonymous": false,
      "inputs": [
        {
          "indexed": true,
          "name": "from",
          "type": "address"
        },
        {
          "indexed": false,
          "name": "blockreward",
          "type": "uint256"
        },
        {
          "indexed": false,
          "name": "epochCount",
          "type": "uint256"
        },
        {
          "indexed": false,
          "name": "newChallengeNumber",
          "type": "bytes32"
        }
      ],
      "name": "Mint",
      "type": "event"
    },
    {
      "constant": false,
      "inputs": [],
      "name": "newPeriod",
      "outputs": [],
      "payable": false,
      "stateMutability": "nonpayable",
      "type": "function"
    },
    {
      "constant": false,
      "inputs": [
        {
          "name": "_staker",
          "type": "address"
        },
        {
          "name": "_amount",
          "type": "uint256"
        }
      ],
      "name": "eticatobosoms",
      "outputs": [
        {
          "name": "success",
          "type": "bool"
        }
      ],
      "payable": false,
      "stateMutability": "nonpayable",
      "type": "function"
    },
    {
      "constant": false,
      "inputs": [
        {
          "name": "_stakeidx",
          "type": "uint256"
        }
      ],
      "name": "stakeclmidx",
      "outputs": [],
      "payable": false,
      "stateMutability": "nonpayable",
      "type": "function"
    },
    {
      "constant": true,
      "inputs": [
        {
          "name": "_staker",
          "type": "address"
        }
      ],
      "name": "stakescount",
      "outputs": [
        {
          "name": "slength",
          "type": "uint256"
        }
      ],
      "payable": false,
      "stateMutability": "view",
      "type": "function"
    },
    {
      "constant": false,
      "inputs": [
        {
          "name": "_name",
          "type": "string"
        },
        {
          "name": "_description",
          "type": "string"
        }
      ],
      "name": "createdisease",
      "outputs": [],
      "payable": false,
      "stateMutability": "nonpayable",
      "type": "function"
    },
    {
      "constant": false,
      "inputs": [
        {
          "name": "_diseasehash",
          "type": "bytes32"
        },
        {
          "name": "_title",
          "type": "string"
        },
        {
          "name": "_description",
          "type": "string"
        },
        {
          "name": "raw_release_hash",
          "type": "string"
        },
        {
          "name": "old_release_hash",
          "type": "string"
        },
        {
          "name": "grandparent_hash",
          "type": "string"
        }
      ],
      "name": "propose",
      "outputs": [],
      "payable": false,
      "stateMutability": "nonpayable",
      "type": "function"
    },
    {
      "constant": false,
      "inputs": [
        {
          "name": "_proposed_release_hash",
          "type": "bytes32"
        },
        {
          "name": "_approved",
          "type": "bool"
        },
        {
          "name": "_amount",
          "type": "uint256"
        }
      ],
      "name": "votebyhash",
      "outputs": [],
      "payable": false,
      "stateMutability": "nonpayable",
      "type": "function"
    },
    {
      "constant": true,
      "inputs": [
        {
          "name": "tokenOwner",
          "type": "address"
        }
      ],
      "name": "bosomsOf",
      "outputs": [
        {
          "name": "_bosoms",
          "type": "uint256"
        }
      ],
      "payable": false,
      "stateMutability": "view",
      "type": "function"
    },
    {
      "constant": true,
      "inputs": [
        {
          "name": "_name",
          "type": "string"
        }
      ],
      "name": "getdiseasehashbyName",
      "outputs": [
        {
          "name": "_diseasehash",
          "type": "bytes32"
        }
      ],
      "payable": false,
      "stateMutability": "view",
      "type": "function"
    }
  ],
  "bytecode": "0x60806040526040805190810160405280600581526020017f45746963610000000000000000000000000000000000000000000000000000008152506000908051906020019062000051929190620006a0565b506040805190810160405280600381526020017f4554490000000000000000000000000000000000000000000000000000000000815250600190805190602001906200009f929190620006a0565b506012600255610400600d5562010000600e557e04000000000000000000000000000000000000000000000000000000000000600f556000601560006101000a81548160ff02191690831515021790555062761783601855602a60195560a8601a556001601b55600254600a0a606402601c55600254600a0a600a02601d556032601e5568056bc75e2d631000006003819055506200019e68056bc75e2d63100000600860003073ffffffffffffffffffffffffffffffffffffffff1673ffffffffffffffffffffffffffffffffffffffff16815260200190815260200160002054620003096401000000000262004a5b179091906401000000009004565b600860003073ffffffffffffffffffffffffffffffffffffffff1673ffffffffffffffffffffffffffffffffffffffff168152602001908152602001600020819055506904772abe6c93ed94622e600581905550600254600a0a62a037a002600a81905550601560009054906101000a900460ff16156200021e57600080fd5b6001601560006101000a81548160ff021916908315150217905550600060178190555068012253ff998b28052d601281905550600f5460108190555043600b819055506200027a62000326640100000000026401000000009004565b6d014a713d95c1c369e4c10bb9816860048190555033600660006101000a81548173ffffffffffffffffffffffffffffffffffffffff021916908373ffffffffffffffffffffffffffffffffffffffff1602179055506060604051908101604052806027815260200162005c78602791396007908051906020019062000302929190620006a0565b506200074f565b600081830190508281101515156200032057600080fd5b92915050565b6200034c6001600c54620003096401000000000262004a5b179091906401000000009004565b600c819055506000600d54600c548115156200036457fe5b06141562000386576200038562000393640100000000026401000000009004565b5b6001430340601181905550565b6000600b54430390506000600d5490506000603c8202905080831015620004c5576000620003fc84620003df6064856200060b640100000000026200537b179091906401000000009004565b6200063f6401000000000262004a37179091906401000000009004565b90506000620004486103e86200042b606485620006656401000000000262004ac1179091906401000000009004565b6200068264010000000002620053ac179091906401000000009004565b9050620004b762000497826200047a6107d06010546200063f6401000000000262004a37179091906401000000009004565b6200060b640100000000026200537b179091906401000000009004565b601054620006656401000000000262004ac1179091906401000000009004565b6010819055505050620005d1565b60006200050d82620004f06064876200060b640100000000026200537b179091906401000000009004565b6200063f6401000000000262004a37179091906401000000009004565b90506000620005596103e86200053c606485620006656401000000000262004ac1179091906401000000009004565b6200068264010000000002620053ac179091906401000000009004565b9050620005c8620005a8826200058b6107d06010546200063f6401000000000262004a37179091906401000000009004565b6200060b640100000000026200537b179091906401000000009004565b601054620003096401000000000262004a5b179091906401000000009004565b60108190555050505b43600b81905550600e546010541015620005ef57600e546010819055505b600f5460105411156200060657600f546010819055505b505050565b6000818302905060008314806200062d57508183828115156200062a57fe5b04145b15156200063957600080fd5b92915050565b600080821115156200065057600080fd5b81838115156200065c57fe5b04905092915050565b60008282111515156200067757600080fd5b818303905092915050565b60008183111562000696578190506200069a565b8290505b92915050565b828054600181600116156101000203166002900490600052602060002090601f016020900481019282601f10620006e357805160ff191683800117855562000714565b8280016001018555821562000714579182015b8281111562000713578251825591602001919060010190620006f6565b5b50905062000723919062000727565b5090565b6200074c91905b80821115620007485760008160009055506001016200072e565b5090565b90565b615519806200075f6000396000f3fe6080604052600436106103d5576000357c0100000000000000000000000000000000000000000000000000000000900480636fd396d61161020f578063bf6fc7251161012a578063dc6e9cf9116100bd578063f08a01f81161008c578063f08a01f814611d6e578063f8d8268314611dd3578063fb3e22e114611e22578063fc84abb714611fae576103d5565b8063dc6e9cf914611c18578063dd62ed3e14611c43578063ea4a110414611cc8578063ecd3cb8214611d33576103d5565b8063d2c69dfa116100f9578063d2c69dfa14611b0c578063d40170d714611b5d578063d732b83514611b88578063d74ce8c514611bed576103d5565b8063bf6fc72514611a18578063cb9ae70714611a8b578063cf70fa4014611ab6578063d03150c614611ae1576103d5565b80639386775a116101a2578063a9059cbb11610171578063a9059cbb14611873578063b4ef00f0146118e6578063b5ade81b146119c2578063b6407769146119ed576103d5565b80639386775a1461168857806395d89b411461175557806397566aa0146117e5578063a5ec87e414611848576103d5565b806387a2a9d6116101de57806387a2a9d6146115b857806388858985146115e35780638a769d35146116325780638ae0368b1461165d576103d5565b80636fd396d61461146057806370a08231146114b757806381269a561461151c578063829965cc1461158d576103d5565b806332e99708116102ff5780635708416411610292578063648cf85f11610261578063648cf85f146111ee5780636de7410c1461137a5780636de9f32b1461140a5780636fbbbf1d14611435576103d5565b80635708416414611090578063584b62a1146110f55780635dfa7396146111725780635e11544b146111d7576103d5565b806346459b22116102ce57806346459b2214610e2b5780634b44c6aa14610f525780634d853ee51461100e5780634ef3762814611065576103d5565b806332e9970814610c3b57806332ed5b1214610c66578063366c41a314610dd5578063410e1b0714610e00576103d5565b806317da485f116103775780632248731d116103465780632248731d146107ea57806323b872dd14610b1857806327e235e314610bab578063313ce56714610c10576103d5565b806317da485f1461070c5780631801fbe51461073757806318160ddd146107945780631853f0a8146107bf576103d5565b8063095ea7b3116103b3578063095ea7b3146104c05780630bd92a73146105335780631081a47e14610692578063163aa00d146106e1576103d5565b80630147ac0e146103da578063047fc9aa1461040557806306fdde0314610430575b600080fd5b3480156103e657600080fd5b506103ef612013565b6040518082815260200191505060405180910390f35b34801561041157600080fd5b5061041a612019565b6040518082815260200191505060405180910390f35b34801561043c57600080fd5b5061044561201f565b6040518080602001828103825283818151815260200191508051906020019080838360005b8381101561048557808201518184015260208101905061046a565b50505050905090810190601f1680156104b25780820380516001836020036101000a031916815260200191505b509250505060405180910390f35b3480156104cc57600080fd5b50610519600480360360408110156104e357600080fd5b81019080803573ffffffffffffffffffffffffffffffffffffffff169060200190929190803590602001909291905050506120bd565b604051808215151515815260200191505060405180910390f35b34801561053f57600080fd5b506106906004803603604081101561055657600080fd5b810190808035906020019064010000000081111561057357600080fd5b82018360208201111561058557600080fd5b803590602001918460018302840111640100000000831117156105a757600080fd5b91908080601f016020809104026020016040519081016040528093929190818152602001838380828437600081840152601f19601f8201169050808301925050505050505091929192908035906020019064010000000081111561060a57600080fd5b82018360208201111561061c57600080fd5b8035906020019184600183028401116401000000008311171561063e57600080fd5b91908080601f016020809104026020016040519081016040528093929190818152602001838380828437600081840152601f19601f82011690508083019250505050505050919291929050505061220c565b005b34801561069e57600080fd5b506106cb600480360360208110156106b557600080fd5b81019080803590602001909291905050506125c1565b6040518082815260200191505060405180910390f35b3480156106ed57600080fd5b506106f66125d9565b6040518082815260200191505060405180910390f35b34801561071857600080fd5b506107216125df565b6040518082815260200191505060405180910390f35b34801561074357600080fd5b5061077a6004803603604081101561075a57600080fd5b8101908080359060200190929190803590602001909291905050506125fd565b604051808215151515815260200191505060405180910390f35b3480156107a057600080fd5b506107a961287d565b6040518082815260200191505060405180910390f35b3480156107cb57600080fd5b506107d4612887565b6040518082815260200191505060405180910390f35b3480156107f657600080fd5b50610b16600480360360c081101561080d57600080fd5b81019080803590602001909291908035906020019064010000000081111561083457600080fd5b82018360208201111561084657600080fd5b8035906020019184600183028401116401000000008311171561086857600080fd5b91908080601f016020809104026020016040519081016040528093929190818152602001838380828437600081840152601f19601f820116905080830192505050505050509192919290803590602001906401000000008111156108cb57600080fd5b8201836020820111156108dd57600080fd5b803590602001918460018302840111640100000000831117156108ff57600080fd5b91908080601f016020809104026020016040519081016040528093929190818152602001838380828437600081840152601f19601f8201169050808301925050505050505091929192908035906020019064010000000081111561096257600080fd5b82018360208201111561097457600080fd5b8035906020019184600183028401116401000000008311171561099657600080fd5b91908080601f016020809104026020016040519081016040528093929190818152602001838380828437600081840152601f19601f820116905080830192505050505050509192919290803590602001906401000000008111156109f957600080fd5b820183602082011115610a0b57600080fd5b80359060200191846001830284011164010000000083111715610a2d57600080fd5b91908080601f016020809104026020016040519081016040528093929190818152602001838380828437600081840152601f19601f82011690508083019250505050505050919291929080359060200190640100000000811115610a9057600080fd5b820183602082011115610aa257600080fd5b80359060200191846001830284011164010000000083111715610ac457600080fd5b91908080601f016020809104026020016040519081016040528093929190818152602001838380828437600081840152601f19601f82011690508083019250505050505050919291929050505061288d565b005b348015610b2457600080fd5b50610b9160048036036060811015610b3b57600080fd5b81019080803573ffffffffffffffffffffffffffffffffffffffff169060200190929190803573ffffffffffffffffffffffffffffffffffffffff16906020019092919080359060200190929190505050612db8565b604051808215151515815260200191505060405180910390f35b348015610bb757600080fd5b50610bfa60048036036020811015610bce57600080fd5b81019080803573ffffffffffffffffffffffffffffffffffffffff169060200190929190505050613063565b6040518082815260200191505060405180910390f35b348015610c1c57600080fd5b50610c2561307b565b6040518082815260200191505060405180910390f35b348015610c4757600080fd5b50610c50613081565b6040518082815260200191505060405180910390f35b348015610c7257600080fd5b50610c9f60048036036020811015610c8957600080fd5b810190808035906020019092919050505061308b565b604051808881526020018781526020018681526020018581526020018473ffffffffffffffffffffffffffffffffffffffff1673ffffffffffffffffffffffffffffffffffffffff1681526020018060200180602001838103835285818151815260200191508051906020019080838360005b83811015610d2d578082015181840152602081019050610d12565b50505050905090810190601f168015610d5a5780820380516001836020036101000a031916815260200191505b50838103825284818151815260200191508051906020019080838360005b83811015610d93578082015181840152602081019050610d78565b50505050905090810190601f168015610dc05780820380516001836020036101000a031916815260200191505b50995050505050505050505060405180910390f35b348015610de157600080fd5b50610dea61321d565b6040518082815260200191505060405180910390f35b348015610e0c57600080fd5b50610e15613223565b6040518082815260200191505060405180910390f35b348015610e3757600080fd5b50610e6460048036036020811015610e4e57600080fd5b8101908080359060200190929190505050613229565b604051808481526020018060200180602001838103835285818151815260200191508051906020019080838360005b83811015610eae578082015181840152602081019050610e93565b50505050905090810190601f168015610edb5780820380516001836020036101000a031916815260200191505b50838103825284818151815260200191508051906020019080838360005b83811015610f14578082015181840152602081019050610ef9565b50505050905090810190601f168015610f415780820380516001836020036101000a031916815260200191505b509550505050505060405180910390f35b348015610f5e57600080fd5b50610f8b60048036036020811015610f7557600080fd5b8101908080359060200190929190505050613383565b604051808d81526020018c81526020018b81526020018a6003811115610fad57fe5b60ff168152602001896003811115610fc157fe5b60ff168152602001881515151581526020018781526020018681526020018581526020018481526020018381526020018281526020019c5050505050505050505050505060405180910390f35b34801561101a57600080fd5b5061102361340a565b604051808273ffffffffffffffffffffffffffffffffffffffff1673ffffffffffffffffffffffffffffffffffffffff16815260200191505060405180910390f35b34801561107157600080fd5b5061107a613430565b6040518082815260200191505060405180910390f35b34801561109c57600080fd5b506110df600480360360208110156110b357600080fd5b81019080803573ffffffffffffffffffffffffffffffffffffffff16906020019092919050505061343a565b6040518082815260200191505060405180910390f35b34801561110157600080fd5b5061114e6004803603604081101561111857600080fd5b81019080803573ffffffffffffffffffffffffffffffffffffffff16906020019092919080359060200190929190505050613452565b60405180848152602001838152602001828152602001935050505060405180910390f35b34801561117e57600080fd5b506111c16004803603602081101561119557600080fd5b81019080803573ffffffffffffffffffffffffffffffffffffffff169060200190929190505050613489565b6040518082815260200191505060405180910390f35b3480156111e357600080fd5b506111ec6134d2565b005b3480156111fa57600080fd5b506112276004803603602081101561121157600080fd5b810190808035906020019092919050505061361c565b60405180806020018060200180602001848103845287818151815260200191508051906020019080838360005b8381101561126f578082015181840152602081019050611254565b50505050905090810190601f16801561129c5780820380516001836020036101000a031916815260200191505b50848103835286818151815260200191508051906020019080838360005b838110156112d55780820151818401526020810190506112ba565b50505050905090810190601f1680156113025780820380516001836020036101000a031916815260200191505b50848103825285818151815260200191508051906020019080838360005b8381101561133b578082015181840152602081019050611320565b50505050905090810190601f1680156113685780820380516001836020036101000a031916815260200191505b50965050505050505060405180910390f35b34801561138657600080fd5b5061138f61380e565b6040518080602001828103825283818151815260200191508051906020019080838360005b838110156113cf5780820151818401526020810190506113b4565b50505050905090810190601f1680156113fc5780820380516001836020036101000a031916815260200191505b509250505060405180910390f35b34801561141657600080fd5b5061141f6138ac565b6040518082815260200191505060405180910390f35b34801561144157600080fd5b5061144a6138b2565b6040518082815260200191505060405180910390f35b34801561146c57600080fd5b506114756138b8565b604051808273ffffffffffffffffffffffffffffffffffffffff1673ffffffffffffffffffffffffffffffffffffffff16815260200191505060405180910390f35b3480156114c357600080fd5b50611506600480360360208110156114da57600080fd5b81019080803573ffffffffffffffffffffffffffffffffffffffff1690602001909291905050506138de565b6040518082815260200191505060405180910390f35b34801561152857600080fd5b506115736004803603608081101561153f57600080fd5b8101908080359060200190929190803590602001909291908035906020019092919080359060200190929190505050613927565b604051808215151515815260200191505060405180910390f35b34801561159957600080fd5b506115a26139bd565b6040518082815260200191505060405180910390f35b3480156115c457600080fd5b506115cd6139c3565b6040518082815260200191505060405180910390f35b3480156115ef57600080fd5b5061161c6004803603602081101561160657600080fd5b81019080803590602001909291905050506139c9565b6040518082815260200191505060405180910390f35b34801561163e57600080fd5b506116476139e1565b6040518082815260200191505060405180910390f35b34801561166957600080fd5b506116726139e7565b6040518082815260200191505060405180910390f35b34801561169457600080fd5b506116e1600480360360408110156116ab57600080fd5b8101908080359060200190929190803573ffffffffffffffffffffffffffffffffffffffff1690602001909291905050506139ed565b6040518088815260200187815260200186151515158152602001851515151581526020018481526020018373ffffffffffffffffffffffffffffffffffffffff1673ffffffffffffffffffffffffffffffffffffffff16815260200182815260200197505050505050505060405180910390f35b34801561176157600080fd5b5061176a613a76565b6040518080602001828103825283818151815260200191508051906020019080838360005b838110156117aa57808201518184015260208101905061178f565b50505050905090810190601f1680156117d75780820380516001836020036101000a031916815260200191505b509250505060405180910390f35b3480156117f157600080fd5b506118326004803603606081101561180857600080fd5b81019080803590602001909291908035906020019092919080359060200190929190505050613b14565b6040518082815260200191505060405180910390f35b34801561185457600080fd5b5061185d613b96565b6040518082815260200191505060405180910390f35b34801561187f57600080fd5b506118cc6004803603604081101561189657600080fd5b81019080803573ffffffffffffffffffffffffffffffffffffffff16906020019092919080359060200190929190505050613b9c565b604051808215151515815260200191505060405180910390f35b3480156118f257600080fd5b506119ac6004803603602081101561190957600080fd5b810190808035906020019064010000000081111561192657600080fd5b82018360208201111561193857600080fd5b8035906020019184600183028401116401000000008311171561195a57600080fd5b91908080601f016020809104026020016040519081016040528093929190818152602001838380828437600081840152601f19601f820116905080830192505050505050509192919290505050613d45565b6040518082815260200191505060405180910390f35b3480156119ce57600080fd5b506119d7613dba565b6040518082815260200191505060405180910390f35b3480156119f957600080fd5b50611a02613dc0565b6040518082815260200191505060405180910390f35b348015611a2457600080fd5b50611a7160048036036040811015611a3b57600080fd5b81019080803573ffffffffffffffffffffffffffffffffffffffff16906020019092919080359060200190929190505050613dc6565b604051808215151515815260200191505060405180910390f35b348015611a9757600080fd5b50611aa0613e30565b6040518082815260200191505060405180910390f35b348015611ac257600080fd5b50611acb613e36565b6040518082815260200191505060405180910390f35b348015611aed57600080fd5b50611af6613e3c565b6040518082815260200191505060405180910390f35b348015611b1857600080fd5b50611b5b60048036036060811015611b2f57600080fd5b810190808035906020019092919080351515906020019092919080359060200190929190505050613e42565b005b348015611b6957600080fd5b50611b7261441b565b6040518082815260200191505060405180910390f35b348015611b9457600080fd5b50611bd760048036036020811015611bab57600080fd5b81019080803573ffffffffffffffffffffffffffffffffffffffff169060200190929190505050614421565b6040518082815260200191505060405180910390f35b348015611bf957600080fd5b50611c02614439565b6040518082815260200191505060405180910390f35b348015611c2457600080fd5b50611c2d61443f565b6040518082815260200191505060405180910390f35b348015611c4f57600080fd5b50611cb260048036036040811015611c6657600080fd5b81019080803573ffffffffffffffffffffffffffffffffffffffff169060200190929190803573ffffffffffffffffffffffffffffffffffffffff169060200190929190505050614445565b6040518082815260200191505060405180910390f35b348015611cd457600080fd5b50611d0160048036036020811015611ceb57600080fd5b81019080803590602001909291905050506144cc565b604051808681526020018581526020018481526020018381526020018281526020019550505050505060405180910390f35b348015611d3f57600080fd5b50611d6c60048036036020811015611d5657600080fd5b8101908080359060200190929190505050614502565b005b348015611d7a57600080fd5b50611dbd60048036036020811015611d9157600080fd5b81019080803573ffffffffffffffffffffffffffffffffffffffff1690602001909291905050506147cc565b6040518082815260200191505060405180910390f35b348015611ddf57600080fd5b50611e0c60048036036020811015611df657600080fd5b8101908080359060200190929190505050614815565b6040518082815260200191505060405180910390f35b348015611e2e57600080fd5b50611e5b60048036036020811015611e4557600080fd5b810190808035906020019092919050505061482d565b60405180806020018060200180602001848103845287818151815260200191508051906020019080838360005b83811015611ea3578082015181840152602081019050611e88565b50505050905090810190601f168015611ed05780820380516001836020036101000a031916815260200191505b50848103835286818151815260200191508051906020019080838360005b83811015611f09578082015181840152602081019050611eee565b50505050905090810190601f168015611f365780820380516001836020036101000a031916815260200191505b50848103825285818151815260200191508051906020019080838360005b83811015611f6f578082015181840152602081019050611f54565b50505050905090810190601f168015611f9c5780820380516001836020036101000a031916815260200191505b50965050505050505060405180910390f35b348015611fba57600080fd5b50611ffd60048036036020811015611fd157600080fd5b81019080803573ffffffffffffffffffffffffffffffffffffffff169060200190929190505050614a1f565b6040518082815260200191505060405180910390f35b601d5481565b60035481565b60008054600181600116156101000203166002900480601f0160208091040260200160405190810160405280929190818152602001828054600181600116156101000203166002900480156120b55780601f1061208a576101008083540402835291602001916120b5565b820191906000526020600020905b81548152906001019060200180831161209857829003601f168201915b505050505081565b600081600860003373ffffffffffffffffffffffffffffffffffffffff1673ffffffffffffffffffffffffffffffffffffffff168152602001908152602001600020541015151561210d57600080fd5b60008211151561211c57600080fd5b81600960003373ffffffffffffffffffffffffffffffffffffffff1673ffffffffffffffffffffffffffffffffffffffff16815260200190815260200160002060008573ffffffffffffffffffffffffffffffffffffffff1673ffffffffffffffffffffffffffffffffffffffff168152602001908152602001600020819055508273ffffffffffffffffffffffffffffffffffffffff163373ffffffffffffffffffffffffffffffffffffffff167f8c5be1e5ebec7d5bd14f71427d1e84f3dd0314c0f7b2291e5b200ac8c7c3b925846040518082815260200191505060405180910390a36001905092915050565b601c54600860003373ffffffffffffffffffffffffffffffffffffffff1673ffffffffffffffffffffffffffffffffffffffff168152602001908152602001600020541015151561225c57600080fd5b61226830601c54613b9c565b5060006002836040516020018082805190602001908083835b6020831015156122a65780518252602082019150602081019050602083039250612281565b6001836020036101000a0380198251168184511680821785525050505050509050019150506040516020818303038152906040526040518082805190602001908083835b60208310151561230f57805182526020820191506020810190506020830392506122ea565b6001836020036101000a038019825116818451168082178552505050505050905001915050602060405180830381855afa158015612351573d6000803e3d6000fd5b5050506040513d602081101561236657600080fd5b81019080805190602001909291905050509050600160265401602681905550600060276000838152602001908152602001600020541415156123a757600080fd5b606060405190810160405280828152602001848152602001838152506025600060265481526020019081526020016000206000820151816000015560208201518160010190805190602001906123fe9291906153c8565b50604082015181600201908051906020019061241b9291906153c8565b509050506026546027600083815260200190815260200160002081905550806028846040518082805190602001908083835b602083101515612472578051825260208201915060208101905060208303925061244d565b6001836020036101000a0380198251168184511680821785525050505050509050019150509081526020016040518091039020819055507f93c49c8e82ac37419e0bd454c617e7bc2735fb664182ddb06a31ae693c854e1f6026548484604051808481526020018060200180602001838103835285818151815260200191508051906020019080838360005b838110156125195780820151818401526020810190506124fe565b50505050905090810190601f1680156125465780820380516001836020036101000a031916815260200191505b50838103825284818151815260200191508051906020019080838360005b8381101561257f578082015181840152602081019050612564565b50505050905090810190601f1680156125ac5780820380516001836020036101000a031916815260200191505b509550505050505060405180910390a1505050565b60276020528060005260406000206000915090505481565b60145481565b60006125f8601054600f54614a3790919063ffffffff16565b905090565b6000806011543385604051602001808481526020018373ffffffffffffffffffffffffffffffffffffffff1673ffffffffffffffffffffffffffffffffffffffff166c010000000000000000000000000281526014018281526020019350505050604051602081830303815290604052805190602001209050828114151561268457600080fd5b6010548160019004111561269757600080fd5b600060166000601154815260200190815260200160002054905081601660006011548152602001908152602001600020819055506000600102811415156126dd57600080fd5b600a546017541015156126ec57fe5b612703601254601754614a5b90919063ffffffff16565b601781905550612720601254600354614a5b90919063ffffffff16565b60038190555061277a601254600860003373ffffffffffffffffffffffffffffffffffffffff1673ffffffffffffffffffffffffffffffffffffffff16815260200190815260200160002054614a5b90919063ffffffff16565b600860003373ffffffffffffffffffffffffffffffffffffffff1673ffffffffffffffffffffffffffffffffffffffff1681526020019081526020016000208190555033601360006101000a81548173ffffffffffffffffffffffffffffffffffffffff021916908373ffffffffffffffffffffffffffffffffffffffff1602179055504360148190555061280d614a77565b3373ffffffffffffffffffffffffffffffffffffffff167fcf6fbb9dcea7d07263ab4f5c3a92f53af33dffc421d9d121e1c74b307e68189d601254600c5460115460405180848152602001838152602001828152602001935050505060405180910390a260019250505092915050565b6000600354905090565b60245481565b601d54600860003373ffffffffffffffffffffffffffffffffffffffff1673ffffffffffffffffffffffffffffffffffffffff16815260200190815260200160002054101515156128dd57600080fd5b600060276000888152602001908152602001600020541180156129155750602654602760008881526020019081526020016000205411155b151561292057600080fd5b8560256000602760008a81526020019081526020016000205481526020019081526020016000206000015414151561295757600080fd5b6000600284886040516020018083805190602001908083835b6020831015156129955780518252602082019150602081019050602083039250612970565b6001836020036101000a038019825116818451168082178552505050505050905001828152602001925050506040516020818303038152906040526040518082805190602001908083835b602083101515612a0557805182526020820191506020810190506020830392506129e0565b6001836020036101000a038019825116818451168082178552505050505050905001915050602060405180830381855afa158015612a47573d6000803e3d6000fd5b5050506040513d6020811015612a5c57600080fd5b810190808051906020019092919050505090506001602a5401602a819055506000602960008381526020019081526020016000209050602a548160000181905550878160020181905550818160010181905550338160040160006101000a81548173ffffffffffffffffffffffffffffffffffffffff021916908373ffffffffffffffffffffffffffffffffffffffff16021790555086816005019080519060200190612b0a929190615448565b5085816006019080519060200190612b23929190615448565b506000602c6000848152602001908152602001600020905085816000019080519060200190612b53929190615448565b5084816001019080519060200190612b6c929190615448565b5083816002019080519060200190612b85929190615448565b506000602b6000858152602001908152602001600020905060028160030160006101000a81548160ff02191690836003811115612bbe57fe5b021790555060008160030160026101000a81548160ff02191690831515021790555060028160030160016101000a81548160ff02191690836003811115612c0157fe5b02179055506001816004018190555060008160050181905550601d548160060181905550600081600701819055506000816008018190555060008160090181905550601d54600860003373ffffffffffffffffffffffffffffffffffffffff1673ffffffffffffffffffffffffffffffffffffffff1681526020019081526020016000205410151515612c9357600080fd5b7fb372298bfeea14ffb2f51b20bf3934f25ec892effe92089cfc60668aa65eb5e1848b8b8b604051808581526020018481526020018060200180602001838103835285818151815260200191508051906020019080838360005b83811015612d08578082015181840152602081019050612ced565b50505050905090810190601f168015612d355780820380516001836020036101000a031916815260200191505b50838103825284818151815260200191508051906020019080838360005b83811015612d6e578082015181840152602081019050612d53565b50505050905090810190601f168015612d9b5780820380516001836020036101000a031916815260200191505b50965050505050505060405180910390a150505050505050505050565b6000612e0c82600860008773ffffffffffffffffffffffffffffffffffffffff1673ffffffffffffffffffffffffffffffffffffffff16815260200190815260200160002054614ac190919063ffffffff16565b600860008673ffffffffffffffffffffffffffffffffffffffff1673ffffffffffffffffffffffffffffffffffffffff16815260200190815260200160002081905550612ede82600960008773ffffffffffffffffffffffffffffffffffffffff1673ffffffffffffffffffffffffffffffffffffffff16815260200190815260200160002060003373ffffffffffffffffffffffffffffffffffffffff1673ffffffffffffffffffffffffffffffffffffffff16815260200190815260200160002054614ac190919063ffffffff16565b600960008673ffffffffffffffffffffffffffffffffffffffff1673ffffffffffffffffffffffffffffffffffffffff16815260200190815260200160002060003373ffffffffffffffffffffffffffffffffffffffff1673ffffffffffffffffffffffffffffffffffffffff16815260200190815260200160002081905550612fb082600860008673ffffffffffffffffffffffffffffffffffffffff1673ffffffffffffffffffffffffffffffffffffffff16815260200190815260200160002054614a5b90919063ffffffff16565b600860008573ffffffffffffffffffffffffffffffffffffffff1673ffffffffffffffffffffffffffffffffffffffff168152602001908152602001600020819055508273ffffffffffffffffffffffffffffffffffffffff168473ffffffffffffffffffffffffffffffffffffffff167fddf252ad1be2c89b69c2b068fc378daa952ba7f163c4a11628f55a4df523b3ef846040518082815260200191505060405180910390a3600190509392505050565b60086020528060005260406000206000915090505481565b60025481565b6000601054905090565b60296020528060005260406000206000915090508060000154908060010154908060020154908060030154908060040160009054906101000a900473ffffffffffffffffffffffffffffffffffffffff1690806005018054600181600116156101000203166002900480601f0160208091040260200160405190810160405280929190818152602001828054600181600116156101000203166002900480156131755780601f1061314a57610100808354040283529160200191613175565b820191906000526020600020905b81548152906001019060200180831161315857829003601f168201915b505050505090806006018054600181600116156101000203166002900480601f0160208091040260200160405190810160405280929190818152602001828054600181600116156101000203166002900480156132135780601f106131e857610100808354040283529160200191613213565b820191906000526020600020905b8154815290600101906020018083116131f657829003601f168201915b5050505050905087565b601c5481565b600a5481565b6025602052806000526040600020600091509050806000015490806001018054600181600116156101000203166002900480601f0160208091040260200160405190810160405280929190818152602001828054600181600116156101000203166002900480156132db5780601f106132b0576101008083540402835291602001916132db565b820191906000526020600020905b8154815290600101906020018083116132be57829003601f168201915b505050505090806002018054600181600116156101000203166002900480601f0160208091040260200160405190810160405280929190818152602001828054600181600116156101000203166002900480156133795780601f1061334e57610100808354040283529160200191613379565b820191906000526020600020905b81548152906001019060200180831161335c57829003601f168201915b5050505050905083565b602b6020528060005260406000206000915090508060000154908060010154908060020154908060030160009054906101000a900460ff16908060030160019054906101000a900460ff16908060030160029054906101000a900460ff1690806004015490806005015490806006015490806007015490806008015490806009015490508c565b600660009054906101000a900473ffffffffffffffffffffffffffffffffffffffff1681565b6000601154905090565b60306020528060005260406000206000915090505481565b6031602052816000526040600020602052806000526040600020600091509150508060000154908060010154908060020154905083565b6000603260008373ffffffffffffffffffffffffffffffffffffffff1673ffffffffffffffffffffffffffffffffffffffff168152602001908152602001600020549050919050565b60006134ed6019546018544301614a3790919063ffffffff16565b905060006023600083815260200190815260200160002054905060008114151561351657600080fd5b60206000815480929190600101919050555060a060405190810160405280602054815260200183815260200160008152602001600081526020016000815250601f60006020548152602001908152602001600020600082015181600001556020820151816001015560408201518160020155606082015181600301556080820151816004015590505060205460236000848152602001908152602001600020819055506024600081548092919060010191905055506135d6602054614add565b507ff74223d764da704d974281758065d2eb6c9066dc940e3f549b72e894b0404aef60205483604051808381526020018281526020019250505060405180910390a15050565b602d602052806000526040600020600091509050806000018054600181600116156101000203166002900480601f0160208091040260200160405190810160405280929190818152602001828054600181600116156101000203166002900480156136c85780601f1061369d576101008083540402835291602001916136c8565b820191906000526020600020905b8154815290600101906020018083116136ab57829003601f168201915b505050505090806001018054600181600116156101000203166002900480601f0160208091040260200160405190810160405280929190818152602001828054600181600116156101000203166002900480156137665780601f1061373b57610100808354040283529160200191613766565b820191906000526020600020905b81548152906001019060200180831161374957829003601f168201915b505050505090806002018054600181600116156101000203166002900480601f0160208091040260200160405190810160405280929190818152602001828054600181600116156101000203166002900480156138045780601f106137d957610100808354040283529160200191613804565b820191906000526020600020905b8154815290600101906020018083116137e757829003601f168201915b5050505050905083565b60078054600181600116156101000203166002900480601f0160208091040260200160405190810160405280929190818152602001828054600181600116156101000203166002900480156138a45780601f10613879576101008083540402835291602001916138a4565b820191906000526020600020905b81548152906001019060200180831161388757829003601f168201915b505050505081565b60175481565b60265481565b601360009054906101000a900473ffffffffffffffffffffffffffffffffffffffff1681565b6000600860008373ffffffffffffffffffffffffffffffffffffffff1673ffffffffffffffffffffffffffffffffffffffff168152602001908152602001600020549050919050565b600080833387604051602001808481526020018373ffffffffffffffffffffffffffffffffffffffff1673ffffffffffffffffffffffffffffffffffffffff166c01000000000000000000000000028152601401828152602001935050505060405160208183030381529060405280519060200120905082816001900411156139af57600080fd5b848114915050949350505050565b600c5481565b600f5481565b60236020528060005260406000206000915090505481565b60105481565b60115481565b602f602052816000526040600020602052806000526040600020600091509150508060000154908060010154908060020160009054906101000a900460ff16908060020160019054906101000a900460ff16908060030154908060040160009054906101000a900473ffffffffffffffffffffffffffffffffffffffff16908060050154905087565b60018054600181600116156101000203166002900480601f016020809104026020016040519081016040528092919081815260200182805460018160011615610100020316600290048015613b0c5780601f10613ae157610100808354040283529160200191613b0c565b820191906000526020600020905b815481529060010190602001808311613aef57829003601f168201915b505050505081565b600080823386604051602001808481526020018373ffffffffffffffffffffffffffffffffffffffff1673ffffffffffffffffffffffffffffffffffffffff166c010000000000000000000000000281526014018281526020019350505050604051602081830303815290604052805190602001209050809150509392505050565b602a5481565b60008082111515613bac57600080fd5b613bfe82600860003373ffffffffffffffffffffffffffffffffffffffff1673ffffffffffffffffffffffffffffffffffffffff16815260200190815260200160002054614ac190919063ffffffff16565b600860003373ffffffffffffffffffffffffffffffffffffffff1673ffffffffffffffffffffffffffffffffffffffff16815260200190815260200160002081905550613c9382600860008673ffffffffffffffffffffffffffffffffffffffff1673ffffffffffffffffffffffffffffffffffffffff16815260200190815260200160002054614a5b90919063ffffffff16565b600860008573ffffffffffffffffffffffffffffffffffffffff1673ffffffffffffffffffffffffffffffffffffffff168152602001908152602001600020819055508273ffffffffffffffffffffffffffffffffffffffff163373ffffffffffffffffffffffffffffffffffffffff167fddf252ad1be2c89b69c2b068fc378daa952ba7f163c4a11628f55a4df523b3ef846040518082815260200191505060405180910390a36001905092915050565b60006028826040518082805190602001908083835b602083101515613d7f5780518252602082019150602081019050602083039250613d5a565b6001836020036101000a0380198251168184511680821785525050505050509050019150509081526020016040518091039020549050919050565b600d5481565b60045481565b60008273ffffffffffffffffffffffffffffffffffffffff163373ffffffffffffffffffffffffffffffffffffffff16141515613e0257600080fd5b600082111515613e1157600080fd5b613e1b3083613b9c565b50613e268383614cc2565b6001905092915050565b600b5481565b60125481565b60225481565b600060296000858152602001908152602001600020905060008160000154118015613e705750838160010154145b1515613e7b57600080fd5b60008090508160040160009054906101000a900473ffffffffffffffffffffffffffffffffffffffff1673ffffffffffffffffffffffffffffffffffffffff163373ffffffffffffffffffffffffffffffffffffffff161415613edd57600190505b6000602b6000878152602001908152602001600020905083603060003373ffffffffffffffffffffffffffffffffffffffff1673ffffffffffffffffffffffffffffffffffffffff1681526020019081526020016000205410151515613f4257600080fd5b613f9484603060003373ffffffffffffffffffffffffffffffffffffffff1673ffffffffffffffffffffffffffffffffffffffff16815260200190815260200160002054614ac190919063ffffffff16565b603060003373ffffffffffffffffffffffffffffffffffffffff1673ffffffffffffffffffffffffffffffffffffffff168152602001908152602001600020819055506000601f600085600301548152602001908152602001600020905061404485603360003373ffffffffffffffffffffffffffffffffffffffff1673ffffffffffffffffffffffffffffffffffffffff16815260200190815260200160002054614a5b90919063ffffffff16565b603360003373ffffffffffffffffffffffffffffffffffffffff1673ffffffffffffffffffffffffffffffffffffffff168152602001908152602001600020819055506000602f60008660010154815260200190815260200160002060003373ffffffffffffffffffffffffffffffffffffffff1673ffffffffffffffffffffffffffffffffffffffff168152602001908152602001600020905084600101548160010181905550868160020160006101000a81548160ff021916908315150217905550838160020160016101000a81548160ff021916908315150217905550858160030181905550338160040160006101000a81548173ffffffffffffffffffffffffffffffffffffffff021916908373ffffffffffffffffffffffffffffffffffffffff1602179055504381600501819055506001836004015401836004018190555086156141a3578583600601540183600601819055506141b3565b8583600701540183600701819055505b600080905060008090506000856007015486600601540190506000606487600601540290506000606488600701548960060154030290506000606489600601548a6007015403029050601e54848481151561420a57fe5b041015156142315760019550601e54848481151561422457fe5b04141561423057600194505b5b848960030160026101000a81548160ff021916908315150217905550851561426c57838281151561425e57fe5b048960050181905550614281565b838181151561427757fe5b0489600501819055505b600089600501541015801561429b57506064896005015411155b15156142a657600080fd5b84156143115760008960030160016101000a81548160ff021916908360038111156142cd57fe5b02179055506000896008018190555060008960090181905550886008015488600201540388600201819055508860090154886003015403886003018190555061440b565b851561439a5760018960030160016101000a81548160ff0219169083600381111561433857fe5b02179055508860040154896006015402896008018190555088600401548960060154028960090181905550886008015489600801548960020154030188600201819055508860090154896009015489600301540301886003018190555061440a565b60008960030160016101000a81548160ff021916908360038111156143bb57fe5b0217905550886004015489600701540289600801819055506000896009018190555088600801548960080154896002015403018860020181905550886009015488600301540388600301819055505b5b5050505050505050505050505050565b60055481565b60326020528060005260406000206000915090505481565b60205481565b600e5481565b6000600960008473ffffffffffffffffffffffffffffffffffffffff1673ffffffffffffffffffffffffffffffffffffffff16815260200190815260200160002060008373ffffffffffffffffffffffffffffffffffffffff1673ffffffffffffffffffffffffffffffffffffffff16815260200190815260200160002054905092915050565b601f6020528060005260406000206000915090508060000154908060010154908060020154908060030154908060040154905085565b6000811180156145515750603260003373ffffffffffffffffffffffffffffffffffffffff1673ffffffffffffffffffffffffffffffffffffffff168152602001908152602001600020548111155b151561455c57600080fd5b6000603160003373ffffffffffffffffffffffffffffffffffffffff1673ffffffffffffffffffffffffffffffffffffffff168152602001908152602001600020600083815260200190815260200160002090508060020154431115156145c257600080fd5b600081600001541115156145d557600080fd5b61462b8160000154600860003073ffffffffffffffffffffffffffffffffffffffff1673ffffffffffffffffffffffffffffffffffffffff16815260200190815260200160002054614ac190919063ffffffff16565b600860003073ffffffffffffffffffffffffffffffffffffffff1673ffffffffffffffffffffffffffffffffffffffff168152602001908152602001600020819055506146c48160000154600860003373ffffffffffffffffffffffffffffffffffffffff1673ffffffffffffffffffffffffffffffffffffffff16815260200190815260200160002054614a5b90919063ffffffff16565b600860003373ffffffffffffffffffffffffffffffffffffffff1673ffffffffffffffffffffffffffffffffffffffff168152602001908152602001600020819055503373ffffffffffffffffffffffffffffffffffffffff163073ffffffffffffffffffffffffffffffffffffffff167fddf252ad1be2c89b69c2b068fc378daa952ba7f163c4a11628f55a4df523b3ef83600001546040518082815260200191505060405180910390a33373ffffffffffffffffffffffffffffffffffffffff167f2aeea59856f5616c244717fd488ead1d1b5fd33608d9583a4607b4c4ba3631e4836040518082815260200191505060405180910390a26147c83383614d70565b5050565b6000603060008373ffffffffffffffffffffffffffffffffffffffff1673ffffffffffffffffffffffffffffffffffffffff168152602001908152602001600020549050919050565b60216020528060005260406000206000915090505481565b602c602052806000526040600020600091509050806000018054600181600116156101000203166002900480601f0160208091040260200160405190810160405280929190818152602001828054600181600116156101000203166002900480156148d95780601f106148ae576101008083540402835291602001916148d9565b820191906000526020600020905b8154815290600101906020018083116148bc57829003601f168201915b505050505090806001018054600181600116156101000203166002900480601f0160208091040260200160405190810160405280929190818152602001828054600181600116156101000203166002900480156149775780601f1061494c57610100808354040283529160200191614977565b820191906000526020600020905b81548152906001019060200180831161495a57829003601f168201915b505050505090806002018054600181600116156101000203166002900480601f016020809104026020016040519081016040528092919081815260200182805460018160011615610100020316600290048015614a155780601f106149ea57610100808354040283529160200191614a15565b820191906000526020600020905b8154815290600101906020018083116149f857829003601f168201915b5050505050905083565b60336020528060005260406000206000915090505481565b60008082111515614a4757600080fd5b8183811515614a5257fe5b04905092915050565b60008183019050828110151515614a7157600080fd5b92915050565b614a8d6001600c54614a5b90919063ffffffff16565b600c819055506000600d54600c54811515614aa457fe5b061415614ab457614ab3615023565b5b6001430340601181905550565b6000828211151515614ad257600080fd5b818303905092915050565b600080602054111515614aef57600080fd5b600082118015614b0157506020548211155b1515614b0c57600080fd5b6000601f600084815260200190815260200160002090506000816000015414151515614b3757600080fd5b60006021600083600001548152602001908152602001600020549050600081141515614b6257600080fd5b6000600254600a0a6301406f4002600354101515614ba75760006d314dc6448d9338c15b0a00000000600454811515614b9757fe5b0490508060035402915050614bad565b60055490505b8060035401600381905550614c0a81600860003073ffffffffffffffffffffffffffffffffffffffff1673ffffffffffffffffffffffffffffffffffffffff16815260200190815260200160002054614a5b90919063ffffffff16565b600860003073ffffffffffffffffffffffffffffffffffffffff1673ffffffffffffffffffffffffffffffffffffffff16815260200190815260200160002081905550806021600085600001548152602001908152602001600020819055506001602254016022819055507fc4d2a0744d2542d38943e09effa7977cb89527fce223d12bf02ff6de50526b9260205482604051808381526020018281526020019250505060405180910390a160019350505050919050565b614ccc82826151b7565b506000601b5482029050614d2881603060008673ffffffffffffffffffffffffffffffffffffffff1673ffffffffffffffffffffffffffffffffffffffff16815260200190815260200160002054614a5b90919063ffffffff16565b603060008573ffffffffffffffffffffffffffffffffffffffff1673ffffffffffffffffffffffffffffffffffffffff16815260200190815260200160002081905550505050565b600081118015614dbf5750603260008373ffffffffffffffffffffffffffffffffffffffff1673ffffffffffffffffffffffffffffffffffffffff168152602001908152602001600020548111155b1515614dca57600080fd5b603160008373ffffffffffffffffffffffffffffffffffffffff1673ffffffffffffffffffffffffffffffffffffffff1681526020019081526020016000206000603260008573ffffffffffffffffffffffffffffffffffffffff1673ffffffffffffffffffffffffffffffffffffffff168152602001908152602001600020548152602001908152602001600020603160008473ffffffffffffffffffffffffffffffffffffffff1673ffffffffffffffffffffffffffffffffffffffff168152602001908152602001600020600083815260200190815260200160002060008201548160000155600182015481600101556002820154816002015590505060606040519081016040528060008152602001600081526020016000815250603160008473ffffffffffffffffffffffffffffffffffffffff1673ffffffffffffffffffffffffffffffffffffffff1681526020019081526020016000206000603260008673ffffffffffffffffffffffffffffffffffffffff1673ffffffffffffffffffffffffffffffffffffffff1681526020019081526020016000205481526020019081526020016000206000820151816000015560208201518160010155604082015181600201559050506001603260008473ffffffffffffffffffffffffffffffffffffffff1673ffffffffffffffffffffffffffffffffffffffff1681526020019081526020016000205403603260008473ffffffffffffffffffffffffffffffffffffffff1673ffffffffffffffffffffffffffffffffffffffff168152602001908152602001600020819055505050565b6000600b54430390506000600d5490506000603c82029050808310156150e357600061506b8461505d60648561537b90919063ffffffff16565b614a3790919063ffffffff16565b905060006150976103e8615089606485614ac190919063ffffffff16565b6153ac90919063ffffffff16565b90506150d66150c5826150b76107d0601054614a3790919063ffffffff16565b61537b90919063ffffffff16565b601054614ac190919063ffffffff16565b601081905550505061517f565b600061510b826150fd60648761537b90919063ffffffff16565b614a3790919063ffffffff16565b905060006151376103e8615129606485614ac190919063ffffffff16565b6153ac90919063ffffffff16565b9050615176615165826151576107d0601054614a3790919063ffffffff16565b61537b90919063ffffffff16565b601054614a5b90919063ffffffff16565b60108190555050505b43600b81905550600e54601054101561519c57600e546010819055505b600f5460105411156151b257600f546010819055505b505050565b600080821115156151c757600080fd5b6001603260008573ffffffffffffffffffffffffffffffffffffffff1673ffffffffffffffffffffffffffffffffffffffff1681526020019081526020016000205401603260008573ffffffffffffffffffffffffffffffffffffffff1673ffffffffffffffffffffffffffffffffffffffff168152602001908152602001600020819055506000601a544301905060606040519081016040528084815260200143815260200182815250603160008673ffffffffffffffffffffffffffffffffffffffff1673ffffffffffffffffffffffffffffffffffffffff1681526020019081526020016000206000603260008873ffffffffffffffffffffffffffffffffffffffff1673ffffffffffffffffffffffffffffffffffffffff1681526020019081526020016000205481526020019081526020016000206000820151816000015560208201518160010155604082015181600201559050508373ffffffffffffffffffffffffffffffffffffffff167f42e99fbad9601d25ee3bb515eeee966f97c3c383adadbe5720f651df8c18989d846040518082815260200191505060405180910390a2600191505092915050565b60008183029050600083148061539b575081838281151561539857fe5b04145b15156153a657600080fd5b92915050565b6000818311156153be578190506153c2565b8290505b92915050565b828054600181600116156101000203166002900490600052602060002090601f016020900481019282601f1061540957805160ff1916838001178555615437565b82800160010185558215615437579182015b8281111561543657825182559160200191906001019061541b565b5b50905061544491906154c8565b5090565b828054600181600116156101000203166002900490600052602060002090601f016020900481019282601f1061548957805160ff19168380011785556154b7565b828001600101855582156154b7579182015b828111156154b657825182559160200191906001019061549b565b5b5090506154c491906154c8565b5090565b6154ea91905b808211156154e65760008160009055506001016154ce565b5090565b9056fea165627a7a723058206a1140aa36b79578114b54ff89404a61b74a05fdb50a50cb6e7e10b2111012700029446973636f766572696e67206f7572206265737420467574757265732e204b6576696e20576164",
  "source": "pragma solidity ^0.5.2;\n// ----------------------------------------------------------------------------\n//this ICO smart contract has been compiled and tested with the Solidity Version 0.5.2\n//There are some minor changes comparing to ICO contract compiled with versions < 0.5.0\n// ----------------------------------------------------------------------------\n\n\n// ----------------------------------------------------------------------------\n\n// Safe maths\n\n// ----------------------------------------------------------------------------\n\nlibrary SafeMath {\n\n    function add(uint a, uint b) internal pure returns (uint c) {\n\n        c = a + b;\n\n        require(c >= a);\n\n    }\n\n    function sub(uint a, uint b) internal pure returns (uint c) {\n\n        require(b <= a);\n\n        c = a - b;\n\n    }\n\n    function mul(uint a, uint b) internal pure returns (uint c) {\n\n        c = a * b;\n\n        require(a == 0 || c / a == b);\n\n    }\n\n    function div(uint a, uint b) internal pure returns (uint c) {\n\n        require(b > 0);\n\n        c = a / b;\n\n    }\n\n}\n\n\n\nlibrary ExtendedMath {\n\n\n    //return the smaller of the two inputs (a or b)\n    function limitLessThan(uint a, uint b) internal pure returns (uint c) {\n\n        if(a > b) return b;\n\n        return a;\n\n    }\n}\n\n\n\ncontract ERC20Interface {\n    function totalSupply() public view returns (uint);\n    function balanceOf(address tokenOwner) public view returns (uint balance);\n    function transfer(address to, uint tokens) public returns (bool success);\n\n\n    function allowance(address tokenOwner, address spender) public view returns (uint remaining);\n    function approve(address spender, uint tokens) public returns (bool success);\n    function transferFrom(address from, address to, uint tokens) public returns (bool success);\n\n    event Transfer(address indexed from, address indexed to, uint tokens);\n    event Approval(address indexed tokenOwner, address indexed spender, uint tokens);\n}\n\n\n\ncontract EticaToken is ERC20Interface{\n\n    using SafeMath for uint;\n    using ExtendedMath for uint;\n\n    string public name = \"Etica\";\n    string public symbol = \"ETI\";\n    uint public decimals = 18;\n\n    uint public supply;\n    // fixed inflation rate after etica supply has reached 21 Million\n    uint public inflationrate;\n    uint public  periodrewardtemp; // Amount of ETI issued per period during phase1\n\n    // We don't want fake Satoshi again. Using it to prove founder's identity\n    address public founder;\n    string public foundermsgproof;\n\n    mapping(address => uint) public balances;\n\n    mapping(address => mapping(address => uint)) allowed;\n\n    //allowed[0x1111....][0x22222...] = 100;\n\n    // Mining system state variables\n    uint public _totalMiningSupply;\n\n\n\n     uint public latestDifficultyPeriodStarted;\n\n\n\n    uint public epochCount;//number of 'blocks' mined\n\n\n    uint public _BLOCKS_PER_READJUSTMENT = 1024;\n\n\n    //a little number\n    uint public  _MINIMUM_TARGET = 2**16;\n\n\n      //a big number is easier ; just find a solution that is smaller\n    //uint public  _MAXIMUM_TARGET = 2**224;  bitcoin uses 224\n    uint public  _MAXIMUM_TARGET = 2**242; // used for tests 243 much faster, 242 seems to be the limit where mining gets much harder\n    // uint public  _MAXIMUM_TARGET = 2**234; // used for prod\n\n\n    uint public miningTarget;\n\n    bytes32 public challengeNumber;   //generate a new one when a new reward is minted\n\n\n    uint public blockreward;\n\n\n    address public lastRewardTo;\n    uint public lastRewardEthBlockNumber;\n\n    bool locked = false;\n\n    mapping(bytes32 => bytes32) solutionForChallenge;\n\n    uint public tokensMinted;\n\n    // Mining system state variables\n\n\n\n\n    event Transfer(address indexed from, address indexed to, uint tokens);\n    event Approval(address indexed tokenOwner, address indexed spender, uint tokens);\n    event Mint(address indexed from, uint blockreward, uint epochCount, bytes32 newChallengeNumber);\n\n\n    constructor() public{\n      supply = 100 * (10**18); // initial supply equals 100 ETI\n      balances[address(this)] = balances[address(this)].add(100 * (10**18)); // 100 ETI as the default contract balance. To avoid any issue that could arise from negative contract balance because of significant numbers approximations\n\n\n      // PHASE 1 (before 21 Million ETI has been reached) -->\n      // 10 500 000 ETI to be issued as periodrewardtemp for ETICA reward system\n      // 10 500 000 ETI to be MINED\n\n\n      // <--phase1--> periodrewardtemp:\n      // fixed Etica issued per period (7 days) during phase1 (before 21 Million ETI has been reached)\n      // The amount of reward will be twice of first rewards of phase 2\n      // Calculation of first rewards of phase 2:\n      // 21 000 000 * 0.26180339887498948482045868343656 = 549787,13763747791812296323521678 ETI (first year reward)\n      // 549787,13763747791812296323521678 / 52.1429 = 10543,854247413893706007207792754 ETI (first weeks reward of phase2)\n      // 10543,854247413893706007207792754 * 2 = 21087,708494827787412014415585507 ETI\n      periodrewardtemp = 21087708494827787412014; // 21087,708494827787412014415585507 ETI per period (7 days) will take about 9,5491502812526287948853291408588 years to reach 10 500 000 ETI\n\n\n      // <--phase1--> mining:\n      _totalMiningSupply = 10500000 * 10**uint(decimals);\n\n      if(locked) revert();\n      locked = true;\n\n      tokensMinted = 0;\n\n\n      // The amount of etica mined per 7 days will be twice of first rewards of phase 2\n      // Calculation of first rewards of phase 2:\n      // 21 000 000 * 0.26180339887498948482045868343656 = 549787,13763747791812296323521678 ETI (first year reward)\n      // 549787,13763747791812296323521678 / 52.1429 = 10543,854247413893706007207792754 ETI (first weeks reward of phase2)\n      // 10543,854247413893706007207792754 * 2 = 21087,708494827787412014415585507 ETI per 7 days\n      // 21087,708494827787412014415585507 ETI per 7 days = 20,920345728995820845252396414193 ETI per block (10 minutes)\n      blockreward = 20920345728995820845;\n\n      miningTarget = _MAXIMUM_TARGET;\n\n      latestDifficultyPeriodStarted = block.number;\n\n      _startNewMiningEpoch();\n\n      // PHASE 1 <--\n\n      // --> PHASE 2\n      // Golden number power 2: 1,6180339887498948482045868343656 * 1,6180339887498948482045868343656 = 2.6180339887498948482045868343656;\n      inflationrate = 26180339887498948482045868343656; // (need to multiple by 10^(-33) to get 0.026180339887498948482045868343656);\n\n       // PHASE 2 <--\n\n\n       //The founder gets nothing! You must mine or earn the Etica ERC20 token\n       //balances[founder] = _totalMiningSupply;\n       //Transfer(address(0), founder, _totalMiningSupply);\n      founder = msg.sender;\n      foundermsgproof = \"Discovering our best Futures. Kevin Wad\";\n    }\n\n\n    function allowance(address tokenOwner, address spender) view public returns(uint){\n        return allowed[tokenOwner][spender];\n    }\n\n\n    //approve allowance\n    function approve(address spender, uint tokens) public returns(bool){\n        require(balances[msg.sender] >= tokens);\n        require(tokens > 0);\n\n        allowed[msg.sender][spender] = tokens;\n        emit Approval(msg.sender, spender, tokens);\n        return true;\n    }\n\n    //transfer tokens from the  owner account to the account that calls the function\n    function transferFrom(address from, address to, uint tokens) public returns(bool){\n\n      balances[from] = balances[from].sub(tokens);\n\n      allowed[from][msg.sender] = allowed[from][msg.sender].sub(tokens);\n\n      balances[to] = balances[to].add(tokens);\n\n      emit Transfer(from, to, tokens);\n\n      return true;\n    }\n\n    function totalSupply() public view returns (uint){\n        return supply;\n    }\n\n    function balanceOf(address tokenOwner) public view returns (uint balance){\n         return balances[tokenOwner];\n     }\n\n\n    function transfer(address to, uint tokens) public returns (bool success){\n         require(tokens > 0);\n\n         balances[msg.sender] = balances[msg.sender].sub(tokens);\n\n         balances[to] = balances[to].add(tokens);\n\n         emit Transfer(msg.sender, to, tokens);\n\n         return true;\n     }\n\n\n     // -------------  Mining system functions ---------------- //\n\n         function mint(uint256 nonce, bytes32 challenge_digest) public returns (bool success) {\n\n\n             //the PoW must contain work that includes a recent ethereum block hash (challenge number) and the msg.sender's address to prevent MITM attacks\n             bytes32 digest =  keccak256(abi.encodePacked(challengeNumber, msg.sender, nonce));\n\n             //the challenge digest must match the expected\n             if (digest != challenge_digest) revert();\n\n             //the digest must be smaller than the target\n             if(uint256(digest) > miningTarget) revert();\n\n\n             //only allow one reward for each challenge\n              bytes32 solution = solutionForChallenge[challengeNumber];\n              solutionForChallenge[challengeNumber] = digest;\n              if(solution != 0x0) revert();  //prevent the same answer from awarding twice\n\n\n             //Cannot mint more tokens than there are: maximum ETI ever mined: _totalMiningSupply + blockreward\n             assert(tokensMinted < _totalMiningSupply);\n\n             tokensMinted = tokensMinted.add(blockreward);\n             supply = supply.add(blockreward);\n             balances[msg.sender] = balances[msg.sender].add(blockreward);\n\n             //set readonly diagnostics data\n             lastRewardTo = msg.sender;\n             lastRewardEthBlockNumber = block.number;\n\n\n              _startNewMiningEpoch();\n\n               emit Mint(msg.sender, blockreward, epochCount, challengeNumber );\n\n            return true;\n\n         }\n\n\n     //a new 'block' to be mined\n     function _startNewMiningEpoch() internal {\n\n\n       epochCount = epochCount.add(1);\n\n       //every so often, readjust difficulty. Dont readjust when deploying\n       if(epochCount % _BLOCKS_PER_READJUSTMENT == 0)\n       {\n         _reAdjustDifficulty();\n       }\n\n\n       //make the latest ethereum block hash a part of the next challenge for PoW to prevent pre-mining future blocks\n       //do this last since this is a protection mechanism in the mint() function\n       challengeNumber = blockhash(block.number - 1);\n\n     }\n\n\n\n\n     //https://en.bitcoin.it/wiki/Difficulty#What_is_the_formula_for_difficulty.3F\n     //as of 2017 the bitcoin difficulty was up to 17 zeroes, it was only 8 in the early days\n\n     //readjust the target by 5 percent\n     function _reAdjustDifficulty() internal {\n\n\n         uint ethBlocksSinceLastDifficultyPeriod = block.number - latestDifficultyPeriodStarted;\n         //assume 360 ethereum blocks per hour\n\n         //we want miners to spend 10 minutes to mine each 'block', about 60 ethereum blocks = one Mining system epoch\n         uint epochsMined = _BLOCKS_PER_READJUSTMENT; //256\n\n         uint targetEthBlocksPerDiffPeriod = epochsMined * 60; //should be 60 times slower than ethereum\n\n         //if there were less eth blocks passed in time than expected\n         if( ethBlocksSinceLastDifficultyPeriod < targetEthBlocksPerDiffPeriod )\n         {\n           uint excess_block_pct = (targetEthBlocksPerDiffPeriod.mul(100)).div( ethBlocksSinceLastDifficultyPeriod );\n\n           uint excess_block_pct_extra = excess_block_pct.sub(100).limitLessThan(1000);\n           // If there were 5% more blocks mined than expected then this is 5.  If there were 100% more blocks mined than expected then this is 100.\n\n           //make it harder\n           miningTarget = miningTarget.sub(miningTarget.div(2000).mul(excess_block_pct_extra));   //by up to 50 %\n         }else{\n           uint shortage_block_pct = (ethBlocksSinceLastDifficultyPeriod.mul(100)).div( targetEthBlocksPerDiffPeriod );\n\n           uint shortage_block_pct_extra = shortage_block_pct.sub(100).limitLessThan(1000); //always between 0 and 1000\n\n           //make it easier\n           miningTarget = miningTarget.add(miningTarget.div(2000).mul(shortage_block_pct_extra));   //by up to 50 %\n         }\n\n\n\n         latestDifficultyPeriodStarted = block.number;\n\n         if(miningTarget < _MINIMUM_TARGET) //very difficult\n         {\n           miningTarget = _MINIMUM_TARGET;\n         }\n\n         if(miningTarget > _MAXIMUM_TARGET) //very easy\n         {\n           miningTarget = _MAXIMUM_TARGET;\n         }\n     }\n\n\n     //this is a recent ethereum block hash, used to prevent pre-mining future blocks\n     function getChallengeNumber() public view returns (bytes32) {\n         return challengeNumber;\n     }\n\n     //the number of zeroes the digest of the PoW solution requires.  Auto adjusts\n      function getMiningDifficulty() public view returns (uint) {\n         return _MAXIMUM_TARGET.div(miningTarget);\n     }\n\n     function getMiningTarget() public view returns (uint) {\n        return miningTarget;\n    }\n\n\n     //help debug mining software\n     function getMintDigest(uint256 nonce, bytes32 challenge_digest, bytes32 challenge_number) public view returns (bytes32 digesttest) {\n\n         bytes32 digest = keccak256(abi.encodePacked(challenge_number,msg.sender,nonce));\n\n         return digest;\n\n       }\n\n         //help debug mining software\n       function checkMintSolution(uint256 nonce, bytes32 challenge_digest, bytes32 challenge_number, uint testTarget) public view returns (bool success) {\n\n           bytes32 digest = keccak256(abi.encodePacked(challenge_number,msg.sender,nonce));\n\n           if(uint256(digest) > testTarget) revert();\n\n           return (digest == challenge_digest);\n\n         }\n\n\n// ------------------      Mining system functions   -------------------------  //\n\n// ------------------------------------------------------------------------\n\n// Don't accept ETH\n\n// ------------------------------------------------------------------------\n\nfunction () payable external {\n\n    revert();\n\n}\n\n}\n\n\n\n\ncontract EticaRelease is EticaToken {\n  /* --------- PROD -------------\nuint TESTING_STARTING_BLOCK_NUMBER = 7739267; // used only for testing as ganache starts at block number 0\nuint REWARD_INTERVAL = 42000; // periods duration (in number of blocks) 42000 blocks = 7 jours (6000 blocks per day)\nuint STAKING_DURATION = 168000; // default stake duration (in number of blocks) 168000 blocks = 28 jours (6000 blocks per day)\nuint ETICA_TO_BOSOM_RATIO = 1; //\n     --------- PROD ------------- */\n\n\nuint TESTING_STARTING_BLOCK_NUMBER = 7739267; // used only for testing as ganache starts at block number 0\nuint REWARD_INTERVAL = 42; // periods duration (in number of blocks) 42000 blocks = 7 jours (6000 blocks per day)\nuint STAKING_DURATION = 168; // default stake duration (in number of blocks) 168000 blocks = 28 jours (6000 blocks per day)\nuint ETICA_TO_BOSOM_RATIO = 1; //\n\nuint public DISEASE_CREATION_AMOUNT = 100 * 10**uint(decimals); // 100 ETI amount to pay for creating a new disease. Necessary in order to avoid spam. Will create a function that periodically increase it in order to take into account inflation\nuint public PROPOSAL_CREATION_AMOUNT = 10 * 10**uint(decimals); // 10 ETI amount to pay for creating a new proposal. Necessary in order to avoid spam. Will create a function that periodically increase it in order to take into account inflation\n\n\nuint TIER_ONE_THRESHOLD = 50; // threshold for proposal to be accepted. 50 means 50 % 60 would mean 60%\n\nstruct Period{\n    uint id;\n    uint interval;\n    uint curation_sum;\n    uint editor_sum;\n    uint total_voters; // TOTAL nb of voters in this period\n}\n\n  struct Stake{\n      uint amount;\n      uint startBlock;\n      uint endBlock;\n  }\n\n  // -----------  PROPOSALS  ------------  //\n\n\n// Stuct used only inside Proposals as Proposals' s Targets.\n// The software has no independent Target structs with Target ids and details ...\n  struct Target{\n      string name;\n      string kind; // Example: GPCR, Enzyme, Protein Activity ...\n      uint status; // Example: Exploration, Validation, Fully Validated, Null ...\n      string freefield; // used by front end apps and communities to fit their needs and process\n  }\n\n  // Stuct used only inside Proposals as Proposals' s Compounds.\n  // The software has no independent Compounds structs with Compounds ids and details ...\n    struct Compound{\n        string name;\n        string kind; // Example: Small Organic Molecules, Large Protein Molecules ...\n        uint result; // Example: Failure, Success, Undertermined, Null ...\n        string freefield; // used by front end apps and communities to fit their needs and process\n    }\n\n\n// general information of Proposal:\n  struct Proposal{\n      uint id;\n      bytes32 proposed_release_hash; // Hash of \"raw_release_hash + name of Disease\"\n      bytes32 disease_id;\n      uint period_id;\n      address proposer; // account address of the proposer\n      string title; // Title of the Proposal\n      string description; // Description of the Proposal\n  }\n\n// main data of Proposal:\n  struct ProposalData{\n\n      uint starttime; // epoch time of the proposal\n      uint endtime;  // voting limite\n      uint finalized_time; // when first voteclm() was called\n      ProposalStatus status; // will be initialized with value ProposalStatus.Pending\n      ProposalStatus prestatus; // will be initialzed with value ProposalStatus.Pending\n      bool istie;  // will be initialized with value 0. if prop is tie it won't slash nor reward participants\n      uint nbvoters;\n      uint slashingratio; // will be initialized with value 0. solidity does not support float type. So will emulate float type by using uint\n      uint forvotes;\n      uint againstvotes;\n      uint lastcuration_weight; // will be initialized with value 0.\n      uint lasteditor_weight; // will be initialized with value 0.\n  }\n\n  struct ProposalIpfs{\n    // IPFS hashes of the files:\n    string raw_release_hash; // IPFS hash of the files of the proposal\n    string old_release_hash; // raw IPFS hash of the old version\n    string grandparent_hash; // raw IPFS hash of the grandparent\n  }\n\n  struct ProposalFreefield{\n    string firstfield;\n    string secondfield;\n    string thirdfield;\n  }\n\n\n  struct ProposalTenor{\n      Target[] targets;\n      Compound[] compounds;\n  }\n\n  // -----------  PROPOSALS  ------------  //\n\n  // -----------  VOTES  ----------------  //\n  struct Vote{\n    uint id; // not necessary, may remove this field\n    bytes32 proposal_hash; // proposed_release_hash of proposal\n    bool approve;\n    bool is_editor;\n    uint amount;\n    address voter; // address of the voter\n    uint timestamp; // epoch time of the vote\n  }\n    // -----------  VOTES  ----------------  //\n\n  struct Disease{\n      bytes32 disease_hash;\n      string name;\n      string description;\n  }\n\n\nenum ProposalStatus { Rejected, Accepted, Pending, Singlevoter }\n\nmapping(uint => Period) public periods;\nuint public periodsCounter;\nmapping(uint => uint) public PeriodsIssued; // keeps track of which periods have already issued ETI\nuint public PeriodsIssuedCounter;\nmapping(uint => uint) public IntervalsPeriods; // keeps track of which intervals have already a period\nuint public IntervalsPeriodsCounter;\n\n\nmapping(uint => Disease) public diseases; // keeps track of which intervals have already a period\nuint public diseasesCounter;\nmapping(bytes32 => uint) public diseasesbyIds; // example:    [leiojej757575ero] => [0]  where leiojej757575ero is id of a Disease\nmapping(string => bytes32) private diseasesbyNames; // example:    [\"name of a disease\"] => [leiojej757575ero]  where leiojej757575ero is id of a Disease. Set visibility to private because mapping with strings as keys have issues when public visibility\n\n// -----------  PROPOSALS  ------------  //\nmapping(bytes32 => Proposal) public proposals;\nuint public proposalsCounter;\n\nmapping(bytes32 => ProposalData) public propsdatas;\nmapping(bytes32 => ProposalIpfs) public propsipfs;\nmapping(bytes32 => ProposalFreefield) public propsfreefields;\nmapping(bytes32 => ProposalTenor) private propstenors;\n// -----------  PROPOSALS  ------------  //\n\n// -----------  VOTES  ----------------  //\nmapping(bytes32 => mapping(address => Vote)) public votes;\n// -----------  VOTES  ----------------  //\n\nmapping(address => uint) public bosoms;\nmapping(address => mapping(uint => Stake)) public stakes;\nmapping(address => uint) public stakesCounters; // keeps track of how many stakes for each user\n// stakes ----> slashing function will need to loop trough stakes. Can create issues for claiming votes:\n// will create a function to gather stakes when user has to much stakes.\n// The function will take a completion_time as parameter and will loop trough 50 indexes and will put all stakes with\n// lower completion_time into a  single new stake with parameter completion_time\n\n// Blocked ETI amount, user has votes with this amount in process and can't retrieve this amount before the system knows if the user has to be slahed\nmapping(address => uint) public blockedeticas;\n\nevent CreatedPeriod(uint period_id, uint interval);\nevent IssuedPeriod(uint period_id, uint periodreward);\nevent NewStake(address indexed staker, uint amount);\nevent StakeClaimed(address indexed staker, uint stakeidx);\nevent NewDisease(uint diseaseindex, string title, string description);\nevent NewProposal(bytes32 proposed_release_hash, bytes32 diseasehash, string title, string description);\n\n\n\n// -------------  Reward system functions ---------------- //\n\nfunction issue(uint _id) internal returns (bool success) {\n  // we check whether there is at least one period\n  require(periodsCounter > 0);\n\n  // we check that the period exists\n  require(_id > 0 && _id <= periodsCounter);\n\n  // we retrieve the period\n  Period storage period = periods[_id];\n\n  // we check that the period is legit and has been retrieved\n  require(period.id != 0);\n\n\n//only allow one issuance for each period\nuint rwd = PeriodsIssued[period.id];\nif(rwd != 0x0) revert();  //prevent the same period from issuing twice\n\nuint _periodsupply;\n\n// era 2 (after 21 000 000 ETI has been reached)\nif(supply >= 21000000 * 10**(decimals)){\n uint _rate = uint(inflationrate / 10**(33));\n _periodsupply = supply * _rate;\n}\n// era 1 (before 21 000 000 ETI has been reached)\nelse {\n  _periodsupply = periodrewardtemp;\n}\n\nsupply = supply + _periodsupply;\nbalances[address(this)] = balances[address(this)].add(_periodsupply);\nPeriodsIssued[period.id] = _periodsupply;\nPeriodsIssuedCounter = PeriodsIssuedCounter + 1;\n\nemit IssuedPeriod(periodsCounter, _periodsupply);\n\nreturn true;\n\n}\n\n// --- WARNING this function should be internal, will be called by propose proposal function\n// let public for testing only\n// create a period\nfunction newPeriod() public {\n\n  uint _interval = uint((block.number + TESTING_STARTING_BLOCK_NUMBER).div(REWARD_INTERVAL));\n\n  //only allow one period for each interval\n  uint rwd = IntervalsPeriods[_interval];\n  if(rwd != 0x0) revert();  //prevent the same interval from having 2 periods\n\n\n  periodsCounter++;\n\n  // store this interval period\n  periods[periodsCounter] = Period(\n    periodsCounter,\n    _interval,\n    0x0, //_curation_sum\n    0x0, //_editor_sum\n    0x0 //_total_voters; // TOTAL nb of voters in this period\n  );\n\n  // an interval cannot have 2 Periods\n  IntervalsPeriods[_interval] = periodsCounter;\n  IntervalsPeriodsCounter++;\n\n  // issue ETI for this Period Reward\n  issue(periodsCounter);\n\n  emit CreatedPeriod(periodsCounter, _interval);\n}\n\n\n\n\n// -------------  Reward system functions ---------------- //\n\n\n// ------- STAKING ---------- //\n// Stake etica in exchange for bosom\nfunction eticatobosoms(address _staker, uint _amount) public returns (bool success){\n  require(msg.sender == _staker);\n  require(_amount > 0); // even if transfer require amount > 0 I prefer checking for more security and very few more gas\n  // transfer _amount ETI from staker wallet to contract balance:\n  transfer(address(this), _amount);\n\n  // Get bosoms and add Stake\n  bosomget(_staker, _amount);\n\n\n  return true;\n\n}\n\n\n\n// ----  Get bosoms and add Stake ------  //\n\n// Only contract must be able to call this function:\nfunction bosomget (address _staker, uint _amount) internal {\n\naddStake(_staker, _amount);\n\nuint newBosoms = _amount * ETICA_TO_BOSOM_RATIO;\nbosoms[_staker] = bosoms[_staker].add(newBosoms);\n\n}\n\n\nfunction addStake(address _staker, uint _amount) internal returns (bool success) {\n\n    require(_amount > 0); // may not be necessary as _amount is uint but I let it for better security\n    stakesCounters[_staker] = stakesCounters[_staker] + 1; // notice that first stake will have the index of 1 thus not 0 !\n\n    uint endBlock = block.number + STAKING_DURATION;\n\n    // store this stake in _staker's stakes with the index stakesCounters[_staker]\n    stakes[_staker][stakesCounters[_staker]] = Stake(\n      _amount, // stake amount\n      block.number, // StartBlock\n      endBlock // EndBlock\n    );\n\n    emit NewStake(_staker, _amount);\n\n    return true;\n}\n\n// ----  Get bosoms and add Stake ------  //\n\n\n// ----  Redeem a Stake ------  //\n\nfunction stakeclmidx (uint _stakeidx) public {\n\n  // we check that the stake exists\n  require(_stakeidx > 0 && _stakeidx <= stakesCounters[msg.sender]);\n\n  // we retrieve the stake\n  Stake storage _stake = stakes[msg.sender][_stakeidx];\n\n  // The stake must be over\n  require(block.number > _stake.endBlock);\n\n  require(_stake.amount > 0);\n\n  // transfer back ETI from contract to staker:\n  balances[address(this)] = balances[address(this)].sub(_stake.amount);\n\n  balances[msg.sender] = balances[msg.sender].add(_stake.amount);\n\n  emit Transfer(address(this), msg.sender, _stake.amount);\n  emit StakeClaimed(msg.sender, _stakeidx);\n\n  // deletes the stake\n  _deletestake(msg.sender, _stakeidx);\n\n}\n\nfunction _deletestake(address _staker,uint _index) internal {\n  // we check that the stake exists\n  require(_index > 0 && _index <= stakesCounters[_staker]);\n\n  // replace value of stake to be deleted by value of last stake\n  stakes[_staker][_index] = stakes[_staker][stakesCounters[_staker]];\n\n  // remove last stake\n  stakes[_staker][stakesCounters[_staker]] = Stake(\n    0x0, // amount\n    0x0, // StartBlock\n    0x0 // EndBlock\n    );\n\n  // updates stakesCounter of _staker\n  stakesCounters[_staker] = stakesCounters[_staker] - 1;\n}\n\n// ----  Redeem a Stake ------  //\n\n\nfunction stakescount(address _staker) public view returns (uint slength){\n  return stakesCounters[_staker];\n}\n\n// ------- STAKING ---------- //\n\n\n\n\n\nfunction createdisease(string memory _name, string memory _description) public {\n\n\n  // --- REQUIRE PAYMENT FOR ADDING A DISEASE TO CREATE A BARRIER TO ENTRY AND AVOID SPAM --- //\n\n  // make sure the user has enough ETI to create a disease\n  require(balances[msg.sender] >= DISEASE_CREATION_AMOUNT);\n  // transfer DISEASE_CREATION_AMOUNT ETI from user wallet to contract wallet:\n  transfer(address(this), DISEASE_CREATION_AMOUNT);\n\n  // --- REQUIRE PAYMENT FOR ADDING A DISEASE TO CREATE A BARRIER TO ENTRY AND AVOID SPAM --- //\n\n\n  bytes32 _diseasehash = sha256(abi.encodePacked(_name));\n\n  diseasesCounter = diseasesCounter + 1; // notice that first disease will have the index of 1 thus not 0 !\n\n  //check: if the disease is new we continue, otherwise we exit\n   if(diseasesbyIds[_diseasehash] != 0x0) revert();  //prevent the same disease from being created twice. The software manages diseases uniqueness based on their unique english name. Note that even the first disease will nott have index of 0 thus should pass this check\n\n\n   // store this stake in _staker's stakes with the index stakesCounters[_staker]\n   diseases[diseasesCounter] = Disease(\n     _diseasehash,\n     _name,\n     _description\n   );\n\n   // Updates diseasesbyIds and diseasesbyNames mappings:\n   diseasesbyIds[_diseasehash] = diseasesCounter;\n   diseasesbyNames[_name] = _diseasehash;\n\n   emit NewDisease(diseasesCounter, _name, _description);\n\n}\n\n\n\nfunction propose(bytes32 _diseasehash, string memory _title, string memory _description, string memory raw_release_hash,\n  string memory old_release_hash, string memory grandparent_hash) public {\n\n    // make sure the user has enough ETI to create a disease\n    require(balances[msg.sender] >= PROPOSAL_CREATION_AMOUNT);\n\n    //check if the disease exits\n     require(diseasesbyIds[_diseasehash] > 0 && diseasesbyIds[_diseasehash] <= diseasesCounter);\n     if(diseases[diseasesbyIds[_diseasehash]].disease_hash != _diseasehash) revert(); // second check not necessary but I decided to add it as the gas cost value for security is worth it\n\n\n     bytes32 _proposed_release_hash = sha256(abi.encodePacked(raw_release_hash, _diseasehash));\n\n     proposalsCounter = proposalsCounter + 1; // notice that first proposal will have the index of 1 thus not 0 !\n\n\n     // store this disease in diseases mapping.\n     // ------- Warning ----\n     // Need to  implement check that proposal does not already exitsts\n     Proposal storage proposal = proposals[_proposed_release_hash];\n     // ------- Warning ----\n\n       proposal.id = proposalsCounter;\n       proposal.disease_id = _diseasehash; // _diseasehash has already been checked to equal diseases[diseasesbyIds[_diseasehash]].disease_hash\n       // periodid,\n       proposal.proposed_release_hash = _proposed_release_hash; // Hash of \"raw_release_hash + name of Disease\",\n       proposal.proposer = msg.sender;\n       proposal.title = _title;\n       proposal.description = _description;\n\n\n       // Proposal IPFS:\n       ProposalIpfs storage proposalipfs = propsipfs[_proposed_release_hash];\n       proposalipfs.raw_release_hash = raw_release_hash;\n       proposalipfs.old_release_hash = old_release_hash;\n       proposalipfs.grandparent_hash = grandparent_hash;\n\n\n       //  Proposal Data:\n       ProposalData storage proposaldata = propsdatas[_proposed_release_hash];\n       //starttime,\n       //endtime,\n       //finalized_time,\n       proposaldata.status = ProposalStatus.Pending;\n       proposaldata.istie = false;\n       proposaldata.prestatus = ProposalStatus.Pending;\n       proposaldata.nbvoters = 1;\n       proposaldata.slashingratio = 0;\n       proposaldata.forvotes = PROPOSAL_CREATION_AMOUNT;\n       proposaldata.againstvotes = 0;\n       proposaldata.lastcuration_weight = 0;\n       proposaldata.lasteditor_weight = 0;\n\n\n  // --- REQUIRE DEFAULT VOTE TO CREATE A BARRIER TO ENTRY AND AVOID SPAM --- //\n\n  // make sure the user has enough ETI to create a disease\n  require(balances[msg.sender] >= PROPOSAL_CREATION_AMOUNT);\n\n\n  // Place the default vote\n  // votebyhash( msg.sender, concate_me, true, PROPOSAL_CREATION_AMOUNT );\n\n  // --- REQUIRE DEFAULT VOTE TO CREATE A BARRIER TO ENTRY AND AVOID SPAM --- //\n\n\n    emit NewProposal(_proposed_release_hash, _diseasehash, _title, _description);\n\n}\n\n\n\n function defaultvote(bytes32 _proposed_release_hash, bool _approved, uint _amount) internal {\n   //check if the proposal exits and we get the right proposal:\n   Proposal storage proposal = proposals[_proposed_release_hash];\n   require(proposal.id > 0 && proposal.proposed_release_hash == _proposed_release_hash);\n\n    bool voterIsProposer = false;\n\n    if (msg.sender == proposal.proposer) {\n    voterIsProposer = true;\n    }\n\n\n   ProposalData storage proposaldata = propsdatas[_proposed_release_hash];\n    // Verify voting is still in progress\n    require( block.number < proposaldata.endtime);\n\n    // Consume bosom:\n    require(bosoms[msg.sender] >= _amount); // may not be necessary as handled by safemath sub function\n    bosoms[msg.sender] = bosoms[msg.sender].sub(_amount);\n\n\n   // get Period of Proposal:\n   Period storage period = periods[proposal.period_id];\n\n   // PROPOSAL VAR UPDATE\n   uint newproposal_forvotes = proposaldata.forvotes;\n   uint newproposal_againstvotes = proposaldata.againstvotes;\n   uint newproposal_slashingratio = proposaldata.slashingratio;\n   uint newproposal_nbvoters = proposaldata.nbvoters;\n   ProposalStatus newproposal_prestatus = proposaldata.prestatus;\n   uint newproposal_curationweight = proposaldata.lastcuration_weight;\n   uint newproposal_editorweight = proposaldata.lasteditor_weight;\n\n   // PERIOD VAR UPDATE\n   uint newperiodcurationbosoms = period.curation_sum;\n   uint newperiodeditorbosoms = period.editor_sum;\n\n\n    // Block Eticas in eticablkdtbl to prevent user from unstaking before eventual slash\n    blockedeticas[msg.sender] = blockedeticas[msg.sender].add(_amount);\n\n\n    // store vote:\n    Vote storage vote = votes[proposal.proposed_release_hash][msg.sender];\n    vote.proposal_hash = proposal.proposed_release_hash;\n    vote.approve = _approved;\n    vote.is_editor = voterIsProposer;\n    vote.amount = _amount;\n    vote.voter = msg.sender;\n    vote.timestamp = block.number;\n\n   // first vote of Proposal requires less checks thus less gas\n\n\n      // first Vote of Proposal must be a for vote:\n      require(_approved); // First vote must be a for vote as it is done by the author of proposal otherwise it would be incoherent\n\n\n      // PROPOSAL VAR UPDATE\n      newproposal_forvotes = _amount;\n      newproposal_againstvotes = 0; // not necessary\n      newproposal_slashingratio = 100;\n      newproposal_nbvoters = 1;\n      newproposal_prestatus = ProposalStatus.Singlevoter;\n      // Proposal new weight\n      newproposal_curationweight = _amount;\n      newproposal_editorweight = _amount;\n\n      // PERIOD VAR UPDATE\n      // Proposal's Period new weight\n      newperiodcurationbosoms = period.curation_sum + _amount;\n      newperiodeditorbosoms = period.editor_sum + _amount;\n\n\n      // UPDATE PROPOSAL:\n      proposaldata.slashingratio = newproposal_slashingratio;\n      proposaldata.forvotes = newproposal_forvotes;\n      proposaldata.nbvoters = newproposal_nbvoters;\n      proposaldata.prestatus = newproposal_prestatus;\n      proposaldata.lastcuration_weight = newproposal_curationweight;\n      proposaldata.lasteditor_weight = newproposal_editorweight;\n\n      // UPDATE PERIOD:\n      period.curation_sum = newperiodcurationbosoms;\n      period.editor_sum = newperiodeditorbosoms;\n\n }\n\n\n function votebyhash(bytes32 _proposed_release_hash, bool _approved, uint _amount) public {\n\n//check if the proposal exits and we get the right proposal:\nProposal storage proposal = proposals[_proposed_release_hash];\nrequire(proposal.id > 0 && proposal.proposed_release_hash == _proposed_release_hash);\n\n bool voterIsProposer = false;\n\n if (msg.sender == proposal.proposer) {\n voterIsProposer = true;\n }\n\n\nProposalData storage proposaldata = propsdatas[_proposed_release_hash];\n // Verify voting is still in progress\n //require( block.number < proposaldata.endtime);\n\n // Consume bosom:\n require(bosoms[msg.sender] >= _amount); // may not be necessary as handled by safemath sub function\n bosoms[msg.sender] = bosoms[msg.sender].sub(_amount);\n\n\n// get Period of Proposal:\nPeriod storage period = periods[proposal.period_id];\n\n\n // Block Eticas in eticablkdtbl to prevent user from unstaking before eventual slash\n blockedeticas[msg.sender] = blockedeticas[msg.sender].add(_amount);\n\n\n // store vote:\n Vote storage vote = votes[proposal.proposed_release_hash][msg.sender];\n vote.proposal_hash = proposal.proposed_release_hash;\n vote.approve = _approved;\n vote.is_editor = voterIsProposer;\n vote.amount = _amount;\n vote.voter = msg.sender;\n vote.timestamp = block.number;\n\n proposaldata.nbvoters = proposaldata.nbvoters + 1;\n\n     // PROPOSAL VAR UPDATE\n     if(_approved){\n      proposaldata.forvotes = proposaldata.forvotes + _amount;\n     }\n     else {\n       proposaldata.againstvotes = proposaldata.againstvotes + _amount;\n     }\n\n\n     // Determine slashing conditions\n     bool _isapproved = false;\n     bool _istie = false;\n     uint totalVotes = proposaldata.forvotes + proposaldata.againstvotes;\n     uint _forvotes_numerator = proposaldata.forvotes * 100; // (newproposal_forvotes / totalVotes) will give a number between 0 and 1. Multiply by 100 to stare it as uint\n     uint _forvotesdiff_numerator = (proposaldata.forvotes - proposaldata.againstvotes) * 100; // ((newproposal_forvotes - proposaldata.againstvotes) / totalVotes) will give a number between 0 and 1. Multiply by 100 to stare it as uint\n     uint _againstvotesdiff_numerator = (proposaldata.againstvotes - proposaldata.forvotes) * 100; // ((proposaldata.againstvotes - newproposal_forvotes) / totalVotes) will give a number between 0 and 1. Multiply by 100 to stare it as uint\n\n     if ((_forvotes_numerator / totalVotes) >= TIER_ONE_THRESHOLD){\n    _isapproved = true;\n    if ((_forvotes_numerator / totalVotes) == TIER_ONE_THRESHOLD){\n        _istie = true;\n    }\n    }\n\n    proposaldata.istie = _istie;\n\n    if (_isapproved){\n    proposaldata.slashingratio = _forvotesdiff_numerator / totalVotes;\n    }\n    else{\n    proposaldata.slashingratio = _againstvotesdiff_numerator / totalVotes;\n    }\n\n    // Make sure no weird bugs cause the slash reward to under/overflow\n     require(proposaldata.slashingratio >=0 && proposaldata.slashingratio <= 100);\n\n\n  /*   // Mark proposal as accepted or rejected. Ties are rejected\n       if ( proposaldata.forvotes > proposaldata.againstvotes){\n             proposaldata.prestatus =  ProposalStatus.Accepted;\n             proposaldata.lastcuration_weight = proposaldata.forvotes * proposaldata.nbvoters;\n             proposaldata.lasteditor_weight = proposaldata.forvotes * proposaldata.nbvoters;\n         }\n         else{\n             proposaldata.prestatus =  ProposalStatus.Rejected;\n             proposaldata.lastcuration_weight = proposaldata.againstvotes * proposaldata.nbvoters;\n             proposaldata.lasteditor_weight = 0;\n         } */\n\n\n         // Proposal and Period new weight\n         if (_istie) {\n         proposaldata.prestatus =  ProposalStatus.Rejected;\n         proposaldata.lastcuration_weight = 0;\n         proposaldata.lasteditor_weight = 0;\n         // Proposal tied, remove proposal curation and editor sum\n         period.curation_sum = period.curation_sum - proposaldata.lastcuration_weight;\n         period.editor_sum = period.editor_sum - proposaldata.lasteditor_weight;\n         }\n         else {\n             // Proposal approved, strengthen curation sum\n         if (_isapproved){\n             proposaldata.prestatus =  ProposalStatus.Accepted;\n             proposaldata.lastcuration_weight = proposaldata.forvotes * proposaldata.nbvoters;\n             proposaldata.lasteditor_weight = proposaldata.forvotes * proposaldata.nbvoters;\n             // Proposal approved, replace proposal curation and editor sum with forvotes\n             period.curation_sum = period.curation_sum - proposaldata.lastcuration_weight + proposaldata.lastcuration_weight;\n             period.editor_sum = period.editor_sum - proposaldata.lasteditor_weight + proposaldata.lasteditor_weight;\n         }\n         else{\n             proposaldata.prestatus =  ProposalStatus.Rejected;\n             proposaldata.lastcuration_weight = proposaldata.againstvotes * proposaldata.nbvoters;\n             proposaldata.lasteditor_weight = 0;\n             // Proposal rejected, replace proposal curation sum with againstvotes and remove proposal editor sum\n             period.curation_sum = period.curation_sum - proposaldata.lastcuration_weight + proposaldata.lastcuration_weight;\n             period.editor_sum = period.editor_sum - proposaldata.lasteditor_weight;\n         }\n         }\n\n\n\n  }\n\n\n\n\n\n\n// get boms balance of user:\nfunction bosomsOf(address tokenOwner) public view returns (uint _bosoms){\n     return bosoms[tokenOwner];\n }\n\n function getdiseasehashbyName(string memory _name) public view returns (bytes32 _diseasehash){\n     return diseasesbyNames[_name];\n }\n\n\n}\n",
  "sourcePath": "/mnt/d/linux/ethereum/etica/contracts/EticaRelease.sol",
  "compiler": {
    "name": "solc",
    "version": "0.5.2+commit.1df8f40c.Emscripten.clang"
  },
  "schemaVersion": "3.0.9",
  "updatedAt": "2019-06-09T12:13:33.450Z",
  "devdoc": {
    "methods": {}
  },
  "userdoc": {
    "methods": {}
  }
}