{
  "contractName": "EticaBosoms",
  "abi": [
    {
      "constant": true,
      "inputs": [],
      "name": "maxInvestment",
      "outputs": [
        {
          "name": "",
          "type": "uint256"
        }
      ],
      "payable": false,
      "stateMutability": "view",
      "type": "function",
      "signature": "0x002e1316"
    },
    {
      "constant": true,
      "inputs": [],
      "name": "supply",
      "outputs": [
        {
          "name": "",
          "type": "uint256"
        }
      ],
      "payable": false,
      "stateMutability": "view",
      "type": "function",
      "signature": "0x047fc9aa"
    },
    {
      "constant": true,
      "inputs": [],
      "name": "name",
      "outputs": [
        {
          "name": "",
          "type": "string"
        }
      ],
      "payable": false,
      "stateMutability": "view",
      "type": "function",
      "signature": "0x06fdde03"
    },
    {
      "constant": false,
      "inputs": [
        {
          "name": "spender",
          "type": "address"
        },
        {
          "name": "tokens",
          "type": "uint256"
        }
      ],
      "name": "approve",
      "outputs": [
        {
          "name": "",
          "type": "bool"
        }
      ],
      "payable": false,
      "stateMutability": "nonpayable",
      "type": "function",
      "signature": "0x095ea7b3"
    },
    {
      "constant": true,
      "inputs": [],
      "name": "totalSupply",
      "outputs": [
        {
          "name": "",
          "type": "uint256"
        }
      ],
      "payable": false,
      "stateMutability": "view",
      "type": "function",
      "signature": "0x18160ddd"
    },
    {
      "constant": true,
      "inputs": [
        {
          "name": "",
          "type": "address"
        }
      ],
      "name": "balances",
      "outputs": [
        {
          "name": "",
          "type": "uint256"
        }
      ],
      "payable": false,
      "stateMutability": "view",
      "type": "function",
      "signature": "0x27e235e3"
    },
    {
      "constant": true,
      "inputs": [],
      "name": "decimals",
      "outputs": [
        {
          "name": "",
          "type": "uint256"
        }
      ],
      "payable": false,
      "stateMutability": "view",
      "type": "function",
      "signature": "0x313ce567"
    },
    {
      "constant": true,
      "inputs": [],
      "name": "icoState",
      "outputs": [
        {
          "name": "",
          "type": "uint8"
        }
      ],
      "payable": false,
      "stateMutability": "view",
      "type": "function",
      "signature": "0x44f38756"
    },
    {
      "constant": true,
      "inputs": [],
      "name": "maxsupply",
      "outputs": [
        {
          "name": "",
          "type": "uint256"
        }
      ],
      "payable": false,
      "stateMutability": "view",
      "type": "function",
      "signature": "0x4b6406d1"
    },
    {
      "constant": true,
      "inputs": [],
      "name": "founder",
      "outputs": [
        {
          "name": "",
          "type": "address"
        }
      ],
      "payable": false,
      "stateMutability": "view",
      "type": "function",
      "signature": "0x4d853ee5"
    },
    {
      "constant": true,
      "inputs": [
        {
          "name": "tokenOwner",
          "type": "address"
        }
      ],
      "name": "balanceOf",
      "outputs": [
        {
          "name": "balance",
          "type": "uint256"
        }
      ],
      "payable": false,
      "stateMutability": "view",
      "type": "function",
      "signature": "0x70a08231"
    },
    {
      "constant": true,
      "inputs": [],
      "name": "centuryreward",
      "outputs": [
        {
          "name": "",
          "type": "uint256"
        }
      ],
      "payable": false,
      "stateMutability": "view",
      "type": "function",
      "signature": "0x7a750ef2"
    },
    {
      "constant": true,
      "inputs": [],
      "name": "minInvestment",
      "outputs": [
        {
          "name": "",
          "type": "uint256"
        }
      ],
      "payable": false,
      "stateMutability": "view",
      "type": "function",
      "signature": "0x8ac2c680"
    },
    {
      "constant": true,
      "inputs": [],
      "name": "weeklyreward",
      "outputs": [
        {
          "name": "",
          "type": "uint256"
        }
      ],
      "payable": false,
      "stateMutability": "view",
      "type": "function",
      "signature": "0x945f3a83"
    },
    {
      "constant": true,
      "inputs": [],
      "name": "symbol",
      "outputs": [
        {
          "name": "",
          "type": "string"
        }
      ],
      "payable": false,
      "stateMutability": "view",
      "type": "function",
      "signature": "0x95d89b41"
    },
    {
      "constant": true,
      "inputs": [],
      "name": "saleStart",
      "outputs": [
        {
          "name": "",
          "type": "uint256"
        }
      ],
      "payable": false,
      "stateMutability": "view",
      "type": "function",
      "signature": "0xab0bcc41"
    },
    {
      "constant": true,
      "inputs": [],
      "name": "coinTradeStart",
      "outputs": [
        {
          "name": "",
          "type": "uint256"
        }
      ],
      "payable": false,
      "stateMutability": "view",
      "type": "function",
      "signature": "0xbf604019"
    },
    {
      "constant": true,
      "inputs": [],
      "name": "saleEnd",
      "outputs": [
        {
          "name": "",
          "type": "uint256"
        }
      ],
      "payable": false,
      "stateMutability": "view",
      "type": "function",
      "signature": "0xc10b9358"
    },
    {
      "constant": true,
      "inputs": [],
      "name": "raisedAmount",
      "outputs": [
        {
          "name": "",
          "type": "uint256"
        }
      ],
      "payable": false,
      "stateMutability": "view",
      "type": "function",
      "signature": "0xc59ee1dc"
    },
    {
      "constant": true,
      "inputs": [],
      "name": "deposit",
      "outputs": [
        {
          "name": "",
          "type": "address"
        }
      ],
      "payable": false,
      "stateMutability": "view",
      "type": "function",
      "signature": "0xd0e30db0"
    },
    {
      "constant": true,
      "inputs": [
        {
          "name": "tokenOwner",
          "type": "address"
        },
        {
          "name": "spender",
          "type": "address"
        }
      ],
      "name": "allowance",
      "outputs": [
        {
          "name": "",
          "type": "uint256"
        }
      ],
      "payable": false,
      "stateMutability": "view",
      "type": "function",
      "signature": "0xdd62ed3e"
    },
    {
      "constant": true,
      "inputs": [],
      "name": "admin",
      "outputs": [
        {
          "name": "",
          "type": "address"
        }
      ],
      "payable": false,
      "stateMutability": "view",
      "type": "function",
      "signature": "0xf851a440"
    },
    {
      "constant": true,
      "inputs": [],
      "name": "hardCap",
      "outputs": [
        {
          "name": "",
          "type": "uint256"
        }
      ],
      "payable": false,
      "stateMutability": "view",
      "type": "function",
      "signature": "0xfb86a404"
    },
    {
      "inputs": [
        {
          "name": "_deposit",
          "type": "address"
        }
      ],
      "payable": false,
      "stateMutability": "nonpayable",
      "type": "constructor",
      "signature": "constructor"
    },
    {
      "payable": true,
      "stateMutability": "payable",
      "type": "fallback"
    },
    {
      "anonymous": false,
      "inputs": [
        {
          "indexed": false,
          "name": "investor",
          "type": "address"
        },
        {
          "indexed": false,
          "name": "value",
          "type": "uint256"
        },
        {
          "indexed": false,
          "name": "tokens",
          "type": "uint256"
        }
      ],
      "name": "Invest",
      "type": "event",
      "signature": "0x4ae4bd7655e0d350876a23cd90c4227b13db560e34435c6a488150a9c844bf5f"
    },
    {
      "anonymous": false,
      "inputs": [
        {
          "indexed": true,
          "name": "from",
          "type": "address"
        },
        {
          "indexed": true,
          "name": "to",
          "type": "address"
        },
        {
          "indexed": false,
          "name": "tokens",
          "type": "uint256"
        }
      ],
      "name": "Transfer",
      "type": "event",
      "signature": "0xddf252ad1be2c89b69c2b068fc378daa952ba7f163c4a11628f55a4df523b3ef"
    },
    {
      "anonymous": false,
      "inputs": [
        {
          "indexed": true,
          "name": "tokenOwner",
          "type": "address"
        },
        {
          "indexed": true,
          "name": "spender",
          "type": "address"
        },
        {
          "indexed": false,
          "name": "tokens",
          "type": "uint256"
        }
      ],
      "name": "Approval",
      "type": "event",
      "signature": "0x8c5be1e5ebec7d5bd14f71427d1e84f3dd0314c0f7b2291e5b200ac8c7c3b925"
    },
    {
      "constant": false,
      "inputs": [],
      "name": "halt",
      "outputs": [],
      "payable": false,
      "stateMutability": "nonpayable",
      "type": "function",
      "signature": "0x5ed7ca5b"
    },
    {
      "constant": false,
      "inputs": [],
      "name": "unhalt",
      "outputs": [],
      "payable": false,
      "stateMutability": "nonpayable",
      "type": "function",
      "signature": "0xcb3e64fd"
    },
    {
      "constant": false,
      "inputs": [
        {
          "name": "newDeposit",
          "type": "address"
        }
      ],
      "name": "changeDepositAddress",
      "outputs": [],
      "payable": false,
      "stateMutability": "nonpayable",
      "type": "function",
      "signature": "0x6d58c88f"
    },
    {
      "constant": true,
      "inputs": [],
      "name": "getCurrentState",
      "outputs": [
        {
          "name": "",
          "type": "uint8"
        }
      ],
      "payable": false,
      "stateMutability": "view",
      "type": "function",
      "signature": "0x378aa701"
    },
    {
      "constant": false,
      "inputs": [],
      "name": "invest",
      "outputs": [
        {
          "name": "",
          "type": "bool"
        }
      ],
      "payable": true,
      "stateMutability": "payable",
      "type": "function",
      "signature": "0xe8b5e51f"
    },
    {
      "constant": false,
      "inputs": [],
      "name": "burn",
      "outputs": [
        {
          "name": "",
          "type": "bool"
        }
      ],
      "payable": false,
      "stateMutability": "nonpayable",
      "type": "function",
      "signature": "0x44df8e70"
    },
    {
      "constant": false,
      "inputs": [
        {
          "name": "to",
          "type": "address"
        },
        {
          "name": "value",
          "type": "uint256"
        }
      ],
      "name": "transfer",
      "outputs": [
        {
          "name": "",
          "type": "bool"
        }
      ],
      "payable": false,
      "stateMutability": "nonpayable",
      "type": "function",
      "signature": "0xa9059cbb"
    },
    {
      "constant": false,
      "inputs": [
        {
          "name": "_from",
          "type": "address"
        },
        {
          "name": "_to",
          "type": "address"
        },
        {
          "name": "_value",
          "type": "uint256"
        }
      ],
      "name": "transferFrom",
      "outputs": [
        {
          "name": "",
          "type": "bool"
        }
      ],
      "payable": false,
      "stateMutability": "nonpayable",
      "type": "function",
      "signature": "0x23b872dd"
    }
  ],
  "bytecode": "0x60806040526040805190810160405280600581526020017f4574696361000000000000000000000000000000000000000000000000000000815250600090805190602001906200005192919062000387565b506040805190810160405280600381526020017f4554490000000000000000000000000000000000000000000000000000000000815250600190805190602001906200009f92919062000387565b50601260025566038d7ea4c68000600c556982dfb06eb5a2ca060000600d5542600f5562093a80420160105562093a8060105401601155674563918244f40000601255662386f26fc10000601355348015620000fa57600080fd5b5060405160208062001c09833981018060405260208110156200011c57600080fd5b81019080805190602001909291905050506b033b2e3c9fd0803ce80000006004819055506b01ff39c9307583e5277000006003819055506b013bf4736f5afc57c0900000600581905550690f83174389d9e2d3eda260068190555033600760006101000a81548173ffffffffffffffffffffffffffffffffffffffff021916908373ffffffffffffffffffffffffffffffffffffffff1602179055506064600860035402811515620001ca57fe5b0460086000600760009054906101000a900473ffffffffffffffffffffffffffffffffffffffff1673ffffffffffffffffffffffffffffffffffffffff1673ffffffffffffffffffffffffffffffffffffffff1681526020019081526020016000208190555060086000600760009054906101000a900473ffffffffffffffffffffffffffffffffffffffff1673ffffffffffffffffffffffffffffffffffffffff1673ffffffffffffffffffffffffffffffffffffffff1681526020019081526020016000205460035403600860003073ffffffffffffffffffffffffffffffffffffffff1673ffffffffffffffffffffffffffffffffffffffff1681526020019081526020016000208190555080600b60006101000a81548173ffffffffffffffffffffffffffffffffffffffff021916908373ffffffffffffffffffffffffffffffffffffffff16021790555033600a60006101000a81548173ffffffffffffffffffffffffffffffffffffffff021916908373ffffffffffffffffffffffffffffffffffffffff1602179055506000601460006101000a81548160ff021916908360038111156200037b57fe5b02179055505062000436565b828054600181600116156101000203166002900490600052602060002090601f016020900481019282601f10620003ca57805160ff1916838001178555620003fb565b82800160010185558215620003fb579182015b82811115620003fa578251825591602001919060010190620003dd565b5b5090506200040a91906200040e565b5090565b6200043391905b808211156200042f57600081600090555060010162000415565b5090565b90565b6117c380620004466000396000f3fe6080604052600436106101f4576000357c01000000000000000000000000000000000000000000000000000000009004806370a082311161011f578063c10b9358116100b2578063dd62ed3e11610081578063dd62ed3e14610934578063e8b5e51f146109b9578063f851a440146109db578063fb86a40414610a32576101f4565b8063c10b935814610870578063c59ee1dc1461089b578063cb3e64fd146108c6578063d0e30db0146108dd576101f4565b806395d89b41116100ee57806395d89b4114610717578063a9059cbb146107a7578063ab0bcc411461081a578063bf60401914610845576101f4565b806370a08231146106315780637a750ef2146106965780638ac2c680146106c1578063945f3a83146106ec576101f4565b8063313ce567116101975780634b6406d1116101665780634b6406d1146105475780634d853ee5146105725780635ed7ca5b146105c95780636d58c88f146105e0576101f4565b8063313ce5671461047b578063378aa701146104a657806344df8e70146104df57806344f387561461050e576101f4565b8063095ea7b3116101d3578063095ea7b3146102e557806318160ddd1461035857806323b872dd1461038357806327e235e314610416576101f4565b80622e1316146101ff578063047fc9aa1461022a57806306fdde0314610255575b6101fc610a5d565b50005b34801561020b57600080fd5b50610214610cb3565b6040518082815260200191505060405180910390f35b34801561023657600080fd5b5061023f610cb9565b6040518082815260200191505060405180910390f35b34801561026157600080fd5b5061026a610cbf565b6040518080602001828103825283818151815260200191508051906020019080838360005b838110156102aa57808201518184015260208101905061028f565b50505050905090810190601f1680156102d75780820380516001836020036101000a031916815260200191505b509250505060405180910390f35b3480156102f157600080fd5b5061033e6004803603604081101561030857600080fd5b81019080803573ffffffffffffffffffffffffffffffffffffffff16906020019092919080359060200190929190505050610d5d565b604051808215151515815260200191505060405180910390f35b34801561036457600080fd5b5061036d610eac565b6040518082815260200191505060405180910390f35b34801561038f57600080fd5b506103fc600480360360608110156103a657600080fd5b81019080803573ffffffffffffffffffffffffffffffffffffffff169060200190929190803573ffffffffffffffffffffffffffffffffffffffff16906020019092919080359060200190929190505050610eb6565b604051808215151515815260200191505060405180910390f35b34801561042257600080fd5b506104656004803603602081101561043957600080fd5b81019080803573ffffffffffffffffffffffffffffffffffffffff169060200190929190505050610edb565b6040518082815260200191505060405180910390f35b34801561048757600080fd5b50610490610ef3565b6040518082815260200191505060405180910390f35b3480156104b257600080fd5b506104bb610ef9565b604051808260038111156104cb57fe5b60ff16815260200191505060405180910390f35b3480156104eb57600080fd5b506104f4610f6e565b604051808215151515815260200191505060405180910390f35b34801561051a57600080fd5b50610523611038565b6040518082600381111561053357fe5b60ff16815260200191505060405180910390f35b34801561055357600080fd5b5061055c61104b565b6040518082815260200191505060405180910390f35b34801561057e57600080fd5b50610587611051565b604051808273ffffffffffffffffffffffffffffffffffffffff1673ffffffffffffffffffffffffffffffffffffffff16815260200191505060405180910390f35b3480156105d557600080fd5b506105de611077565b005b3480156105ec57600080fd5b5061062f6004803603602081101561060357600080fd5b81019080803573ffffffffffffffffffffffffffffffffffffffff1690602001909291905050506110f9565b005b34801561063d57600080fd5b506106806004803603602081101561065457600080fd5b81019080803573ffffffffffffffffffffffffffffffffffffffff169060200190929190505050611199565b6040518082815260200191505060405180910390f35b3480156106a257600080fd5b506106ab6111e2565b6040518082815260200191505060405180910390f35b3480156106cd57600080fd5b506106d66111e8565b6040518082815260200191505060405180910390f35b3480156106f857600080fd5b506107016111ee565b6040518082815260200191505060405180910390f35b34801561072357600080fd5b5061072c6111f4565b6040518080602001828103825283818151815260200191508051906020019080838360005b8381101561076c578082015181840152602081019050610751565b50505050905090810190601f1680156107995780820380516001836020036101000a031916815260200191505b509250505060405180910390f35b3480156107b357600080fd5b50610800600480360360408110156107ca57600080fd5b81019080803573ffffffffffffffffffffffffffffffffffffffff16906020019092919080359060200190929190505050611292565b604051808215151515815260200191505060405180910390f35b34801561082657600080fd5b5061082f6112b5565b6040518082815260200191505060405180910390f35b34801561085157600080fd5b5061085a6112bb565b6040518082815260200191505060405180910390f35b34801561087c57600080fd5b506108856112c1565b6040518082815260200191505060405180910390f35b3480156108a757600080fd5b506108b06112c7565b6040518082815260200191505060405180910390f35b3480156108d257600080fd5b506108db6112cd565b005b3480156108e957600080fd5b506108f261134f565b604051808273ffffffffffffffffffffffffffffffffffffffff1673ffffffffffffffffffffffffffffffffffffffff16815260200191505060405180910390f35b34801561094057600080fd5b506109a36004803603604081101561095757600080fd5b81019080803573ffffffffffffffffffffffffffffffffffffffff169060200190929190803573ffffffffffffffffffffffffffffffffffffffff169060200190929190505050611375565b6040518082815260200191505060405180910390f35b6109c1610a5d565b604051808215151515815260200191505060405180910390f35b3480156109e757600080fd5b506109f06113fc565b604051808273ffffffffffffffffffffffffffffffffffffffff1673ffffffffffffffffffffffffffffffffffffffff16815260200191505060405180910390f35b348015610a3e57600080fd5b50610a47611422565b6040518082815260200191505060405180910390f35b6000610a67610ef9565b601460006101000a81548160ff02191690836003811115610a8457fe5b021790555060016003811115610a9657fe5b601460009054906101000a900460ff166003811115610ab157fe5b141515610abd57600080fd5b6013543410158015610ad157506012543411155b1515610adc57600080fd5b6000600c5434811515610aeb57fe5b049050600d5434600e540111151515610b0357600080fd5b34600e6000828254019250508190555080600860003373ffffffffffffffffffffffffffffffffffffffff1673ffffffffffffffffffffffffffffffffffffffff168152602001908152602001600020600082825401925050819055508060086000600760009054906101000a900473ffffffffffffffffffffffffffffffffffffffff1673ffffffffffffffffffffffffffffffffffffffff1673ffffffffffffffffffffffffffffffffffffffff16815260200190815260200160002060008282540392505081905550600b60009054906101000a900473ffffffffffffffffffffffffffffffffffffffff1673ffffffffffffffffffffffffffffffffffffffff166108fc349081150290604051600060405180830381858888f19350505050158015610c37573d6000803e3d6000fd5b507f4ae4bd7655e0d350876a23cd90c4227b13db560e34435c6a488150a9c844bf5f333483604051808473ffffffffffffffffffffffffffffffffffffffff1673ffffffffffffffffffffffffffffffffffffffff168152602001838152602001828152602001935050505060405180910390a1600191505090565b60125481565b60035481565b60008054600181600116156101000203166002900480601f016020809104026020016040519081016040528092919081815260200182805460018160011615610100020316600290048015610d555780601f10610d2a57610100808354040283529160200191610d55565b820191906000526020600020905b815481529060010190602001808311610d3857829003601f168201915b505050505081565b600081600860003373ffffffffffffffffffffffffffffffffffffffff1673ffffffffffffffffffffffffffffffffffffffff1681526020019081526020016000205410151515610dad57600080fd5b600082111515610dbc57600080fd5b81600960003373ffffffffffffffffffffffffffffffffffffffff1673ffffffffffffffffffffffffffffffffffffffff16815260200190815260200160002060008573ffffffffffffffffffffffffffffffffffffffff1673ffffffffffffffffffffffffffffffffffffffff168152602001908152602001600020819055508273ffffffffffffffffffffffffffffffffffffffff163373ffffffffffffffffffffffffffffffffffffffff167f8c5be1e5ebec7d5bd14f71427d1e84f3dd0314c0f7b2291e5b200ac8c7c3b925846040518082815260200191505060405180910390a36001905092915050565b6000600354905090565b600060115442111515610ec857600080fd5b610ed3848484611428565b509392505050565b60086020528060005260406000206000915090505481565b60025481565b6000600380811115610f0757fe5b601460009054906101000a900460ff166003811115610f2257fe5b1415610f315760039050610f6b565b600f54421015610f445760009050610f6b565b600f544210158015610f5857506010544211155b15610f665760019050610f6b565b600290505b90565b6000610f78610ef9565b601460006101000a81548160ff02191690836003811115610f9557fe5b021790555060026003811115610fa757fe5b601460009054906101000a900460ff166003811115610fc257fe5b141515610fce57600080fd5b600060086000600760009054906101000a900473ffffffffffffffffffffffffffffffffffffffff1673ffffffffffffffffffffffffffffffffffffffff1673ffffffffffffffffffffffffffffffffffffffff1681526020019081526020016000208190555090565b601460009054906101000a900460ff1681565b60045481565b600760009054906101000a900473ffffffffffffffffffffffffffffffffffffffff1681565b600a60009054906101000a900473ffffffffffffffffffffffffffffffffffffffff1673ffffffffffffffffffffffffffffffffffffffff163373ffffffffffffffffffffffffffffffffffffffff161415156110d357600080fd5b6003601460006101000a81548160ff021916908360038111156110f257fe5b0217905550565b600a60009054906101000a900473ffffffffffffffffffffffffffffffffffffffff1673ffffffffffffffffffffffffffffffffffffffff163373ffffffffffffffffffffffffffffffffffffffff1614151561115557600080fd5b80600b60006101000a81548173ffffffffffffffffffffffffffffffffffffffff021916908373ffffffffffffffffffffffffffffffffffffffff16021790555050565b6000600860008373ffffffffffffffffffffffffffffffffffffffff1673ffffffffffffffffffffffffffffffffffffffff168152602001908152602001600020549050919050565b60055481565b60135481565b60065481565b60018054600181600116156101000203166002900480601f01602080910402602001604051908101604052809291908181526020018280546001816001161561010002031660029004801561128a5780601f1061125f5761010080835404028352916020019161128a565b820191906000526020600020905b81548152906001019060200180831161126d57829003601f168201915b505050505081565b6000601154421115156112a457600080fd5b6112ae8383611632565b5092915050565b600f5481565b60115481565b60105481565b600e5481565b600a60009054906101000a900473ffffffffffffffffffffffffffffffffffffffff1673ffffffffffffffffffffffffffffffffffffffff163373ffffffffffffffffffffffffffffffffffffffff1614151561132957600080fd5b6001601460006101000a81548160ff0219169083600381111561134857fe5b0217905550565b600b60009054906101000a900473ffffffffffffffffffffffffffffffffffffffff1681565b6000600960008473ffffffffffffffffffffffffffffffffffffffff1673ffffffffffffffffffffffffffffffffffffffff16815260200190815260200160002060008373ffffffffffffffffffffffffffffffffffffffff1673ffffffffffffffffffffffffffffffffffffffff16815260200190815260200160002054905092915050565b600a60009054906101000a900473ffffffffffffffffffffffffffffffffffffffff1681565b600d5481565b600081600960008673ffffffffffffffffffffffffffffffffffffffff1673ffffffffffffffffffffffffffffffffffffffff16815260200190815260200160002060008573ffffffffffffffffffffffffffffffffffffffff1673ffffffffffffffffffffffffffffffffffffffff16815260200190815260200160002054101515156114b557600080fd5b81600860008673ffffffffffffffffffffffffffffffffffffffff1673ffffffffffffffffffffffffffffffffffffffff168152602001908152602001600020541015151561150357600080fd5b81600860008673ffffffffffffffffffffffffffffffffffffffff1673ffffffffffffffffffffffffffffffffffffffff1681526020019081526020016000206000828254039250508190555081600860008573ffffffffffffffffffffffffffffffffffffffff1673ffffffffffffffffffffffffffffffffffffffff1681526020019081526020016000206000828254019250508190555081600960008673ffffffffffffffffffffffffffffffffffffffff1673ffffffffffffffffffffffffffffffffffffffff16815260200190815260200160002060008573ffffffffffffffffffffffffffffffffffffffff1673ffffffffffffffffffffffffffffffffffffffff16815260200190815260200160002060008282540392505081905550600190509392505050565b600081600860003373ffffffffffffffffffffffffffffffffffffffff1673ffffffffffffffffffffffffffffffffffffffff16815260200190815260200160002054101580156116835750600082115b151561168e57600080fd5b81600860008573ffffffffffffffffffffffffffffffffffffffff1673ffffffffffffffffffffffffffffffffffffffff1681526020019081526020016000206000828254019250508190555081600860003373ffffffffffffffffffffffffffffffffffffffff1673ffffffffffffffffffffffffffffffffffffffff168152602001908152602001600020600082825403925050819055508273ffffffffffffffffffffffffffffffffffffffff163373ffffffffffffffffffffffffffffffffffffffff167fddf252ad1be2c89b69c2b068fc378daa952ba7f163c4a11628f55a4df523b3ef846040518082815260200191505060405180910390a3600190509291505056fea165627a7a72305820b0309daebb208df8baa8371597943ce87387907bc175b1182d4f2a3b9ce1231b0029",
  "source": "pragma solidity ^0.5.2;\r\n// ----------------------------------------------------------------------------\r\n//this ICO smart contract has been compiled and tested with the Solidity Version 0.5.2\r\n//There are some minor changes comparing to ICO contract compiled with versions < 0.5.0\r\n// ----------------------------------------------------------------------------\r\n\r\ncontract ERC20Interface {\r\n    function totalSupply() public view returns (uint);\r\n    function balanceOf(address tokenOwner) public view returns (uint balance);\r\n    function transfer(address to, uint tokens) public returns (bool success);\r\n\r\n\r\n    function allowance(address tokenOwner, address spender) public view returns (uint remaining);\r\n    function approve(address spender, uint tokens) public returns (bool success);\r\n    function transferFrom(address from, address to, uint tokens) public returns (bool success);\r\n\r\n    event Transfer(address indexed from, address indexed to, uint tokens);\r\n    event Approval(address indexed tokenOwner, address indexed spender, uint tokens);\r\n}\r\n\r\ncontract EticaToken is ERC20Interface{\r\n    string public name = \"Etica\";\r\n    string public symbol = \"ETI\";\r\n    uint public decimals = 18;\r\n\r\n    uint public supply;\r\n    uint public maxsupply;\r\n    uint public centuryreward; // Amount of ETI issued every 100 years\r\n    uint public weeklyreward; // Amount of ETI issued every week\r\n    address public founder;\r\n\r\n    mapping(address => uint) public balances;\r\n\r\n    mapping(address => mapping(address => uint)) allowed;\r\n\r\n    //allowed[0x1111....][0x22222...] = 100;\r\n\r\n\r\n    event Transfer(address indexed from, address indexed to, uint tokens);\r\n    event Approval(address indexed tokenOwner, address indexed spender, uint tokens);\r\n\r\n\r\n    constructor() public{\r\n      maxsupply = 1000000000 * (10**18); // 1 Billion ETI\r\n      supply = 618033980 * (10**18); // initial supply equals 618033980 ETI fibonacci golden ratio\r\n      centuryreward = 381966020 * (10**18); // 381966020 ETI issued per century\r\n      weeklyreward = 73253697051755847871906; // 381966020 ETI per century equals 73253,697051755847871905858707513 ETI Issued each week : (centuryreward / (100 * 52,1429));\r\n      founder = msg.sender;\r\n      balances[founder] = supply * 8 / 100;\r\n      balances[address(this)] = supply - balances[founder];\r\n    }\r\n\r\n\r\n    function allowance(address tokenOwner, address spender) view public returns(uint){\r\n        return allowed[tokenOwner][spender];\r\n    }\r\n\r\n\r\n    //approve allowance\r\n    function approve(address spender, uint tokens) public returns(bool){\r\n        require(balances[msg.sender] >= tokens);\r\n        require(tokens > 0);\r\n\r\n        allowed[msg.sender][spender] = tokens;\r\n        emit Approval(msg.sender, spender, tokens);\r\n        return true;\r\n    }\r\n\r\n    //transfer tokens from the  owner account to the account that calls the function\r\n    function transferFrom(address from, address to, uint tokens) public returns(bool){\r\n        require(allowed[from][to] >= tokens);\r\n        require(balances[from] >= tokens);\r\n\r\n        balances[from] -= tokens;\r\n        balances[to] += tokens;\r\n\r\n\r\n        allowed[from][to] -= tokens;\r\n\r\n        return true;\r\n    }\r\n\r\n    function totalSupply() public view returns (uint){\r\n        return supply;\r\n    }\r\n\r\n    function balanceOf(address tokenOwner) public view returns (uint balance){\r\n         return balances[tokenOwner];\r\n     }\r\n\r\n\r\n    function transfer(address to, uint tokens) public returns (bool success){\r\n         require(balances[msg.sender] >= tokens && tokens > 0);\r\n\r\n         balances[to] += tokens;\r\n         balances[msg.sender] -= tokens;\r\n         emit Transfer(msg.sender, to, tokens);\r\n         return true;\r\n     }\r\n}\r\n\r\n\r\ncontract EticaBosoms is EticaToken{\r\n    address public admin;\r\n\r\n\r\n    //starting with solidity version 0.5.0 only a payable address has the transfer() member function\r\n    //it's mandatory to declare the variable payable\r\n    address payable public deposit;\r\n\r\n    //token price in wei: 1ETI = 0.001 ETHER, 1 ETHER = 1000 ETI\r\n    uint tokenPrice = 1000000000000000;\r\n\r\n    // 618033980 ETI fibonacci golden ratio\r\n    uint public hardCap = 618033980000000000000000; // 618033980 ETI  equals 618033.980 Ether equals 618033980000000000000000 in wei\r\n\r\n    uint public raisedAmount;\r\n\r\n    uint public saleStart = now;\r\n    uint public saleEnd = now + 604800; //one week\r\n    uint public coinTradeStart = saleEnd + 604800; //transferable in a week after salesEnd\r\n\r\n    uint public maxInvestment = 5000000000000000000;\r\n    uint public minInvestment = 10000000000000000;\r\n\r\n    enum State { beforeStart, running, afterEnd, halted}\r\n    State public icoState;\r\n\r\n\r\n    modifier onlyAdmin(){\r\n        require(msg.sender == admin);\r\n        _;\r\n    }\r\n\r\n    event Invest(address investor, uint value, uint tokens);\r\n\r\n\r\n    //in solidity version > 0.5.0 the deposit argument must be payable\r\n    constructor(address payable _deposit) public{\r\n        deposit = _deposit;\r\n        admin = msg.sender;\r\n        icoState = State.beforeStart;\r\n    }\r\n\r\n    //emergency stop\r\n    function halt() public onlyAdmin{\r\n        icoState = State.halted;\r\n    }\r\n\r\n    //restart\r\n    function unhalt() public onlyAdmin{\r\n        icoState = State.running;\r\n    }\r\n\r\n\r\n    //only the admin can change the deposit address\r\n    //in solidity version > 0.5.0 the deposit argument must be payable\r\n    function changeDepositAddress(address payable newDeposit) public onlyAdmin{\r\n        deposit = newDeposit;\r\n    }\r\n\r\n\r\n    //returns ico state\r\n    function getCurrentState() public view returns(State){\r\n        if(icoState == State.halted){\r\n            return State.halted;\r\n        }else if(block.timestamp < saleStart){\r\n            return State.beforeStart;\r\n        }else if(block.timestamp >= saleStart && block.timestamp <= saleEnd){\r\n            return State.running;\r\n        }else{\r\n            return State.afterEnd;\r\n        }\r\n    }\r\n\r\n\r\n    function invest() payable public returns(bool){\r\n        //invest only in running\r\n        icoState = getCurrentState();\r\n        require(icoState == State.running);\r\n\r\n        require(msg.value >= minInvestment && msg.value <= maxInvestment);\r\n\r\n        uint tokens = msg.value / tokenPrice;\r\n\r\n        //hardCap not reached\r\n        require(raisedAmount + msg.value <= hardCap);\r\n\r\n        raisedAmount += msg.value;\r\n\r\n        //add tokens to investor balance from founder balance\r\n        balances[msg.sender] += tokens;\r\n        balances[founder] -= tokens;\r\n\r\n        deposit.transfer(msg.value);//transfer eth to the deposit address\r\n\r\n        //emit event\r\n        emit Invest(msg.sender, msg.value, tokens);\r\n\r\n        return true;\r\n\r\n\r\n    }\r\n\r\n    //the payable function must be declared external in solidity versions > 0.5.0\r\n    function () payable external{\r\n        invest();\r\n    }\r\n\r\n\r\n\r\n    function burn() public returns(bool){\r\n        icoState = getCurrentState();\r\n        require(icoState == State.afterEnd);\r\n        balances[founder] = 0;\r\n\r\n    }\r\n\r\n\r\n    function transfer(address to, uint value) public returns(bool){\r\n        require(block.timestamp > coinTradeStart);\r\n        super.transfer(to, value);\r\n    }\r\n\r\n    function transferFrom(address _from, address _to, uint _value) public returns(bool){\r\n        require(block.timestamp > coinTradeStart);\r\n        super.transferFrom(_from, _to, _value);\r\n    }\r\n\r\n}\r\n",
  "sourcePath": "/mnt/d/linux/ethereum/etica/contracts/EticaBosoms.sol",
  "compiler": {
    "name": "solc",
    "version": "0.5.2+commit.1df8f40c.Emscripten.clang"
  },
  "schemaVersion": "3.0.1",
  "updatedAt": "2019-04-30T15:18:08.932Z",
  "devdoc": {
    "methods": {}
  },
  "userdoc": {
    "methods": {}
  }
}