{
  "contractName": "EticaToken",
  "abi": [
    {
      "constant": true,
      "inputs": [],
      "name": "supply",
      "outputs": [
        {
          "name": "",
          "type": "uint256"
        }
      ],
      "payable": false,
      "stateMutability": "view",
      "type": "function",
      "signature": "0x047fc9aa"
    },
    {
      "constant": true,
      "inputs": [],
      "name": "name",
      "outputs": [
        {
          "name": "",
          "type": "string"
        }
      ],
      "payable": false,
      "stateMutability": "view",
      "type": "function",
      "signature": "0x06fdde03"
    },
    {
      "constant": true,
      "inputs": [],
      "name": "lastRewardEthBlockNumber",
      "outputs": [
        {
          "name": "",
          "type": "uint256"
        }
      ],
      "payable": false,
      "stateMutability": "view",
      "type": "function",
      "signature": "0x163aa00d"
    },
    {
      "constant": true,
      "inputs": [
        {
          "name": "",
          "type": "address"
        }
      ],
      "name": "balances",
      "outputs": [
        {
          "name": "",
          "type": "uint256"
        }
      ],
      "payable": false,
      "stateMutability": "view",
      "type": "function",
      "signature": "0x27e235e3"
    },
    {
      "constant": true,
      "inputs": [],
      "name": "rewardEra",
      "outputs": [
        {
          "name": "",
          "type": "uint256"
        }
      ],
      "payable": false,
      "stateMutability": "view",
      "type": "function",
      "signature": "0x2d38bf7a"
    },
    {
      "constant": true,
      "inputs": [],
      "name": "decimals",
      "outputs": [
        {
          "name": "",
          "type": "uint256"
        }
      ],
      "payable": false,
      "stateMutability": "view",
      "type": "function",
      "signature": "0x313ce567"
    },
    {
      "constant": true,
      "inputs": [],
      "name": "_totalMiningSupply",
      "outputs": [
        {
          "name": "",
          "type": "uint256"
        }
      ],
      "payable": false,
      "stateMutability": "view",
      "type": "function",
      "signature": "0x410e1b07"
    },
    {
      "constant": true,
      "inputs": [],
      "name": "founder",
      "outputs": [
        {
          "name": "",
          "type": "address"
        }
      ],
      "payable": false,
      "stateMutability": "view",
      "type": "function",
      "signature": "0x4d853ee5"
    },
    {
      "constant": true,
      "inputs": [],
      "name": "foundermsgproof",
      "outputs": [
        {
          "name": "",
          "type": "string"
        }
      ],
      "payable": false,
      "stateMutability": "view",
      "type": "function",
      "signature": "0x6de7410c"
    },
    {
      "constant": true,
      "inputs": [],
      "name": "tokensMinted",
      "outputs": [
        {
          "name": "",
          "type": "uint256"
        }
      ],
      "payable": false,
      "stateMutability": "view",
      "type": "function",
      "signature": "0x6de9f32b"
    },
    {
      "constant": true,
      "inputs": [],
      "name": "lastRewardTo",
      "outputs": [
        {
          "name": "",
          "type": "address"
        }
      ],
      "payable": false,
      "stateMutability": "view",
      "type": "function",
      "signature": "0x6fd396d6"
    },
    {
      "constant": true,
      "inputs": [],
      "name": "epochCount",
      "outputs": [
        {
          "name": "",
          "type": "uint256"
        }
      ],
      "payable": false,
      "stateMutability": "view",
      "type": "function",
      "signature": "0x829965cc"
    },
    {
      "constant": true,
      "inputs": [],
      "name": "_MAXIMUM_TARGET",
      "outputs": [
        {
          "name": "",
          "type": "uint256"
        }
      ],
      "payable": false,
      "stateMutability": "view",
      "type": "function",
      "signature": "0x87a2a9d6"
    },
    {
      "constant": true,
      "inputs": [],
      "name": "miningTarget",
      "outputs": [
        {
          "name": "",
          "type": "uint256"
        }
      ],
      "payable": false,
      "stateMutability": "view",
      "type": "function",
      "signature": "0x8a769d35"
    },
    {
      "constant": true,
      "inputs": [],
      "name": "challengeNumber",
      "outputs": [
        {
          "name": "",
          "type": "bytes32"
        }
      ],
      "payable": false,
      "stateMutability": "view",
      "type": "function",
      "signature": "0x8ae0368b"
    },
    {
      "constant": true,
      "inputs": [],
      "name": "symbol",
      "outputs": [
        {
          "name": "",
          "type": "string"
        }
      ],
      "payable": false,
      "stateMutability": "view",
      "type": "function",
      "signature": "0x95d89b41"
    },
    {
      "constant": true,
      "inputs": [],
      "name": "_BLOCKS_PER_READJUSTMENT",
      "outputs": [
        {
          "name": "",
          "type": "uint256"
        }
      ],
      "payable": false,
      "stateMutability": "view",
      "type": "function",
      "signature": "0xb5ade81b"
    },
    {
      "constant": true,
      "inputs": [],
      "name": "inflationrate",
      "outputs": [
        {
          "name": "",
          "type": "uint256"
        }
      ],
      "payable": false,
      "stateMutability": "view",
      "type": "function",
      "signature": "0xb6407769"
    },
    {
      "constant": true,
      "inputs": [],
      "name": "latestDifficultyPeriodStarted",
      "outputs": [
        {
          "name": "",
          "type": "uint256"
        }
      ],
      "payable": false,
      "stateMutability": "view",
      "type": "function",
      "signature": "0xcb9ae707"
    },
    {
      "constant": true,
      "inputs": [],
      "name": "blockreward",
      "outputs": [
        {
          "name": "",
          "type": "uint256"
        }
      ],
      "payable": false,
      "stateMutability": "view",
      "type": "function",
      "signature": "0xcf70fa40"
    },
    {
      "constant": true,
      "inputs": [],
      "name": "periodrewardtemp",
      "outputs": [
        {
          "name": "",
          "type": "int256"
        }
      ],
      "payable": false,
      "stateMutability": "view",
      "type": "function",
      "signature": "0xd40170d7"
    },
    {
      "constant": true,
      "inputs": [],
      "name": "_MINIMUM_TARGET",
      "outputs": [
        {
          "name": "",
          "type": "uint256"
        }
      ],
      "payable": false,
      "stateMutability": "view",
      "type": "function",
      "signature": "0xdc6e9cf9"
    },
    {
      "inputs": [],
      "payable": false,
      "stateMutability": "nonpayable",
      "type": "constructor",
      "signature": "constructor"
    },
    {
      "payable": true,
      "stateMutability": "payable",
      "type": "fallback"
    },
    {
      "anonymous": false,
      "inputs": [
        {
          "indexed": true,
          "name": "from",
          "type": "address"
        },
        {
          "indexed": true,
          "name": "to",
          "type": "address"
        },
        {
          "indexed": false,
          "name": "tokens",
          "type": "uint256"
        }
      ],
      "name": "Transfer",
      "type": "event",
      "signature": "0xddf252ad1be2c89b69c2b068fc378daa952ba7f163c4a11628f55a4df523b3ef"
    },
    {
      "anonymous": false,
      "inputs": [
        {
          "indexed": true,
          "name": "tokenOwner",
          "type": "address"
        },
        {
          "indexed": true,
          "name": "spender",
          "type": "address"
        },
        {
          "indexed": false,
          "name": "tokens",
          "type": "uint256"
        }
      ],
      "name": "Approval",
      "type": "event",
      "signature": "0x8c5be1e5ebec7d5bd14f71427d1e84f3dd0314c0f7b2291e5b200ac8c7c3b925"
    },
    {
      "anonymous": false,
      "inputs": [
        {
          "indexed": true,
          "name": "from",
          "type": "address"
        },
        {
          "indexed": false,
          "name": "blockreward",
          "type": "uint256"
        },
        {
          "indexed": false,
          "name": "epochCount",
          "type": "uint256"
        },
        {
          "indexed": false,
          "name": "newChallengeNumber",
          "type": "bytes32"
        }
      ],
      "name": "Mint",
      "type": "event",
      "signature": "0xcf6fbb9dcea7d07263ab4f5c3a92f53af33dffc421d9d121e1c74b307e68189d"
    },
    {
      "constant": true,
      "inputs": [
        {
          "name": "tokenOwner",
          "type": "address"
        },
        {
          "name": "spender",
          "type": "address"
        }
      ],
      "name": "allowance",
      "outputs": [
        {
          "name": "",
          "type": "uint256"
        }
      ],
      "payable": false,
      "stateMutability": "view",
      "type": "function",
      "signature": "0xdd62ed3e"
    },
    {
      "constant": false,
      "inputs": [
        {
          "name": "spender",
          "type": "address"
        },
        {
          "name": "tokens",
          "type": "uint256"
        }
      ],
      "name": "approve",
      "outputs": [
        {
          "name": "",
          "type": "bool"
        }
      ],
      "payable": false,
      "stateMutability": "nonpayable",
      "type": "function",
      "signature": "0x095ea7b3"
    },
    {
      "constant": false,
      "inputs": [
        {
          "name": "from",
          "type": "address"
        },
        {
          "name": "to",
          "type": "address"
        },
        {
          "name": "tokens",
          "type": "uint256"
        }
      ],
      "name": "transferFrom",
      "outputs": [
        {
          "name": "",
          "type": "bool"
        }
      ],
      "payable": false,
      "stateMutability": "nonpayable",
      "type": "function",
      "signature": "0x23b872dd"
    },
    {
      "constant": true,
      "inputs": [],
      "name": "totalSupply",
      "outputs": [
        {
          "name": "",
          "type": "uint256"
        }
      ],
      "payable": false,
      "stateMutability": "view",
      "type": "function",
      "signature": "0x18160ddd"
    },
    {
      "constant": true,
      "inputs": [
        {
          "name": "tokenOwner",
          "type": "address"
        }
      ],
      "name": "balanceOf",
      "outputs": [
        {
          "name": "balance",
          "type": "uint256"
        }
      ],
      "payable": false,
      "stateMutability": "view",
      "type": "function",
      "signature": "0x70a08231"
    },
    {
      "constant": false,
      "inputs": [
        {
          "name": "to",
          "type": "address"
        },
        {
          "name": "tokens",
          "type": "uint256"
        }
      ],
      "name": "transfer",
      "outputs": [
        {
          "name": "success",
          "type": "bool"
        }
      ],
      "payable": false,
      "stateMutability": "nonpayable",
      "type": "function",
      "signature": "0xa9059cbb"
    },
    {
      "constant": false,
      "inputs": [
        {
          "name": "nonce",
          "type": "uint256"
        },
        {
          "name": "challenge_digest",
          "type": "bytes32"
        }
      ],
      "name": "mint",
      "outputs": [
        {
          "name": "success",
          "type": "bool"
        }
      ],
      "payable": false,
      "stateMutability": "nonpayable",
      "type": "function",
      "signature": "0x1801fbe5"
    },
    {
      "constant": true,
      "inputs": [],
      "name": "getChallengeNumber",
      "outputs": [
        {
          "name": "",
          "type": "bytes32"
        }
      ],
      "payable": false,
      "stateMutability": "view",
      "type": "function",
      "signature": "0x4ef37628"
    },
    {
      "constant": true,
      "inputs": [],
      "name": "getMiningDifficulty",
      "outputs": [
        {
          "name": "",
          "type": "uint256"
        }
      ],
      "payable": false,
      "stateMutability": "view",
      "type": "function",
      "signature": "0x17da485f"
    },
    {
      "constant": true,
      "inputs": [],
      "name": "getMiningTarget",
      "outputs": [
        {
          "name": "",
          "type": "uint256"
        }
      ],
      "payable": false,
      "stateMutability": "view",
      "type": "function",
      "signature": "0x32e99708"
    },
    {
      "constant": true,
      "inputs": [
        {
          "name": "nonce",
          "type": "uint256"
        },
        {
          "name": "challenge_digest",
          "type": "bytes32"
        },
        {
          "name": "challenge_number",
          "type": "bytes32"
        }
      ],
      "name": "getMintDigest",
      "outputs": [
        {
          "name": "digesttest",
          "type": "bytes32"
        }
      ],
      "payable": false,
      "stateMutability": "view",
      "type": "function",
      "signature": "0x97566aa0"
    },
    {
      "constant": true,
      "inputs": [
        {
          "name": "nonce",
          "type": "uint256"
        },
        {
          "name": "challenge_digest",
          "type": "bytes32"
        },
        {
          "name": "challenge_number",
          "type": "bytes32"
        },
        {
          "name": "testTarget",
          "type": "uint256"
        }
      ],
      "name": "checkMintSolution",
      "outputs": [
        {
          "name": "success",
          "type": "bool"
        }
      ],
      "payable": false,
      "stateMutability": "view",
      "type": "function",
      "signature": "0x81269a56"
    },
    {
      "constant": false,
      "inputs": [
        {
          "name": "spender",
          "type": "address"
        },
        {
          "name": "tokens",
          "type": "uint256"
        },
        {
          "name": "data",
          "type": "bytes"
        }
      ],
      "name": "approveAndCall",
      "outputs": [
        {
          "name": "success",
          "type": "bool"
        }
      ],
      "payable": false,
      "stateMutability": "nonpayable",
      "type": "function",
      "signature": "0xcae9ca51"
    }
  ],
  "bytecode": "0x60806040526040805190810160405280600581526020017f4574696361000000000000000000000000000000000000000000000000000000815250600090805190602001906200005192919062000683565b506040805190810160405280600381526020017f4554490000000000000000000000000000000000000000000000000000000000815250600190805190602001906200009f92919062000683565b506012600255610400600d5562010000600e557e04000000000000000000000000000000000000000000000000000000000000600f556000601660006101000a81548160ff021916908315150217905550348015620000fd57600080fd5b5068056bc75e2d631000006003819055506200017968056bc75e2d63100000600860003073ffffffffffffffffffffffffffffffffffffffff1673ffffffffffffffffffffffffffffffffffffffff16815260200190815260200160002054620002ec6401000000000262001c3b179091906401000000009004565b600860003073ffffffffffffffffffffffffffffffffffffffff1673ffffffffffffffffffffffffffffffffffffffff168152602001908152602001600020819055506904772abe6c93ed94622e600581905550600254600a0a62a037a002600a81905550601660009054906101000a900460ff1615620001f957600080fd5b6001601660006101000a81548160ff0219169083151502179055506000601881905550600060128190555068012253ff998b28052d601381905550600f5460108190555043600b819055506200025d62000309640100000000026401000000009004565b6d014a713d95c1c369e4c10bb9816860048190555033600660006101000a81548173ffffffffffffffffffffffffffffffffffffffff021916908373ffffffffffffffffffffffffffffffffffffffff160217905550606060405190810160405280602781526020016200260c6027913960079080519060200190620002e592919062000683565b5062000732565b600081830190508281101515156200030357600080fd5b92915050565b6200032f6001600c54620002ec6401000000000262001c3b179091906401000000009004565b600c819055506000600d54600c548115156200034757fe5b06141562000369576200036862000376640100000000026401000000009004565b5b6001430340601181905550565b6000600b54430390506000600d5490506000603c8202905080831015620004a8576000620003df84620003c2606485620005ee6401000000000262001e51179091906401000000009004565b620006226401000000000262001c17179091906401000000009004565b905060006200042b6103e86200040e606485620006486401000000000262001ca1179091906401000000009004565b620006656401000000000262001e82179091906401000000009004565b90506200049a6200047a826200045d6107d0601054620006226401000000000262001c17179091906401000000009004565b620005ee6401000000000262001e51179091906401000000009004565b601054620006486401000000000262001ca1179091906401000000009004565b6010819055505050620005b4565b6000620004f082620004d3606487620005ee6401000000000262001e51179091906401000000009004565b620006226401000000000262001c17179091906401000000009004565b905060006200053c6103e86200051f606485620006486401000000000262001ca1179091906401000000009004565b620006656401000000000262001e82179091906401000000009004565b9050620005ab6200058b826200056e6107d0601054620006226401000000000262001c17179091906401000000009004565b620005ee6401000000000262001e51179091906401000000009004565b601054620002ec6401000000000262001c3b179091906401000000009004565b60108190555050505b43600b81905550600e546010541015620005d257600e546010819055505b600f546010541115620005e957600f546010819055505b505050565b6000818302905060008314806200061057508183828115156200060d57fe5b04145b15156200061c57600080fd5b92915050565b600080821115156200063357600080fd5b81838115156200063f57fe5b04905092915050565b60008282111515156200065a57600080fd5b818303905092915050565b60008183111562000679578190506200067d565b8290505b92915050565b828054600181600116156101000203166002900490600052602060002090601f016020900481019282601f10620006c657805160ff1916838001178555620006f7565b82800160010185558215620006f7579182015b82811115620006f6578251825591602001919060010190620006d9565b5b5090506200070691906200070a565b5090565b6200072f91905b808211156200072b57600081600090555060010162000711565b5090565b90565b611eca80620007426000396000f3fe608060405260043610610221576000357c0100000000000000000000000000000000000000000000000000000000900480636fd396d611610135578063a9059cbb116100bd578063cb9ae7071161008c578063cb9ae70714610bb2578063cf70fa4014610bdd578063d40170d714610c08578063dc6e9cf914610c33578063dd62ed3e14610c5e57610221565b8063a9059cbb146109df578063b5ade81b14610a52578063b640776914610a7d578063cae9ca5114610aa857610221565b806387a2a9d61161010457806387a2a9d61461086b5780638a769d35146108965780638ae0368b146108c157806395d89b41146108ec57806397566aa01461097c57610221565b80636fd396d61461071357806370a082311461076a57806381269a56146107cf578063829965cc1461084057610221565b806327e235e3116101b8578063410e1b0711610187578063410e1b07146105ab5780634d853ee5146105d65780634ef376281461062d5780636de7410c146106585780636de9f32b146106e857610221565b806327e235e3146104c55780632d38bf7a1461052a578063313ce5671461055557806332e997081461058057610221565b806317da485f116101f457806317da485f1461037f5780631801fbe5146103aa57806318160ddd1461040757806323b872dd1461043257610221565b8063047fc9aa1461022657806306fdde0314610251578063095ea7b3146102e1578063163aa00d14610354575b600080fd5b34801561023257600080fd5b5061023b610ce3565b6040518082815260200191505060405180910390f35b34801561025d57600080fd5b50610266610ce9565b6040518080602001828103825283818151815260200191508051906020019080838360005b838110156102a657808201518184015260208101905061028b565b50505050905090810190601f1680156102d35780820380516001836020036101000a031916815260200191505b509250505060405180910390f35b3480156102ed57600080fd5b5061033a6004803603604081101561030457600080fd5b81019080803573ffffffffffffffffffffffffffffffffffffffff16906020019092919080359060200190929190505050610d87565b604051808215151515815260200191505060405180910390f35b34801561036057600080fd5b50610369610ed6565b6040518082815260200191505060405180910390f35b34801561038b57600080fd5b50610394610edc565b6040518082815260200191505060405180910390f35b3480156103b657600080fd5b506103ed600480360360408110156103cd57600080fd5b810190808035906020019092919080359060200190929190505050610efa565b604051808215151515815260200191505060405180910390f35b34801561041357600080fd5b5061041c61117a565b6040518082815260200191505060405180910390f35b34801561043e57600080fd5b506104ab6004803603606081101561045557600080fd5b81019080803573ffffffffffffffffffffffffffffffffffffffff169060200190929190803573ffffffffffffffffffffffffffffffffffffffff16906020019092919080359060200190929190505050611184565b604051808215151515815260200191505060405180910390f35b3480156104d157600080fd5b50610514600480360360208110156104e857600080fd5b81019080803573ffffffffffffffffffffffffffffffffffffffff16906020019092919050505061142f565b6040518082815260200191505060405180910390f35b34801561053657600080fd5b5061053f611447565b6040518082815260200191505060405180910390f35b34801561056157600080fd5b5061056a61144d565b6040518082815260200191505060405180910390f35b34801561058c57600080fd5b50610595611453565b6040518082815260200191505060405180910390f35b3480156105b757600080fd5b506105c061145d565b6040518082815260200191505060405180910390f35b3480156105e257600080fd5b506105eb611463565b604051808273ffffffffffffffffffffffffffffffffffffffff1673ffffffffffffffffffffffffffffffffffffffff16815260200191505060405180910390f35b34801561063957600080fd5b50610642611489565b6040518082815260200191505060405180910390f35b34801561066457600080fd5b5061066d611493565b6040518080602001828103825283818151815260200191508051906020019080838360005b838110156106ad578082015181840152602081019050610692565b50505050905090810190601f1680156106da5780820380516001836020036101000a031916815260200191505b509250505060405180910390f35b3480156106f457600080fd5b506106fd611531565b6040518082815260200191505060405180910390f35b34801561071f57600080fd5b50610728611537565b604051808273ffffffffffffffffffffffffffffffffffffffff1673ffffffffffffffffffffffffffffffffffffffff16815260200191505060405180910390f35b34801561077657600080fd5b506107b96004803603602081101561078d57600080fd5b81019080803573ffffffffffffffffffffffffffffffffffffffff16906020019092919050505061155d565b6040518082815260200191505060405180910390f35b3480156107db57600080fd5b50610826600480360360808110156107f257600080fd5b81019080803590602001909291908035906020019092919080359060200190929190803590602001909291905050506115a6565b604051808215151515815260200191505060405180910390f35b34801561084c57600080fd5b5061085561163c565b6040518082815260200191505060405180910390f35b34801561087757600080fd5b50610880611642565b6040518082815260200191505060405180910390f35b3480156108a257600080fd5b506108ab611648565b6040518082815260200191505060405180910390f35b3480156108cd57600080fd5b506108d661164e565b6040518082815260200191505060405180910390f35b3480156108f857600080fd5b50610901611654565b6040518080602001828103825283818151815260200191508051906020019080838360005b83811015610941578082015181840152602081019050610926565b50505050905090810190601f16801561096e5780820380516001836020036101000a031916815260200191505b509250505060405180910390f35b34801561098857600080fd5b506109c96004803603606081101561099f57600080fd5b810190808035906020019092919080359060200190929190803590602001909291905050506116f2565b6040518082815260200191505060405180910390f35b3480156109eb57600080fd5b50610a3860048036036040811015610a0257600080fd5b81019080803573ffffffffffffffffffffffffffffffffffffffff16906020019092919080359060200190929190505050611774565b604051808215151515815260200191505060405180910390f35b348015610a5e57600080fd5b50610a6761191d565b6040518082815260200191505060405180910390f35b348015610a8957600080fd5b50610a92611923565b6040518082815260200191505060405180910390f35b348015610ab457600080fd5b50610b9860048036036060811015610acb57600080fd5b81019080803573ffffffffffffffffffffffffffffffffffffffff1690602001909291908035906020019092919080359060200190640100000000811115610b1257600080fd5b820183602082011115610b2457600080fd5b80359060200191846001830284011164010000000083111715610b4657600080fd5b91908080601f016020809104026020016040519081016040528093929190818152602001838380828437600081840152601f19601f820116905080830192505050505050509192919290505050611929565b604051808215151515815260200191505060405180910390f35b348015610bbe57600080fd5b50610bc7611b78565b6040518082815260200191505060405180910390f35b348015610be957600080fd5b50610bf2611b7e565b6040518082815260200191505060405180910390f35b348015610c1457600080fd5b50610c1d611b84565b6040518082815260200191505060405180910390f35b348015610c3f57600080fd5b50610c48611b8a565b6040518082815260200191505060405180910390f35b348015610c6a57600080fd5b50610ccd60048036036040811015610c8157600080fd5b81019080803573ffffffffffffffffffffffffffffffffffffffff169060200190929190803573ffffffffffffffffffffffffffffffffffffffff169060200190929190505050611b90565b6040518082815260200191505060405180910390f35b60035481565b60008054600181600116156101000203166002900480601f016020809104026020016040519081016040528092919081815260200182805460018160011615610100020316600290048015610d7f5780601f10610d5457610100808354040283529160200191610d7f565b820191906000526020600020905b815481529060010190602001808311610d6257829003601f168201915b505050505081565b600081600860003373ffffffffffffffffffffffffffffffffffffffff1673ffffffffffffffffffffffffffffffffffffffff1681526020019081526020016000205410151515610dd757600080fd5b600082111515610de657600080fd5b81600960003373ffffffffffffffffffffffffffffffffffffffff1673ffffffffffffffffffffffffffffffffffffffff16815260200190815260200160002060008573ffffffffffffffffffffffffffffffffffffffff1673ffffffffffffffffffffffffffffffffffffffff168152602001908152602001600020819055508273ffffffffffffffffffffffffffffffffffffffff163373ffffffffffffffffffffffffffffffffffffffff167f8c5be1e5ebec7d5bd14f71427d1e84f3dd0314c0f7b2291e5b200ac8c7c3b925846040518082815260200191505060405180910390a36001905092915050565b60155481565b6000610ef5601054600f54611c1790919063ffffffff16565b905090565b6000806011543385604051602001808481526020018373ffffffffffffffffffffffffffffffffffffffff1673ffffffffffffffffffffffffffffffffffffffff166c0100000000000000000000000002815260140182815260200193505050506040516020818303038152906040528051906020012090508281141515610f8157600080fd5b60105481600190041115610f9457600080fd5b60006017600060115481526020019081526020016000205490508160176000601154815260200190815260200160002081905550600060010281141515610fda57600080fd5b600a54601854101515610fe957fe5b611000601354601854611c3b90919063ffffffff16565b60188190555061101d601354600354611c3b90919063ffffffff16565b600381905550611077601354600860003373ffffffffffffffffffffffffffffffffffffffff1673ffffffffffffffffffffffffffffffffffffffff16815260200190815260200160002054611c3b90919063ffffffff16565b600860003373ffffffffffffffffffffffffffffffffffffffff1673ffffffffffffffffffffffffffffffffffffffff1681526020019081526020016000208190555033601460006101000a81548173ffffffffffffffffffffffffffffffffffffffff021916908373ffffffffffffffffffffffffffffffffffffffff1602179055504360158190555061110a611c57565b3373ffffffffffffffffffffffffffffffffffffffff167fcf6fbb9dcea7d07263ab4f5c3a92f53af33dffc421d9d121e1c74b307e68189d601354600c5460115460405180848152602001838152602001828152602001935050505060405180910390a260019250505092915050565b6000600354905090565b60006111d882600860008773ffffffffffffffffffffffffffffffffffffffff1673ffffffffffffffffffffffffffffffffffffffff16815260200190815260200160002054611ca190919063ffffffff16565b600860008673ffffffffffffffffffffffffffffffffffffffff1673ffffffffffffffffffffffffffffffffffffffff168152602001908152602001600020819055506112aa82600960008773ffffffffffffffffffffffffffffffffffffffff1673ffffffffffffffffffffffffffffffffffffffff16815260200190815260200160002060003373ffffffffffffffffffffffffffffffffffffffff1673ffffffffffffffffffffffffffffffffffffffff16815260200190815260200160002054611ca190919063ffffffff16565b600960008673ffffffffffffffffffffffffffffffffffffffff1673ffffffffffffffffffffffffffffffffffffffff16815260200190815260200160002060003373ffffffffffffffffffffffffffffffffffffffff1673ffffffffffffffffffffffffffffffffffffffff1681526020019081526020016000208190555061137c82600860008673ffffffffffffffffffffffffffffffffffffffff1673ffffffffffffffffffffffffffffffffffffffff16815260200190815260200160002054611c3b90919063ffffffff16565b600860008573ffffffffffffffffffffffffffffffffffffffff1673ffffffffffffffffffffffffffffffffffffffff168152602001908152602001600020819055508273ffffffffffffffffffffffffffffffffffffffff168473ffffffffffffffffffffffffffffffffffffffff167fddf252ad1be2c89b69c2b068fc378daa952ba7f163c4a11628f55a4df523b3ef846040518082815260200191505060405180910390a3600190509392505050565b60086020528060005260406000206000915090505481565b60125481565b60025481565b6000601054905090565b600a5481565b600660009054906101000a900473ffffffffffffffffffffffffffffffffffffffff1681565b6000601154905090565b60078054600181600116156101000203166002900480601f0160208091040260200160405190810160405280929190818152602001828054600181600116156101000203166002900480156115295780601f106114fe57610100808354040283529160200191611529565b820191906000526020600020905b81548152906001019060200180831161150c57829003601f168201915b505050505081565b60185481565b601460009054906101000a900473ffffffffffffffffffffffffffffffffffffffff1681565b6000600860008373ffffffffffffffffffffffffffffffffffffffff1673ffffffffffffffffffffffffffffffffffffffff168152602001908152602001600020549050919050565b600080833387604051602001808481526020018373ffffffffffffffffffffffffffffffffffffffff1673ffffffffffffffffffffffffffffffffffffffff166c010000000000000000000000000281526014018281526020019350505050604051602081830303815290604052805190602001209050828160019004111561162e57600080fd5b848114915050949350505050565b600c5481565b600f5481565b60105481565b60115481565b60018054600181600116156101000203166002900480601f0160208091040260200160405190810160405280929190818152602001828054600181600116156101000203166002900480156116ea5780601f106116bf576101008083540402835291602001916116ea565b820191906000526020600020905b8154815290600101906020018083116116cd57829003601f168201915b505050505081565b600080823386604051602001808481526020018373ffffffffffffffffffffffffffffffffffffffff1673ffffffffffffffffffffffffffffffffffffffff166c010000000000000000000000000281526014018281526020019350505050604051602081830303815290604052805190602001209050809150509392505050565b6000808211151561178457600080fd5b6117d682600860003373ffffffffffffffffffffffffffffffffffffffff1673ffffffffffffffffffffffffffffffffffffffff16815260200190815260200160002054611ca190919063ffffffff16565b600860003373ffffffffffffffffffffffffffffffffffffffff1673ffffffffffffffffffffffffffffffffffffffff1681526020019081526020016000208190555061186b82600860008673ffffffffffffffffffffffffffffffffffffffff1673ffffffffffffffffffffffffffffffffffffffff16815260200190815260200160002054611c3b90919063ffffffff16565b600860008573ffffffffffffffffffffffffffffffffffffffff1673ffffffffffffffffffffffffffffffffffffffff168152602001908152602001600020819055508273ffffffffffffffffffffffffffffffffffffffff163373ffffffffffffffffffffffffffffffffffffffff167fddf252ad1be2c89b69c2b068fc378daa952ba7f163c4a11628f55a4df523b3ef846040518082815260200191505060405180910390a36001905092915050565b600d5481565b60045481565b600082600960003373ffffffffffffffffffffffffffffffffffffffff1673ffffffffffffffffffffffffffffffffffffffff16815260200190815260200160002060008673ffffffffffffffffffffffffffffffffffffffff1673ffffffffffffffffffffffffffffffffffffffff168152602001908152602001600020819055508373ffffffffffffffffffffffffffffffffffffffff163373ffffffffffffffffffffffffffffffffffffffff167f8c5be1e5ebec7d5bd14f71427d1e84f3dd0314c0f7b2291e5b200ac8c7c3b925856040518082815260200191505060405180910390a38373ffffffffffffffffffffffffffffffffffffffff16638f4ffcb1338530866040518563ffffffff167c0100000000000000000000000000000000000000000000000000000000028152600401808573ffffffffffffffffffffffffffffffffffffffff1673ffffffffffffffffffffffffffffffffffffffff1681526020018481526020018373ffffffffffffffffffffffffffffffffffffffff1673ffffffffffffffffffffffffffffffffffffffff16815260200180602001828103825283818151815260200191508051906020019080838360005b83811015611b06578082015181840152602081019050611aeb565b50505050905090810190601f168015611b335780820380516001836020036101000a031916815260200191505b5095505050505050600060405180830381600087803b158015611b5557600080fd5b505af1158015611b69573d6000803e3d6000fd5b50505050600190509392505050565b600b5481565b60135481565b60055481565b600e5481565b6000600960008473ffffffffffffffffffffffffffffffffffffffff1673ffffffffffffffffffffffffffffffffffffffff16815260200190815260200160002060008373ffffffffffffffffffffffffffffffffffffffff1673ffffffffffffffffffffffffffffffffffffffff16815260200190815260200160002054905092915050565b60008082111515611c2757600080fd5b8183811515611c3257fe5b04905092915050565b60008183019050828110151515611c5157600080fd5b92915050565b611c6d6001600c54611c3b90919063ffffffff16565b600c819055506000600d54600c54811515611c8457fe5b061415611c9457611c93611cbd565b5b6001430340601181905550565b6000828211151515611cb257600080fd5b818303905092915050565b6000600b54430390506000600d5490506000603c8202905080831015611d7d576000611d0584611cf7606485611e5190919063ffffffff16565b611c1790919063ffffffff16565b90506000611d316103e8611d23606485611ca190919063ffffffff16565b611e8290919063ffffffff16565b9050611d70611d5f82611d516107d0601054611c1790919063ffffffff16565b611e5190919063ffffffff16565b601054611ca190919063ffffffff16565b6010819055505050611e19565b6000611da582611d97606487611e5190919063ffffffff16565b611c1790919063ffffffff16565b90506000611dd16103e8611dc3606485611ca190919063ffffffff16565b611e8290919063ffffffff16565b9050611e10611dff82611df16107d0601054611c1790919063ffffffff16565b611e5190919063ffffffff16565b601054611c3b90919063ffffffff16565b60108190555050505b43600b81905550600e546010541015611e3657600e546010819055505b600f546010541115611e4c57600f546010819055505b505050565b600081830290506000831480611e715750818382811515611e6e57fe5b04145b1515611e7c57600080fd5b92915050565b600081831115611e9457819050611e98565b8290505b9291505056fea165627a7a72305820f541cc4099e9bf9f2cab16f2066b815b725b3ab7d7b560e0dabf679edfd574d10029446973636f766572696e67206f7572206265737420467574757265732e204b6576696e20576164",
  "source": "pragma solidity ^0.5.2;\r\n// ----------------------------------------------------------------------------\r\n//this ICO smart contract has been compiled and tested with the Solidity Version 0.5.2\r\n//There are some minor changes comparing to ICO contract compiled with versions < 0.5.0\r\n// ----------------------------------------------------------------------------\r\n\r\n\r\n// ----------------------------------------------------------------------------\r\n\r\n// Safe maths\r\n\r\n// ----------------------------------------------------------------------------\r\n\r\nlibrary SafeMath {\r\n\r\n    function add(uint a, uint b) internal pure returns (uint c) {\r\n\r\n        c = a + b;\r\n\r\n        require(c >= a);\r\n\r\n    }\r\n\r\n    function sub(uint a, uint b) internal pure returns (uint c) {\r\n\r\n        require(b <= a);\r\n\r\n        c = a - b;\r\n\r\n    }\r\n\r\n    function mul(uint a, uint b) internal pure returns (uint c) {\r\n\r\n        c = a * b;\r\n\r\n        require(a == 0 || c / a == b);\r\n\r\n    }\r\n\r\n    function div(uint a, uint b) internal pure returns (uint c) {\r\n\r\n        require(b > 0);\r\n\r\n        c = a / b;\r\n\r\n    }\r\n\r\n}\r\n\r\n\r\n\r\nlibrary ExtendedMath {\r\n\r\n\r\n    //return the smaller of the two inputs (a or b)\r\n    function limitLessThan(uint a, uint b) internal pure returns (uint c) {\r\n\r\n        if(a > b) return b;\r\n\r\n        return a;\r\n\r\n    }\r\n}\r\n\r\n\r\n\r\ncontract ERC20Interface {\r\n    function totalSupply() public view returns (uint);\r\n    function balanceOf(address tokenOwner) public view returns (uint balance);\r\n    function transfer(address to, uint tokens) public returns (bool success);\r\n\r\n\r\n    function allowance(address tokenOwner, address spender) public view returns (uint remaining);\r\n    function approve(address spender, uint tokens) public returns (bool success);\r\n    function transferFrom(address from, address to, uint tokens) public returns (bool success);\r\n\r\n    event Transfer(address indexed from, address indexed to, uint tokens);\r\n    event Approval(address indexed tokenOwner, address indexed spender, uint tokens);\r\n}\r\n\r\n\r\n\r\n// -------- Mining system ----------------  //\r\n// ----------------------------------------------------------------------------\r\n\r\n// Contract function to receive approval and execute function in one call\r\n\r\n//\r\n\r\n// Borrowed from MiniMeToken\r\n\r\n// ----------------------------------------------------------------------------\r\n\r\ncontract ApproveAndCallFallBack {\r\n\r\n    function receiveApproval(address from, uint256 tokens, address token, bytes memory data) public;\r\n\r\n}\r\n\r\n// ---------- Mining system ------------ //\r\n\r\ncontract EticaToken is ERC20Interface{\r\n\r\n    using SafeMath for uint;\r\n    using ExtendedMath for uint;\r\n\r\n    string public name = \"Etica\";\r\n    string public symbol = \"ETI\";\r\n    uint public decimals = 18;\r\n\r\n    uint public supply;\r\n    // fixed inflation rate after etica supply has reached 21 Million\r\n    uint public inflationrate;\r\n    int public  periodrewardtemp; // Amount of ETI issued per period during phase1\r\n\r\n    // We don't want fake Satoshi again. Using it to prove founder's identity\r\n    address public founder;\r\n    string public foundermsgproof;\r\n\r\n    mapping(address => uint) public balances;\r\n\r\n    mapping(address => mapping(address => uint)) allowed;\r\n\r\n    //allowed[0x1111....][0x22222...] = 100;\r\n\r\n    // Mining system state variables\r\n    uint public _totalMiningSupply;\r\n\r\n\r\n\r\n     uint public latestDifficultyPeriodStarted;\r\n\r\n\r\n\r\n    uint public epochCount;//number of 'blocks' mined\r\n\r\n\r\n    uint public _BLOCKS_PER_READJUSTMENT = 1024;\r\n\r\n\r\n    //a little number\r\n    uint public  _MINIMUM_TARGET = 2**16;\r\n\r\n\r\n      //a big number is easier ; just find a solution that is smaller\r\n    //uint public  _MAXIMUM_TARGET = 2**224;  bitcoin uses 224\r\n    uint public  _MAXIMUM_TARGET = 2**242; // used for tests 243 much faster, 242 seems to be the limit where mining gets much harder\r\n    // uint public  _MAXIMUM_TARGET = 2**234; // used for prod\r\n\r\n\r\n    uint public miningTarget;\r\n\r\n    bytes32 public challengeNumber;   //generate a new one when a new reward is minted\r\n\r\n\r\n\r\n    uint public rewardEra;\r\n\r\n    uint public blockreward;\r\n\r\n\r\n    address public lastRewardTo;\r\n    uint public lastRewardEthBlockNumber;\r\n\r\n    bool locked = false;\r\n\r\n    mapping(bytes32 => bytes32) solutionForChallenge;\r\n\r\n    uint public tokensMinted;\r\n\r\n    // Mining system state variables\r\n\r\n\r\n\r\n\r\n    event Transfer(address indexed from, address indexed to, uint tokens);\r\n    event Approval(address indexed tokenOwner, address indexed spender, uint tokens);\r\n    event Mint(address indexed from, uint blockreward, uint epochCount, bytes32 newChallengeNumber);\r\n\r\n\r\n    constructor() public{\r\n      supply = 100 * (10**18); // initial supply equals 100 ETI\r\n      balances[address(this)] = balances[address(this)].add(100 * (10**18)); // 100 ETI as the default contract balance. To avoid any issue that could arise from negative contract balance because of significant numbers approximations\r\n\r\n\r\n      // PHASE 1 (before 21 Million ETI has been reached) -->\r\n      // 10 500 000 ETI to be issued as periodrewardtemp for ETICA reward system\r\n      // 10 500 000 ETI to be MINED\r\n\r\n\r\n      // <--phase1--> periodrewardtemp:\r\n      // fixed Etica issued per period (7 days) during phase1 (before 21 Million ETI has been reached)\r\n      // The amount of reward will be twice of first rewards of phase 2\r\n      // Calculation of first rewards of phase 2:\r\n      // 21 000 000 * 0.26180339887498948482045868343656 = 549787,13763747791812296323521678 ETI (first year reward)\r\n      // 549787,13763747791812296323521678 / 52.1429 = 10543,854247413893706007207792754 ETI (first weeks reward of phase2)\r\n      // 10543,854247413893706007207792754 * 2 = 21087,708494827787412014415585507 ETI\r\n      periodrewardtemp = 21087708494827787412014; // 21087,708494827787412014415585507 ETI per period (7 days) will take about 9,5491502812526287948853291408588 years to reach 10 500 000 ETI\r\n\r\n\r\n      // <--phase1--> mining:\r\n      _totalMiningSupply = 10500000 * 10**uint(decimals);\r\n\r\n      if(locked) revert();\r\n      locked = true;\r\n\r\n      tokensMinted = 0;\r\n\r\n      rewardEra = 0;\r\n\r\n      // The amount of etica mined per 7 days will be twice of first rewards of phase 2\r\n      // Calculation of first rewards of phase 2:\r\n      // 21 000 000 * 0.26180339887498948482045868343656 = 549787,13763747791812296323521678 ETI (first year reward)\r\n      // 549787,13763747791812296323521678 / 52.1429 = 10543,854247413893706007207792754 ETI (first weeks reward of phase2)\r\n      // 10543,854247413893706007207792754 * 2 = 21087,708494827787412014415585507 ETI per 7 days\r\n      // 21087,708494827787412014415585507 ETI per 7 days = 20,920345728995820845252396414193 ETI per block (10 minutes)\r\n      blockreward = 20920345728995820845;\r\n\r\n      miningTarget = _MAXIMUM_TARGET;\r\n\r\n      latestDifficultyPeriodStarted = block.number;\r\n\r\n      _startNewMiningEpoch();\r\n\r\n\r\n\r\n      // PHASE 1 <--\r\n\r\n      // --> PHASE 2\r\n      // Golden number power 2: 1,6180339887498948482045868343656 * 1,6180339887498948482045868343656 = 2.6180339887498948482045868343656; (need to multiple by 10^(-34) to get 0.26180339887498948482045868343656);\r\n      inflationrate = 26180339887498948482045868343656;\r\n\r\n       // PHASE 2 <--\r\n\r\n\r\n       //The founder gets nothing! You must mine or earn the Etica ERC20 token\r\n       //balances[founder] = _totalMiningSupply;\r\n       //Transfer(address(0), founder, _totalMiningSupply);\r\n      founder = msg.sender;\r\n      foundermsgproof = \"Discovering our best Futures. Kevin Wad\";\r\n    }\r\n\r\n\r\n    function allowance(address tokenOwner, address spender) view public returns(uint){\r\n        return allowed[tokenOwner][spender];\r\n    }\r\n\r\n\r\n    //approve allowance\r\n    function approve(address spender, uint tokens) public returns(bool){\r\n        require(balances[msg.sender] >= tokens);\r\n        require(tokens > 0);\r\n\r\n        allowed[msg.sender][spender] = tokens;\r\n        emit Approval(msg.sender, spender, tokens);\r\n        return true;\r\n    }\r\n\r\n    //transfer tokens from the  owner account to the account that calls the function\r\n    function transferFrom(address from, address to, uint tokens) public returns(bool){\r\n\r\n      balances[from] = balances[from].sub(tokens);\r\n\r\n      allowed[from][msg.sender] = allowed[from][msg.sender].sub(tokens);\r\n\r\n      balances[to] = balances[to].add(tokens);\r\n\r\n      emit Transfer(from, to, tokens);\r\n\r\n      return true;\r\n    }\r\n\r\n    function totalSupply() public view returns (uint){\r\n        return supply;\r\n    }\r\n\r\n    function balanceOf(address tokenOwner) public view returns (uint balance){\r\n         return balances[tokenOwner];\r\n     }\r\n\r\n\r\n    function transfer(address to, uint tokens) public returns (bool success){\r\n         require(tokens > 0);\r\n\r\n         balances[msg.sender] = balances[msg.sender].sub(tokens);\r\n\r\n         balances[to] = balances[to].add(tokens);\r\n\r\n         emit Transfer(msg.sender, to, tokens);\r\n\r\n         return true;\r\n     }\r\n\r\n\r\n     // -------------  Mining system functions ---------------- //\r\n\r\n         function mint(uint256 nonce, bytes32 challenge_digest) public returns (bool success) {\r\n\r\n\r\n             //the PoW must contain work that includes a recent ethereum block hash (challenge number) and the msg.sender's address to prevent MITM attacks\r\n             bytes32 digest =  keccak256(abi.encodePacked(challengeNumber, msg.sender, nonce));\r\n\r\n             //the challenge digest must match the expected\r\n             if (digest != challenge_digest) revert();\r\n\r\n             //the digest must be smaller than the target\r\n             if(uint256(digest) > miningTarget) revert();\r\n\r\n\r\n             //only allow one reward for each challenge\r\n              bytes32 solution = solutionForChallenge[challengeNumber];\r\n              solutionForChallenge[challengeNumber] = digest;\r\n              if(solution != 0x0) revert();  //prevent the same answer from awarding twice\r\n\r\n\r\n             //Cannot mint more tokens than there are: maximum ETI ever mined: _totalMiningSupply + blockreward\r\n             assert(tokensMinted < _totalMiningSupply);\r\n\r\n             tokensMinted = tokensMinted.add(blockreward);\r\n             supply = supply.add(blockreward);\r\n             balances[msg.sender] = balances[msg.sender].add(blockreward);\r\n\r\n             //set readonly diagnostics data\r\n             lastRewardTo = msg.sender;\r\n             lastRewardEthBlockNumber = block.number;\r\n\r\n\r\n              _startNewMiningEpoch();\r\n\r\n               emit Mint(msg.sender, blockreward, epochCount, challengeNumber );\r\n\r\n            return true;\r\n\r\n         }\r\n\r\n\r\n     //a new 'block' to be mined\r\n     function _startNewMiningEpoch() internal {\r\n\r\n\r\n       epochCount = epochCount.add(1);\r\n\r\n       //every so often, readjust difficulty. Dont readjust when deploying\r\n       if(epochCount % _BLOCKS_PER_READJUSTMENT == 0)\r\n       {\r\n         _reAdjustDifficulty();\r\n       }\r\n\r\n\r\n       //make the latest ethereum block hash a part of the next challenge for PoW to prevent pre-mining future blocks\r\n       //do this last since this is a protection mechanism in the mint() function\r\n       challengeNumber = blockhash(block.number - 1);\r\n\r\n\r\n\r\n\r\n\r\n\r\n     }\r\n\r\n\r\n\r\n\r\n     //https://en.bitcoin.it/wiki/Difficulty#What_is_the_formula_for_difficulty.3F\r\n     //as of 2017 the bitcoin difficulty was up to 17 zeroes, it was only 8 in the early days\r\n\r\n     //readjust the target by 5 percent\r\n     function _reAdjustDifficulty() internal {\r\n\r\n\r\n         uint ethBlocksSinceLastDifficultyPeriod = block.number - latestDifficultyPeriodStarted;\r\n         //assume 360 ethereum blocks per hour\r\n\r\n         //we want miners to spend 10 minutes to mine each 'block', about 60 ethereum blocks = one Mining system epoch\r\n         uint epochsMined = _BLOCKS_PER_READJUSTMENT; //256\r\n\r\n         uint targetEthBlocksPerDiffPeriod = epochsMined * 60; //should be 60 times slower than ethereum\r\n\r\n         //if there were less eth blocks passed in time than expected\r\n         if( ethBlocksSinceLastDifficultyPeriod < targetEthBlocksPerDiffPeriod )\r\n         {\r\n           uint excess_block_pct = (targetEthBlocksPerDiffPeriod.mul(100)).div( ethBlocksSinceLastDifficultyPeriod );\r\n\r\n           uint excess_block_pct_extra = excess_block_pct.sub(100).limitLessThan(1000);\r\n           // If there were 5% more blocks mined than expected then this is 5.  If there were 100% more blocks mined than expected then this is 100.\r\n\r\n           //make it harder\r\n           miningTarget = miningTarget.sub(miningTarget.div(2000).mul(excess_block_pct_extra));   //by up to 50 %\r\n         }else{\r\n           uint shortage_block_pct = (ethBlocksSinceLastDifficultyPeriod.mul(100)).div( targetEthBlocksPerDiffPeriod );\r\n\r\n           uint shortage_block_pct_extra = shortage_block_pct.sub(100).limitLessThan(1000); //always between 0 and 1000\r\n\r\n           //make it easier\r\n           miningTarget = miningTarget.add(miningTarget.div(2000).mul(shortage_block_pct_extra));   //by up to 50 %\r\n         }\r\n\r\n\r\n\r\n         latestDifficultyPeriodStarted = block.number;\r\n\r\n         if(miningTarget < _MINIMUM_TARGET) //very difficult\r\n         {\r\n           miningTarget = _MINIMUM_TARGET;\r\n         }\r\n\r\n         if(miningTarget > _MAXIMUM_TARGET) //very easy\r\n         {\r\n           miningTarget = _MAXIMUM_TARGET;\r\n         }\r\n     }\r\n\r\n\r\n     //this is a recent ethereum block hash, used to prevent pre-mining future blocks\r\n     function getChallengeNumber() public view returns (bytes32) {\r\n         return challengeNumber;\r\n     }\r\n\r\n     //the number of zeroes the digest of the PoW solution requires.  Auto adjusts\r\n      function getMiningDifficulty() public view returns (uint) {\r\n         return _MAXIMUM_TARGET.div(miningTarget);\r\n     }\r\n\r\n     function getMiningTarget() public view returns (uint) {\r\n        return miningTarget;\r\n    }\r\n\r\n\r\n     //help debug mining software\r\n     function getMintDigest(uint256 nonce, bytes32 challenge_digest, bytes32 challenge_number) public view returns (bytes32 digesttest) {\r\n\r\n         bytes32 digest = keccak256(abi.encodePacked(challenge_number,msg.sender,nonce));\r\n\r\n         return digest;\r\n\r\n       }\r\n\r\n         //help debug mining software\r\n       function checkMintSolution(uint256 nonce, bytes32 challenge_digest, bytes32 challenge_number, uint testTarget) public view returns (bool success) {\r\n\r\n           bytes32 digest = keccak256(abi.encodePacked(challenge_number,msg.sender,nonce));\r\n\r\n           if(uint256(digest) > testTarget) revert();\r\n\r\n           return (digest == challenge_digest);\r\n\r\n         }\r\n\r\n\r\n\r\n\r\n     // ------------------------------------------------------------------------\r\n\r\n     // Token owner can approve for `spender` to transferFrom(...) `tokens`\r\n\r\n     // from the token owner's account. The `spender` contract function\r\n\r\n     // `receiveApproval(...)` is then executed\r\n\r\n     // ------------------------------------------------------------------------\r\n\r\n     function approveAndCall(address spender, uint tokens, bytes memory data) public returns (bool success) {\r\n\r\n         allowed[msg.sender][spender] = tokens;\r\n\r\n         emit Approval(msg.sender, spender, tokens);\r\n\r\n         ApproveAndCallFallBack(spender).receiveApproval(msg.sender, tokens, address(this), data);\r\n\r\n         return true;\r\n\r\n     }\r\n\r\n\r\n\r\n     // ------------------------------------------------------------------------\r\n\r\n     // Don't accept ETH\r\n\r\n     // ------------------------------------------------------------------------\r\n\r\n     function () payable external {\r\n\r\n         revert();\r\n\r\n     }\r\n\r\n\r\n// ------------------      Mining system functions   -------------------------  //\r\n\r\n\r\n\r\n}\r\n",
  "sourcePath": "/mnt/d/linux/ethereum/etica/contracts/EticaToken.sol",
  "compiler": {
    "name": "solc",
    "version": "0.5.2+commit.1df8f40c.Emscripten.clang"
  },
  "schemaVersion": "3.0.1",
  "updatedAt": "2019-05-08T07:22:50.222Z",
  "devdoc": {
    "methods": {}
  },
  "userdoc": {
    "methods": {}
  }
}