{
  "contractName": "EticaTokenUniqueTest",
  "abi": [
    {
      "constant": true,
      "inputs": [],
      "name": "supply",
      "outputs": [
        {
          "name": "",
          "type": "uint256"
        }
      ],
      "payable": false,
      "stateMutability": "view",
      "type": "function"
    },
    {
      "constant": true,
      "inputs": [],
      "name": "name",
      "outputs": [
        {
          "name": "",
          "type": "string"
        }
      ],
      "payable": false,
      "stateMutability": "view",
      "type": "function"
    },
    {
      "constant": true,
      "inputs": [],
      "name": "lastRewardEthBlockNumber",
      "outputs": [
        {
          "name": "",
          "type": "uint256"
        }
      ],
      "payable": false,
      "stateMutability": "view",
      "type": "function"
    },
    {
      "constant": true,
      "inputs": [
        {
          "name": "",
          "type": "address"
        }
      ],
      "name": "balances",
      "outputs": [
        {
          "name": "",
          "type": "uint256"
        }
      ],
      "payable": false,
      "stateMutability": "view",
      "type": "function"
    },
    {
      "constant": true,
      "inputs": [],
      "name": "decimals",
      "outputs": [
        {
          "name": "",
          "type": "uint256"
        }
      ],
      "payable": false,
      "stateMutability": "view",
      "type": "function"
    },
    {
      "constant": true,
      "inputs": [],
      "name": "_totalMiningSupply",
      "outputs": [
        {
          "name": "",
          "type": "uint256"
        }
      ],
      "payable": false,
      "stateMutability": "view",
      "type": "function"
    },
    {
      "constant": true,
      "inputs": [],
      "name": "founder",
      "outputs": [
        {
          "name": "",
          "type": "address"
        }
      ],
      "payable": false,
      "stateMutability": "view",
      "type": "function"
    },
    {
      "constant": true,
      "inputs": [],
      "name": "foundermsgproof",
      "outputs": [
        {
          "name": "",
          "type": "string"
        }
      ],
      "payable": false,
      "stateMutability": "view",
      "type": "function"
    },
    {
      "constant": true,
      "inputs": [],
      "name": "tokensMinted",
      "outputs": [
        {
          "name": "",
          "type": "uint256"
        }
      ],
      "payable": false,
      "stateMutability": "view",
      "type": "function"
    },
    {
      "constant": true,
      "inputs": [],
      "name": "lastRewardTo",
      "outputs": [
        {
          "name": "",
          "type": "address"
        }
      ],
      "payable": false,
      "stateMutability": "view",
      "type": "function"
    },
    {
      "constant": true,
      "inputs": [],
      "name": "epochCount",
      "outputs": [
        {
          "name": "",
          "type": "uint256"
        }
      ],
      "payable": false,
      "stateMutability": "view",
      "type": "function"
    },
    {
      "constant": true,
      "inputs": [],
      "name": "_MAXIMUM_TARGET",
      "outputs": [
        {
          "name": "",
          "type": "uint256"
        }
      ],
      "payable": false,
      "stateMutability": "view",
      "type": "function"
    },
    {
      "constant": true,
      "inputs": [],
      "name": "miningTarget",
      "outputs": [
        {
          "name": "",
          "type": "uint256"
        }
      ],
      "payable": false,
      "stateMutability": "view",
      "type": "function"
    },
    {
      "constant": true,
      "inputs": [],
      "name": "challengeNumber",
      "outputs": [
        {
          "name": "",
          "type": "bytes32"
        }
      ],
      "payable": false,
      "stateMutability": "view",
      "type": "function"
    },
    {
      "constant": true,
      "inputs": [],
      "name": "symbol",
      "outputs": [
        {
          "name": "",
          "type": "string"
        }
      ],
      "payable": false,
      "stateMutability": "view",
      "type": "function"
    },
    {
      "constant": true,
      "inputs": [],
      "name": "_BLOCKS_PER_READJUSTMENT",
      "outputs": [
        {
          "name": "",
          "type": "uint256"
        }
      ],
      "payable": false,
      "stateMutability": "view",
      "type": "function"
    },
    {
      "constant": true,
      "inputs": [],
      "name": "inflationrate",
      "outputs": [
        {
          "name": "",
          "type": "uint256"
        }
      ],
      "payable": false,
      "stateMutability": "view",
      "type": "function"
    },
    {
      "constant": true,
      "inputs": [],
      "name": "latestDifficultyPeriodStarted",
      "outputs": [
        {
          "name": "",
          "type": "uint256"
        }
      ],
      "payable": false,
      "stateMutability": "view",
      "type": "function"
    },
    {
      "constant": true,
      "inputs": [],
      "name": "blockreward",
      "outputs": [
        {
          "name": "",
          "type": "uint256"
        }
      ],
      "payable": false,
      "stateMutability": "view",
      "type": "function"
    },
    {
      "constant": true,
      "inputs": [],
      "name": "periodrewardtemp",
      "outputs": [
        {
          "name": "",
          "type": "int256"
        }
      ],
      "payable": false,
      "stateMutability": "view",
      "type": "function"
    },
    {
      "constant": true,
      "inputs": [],
      "name": "_MINIMUM_TARGET",
      "outputs": [
        {
          "name": "",
          "type": "uint256"
        }
      ],
      "payable": false,
      "stateMutability": "view",
      "type": "function"
    },
    {
      "inputs": [],
      "payable": false,
      "stateMutability": "nonpayable",
      "type": "constructor"
    },
    {
      "payable": true,
      "stateMutability": "payable",
      "type": "fallback"
    },
    {
      "anonymous": false,
      "inputs": [
        {
          "indexed": true,
          "name": "from",
          "type": "address"
        },
        {
          "indexed": true,
          "name": "to",
          "type": "address"
        },
        {
          "indexed": false,
          "name": "tokens",
          "type": "uint256"
        }
      ],
      "name": "Transfer",
      "type": "event"
    },
    {
      "anonymous": false,
      "inputs": [
        {
          "indexed": true,
          "name": "tokenOwner",
          "type": "address"
        },
        {
          "indexed": true,
          "name": "spender",
          "type": "address"
        },
        {
          "indexed": false,
          "name": "tokens",
          "type": "uint256"
        }
      ],
      "name": "Approval",
      "type": "event"
    },
    {
      "anonymous": false,
      "inputs": [
        {
          "indexed": true,
          "name": "from",
          "type": "address"
        },
        {
          "indexed": false,
          "name": "blockreward",
          "type": "uint256"
        },
        {
          "indexed": false,
          "name": "epochCount",
          "type": "uint256"
        },
        {
          "indexed": false,
          "name": "newChallengeNumber",
          "type": "bytes32"
        }
      ],
      "name": "Mint",
      "type": "event"
    },
    {
      "constant": true,
      "inputs": [
        {
          "name": "tokenOwner",
          "type": "address"
        },
        {
          "name": "spender",
          "type": "address"
        }
      ],
      "name": "allowance",
      "outputs": [
        {
          "name": "",
          "type": "uint256"
        }
      ],
      "payable": false,
      "stateMutability": "view",
      "type": "function"
    },
    {
      "constant": false,
      "inputs": [
        {
          "name": "spender",
          "type": "address"
        },
        {
          "name": "tokens",
          "type": "uint256"
        }
      ],
      "name": "approve",
      "outputs": [
        {
          "name": "",
          "type": "bool"
        }
      ],
      "payable": false,
      "stateMutability": "nonpayable",
      "type": "function"
    },
    {
      "constant": false,
      "inputs": [
        {
          "name": "from",
          "type": "address"
        },
        {
          "name": "to",
          "type": "address"
        },
        {
          "name": "tokens",
          "type": "uint256"
        }
      ],
      "name": "transferFrom",
      "outputs": [
        {
          "name": "",
          "type": "bool"
        }
      ],
      "payable": false,
      "stateMutability": "nonpayable",
      "type": "function"
    },
    {
      "constant": true,
      "inputs": [],
      "name": "totalSupply",
      "outputs": [
        {
          "name": "",
          "type": "uint256"
        }
      ],
      "payable": false,
      "stateMutability": "view",
      "type": "function"
    },
    {
      "constant": true,
      "inputs": [
        {
          "name": "tokenOwner",
          "type": "address"
        }
      ],
      "name": "balanceOf",
      "outputs": [
        {
          "name": "balance",
          "type": "uint256"
        }
      ],
      "payable": false,
      "stateMutability": "view",
      "type": "function"
    },
    {
      "constant": false,
      "inputs": [
        {
          "name": "to",
          "type": "address"
        },
        {
          "name": "tokens",
          "type": "uint256"
        }
      ],
      "name": "transfer",
      "outputs": [
        {
          "name": "success",
          "type": "bool"
        }
      ],
      "payable": false,
      "stateMutability": "nonpayable",
      "type": "function"
    },
    {
      "constant": false,
      "inputs": [
        {
          "name": "nonce",
          "type": "uint256"
        },
        {
          "name": "challenge_digest",
          "type": "bytes32"
        }
      ],
      "name": "mint",
      "outputs": [
        {
          "name": "success",
          "type": "bool"
        }
      ],
      "payable": false,
      "stateMutability": "nonpayable",
      "type": "function"
    },
    {
      "constant": true,
      "inputs": [],
      "name": "getChallengeNumber",
      "outputs": [
        {
          "name": "",
          "type": "bytes32"
        }
      ],
      "payable": false,
      "stateMutability": "view",
      "type": "function"
    },
    {
      "constant": true,
      "inputs": [],
      "name": "getMiningDifficulty",
      "outputs": [
        {
          "name": "",
          "type": "uint256"
        }
      ],
      "payable": false,
      "stateMutability": "view",
      "type": "function"
    },
    {
      "constant": true,
      "inputs": [],
      "name": "getMiningTarget",
      "outputs": [
        {
          "name": "",
          "type": "uint256"
        }
      ],
      "payable": false,
      "stateMutability": "view",
      "type": "function"
    },
    {
      "constant": true,
      "inputs": [
        {
          "name": "nonce",
          "type": "uint256"
        },
        {
          "name": "challenge_digest",
          "type": "bytes32"
        },
        {
          "name": "challenge_number",
          "type": "bytes32"
        }
      ],
      "name": "getMintDigest",
      "outputs": [
        {
          "name": "digesttest",
          "type": "bytes32"
        }
      ],
      "payable": false,
      "stateMutability": "view",
      "type": "function"
    },
    {
      "constant": true,
      "inputs": [
        {
          "name": "nonce",
          "type": "uint256"
        },
        {
          "name": "challenge_digest",
          "type": "bytes32"
        },
        {
          "name": "challenge_number",
          "type": "bytes32"
        },
        {
          "name": "testTarget",
          "type": "uint256"
        }
      ],
      "name": "checkMintSolution",
      "outputs": [
        {
          "name": "success",
          "type": "bool"
        }
      ],
      "payable": false,
      "stateMutability": "view",
      "type": "function"
    }
  ],
  "bytecode": "0x60c0604052600560808190527f457469636100000000000000000000000000000000000000000000000000000060a090815262000040916000919062000489565b506040805180820190915260038082527f45544900000000000000000000000000000000000000000000000000000000006020909201918252620000879160019162000489565b506012600255610400600d5562010000600e557e04000000000000000000000000000000000000000000000000000000000000600f556015805460ff19169055348015620000d457600080fd5b5068056bc75e2d631000006003819055306000908152600860205260409020546200010d9164010000000062000e90620001e182021704565b306000908152600860205260409020556904772abe6c93ed94622e60055560025462a037a0600a91820a02905560155460ff16156200014b57600080fd5b6015805460ff19166001179055600060175568012253ff998b28052d601255600f5460105543600b5562000187640100000000620001f8810204565b6d014a713d95c1c369e4c10bb9816860045560068054600160a060020a0319163317905560408051606081019091526027808252620015da60208301398051620001da9160079160209091019062000489565b506200052e565b81810182811015620001f257600080fd5b92915050565b600c546200021690600164010000000062000e90620001e182021704565b600c819055600d54908115156200022957fe5b0615156200024457620002446401000000006200024f810204565b600019430140601155565b600b54600d54439190910390603c810280831015620003455760006200029f846200028a846064640100000000620010336200040e82021704565b9064010000000062000e6f6200043682021704565b90506000620002da6103e8620002c584606464010000000062000ee06200045982021704565b90640100000000620010586200046f82021704565b90506200033962000321826200030c6107d0601054620004366401000000000262000e6f179091906401000000009004565b90640100000000620010336200040e82021704565b6010549064010000000062000ee06200045982021704565b60105550620003dd9050565b600062000367826200028a866064640100000000620010336200040e82021704565b905060006200038d6103e8620002c584606464010000000062000ee06200045982021704565b9050620003d7620003bf826200030c6107d0601054620004366401000000000262000e6f179091906401000000009004565b6010549064010000000062000e90620001e182021704565b60105550505b43600b55600e546010541015620003f557600e546010555b600f5460105411156200040957600f546010555b505050565b8181028215806200042a57508183828115156200042757fe5b04145b1515620001f257600080fd5b60008082116200044557600080fd5b81838115156200045157fe5b049392505050565b6000828211156200046957600080fd5b50900390565b60008183111562000482575080620001f2565b5090919050565b828054600181600116156101000203166002900490600052602060002090601f016020900481019282601f10620004cc57805160ff1916838001178555620004fc565b82800160010185558215620004fc579182015b82811115620004fc578251825591602001919060010190620004df565b506200050a9291506200050e565b5090565b6200052b91905b808211156200050a576000815560010162000515565b90565b61109c806200053e6000396000f3fe60806040526004361061021b576000357c0100000000000000000000000000000000000000000000000000000000900480636fd396d61161013a57806397566aa0116100cd578063cb9ae7071161009c578063d40170d711610081578063d40170d7146106b0578063dc6e9cf9146106c5578063dd62ed3e146106da5761021b565b8063cb9ae70714610686578063cf70fa401461069b5761021b565b806397566aa0146105e0578063a9059cbb14610616578063b5ade81b1461065c578063b6407769146106715761021b565b806387a2a9d61161010957806387a2a9d61461058c5780638a769d35146105a15780638ae0368b146105b657806395d89b41146105cb5761021b565b80636fd396d6146104e657806370a08231146104fb57806381269a561461053b578063829965cc146105775761021b565b806327e235e3116101b25780634d853ee5116101815780634d853ee5146104695780634ef37628146104a75780636de7410c146104bc5780636de9f32b146104d15761021b565b806327e235e3146103ea578063313ce5671461042a57806332e997081461043f578063410e1b07146104545761021b565b806317da485f116101ee57806317da485f146103405780631801fbe51461035557806318160ddd1461038557806323b872dd1461039a5761021b565b8063047fc9aa1461022057806306fdde0314610247578063095ea7b3146102d1578063163aa00d1461032b575b600080fd5b34801561022c57600080fd5b50610235610722565b60408051918252519081900360200190f35b34801561025357600080fd5b5061025c610728565b6040805160208082528351818301528351919283929083019185019080838360005b8381101561029657818101518382015260200161027e565b50505050905090810190601f1680156102c35780820380516001836020036101000a031916815260200191505b509250505060405180910390f35b3480156102dd57600080fd5b50610317600480360360408110156102f457600080fd5b5073ffffffffffffffffffffffffffffffffffffffff81351690602001356107b6565b604080519115158252519081900360200190f35b34801561033757600080fd5b50610235610854565b34801561034c57600080fd5b5061023561085a565b34801561036157600080fd5b506103176004803603604081101561037857600080fd5b5080359060200135610878565b34801561039157600080fd5b506102356109f9565b3480156103a657600080fd5b50610317600480360360608110156103bd57600080fd5b5073ffffffffffffffffffffffffffffffffffffffff8135811691602081013590911690604001356109ff565b3480156103f657600080fd5b506102356004803603602081101561040d57600080fd5b503573ffffffffffffffffffffffffffffffffffffffff16610b3e565b34801561043657600080fd5b50610235610b50565b34801561044b57600080fd5b50610235610b56565b34801561046057600080fd5b50610235610b5c565b34801561047557600080fd5b5061047e610b62565b6040805173ffffffffffffffffffffffffffffffffffffffff9092168252519081900360200190f35b3480156104b357600080fd5b50610235610b7e565b3480156104c857600080fd5b5061025c610b84565b3480156104dd57600080fd5b50610235610bdf565b3480156104f257600080fd5b5061047e610be5565b34801561050757600080fd5b506102356004803603602081101561051e57600080fd5b503573ffffffffffffffffffffffffffffffffffffffff16610c01565b34801561054757600080fd5b506103176004803603608081101561055e57600080fd5b5080359060208101359060408101359060600135610c29565b34801561058357600080fd5b50610235610c83565b34801561059857600080fd5b50610235610c89565b3480156105ad57600080fd5b50610235610c8f565b3480156105c257600080fd5b50610235610c95565b3480156105d757600080fd5b5061025c610c9b565b3480156105ec57600080fd5b506102356004803603606081101561060357600080fd5b5080359060208101359060400135610cf5565b34801561062257600080fd5b506103176004803603604081101561063957600080fd5b5073ffffffffffffffffffffffffffffffffffffffff8135169060200135610d3b565b34801561066857600080fd5b50610235610e13565b34801561067d57600080fd5b50610235610e19565b34801561069257600080fd5b50610235610e1f565b3480156106a757600080fd5b50610235610e25565b3480156106bc57600080fd5b50610235610e2b565b3480156106d157600080fd5b50610235610e31565b3480156106e657600080fd5b50610235600480360360408110156106fd57600080fd5b5073ffffffffffffffffffffffffffffffffffffffff81358116916020013516610e37565b60035481565b6000805460408051602060026001851615610100026000190190941693909304601f810184900484028201840190925281815292918301828280156107ae5780601f10610783576101008083540402835291602001916107ae565b820191906000526020600020905b81548152906001019060200180831161079157829003601f168201915b505050505081565b336000908152600860205260408120548211156107d257600080fd5b600082116107df57600080fd5b33600081815260096020908152604080832073ffffffffffffffffffffffffffffffffffffffff881680855290835292819020869055805186815290519293927f8c5be1e5ebec7d5bd14f71427d1e84f3dd0314c0f7b2291e5b200ac8c7c3b925929181900390910190a35060015b92915050565b60145481565b6000610873601054600f54610e6f90919063ffffffff16565b905090565b601154604080516020808201939093526c01000000000000000000000000330281830152605480820186905282518083039091018152607490910190915280519101206000908281146108ca57600080fd5b6010548111156108d957600080fd5b601154600090815260166020526040902080549082905580156108fb57600080fd5b600a546017541061090857fe5b60125460175461091d9163ffffffff610e9016565b6017556012546003546109359163ffffffff610e9016565b6003556012543360009081526008602052604090205461095a9163ffffffff610e9016565b33600081815260086020526040902091909155601380547fffffffffffffffffffffffff0000000000000000000000000000000000000000169091179055436014556109a4610ea0565b601254600c54601154604080519384526020840192909252828201525133917fcf6fbb9dcea7d07263ab4f5c3a92f53af33dffc421d9d121e1c74b307e68189d919081900360600190a2506001949350505050565b60035490565b73ffffffffffffffffffffffffffffffffffffffff8316600090815260086020526040812054610a35908363ffffffff610ee016565b73ffffffffffffffffffffffffffffffffffffffff85166000908152600860209081526040808320939093556009815282822033835290522054610a7f908363ffffffff610ee016565b73ffffffffffffffffffffffffffffffffffffffff8086166000908152600960209081526040808320338452825280832094909455918616815260089091522054610ad0908363ffffffff610e9016565b73ffffffffffffffffffffffffffffffffffffffff80851660008181526008602090815260409182902094909455805186815290519193928816927fddf252ad1be2c89b69c2b068fc378daa952ba7f163c4a11628f55a4df523b3ef92918290030190a35060019392505050565b60086020526000908152604090205481565b60025481565b60105490565b600a5481565b60065473ffffffffffffffffffffffffffffffffffffffff1681565b60115490565b6007805460408051602060026001851615610100026000190190941693909304601f810184900484028201840190925281815292918301828280156107ae5780601f10610783576101008083540402835291602001916107ae565b60175481565b60135473ffffffffffffffffffffffffffffffffffffffff1681565b73ffffffffffffffffffffffffffffffffffffffff1660009081526008602052604090205490565b6040805160208082018590526c010000000000000000000000003302828401526054808301889052835180840390910181526074909201909252805191012060009082811115610c7857600080fd5b909314949350505050565b600c5481565b600f5481565b60105481565b60115481565b60018054604080516020600284861615610100026000190190941693909304601f810184900484028201840190925281815292918301828280156107ae5780601f10610783576101008083540402835291602001916107ae565b6040805160208082018490526c01000000000000000000000000330282840152605480830187905283518084039091018152607490920190925280519101209392505050565b6000808211610d4957600080fd5b33600090815260086020526040902054610d69908363ffffffff610ee016565b336000908152600860205260408082209290925573ffffffffffffffffffffffffffffffffffffffff851681522054610da8908363ffffffff610e9016565b73ffffffffffffffffffffffffffffffffffffffff84166000818152600860209081526040918290209390935580518581529051919233927fddf252ad1be2c89b69c2b068fc378daa952ba7f163c4a11628f55a4df523b3ef9281900390910190a350600192915050565b600d5481565b60045481565b600b5481565b60125481565b60055481565b600e5481565b73ffffffffffffffffffffffffffffffffffffffff918216600090815260096020908152604080832093909416825291909152205490565b6000808211610e7d57600080fd5b8183811515610e8857fe5b049392505050565b8181018281101561084e57600080fd5b600c54610eb490600163ffffffff610e9016565b600c819055600d5490811515610ec657fe5b061515610ed557610ed5610ef5565b600019430140601155565b600082821115610eef57600080fd5b50900390565b600b54600d54439190910390603c810280831015610f9d576000610f3084610f2484606463ffffffff61103316565b9063ffffffff610e6f16565b90506000610f576103e8610f4b84606463ffffffff610ee016565b9063ffffffff61105816565b9050610f92610f8382610f776107d0601054610e6f90919063ffffffff16565b9063ffffffff61103316565b6010549063ffffffff610ee016565b601055506110049050565b6000610fb482610f2486606463ffffffff61103316565b90506000610fcf6103e8610f4b84606463ffffffff610ee016565b9050610ffe610fef82610f776107d0601054610e6f90919063ffffffff16565b6010549063ffffffff610e9016565b60105550505b43600b55600e54601054101561101b57600e546010555b600f54601054111561102e57600f546010555b505050565b81810282158061104d575081838281151561104a57fe5b04145b151561084e57600080fd5b60008183111561106957508061084e565b509091905056fea165627a7a723058205e4fabc2f2fa4fd7942f25071fdac40bb46bc177608c9e24881364608c45f7200029446973636f766572696e67206f7572206265737420467574757265732e204b6576696e20576164",
  "source": "pragma solidity ^0.5.2;\n// ----------------------------------------------------------------------------\n//this ICO smart contract has been compiled and tested with the Solidity Version 0.5.2\n//There are some minor changes comparing to ICO contract compiled with versions < 0.5.0\n// ----------------------------------------------------------------------------\n\n\n// ----------------------------------------------------------------------------\n\n// Safe maths\n\n// ----------------------------------------------------------------------------\n\nlibrary SafeMath {\n\n    function add(uint a, uint b) internal pure returns (uint c) {\n\n        c = a + b;\n\n        require(c >= a);\n\n    }\n\n    function sub(uint a, uint b) internal pure returns (uint c) {\n\n        require(b <= a);\n\n        c = a - b;\n\n    }\n\n    function mul(uint a, uint b) internal pure returns (uint c) {\n\n        c = a * b;\n\n        require(a == 0 || c / a == b);\n\n    }\n\n    function div(uint a, uint b) internal pure returns (uint c) {\n\n        require(b > 0);\n\n        c = a / b;\n\n    }\n\n}\n\n\n\nlibrary ExtendedMath {\n\n\n    //return the smaller of the two inputs (a or b)\n    function limitLessThan(uint a, uint b) internal pure returns (uint c) {\n\n        if(a > b) return b;\n\n        return a;\n\n    }\n}\n\n\n\ncontract ERC20Interface {\n    function totalSupply() public view returns (uint);\n    function balanceOf(address tokenOwner) public view returns (uint balance);\n    function transfer(address to, uint tokens) public returns (bool success);\n\n\n    function allowance(address tokenOwner, address spender) public view returns (uint remaining);\n    function approve(address spender, uint tokens) public returns (bool success);\n    function transferFrom(address from, address to, uint tokens) public returns (bool success);\n\n    event Transfer(address indexed from, address indexed to, uint tokens);\n    event Approval(address indexed tokenOwner, address indexed spender, uint tokens);\n}\n\n\n\ncontract EticaTokenUniqueTest is ERC20Interface{\n\n    using SafeMath for uint;\n    using ExtendedMath for uint;\n\n    string public name = \"Etica\";\n    string public symbol = \"ETI\";\n    uint public decimals = 18;\n\n    uint public supply;\n    // fixed inflation rate after etica supply has reached 21 Million\n    uint public inflationrate;\n    int public  periodrewardtemp; // Amount of ETI issued per period during phase1\n\n    // We don't want fake Satoshi again. Using it to prove founder's identity\n    address public founder;\n    string public foundermsgproof;\n\n    mapping(address => uint) public balances;\n\n    mapping(address => mapping(address => uint)) allowed;\n\n    //allowed[0x1111....][0x22222...] = 100;\n\n    // Mining system state variables\n    uint public _totalMiningSupply;\n\n\n\n     uint public latestDifficultyPeriodStarted;\n\n\n\n    uint public epochCount;//number of 'blocks' mined\n\n\n    uint public _BLOCKS_PER_READJUSTMENT = 1024;\n\n\n    //a little number\n    uint public  _MINIMUM_TARGET = 2**16;\n\n\n      //a big number is easier ; just find a solution that is smaller\n    //uint public  _MAXIMUM_TARGET = 2**224;  bitcoin uses 224\n    uint public  _MAXIMUM_TARGET = 2**242; // used for tests 243 much faster, 242 seems to be the limit where mining gets much harder\n    // uint public  _MAXIMUM_TARGET = 2**234; // used for prod\n\n\n    uint public miningTarget;\n\n    bytes32 public challengeNumber;   //generate a new one when a new reward is minted\n\n\n    uint public blockreward;\n\n\n    address public lastRewardTo;\n    uint public lastRewardEthBlockNumber;\n\n    bool locked = false;\n\n    mapping(bytes32 => bytes32) solutionForChallenge;\n\n    uint public tokensMinted;\n\n    // Mining system state variables\n\n\n\n\n    event Transfer(address indexed from, address indexed to, uint tokens);\n    event Approval(address indexed tokenOwner, address indexed spender, uint tokens);\n    event Mint(address indexed from, uint blockreward, uint epochCount, bytes32 newChallengeNumber);\n\n\n    constructor() public{\n      supply = 100 * (10**18); // initial supply equals 100 ETI\n      balances[address(this)] = balances[address(this)].add(100 * (10**18)); // 100 ETI as the default contract balance. To avoid any issue that could arise from negative contract balance because of significant numbers approximations\n\n\n      // PHASE 1 (before 21 Million ETI has been reached) -->\n      // 10 500 000 ETI to be issued as periodrewardtemp for ETICA reward system\n      // 10 500 000 ETI to be MINED\n\n\n      // <--phase1--> periodrewardtemp:\n      // fixed Etica issued per period (7 days) during phase1 (before 21 Million ETI has been reached)\n      // The amount of reward will be twice of first rewards of phase 2\n      // Calculation of first rewards of phase 2:\n      // 21 000 000 * 0.26180339887498948482045868343656 = 549787,13763747791812296323521678 ETI (first year reward)\n      // 549787,13763747791812296323521678 / 52.1429 = 10543,854247413893706007207792754 ETI (first weeks reward of phase2)\n      // 10543,854247413893706007207792754 * 2 = 21087,708494827787412014415585507 ETI\n      periodrewardtemp = 21087708494827787412014; // 21087,708494827787412014415585507 ETI per period (7 days) will take about 9,5491502812526287948853291408588 years to reach 10 500 000 ETI\n\n\n      // <--phase1--> mining:\n      _totalMiningSupply = 10500000 * 10**uint(decimals);\n\n      if(locked) revert();\n      locked = true;\n\n      tokensMinted = 0;\n\n\n      // The amount of etica mined per 7 days will be twice of first rewards of phase 2\n      // Calculation of first rewards of phase 2:\n      // 21 000 000 * 0.26180339887498948482045868343656 = 549787,13763747791812296323521678 ETI (first year reward)\n      // 549787,13763747791812296323521678 / 52.1429 = 10543,854247413893706007207792754 ETI (first weeks reward of phase2)\n      // 10543,854247413893706007207792754 * 2 = 21087,708494827787412014415585507 ETI per 7 days\n      // 21087,708494827787412014415585507 ETI per 7 days = 20,920345728995820845252396414193 ETI per block (10 minutes)\n      blockreward = 20920345728995820845;\n\n      miningTarget = _MAXIMUM_TARGET;\n\n      latestDifficultyPeriodStarted = block.number;\n\n      _startNewMiningEpoch();\n\n      // PHASE 1 <--\n\n      // --> PHASE 2\n      // Golden number power 2: 1,6180339887498948482045868343656 * 1,6180339887498948482045868343656 = 2.6180339887498948482045868343656;\n      inflationrate = 26180339887498948482045868343656; // (need to multiple by 10^(-33) to get 0.026180339887498948482045868343656);\n\n       // PHASE 2 <--\n\n\n       //The founder gets nothing! You must mine or earn the Etica ERC20 token\n       //balances[founder] = _totalMiningSupply;\n       //Transfer(address(0), founder, _totalMiningSupply);\n      founder = msg.sender;\n      foundermsgproof = \"Discovering our best Futures. Kevin Wad\";\n    }\n\n\n    function allowance(address tokenOwner, address spender) view public returns(uint){\n        return allowed[tokenOwner][spender];\n    }\n\n\n    //approve allowance\n    function approve(address spender, uint tokens) public returns(bool){\n        require(balances[msg.sender] >= tokens);\n        require(tokens > 0);\n\n        allowed[msg.sender][spender] = tokens;\n        emit Approval(msg.sender, spender, tokens);\n        return true;\n    }\n\n    //transfer tokens from the  owner account to the account that calls the function\n    function transferFrom(address from, address to, uint tokens) public returns(bool){\n\n      balances[from] = balances[from].sub(tokens);\n\n      allowed[from][msg.sender] = allowed[from][msg.sender].sub(tokens);\n\n      balances[to] = balances[to].add(tokens);\n\n      emit Transfer(from, to, tokens);\n\n      return true;\n    }\n\n    function totalSupply() public view returns (uint){\n        return supply;\n    }\n\n    function balanceOf(address tokenOwner) public view returns (uint balance){\n         return balances[tokenOwner];\n     }\n\n\n    function transfer(address to, uint tokens) public returns (bool success){\n         require(tokens > 0);\n\n         balances[msg.sender] = balances[msg.sender].sub(tokens);\n\n         balances[to] = balances[to].add(tokens);\n\n         emit Transfer(msg.sender, to, tokens);\n\n         return true;\n     }\n\n\n     // -------------  Mining system functions ---------------- //\n\n         function mint(uint256 nonce, bytes32 challenge_digest) public returns (bool success) {\n\n\n             //the PoW must contain work that includes a recent ethereum block hash (challenge number) and the msg.sender's address to prevent MITM attacks\n             bytes32 digest =  keccak256(abi.encodePacked(challengeNumber, msg.sender, nonce));\n\n             //the challenge digest must match the expected\n             if (digest != challenge_digest) revert();\n\n             //the digest must be smaller than the target\n             if(uint256(digest) > miningTarget) revert();\n\n\n             //only allow one reward for each challenge\n              bytes32 solution = solutionForChallenge[challengeNumber];\n              solutionForChallenge[challengeNumber] = digest;\n              if(solution != 0x0) revert();  //prevent the same answer from awarding twice\n\n\n             //Cannot mint more tokens than there are: maximum ETI ever mined: _totalMiningSupply + blockreward\n             assert(tokensMinted < _totalMiningSupply);\n\n             tokensMinted = tokensMinted.add(blockreward);\n             supply = supply.add(blockreward);\n             balances[msg.sender] = balances[msg.sender].add(blockreward);\n\n             //set readonly diagnostics data\n             lastRewardTo = msg.sender;\n             lastRewardEthBlockNumber = block.number;\n\n\n              _startNewMiningEpoch();\n\n               emit Mint(msg.sender, blockreward, epochCount, challengeNumber );\n\n            return true;\n\n         }\n\n\n     //a new 'block' to be mined\n     function _startNewMiningEpoch() internal {\n\n\n       epochCount = epochCount.add(1);\n\n       //every so often, readjust difficulty. Dont readjust when deploying\n       if(epochCount % _BLOCKS_PER_READJUSTMENT == 0)\n       {\n         _reAdjustDifficulty();\n       }\n\n\n       //make the latest ethereum block hash a part of the next challenge for PoW to prevent pre-mining future blocks\n       //do this last since this is a protection mechanism in the mint() function\n       challengeNumber = blockhash(block.number - 1);\n\n     }\n\n\n\n\n     //https://en.bitcoin.it/wiki/Difficulty#What_is_the_formula_for_difficulty.3F\n     //as of 2017 the bitcoin difficulty was up to 17 zeroes, it was only 8 in the early days\n\n     //readjust the target by 5 percent\n     function _reAdjustDifficulty() internal {\n\n\n         uint ethBlocksSinceLastDifficultyPeriod = block.number - latestDifficultyPeriodStarted;\n         //assume 360 ethereum blocks per hour\n\n         //we want miners to spend 10 minutes to mine each 'block', about 60 ethereum blocks = one Mining system epoch\n         uint epochsMined = _BLOCKS_PER_READJUSTMENT; //256\n\n         uint targetEthBlocksPerDiffPeriod = epochsMined * 60; //should be 60 times slower than ethereum\n\n         //if there were less eth blocks passed in time than expected\n         if( ethBlocksSinceLastDifficultyPeriod < targetEthBlocksPerDiffPeriod )\n         {\n           uint excess_block_pct = (targetEthBlocksPerDiffPeriod.mul(100)).div( ethBlocksSinceLastDifficultyPeriod );\n\n           uint excess_block_pct_extra = excess_block_pct.sub(100).limitLessThan(1000);\n           // If there were 5% more blocks mined than expected then this is 5.  If there were 100% more blocks mined than expected then this is 100.\n\n           //make it harder\n           miningTarget = miningTarget.sub(miningTarget.div(2000).mul(excess_block_pct_extra));   //by up to 50 %\n         }else{\n           uint shortage_block_pct = (ethBlocksSinceLastDifficultyPeriod.mul(100)).div( targetEthBlocksPerDiffPeriod );\n\n           uint shortage_block_pct_extra = shortage_block_pct.sub(100).limitLessThan(1000); //always between 0 and 1000\n\n           //make it easier\n           miningTarget = miningTarget.add(miningTarget.div(2000).mul(shortage_block_pct_extra));   //by up to 50 %\n         }\n\n\n\n         latestDifficultyPeriodStarted = block.number;\n\n         if(miningTarget < _MINIMUM_TARGET) //very difficult\n         {\n           miningTarget = _MINIMUM_TARGET;\n         }\n\n         if(miningTarget > _MAXIMUM_TARGET) //very easy\n         {\n           miningTarget = _MAXIMUM_TARGET;\n         }\n     }\n\n\n     //this is a recent ethereum block hash, used to prevent pre-mining future blocks\n     function getChallengeNumber() public view returns (bytes32) {\n         return challengeNumber;\n     }\n\n     //the number of zeroes the digest of the PoW solution requires.  Auto adjusts\n      function getMiningDifficulty() public view returns (uint) {\n         return _MAXIMUM_TARGET.div(miningTarget);\n     }\n\n     function getMiningTarget() public view returns (uint) {\n        return miningTarget;\n    }\n\n\n     //help debug mining software\n     function getMintDigest(uint256 nonce, bytes32 challenge_digest, bytes32 challenge_number) public view returns (bytes32 digesttest) {\n\n         bytes32 digest = keccak256(abi.encodePacked(challenge_number,msg.sender,nonce));\n\n         return digest;\n\n       }\n\n         //help debug mining software\n       function checkMintSolution(uint256 nonce, bytes32 challenge_digest, bytes32 challenge_number, uint testTarget) public view returns (bool success) {\n\n           bytes32 digest = keccak256(abi.encodePacked(challenge_number,msg.sender,nonce));\n\n           if(uint256(digest) > testTarget) revert();\n\n           return (digest == challenge_digest);\n\n         }\n\n\n// ------------------      Mining system functions   -------------------------  //\n\n// ------------------------------------------------------------------------\n\n// Don't accept ETH\n\n// ------------------------------------------------------------------------\n\nfunction () payable external {\n\n    revert();\n\n}\n\n}\n",
  "sourcePath": "/mnt/d/linux/ethereum/etica/contracts/EticaTokenUniqueTest.sol",
  "compiler": {
    "name": "solc",
    "version": "0.5.2+commit.1df8f40c.Emscripten.clang"
  },
  "schemaVersion": "3.0.9",
  "updatedAt": "2019-06-19T12:30:35.944Z",
  "devdoc": {
    "methods": {}
  },
  "userdoc": {
    "methods": {}
  }
}