{
  "contractName": "EticaRelease",
  "abi": [
    {
      "constant": true,
      "inputs": [],
      "name": "supply",
      "outputs": [
        {
          "name": "",
          "type": "uint256"
        }
      ],
      "payable": false,
      "stateMutability": "view",
      "type": "function"
    },
    {
      "constant": true,
      "inputs": [],
      "name": "name",
      "outputs": [
        {
          "name": "",
          "type": "string"
        }
      ],
      "payable": false,
      "stateMutability": "view",
      "type": "function"
    },
    {
      "constant": false,
      "inputs": [
        {
          "name": "spender",
          "type": "address"
        },
        {
          "name": "tokens",
          "type": "uint256"
        }
      ],
      "name": "approve",
      "outputs": [
        {
          "name": "",
          "type": "bool"
        }
      ],
      "payable": false,
      "stateMutability": "nonpayable",
      "type": "function"
    },
    {
      "constant": true,
      "inputs": [
        {
          "name": "",
          "type": "bytes32"
        }
      ],
      "name": "diseasesbyIds",
      "outputs": [
        {
          "name": "",
          "type": "uint256"
        }
      ],
      "payable": false,
      "stateMutability": "view",
      "type": "function"
    },
    {
      "constant": true,
      "inputs": [],
      "name": "lastRewardEthBlockNumber",
      "outputs": [
        {
          "name": "",
          "type": "uint256"
        }
      ],
      "payable": false,
      "stateMutability": "view",
      "type": "function"
    },
    {
      "constant": true,
      "inputs": [],
      "name": "getMiningDifficulty",
      "outputs": [
        {
          "name": "",
          "type": "uint256"
        }
      ],
      "payable": false,
      "stateMutability": "view",
      "type": "function"
    },
    {
      "constant": false,
      "inputs": [
        {
          "name": "nonce",
          "type": "uint256"
        },
        {
          "name": "challenge_digest",
          "type": "bytes32"
        }
      ],
      "name": "mint",
      "outputs": [
        {
          "name": "success",
          "type": "bool"
        }
      ],
      "payable": false,
      "stateMutability": "nonpayable",
      "type": "function"
    },
    {
      "constant": true,
      "inputs": [],
      "name": "totalSupply",
      "outputs": [
        {
          "name": "",
          "type": "uint256"
        }
      ],
      "payable": false,
      "stateMutability": "view",
      "type": "function"
    },
    {
      "constant": true,
      "inputs": [],
      "name": "IntervalsPeriodsCounter",
      "outputs": [
        {
          "name": "",
          "type": "uint256"
        }
      ],
      "payable": false,
      "stateMutability": "view",
      "type": "function"
    },
    {
      "constant": false,
      "inputs": [
        {
          "name": "from",
          "type": "address"
        },
        {
          "name": "to",
          "type": "address"
        },
        {
          "name": "tokens",
          "type": "uint256"
        }
      ],
      "name": "transferFrom",
      "outputs": [
        {
          "name": "",
          "type": "bool"
        }
      ],
      "payable": false,
      "stateMutability": "nonpayable",
      "type": "function"
    },
    {
      "constant": true,
      "inputs": [
        {
          "name": "",
          "type": "address"
        }
      ],
      "name": "balances",
      "outputs": [
        {
          "name": "",
          "type": "uint256"
        }
      ],
      "payable": false,
      "stateMutability": "view",
      "type": "function"
    },
    {
      "constant": true,
      "inputs": [],
      "name": "decimals",
      "outputs": [
        {
          "name": "",
          "type": "uint256"
        }
      ],
      "payable": false,
      "stateMutability": "view",
      "type": "function"
    },
    {
      "constant": true,
      "inputs": [],
      "name": "getMiningTarget",
      "outputs": [
        {
          "name": "",
          "type": "uint256"
        }
      ],
      "payable": false,
      "stateMutability": "view",
      "type": "function"
    },
    {
      "constant": true,
      "inputs": [],
      "name": "_totalMiningSupply",
      "outputs": [
        {
          "name": "",
          "type": "uint256"
        }
      ],
      "payable": false,
      "stateMutability": "view",
      "type": "function"
    },
    {
      "constant": true,
      "inputs": [
        {
          "name": "",
          "type": "uint256"
        }
      ],
      "name": "diseases",
      "outputs": [
        {
          "name": "uniquehash",
          "type": "bytes32"
        },
        {
          "name": "name",
          "type": "string"
        },
        {
          "name": "description",
          "type": "string"
        }
      ],
      "payable": false,
      "stateMutability": "view",
      "type": "function"
    },
    {
      "constant": true,
      "inputs": [],
      "name": "founder",
      "outputs": [
        {
          "name": "",
          "type": "address"
        }
      ],
      "payable": false,
      "stateMutability": "view",
      "type": "function"
    },
    {
      "constant": true,
      "inputs": [],
      "name": "getChallengeNumber",
      "outputs": [
        {
          "name": "",
          "type": "bytes32"
        }
      ],
      "payable": false,
      "stateMutability": "view",
      "type": "function"
    },
    {
      "constant": true,
      "inputs": [
        {
          "name": "",
          "type": "address"
        }
      ],
      "name": "bosoms",
      "outputs": [
        {
          "name": "",
          "type": "uint256"
        }
      ],
      "payable": false,
      "stateMutability": "view",
      "type": "function"
    },
    {
      "constant": true,
      "inputs": [
        {
          "name": "",
          "type": "address"
        },
        {
          "name": "",
          "type": "uint256"
        }
      ],
      "name": "stakes",
      "outputs": [
        {
          "name": "amount",
          "type": "uint256"
        },
        {
          "name": "startBlock",
          "type": "uint256"
        },
        {
          "name": "endBlock",
          "type": "uint256"
        }
      ],
      "payable": false,
      "stateMutability": "view",
      "type": "function"
    },
    {
      "constant": true,
      "inputs": [],
      "name": "foundermsgproof",
      "outputs": [
        {
          "name": "",
          "type": "string"
        }
      ],
      "payable": false,
      "stateMutability": "view",
      "type": "function"
    },
    {
      "constant": true,
      "inputs": [],
      "name": "tokensMinted",
      "outputs": [
        {
          "name": "",
          "type": "uint256"
        }
      ],
      "payable": false,
      "stateMutability": "view",
      "type": "function"
    },
    {
      "constant": true,
      "inputs": [],
      "name": "lastRewardTo",
      "outputs": [
        {
          "name": "",
          "type": "address"
        }
      ],
      "payable": false,
      "stateMutability": "view",
      "type": "function"
    },
    {
      "constant": true,
      "inputs": [
        {
          "name": "tokenOwner",
          "type": "address"
        }
      ],
      "name": "balanceOf",
      "outputs": [
        {
          "name": "balance",
          "type": "uint256"
        }
      ],
      "payable": false,
      "stateMutability": "view",
      "type": "function"
    },
    {
      "constant": true,
      "inputs": [
        {
          "name": "nonce",
          "type": "uint256"
        },
        {
          "name": "challenge_digest",
          "type": "bytes32"
        },
        {
          "name": "challenge_number",
          "type": "bytes32"
        },
        {
          "name": "testTarget",
          "type": "uint256"
        }
      ],
      "name": "checkMintSolution",
      "outputs": [
        {
          "name": "success",
          "type": "bool"
        }
      ],
      "payable": false,
      "stateMutability": "view",
      "type": "function"
    },
    {
      "constant": true,
      "inputs": [],
      "name": "epochCount",
      "outputs": [
        {
          "name": "",
          "type": "uint256"
        }
      ],
      "payable": false,
      "stateMutability": "view",
      "type": "function"
    },
    {
      "constant": true,
      "inputs": [],
      "name": "_MAXIMUM_TARGET",
      "outputs": [
        {
          "name": "",
          "type": "uint256"
        }
      ],
      "payable": false,
      "stateMutability": "view",
      "type": "function"
    },
    {
      "constant": true,
      "inputs": [
        {
          "name": "",
          "type": "uint256"
        }
      ],
      "name": "IntervalsPeriods",
      "outputs": [
        {
          "name": "",
          "type": "uint256"
        }
      ],
      "payable": false,
      "stateMutability": "view",
      "type": "function"
    },
    {
      "constant": true,
      "inputs": [],
      "name": "miningTarget",
      "outputs": [
        {
          "name": "",
          "type": "uint256"
        }
      ],
      "payable": false,
      "stateMutability": "view",
      "type": "function"
    },
    {
      "constant": true,
      "inputs": [],
      "name": "challengeNumber",
      "outputs": [
        {
          "name": "",
          "type": "bytes32"
        }
      ],
      "payable": false,
      "stateMutability": "view",
      "type": "function"
    },
    {
      "constant": true,
      "inputs": [],
      "name": "symbol",
      "outputs": [
        {
          "name": "",
          "type": "string"
        }
      ],
      "payable": false,
      "stateMutability": "view",
      "type": "function"
    },
    {
      "constant": true,
      "inputs": [
        {
          "name": "nonce",
          "type": "uint256"
        },
        {
          "name": "challenge_digest",
          "type": "bytes32"
        },
        {
          "name": "challenge_number",
          "type": "bytes32"
        }
      ],
      "name": "getMintDigest",
      "outputs": [
        {
          "name": "digesttest",
          "type": "bytes32"
        }
      ],
      "payable": false,
      "stateMutability": "view",
      "type": "function"
    },
    {
      "constant": false,
      "inputs": [
        {
          "name": "to",
          "type": "address"
        },
        {
          "name": "tokens",
          "type": "uint256"
        }
      ],
      "name": "transfer",
      "outputs": [
        {
          "name": "success",
          "type": "bool"
        }
      ],
      "payable": false,
      "stateMutability": "nonpayable",
      "type": "function"
    },
    {
      "constant": true,
      "inputs": [],
      "name": "_BLOCKS_PER_READJUSTMENT",
      "outputs": [
        {
          "name": "",
          "type": "uint256"
        }
      ],
      "payable": false,
      "stateMutability": "view",
      "type": "function"
    },
    {
      "constant": true,
      "inputs": [],
      "name": "inflationrate",
      "outputs": [
        {
          "name": "",
          "type": "uint256"
        }
      ],
      "payable": false,
      "stateMutability": "view",
      "type": "function"
    },
    {
      "constant": true,
      "inputs": [],
      "name": "DiseasesCounter",
      "outputs": [
        {
          "name": "",
          "type": "uint256"
        }
      ],
      "payable": false,
      "stateMutability": "view",
      "type": "function"
    },
    {
      "constant": true,
      "inputs": [],
      "name": "latestDifficultyPeriodStarted",
      "outputs": [
        {
          "name": "",
          "type": "uint256"
        }
      ],
      "payable": false,
      "stateMutability": "view",
      "type": "function"
    },
    {
      "constant": true,
      "inputs": [],
      "name": "blockreward",
      "outputs": [
        {
          "name": "",
          "type": "uint256"
        }
      ],
      "payable": false,
      "stateMutability": "view",
      "type": "function"
    },
    {
      "constant": true,
      "inputs": [],
      "name": "PeriodsIssuedCounter",
      "outputs": [
        {
          "name": "",
          "type": "uint256"
        }
      ],
      "payable": false,
      "stateMutability": "view",
      "type": "function"
    },
    {
      "constant": true,
      "inputs": [],
      "name": "periodrewardtemp",
      "outputs": [
        {
          "name": "",
          "type": "uint256"
        }
      ],
      "payable": false,
      "stateMutability": "view",
      "type": "function"
    },
    {
      "constant": true,
      "inputs": [
        {
          "name": "",
          "type": "address"
        }
      ],
      "name": "stakesCounters",
      "outputs": [
        {
          "name": "",
          "type": "uint256"
        }
      ],
      "payable": false,
      "stateMutability": "view",
      "type": "function"
    },
    {
      "constant": true,
      "inputs": [],
      "name": "periodsCounter",
      "outputs": [
        {
          "name": "",
          "type": "uint256"
        }
      ],
      "payable": false,
      "stateMutability": "view",
      "type": "function"
    },
    {
      "constant": true,
      "inputs": [],
      "name": "_MINIMUM_TARGET",
      "outputs": [
        {
          "name": "",
          "type": "uint256"
        }
      ],
      "payable": false,
      "stateMutability": "view",
      "type": "function"
    },
    {
      "constant": true,
      "inputs": [
        {
          "name": "tokenOwner",
          "type": "address"
        },
        {
          "name": "spender",
          "type": "address"
        }
      ],
      "name": "allowance",
      "outputs": [
        {
          "name": "",
          "type": "uint256"
        }
      ],
      "payable": false,
      "stateMutability": "view",
      "type": "function"
    },
    {
      "constant": true,
      "inputs": [
        {
          "name": "",
          "type": "uint256"
        }
      ],
      "name": "periods",
      "outputs": [
        {
          "name": "id",
          "type": "uint256"
        },
        {
          "name": "interval",
          "type": "uint256"
        },
        {
          "name": "curation_sum",
          "type": "uint256"
        },
        {
          "name": "editor_sum",
          "type": "uint256"
        },
        {
          "name": "total_voters",
          "type": "uint256"
        }
      ],
      "payable": false,
      "stateMutability": "view",
      "type": "function"
    },
    {
      "constant": true,
      "inputs": [
        {
          "name": "",
          "type": "uint256"
        }
      ],
      "name": "PeriodsIssued",
      "outputs": [
        {
          "name": "",
          "type": "uint256"
        }
      ],
      "payable": false,
      "stateMutability": "view",
      "type": "function"
    },
    {
      "payable": true,
      "stateMutability": "payable",
      "type": "fallback"
    },
    {
      "anonymous": false,
      "inputs": [
        {
          "indexed": false,
          "name": "period_id",
          "type": "uint256"
        },
        {
          "indexed": false,
          "name": "interval",
          "type": "uint256"
        }
      ],
      "name": "CreatedPeriod",
      "type": "event"
    },
    {
      "anonymous": false,
      "inputs": [
        {
          "indexed": false,
          "name": "period_id",
          "type": "uint256"
        },
        {
          "indexed": false,
          "name": "periodreward",
          "type": "uint256"
        }
      ],
      "name": "IssuedPeriod",
      "type": "event"
    },
    {
      "anonymous": false,
      "inputs": [
        {
          "indexed": true,
          "name": "staker",
          "type": "address"
        },
        {
          "indexed": false,
          "name": "amount",
          "type": "uint256"
        }
      ],
      "name": "NewStake",
      "type": "event"
    },
    {
      "anonymous": false,
      "inputs": [
        {
          "indexed": true,
          "name": "staker",
          "type": "address"
        },
        {
          "indexed": false,
          "name": "stakeidx",
          "type": "uint256"
        }
      ],
      "name": "StakeClaimed",
      "type": "event"
    },
    {
      "anonymous": false,
      "inputs": [
        {
          "indexed": false,
          "name": "diseaseindex",
          "type": "uint256"
        },
        {
          "indexed": false,
          "name": "title",
          "type": "string"
        },
        {
          "indexed": false,
          "name": "description",
          "type": "string"
        }
      ],
      "name": "NewDisease",
      "type": "event"
    },
    {
      "anonymous": false,
      "inputs": [
        {
          "indexed": true,
          "name": "from",
          "type": "address"
        },
        {
          "indexed": true,
          "name": "to",
          "type": "address"
        },
        {
          "indexed": false,
          "name": "tokens",
          "type": "uint256"
        }
      ],
      "name": "Transfer",
      "type": "event"
    },
    {
      "anonymous": false,
      "inputs": [
        {
          "indexed": true,
          "name": "tokenOwner",
          "type": "address"
        },
        {
          "indexed": true,
          "name": "spender",
          "type": "address"
        },
        {
          "indexed": false,
          "name": "tokens",
          "type": "uint256"
        }
      ],
      "name": "Approval",
      "type": "event"
    },
    {
      "anonymous": false,
      "inputs": [
        {
          "indexed": true,
          "name": "from",
          "type": "address"
        },
        {
          "indexed": false,
          "name": "blockreward",
          "type": "uint256"
        },
        {
          "indexed": false,
          "name": "epochCount",
          "type": "uint256"
        },
        {
          "indexed": false,
          "name": "newChallengeNumber",
          "type": "bytes32"
        }
      ],
      "name": "Mint",
      "type": "event"
    },
    {
      "constant": false,
      "inputs": [],
      "name": "newPeriod",
      "outputs": [],
      "payable": false,
      "stateMutability": "nonpayable",
      "type": "function"
    },
    {
      "constant": false,
      "inputs": [
        {
          "name": "_staker",
          "type": "address"
        },
        {
          "name": "_amount",
          "type": "uint256"
        }
      ],
      "name": "eticatobosoms",
      "outputs": [
        {
          "name": "success",
          "type": "bool"
        }
      ],
      "payable": false,
      "stateMutability": "nonpayable",
      "type": "function"
    },
    {
      "constant": false,
      "inputs": [
        {
          "name": "_stakeidx",
          "type": "uint256"
        }
      ],
      "name": "stakeclmidx",
      "outputs": [],
      "payable": false,
      "stateMutability": "nonpayable",
      "type": "function"
    },
    {
      "constant": true,
      "inputs": [
        {
          "name": "_staker",
          "type": "address"
        }
      ],
      "name": "stakescount",
      "outputs": [
        {
          "name": "slength",
          "type": "uint256"
        }
      ],
      "payable": false,
      "stateMutability": "view",
      "type": "function"
    },
    {
      "constant": false,
      "inputs": [
        {
          "name": "_name",
          "type": "string"
        },
        {
          "name": "_description",
          "type": "string"
        }
      ],
      "name": "createdisease",
      "outputs": [],
      "payable": false,
      "stateMutability": "nonpayable",
      "type": "function"
    },
    {
      "constant": true,
      "inputs": [
        {
          "name": "tokenOwner",
          "type": "address"
        }
      ],
      "name": "bosomsOf",
      "outputs": [
        {
          "name": "_bosoms",
          "type": "uint256"
        }
      ],
      "payable": false,
      "stateMutability": "view",
      "type": "function"
    }
  ],
  "bytecode": "0x60806040526040805190810160405280600581526020017f4574696361000000000000000000000000000000000000000000000000000000815250600090805190602001906200005192919062000683565b506040805190810160405280600381526020017f4554490000000000000000000000000000000000000000000000000000000000815250600190805190602001906200009f92919062000683565b506012600255610400600d5562010000600e557e04000000000000000000000000000000000000000000000000000000000000600f556000601560006101000a81548160ff02191690831515021790555062761783601855602a60195560a8601a556001601b5568056bc75e2d631000006003819055506200018168056bc75e2d63100000600860003073ffffffffffffffffffffffffffffffffffffffff1673ffffffffffffffffffffffffffffffffffffffff16815260200190815260200160002054620002ec6401000000000262002b25179091906401000000009004565b600860003073ffffffffffffffffffffffffffffffffffffffff1673ffffffffffffffffffffffffffffffffffffffff168152602001908152602001600020819055506904772abe6c93ed94622e600581905550600254600a0a62a037a002600a81905550601560009054906101000a900460ff16156200020157600080fd5b6001601560006101000a81548160ff021916908315150217905550600060178190555068012253ff998b28052d601281905550600f5460108190555043600b819055506200025d62000309640100000000026401000000009004565b6d014a713d95c1c369e4c10bb9816860048190555033600660006101000a81548173ffffffffffffffffffffffffffffffffffffffff021916908373ffffffffffffffffffffffffffffffffffffffff1602179055506060604051908101604052806027815260200162003ca56027913960079080519060200190620002e592919062000683565b5062000732565b600081830190508281101515156200030357600080fd5b92915050565b6200032f6001600c54620002ec6401000000000262002b25179091906401000000009004565b600c819055506000600d54600c548115156200034757fe5b06141562000369576200036862000376640100000000026401000000009004565b5b6001430340601181905550565b6000600b54430390506000600d5490506000603c8202905080831015620004a8576000620003df84620003c2606485620005ee6401000000000262003445179091906401000000009004565b620006226401000000000262002b01179091906401000000009004565b905060006200042b6103e86200040e606485620006486401000000000262002b8b179091906401000000009004565b620006656401000000000262003476179091906401000000009004565b90506200049a6200047a826200045d6107d0601054620006226401000000000262002b01179091906401000000009004565b620005ee6401000000000262003445179091906401000000009004565b601054620006486401000000000262002b8b179091906401000000009004565b6010819055505050620005b4565b6000620004f082620004d3606487620005ee6401000000000262003445179091906401000000009004565b620006226401000000000262002b01179091906401000000009004565b905060006200053c6103e86200051f606485620006486401000000000262002b8b179091906401000000009004565b620006656401000000000262003476179091906401000000009004565b9050620005ab6200058b826200056e6107d0601054620006226401000000000262002b01179091906401000000009004565b620005ee6401000000000262003445179091906401000000009004565b601054620002ec6401000000000262002b25179091906401000000009004565b60108190555050505b43600b81905550600e546010541015620005d257600e546010819055505b600f546010541115620005e957600f546010819055505b505050565b6000818302905060008314806200061057508183828115156200060d57fe5b04145b15156200061c57600080fd5b92915050565b600080821115156200063357600080fd5b81838115156200063f57fe5b04905092915050565b60008282111515156200065a57600080fd5b818303905092915050565b60008183111562000679578190506200067d565b8290505b92915050565b828054600181600116156101000203166002900490600052602060002090601f016020900481019282601f10620006c657805160ff1916838001178555620006f7565b82800160010185558215620006f7579182015b82811115620006f6578251825591602001919060010190620006d9565b5b5090506200070691906200070a565b5090565b6200072f91905b808211156200072b57600081600090555060010162000711565b5090565b90565b61356380620007426000396000f3fe608060405260043610610301576000357c01000000000000000000000000000000000000000000000000000000009004806370a08231116101ad578063bf6fc725116100f9578063d74ce8c5116100b2578063ea4a11041161008c578063ea4a110414611294578063ecd3cb82146112ff578063f08a01f81461133a578063f8d826831461139f57610301565b8063d74ce8c5146111b9578063dc6e9cf9146111e4578063dd62ed3e1461120f57610301565b8063bf6fc72514611035578063cb9ae707146110a8578063cf70fa40146110d3578063d03150c6146110fe578063d40170d714611129578063d732b8351461115457610301565b80638ae0368b11610166578063a9059cbb11610140578063a9059cbb14610f41578063b5ade81b14610fb4578063b640776914610fdf578063b6ec95d21461100a57610301565b80638ae0368b14610e2357806395d89b4114610e4e57806397566aa014610ede57610301565b806370a0823114610c7d57806381269a5614610ce2578063829965cc14610d5357806387a2a9d614610d7e5780638885898514610da95780638a769d3514610df857610301565b8063313ce5671161026c57806357084164116102255780635e11544b116101ff5780635e11544b14610b545780636de7410c14610b6b5780636de9f32b14610bfb5780636fd396d614610c2657610301565b80635708416414610a0d578063584b62a114610a725780635dfa739614610aef57610301565b8063313ce567146107e357806332e997081461080e578063410e1b071461083957806346459b22146108645780634d853ee51461098b5780634ef37628146109e257610301565b806317da485f116102be57806317da485f1461060d5780631801fbe51461063857806318160ddd146106955780631853f0a8146106c057806323b872dd146106eb57806327e235e31461077e57610301565b8063047fc9aa1461030657806306fdde0314610331578063095ea7b3146103c15780630bd92a73146104345780631081a47e14610593578063163aa00d146105e2575b600080fd5b34801561031257600080fd5b5061031b6113ee565b6040518082815260200191505060405180910390f35b34801561033d57600080fd5b506103466113f4565b6040518080602001828103825283818151815260200191508051906020019080838360005b8381101561038657808201518184015260208101905061036b565b50505050905090810190601f1680156103b35780820380516001836020036101000a031916815260200191505b509250505060405180910390f35b3480156103cd57600080fd5b5061041a600480360360408110156103e457600080fd5b81019080803573ffffffffffffffffffffffffffffffffffffffff16906020019092919080359060200190929190505050611492565b604051808215151515815260200191505060405180910390f35b34801561044057600080fd5b506105916004803603604081101561045757600080fd5b810190808035906020019064010000000081111561047457600080fd5b82018360208201111561048657600080fd5b803590602001918460018302840111640100000000831117156104a857600080fd5b91908080601f016020809104026020016040519081016040528093929190818152602001838380828437600081840152601f19601f8201169050808301925050505050505091929192908035906020019064010000000081111561050b57600080fd5b82018360208201111561051d57600080fd5b8035906020019184600183028401116401000000008311171561053f57600080fd5b91908080601f016020809104026020016040519081016040528093929190818152602001838380828437600081840152601f19601f8201169050808301925050505050505091929192905050506115e1565b005b34801561059f57600080fd5b506105cc600480360360208110156105b657600080fd5b81019080803590602001909291905050506118af565b6040518082815260200191505060405180910390f35b3480156105ee57600080fd5b506105f76118c7565b6040518082815260200191505060405180910390f35b34801561061957600080fd5b506106226118cd565b6040518082815260200191505060405180910390f35b34801561064457600080fd5b5061067b6004803603604081101561065b57600080fd5b8101908080359060200190929190803590602001909291905050506118eb565b604051808215151515815260200191505060405180910390f35b3480156106a157600080fd5b506106aa611b6b565b6040518082815260200191505060405180910390f35b3480156106cc57600080fd5b506106d5611b75565b6040518082815260200191505060405180910390f35b3480156106f757600080fd5b506107646004803603606081101561070e57600080fd5b81019080803573ffffffffffffffffffffffffffffffffffffffff169060200190929190803573ffffffffffffffffffffffffffffffffffffffff16906020019092919080359060200190929190505050611b7b565b604051808215151515815260200191505060405180910390f35b34801561078a57600080fd5b506107cd600480360360208110156107a157600080fd5b81019080803573ffffffffffffffffffffffffffffffffffffffff169060200190929190505050611e26565b6040518082815260200191505060405180910390f35b3480156107ef57600080fd5b506107f8611e3e565b6040518082815260200191505060405180910390f35b34801561081a57600080fd5b50610823611e44565b6040518082815260200191505060405180910390f35b34801561084557600080fd5b5061084e611e4e565b6040518082815260200191505060405180910390f35b34801561087057600080fd5b5061089d6004803603602081101561088757600080fd5b8101908080359060200190929190505050611e54565b604051808481526020018060200180602001838103835285818151815260200191508051906020019080838360005b838110156108e75780820151818401526020810190506108cc565b50505050905090810190601f1680156109145780820380516001836020036101000a031916815260200191505b50838103825284818151815260200191508051906020019080838360005b8381101561094d578082015181840152602081019050610932565b50505050905090810190601f16801561097a5780820380516001836020036101000a031916815260200191505b509550505050505060405180910390f35b34801561099757600080fd5b506109a0611fae565b604051808273ffffffffffffffffffffffffffffffffffffffff1673ffffffffffffffffffffffffffffffffffffffff16815260200191505060405180910390f35b3480156109ee57600080fd5b506109f7611fd4565b6040518082815260200191505060405180910390f35b348015610a1957600080fd5b50610a5c60048036036020811015610a3057600080fd5b81019080803573ffffffffffffffffffffffffffffffffffffffff169060200190929190505050611fde565b6040518082815260200191505060405180910390f35b348015610a7e57600080fd5b50610acb60048036036040811015610a9557600080fd5b81019080803573ffffffffffffffffffffffffffffffffffffffff16906020019092919080359060200190929190505050611ff6565b60405180848152602001838152602001828152602001935050505060405180910390f35b348015610afb57600080fd5b50610b3e60048036036020811015610b1257600080fd5b81019080803573ffffffffffffffffffffffffffffffffffffffff16906020019092919050505061202d565b6040518082815260200191505060405180910390f35b348015610b6057600080fd5b50610b69612076565b005b348015610b7757600080fd5b50610b806121c0565b6040518080602001828103825283818151815260200191508051906020019080838360005b83811015610bc0578082015181840152602081019050610ba5565b50505050905090810190601f168015610bed5780820380516001836020036101000a031916815260200191505b509250505060405180910390f35b348015610c0757600080fd5b50610c1061225e565b6040518082815260200191505060405180910390f35b348015610c3257600080fd5b50610c3b612264565b604051808273ffffffffffffffffffffffffffffffffffffffff1673ffffffffffffffffffffffffffffffffffffffff16815260200191505060405180910390f35b348015610c8957600080fd5b50610ccc60048036036020811015610ca057600080fd5b81019080803573ffffffffffffffffffffffffffffffffffffffff16906020019092919050505061228a565b6040518082815260200191505060405180910390f35b348015610cee57600080fd5b50610d3960048036036080811015610d0557600080fd5b81019080803590602001909291908035906020019092919080359060200190929190803590602001909291905050506122d3565b604051808215151515815260200191505060405180910390f35b348015610d5f57600080fd5b50610d68612369565b6040518082815260200191505060405180910390f35b348015610d8a57600080fd5b50610d9361236f565b6040518082815260200191505060405180910390f35b348015610db557600080fd5b50610de260048036036020811015610dcc57600080fd5b8101908080359060200190929190505050612375565b6040518082815260200191505060405180910390f35b348015610e0457600080fd5b50610e0d61238c565b6040518082815260200191505060405180910390f35b348015610e2f57600080fd5b50610e38612392565b6040518082815260200191505060405180910390f35b348015610e5a57600080fd5b50610e63612398565b6040518080602001828103825283818151815260200191508051906020019080838360005b83811015610ea3578082015181840152602081019050610e88565b50505050905090810190601f168015610ed05780820380516001836020036101000a031916815260200191505b509250505060405180910390f35b348015610eea57600080fd5b50610f2b60048036036060811015610f0157600080fd5b81019080803590602001909291908035906020019092919080359060200190929190505050612436565b6040518082815260200191505060405180910390f35b348015610f4d57600080fd5b50610f9a60048036036040811015610f6457600080fd5b81019080803573ffffffffffffffffffffffffffffffffffffffff169060200190929190803590602001909291905050506124b8565b604051808215151515815260200191505060405180910390f35b348015610fc057600080fd5b50610fc9612661565b6040518082815260200191505060405180910390f35b348015610feb57600080fd5b50610ff4612667565b6040518082815260200191505060405180910390f35b34801561101657600080fd5b5061101f61266d565b6040518082815260200191505060405180910390f35b34801561104157600080fd5b5061108e6004803603604081101561105857600080fd5b81019080803573ffffffffffffffffffffffffffffffffffffffff16906020019092919080359060200190929190505050612673565b604051808215151515815260200191505060405180910390f35b3480156110b457600080fd5b506110bd6126dd565b6040518082815260200191505060405180910390f35b3480156110df57600080fd5b506110e86126e3565b6040518082815260200191505060405180910390f35b34801561110a57600080fd5b506111136126e9565b6040518082815260200191505060405180910390f35b34801561113557600080fd5b5061113e6126ef565b6040518082815260200191505060405180910390f35b34801561116057600080fd5b506111a36004803603602081101561117757600080fd5b81019080803573ffffffffffffffffffffffffffffffffffffffff1690602001909291905050506126f5565b6040518082815260200191505060405180910390f35b3480156111c557600080fd5b506111ce61270d565b6040518082815260200191505060405180910390f35b3480156111f057600080fd5b506111f9612713565b6040518082815260200191505060405180910390f35b34801561121b57600080fd5b5061127e6004803603604081101561123257600080fd5b81019080803573ffffffffffffffffffffffffffffffffffffffff169060200190929190803573ffffffffffffffffffffffffffffffffffffffff169060200190929190505050612719565b6040518082815260200191505060405180910390f35b3480156112a057600080fd5b506112cd600480360360208110156112b757600080fd5b81019080803590602001909291905050506127a0565b604051808681526020018581526020018481526020018381526020018281526020019550505050505060405180910390f35b34801561130b57600080fd5b506113386004803603602081101561132257600080fd5b81019080803590602001909291905050506127d6565b005b34801561134657600080fd5b506113896004803603602081101561135d57600080fd5b81019080803573ffffffffffffffffffffffffffffffffffffffff169060200190929190505050612aa0565b6040518082815260200191505060405180910390f35b3480156113ab57600080fd5b506113d8600480360360208110156113c257600080fd5b8101908080359060200190929190505050612ae9565b6040518082815260200191505060405180910390f35b60035481565b60008054600181600116156101000203166002900480601f01602080910402602001604051908101604052809291908181526020018280546001816001161561010002031660029004801561148a5780601f1061145f5761010080835404028352916020019161148a565b820191906000526020600020905b81548152906001019060200180831161146d57829003601f168201915b505050505081565b600081600860003373ffffffffffffffffffffffffffffffffffffffff1673ffffffffffffffffffffffffffffffffffffffff16815260200190815260200160002054101515156114e257600080fd5b6000821115156114f157600080fd5b81600960003373ffffffffffffffffffffffffffffffffffffffff1673ffffffffffffffffffffffffffffffffffffffff16815260200190815260200160002060008573ffffffffffffffffffffffffffffffffffffffff1673ffffffffffffffffffffffffffffffffffffffff168152602001908152602001600020819055508273ffffffffffffffffffffffffffffffffffffffff163373ffffffffffffffffffffffffffffffffffffffff167f8c5be1e5ebec7d5bd14f71427d1e84f3dd0314c0f7b2291e5b200ac8c7c3b925846040518082815260200191505060405180910390a36001905092915050565b60006002836040516020018082805190602001908083835b60208310151561161e57805182526020820191506020810190506020830392506115f9565b6001836020036101000a0380198251168184511680821785525050505050509050019150506040516020818303038152906040526040518082805190602001908083835b6020831015156116875780518252602082019150602081019050602083039250611662565b6001836020036101000a038019825116818451168082178552505050505050905001915050602060405180830381855afa1580156116c9573d6000803e3d6000fd5b5050506040513d60208110156116de57600080fd5b810190808051906020019092919050505090506001602354016023819055506000602460008381526020019081526020016000205414151561171f57600080fd5b60606040519081016040528082815260200184815260200183815250602260006023548152602001908152602001600020600082015181600001556020820151816001019080519060200190611776929190613492565b506040820151816002019080519060200190611793929190613492565b509050507f93c49c8e82ac37419e0bd454c617e7bc2735fb664182ddb06a31ae693c854e1f6023548484604051808481526020018060200180602001838103835285818151815260200191508051906020019080838360005b838110156118075780820151818401526020810190506117ec565b50505050905090810190601f1680156118345780820380516001836020036101000a031916815260200191505b50838103825284818151815260200191508051906020019080838360005b8381101561186d578082015181840152602081019050611852565b50505050905090810190601f16801561189a5780820380516001836020036101000a031916815260200191505b509550505050505060405180910390a1505050565b60246020528060005260406000206000915090505481565b60145481565b60006118e6601054600f54612b0190919063ffffffff16565b905090565b6000806011543385604051602001808481526020018373ffffffffffffffffffffffffffffffffffffffff1673ffffffffffffffffffffffffffffffffffffffff166c010000000000000000000000000281526014018281526020019350505050604051602081830303815290604052805190602001209050828114151561197257600080fd5b6010548160019004111561198557600080fd5b600060166000601154815260200190815260200160002054905081601660006011548152602001908152602001600020819055506000600102811415156119cb57600080fd5b600a546017541015156119da57fe5b6119f1601254601754612b2590919063ffffffff16565b601781905550611a0e601254600354612b2590919063ffffffff16565b600381905550611a68601254600860003373ffffffffffffffffffffffffffffffffffffffff1673ffffffffffffffffffffffffffffffffffffffff16815260200190815260200160002054612b2590919063ffffffff16565b600860003373ffffffffffffffffffffffffffffffffffffffff1673ffffffffffffffffffffffffffffffffffffffff1681526020019081526020016000208190555033601360006101000a81548173ffffffffffffffffffffffffffffffffffffffff021916908373ffffffffffffffffffffffffffffffffffffffff16021790555043601481905550611afb612b41565b3373ffffffffffffffffffffffffffffffffffffffff167fcf6fbb9dcea7d07263ab4f5c3a92f53af33dffc421d9d121e1c74b307e68189d601254600c5460115460405180848152602001838152602001828152602001935050505060405180910390a260019250505092915050565b6000600354905090565b60215481565b6000611bcf82600860008773ffffffffffffffffffffffffffffffffffffffff1673ffffffffffffffffffffffffffffffffffffffff16815260200190815260200160002054612b8b90919063ffffffff16565b600860008673ffffffffffffffffffffffffffffffffffffffff1673ffffffffffffffffffffffffffffffffffffffff16815260200190815260200160002081905550611ca182600960008773ffffffffffffffffffffffffffffffffffffffff1673ffffffffffffffffffffffffffffffffffffffff16815260200190815260200160002060003373ffffffffffffffffffffffffffffffffffffffff1673ffffffffffffffffffffffffffffffffffffffff16815260200190815260200160002054612b8b90919063ffffffff16565b600960008673ffffffffffffffffffffffffffffffffffffffff1673ffffffffffffffffffffffffffffffffffffffff16815260200190815260200160002060003373ffffffffffffffffffffffffffffffffffffffff1673ffffffffffffffffffffffffffffffffffffffff16815260200190815260200160002081905550611d7382600860008673ffffffffffffffffffffffffffffffffffffffff1673ffffffffffffffffffffffffffffffffffffffff16815260200190815260200160002054612b2590919063ffffffff16565b600860008573ffffffffffffffffffffffffffffffffffffffff1673ffffffffffffffffffffffffffffffffffffffff168152602001908152602001600020819055508273ffffffffffffffffffffffffffffffffffffffff168473ffffffffffffffffffffffffffffffffffffffff167fddf252ad1be2c89b69c2b068fc378daa952ba7f163c4a11628f55a4df523b3ef846040518082815260200191505060405180910390a3600190509392505050565b60086020528060005260406000206000915090505481565b60025481565b6000601054905090565b600a5481565b6022602052806000526040600020600091509050806000015490806001018054600181600116156101000203166002900480601f016020809104026020016040519081016040528092919081815260200182805460018160011615610100020316600290048015611f065780601f10611edb57610100808354040283529160200191611f06565b820191906000526020600020905b815481529060010190602001808311611ee957829003601f168201915b505050505090806002018054600181600116156101000203166002900480601f016020809104026020016040519081016040528092919081815260200182805460018160011615610100020316600290048015611fa45780601f10611f7957610100808354040283529160200191611fa4565b820191906000526020600020905b815481529060010190602001808311611f8757829003601f168201915b5050505050905083565b600660009054906101000a900473ffffffffffffffffffffffffffffffffffffffff1681565b6000601154905090565b60266020528060005260406000206000915090505481565b6027602052816000526040600020602052806000526040600020600091509150508060000154908060010154908060020154905083565b6000602860008373ffffffffffffffffffffffffffffffffffffffff1673ffffffffffffffffffffffffffffffffffffffff168152602001908152602001600020549050919050565b60006120916019546018544301612b0190919063ffffffff16565b90506000602060008381526020019081526020016000205490506000811415156120ba57600080fd5b601d6000815480929190600101919050555060a060405190810160405280601d54815260200183815260200160008152602001600081526020016000815250601c6000601d5481526020019081526020016000206000820151816000015560208201518160010155604082015181600201556060820151816003015560808201518160040155905050601d54602060008481526020019081526020016000208190555060216000815480929190600101919050555061217a601d54612ba7565b507ff74223d764da704d974281758065d2eb6c9066dc940e3f549b72e894b0404aef601d5483604051808381526020018281526020019250505060405180910390a15050565b60078054600181600116156101000203166002900480601f0160208091040260200160405190810160405280929190818152602001828054600181600116156101000203166002900480156122565780601f1061222b57610100808354040283529160200191612256565b820191906000526020600020905b81548152906001019060200180831161223957829003601f168201915b505050505081565b60175481565b601360009054906101000a900473ffffffffffffffffffffffffffffffffffffffff1681565b6000600860008373ffffffffffffffffffffffffffffffffffffffff1673ffffffffffffffffffffffffffffffffffffffff168152602001908152602001600020549050919050565b600080833387604051602001808481526020018373ffffffffffffffffffffffffffffffffffffffff1673ffffffffffffffffffffffffffffffffffffffff166c010000000000000000000000000281526014018281526020019350505050604051602081830303815290604052805190602001209050828160019004111561235b57600080fd5b848114915050949350505050565b600c5481565b600f5481565b602080528060005260406000206000915090505481565b60105481565b60115481565b60018054600181600116156101000203166002900480601f01602080910402602001604051908101604052809291908181526020018280546001816001161561010002031660029004801561242e5780601f106124035761010080835404028352916020019161242e565b820191906000526020600020905b81548152906001019060200180831161241157829003601f168201915b505050505081565b600080823386604051602001808481526020018373ffffffffffffffffffffffffffffffffffffffff1673ffffffffffffffffffffffffffffffffffffffff166c010000000000000000000000000281526014018281526020019350505050604051602081830303815290604052805190602001209050809150509392505050565b600080821115156124c857600080fd5b61251a82600860003373ffffffffffffffffffffffffffffffffffffffff1673ffffffffffffffffffffffffffffffffffffffff16815260200190815260200160002054612b8b90919063ffffffff16565b600860003373ffffffffffffffffffffffffffffffffffffffff1673ffffffffffffffffffffffffffffffffffffffff168152602001908152602001600020819055506125af82600860008673ffffffffffffffffffffffffffffffffffffffff1673ffffffffffffffffffffffffffffffffffffffff16815260200190815260200160002054612b2590919063ffffffff16565b600860008573ffffffffffffffffffffffffffffffffffffffff1673ffffffffffffffffffffffffffffffffffffffff168152602001908152602001600020819055508273ffffffffffffffffffffffffffffffffffffffff163373ffffffffffffffffffffffffffffffffffffffff167fddf252ad1be2c89b69c2b068fc378daa952ba7f163c4a11628f55a4df523b3ef846040518082815260200191505060405180910390a36001905092915050565b600d5481565b60045481565b60235481565b60008273ffffffffffffffffffffffffffffffffffffffff163373ffffffffffffffffffffffffffffffffffffffff161415156126af57600080fd5b6000821115156126be57600080fd5b6126c830836124b8565b506126d38383612d8c565b6001905092915050565b600b5481565b60125481565b601f5481565b60055481565b60286020528060005260406000206000915090505481565b601d5481565b600e5481565b6000600960008473ffffffffffffffffffffffffffffffffffffffff1673ffffffffffffffffffffffffffffffffffffffff16815260200190815260200160002060008373ffffffffffffffffffffffffffffffffffffffff1673ffffffffffffffffffffffffffffffffffffffff16815260200190815260200160002054905092915050565b601c6020528060005260406000206000915090508060000154908060010154908060020154908060030154908060040154905085565b6000811180156128255750602860003373ffffffffffffffffffffffffffffffffffffffff1673ffffffffffffffffffffffffffffffffffffffff168152602001908152602001600020548111155b151561283057600080fd5b6000602760003373ffffffffffffffffffffffffffffffffffffffff1673ffffffffffffffffffffffffffffffffffffffff1681526020019081526020016000206000838152602001908152602001600020905080600201544311151561289657600080fd5b600081600001541115156128a957600080fd5b6128ff8160000154600860003073ffffffffffffffffffffffffffffffffffffffff1673ffffffffffffffffffffffffffffffffffffffff16815260200190815260200160002054612b8b90919063ffffffff16565b600860003073ffffffffffffffffffffffffffffffffffffffff1673ffffffffffffffffffffffffffffffffffffffff168152602001908152602001600020819055506129988160000154600860003373ffffffffffffffffffffffffffffffffffffffff1673ffffffffffffffffffffffffffffffffffffffff16815260200190815260200160002054612b2590919063ffffffff16565b600860003373ffffffffffffffffffffffffffffffffffffffff1673ffffffffffffffffffffffffffffffffffffffff168152602001908152602001600020819055503373ffffffffffffffffffffffffffffffffffffffff163073ffffffffffffffffffffffffffffffffffffffff167fddf252ad1be2c89b69c2b068fc378daa952ba7f163c4a11628f55a4df523b3ef83600001546040518082815260200191505060405180910390a33373ffffffffffffffffffffffffffffffffffffffff167f2aeea59856f5616c244717fd488ead1d1b5fd33608d9583a4607b4c4ba3631e4836040518082815260200191505060405180910390a2612a9c3383612e3a565b5050565b6000602660008373ffffffffffffffffffffffffffffffffffffffff1673ffffffffffffffffffffffffffffffffffffffff168152602001908152602001600020549050919050565b601e6020528060005260406000206000915090505481565b60008082111515612b1157600080fd5b8183811515612b1c57fe5b04905092915050565b60008183019050828110151515612b3b57600080fd5b92915050565b612b576001600c54612b2590919063ffffffff16565b600c819055506000600d54600c54811515612b6e57fe5b061415612b7e57612b7d6130ed565b5b6001430340601181905550565b6000828211151515612b9c57600080fd5b818303905092915050565b600080601d54111515612bb957600080fd5b600082118015612bcb5750601d548211155b1515612bd657600080fd5b6000601c600084815260200190815260200160002090506000816000015414151515612c0157600080fd5b6000601e600083600001548152602001908152602001600020549050600081141515612c2c57600080fd5b6000600254600a0a6301406f4002600354101515612c715760006d314dc6448d9338c15b0a00000000600454811515612c6157fe5b0490508060035402915050612c77565b60055490505b8060035401600381905550612cd481600860003073ffffffffffffffffffffffffffffffffffffffff1673ffffffffffffffffffffffffffffffffffffffff16815260200190815260200160002054612b2590919063ffffffff16565b600860003073ffffffffffffffffffffffffffffffffffffffff1673ffffffffffffffffffffffffffffffffffffffff1681526020019081526020016000208190555080601e600085600001548152602001908152602001600020819055506001601f5401601f819055507fc4d2a0744d2542d38943e09effa7977cb89527fce223d12bf02ff6de50526b92601d5482604051808381526020018281526020019250505060405180910390a160019350505050919050565b612d968282613281565b506000601b5482029050612df281602660008673ffffffffffffffffffffffffffffffffffffffff1673ffffffffffffffffffffffffffffffffffffffff16815260200190815260200160002054612b2590919063ffffffff16565b602660008573ffffffffffffffffffffffffffffffffffffffff1673ffffffffffffffffffffffffffffffffffffffff16815260200190815260200160002081905550505050565b600081118015612e895750602860008373ffffffffffffffffffffffffffffffffffffffff1673ffffffffffffffffffffffffffffffffffffffff168152602001908152602001600020548111155b1515612e9457600080fd5b602760008373ffffffffffffffffffffffffffffffffffffffff1673ffffffffffffffffffffffffffffffffffffffff1681526020019081526020016000206000602860008573ffffffffffffffffffffffffffffffffffffffff1673ffffffffffffffffffffffffffffffffffffffff168152602001908152602001600020548152602001908152602001600020602760008473ffffffffffffffffffffffffffffffffffffffff1673ffffffffffffffffffffffffffffffffffffffff168152602001908152602001600020600083815260200190815260200160002060008201548160000155600182015481600101556002820154816002015590505060606040519081016040528060008152602001600081526020016000815250602760008473ffffffffffffffffffffffffffffffffffffffff1673ffffffffffffffffffffffffffffffffffffffff1681526020019081526020016000206000602860008673ffffffffffffffffffffffffffffffffffffffff1673ffffffffffffffffffffffffffffffffffffffff1681526020019081526020016000205481526020019081526020016000206000820151816000015560208201518160010155604082015181600201559050506001602860008473ffffffffffffffffffffffffffffffffffffffff1673ffffffffffffffffffffffffffffffffffffffff1681526020019081526020016000205403602860008473ffffffffffffffffffffffffffffffffffffffff1673ffffffffffffffffffffffffffffffffffffffff168152602001908152602001600020819055505050565b6000600b54430390506000600d5490506000603c82029050808310156131ad5760006131358461312760648561344590919063ffffffff16565b612b0190919063ffffffff16565b905060006131616103e8613153606485612b8b90919063ffffffff16565b61347690919063ffffffff16565b90506131a061318f826131816107d0601054612b0190919063ffffffff16565b61344590919063ffffffff16565b601054612b8b90919063ffffffff16565b6010819055505050613249565b60006131d5826131c760648761344590919063ffffffff16565b612b0190919063ffffffff16565b905060006132016103e86131f3606485612b8b90919063ffffffff16565b61347690919063ffffffff16565b905061324061322f826132216107d0601054612b0190919063ffffffff16565b61344590919063ffffffff16565b601054612b2590919063ffffffff16565b60108190555050505b43600b81905550600e54601054101561326657600e546010819055505b600f54601054111561327c57600f546010819055505b505050565b6000808211151561329157600080fd5b6001602860008573ffffffffffffffffffffffffffffffffffffffff1673ffffffffffffffffffffffffffffffffffffffff1681526020019081526020016000205401602860008573ffffffffffffffffffffffffffffffffffffffff1673ffffffffffffffffffffffffffffffffffffffff168152602001908152602001600020819055506000601a544301905060606040519081016040528084815260200143815260200182815250602760008673ffffffffffffffffffffffffffffffffffffffff1673ffffffffffffffffffffffffffffffffffffffff1681526020019081526020016000206000602860008873ffffffffffffffffffffffffffffffffffffffff1673ffffffffffffffffffffffffffffffffffffffff1681526020019081526020016000205481526020019081526020016000206000820151816000015560208201518160010155604082015181600201559050508373ffffffffffffffffffffffffffffffffffffffff167f42e99fbad9601d25ee3bb515eeee966f97c3c383adadbe5720f651df8c18989d846040518082815260200191505060405180910390a2600191505092915050565b600081830290506000831480613465575081838281151561346257fe5b04145b151561347057600080fd5b92915050565b6000818311156134885781905061348c565b8290505b92915050565b828054600181600116156101000203166002900490600052602060002090601f016020900481019282601f106134d357805160ff1916838001178555613501565b82800160010185558215613501579182015b828111156135005782518255916020019190600101906134e5565b5b50905061350e9190613512565b5090565b61353491905b80821115613530576000816000905550600101613518565b5090565b9056fea165627a7a7230582071368b6f0242089d49d5db3bff4184e7cbc202cc4838bec8d9f3b226b5a29fe60029446973636f766572696e67206f7572206265737420467574757265732e204b6576696e20576164",
  "source": "pragma solidity ^0.5.2;\r\n// ----------------------------------------------------------------------------\r\n//this ICO smart contract has been compiled and tested with the Solidity Version 0.5.2\r\n//There are some minor changes comparing to ICO contract compiled with versions < 0.5.0\r\n// ----------------------------------------------------------------------------\r\n\r\n\r\n// ----------------------------------------------------------------------------\r\n\r\n// Safe maths\r\n\r\n// ----------------------------------------------------------------------------\r\n\r\nlibrary SafeMath {\r\n\r\n    function add(uint a, uint b) internal pure returns (uint c) {\r\n\r\n        c = a + b;\r\n\r\n        require(c >= a);\r\n\r\n    }\r\n\r\n    function sub(uint a, uint b) internal pure returns (uint c) {\r\n\r\n        require(b <= a);\r\n\r\n        c = a - b;\r\n\r\n    }\r\n\r\n    function mul(uint a, uint b) internal pure returns (uint c) {\r\n\r\n        c = a * b;\r\n\r\n        require(a == 0 || c / a == b);\r\n\r\n    }\r\n\r\n    function div(uint a, uint b) internal pure returns (uint c) {\r\n\r\n        require(b > 0);\r\n\r\n        c = a / b;\r\n\r\n    }\r\n\r\n}\r\n\r\n\r\n\r\nlibrary ExtendedMath {\r\n\r\n\r\n    //return the smaller of the two inputs (a or b)\r\n    function limitLessThan(uint a, uint b) internal pure returns (uint c) {\r\n\r\n        if(a > b) return b;\r\n\r\n        return a;\r\n\r\n    }\r\n}\r\n\r\n\r\n\r\ncontract ERC20Interface {\r\n    function totalSupply() public view returns (uint);\r\n    function balanceOf(address tokenOwner) public view returns (uint balance);\r\n    function transfer(address to, uint tokens) public returns (bool success);\r\n\r\n\r\n    function allowance(address tokenOwner, address spender) public view returns (uint remaining);\r\n    function approve(address spender, uint tokens) public returns (bool success);\r\n    function transferFrom(address from, address to, uint tokens) public returns (bool success);\r\n\r\n    event Transfer(address indexed from, address indexed to, uint tokens);\r\n    event Approval(address indexed tokenOwner, address indexed spender, uint tokens);\r\n}\r\n\r\n\r\n\r\ncontract EticaToken is ERC20Interface{\r\n\r\n    using SafeMath for uint;\r\n    using ExtendedMath for uint;\r\n\r\n    string public name = \"Etica\";\r\n    string public symbol = \"ETI\";\r\n    uint public decimals = 18;\r\n\r\n    uint public supply;\r\n    // fixed inflation rate after etica supply has reached 21 Million\r\n    uint public inflationrate;\r\n    uint public  periodrewardtemp; // Amount of ETI issued per period during phase1\r\n\r\n    // We don't want fake Satoshi again. Using it to prove founder's identity\r\n    address public founder;\r\n    string public foundermsgproof;\r\n\r\n    mapping(address => uint) public balances;\r\n\r\n    mapping(address => mapping(address => uint)) allowed;\r\n\r\n    //allowed[0x1111....][0x22222...] = 100;\r\n\r\n    // Mining system state variables\r\n    uint public _totalMiningSupply;\r\n\r\n\r\n\r\n     uint public latestDifficultyPeriodStarted;\r\n\r\n\r\n\r\n    uint public epochCount;//number of 'blocks' mined\r\n\r\n\r\n    uint public _BLOCKS_PER_READJUSTMENT = 1024;\r\n\r\n\r\n    //a little number\r\n    uint public  _MINIMUM_TARGET = 2**16;\r\n\r\n\r\n      //a big number is easier ; just find a solution that is smaller\r\n    //uint public  _MAXIMUM_TARGET = 2**224;  bitcoin uses 224\r\n    uint public  _MAXIMUM_TARGET = 2**242; // used for tests 243 much faster, 242 seems to be the limit where mining gets much harder\r\n    // uint public  _MAXIMUM_TARGET = 2**234; // used for prod\r\n\r\n\r\n    uint public miningTarget;\r\n\r\n    bytes32 public challengeNumber;   //generate a new one when a new reward is minted\r\n\r\n\r\n    uint public blockreward;\r\n\r\n\r\n    address public lastRewardTo;\r\n    uint public lastRewardEthBlockNumber;\r\n\r\n    bool locked = false;\r\n\r\n    mapping(bytes32 => bytes32) solutionForChallenge;\r\n\r\n    uint public tokensMinted;\r\n\r\n    // Mining system state variables\r\n\r\n\r\n\r\n\r\n    event Transfer(address indexed from, address indexed to, uint tokens);\r\n    event Approval(address indexed tokenOwner, address indexed spender, uint tokens);\r\n    event Mint(address indexed from, uint blockreward, uint epochCount, bytes32 newChallengeNumber);\r\n\r\n\r\n    constructor() public{\r\n      supply = 100 * (10**18); // initial supply equals 100 ETI\r\n      balances[address(this)] = balances[address(this)].add(100 * (10**18)); // 100 ETI as the default contract balance. To avoid any issue that could arise from negative contract balance because of significant numbers approximations\r\n\r\n\r\n      // PHASE 1 (before 21 Million ETI has been reached) -->\r\n      // 10 500 000 ETI to be issued as periodrewardtemp for ETICA reward system\r\n      // 10 500 000 ETI to be MINED\r\n\r\n\r\n      // <--phase1--> periodrewardtemp:\r\n      // fixed Etica issued per period (7 days) during phase1 (before 21 Million ETI has been reached)\r\n      // The amount of reward will be twice of first rewards of phase 2\r\n      // Calculation of first rewards of phase 2:\r\n      // 21 000 000 * 0.26180339887498948482045868343656 = 549787,13763747791812296323521678 ETI (first year reward)\r\n      // 549787,13763747791812296323521678 / 52.1429 = 10543,854247413893706007207792754 ETI (first weeks reward of phase2)\r\n      // 10543,854247413893706007207792754 * 2 = 21087,708494827787412014415585507 ETI\r\n      periodrewardtemp = 21087708494827787412014; // 21087,708494827787412014415585507 ETI per period (7 days) will take about 9,5491502812526287948853291408588 years to reach 10 500 000 ETI\r\n\r\n\r\n      // <--phase1--> mining:\r\n      _totalMiningSupply = 10500000 * 10**uint(decimals);\r\n\r\n      if(locked) revert();\r\n      locked = true;\r\n\r\n      tokensMinted = 0;\r\n\r\n\r\n      // The amount of etica mined per 7 days will be twice of first rewards of phase 2\r\n      // Calculation of first rewards of phase 2:\r\n      // 21 000 000 * 0.26180339887498948482045868343656 = 549787,13763747791812296323521678 ETI (first year reward)\r\n      // 549787,13763747791812296323521678 / 52.1429 = 10543,854247413893706007207792754 ETI (first weeks reward of phase2)\r\n      // 10543,854247413893706007207792754 * 2 = 21087,708494827787412014415585507 ETI per 7 days\r\n      // 21087,708494827787412014415585507 ETI per 7 days = 20,920345728995820845252396414193 ETI per block (10 minutes)\r\n      blockreward = 20920345728995820845;\r\n\r\n      miningTarget = _MAXIMUM_TARGET;\r\n\r\n      latestDifficultyPeriodStarted = block.number;\r\n\r\n      _startNewMiningEpoch();\r\n\r\n      // PHASE 1 <--\r\n\r\n      // --> PHASE 2\r\n      // Golden number power 2: 1,6180339887498948482045868343656 * 1,6180339887498948482045868343656 = 2.6180339887498948482045868343656;\r\n      inflationrate = 26180339887498948482045868343656; // (need to multiple by 10^(-33) to get 0.026180339887498948482045868343656);\r\n\r\n       // PHASE 2 <--\r\n\r\n\r\n       //The founder gets nothing! You must mine or earn the Etica ERC20 token\r\n       //balances[founder] = _totalMiningSupply;\r\n       //Transfer(address(0), founder, _totalMiningSupply);\r\n      founder = msg.sender;\r\n      foundermsgproof = \"Discovering our best Futures. Kevin Wad\";\r\n    }\r\n\r\n\r\n    function allowance(address tokenOwner, address spender) view public returns(uint){\r\n        return allowed[tokenOwner][spender];\r\n    }\r\n\r\n\r\n    //approve allowance\r\n    function approve(address spender, uint tokens) public returns(bool){\r\n        require(balances[msg.sender] >= tokens);\r\n        require(tokens > 0);\r\n\r\n        allowed[msg.sender][spender] = tokens;\r\n        emit Approval(msg.sender, spender, tokens);\r\n        return true;\r\n    }\r\n\r\n    //transfer tokens from the  owner account to the account that calls the function\r\n    function transferFrom(address from, address to, uint tokens) public returns(bool){\r\n\r\n      balances[from] = balances[from].sub(tokens);\r\n\r\n      allowed[from][msg.sender] = allowed[from][msg.sender].sub(tokens);\r\n\r\n      balances[to] = balances[to].add(tokens);\r\n\r\n      emit Transfer(from, to, tokens);\r\n\r\n      return true;\r\n    }\r\n\r\n    function totalSupply() public view returns (uint){\r\n        return supply;\r\n    }\r\n\r\n    function balanceOf(address tokenOwner) public view returns (uint balance){\r\n         return balances[tokenOwner];\r\n     }\r\n\r\n\r\n    function transfer(address to, uint tokens) public returns (bool success){\r\n         require(tokens > 0);\r\n\r\n         balances[msg.sender] = balances[msg.sender].sub(tokens);\r\n\r\n         balances[to] = balances[to].add(tokens);\r\n\r\n         emit Transfer(msg.sender, to, tokens);\r\n\r\n         return true;\r\n     }\r\n\r\n\r\n     // -------------  Mining system functions ---------------- //\r\n\r\n         function mint(uint256 nonce, bytes32 challenge_digest) public returns (bool success) {\r\n\r\n\r\n             //the PoW must contain work that includes a recent ethereum block hash (challenge number) and the msg.sender's address to prevent MITM attacks\r\n             bytes32 digest =  keccak256(abi.encodePacked(challengeNumber, msg.sender, nonce));\r\n\r\n             //the challenge digest must match the expected\r\n             if (digest != challenge_digest) revert();\r\n\r\n             //the digest must be smaller than the target\r\n             if(uint256(digest) > miningTarget) revert();\r\n\r\n\r\n             //only allow one reward for each challenge\r\n              bytes32 solution = solutionForChallenge[challengeNumber];\r\n              solutionForChallenge[challengeNumber] = digest;\r\n              if(solution != 0x0) revert();  //prevent the same answer from awarding twice\r\n\r\n\r\n             //Cannot mint more tokens than there are: maximum ETI ever mined: _totalMiningSupply + blockreward\r\n             assert(tokensMinted < _totalMiningSupply);\r\n\r\n             tokensMinted = tokensMinted.add(blockreward);\r\n             supply = supply.add(blockreward);\r\n             balances[msg.sender] = balances[msg.sender].add(blockreward);\r\n\r\n             //set readonly diagnostics data\r\n             lastRewardTo = msg.sender;\r\n             lastRewardEthBlockNumber = block.number;\r\n\r\n\r\n              _startNewMiningEpoch();\r\n\r\n               emit Mint(msg.sender, blockreward, epochCount, challengeNumber );\r\n\r\n            return true;\r\n\r\n         }\r\n\r\n\r\n     //a new 'block' to be mined\r\n     function _startNewMiningEpoch() internal {\r\n\r\n\r\n       epochCount = epochCount.add(1);\r\n\r\n       //every so often, readjust difficulty. Dont readjust when deploying\r\n       if(epochCount % _BLOCKS_PER_READJUSTMENT == 0)\r\n       {\r\n         _reAdjustDifficulty();\r\n       }\r\n\r\n\r\n       //make the latest ethereum block hash a part of the next challenge for PoW to prevent pre-mining future blocks\r\n       //do this last since this is a protection mechanism in the mint() function\r\n       challengeNumber = blockhash(block.number - 1);\r\n\r\n     }\r\n\r\n\r\n\r\n\r\n     //https://en.bitcoin.it/wiki/Difficulty#What_is_the_formula_for_difficulty.3F\r\n     //as of 2017 the bitcoin difficulty was up to 17 zeroes, it was only 8 in the early days\r\n\r\n     //readjust the target by 5 percent\r\n     function _reAdjustDifficulty() internal {\r\n\r\n\r\n         uint ethBlocksSinceLastDifficultyPeriod = block.number - latestDifficultyPeriodStarted;\r\n         //assume 360 ethereum blocks per hour\r\n\r\n         //we want miners to spend 10 minutes to mine each 'block', about 60 ethereum blocks = one Mining system epoch\r\n         uint epochsMined = _BLOCKS_PER_READJUSTMENT; //256\r\n\r\n         uint targetEthBlocksPerDiffPeriod = epochsMined * 60; //should be 60 times slower than ethereum\r\n\r\n         //if there were less eth blocks passed in time than expected\r\n         if( ethBlocksSinceLastDifficultyPeriod < targetEthBlocksPerDiffPeriod )\r\n         {\r\n           uint excess_block_pct = (targetEthBlocksPerDiffPeriod.mul(100)).div( ethBlocksSinceLastDifficultyPeriod );\r\n\r\n           uint excess_block_pct_extra = excess_block_pct.sub(100).limitLessThan(1000);\r\n           // If there were 5% more blocks mined than expected then this is 5.  If there were 100% more blocks mined than expected then this is 100.\r\n\r\n           //make it harder\r\n           miningTarget = miningTarget.sub(miningTarget.div(2000).mul(excess_block_pct_extra));   //by up to 50 %\r\n         }else{\r\n           uint shortage_block_pct = (ethBlocksSinceLastDifficultyPeriod.mul(100)).div( targetEthBlocksPerDiffPeriod );\r\n\r\n           uint shortage_block_pct_extra = shortage_block_pct.sub(100).limitLessThan(1000); //always between 0 and 1000\r\n\r\n           //make it easier\r\n           miningTarget = miningTarget.add(miningTarget.div(2000).mul(shortage_block_pct_extra));   //by up to 50 %\r\n         }\r\n\r\n\r\n\r\n         latestDifficultyPeriodStarted = block.number;\r\n\r\n         if(miningTarget < _MINIMUM_TARGET) //very difficult\r\n         {\r\n           miningTarget = _MINIMUM_TARGET;\r\n         }\r\n\r\n         if(miningTarget > _MAXIMUM_TARGET) //very easy\r\n         {\r\n           miningTarget = _MAXIMUM_TARGET;\r\n         }\r\n     }\r\n\r\n\r\n     //this is a recent ethereum block hash, used to prevent pre-mining future blocks\r\n     function getChallengeNumber() public view returns (bytes32) {\r\n         return challengeNumber;\r\n     }\r\n\r\n     //the number of zeroes the digest of the PoW solution requires.  Auto adjusts\r\n      function getMiningDifficulty() public view returns (uint) {\r\n         return _MAXIMUM_TARGET.div(miningTarget);\r\n     }\r\n\r\n     function getMiningTarget() public view returns (uint) {\r\n        return miningTarget;\r\n    }\r\n\r\n\r\n     //help debug mining software\r\n     function getMintDigest(uint256 nonce, bytes32 challenge_digest, bytes32 challenge_number) public view returns (bytes32 digesttest) {\r\n\r\n         bytes32 digest = keccak256(abi.encodePacked(challenge_number,msg.sender,nonce));\r\n\r\n         return digest;\r\n\r\n       }\r\n\r\n         //help debug mining software\r\n       function checkMintSolution(uint256 nonce, bytes32 challenge_digest, bytes32 challenge_number, uint testTarget) public view returns (bool success) {\r\n\r\n           bytes32 digest = keccak256(abi.encodePacked(challenge_number,msg.sender,nonce));\r\n\r\n           if(uint256(digest) > testTarget) revert();\r\n\r\n           return (digest == challenge_digest);\r\n\r\n         }\r\n\r\n\r\n// ------------------      Mining system functions   -------------------------  //\r\n\r\n// ------------------------------------------------------------------------\r\n\r\n// Don't accept ETH\r\n\r\n// ------------------------------------------------------------------------\r\n\r\nfunction () payable external {\r\n\r\n    revert();\r\n\r\n}\r\n\r\n}\r\n\r\n\r\n\r\n\r\ncontract EticaRelease is EticaToken {\r\n  /* --------- PROD -------------\r\nuint TESTING_STARTING_BLOCK_NUMBER = 7739267; // used only for testing as ganache starts at block number 0\r\nuint REWARD_INTERVAL = 42000; // periods duration (in number of blocks) 42000 blocks = 7 jours (6000 blocks per day)\r\nuint STAKING_DURATION = 168000; // default stake duration (in number of blocks) 168000 blocks = 28 jours (6000 blocks per day)\r\nuint ETICA_TO_BOSOM_RATIO = 1; //\r\n     --------- PROD ------------- */\r\n\r\n\r\nuint TESTING_STARTING_BLOCK_NUMBER = 7739267; // used only for testing as ganache starts at block number 0\r\nuint REWARD_INTERVAL = 42; // periods duration (in number of blocks) 42000 blocks = 7 jours (6000 blocks per day)\r\nuint STAKING_DURATION = 168; // default stake duration (in number of blocks) 168000 blocks = 28 jours (6000 blocks per day)\r\nuint ETICA_TO_BOSOM_RATIO = 1; //\r\n\r\n\r\nstruct Period{\r\n    uint id;\r\n    uint interval;\r\n    uint curation_sum;\r\n    uint editor_sum;\r\n    uint total_voters; // TOTAL nb of voters in this period\r\n}\r\n\r\n  struct Stake{\r\n      uint amount;\r\n      uint startBlock;\r\n      uint endBlock;\r\n  }\r\n\r\n\r\n// Stuct used only inside Proposals as Proposals' s Targets.\r\n// The software has no independent Target structs with Target ids and details ...\r\n  struct Target{\r\n      string name;\r\n      string kind; // Example: GPCR, Enzyme, Protein Activity ...\r\n      uint status; // Example: Exploration, Validation, Fully Validated, Null ...\r\n      string freefield; // used by front end apps and communities to fit their needs and process\r\n  }\r\n\r\n  // Stuct used only inside Proposals as Proposals' s Compounds.\r\n  // The software has no independent Compounds structs with Compounds ids and details ...\r\n    struct Compound{\r\n        string name;\r\n        string kind; // Example: Small Organic Molecules, Large Protein Molecules ...\r\n        uint result; // Example: Failure, Success, Undertermined, Null ...\r\n        string freefield; // used by front end apps and communities to fit their needs and process\r\n    }\r\n\r\n  struct Proposal{\r\n      uint id;\r\n      uint disease_id;\r\n      string ipfshash;\r\n      string name;\r\n      string summary;\r\n      Target[] targets;\r\n      Compound[] compounds;\r\n      string freefield; // used by front end apps and communities to fit their needs and process\r\n  }\r\n\r\n  struct Disease{\r\n      bytes32 uniquehash;\r\n      string name;\r\n      string description;\r\n  }\r\n\r\nmapping(uint => Period) public periods;\r\nuint public periodsCounter;\r\nmapping(uint => uint) public PeriodsIssued; // keeps track of which periods have already issued ETI\r\nuint public PeriodsIssuedCounter;\r\nmapping(uint => uint) public IntervalsPeriods; // keeps track of which intervals have already a period\r\nuint public IntervalsPeriodsCounter;\r\n\r\n\r\nmapping(uint => Disease) public diseases; // keeps track of which intervals have already a period\r\nuint public DiseasesCounter;\r\nmapping(bytes32 => uint) public diseasesbyIds; // example:    [leiojej757575ero] => [0]  where leiojej757575ero is id of a Disease\r\nmapping(string => bytes32) private diseasesbyNames; // example:    [\"name of a disease\"] => [leiojej757575ero]  where leiojej757575ero is id of a Disease. Set visibility to private because mapping with strings as keys have issues when public visibility\r\n\r\n\r\nmapping(address => uint) public bosoms;\r\nmapping(address => mapping(uint => Stake)) public stakes;\r\nmapping(address => uint) public stakesCounters; // keeps track of how many stakes for each user\r\n// stakes ----> slashing function will need to loop trough stakes. Can create issues for claiming votes:\r\n// will create a function to gather stakes when user has to much stakes.\r\n// The function will take a completion_time as parameter and will loop trough 50 indexes and will put all stakes with\r\n// lower completion_time into a  single new stake with parameter completion_time\r\n\r\nevent CreatedPeriod(uint period_id, uint interval);\r\nevent IssuedPeriod(uint period_id, uint periodreward);\r\nevent NewStake(address indexed staker, uint amount);\r\nevent StakeClaimed(address indexed staker, uint stakeidx);\r\nevent NewDisease(uint diseaseindex, string title, string description);\r\n\r\n\r\n\r\n// -------------  Reward system functions ---------------- //\r\n\r\nfunction issue(uint _id) internal returns (bool success) {\r\n  // we check whether there is at least one period\r\n  require(periodsCounter > 0);\r\n\r\n  // we check that the period exists\r\n  require(_id > 0 && _id <= periodsCounter);\r\n\r\n  // we retrieve the period\r\n  Period storage period = periods[_id];\r\n\r\n  // we check that the period is legit and has been retrieved\r\n  require(period.id != 0);\r\n\r\n\r\n//only allow one issuance for each period\r\nuint rwd = PeriodsIssued[period.id];\r\nif(rwd != 0x0) revert();  //prevent the same period from issuing twice\r\n\r\nuint _periodsupply;\r\n\r\n// era 2 (after 21 000 000 ETI has been reached)\r\nif(supply >= 21000000 * 10**(decimals)){\r\n uint _rate = uint(inflationrate / 10**(33));\r\n _periodsupply = supply * _rate;\r\n}\r\n// era 1 (before 21 000 000 ETI has been reached)\r\nelse {\r\n  _periodsupply = periodrewardtemp;\r\n}\r\n\r\nsupply = supply + _periodsupply;\r\nbalances[address(this)] = balances[address(this)].add(_periodsupply);\r\nPeriodsIssued[period.id] = _periodsupply;\r\nPeriodsIssuedCounter = PeriodsIssuedCounter + 1;\r\n\r\nemit IssuedPeriod(periodsCounter, _periodsupply);\r\n\r\nreturn true;\r\n\r\n}\r\n\r\n// --- WARNING this function should be internal, will be called by propose proposal function\r\n// let public for testing only\r\n// create a period\r\nfunction newPeriod() public {\r\n\r\n  uint _interval = uint((block.number + TESTING_STARTING_BLOCK_NUMBER).div(REWARD_INTERVAL));\r\n\r\n  //only allow one period for each interval\r\n  uint rwd = IntervalsPeriods[_interval];\r\n  if(rwd != 0x0) revert();  //prevent the same interval from having 2 periods\r\n\r\n\r\n  periodsCounter++;\r\n\r\n  // store this interval period\r\n  periods[periodsCounter] = Period(\r\n    periodsCounter,\r\n    _interval,\r\n    0x0, //_curation_sum\r\n    0x0, //_editor_sum\r\n    0x0 //_total_voters; // TOTAL nb of voters in this period\r\n  );\r\n\r\n  // an interval cannot have 2 Periods\r\n  IntervalsPeriods[_interval] = periodsCounter;\r\n  IntervalsPeriodsCounter++;\r\n\r\n  // issue ETI for this Period Reward\r\n  issue(periodsCounter);\r\n\r\n  emit CreatedPeriod(periodsCounter, _interval);\r\n}\r\n\r\n\r\n\r\n\r\n// -------------  Reward system functions ---------------- //\r\n\r\n\r\n// ------- STAKING ---------- //\r\n// Stake etica in exchange for bosom\r\nfunction eticatobosoms(address _staker, uint _amount) public returns (bool success){\r\n  require(msg.sender == _staker);\r\n  require(_amount > 0); // even if transfer require amount > 0 I prefer checking for more security and very few more gas\r\n  // transfer _amount ETI from staker wallet to contract balance:\r\n  transfer(address(this), _amount);\r\n\r\n  // Get bosoms and add Stake\r\n  bosomget(_staker, _amount);\r\n\r\n\r\n  return true;\r\n\r\n}\r\n\r\n\r\n\r\n// ----  Get bosoms and add Stake ------  //\r\n\r\n// Only contract must be able to call this function:\r\nfunction bosomget (address _staker, uint _amount) internal {\r\n\r\naddStake(_staker, _amount);\r\n\r\nuint newBosoms = _amount * ETICA_TO_BOSOM_RATIO;\r\nbosoms[_staker] = bosoms[_staker].add(newBosoms);\r\n\r\n}\r\n\r\n\r\nfunction addStake(address _staker, uint _amount) internal returns (bool success) {\r\n\r\n    require(_amount > 0); // may not be necessary as _amount is uint but I let it for better security\r\n    stakesCounters[_staker] = stakesCounters[_staker] + 1; // notice that first stake will have the index of 1 thus not 0 !\r\n\r\n    uint endBlock = block.number + STAKING_DURATION;\r\n\r\n    // store this stake in _staker's stakes with the index stakesCounters[_staker]\r\n    stakes[_staker][stakesCounters[_staker]] = Stake(\r\n      _amount, // stake amount\r\n      block.number, // StartBlock\r\n      endBlock // EndBlock\r\n    );\r\n\r\n    emit NewStake(_staker, _amount);\r\n\r\n    return true;\r\n}\r\n\r\n// ----  Get bosoms and add Stake ------  //\r\n\r\n\r\n// ----  Redeem a Stake ------  //\r\n\r\nfunction stakeclmidx (uint _stakeidx) public {\r\n\r\n  // we check that the stake exists\r\n  require(_stakeidx > 0 && _stakeidx <= stakesCounters[msg.sender]);\r\n\r\n  // we retrieve the stake\r\n  Stake storage _stake = stakes[msg.sender][_stakeidx];\r\n\r\n  // The stake must be over\r\n  require(block.number > _stake.endBlock);\r\n\r\n  require(_stake.amount > 0);\r\n\r\n  // transfer back ETI from contract to staker:\r\n  balances[address(this)] = balances[address(this)].sub(_stake.amount);\r\n\r\n  balances[msg.sender] = balances[msg.sender].add(_stake.amount);\r\n\r\n  emit Transfer(address(this), msg.sender, _stake.amount);\r\n  emit StakeClaimed(msg.sender, _stakeidx);\r\n\r\n  // deletes the stake\r\n  _deletestake(msg.sender, _stakeidx);\r\n\r\n}\r\n\r\nfunction _deletestake(address _staker,uint _index) internal {\r\n  // we check that the stake exists\r\n  require(_index > 0 && _index <= stakesCounters[_staker]);\r\n\r\n  // replace value of stake to be deleted by value of last stake\r\n  stakes[_staker][_index] = stakes[_staker][stakesCounters[_staker]];\r\n\r\n  // remove last stake\r\n  stakes[_staker][stakesCounters[_staker]] = Stake(\r\n    0x0, // amount\r\n    0x0, // StartBlock\r\n    0x0 // EndBlock\r\n    );\r\n\r\n  // updates stakesCounter of _staker\r\n  stakesCounters[_staker] = stakesCounters[_staker] - 1;\r\n}\r\n\r\n// ----  Redeem a Stake ------  //\r\n\r\n\r\nfunction stakescount(address _staker) public view returns (uint slength){\r\n  return stakesCounters[_staker];\r\n}\r\n\r\n// ------- STAKING ---------- //\r\n\r\n\r\n\r\n\r\n\r\nfunction createdisease(string memory _name, string memory _description) public {\r\n\r\n  bytes32 _diseasehash = sha256(abi.encodePacked(_name));\r\n\r\n  DiseasesCounter = DiseasesCounter + 1; // notice that first disease will have the index of 1 thus not 0 !\r\n\r\n  //check: if the disease is new we continue, otherwise we exit\r\n   if(diseasesbyIds[_diseasehash] != 0x0) revert();  //prevent the same disease from being created twice. The software manages diseases uniqueness based on their unique english name. Note that even the first disease will nott have index of 0 thus should pass this check\r\n\r\n\r\n   // store this stake in _staker's stakes with the index stakesCounters[_staker]\r\n   diseases[DiseasesCounter] = Disease(\r\n     _diseasehash,\r\n     _name,\r\n     _description\r\n   );\r\n\r\n   emit NewDisease(DiseasesCounter, _name, _description);\r\n\r\n}\r\n\r\n\r\n\r\n\r\n// get boms balance of user:\r\nfunction bosomsOf(address tokenOwner) public view returns (uint _bosoms){\r\n     return bosoms[tokenOwner];\r\n }\r\n\r\n\r\n}\r\n",
  "sourcePath": "/mnt/d/linux/ethereum/etica/contracts/EticaRelease.sol",
  "compiler": {
    "name": "solc",
    "version": "0.5.2+commit.1df8f40c.Emscripten.clang"
  },
  "schemaVersion": "3.0.9",
  "updatedAt": "2019-06-03T15:30:37.325Z",
  "devdoc": {
    "methods": {}
  },
  "userdoc": {
    "methods": {}
  }
}