{
  "contractName": "EticaRelease",
  "abi": [
    {
      "constant": true,
      "inputs": [],
      "name": "supply",
      "outputs": [
        {
          "name": "",
          "type": "uint256"
        }
      ],
      "payable": false,
      "stateMutability": "view",
      "type": "function"
    },
    {
      "constant": true,
      "inputs": [],
      "name": "name",
      "outputs": [
        {
          "name": "",
          "type": "string"
        }
      ],
      "payable": false,
      "stateMutability": "view",
      "type": "function"
    },
    {
      "constant": false,
      "inputs": [
        {
          "name": "spender",
          "type": "address"
        },
        {
          "name": "tokens",
          "type": "uint256"
        }
      ],
      "name": "approve",
      "outputs": [
        {
          "name": "",
          "type": "bool"
        }
      ],
      "payable": false,
      "stateMutability": "nonpayable",
      "type": "function"
    },
    {
      "constant": true,
      "inputs": [
        {
          "name": "",
          "type": "bytes32"
        }
      ],
      "name": "diseasesbyIds",
      "outputs": [
        {
          "name": "",
          "type": "uint256"
        }
      ],
      "payable": false,
      "stateMutability": "view",
      "type": "function"
    },
    {
      "constant": true,
      "inputs": [],
      "name": "lastRewardEthBlockNumber",
      "outputs": [
        {
          "name": "",
          "type": "uint256"
        }
      ],
      "payable": false,
      "stateMutability": "view",
      "type": "function"
    },
    {
      "constant": true,
      "inputs": [],
      "name": "getMiningDifficulty",
      "outputs": [
        {
          "name": "",
          "type": "uint256"
        }
      ],
      "payable": false,
      "stateMutability": "view",
      "type": "function"
    },
    {
      "constant": false,
      "inputs": [
        {
          "name": "nonce",
          "type": "uint256"
        },
        {
          "name": "challenge_digest",
          "type": "bytes32"
        }
      ],
      "name": "mint",
      "outputs": [
        {
          "name": "success",
          "type": "bool"
        }
      ],
      "payable": false,
      "stateMutability": "nonpayable",
      "type": "function"
    },
    {
      "constant": true,
      "inputs": [],
      "name": "totalSupply",
      "outputs": [
        {
          "name": "",
          "type": "uint256"
        }
      ],
      "payable": false,
      "stateMutability": "view",
      "type": "function"
    },
    {
      "constant": true,
      "inputs": [],
      "name": "IntervalsPeriodsCounter",
      "outputs": [
        {
          "name": "",
          "type": "uint256"
        }
      ],
      "payable": false,
      "stateMutability": "view",
      "type": "function"
    },
    {
      "constant": false,
      "inputs": [
        {
          "name": "from",
          "type": "address"
        },
        {
          "name": "to",
          "type": "address"
        },
        {
          "name": "tokens",
          "type": "uint256"
        }
      ],
      "name": "transferFrom",
      "outputs": [
        {
          "name": "",
          "type": "bool"
        }
      ],
      "payable": false,
      "stateMutability": "nonpayable",
      "type": "function"
    },
    {
      "constant": true,
      "inputs": [
        {
          "name": "",
          "type": "address"
        }
      ],
      "name": "balances",
      "outputs": [
        {
          "name": "",
          "type": "uint256"
        }
      ],
      "payable": false,
      "stateMutability": "view",
      "type": "function"
    },
    {
      "constant": true,
      "inputs": [],
      "name": "decimals",
      "outputs": [
        {
          "name": "",
          "type": "uint256"
        }
      ],
      "payable": false,
      "stateMutability": "view",
      "type": "function"
    },
    {
      "constant": true,
      "inputs": [],
      "name": "getMiningTarget",
      "outputs": [
        {
          "name": "",
          "type": "uint256"
        }
      ],
      "payable": false,
      "stateMutability": "view",
      "type": "function"
    },
    {
      "constant": true,
      "inputs": [],
      "name": "DISEASE_CREATION_AMOUNT",
      "outputs": [
        {
          "name": "",
          "type": "uint256"
        }
      ],
      "payable": false,
      "stateMutability": "view",
      "type": "function"
    },
    {
      "constant": true,
      "inputs": [],
      "name": "_totalMiningSupply",
      "outputs": [
        {
          "name": "",
          "type": "uint256"
        }
      ],
      "payable": false,
      "stateMutability": "view",
      "type": "function"
    },
    {
      "constant": true,
      "inputs": [
        {
          "name": "",
          "type": "uint256"
        }
      ],
      "name": "diseases",
      "outputs": [
        {
          "name": "diseasehash",
          "type": "bytes32"
        },
        {
          "name": "name",
          "type": "string"
        },
        {
          "name": "description",
          "type": "string"
        }
      ],
      "payable": false,
      "stateMutability": "view",
      "type": "function"
    },
    {
      "constant": true,
      "inputs": [],
      "name": "founder",
      "outputs": [
        {
          "name": "",
          "type": "address"
        }
      ],
      "payable": false,
      "stateMutability": "view",
      "type": "function"
    },
    {
      "constant": true,
      "inputs": [],
      "name": "getChallengeNumber",
      "outputs": [
        {
          "name": "",
          "type": "bytes32"
        }
      ],
      "payable": false,
      "stateMutability": "view",
      "type": "function"
    },
    {
      "constant": true,
      "inputs": [
        {
          "name": "",
          "type": "address"
        }
      ],
      "name": "bosoms",
      "outputs": [
        {
          "name": "",
          "type": "uint256"
        }
      ],
      "payable": false,
      "stateMutability": "view",
      "type": "function"
    },
    {
      "constant": true,
      "inputs": [
        {
          "name": "",
          "type": "address"
        },
        {
          "name": "",
          "type": "uint256"
        }
      ],
      "name": "stakes",
      "outputs": [
        {
          "name": "amount",
          "type": "uint256"
        },
        {
          "name": "startBlock",
          "type": "uint256"
        },
        {
          "name": "endBlock",
          "type": "uint256"
        }
      ],
      "payable": false,
      "stateMutability": "view",
      "type": "function"
    },
    {
      "constant": true,
      "inputs": [],
      "name": "foundermsgproof",
      "outputs": [
        {
          "name": "",
          "type": "string"
        }
      ],
      "payable": false,
      "stateMutability": "view",
      "type": "function"
    },
    {
      "constant": true,
      "inputs": [],
      "name": "tokensMinted",
      "outputs": [
        {
          "name": "",
          "type": "uint256"
        }
      ],
      "payable": false,
      "stateMutability": "view",
      "type": "function"
    },
    {
      "constant": true,
      "inputs": [],
      "name": "diseasesCounter",
      "outputs": [
        {
          "name": "",
          "type": "uint256"
        }
      ],
      "payable": false,
      "stateMutability": "view",
      "type": "function"
    },
    {
      "constant": true,
      "inputs": [],
      "name": "lastRewardTo",
      "outputs": [
        {
          "name": "",
          "type": "address"
        }
      ],
      "payable": false,
      "stateMutability": "view",
      "type": "function"
    },
    {
      "constant": true,
      "inputs": [
        {
          "name": "tokenOwner",
          "type": "address"
        }
      ],
      "name": "balanceOf",
      "outputs": [
        {
          "name": "balance",
          "type": "uint256"
        }
      ],
      "payable": false,
      "stateMutability": "view",
      "type": "function"
    },
    {
      "constant": true,
      "inputs": [
        {
          "name": "nonce",
          "type": "uint256"
        },
        {
          "name": "challenge_digest",
          "type": "bytes32"
        },
        {
          "name": "challenge_number",
          "type": "bytes32"
        },
        {
          "name": "testTarget",
          "type": "uint256"
        }
      ],
      "name": "checkMintSolution",
      "outputs": [
        {
          "name": "success",
          "type": "bool"
        }
      ],
      "payable": false,
      "stateMutability": "view",
      "type": "function"
    },
    {
      "constant": true,
      "inputs": [],
      "name": "epochCount",
      "outputs": [
        {
          "name": "",
          "type": "uint256"
        }
      ],
      "payable": false,
      "stateMutability": "view",
      "type": "function"
    },
    {
      "constant": true,
      "inputs": [],
      "name": "_MAXIMUM_TARGET",
      "outputs": [
        {
          "name": "",
          "type": "uint256"
        }
      ],
      "payable": false,
      "stateMutability": "view",
      "type": "function"
    },
    {
      "constant": true,
      "inputs": [
        {
          "name": "",
          "type": "uint256"
        }
      ],
      "name": "IntervalsPeriods",
      "outputs": [
        {
          "name": "",
          "type": "uint256"
        }
      ],
      "payable": false,
      "stateMutability": "view",
      "type": "function"
    },
    {
      "constant": true,
      "inputs": [],
      "name": "miningTarget",
      "outputs": [
        {
          "name": "",
          "type": "uint256"
        }
      ],
      "payable": false,
      "stateMutability": "view",
      "type": "function"
    },
    {
      "constant": true,
      "inputs": [],
      "name": "challengeNumber",
      "outputs": [
        {
          "name": "",
          "type": "bytes32"
        }
      ],
      "payable": false,
      "stateMutability": "view",
      "type": "function"
    },
    {
      "constant": true,
      "inputs": [],
      "name": "symbol",
      "outputs": [
        {
          "name": "",
          "type": "string"
        }
      ],
      "payable": false,
      "stateMutability": "view",
      "type": "function"
    },
    {
      "constant": true,
      "inputs": [
        {
          "name": "nonce",
          "type": "uint256"
        },
        {
          "name": "challenge_digest",
          "type": "bytes32"
        },
        {
          "name": "challenge_number",
          "type": "bytes32"
        }
      ],
      "name": "getMintDigest",
      "outputs": [
        {
          "name": "digesttest",
          "type": "bytes32"
        }
      ],
      "payable": false,
      "stateMutability": "view",
      "type": "function"
    },
    {
      "constant": false,
      "inputs": [
        {
          "name": "to",
          "type": "address"
        },
        {
          "name": "tokens",
          "type": "uint256"
        }
      ],
      "name": "transfer",
      "outputs": [
        {
          "name": "success",
          "type": "bool"
        }
      ],
      "payable": false,
      "stateMutability": "nonpayable",
      "type": "function"
    },
    {
      "constant": true,
      "inputs": [],
      "name": "_BLOCKS_PER_READJUSTMENT",
      "outputs": [
        {
          "name": "",
          "type": "uint256"
        }
      ],
      "payable": false,
      "stateMutability": "view",
      "type": "function"
    },
    {
      "constant": true,
      "inputs": [],
      "name": "inflationrate",
      "outputs": [
        {
          "name": "",
          "type": "uint256"
        }
      ],
      "payable": false,
      "stateMutability": "view",
      "type": "function"
    },
    {
      "constant": true,
      "inputs": [],
      "name": "latestDifficultyPeriodStarted",
      "outputs": [
        {
          "name": "",
          "type": "uint256"
        }
      ],
      "payable": false,
      "stateMutability": "view",
      "type": "function"
    },
    {
      "constant": true,
      "inputs": [],
      "name": "blockreward",
      "outputs": [
        {
          "name": "",
          "type": "uint256"
        }
      ],
      "payable": false,
      "stateMutability": "view",
      "type": "function"
    },
    {
      "constant": true,
      "inputs": [],
      "name": "PeriodsIssuedCounter",
      "outputs": [
        {
          "name": "",
          "type": "uint256"
        }
      ],
      "payable": false,
      "stateMutability": "view",
      "type": "function"
    },
    {
      "constant": true,
      "inputs": [],
      "name": "periodrewardtemp",
      "outputs": [
        {
          "name": "",
          "type": "uint256"
        }
      ],
      "payable": false,
      "stateMutability": "view",
      "type": "function"
    },
    {
      "constant": true,
      "inputs": [
        {
          "name": "",
          "type": "address"
        }
      ],
      "name": "stakesCounters",
      "outputs": [
        {
          "name": "",
          "type": "uint256"
        }
      ],
      "payable": false,
      "stateMutability": "view",
      "type": "function"
    },
    {
      "constant": true,
      "inputs": [],
      "name": "periodsCounter",
      "outputs": [
        {
          "name": "",
          "type": "uint256"
        }
      ],
      "payable": false,
      "stateMutability": "view",
      "type": "function"
    },
    {
      "constant": true,
      "inputs": [],
      "name": "_MINIMUM_TARGET",
      "outputs": [
        {
          "name": "",
          "type": "uint256"
        }
      ],
      "payable": false,
      "stateMutability": "view",
      "type": "function"
    },
    {
      "constant": true,
      "inputs": [
        {
          "name": "tokenOwner",
          "type": "address"
        },
        {
          "name": "spender",
          "type": "address"
        }
      ],
      "name": "allowance",
      "outputs": [
        {
          "name": "",
          "type": "uint256"
        }
      ],
      "payable": false,
      "stateMutability": "view",
      "type": "function"
    },
    {
      "constant": true,
      "inputs": [
        {
          "name": "",
          "type": "uint256"
        }
      ],
      "name": "periods",
      "outputs": [
        {
          "name": "id",
          "type": "uint256"
        },
        {
          "name": "interval",
          "type": "uint256"
        },
        {
          "name": "curation_sum",
          "type": "uint256"
        },
        {
          "name": "editor_sum",
          "type": "uint256"
        },
        {
          "name": "total_voters",
          "type": "uint256"
        }
      ],
      "payable": false,
      "stateMutability": "view",
      "type": "function"
    },
    {
      "constant": true,
      "inputs": [
        {
          "name": "",
          "type": "uint256"
        }
      ],
      "name": "PeriodsIssued",
      "outputs": [
        {
          "name": "",
          "type": "uint256"
        }
      ],
      "payable": false,
      "stateMutability": "view",
      "type": "function"
    },
    {
      "payable": true,
      "stateMutability": "payable",
      "type": "fallback"
    },
    {
      "anonymous": false,
      "inputs": [
        {
          "indexed": false,
          "name": "period_id",
          "type": "uint256"
        },
        {
          "indexed": false,
          "name": "interval",
          "type": "uint256"
        }
      ],
      "name": "CreatedPeriod",
      "type": "event"
    },
    {
      "anonymous": false,
      "inputs": [
        {
          "indexed": false,
          "name": "period_id",
          "type": "uint256"
        },
        {
          "indexed": false,
          "name": "periodreward",
          "type": "uint256"
        }
      ],
      "name": "IssuedPeriod",
      "type": "event"
    },
    {
      "anonymous": false,
      "inputs": [
        {
          "indexed": true,
          "name": "staker",
          "type": "address"
        },
        {
          "indexed": false,
          "name": "amount",
          "type": "uint256"
        }
      ],
      "name": "NewStake",
      "type": "event"
    },
    {
      "anonymous": false,
      "inputs": [
        {
          "indexed": true,
          "name": "staker",
          "type": "address"
        },
        {
          "indexed": false,
          "name": "stakeidx",
          "type": "uint256"
        }
      ],
      "name": "StakeClaimed",
      "type": "event"
    },
    {
      "anonymous": false,
      "inputs": [
        {
          "indexed": false,
          "name": "diseaseindex",
          "type": "uint256"
        },
        {
          "indexed": false,
          "name": "title",
          "type": "string"
        },
        {
          "indexed": false,
          "name": "description",
          "type": "string"
        }
      ],
      "name": "NewDisease",
      "type": "event"
    },
    {
      "anonymous": false,
      "inputs": [
        {
          "indexed": true,
          "name": "from",
          "type": "address"
        },
        {
          "indexed": true,
          "name": "to",
          "type": "address"
        },
        {
          "indexed": false,
          "name": "tokens",
          "type": "uint256"
        }
      ],
      "name": "Transfer",
      "type": "event"
    },
    {
      "anonymous": false,
      "inputs": [
        {
          "indexed": true,
          "name": "tokenOwner",
          "type": "address"
        },
        {
          "indexed": true,
          "name": "spender",
          "type": "address"
        },
        {
          "indexed": false,
          "name": "tokens",
          "type": "uint256"
        }
      ],
      "name": "Approval",
      "type": "event"
    },
    {
      "anonymous": false,
      "inputs": [
        {
          "indexed": true,
          "name": "from",
          "type": "address"
        },
        {
          "indexed": false,
          "name": "blockreward",
          "type": "uint256"
        },
        {
          "indexed": false,
          "name": "epochCount",
          "type": "uint256"
        },
        {
          "indexed": false,
          "name": "newChallengeNumber",
          "type": "bytes32"
        }
      ],
      "name": "Mint",
      "type": "event"
    },
    {
      "constant": false,
      "inputs": [],
      "name": "newPeriod",
      "outputs": [],
      "payable": false,
      "stateMutability": "nonpayable",
      "type": "function"
    },
    {
      "constant": false,
      "inputs": [
        {
          "name": "_staker",
          "type": "address"
        },
        {
          "name": "_amount",
          "type": "uint256"
        }
      ],
      "name": "eticatobosoms",
      "outputs": [
        {
          "name": "success",
          "type": "bool"
        }
      ],
      "payable": false,
      "stateMutability": "nonpayable",
      "type": "function"
    },
    {
      "constant": false,
      "inputs": [
        {
          "name": "_stakeidx",
          "type": "uint256"
        }
      ],
      "name": "stakeclmidx",
      "outputs": [],
      "payable": false,
      "stateMutability": "nonpayable",
      "type": "function"
    },
    {
      "constant": true,
      "inputs": [
        {
          "name": "_staker",
          "type": "address"
        }
      ],
      "name": "stakescount",
      "outputs": [
        {
          "name": "slength",
          "type": "uint256"
        }
      ],
      "payable": false,
      "stateMutability": "view",
      "type": "function"
    },
    {
      "constant": false,
      "inputs": [
        {
          "name": "_name",
          "type": "string"
        },
        {
          "name": "_description",
          "type": "string"
        }
      ],
      "name": "createdisease",
      "outputs": [],
      "payable": false,
      "stateMutability": "nonpayable",
      "type": "function"
    },
    {
      "constant": true,
      "inputs": [
        {
          "name": "tokenOwner",
          "type": "address"
        }
      ],
      "name": "bosomsOf",
      "outputs": [
        {
          "name": "_bosoms",
          "type": "uint256"
        }
      ],
      "payable": false,
      "stateMutability": "view",
      "type": "function"
    }
  ],
  "bytecode": "0x60806040526040805190810160405280600581526020017f457469636100000000000000000000000000000000000000000000000000000081525060009080519060200190620000519291906200068f565b506040805190810160405280600381526020017f4554490000000000000000000000000000000000000000000000000000000000815250600190805190602001906200009f9291906200068f565b506012600255610400600d5562010000600e557e04000000000000000000000000000000000000000000000000000000000000600f556000601560006101000a81548160ff02191690831515021790555062761783601855602a60195560a8601a556001601b55600254600a0a606402601c5568056bc75e2d631000006003819055506200018d68056bc75e2d63100000600860003073ffffffffffffffffffffffffffffffffffffffff1673ffffffffffffffffffffffffffffffffffffffff16815260200190815260200160002054620002f86401000000000262002bcf179091906401000000009004565b600860003073ffffffffffffffffffffffffffffffffffffffff1673ffffffffffffffffffffffffffffffffffffffff168152602001908152602001600020819055506904772abe6c93ed94622e600581905550600254600a0a62a037a002600a81905550601560009054906101000a900460ff16156200020d57600080fd5b6001601560006101000a81548160ff021916908315150217905550600060178190555068012253ff998b28052d601281905550600f5460108190555043600b819055506200026962000315640100000000026401000000009004565b6d014a713d95c1c369e4c10bb9816860048190555033600660006101000a81548173ffffffffffffffffffffffffffffffffffffffff021916908373ffffffffffffffffffffffffffffffffffffffff1602179055506060604051908101604052806027815260200162003d5b6027913960079080519060200190620002f19291906200068f565b506200073e565b600081830190508281101515156200030f57600080fd5b92915050565b6200033b6001600c54620002f86401000000000262002bcf179091906401000000009004565b600c819055506000600d54600c548115156200035357fe5b06141562000375576200037462000382640100000000026401000000009004565b5b6001430340601181905550565b6000600b54430390506000600d5490506000603c8202905080831015620004b4576000620003eb84620003ce606485620005fa64010000000002620034ef179091906401000000009004565b6200062e6401000000000262002bab179091906401000000009004565b90506000620004376103e86200041a606485620006546401000000000262002c35179091906401000000009004565b620006716401000000000262003520179091906401000000009004565b9050620004a66200048682620004696107d06010546200062e6401000000000262002bab179091906401000000009004565b620005fa64010000000002620034ef179091906401000000009004565b601054620006546401000000000262002c35179091906401000000009004565b6010819055505050620005c0565b6000620004fc82620004df606487620005fa64010000000002620034ef179091906401000000009004565b6200062e6401000000000262002bab179091906401000000009004565b90506000620005486103e86200052b606485620006546401000000000262002c35179091906401000000009004565b620006716401000000000262003520179091906401000000009004565b9050620005b762000597826200057a6107d06010546200062e6401000000000262002bab179091906401000000009004565b620005fa64010000000002620034ef179091906401000000009004565b601054620002f86401000000000262002bcf179091906401000000009004565b60108190555050505b43600b81905550600e546010541015620005de57600e546010819055505b600f546010541115620005f557600f546010819055505b505050565b6000818302905060008314806200061c57508183828115156200061957fe5b04145b15156200062857600080fd5b92915050565b600080821115156200063f57600080fd5b81838115156200064b57fe5b04905092915050565b60008282111515156200066657600080fd5b818303905092915050565b600081831115620006855781905062000689565b8290505b92915050565b828054600181600116156101000203166002900490600052602060002090601f016020900481019282601f10620006d257805160ff191683800117855562000703565b8280016001018555821562000703579182015b8281111562000702578251825591602001919060010190620006e5565b5b50905062000712919062000716565b5090565b6200073b91905b80821115620007375760008160009055506001016200071d565b5090565b90565b61360d806200074e6000396000f3fe60806040526004361061031c576000357c0100000000000000000000000000000000000000000000000000000000900480636fd396d6116101ad578063bf6fc725116100f9578063d74ce8c5116100b2578063ea4a11041161008c578063ea4a1104146112da578063ecd3cb8214611345578063f08a01f814611380578063f8d82683146113e55761031c565b8063d74ce8c5146111ff578063dc6e9cf91461122a578063dd62ed3e146112555761031c565b8063bf6fc7251461107b578063cb9ae707146110ee578063cf70fa4014611119578063d03150c614611144578063d40170d71461116f578063d732b8351461119a5761031c565b80638a769d351161016657806397566aa01161014057806397566aa014610f4f578063a9059cbb14610fb2578063b5ade81b14611025578063b6407769146110505761031c565b80638a769d3514610e695780638ae0368b14610e9457806395d89b4114610ebf5761031c565b80636fd396d614610c9757806370a0823114610cee57806381269a5614610d53578063829965cc14610dc457806387a2a9d614610def5780638885898514610e1a5761031c565b806332e997081161026c57806357084164116102255780635e11544b116101ff5780635e11544b14610b9a5780636de7410c14610bb15780636de9f32b14610c415780636fbbbf1d14610c6c5761031c565b80635708416414610a53578063584b62a114610ab85780635dfa739614610b355761031c565b806332e9970814610829578063366c41a314610854578063410e1b071461087f57806346459b22146108aa5780634d853ee5146109d15780634ef3762814610a285761031c565b806317da485f116102d95780631853f0a8116102b35780631853f0a8146106db57806323b872dd1461070657806327e235e314610799578063313ce567146107fe5761031c565b806317da485f146106285780631801fbe51461065357806318160ddd146106b05761031c565b8063047fc9aa1461032157806306fdde031461034c578063095ea7b3146103dc5780630bd92a731461044f5780631081a47e146105ae578063163aa00d146105fd575b600080fd5b34801561032d57600080fd5b50610336611434565b6040518082815260200191505060405180910390f35b34801561035857600080fd5b5061036161143a565b6040518080602001828103825283818151815260200191508051906020019080838360005b838110156103a1578082015181840152602081019050610386565b50505050905090810190601f1680156103ce5780820380516001836020036101000a031916815260200191505b509250505060405180910390f35b3480156103e857600080fd5b50610435600480360360408110156103ff57600080fd5b81019080803573ffffffffffffffffffffffffffffffffffffffff169060200190929190803590602001909291905050506114d8565b604051808215151515815260200191505060405180910390f35b34801561045b57600080fd5b506105ac6004803603604081101561047257600080fd5b810190808035906020019064010000000081111561048f57600080fd5b8201836020820111156104a157600080fd5b803590602001918460018302840111640100000000831117156104c357600080fd5b91908080601f016020809104026020016040519081016040528093929190818152602001838380828437600081840152601f19601f8201169050808301925050505050505091929192908035906020019064010000000081111561052657600080fd5b82018360208201111561053857600080fd5b8035906020019184600183028401116401000000008311171561055a57600080fd5b91908080601f016020809104026020016040519081016040528093929190818152602001838380828437600081840152601f19601f820116905080830192505050505050509192919290505050611627565b005b3480156105ba57600080fd5b506105e7600480360360208110156105d157600080fd5b8101908080359060200190929190505050611952565b6040518082815260200191505060405180910390f35b34801561060957600080fd5b5061061261196a565b6040518082815260200191505060405180910390f35b34801561063457600080fd5b5061063d611970565b6040518082815260200191505060405180910390f35b34801561065f57600080fd5b506106966004803603604081101561067657600080fd5b81019080803590602001909291908035906020019092919050505061198e565b604051808215151515815260200191505060405180910390f35b3480156106bc57600080fd5b506106c5611c0e565b6040518082815260200191505060405180910390f35b3480156106e757600080fd5b506106f0611c18565b6040518082815260200191505060405180910390f35b34801561071257600080fd5b5061077f6004803603606081101561072957600080fd5b81019080803573ffffffffffffffffffffffffffffffffffffffff169060200190929190803573ffffffffffffffffffffffffffffffffffffffff16906020019092919080359060200190929190505050611c1e565b604051808215151515815260200191505060405180910390f35b3480156107a557600080fd5b506107e8600480360360208110156107bc57600080fd5b81019080803573ffffffffffffffffffffffffffffffffffffffff169060200190929190505050611ec9565b6040518082815260200191505060405180910390f35b34801561080a57600080fd5b50610813611ee1565b6040518082815260200191505060405180910390f35b34801561083557600080fd5b5061083e611ee7565b6040518082815260200191505060405180910390f35b34801561086057600080fd5b50610869611ef1565b6040518082815260200191505060405180910390f35b34801561088b57600080fd5b50610894611ef7565b6040518082815260200191505060405180910390f35b3480156108b657600080fd5b506108e3600480360360208110156108cd57600080fd5b8101908080359060200190929190505050611efd565b604051808481526020018060200180602001838103835285818151815260200191508051906020019080838360005b8381101561092d578082015181840152602081019050610912565b50505050905090810190601f16801561095a5780820380516001836020036101000a031916815260200191505b50838103825284818151815260200191508051906020019080838360005b83811015610993578082015181840152602081019050610978565b50505050905090810190601f1680156109c05780820380516001836020036101000a031916815260200191505b509550505050505060405180910390f35b3480156109dd57600080fd5b506109e6612057565b604051808273ffffffffffffffffffffffffffffffffffffffff1673ffffffffffffffffffffffffffffffffffffffff16815260200191505060405180910390f35b348015610a3457600080fd5b50610a3d61207d565b6040518082815260200191505060405180910390f35b348015610a5f57600080fd5b50610aa260048036036020811015610a7657600080fd5b81019080803573ffffffffffffffffffffffffffffffffffffffff169060200190929190505050612087565b6040518082815260200191505060405180910390f35b348015610ac457600080fd5b50610b1160048036036040811015610adb57600080fd5b81019080803573ffffffffffffffffffffffffffffffffffffffff1690602001909291908035906020019092919050505061209f565b60405180848152602001838152602001828152602001935050505060405180910390f35b348015610b4157600080fd5b50610b8460048036036020811015610b5857600080fd5b81019080803573ffffffffffffffffffffffffffffffffffffffff1690602001909291905050506120d6565b6040518082815260200191505060405180910390f35b348015610ba657600080fd5b50610baf61211f565b005b348015610bbd57600080fd5b50610bc6612269565b6040518080602001828103825283818151815260200191508051906020019080838360005b83811015610c06578082015181840152602081019050610beb565b50505050905090810190601f168015610c335780820380516001836020036101000a031916815260200191505b509250505060405180910390f35b348015610c4d57600080fd5b50610c56612307565b6040518082815260200191505060405180910390f35b348015610c7857600080fd5b50610c8161230d565b6040518082815260200191505060405180910390f35b348015610ca357600080fd5b50610cac612313565b604051808273ffffffffffffffffffffffffffffffffffffffff1673ffffffffffffffffffffffffffffffffffffffff16815260200191505060405180910390f35b348015610cfa57600080fd5b50610d3d60048036036020811015610d1157600080fd5b81019080803573ffffffffffffffffffffffffffffffffffffffff169060200190929190505050612339565b6040518082815260200191505060405180910390f35b348015610d5f57600080fd5b50610daa60048036036080811015610d7657600080fd5b8101908080359060200190929190803590602001909291908035906020019092919080359060200190929190505050612382565b604051808215151515815260200191505060405180910390f35b348015610dd057600080fd5b50610dd9612418565b6040518082815260200191505060405180910390f35b348015610dfb57600080fd5b50610e0461241e565b6040518082815260200191505060405180910390f35b348015610e2657600080fd5b50610e5360048036036020811015610e3d57600080fd5b8101908080359060200190929190505050612424565b6040518082815260200191505060405180910390f35b348015610e7557600080fd5b50610e7e61243c565b6040518082815260200191505060405180910390f35b348015610ea057600080fd5b50610ea9612442565b6040518082815260200191505060405180910390f35b348015610ecb57600080fd5b50610ed4612448565b6040518080602001828103825283818151815260200191508051906020019080838360005b83811015610f14578082015181840152602081019050610ef9565b50505050905090810190601f168015610f415780820380516001836020036101000a031916815260200191505b509250505060405180910390f35b348015610f5b57600080fd5b50610f9c60048036036060811015610f7257600080fd5b810190808035906020019092919080359060200190929190803590602001909291905050506124e6565b6040518082815260200191505060405180910390f35b348015610fbe57600080fd5b5061100b60048036036040811015610fd557600080fd5b81019080803573ffffffffffffffffffffffffffffffffffffffff16906020019092919080359060200190929190505050612568565b604051808215151515815260200191505060405180910390f35b34801561103157600080fd5b5061103a612711565b6040518082815260200191505060405180910390f35b34801561105c57600080fd5b50611065612717565b6040518082815260200191505060405180910390f35b34801561108757600080fd5b506110d46004803603604081101561109e57600080fd5b81019080803573ffffffffffffffffffffffffffffffffffffffff1690602001909291908035906020019092919050505061271d565b604051808215151515815260200191505060405180910390f35b3480156110fa57600080fd5b50611103612787565b6040518082815260200191505060405180910390f35b34801561112557600080fd5b5061112e61278d565b6040518082815260200191505060405180910390f35b34801561115057600080fd5b50611159612793565b6040518082815260200191505060405180910390f35b34801561117b57600080fd5b50611184612799565b6040518082815260200191505060405180910390f35b3480156111a657600080fd5b506111e9600480360360208110156111bd57600080fd5b81019080803573ffffffffffffffffffffffffffffffffffffffff16906020019092919050505061279f565b6040518082815260200191505060405180910390f35b34801561120b57600080fd5b506112146127b7565b6040518082815260200191505060405180910390f35b34801561123657600080fd5b5061123f6127bd565b6040518082815260200191505060405180910390f35b34801561126157600080fd5b506112c46004803603604081101561127857600080fd5b81019080803573ffffffffffffffffffffffffffffffffffffffff169060200190929190803573ffffffffffffffffffffffffffffffffffffffff1690602001909291905050506127c3565b6040518082815260200191505060405180910390f35b3480156112e657600080fd5b50611313600480360360208110156112fd57600080fd5b810190808035906020019092919050505061284a565b604051808681526020018581526020018481526020018381526020018281526020019550505050505060405180910390f35b34801561135157600080fd5b5061137e6004803603602081101561136857600080fd5b8101908080359060200190929190505050612880565b005b34801561138c57600080fd5b506113cf600480360360208110156113a357600080fd5b81019080803573ffffffffffffffffffffffffffffffffffffffff169060200190929190505050612b4a565b6040518082815260200191505060405180910390f35b3480156113f157600080fd5b5061141e6004803603602081101561140857600080fd5b8101908080359060200190929190505050612b93565b6040518082815260200191505060405180910390f35b60035481565b60008054600181600116156101000203166002900480601f0160208091040260200160405190810160405280929190818152602001828054600181600116156101000203166002900480156114d05780601f106114a5576101008083540402835291602001916114d0565b820191906000526020600020905b8154815290600101906020018083116114b357829003601f168201915b505050505081565b600081600860003373ffffffffffffffffffffffffffffffffffffffff1673ffffffffffffffffffffffffffffffffffffffff168152602001908152602001600020541015151561152857600080fd5b60008211151561153757600080fd5b81600960003373ffffffffffffffffffffffffffffffffffffffff1673ffffffffffffffffffffffffffffffffffffffff16815260200190815260200160002060008573ffffffffffffffffffffffffffffffffffffffff1673ffffffffffffffffffffffffffffffffffffffff168152602001908152602001600020819055508273ffffffffffffffffffffffffffffffffffffffff163373ffffffffffffffffffffffffffffffffffffffff167f8c5be1e5ebec7d5bd14f71427d1e84f3dd0314c0f7b2291e5b200ac8c7c3b925846040518082815260200191505060405180910390a36001905092915050565b601c54600860003373ffffffffffffffffffffffffffffffffffffffff1673ffffffffffffffffffffffffffffffffffffffff168152602001908152602001600020541015151561167757600080fd5b61168330601c54612568565b5060006002836040516020018082805190602001908083835b6020831015156116c1578051825260208201915060208101905060208303925061169c565b6001836020036101000a0380198251168184511680821785525050505050509050019150506040516020818303038152906040526040518082805190602001908083835b60208310151561172a5780518252602082019150602081019050602083039250611705565b6001836020036101000a038019825116818451168082178552505050505050905001915050602060405180830381855afa15801561176c573d6000803e3d6000fd5b5050506040513d602081101561178157600080fd5b81019080805190602001909291905050509050600160245401602481905550600060256000838152602001908152602001600020541415156117c257600080fd5b6060604051908101604052808281526020018481526020018381525060236000602454815260200190815260200160002060008201518160000155602082015181600101908051906020019061181992919061353c565b50604082015181600201908051906020019061183692919061353c565b509050507f93c49c8e82ac37419e0bd454c617e7bc2735fb664182ddb06a31ae693c854e1f6024548484604051808481526020018060200180602001838103835285818151815260200191508051906020019080838360005b838110156118aa57808201518184015260208101905061188f565b50505050905090810190601f1680156118d75780820380516001836020036101000a031916815260200191505b50838103825284818151815260200191508051906020019080838360005b838110156119105780820151818401526020810190506118f5565b50505050905090810190601f16801561193d5780820380516001836020036101000a031916815260200191505b509550505050505060405180910390a1505050565b60256020528060005260406000206000915090505481565b60145481565b6000611989601054600f54612bab90919063ffffffff16565b905090565b6000806011543385604051602001808481526020018373ffffffffffffffffffffffffffffffffffffffff1673ffffffffffffffffffffffffffffffffffffffff166c0100000000000000000000000002815260140182815260200193505050506040516020818303038152906040528051906020012090508281141515611a1557600080fd5b60105481600190041115611a2857600080fd5b60006016600060115481526020019081526020016000205490508160166000601154815260200190815260200160002081905550600060010281141515611a6e57600080fd5b600a54601754101515611a7d57fe5b611a94601254601754612bcf90919063ffffffff16565b601781905550611ab1601254600354612bcf90919063ffffffff16565b600381905550611b0b601254600860003373ffffffffffffffffffffffffffffffffffffffff1673ffffffffffffffffffffffffffffffffffffffff16815260200190815260200160002054612bcf90919063ffffffff16565b600860003373ffffffffffffffffffffffffffffffffffffffff1673ffffffffffffffffffffffffffffffffffffffff1681526020019081526020016000208190555033601360006101000a81548173ffffffffffffffffffffffffffffffffffffffff021916908373ffffffffffffffffffffffffffffffffffffffff16021790555043601481905550611b9e612beb565b3373ffffffffffffffffffffffffffffffffffffffff167fcf6fbb9dcea7d07263ab4f5c3a92f53af33dffc421d9d121e1c74b307e68189d601254600c5460115460405180848152602001838152602001828152602001935050505060405180910390a260019250505092915050565b6000600354905090565b60225481565b6000611c7282600860008773ffffffffffffffffffffffffffffffffffffffff1673ffffffffffffffffffffffffffffffffffffffff16815260200190815260200160002054612c3590919063ffffffff16565b600860008673ffffffffffffffffffffffffffffffffffffffff1673ffffffffffffffffffffffffffffffffffffffff16815260200190815260200160002081905550611d4482600960008773ffffffffffffffffffffffffffffffffffffffff1673ffffffffffffffffffffffffffffffffffffffff16815260200190815260200160002060003373ffffffffffffffffffffffffffffffffffffffff1673ffffffffffffffffffffffffffffffffffffffff16815260200190815260200160002054612c3590919063ffffffff16565b600960008673ffffffffffffffffffffffffffffffffffffffff1673ffffffffffffffffffffffffffffffffffffffff16815260200190815260200160002060003373ffffffffffffffffffffffffffffffffffffffff1673ffffffffffffffffffffffffffffffffffffffff16815260200190815260200160002081905550611e1682600860008673ffffffffffffffffffffffffffffffffffffffff1673ffffffffffffffffffffffffffffffffffffffff16815260200190815260200160002054612bcf90919063ffffffff16565b600860008573ffffffffffffffffffffffffffffffffffffffff1673ffffffffffffffffffffffffffffffffffffffff168152602001908152602001600020819055508273ffffffffffffffffffffffffffffffffffffffff168473ffffffffffffffffffffffffffffffffffffffff167fddf252ad1be2c89b69c2b068fc378daa952ba7f163c4a11628f55a4df523b3ef846040518082815260200191505060405180910390a3600190509392505050565b60086020528060005260406000206000915090505481565b60025481565b6000601054905090565b601c5481565b600a5481565b6023602052806000526040600020600091509050806000015490806001018054600181600116156101000203166002900480601f016020809104026020016040519081016040528092919081815260200182805460018160011615610100020316600290048015611faf5780601f10611f8457610100808354040283529160200191611faf565b820191906000526020600020905b815481529060010190602001808311611f9257829003601f168201915b505050505090806002018054600181600116156101000203166002900480601f01602080910402602001604051908101604052809291908181526020018280546001816001161561010002031660029004801561204d5780601f106120225761010080835404028352916020019161204d565b820191906000526020600020905b81548152906001019060200180831161203057829003601f168201915b5050505050905083565b600660009054906101000a900473ffffffffffffffffffffffffffffffffffffffff1681565b6000601154905090565b60276020528060005260406000206000915090505481565b6028602052816000526040600020602052806000526040600020600091509150508060000154908060010154908060020154905083565b6000602960008373ffffffffffffffffffffffffffffffffffffffff1673ffffffffffffffffffffffffffffffffffffffff168152602001908152602001600020549050919050565b600061213a6019546018544301612bab90919063ffffffff16565b905060006021600083815260200190815260200160002054905060008114151561216357600080fd5b601e6000815480929190600101919050555060a060405190810160405280601e54815260200183815260200160008152602001600081526020016000815250601d6000601e5481526020019081526020016000206000820151816000015560208201518160010155604082015181600201556060820151816003015560808201518160040155905050601e546021600084815260200190815260200160002081905550602260008154809291906001019190505550612223601e54612c51565b507ff74223d764da704d974281758065d2eb6c9066dc940e3f549b72e894b0404aef601e5483604051808381526020018281526020019250505060405180910390a15050565b60078054600181600116156101000203166002900480601f0160208091040260200160405190810160405280929190818152602001828054600181600116156101000203166002900480156122ff5780601f106122d4576101008083540402835291602001916122ff565b820191906000526020600020905b8154815290600101906020018083116122e257829003601f168201915b505050505081565b60175481565b60245481565b601360009054906101000a900473ffffffffffffffffffffffffffffffffffffffff1681565b6000600860008373ffffffffffffffffffffffffffffffffffffffff1673ffffffffffffffffffffffffffffffffffffffff168152602001908152602001600020549050919050565b600080833387604051602001808481526020018373ffffffffffffffffffffffffffffffffffffffff1673ffffffffffffffffffffffffffffffffffffffff166c010000000000000000000000000281526014018281526020019350505050604051602081830303815290604052805190602001209050828160019004111561240a57600080fd5b848114915050949350505050565b600c5481565b600f5481565b60216020528060005260406000206000915090505481565b60105481565b60115481565b60018054600181600116156101000203166002900480601f0160208091040260200160405190810160405280929190818152602001828054600181600116156101000203166002900480156124de5780601f106124b3576101008083540402835291602001916124de565b820191906000526020600020905b8154815290600101906020018083116124c157829003601f168201915b505050505081565b600080823386604051602001808481526020018373ffffffffffffffffffffffffffffffffffffffff1673ffffffffffffffffffffffffffffffffffffffff166c010000000000000000000000000281526014018281526020019350505050604051602081830303815290604052805190602001209050809150509392505050565b6000808211151561257857600080fd5b6125ca82600860003373ffffffffffffffffffffffffffffffffffffffff1673ffffffffffffffffffffffffffffffffffffffff16815260200190815260200160002054612c3590919063ffffffff16565b600860003373ffffffffffffffffffffffffffffffffffffffff1673ffffffffffffffffffffffffffffffffffffffff1681526020019081526020016000208190555061265f82600860008673ffffffffffffffffffffffffffffffffffffffff1673ffffffffffffffffffffffffffffffffffffffff16815260200190815260200160002054612bcf90919063ffffffff16565b600860008573ffffffffffffffffffffffffffffffffffffffff1673ffffffffffffffffffffffffffffffffffffffff168152602001908152602001600020819055508273ffffffffffffffffffffffffffffffffffffffff163373ffffffffffffffffffffffffffffffffffffffff167fddf252ad1be2c89b69c2b068fc378daa952ba7f163c4a11628f55a4df523b3ef846040518082815260200191505060405180910390a36001905092915050565b600d5481565b60045481565b60008273ffffffffffffffffffffffffffffffffffffffff163373ffffffffffffffffffffffffffffffffffffffff1614151561275957600080fd5b60008211151561276857600080fd5b6127723083612568565b5061277d8383612e36565b6001905092915050565b600b5481565b60125481565b60205481565b60055481565b60296020528060005260406000206000915090505481565b601e5481565b600e5481565b6000600960008473ffffffffffffffffffffffffffffffffffffffff1673ffffffffffffffffffffffffffffffffffffffff16815260200190815260200160002060008373ffffffffffffffffffffffffffffffffffffffff1673ffffffffffffffffffffffffffffffffffffffff16815260200190815260200160002054905092915050565b601d6020528060005260406000206000915090508060000154908060010154908060020154908060030154908060040154905085565b6000811180156128cf5750602960003373ffffffffffffffffffffffffffffffffffffffff1673ffffffffffffffffffffffffffffffffffffffff168152602001908152602001600020548111155b15156128da57600080fd5b6000602860003373ffffffffffffffffffffffffffffffffffffffff1673ffffffffffffffffffffffffffffffffffffffff1681526020019081526020016000206000838152602001908152602001600020905080600201544311151561294057600080fd5b6000816000015411151561295357600080fd5b6129a98160000154600860003073ffffffffffffffffffffffffffffffffffffffff1673ffffffffffffffffffffffffffffffffffffffff16815260200190815260200160002054612c3590919063ffffffff16565b600860003073ffffffffffffffffffffffffffffffffffffffff1673ffffffffffffffffffffffffffffffffffffffff16815260200190815260200160002081905550612a428160000154600860003373ffffffffffffffffffffffffffffffffffffffff1673ffffffffffffffffffffffffffffffffffffffff16815260200190815260200160002054612bcf90919063ffffffff16565b600860003373ffffffffffffffffffffffffffffffffffffffff1673ffffffffffffffffffffffffffffffffffffffff168152602001908152602001600020819055503373ffffffffffffffffffffffffffffffffffffffff163073ffffffffffffffffffffffffffffffffffffffff167fddf252ad1be2c89b69c2b068fc378daa952ba7f163c4a11628f55a4df523b3ef83600001546040518082815260200191505060405180910390a33373ffffffffffffffffffffffffffffffffffffffff167f2aeea59856f5616c244717fd488ead1d1b5fd33608d9583a4607b4c4ba3631e4836040518082815260200191505060405180910390a2612b463383612ee4565b5050565b6000602760008373ffffffffffffffffffffffffffffffffffffffff1673ffffffffffffffffffffffffffffffffffffffff168152602001908152602001600020549050919050565b601f6020528060005260406000206000915090505481565b60008082111515612bbb57600080fd5b8183811515612bc657fe5b04905092915050565b60008183019050828110151515612be557600080fd5b92915050565b612c016001600c54612bcf90919063ffffffff16565b600c819055506000600d54600c54811515612c1857fe5b061415612c2857612c27613197565b5b6001430340601181905550565b6000828211151515612c4657600080fd5b818303905092915050565b600080601e54111515612c6357600080fd5b600082118015612c755750601e548211155b1515612c8057600080fd5b6000601d600084815260200190815260200160002090506000816000015414151515612cab57600080fd5b6000601f600083600001548152602001908152602001600020549050600081141515612cd657600080fd5b6000600254600a0a6301406f4002600354101515612d1b5760006d314dc6448d9338c15b0a00000000600454811515612d0b57fe5b0490508060035402915050612d21565b60055490505b8060035401600381905550612d7e81600860003073ffffffffffffffffffffffffffffffffffffffff1673ffffffffffffffffffffffffffffffffffffffff16815260200190815260200160002054612bcf90919063ffffffff16565b600860003073ffffffffffffffffffffffffffffffffffffffff1673ffffffffffffffffffffffffffffffffffffffff1681526020019081526020016000208190555080601f600085600001548152602001908152602001600020819055506001602054016020819055507fc4d2a0744d2542d38943e09effa7977cb89527fce223d12bf02ff6de50526b92601e5482604051808381526020018281526020019250505060405180910390a160019350505050919050565b612e40828261332b565b506000601b5482029050612e9c81602760008673ffffffffffffffffffffffffffffffffffffffff1673ffffffffffffffffffffffffffffffffffffffff16815260200190815260200160002054612bcf90919063ffffffff16565b602760008573ffffffffffffffffffffffffffffffffffffffff1673ffffffffffffffffffffffffffffffffffffffff16815260200190815260200160002081905550505050565b600081118015612f335750602960008373ffffffffffffffffffffffffffffffffffffffff1673ffffffffffffffffffffffffffffffffffffffff168152602001908152602001600020548111155b1515612f3e57600080fd5b602860008373ffffffffffffffffffffffffffffffffffffffff1673ffffffffffffffffffffffffffffffffffffffff1681526020019081526020016000206000602960008573ffffffffffffffffffffffffffffffffffffffff1673ffffffffffffffffffffffffffffffffffffffff168152602001908152602001600020548152602001908152602001600020602860008473ffffffffffffffffffffffffffffffffffffffff1673ffffffffffffffffffffffffffffffffffffffff168152602001908152602001600020600083815260200190815260200160002060008201548160000155600182015481600101556002820154816002015590505060606040519081016040528060008152602001600081526020016000815250602860008473ffffffffffffffffffffffffffffffffffffffff1673ffffffffffffffffffffffffffffffffffffffff1681526020019081526020016000206000602960008673ffffffffffffffffffffffffffffffffffffffff1673ffffffffffffffffffffffffffffffffffffffff1681526020019081526020016000205481526020019081526020016000206000820151816000015560208201518160010155604082015181600201559050506001602960008473ffffffffffffffffffffffffffffffffffffffff1673ffffffffffffffffffffffffffffffffffffffff1681526020019081526020016000205403602960008473ffffffffffffffffffffffffffffffffffffffff1673ffffffffffffffffffffffffffffffffffffffff168152602001908152602001600020819055505050565b6000600b54430390506000600d5490506000603c82029050808310156132575760006131df846131d16064856134ef90919063ffffffff16565b612bab90919063ffffffff16565b9050600061320b6103e86131fd606485612c3590919063ffffffff16565b61352090919063ffffffff16565b905061324a6132398261322b6107d0601054612bab90919063ffffffff16565b6134ef90919063ffffffff16565b601054612c3590919063ffffffff16565b60108190555050506132f3565b600061327f826132716064876134ef90919063ffffffff16565b612bab90919063ffffffff16565b905060006132ab6103e861329d606485612c3590919063ffffffff16565b61352090919063ffffffff16565b90506132ea6132d9826132cb6107d0601054612bab90919063ffffffff16565b6134ef90919063ffffffff16565b601054612bcf90919063ffffffff16565b60108190555050505b43600b81905550600e54601054101561331057600e546010819055505b600f54601054111561332657600f546010819055505b505050565b6000808211151561333b57600080fd5b6001602960008573ffffffffffffffffffffffffffffffffffffffff1673ffffffffffffffffffffffffffffffffffffffff1681526020019081526020016000205401602960008573ffffffffffffffffffffffffffffffffffffffff1673ffffffffffffffffffffffffffffffffffffffff168152602001908152602001600020819055506000601a544301905060606040519081016040528084815260200143815260200182815250602860008673ffffffffffffffffffffffffffffffffffffffff1673ffffffffffffffffffffffffffffffffffffffff1681526020019081526020016000206000602960008873ffffffffffffffffffffffffffffffffffffffff1673ffffffffffffffffffffffffffffffffffffffff1681526020019081526020016000205481526020019081526020016000206000820151816000015560208201518160010155604082015181600201559050508373ffffffffffffffffffffffffffffffffffffffff167f42e99fbad9601d25ee3bb515eeee966f97c3c383adadbe5720f651df8c18989d846040518082815260200191505060405180910390a2600191505092915050565b60008183029050600083148061350f575081838281151561350c57fe5b04145b151561351a57600080fd5b92915050565b60008183111561353257819050613536565b8290505b92915050565b828054600181600116156101000203166002900490600052602060002090601f016020900481019282601f1061357d57805160ff19168380011785556135ab565b828001600101855582156135ab579182015b828111156135aa57825182559160200191906001019061358f565b5b5090506135b891906135bc565b5090565b6135de91905b808211156135da5760008160009055506001016135c2565b5090565b9056fea165627a7a723058200f0e5043ce009f16d08843a66cac4cdb38bf88762cd7853fe644d3773e8d889a0029446973636f766572696e67206f7572206265737420467574757265732e204b6576696e20576164",
  "source": "pragma solidity ^0.5.2;\r\n// ----------------------------------------------------------------------------\r\n//this ICO smart contract has been compiled and tested with the Solidity Version 0.5.2\r\n//There are some minor changes comparing to ICO contract compiled with versions < 0.5.0\r\n// ----------------------------------------------------------------------------\r\n\r\n\r\n// ----------------------------------------------------------------------------\r\n\r\n// Safe maths\r\n\r\n// ----------------------------------------------------------------------------\r\n\r\nlibrary SafeMath {\r\n\r\n    function add(uint a, uint b) internal pure returns (uint c) {\r\n\r\n        c = a + b;\r\n\r\n        require(c >= a);\r\n\r\n    }\r\n\r\n    function sub(uint a, uint b) internal pure returns (uint c) {\r\n\r\n        require(b <= a);\r\n\r\n        c = a - b;\r\n\r\n    }\r\n\r\n    function mul(uint a, uint b) internal pure returns (uint c) {\r\n\r\n        c = a * b;\r\n\r\n        require(a == 0 || c / a == b);\r\n\r\n    }\r\n\r\n    function div(uint a, uint b) internal pure returns (uint c) {\r\n\r\n        require(b > 0);\r\n\r\n        c = a / b;\r\n\r\n    }\r\n\r\n}\r\n\r\n\r\n\r\nlibrary ExtendedMath {\r\n\r\n\r\n    //return the smaller of the two inputs (a or b)\r\n    function limitLessThan(uint a, uint b) internal pure returns (uint c) {\r\n\r\n        if(a > b) return b;\r\n\r\n        return a;\r\n\r\n    }\r\n}\r\n\r\n\r\n\r\ncontract ERC20Interface {\r\n    function totalSupply() public view returns (uint);\r\n    function balanceOf(address tokenOwner) public view returns (uint balance);\r\n    function transfer(address to, uint tokens) public returns (bool success);\r\n\r\n\r\n    function allowance(address tokenOwner, address spender) public view returns (uint remaining);\r\n    function approve(address spender, uint tokens) public returns (bool success);\r\n    function transferFrom(address from, address to, uint tokens) public returns (bool success);\r\n\r\n    event Transfer(address indexed from, address indexed to, uint tokens);\r\n    event Approval(address indexed tokenOwner, address indexed spender, uint tokens);\r\n}\r\n\r\n\r\n\r\ncontract EticaToken is ERC20Interface{\r\n\r\n    using SafeMath for uint;\r\n    using ExtendedMath for uint;\r\n\r\n    string public name = \"Etica\";\r\n    string public symbol = \"ETI\";\r\n    uint public decimals = 18;\r\n\r\n    uint public supply;\r\n    // fixed inflation rate after etica supply has reached 21 Million\r\n    uint public inflationrate;\r\n    uint public  periodrewardtemp; // Amount of ETI issued per period during phase1\r\n\r\n    // We don't want fake Satoshi again. Using it to prove founder's identity\r\n    address public founder;\r\n    string public foundermsgproof;\r\n\r\n    mapping(address => uint) public balances;\r\n\r\n    mapping(address => mapping(address => uint)) allowed;\r\n\r\n    //allowed[0x1111....][0x22222...] = 100;\r\n\r\n    // Mining system state variables\r\n    uint public _totalMiningSupply;\r\n\r\n\r\n\r\n     uint public latestDifficultyPeriodStarted;\r\n\r\n\r\n\r\n    uint public epochCount;//number of 'blocks' mined\r\n\r\n\r\n    uint public _BLOCKS_PER_READJUSTMENT = 1024;\r\n\r\n\r\n    //a little number\r\n    uint public  _MINIMUM_TARGET = 2**16;\r\n\r\n\r\n      //a big number is easier ; just find a solution that is smaller\r\n    //uint public  _MAXIMUM_TARGET = 2**224;  bitcoin uses 224\r\n    uint public  _MAXIMUM_TARGET = 2**242; // used for tests 243 much faster, 242 seems to be the limit where mining gets much harder\r\n    // uint public  _MAXIMUM_TARGET = 2**234; // used for prod\r\n\r\n\r\n    uint public miningTarget;\r\n\r\n    bytes32 public challengeNumber;   //generate a new one when a new reward is minted\r\n\r\n\r\n    uint public blockreward;\r\n\r\n\r\n    address public lastRewardTo;\r\n    uint public lastRewardEthBlockNumber;\r\n\r\n    bool locked = false;\r\n\r\n    mapping(bytes32 => bytes32) solutionForChallenge;\r\n\r\n    uint public tokensMinted;\r\n\r\n    // Mining system state variables\r\n\r\n\r\n\r\n\r\n    event Transfer(address indexed from, address indexed to, uint tokens);\r\n    event Approval(address indexed tokenOwner, address indexed spender, uint tokens);\r\n    event Mint(address indexed from, uint blockreward, uint epochCount, bytes32 newChallengeNumber);\r\n\r\n\r\n    constructor() public{\r\n      supply = 100 * (10**18); // initial supply equals 100 ETI\r\n      balances[address(this)] = balances[address(this)].add(100 * (10**18)); // 100 ETI as the default contract balance. To avoid any issue that could arise from negative contract balance because of significant numbers approximations\r\n\r\n\r\n      // PHASE 1 (before 21 Million ETI has been reached) -->\r\n      // 10 500 000 ETI to be issued as periodrewardtemp for ETICA reward system\r\n      // 10 500 000 ETI to be MINED\r\n\r\n\r\n      // <--phase1--> periodrewardtemp:\r\n      // fixed Etica issued per period (7 days) during phase1 (before 21 Million ETI has been reached)\r\n      // The amount of reward will be twice of first rewards of phase 2\r\n      // Calculation of first rewards of phase 2:\r\n      // 21 000 000 * 0.26180339887498948482045868343656 = 549787,13763747791812296323521678 ETI (first year reward)\r\n      // 549787,13763747791812296323521678 / 52.1429 = 10543,854247413893706007207792754 ETI (first weeks reward of phase2)\r\n      // 10543,854247413893706007207792754 * 2 = 21087,708494827787412014415585507 ETI\r\n      periodrewardtemp = 21087708494827787412014; // 21087,708494827787412014415585507 ETI per period (7 days) will take about 9,5491502812526287948853291408588 years to reach 10 500 000 ETI\r\n\r\n\r\n      // <--phase1--> mining:\r\n      _totalMiningSupply = 10500000 * 10**uint(decimals);\r\n\r\n      if(locked) revert();\r\n      locked = true;\r\n\r\n      tokensMinted = 0;\r\n\r\n\r\n      // The amount of etica mined per 7 days will be twice of first rewards of phase 2\r\n      // Calculation of first rewards of phase 2:\r\n      // 21 000 000 * 0.26180339887498948482045868343656 = 549787,13763747791812296323521678 ETI (first year reward)\r\n      // 549787,13763747791812296323521678 / 52.1429 = 10543,854247413893706007207792754 ETI (first weeks reward of phase2)\r\n      // 10543,854247413893706007207792754 * 2 = 21087,708494827787412014415585507 ETI per 7 days\r\n      // 21087,708494827787412014415585507 ETI per 7 days = 20,920345728995820845252396414193 ETI per block (10 minutes)\r\n      blockreward = 20920345728995820845;\r\n\r\n      miningTarget = _MAXIMUM_TARGET;\r\n\r\n      latestDifficultyPeriodStarted = block.number;\r\n\r\n      _startNewMiningEpoch();\r\n\r\n      // PHASE 1 <--\r\n\r\n      // --> PHASE 2\r\n      // Golden number power 2: 1,6180339887498948482045868343656 * 1,6180339887498948482045868343656 = 2.6180339887498948482045868343656;\r\n      inflationrate = 26180339887498948482045868343656; // (need to multiple by 10^(-33) to get 0.026180339887498948482045868343656);\r\n\r\n       // PHASE 2 <--\r\n\r\n\r\n       //The founder gets nothing! You must mine or earn the Etica ERC20 token\r\n       //balances[founder] = _totalMiningSupply;\r\n       //Transfer(address(0), founder, _totalMiningSupply);\r\n      founder = msg.sender;\r\n      foundermsgproof = \"Discovering our best Futures. Kevin Wad\";\r\n    }\r\n\r\n\r\n    function allowance(address tokenOwner, address spender) view public returns(uint){\r\n        return allowed[tokenOwner][spender];\r\n    }\r\n\r\n\r\n    //approve allowance\r\n    function approve(address spender, uint tokens) public returns(bool){\r\n        require(balances[msg.sender] >= tokens);\r\n        require(tokens > 0);\r\n\r\n        allowed[msg.sender][spender] = tokens;\r\n        emit Approval(msg.sender, spender, tokens);\r\n        return true;\r\n    }\r\n\r\n    //transfer tokens from the  owner account to the account that calls the function\r\n    function transferFrom(address from, address to, uint tokens) public returns(bool){\r\n\r\n      balances[from] = balances[from].sub(tokens);\r\n\r\n      allowed[from][msg.sender] = allowed[from][msg.sender].sub(tokens);\r\n\r\n      balances[to] = balances[to].add(tokens);\r\n\r\n      emit Transfer(from, to, tokens);\r\n\r\n      return true;\r\n    }\r\n\r\n    function totalSupply() public view returns (uint){\r\n        return supply;\r\n    }\r\n\r\n    function balanceOf(address tokenOwner) public view returns (uint balance){\r\n         return balances[tokenOwner];\r\n     }\r\n\r\n\r\n    function transfer(address to, uint tokens) public returns (bool success){\r\n         require(tokens > 0);\r\n\r\n         balances[msg.sender] = balances[msg.sender].sub(tokens);\r\n\r\n         balances[to] = balances[to].add(tokens);\r\n\r\n         emit Transfer(msg.sender, to, tokens);\r\n\r\n         return true;\r\n     }\r\n\r\n\r\n     // -------------  Mining system functions ---------------- //\r\n\r\n         function mint(uint256 nonce, bytes32 challenge_digest) public returns (bool success) {\r\n\r\n\r\n             //the PoW must contain work that includes a recent ethereum block hash (challenge number) and the msg.sender's address to prevent MITM attacks\r\n             bytes32 digest =  keccak256(abi.encodePacked(challengeNumber, msg.sender, nonce));\r\n\r\n             //the challenge digest must match the expected\r\n             if (digest != challenge_digest) revert();\r\n\r\n             //the digest must be smaller than the target\r\n             if(uint256(digest) > miningTarget) revert();\r\n\r\n\r\n             //only allow one reward for each challenge\r\n              bytes32 solution = solutionForChallenge[challengeNumber];\r\n              solutionForChallenge[challengeNumber] = digest;\r\n              if(solution != 0x0) revert();  //prevent the same answer from awarding twice\r\n\r\n\r\n             //Cannot mint more tokens than there are: maximum ETI ever mined: _totalMiningSupply + blockreward\r\n             assert(tokensMinted < _totalMiningSupply);\r\n\r\n             tokensMinted = tokensMinted.add(blockreward);\r\n             supply = supply.add(blockreward);\r\n             balances[msg.sender] = balances[msg.sender].add(blockreward);\r\n\r\n             //set readonly diagnostics data\r\n             lastRewardTo = msg.sender;\r\n             lastRewardEthBlockNumber = block.number;\r\n\r\n\r\n              _startNewMiningEpoch();\r\n\r\n               emit Mint(msg.sender, blockreward, epochCount, challengeNumber );\r\n\r\n            return true;\r\n\r\n         }\r\n\r\n\r\n     //a new 'block' to be mined\r\n     function _startNewMiningEpoch() internal {\r\n\r\n\r\n       epochCount = epochCount.add(1);\r\n\r\n       //every so often, readjust difficulty. Dont readjust when deploying\r\n       if(epochCount % _BLOCKS_PER_READJUSTMENT == 0)\r\n       {\r\n         _reAdjustDifficulty();\r\n       }\r\n\r\n\r\n       //make the latest ethereum block hash a part of the next challenge for PoW to prevent pre-mining future blocks\r\n       //do this last since this is a protection mechanism in the mint() function\r\n       challengeNumber = blockhash(block.number - 1);\r\n\r\n     }\r\n\r\n\r\n\r\n\r\n     //https://en.bitcoin.it/wiki/Difficulty#What_is_the_formula_for_difficulty.3F\r\n     //as of 2017 the bitcoin difficulty was up to 17 zeroes, it was only 8 in the early days\r\n\r\n     //readjust the target by 5 percent\r\n     function _reAdjustDifficulty() internal {\r\n\r\n\r\n         uint ethBlocksSinceLastDifficultyPeriod = block.number - latestDifficultyPeriodStarted;\r\n         //assume 360 ethereum blocks per hour\r\n\r\n         //we want miners to spend 10 minutes to mine each 'block', about 60 ethereum blocks = one Mining system epoch\r\n         uint epochsMined = _BLOCKS_PER_READJUSTMENT; //256\r\n\r\n         uint targetEthBlocksPerDiffPeriod = epochsMined * 60; //should be 60 times slower than ethereum\r\n\r\n         //if there were less eth blocks passed in time than expected\r\n         if( ethBlocksSinceLastDifficultyPeriod < targetEthBlocksPerDiffPeriod )\r\n         {\r\n           uint excess_block_pct = (targetEthBlocksPerDiffPeriod.mul(100)).div( ethBlocksSinceLastDifficultyPeriod );\r\n\r\n           uint excess_block_pct_extra = excess_block_pct.sub(100).limitLessThan(1000);\r\n           // If there were 5% more blocks mined than expected then this is 5.  If there were 100% more blocks mined than expected then this is 100.\r\n\r\n           //make it harder\r\n           miningTarget = miningTarget.sub(miningTarget.div(2000).mul(excess_block_pct_extra));   //by up to 50 %\r\n         }else{\r\n           uint shortage_block_pct = (ethBlocksSinceLastDifficultyPeriod.mul(100)).div( targetEthBlocksPerDiffPeriod );\r\n\r\n           uint shortage_block_pct_extra = shortage_block_pct.sub(100).limitLessThan(1000); //always between 0 and 1000\r\n\r\n           //make it easier\r\n           miningTarget = miningTarget.add(miningTarget.div(2000).mul(shortage_block_pct_extra));   //by up to 50 %\r\n         }\r\n\r\n\r\n\r\n         latestDifficultyPeriodStarted = block.number;\r\n\r\n         if(miningTarget < _MINIMUM_TARGET) //very difficult\r\n         {\r\n           miningTarget = _MINIMUM_TARGET;\r\n         }\r\n\r\n         if(miningTarget > _MAXIMUM_TARGET) //very easy\r\n         {\r\n           miningTarget = _MAXIMUM_TARGET;\r\n         }\r\n     }\r\n\r\n\r\n     //this is a recent ethereum block hash, used to prevent pre-mining future blocks\r\n     function getChallengeNumber() public view returns (bytes32) {\r\n         return challengeNumber;\r\n     }\r\n\r\n     //the number of zeroes the digest of the PoW solution requires.  Auto adjusts\r\n      function getMiningDifficulty() public view returns (uint) {\r\n         return _MAXIMUM_TARGET.div(miningTarget);\r\n     }\r\n\r\n     function getMiningTarget() public view returns (uint) {\r\n        return miningTarget;\r\n    }\r\n\r\n\r\n     //help debug mining software\r\n     function getMintDigest(uint256 nonce, bytes32 challenge_digest, bytes32 challenge_number) public view returns (bytes32 digesttest) {\r\n\r\n         bytes32 digest = keccak256(abi.encodePacked(challenge_number,msg.sender,nonce));\r\n\r\n         return digest;\r\n\r\n       }\r\n\r\n         //help debug mining software\r\n       function checkMintSolution(uint256 nonce, bytes32 challenge_digest, bytes32 challenge_number, uint testTarget) public view returns (bool success) {\r\n\r\n           bytes32 digest = keccak256(abi.encodePacked(challenge_number,msg.sender,nonce));\r\n\r\n           if(uint256(digest) > testTarget) revert();\r\n\r\n           return (digest == challenge_digest);\r\n\r\n         }\r\n\r\n\r\n// ------------------      Mining system functions   -------------------------  //\r\n\r\n// ------------------------------------------------------------------------\r\n\r\n// Don't accept ETH\r\n\r\n// ------------------------------------------------------------------------\r\n\r\nfunction () payable external {\r\n\r\n    revert();\r\n\r\n}\r\n\r\n}\r\n\r\n\r\n\r\n\r\ncontract EticaRelease is EticaToken {\r\n  /* --------- PROD -------------\r\nuint TESTING_STARTING_BLOCK_NUMBER = 7739267; // used only for testing as ganache starts at block number 0\r\nuint REWARD_INTERVAL = 42000; // periods duration (in number of blocks) 42000 blocks = 7 jours (6000 blocks per day)\r\nuint STAKING_DURATION = 168000; // default stake duration (in number of blocks) 168000 blocks = 28 jours (6000 blocks per day)\r\nuint ETICA_TO_BOSOM_RATIO = 1; //\r\n     --------- PROD ------------- */\r\n\r\n\r\nuint TESTING_STARTING_BLOCK_NUMBER = 7739267; // used only for testing as ganache starts at block number 0\r\nuint REWARD_INTERVAL = 42; // periods duration (in number of blocks) 42000 blocks = 7 jours (6000 blocks per day)\r\nuint STAKING_DURATION = 168; // default stake duration (in number of blocks) 168000 blocks = 28 jours (6000 blocks per day)\r\nuint ETICA_TO_BOSOM_RATIO = 1; //\r\n\r\nuint public DISEASE_CREATION_AMOUNT = 100 * 10**uint(decimals); // 100 ETI amount to pay for creating a new disease. Necessary in order to avoid spam. Will create a function that periodically increase it in order to take into account inflation\r\n\r\n\r\nstruct Period{\r\n    uint id;\r\n    uint interval;\r\n    uint curation_sum;\r\n    uint editor_sum;\r\n    uint total_voters; // TOTAL nb of voters in this period\r\n}\r\n\r\n  struct Stake{\r\n      uint amount;\r\n      uint startBlock;\r\n      uint endBlock;\r\n  }\r\n\r\n\r\n// Stuct used only inside Proposals as Proposals' s Targets.\r\n// The software has no independent Target structs with Target ids and details ...\r\n  struct Target{\r\n      string name;\r\n      string kind; // Example: GPCR, Enzyme, Protein Activity ...\r\n      uint status; // Example: Exploration, Validation, Fully Validated, Null ...\r\n      string freefield; // used by front end apps and communities to fit their needs and process\r\n  }\r\n\r\n  // Stuct used only inside Proposals as Proposals' s Compounds.\r\n  // The software has no independent Compounds structs with Compounds ids and details ...\r\n    struct Compound{\r\n        string name;\r\n        string kind; // Example: Small Organic Molecules, Large Protein Molecules ...\r\n        uint result; // Example: Failure, Success, Undertermined, Null ...\r\n        string freefield; // used by front end apps and communities to fit their needs and process\r\n    }\r\n\r\n  struct Proposal{\r\n      uint id;\r\n      uint disease_id;\r\n      string ipfshash;\r\n      string name;\r\n      string summary;\r\n      Target[] targets;\r\n      Compound[] compounds;\r\n      string freefield; // used by front end apps and communities to fit their needs and process\r\n  }\r\n\r\n  struct Disease{\r\n      bytes32 diseasehash;\r\n      string name;\r\n      string description;\r\n  }\r\n\r\nmapping(uint => Period) public periods;\r\nuint public periodsCounter;\r\nmapping(uint => uint) public PeriodsIssued; // keeps track of which periods have already issued ETI\r\nuint public PeriodsIssuedCounter;\r\nmapping(uint => uint) public IntervalsPeriods; // keeps track of which intervals have already a period\r\nuint public IntervalsPeriodsCounter;\r\n\r\n\r\nmapping(uint => Disease) public diseases; // keeps track of which intervals have already a period\r\nuint public diseasesCounter;\r\nmapping(bytes32 => uint) public diseasesbyIds; // example:    [leiojej757575ero] => [0]  where leiojej757575ero is id of a Disease\r\nmapping(string => bytes32) private diseasesbyNames; // example:    [\"name of a disease\"] => [leiojej757575ero]  where leiojej757575ero is id of a Disease. Set visibility to private because mapping with strings as keys have issues when public visibility\r\n\r\n\r\nmapping(address => uint) public bosoms;\r\nmapping(address => mapping(uint => Stake)) public stakes;\r\nmapping(address => uint) public stakesCounters; // keeps track of how many stakes for each user\r\n// stakes ----> slashing function will need to loop trough stakes. Can create issues for claiming votes:\r\n// will create a function to gather stakes when user has to much stakes.\r\n// The function will take a completion_time as parameter and will loop trough 50 indexes and will put all stakes with\r\n// lower completion_time into a  single new stake with parameter completion_time\r\n\r\nevent CreatedPeriod(uint period_id, uint interval);\r\nevent IssuedPeriod(uint period_id, uint periodreward);\r\nevent NewStake(address indexed staker, uint amount);\r\nevent StakeClaimed(address indexed staker, uint stakeidx);\r\nevent NewDisease(uint diseaseindex, string title, string description);\r\n\r\n\r\n\r\n// -------------  Reward system functions ---------------- //\r\n\r\nfunction issue(uint _id) internal returns (bool success) {\r\n  // we check whether there is at least one period\r\n  require(periodsCounter > 0);\r\n\r\n  // we check that the period exists\r\n  require(_id > 0 && _id <= periodsCounter);\r\n\r\n  // we retrieve the period\r\n  Period storage period = periods[_id];\r\n\r\n  // we check that the period is legit and has been retrieved\r\n  require(period.id != 0);\r\n\r\n\r\n//only allow one issuance for each period\r\nuint rwd = PeriodsIssued[period.id];\r\nif(rwd != 0x0) revert();  //prevent the same period from issuing twice\r\n\r\nuint _periodsupply;\r\n\r\n// era 2 (after 21 000 000 ETI has been reached)\r\nif(supply >= 21000000 * 10**(decimals)){\r\n uint _rate = uint(inflationrate / 10**(33));\r\n _periodsupply = supply * _rate;\r\n}\r\n// era 1 (before 21 000 000 ETI has been reached)\r\nelse {\r\n  _periodsupply = periodrewardtemp;\r\n}\r\n\r\nsupply = supply + _periodsupply;\r\nbalances[address(this)] = balances[address(this)].add(_periodsupply);\r\nPeriodsIssued[period.id] = _periodsupply;\r\nPeriodsIssuedCounter = PeriodsIssuedCounter + 1;\r\n\r\nemit IssuedPeriod(periodsCounter, _periodsupply);\r\n\r\nreturn true;\r\n\r\n}\r\n\r\n// --- WARNING this function should be internal, will be called by propose proposal function\r\n// let public for testing only\r\n// create a period\r\nfunction newPeriod() public {\r\n\r\n  uint _interval = uint((block.number + TESTING_STARTING_BLOCK_NUMBER).div(REWARD_INTERVAL));\r\n\r\n  //only allow one period for each interval\r\n  uint rwd = IntervalsPeriods[_interval];\r\n  if(rwd != 0x0) revert();  //prevent the same interval from having 2 periods\r\n\r\n\r\n  periodsCounter++;\r\n\r\n  // store this interval period\r\n  periods[periodsCounter] = Period(\r\n    periodsCounter,\r\n    _interval,\r\n    0x0, //_curation_sum\r\n    0x0, //_editor_sum\r\n    0x0 //_total_voters; // TOTAL nb of voters in this period\r\n  );\r\n\r\n  // an interval cannot have 2 Periods\r\n  IntervalsPeriods[_interval] = periodsCounter;\r\n  IntervalsPeriodsCounter++;\r\n\r\n  // issue ETI for this Period Reward\r\n  issue(periodsCounter);\r\n\r\n  emit CreatedPeriod(periodsCounter, _interval);\r\n}\r\n\r\n\r\n\r\n\r\n// -------------  Reward system functions ---------------- //\r\n\r\n\r\n// ------- STAKING ---------- //\r\n// Stake etica in exchange for bosom\r\nfunction eticatobosoms(address _staker, uint _amount) public returns (bool success){\r\n  require(msg.sender == _staker);\r\n  require(_amount > 0); // even if transfer require amount > 0 I prefer checking for more security and very few more gas\r\n  // transfer _amount ETI from staker wallet to contract balance:\r\n  transfer(address(this), _amount);\r\n\r\n  // Get bosoms and add Stake\r\n  bosomget(_staker, _amount);\r\n\r\n\r\n  return true;\r\n\r\n}\r\n\r\n\r\n\r\n// ----  Get bosoms and add Stake ------  //\r\n\r\n// Only contract must be able to call this function:\r\nfunction bosomget (address _staker, uint _amount) internal {\r\n\r\naddStake(_staker, _amount);\r\n\r\nuint newBosoms = _amount * ETICA_TO_BOSOM_RATIO;\r\nbosoms[_staker] = bosoms[_staker].add(newBosoms);\r\n\r\n}\r\n\r\n\r\nfunction addStake(address _staker, uint _amount) internal returns (bool success) {\r\n\r\n    require(_amount > 0); // may not be necessary as _amount is uint but I let it for better security\r\n    stakesCounters[_staker] = stakesCounters[_staker] + 1; // notice that first stake will have the index of 1 thus not 0 !\r\n\r\n    uint endBlock = block.number + STAKING_DURATION;\r\n\r\n    // store this stake in _staker's stakes with the index stakesCounters[_staker]\r\n    stakes[_staker][stakesCounters[_staker]] = Stake(\r\n      _amount, // stake amount\r\n      block.number, // StartBlock\r\n      endBlock // EndBlock\r\n    );\r\n\r\n    emit NewStake(_staker, _amount);\r\n\r\n    return true;\r\n}\r\n\r\n// ----  Get bosoms and add Stake ------  //\r\n\r\n\r\n// ----  Redeem a Stake ------  //\r\n\r\nfunction stakeclmidx (uint _stakeidx) public {\r\n\r\n  // we check that the stake exists\r\n  require(_stakeidx > 0 && _stakeidx <= stakesCounters[msg.sender]);\r\n\r\n  // we retrieve the stake\r\n  Stake storage _stake = stakes[msg.sender][_stakeidx];\r\n\r\n  // The stake must be over\r\n  require(block.number > _stake.endBlock);\r\n\r\n  require(_stake.amount > 0);\r\n\r\n  // transfer back ETI from contract to staker:\r\n  balances[address(this)] = balances[address(this)].sub(_stake.amount);\r\n\r\n  balances[msg.sender] = balances[msg.sender].add(_stake.amount);\r\n\r\n  emit Transfer(address(this), msg.sender, _stake.amount);\r\n  emit StakeClaimed(msg.sender, _stakeidx);\r\n\r\n  // deletes the stake\r\n  _deletestake(msg.sender, _stakeidx);\r\n\r\n}\r\n\r\nfunction _deletestake(address _staker,uint _index) internal {\r\n  // we check that the stake exists\r\n  require(_index > 0 && _index <= stakesCounters[_staker]);\r\n\r\n  // replace value of stake to be deleted by value of last stake\r\n  stakes[_staker][_index] = stakes[_staker][stakesCounters[_staker]];\r\n\r\n  // remove last stake\r\n  stakes[_staker][stakesCounters[_staker]] = Stake(\r\n    0x0, // amount\r\n    0x0, // StartBlock\r\n    0x0 // EndBlock\r\n    );\r\n\r\n  // updates stakesCounter of _staker\r\n  stakesCounters[_staker] = stakesCounters[_staker] - 1;\r\n}\r\n\r\n// ----  Redeem a Stake ------  //\r\n\r\n\r\nfunction stakescount(address _staker) public view returns (uint slength){\r\n  return stakesCounters[_staker];\r\n}\r\n\r\n// ------- STAKING ---------- //\r\n\r\n\r\n\r\n\r\n\r\nfunction createdisease(string memory _name, string memory _description) public {\r\n\r\n\r\n  // --- REQUIRE PAYMENT FOR ADDING A DISEASE TO CREATE A BARRIER TO ENTRY AND AVOID SPAM --- //\r\n\r\n  // make sure the user has enough ETI to create a disease\r\n  require(balances[msg.sender] >= DISEASE_CREATION_AMOUNT);\r\n  // transfer DISEASE_CREATION_AMOUNT ETI from user wallet to contract wallet:\r\n  transfer(address(this), DISEASE_CREATION_AMOUNT);\r\n\r\n  // --- REQUIRE PAYMENT FOR ADDING A DISEASE TO CREATE A BARRIER TO ENTRY AND AVOID SPAM --- //\r\n\r\n\r\n  bytes32 _diseasehash = sha256(abi.encodePacked(_name));\r\n\r\n  diseasesCounter = diseasesCounter + 1; // notice that first disease will have the index of 1 thus not 0 !\r\n\r\n  //check: if the disease is new we continue, otherwise we exit\r\n   if(diseasesbyIds[_diseasehash] != 0x0) revert();  //prevent the same disease from being created twice. The software manages diseases uniqueness based on their unique english name. Note that even the first disease will nott have index of 0 thus should pass this check\r\n\r\n\r\n   // store this stake in _staker's stakes with the index stakesCounters[_staker]\r\n   diseases[diseasesCounter] = Disease(\r\n     _diseasehash,\r\n     _name,\r\n     _description\r\n   );\r\n\r\n   emit NewDisease(diseasesCounter, _name, _description);\r\n\r\n}\r\n\r\n\r\n\r\n\r\n// get boms balance of user:\r\nfunction bosomsOf(address tokenOwner) public view returns (uint _bosoms){\r\n     return bosoms[tokenOwner];\r\n }\r\n\r\n\r\n}\r\n",
  "sourcePath": "/mnt/d/linux/ethereum/etica/contracts/EticaRelease.sol",
  "compiler": {
    "name": "solc",
    "version": "0.5.2+commit.1df8f40c.Emscripten.clang"
  },
  "schemaVersion": "3.0.9",
  "updatedAt": "2019-06-04T13:45:03.082Z",
  "devdoc": {
    "methods": {}
  },
  "userdoc": {
    "methods": {}
  }
}