{
  "contractName": "EticaToken",
  "abi": [
    {
      "constant": true,
      "inputs": [],
      "name": "supply",
      "outputs": [
        {
          "name": "",
          "type": "uint256"
        }
      ],
      "payable": false,
      "stateMutability": "view",
      "type": "function",
      "signature": "0x047fc9aa"
    },
    {
      "constant": true,
      "inputs": [],
      "name": "name",
      "outputs": [
        {
          "name": "",
          "type": "string"
        }
      ],
      "payable": false,
      "stateMutability": "view",
      "type": "function",
      "signature": "0x06fdde03"
    },
    {
      "constant": true,
      "inputs": [
        {
          "name": "",
          "type": "address"
        }
      ],
      "name": "balances",
      "outputs": [
        {
          "name": "",
          "type": "uint256"
        }
      ],
      "payable": false,
      "stateMutability": "view",
      "type": "function",
      "signature": "0x27e235e3"
    },
    {
      "constant": true,
      "inputs": [],
      "name": "decimals",
      "outputs": [
        {
          "name": "",
          "type": "uint256"
        }
      ],
      "payable": false,
      "stateMutability": "view",
      "type": "function",
      "signature": "0x313ce567"
    },
    {
      "constant": true,
      "inputs": [],
      "name": "founder",
      "outputs": [
        {
          "name": "",
          "type": "address"
        }
      ],
      "payable": false,
      "stateMutability": "view",
      "type": "function",
      "signature": "0x4d853ee5"
    },
    {
      "constant": true,
      "inputs": [],
      "name": "foundermsgproof",
      "outputs": [
        {
          "name": "",
          "type": "string"
        }
      ],
      "payable": false,
      "stateMutability": "view",
      "type": "function",
      "signature": "0x6de7410c"
    },
    {
      "constant": true,
      "inputs": [],
      "name": "symbol",
      "outputs": [
        {
          "name": "",
          "type": "string"
        }
      ],
      "payable": false,
      "stateMutability": "view",
      "type": "function",
      "signature": "0x95d89b41"
    },
    {
      "constant": true,
      "inputs": [],
      "name": "inflationrate",
      "outputs": [
        {
          "name": "",
          "type": "uint256"
        }
      ],
      "payable": false,
      "stateMutability": "view",
      "type": "function",
      "signature": "0xb6407769"
    },
    {
      "constant": true,
      "inputs": [],
      "name": "periodrewardtemp",
      "outputs": [
        {
          "name": "",
          "type": "int256"
        }
      ],
      "payable": false,
      "stateMutability": "view",
      "type": "function",
      "signature": "0xd40170d7"
    },
    {
      "inputs": [],
      "payable": false,
      "stateMutability": "nonpayable",
      "type": "constructor",
      "signature": "constructor"
    },
    {
      "anonymous": false,
      "inputs": [
        {
          "indexed": true,
          "name": "from",
          "type": "address"
        },
        {
          "indexed": true,
          "name": "to",
          "type": "address"
        },
        {
          "indexed": false,
          "name": "tokens",
          "type": "uint256"
        }
      ],
      "name": "Transfer",
      "type": "event",
      "signature": "0xddf252ad1be2c89b69c2b068fc378daa952ba7f163c4a11628f55a4df523b3ef"
    },
    {
      "anonymous": false,
      "inputs": [
        {
          "indexed": true,
          "name": "tokenOwner",
          "type": "address"
        },
        {
          "indexed": true,
          "name": "spender",
          "type": "address"
        },
        {
          "indexed": false,
          "name": "tokens",
          "type": "uint256"
        }
      ],
      "name": "Approval",
      "type": "event",
      "signature": "0x8c5be1e5ebec7d5bd14f71427d1e84f3dd0314c0f7b2291e5b200ac8c7c3b925"
    },
    {
      "constant": true,
      "inputs": [
        {
          "name": "tokenOwner",
          "type": "address"
        },
        {
          "name": "spender",
          "type": "address"
        }
      ],
      "name": "allowance",
      "outputs": [
        {
          "name": "",
          "type": "uint256"
        }
      ],
      "payable": false,
      "stateMutability": "view",
      "type": "function",
      "signature": "0xdd62ed3e"
    },
    {
      "constant": false,
      "inputs": [
        {
          "name": "spender",
          "type": "address"
        },
        {
          "name": "tokens",
          "type": "uint256"
        }
      ],
      "name": "approve",
      "outputs": [
        {
          "name": "",
          "type": "bool"
        }
      ],
      "payable": false,
      "stateMutability": "nonpayable",
      "type": "function",
      "signature": "0x095ea7b3"
    },
    {
      "constant": false,
      "inputs": [
        {
          "name": "from",
          "type": "address"
        },
        {
          "name": "to",
          "type": "address"
        },
        {
          "name": "tokens",
          "type": "uint256"
        }
      ],
      "name": "transferFrom",
      "outputs": [
        {
          "name": "",
          "type": "bool"
        }
      ],
      "payable": false,
      "stateMutability": "nonpayable",
      "type": "function",
      "signature": "0x23b872dd"
    },
    {
      "constant": true,
      "inputs": [],
      "name": "totalSupply",
      "outputs": [
        {
          "name": "",
          "type": "uint256"
        }
      ],
      "payable": false,
      "stateMutability": "view",
      "type": "function",
      "signature": "0x18160ddd"
    },
    {
      "constant": true,
      "inputs": [
        {
          "name": "tokenOwner",
          "type": "address"
        }
      ],
      "name": "balanceOf",
      "outputs": [
        {
          "name": "balance",
          "type": "uint256"
        }
      ],
      "payable": false,
      "stateMutability": "view",
      "type": "function",
      "signature": "0x70a08231"
    },
    {
      "constant": false,
      "inputs": [
        {
          "name": "to",
          "type": "address"
        },
        {
          "name": "tokens",
          "type": "uint256"
        }
      ],
      "name": "transfer",
      "outputs": [
        {
          "name": "success",
          "type": "bool"
        }
      ],
      "payable": false,
      "stateMutability": "nonpayable",
      "type": "function",
      "signature": "0xa9059cbb"
    }
  ],
  "bytecode": "0x60806040526040805190810160405280600581526020017f45746963610000000000000000000000000000000000000000000000000000008152506000908051906020019062000051929190620001b4565b506040805190810160405280600381526020017f4554490000000000000000000000000000000000000000000000000000000000815250600190805190602001906200009f929190620001b4565b506012600255348015620000b257600080fd5b5068056bc75e2d6310000060038190555068056bc75e2d63100000600860003073ffffffffffffffffffffffffffffffffffffffff1673ffffffffffffffffffffffffffffffffffffffff168152602001908152602001600020819055506d010a2a0fa14daa6ad75ad7e9a0e36005819055506d014a713d95c1c369e4c10bb9816860048190555033600660006101000a81548173ffffffffffffffffffffffffffffffffffffffff021916908373ffffffffffffffffffffffffffffffffffffffff16021790555060606040519081016040528060278152602001620010616027913960079080519060200190620001ad929190620001b4565b5062000263565b828054600181600116156101000203166002900490600052602060002090601f016020900481019282601f10620001f757805160ff191683800117855562000228565b8280016001018555821562000228579182015b82811115620002275782518255916020019190600101906200020a565b5b5090506200023791906200023b565b5090565b6200026091905b808211156200025c57600081600090555060010162000242565b5090565b90565b610dee80620002736000396000f3fe608060405234801561001057600080fd5b5060043610610112576000357c0100000000000000000000000000000000000000000000000000000000900480634d853ee5116100b4578063a9059cbb11610083578063a9059cbb146104e0578063b640776914610546578063d40170d714610564578063dd62ed3e1461058257610112565b80634d853ee5146103385780636de7410c1461038257806370a082311461040557806395d89b411461045d57610112565b806318160ddd116100f057806318160ddd1461021e57806323b872dd1461023c57806327e235e3146102c2578063313ce5671461031a57610112565b8063047fc9aa1461011757806306fdde0314610135578063095ea7b3146101b8575b600080fd5b61011f6105fa565b6040518082815260200191505060405180910390f35b61013d610600565b6040518080602001828103825283818151815260200191508051906020019080838360005b8381101561017d578082015181840152602081019050610162565b50505050905090810190601f1680156101aa5780820380516001836020036101000a031916815260200191505b509250505060405180910390f35b610204600480360360408110156101ce57600080fd5b81019080803573ffffffffffffffffffffffffffffffffffffffff1690602001909291908035906020019092919050505061069e565b604051808215151515815260200191505060405180910390f35b6102266107ed565b6040518082815260200191505060405180910390f35b6102a86004803603606081101561025257600080fd5b81019080803573ffffffffffffffffffffffffffffffffffffffff169060200190929190803573ffffffffffffffffffffffffffffffffffffffff169060200190929190803590602001909291905050506107f7565b604051808215151515815260200191505060405180910390f35b610304600480360360208110156102d857600080fd5b81019080803573ffffffffffffffffffffffffffffffffffffffff169060200190929190505050610a01565b6040518082815260200191505060405180910390f35b610322610a19565b6040518082815260200191505060405180910390f35b610340610a1f565b604051808273ffffffffffffffffffffffffffffffffffffffff1673ffffffffffffffffffffffffffffffffffffffff16815260200191505060405180910390f35b61038a610a45565b6040518080602001828103825283818151815260200191508051906020019080838360005b838110156103ca5780820151818401526020810190506103af565b50505050905090810190601f1680156103f75780820380516001836020036101000a031916815260200191505b509250505060405180910390f35b6104476004803603602081101561041b57600080fd5b81019080803573ffffffffffffffffffffffffffffffffffffffff169060200190929190505050610ae3565b6040518082815260200191505060405180910390f35b610465610b2c565b6040518080602001828103825283818151815260200191508051906020019080838360005b838110156104a557808201518184015260208101905061048a565b50505050905090810190601f1680156104d25780820380516001836020036101000a031916815260200191505b509250505060405180910390f35b61052c600480360360408110156104f657600080fd5b81019080803573ffffffffffffffffffffffffffffffffffffffff16906020019092919080359060200190929190505050610bca565b604051808215151515815260200191505060405180910390f35b61054e610d2f565b6040518082815260200191505060405180910390f35b61056c610d35565b6040518082815260200191505060405180910390f35b6105e46004803603604081101561059857600080fd5b81019080803573ffffffffffffffffffffffffffffffffffffffff169060200190929190803573ffffffffffffffffffffffffffffffffffffffff169060200190929190505050610d3b565b6040518082815260200191505060405180910390f35b60035481565b60008054600181600116156101000203166002900480601f0160208091040260200160405190810160405280929190818152602001828054600181600116156101000203166002900480156106965780601f1061066b57610100808354040283529160200191610696565b820191906000526020600020905b81548152906001019060200180831161067957829003601f168201915b505050505081565b600081600860003373ffffffffffffffffffffffffffffffffffffffff1673ffffffffffffffffffffffffffffffffffffffff16815260200190815260200160002054101515156106ee57600080fd5b6000821115156106fd57600080fd5b81600960003373ffffffffffffffffffffffffffffffffffffffff1673ffffffffffffffffffffffffffffffffffffffff16815260200190815260200160002060008573ffffffffffffffffffffffffffffffffffffffff1673ffffffffffffffffffffffffffffffffffffffff168152602001908152602001600020819055508273ffffffffffffffffffffffffffffffffffffffff163373ffffffffffffffffffffffffffffffffffffffff167f8c5be1e5ebec7d5bd14f71427d1e84f3dd0314c0f7b2291e5b200ac8c7c3b925846040518082815260200191505060405180910390a36001905092915050565b6000600354905090565b600081600960008673ffffffffffffffffffffffffffffffffffffffff1673ffffffffffffffffffffffffffffffffffffffff16815260200190815260200160002060008573ffffffffffffffffffffffffffffffffffffffff1673ffffffffffffffffffffffffffffffffffffffff168152602001908152602001600020541015151561088457600080fd5b81600860008673ffffffffffffffffffffffffffffffffffffffff1673ffffffffffffffffffffffffffffffffffffffff16815260200190815260200160002054101515156108d257600080fd5b81600860008673ffffffffffffffffffffffffffffffffffffffff1673ffffffffffffffffffffffffffffffffffffffff1681526020019081526020016000206000828254039250508190555081600860008573ffffffffffffffffffffffffffffffffffffffff1673ffffffffffffffffffffffffffffffffffffffff1681526020019081526020016000206000828254019250508190555081600960008673ffffffffffffffffffffffffffffffffffffffff1673ffffffffffffffffffffffffffffffffffffffff16815260200190815260200160002060008573ffffffffffffffffffffffffffffffffffffffff1673ffffffffffffffffffffffffffffffffffffffff16815260200190815260200160002060008282540392505081905550600190509392505050565b60086020528060005260406000206000915090505481565b60025481565b600660009054906101000a900473ffffffffffffffffffffffffffffffffffffffff1681565b60078054600181600116156101000203166002900480601f016020809104026020016040519081016040528092919081815260200182805460018160011615610100020316600290048015610adb5780601f10610ab057610100808354040283529160200191610adb565b820191906000526020600020905b815481529060010190602001808311610abe57829003601f168201915b505050505081565b6000600860008373ffffffffffffffffffffffffffffffffffffffff1673ffffffffffffffffffffffffffffffffffffffff168152602001908152602001600020549050919050565b60018054600181600116156101000203166002900480601f016020809104026020016040519081016040528092919081815260200182805460018160011615610100020316600290048015610bc25780601f10610b9757610100808354040283529160200191610bc2565b820191906000526020600020905b815481529060010190602001808311610ba557829003601f168201915b505050505081565b600081600860003373ffffffffffffffffffffffffffffffffffffffff1673ffffffffffffffffffffffffffffffffffffffff1681526020019081526020016000205410158015610c1b5750600082115b1515610c2657600080fd5b81600860008573ffffffffffffffffffffffffffffffffffffffff1673ffffffffffffffffffffffffffffffffffffffff1681526020019081526020016000206000828254019250508190555081600860003373ffffffffffffffffffffffffffffffffffffffff1673ffffffffffffffffffffffffffffffffffffffff168152602001908152602001600020600082825403925050819055508273ffffffffffffffffffffffffffffffffffffffff163373ffffffffffffffffffffffffffffffffffffffff167fddf252ad1be2c89b69c2b068fc378daa952ba7f163c4a11628f55a4df523b3ef846040518082815260200191505060405180910390a36001905092915050565b60045481565b60055481565b6000600960008473ffffffffffffffffffffffffffffffffffffffff1673ffffffffffffffffffffffffffffffffffffffff16815260200190815260200160002060008373ffffffffffffffffffffffffffffffffffffffff1673ffffffffffffffffffffffffffffffffffffffff1681526020019081526020016000205490509291505056fea165627a7a723058208ccd16b09c49453d1c717250d8707305641451ec7d1e330e214267690078a6f20029446973636f766572696e67206f7572206265737420467574757265732e204b6576696e20576164",
  "source": "pragma solidity ^0.5.2;\r\n// ----------------------------------------------------------------------------\r\n//this ICO smart contract has been compiled and tested with the Solidity Version 0.5.2\r\n//There are some minor changes comparing to ICO contract compiled with versions < 0.5.0\r\n// ----------------------------------------------------------------------------\r\n\r\ncontract ERC20Interface {\r\n    function totalSupply() public view returns (uint);\r\n    function balanceOf(address tokenOwner) public view returns (uint balance);\r\n    function transfer(address to, uint tokens) public returns (bool success);\r\n\r\n\r\n    function allowance(address tokenOwner, address spender) public view returns (uint remaining);\r\n    function approve(address spender, uint tokens) public returns (bool success);\r\n    function transferFrom(address from, address to, uint tokens) public returns (bool success);\r\n\r\n    event Transfer(address indexed from, address indexed to, uint tokens);\r\n    event Approval(address indexed tokenOwner, address indexed spender, uint tokens);\r\n}\r\n\r\ncontract EticaToken is ERC20Interface{\r\n    string public name = \"Etica\";\r\n    string public symbol = \"ETI\";\r\n    uint public decimals = 18;\r\n\r\n    uint public supply;\r\n    // fixed inflation rate after etica supply has reached 21 Million\r\n    uint public inflationrate;\r\n    int public  periodrewardtemp; // Amount of ETI issued per period during phase1\r\n\r\n    // We don't want fake Satoshi again. Using it to prove founder's identity\r\n    address public founder;\r\n    string public foundermsgproof;\r\n\r\n    mapping(address => uint) public balances;\r\n\r\n    mapping(address => mapping(address => uint)) allowed;\r\n\r\n    //allowed[0x1111....][0x22222...] = 100;\r\n\r\n\r\n    event Transfer(address indexed from, address indexed to, uint tokens);\r\n    event Approval(address indexed tokenOwner, address indexed spender, uint tokens);\r\n\r\n\r\n    constructor() public{\r\n      supply = 100 * (10**18); // initial supply equals 100 ETI\r\n      balances[address(this)] = 100 * (10**18); // 100 ETI as the default contract balance. To avoid any issue that could arise from negative contract balance because of significant numbers approximations\r\n\r\n      // PHASE 1\r\n\r\n      // --- PAHSE 1 (before 21 Million ETI has been reached) --->  //\r\n      // 10 500 000 ETI to be issued as periodrewardtemp for ETICA reward system\r\n      // 10 500 000 ETI to be MINED\r\n\r\n      // phase1 periodrewardtemp\r\n      // fixed Etica issued per period during phase1 (before 21 Million ETI has been reached)\r\n      // calculation:\r\n      // The amount of reward has to be half of first rewards of phase 2\r\n      // 21 000 000 * 0.26180339887498948482045868343656 = 549 787,13763747791812296323521678‬ ETI (first year reward)\r\n      // 549 787,13763747791812296323521678‬ / 52.1429 = 10 543,854247413893706007207792754‬ ETI (first weeks reward of phase2)\r\n      // 10 543,854247413893706007207792754‬ * 2 = 21087,708494827787412014415585507 ETI\r\n      periodrewardtemp = 21087708494827787412014415585507; // 21087,708494827787412014415585507 ETI will take about 9,5491502812526287948853291408588 years to reach 10 500 000 ETI\r\n\r\n\r\n\r\n      // phase1 mining\r\n\r\n\r\n      // PHASE 1\r\n\r\n      // PHASE 2\r\n      // Golden number power 2: 1,6180339887498948482045868343656 * 1,6180339887498948482045868343656 = 2.6180339887498948482045868343656; (need to multiple by 10^(-34) to get 0.26180339887498948482045868343656);\r\n      inflationrate = 26180339887498948482045868343656;\r\n\r\n       // PHASE 2\r\n\r\n\r\n\r\n      founder = msg.sender;\r\n      foundermsgproof = \"Discovering our best Futures. Kevin Wad\";\r\n    }\r\n\r\n\r\n    function allowance(address tokenOwner, address spender) view public returns(uint){\r\n        return allowed[tokenOwner][spender];\r\n    }\r\n\r\n\r\n    //approve allowance\r\n    function approve(address spender, uint tokens) public returns(bool){\r\n        require(balances[msg.sender] >= tokens);\r\n        require(tokens > 0);\r\n\r\n        allowed[msg.sender][spender] = tokens;\r\n        emit Approval(msg.sender, spender, tokens);\r\n        return true;\r\n    }\r\n\r\n    //transfer tokens from the  owner account to the account that calls the function\r\n    function transferFrom(address from, address to, uint tokens) public returns(bool){\r\n        require(allowed[from][to] >= tokens);\r\n        require(balances[from] >= tokens);\r\n\r\n        balances[from] -= tokens;\r\n        balances[to] += tokens;\r\n\r\n\r\n        allowed[from][to] -= tokens;\r\n\r\n        return true;\r\n    }\r\n\r\n    function totalSupply() public view returns (uint){\r\n        return supply;\r\n    }\r\n\r\n    function balanceOf(address tokenOwner) public view returns (uint balance){\r\n         return balances[tokenOwner];\r\n     }\r\n\r\n\r\n    function transfer(address to, uint tokens) public returns (bool success){\r\n         require(balances[msg.sender] >= tokens && tokens > 0);\r\n\r\n         balances[to] += tokens;\r\n         balances[msg.sender] -= tokens;\r\n         emit Transfer(msg.sender, to, tokens);\r\n         return true;\r\n     }\r\n}\r\n",
  "sourcePath": "/mnt/d/linux/ethereum/etica/contracts/EticaToken.sol",
  "compiler": {
    "name": "solc",
    "version": "0.5.2+commit.1df8f40c.Emscripten.clang"
  },
  "schemaVersion": "3.0.1",
  "updatedAt": "2019-05-03T15:21:09.911Z",
  "devdoc": {
    "methods": {}
  },
  "userdoc": {
    "methods": {}
  }
}