{
  "contractName": "EticaToken",
  "abi": [
    {
      "constant": true,
      "inputs": [],
      "name": "PERIOD_EDITOR_REWARD_RATIO",
      "outputs": [
        {
          "name": "",
          "type": "uint256"
        }
      ],
      "payable": false,
      "stateMutability": "view",
      "type": "function"
    },
    {
      "constant": true,
      "inputs": [],
      "name": "supply",
      "outputs": [
        {
          "name": "",
          "type": "uint256"
        }
      ],
      "payable": false,
      "stateMutability": "view",
      "type": "function"
    },
    {
      "constant": true,
      "inputs": [],
      "name": "name",
      "outputs": [
        {
          "name": "",
          "type": "string"
        }
      ],
      "payable": false,
      "stateMutability": "view",
      "type": "function"
    },
    {
      "constant": true,
      "inputs": [],
      "name": "lastRewardEthBlockNumber",
      "outputs": [
        {
          "name": "",
          "type": "uint256"
        }
      ],
      "payable": false,
      "stateMutability": "view",
      "type": "function"
    },
    {
      "constant": true,
      "inputs": [
        {
          "name": "",
          "type": "address"
        }
      ],
      "name": "balances",
      "outputs": [
        {
          "name": "",
          "type": "uint256"
        }
      ],
      "payable": false,
      "stateMutability": "view",
      "type": "function"
    },
    {
      "constant": true,
      "inputs": [],
      "name": "decimals",
      "outputs": [
        {
          "name": "",
          "type": "uint256"
        }
      ],
      "payable": false,
      "stateMutability": "view",
      "type": "function"
    },
    {
      "constant": true,
      "inputs": [],
      "name": "_totalMiningSupply",
      "outputs": [
        {
          "name": "",
          "type": "uint256"
        }
      ],
      "payable": false,
      "stateMutability": "view",
      "type": "function"
    },
    {
      "constant": true,
      "inputs": [],
      "name": "founder",
      "outputs": [
        {
          "name": "",
          "type": "address"
        }
      ],
      "payable": false,
      "stateMutability": "view",
      "type": "function"
    },
    {
      "constant": true,
      "inputs": [],
      "name": "foundermsgproof",
      "outputs": [
        {
          "name": "",
          "type": "string"
        }
      ],
      "payable": false,
      "stateMutability": "view",
      "type": "function"
    },
    {
      "constant": true,
      "inputs": [],
      "name": "tokensMinted",
      "outputs": [
        {
          "name": "",
          "type": "uint256"
        }
      ],
      "payable": false,
      "stateMutability": "view",
      "type": "function"
    },
    {
      "constant": true,
      "inputs": [],
      "name": "lastRewardTo",
      "outputs": [
        {
          "name": "",
          "type": "address"
        }
      ],
      "payable": false,
      "stateMutability": "view",
      "type": "function"
    },
    {
      "constant": true,
      "inputs": [],
      "name": "epochCount",
      "outputs": [
        {
          "name": "",
          "type": "uint256"
        }
      ],
      "payable": false,
      "stateMutability": "view",
      "type": "function"
    },
    {
      "constant": true,
      "inputs": [],
      "name": "_MAXIMUM_TARGET",
      "outputs": [
        {
          "name": "",
          "type": "uint256"
        }
      ],
      "payable": false,
      "stateMutability": "view",
      "type": "function"
    },
    {
      "constant": true,
      "inputs": [],
      "name": "miningTarget",
      "outputs": [
        {
          "name": "",
          "type": "uint256"
        }
      ],
      "payable": false,
      "stateMutability": "view",
      "type": "function"
    },
    {
      "constant": true,
      "inputs": [],
      "name": "challengeNumber",
      "outputs": [
        {
          "name": "",
          "type": "bytes32"
        }
      ],
      "payable": false,
      "stateMutability": "view",
      "type": "function"
    },
    {
      "constant": true,
      "inputs": [],
      "name": "symbol",
      "outputs": [
        {
          "name": "",
          "type": "string"
        }
      ],
      "payable": false,
      "stateMutability": "view",
      "type": "function"
    },
    {
      "constant": true,
      "inputs": [],
      "name": "PERIOD_CURATION_REWARD_RATIO",
      "outputs": [
        {
          "name": "",
          "type": "uint256"
        }
      ],
      "payable": false,
      "stateMutability": "view",
      "type": "function"
    },
    {
      "constant": true,
      "inputs": [],
      "name": "_BLOCKS_PER_READJUSTMENT",
      "outputs": [
        {
          "name": "",
          "type": "uint256"
        }
      ],
      "payable": false,
      "stateMutability": "view",
      "type": "function"
    },
    {
      "constant": true,
      "inputs": [],
      "name": "inflationrate",
      "outputs": [
        {
          "name": "",
          "type": "uint256"
        }
      ],
      "payable": false,
      "stateMutability": "view",
      "type": "function"
    },
    {
      "constant": true,
      "inputs": [],
      "name": "latestDifficultyPeriodStarted",
      "outputs": [
        {
          "name": "",
          "type": "uint256"
        }
      ],
      "payable": false,
      "stateMutability": "view",
      "type": "function"
    },
    {
      "constant": true,
      "inputs": [],
      "name": "blockreward",
      "outputs": [
        {
          "name": "",
          "type": "uint256"
        }
      ],
      "payable": false,
      "stateMutability": "view",
      "type": "function"
    },
    {
      "constant": true,
      "inputs": [],
      "name": "periodrewardtemp",
      "outputs": [
        {
          "name": "",
          "type": "uint256"
        }
      ],
      "payable": false,
      "stateMutability": "view",
      "type": "function"
    },
    {
      "constant": true,
      "inputs": [],
      "name": "_MINIMUM_TARGET",
      "outputs": [
        {
          "name": "",
          "type": "uint256"
        }
      ],
      "payable": false,
      "stateMutability": "view",
      "type": "function"
    },
    {
      "inputs": [],
      "payable": false,
      "stateMutability": "nonpayable",
      "type": "constructor"
    },
    {
      "payable": true,
      "stateMutability": "payable",
      "type": "fallback"
    },
    {
      "anonymous": false,
      "inputs": [
        {
          "indexed": true,
          "name": "from",
          "type": "address"
        },
        {
          "indexed": true,
          "name": "to",
          "type": "address"
        },
        {
          "indexed": false,
          "name": "tokens",
          "type": "uint256"
        }
      ],
      "name": "Transfer",
      "type": "event"
    },
    {
      "anonymous": false,
      "inputs": [
        {
          "indexed": true,
          "name": "tokenOwner",
          "type": "address"
        },
        {
          "indexed": true,
          "name": "spender",
          "type": "address"
        },
        {
          "indexed": false,
          "name": "tokens",
          "type": "uint256"
        }
      ],
      "name": "Approval",
      "type": "event"
    },
    {
      "anonymous": false,
      "inputs": [
        {
          "indexed": true,
          "name": "from",
          "type": "address"
        },
        {
          "indexed": false,
          "name": "blockreward",
          "type": "uint256"
        },
        {
          "indexed": false,
          "name": "epochCount",
          "type": "uint256"
        },
        {
          "indexed": false,
          "name": "newChallengeNumber",
          "type": "bytes32"
        }
      ],
      "name": "Mint",
      "type": "event"
    },
    {
      "constant": true,
      "inputs": [
        {
          "name": "tokenOwner",
          "type": "address"
        },
        {
          "name": "spender",
          "type": "address"
        }
      ],
      "name": "allowance",
      "outputs": [
        {
          "name": "",
          "type": "uint256"
        }
      ],
      "payable": false,
      "stateMutability": "view",
      "type": "function"
    },
    {
      "constant": false,
      "inputs": [
        {
          "name": "spender",
          "type": "address"
        },
        {
          "name": "tokens",
          "type": "uint256"
        }
      ],
      "name": "approve",
      "outputs": [
        {
          "name": "",
          "type": "bool"
        }
      ],
      "payable": false,
      "stateMutability": "nonpayable",
      "type": "function"
    },
    {
      "constant": false,
      "inputs": [
        {
          "name": "from",
          "type": "address"
        },
        {
          "name": "to",
          "type": "address"
        },
        {
          "name": "tokens",
          "type": "uint256"
        }
      ],
      "name": "transferFrom",
      "outputs": [
        {
          "name": "",
          "type": "bool"
        }
      ],
      "payable": false,
      "stateMutability": "nonpayable",
      "type": "function"
    },
    {
      "constant": true,
      "inputs": [],
      "name": "totalSupply",
      "outputs": [
        {
          "name": "",
          "type": "uint256"
        }
      ],
      "payable": false,
      "stateMutability": "view",
      "type": "function"
    },
    {
      "constant": true,
      "inputs": [
        {
          "name": "tokenOwner",
          "type": "address"
        }
      ],
      "name": "balanceOf",
      "outputs": [
        {
          "name": "balance",
          "type": "uint256"
        }
      ],
      "payable": false,
      "stateMutability": "view",
      "type": "function"
    },
    {
      "constant": false,
      "inputs": [
        {
          "name": "to",
          "type": "address"
        },
        {
          "name": "tokens",
          "type": "uint256"
        }
      ],
      "name": "transfer",
      "outputs": [
        {
          "name": "success",
          "type": "bool"
        }
      ],
      "payable": false,
      "stateMutability": "nonpayable",
      "type": "function"
    },
    {
      "constant": false,
      "inputs": [
        {
          "name": "nonce",
          "type": "uint256"
        },
        {
          "name": "challenge_digest",
          "type": "bytes32"
        }
      ],
      "name": "mint",
      "outputs": [
        {
          "name": "success",
          "type": "bool"
        }
      ],
      "payable": false,
      "stateMutability": "nonpayable",
      "type": "function"
    },
    {
      "constant": true,
      "inputs": [],
      "name": "getChallengeNumber",
      "outputs": [
        {
          "name": "",
          "type": "bytes32"
        }
      ],
      "payable": false,
      "stateMutability": "view",
      "type": "function"
    },
    {
      "constant": true,
      "inputs": [],
      "name": "getMiningDifficulty",
      "outputs": [
        {
          "name": "",
          "type": "uint256"
        }
      ],
      "payable": false,
      "stateMutability": "view",
      "type": "function"
    },
    {
      "constant": true,
      "inputs": [],
      "name": "getMiningTarget",
      "outputs": [
        {
          "name": "",
          "type": "uint256"
        }
      ],
      "payable": false,
      "stateMutability": "view",
      "type": "function"
    },
    {
      "constant": true,
      "inputs": [
        {
          "name": "nonce",
          "type": "uint256"
        },
        {
          "name": "challenge_digest",
          "type": "bytes32"
        },
        {
          "name": "challenge_number",
          "type": "bytes32"
        }
      ],
      "name": "getMintDigest",
      "outputs": [
        {
          "name": "digesttest",
          "type": "bytes32"
        }
      ],
      "payable": false,
      "stateMutability": "view",
      "type": "function"
    },
    {
      "constant": true,
      "inputs": [
        {
          "name": "nonce",
          "type": "uint256"
        },
        {
          "name": "challenge_digest",
          "type": "bytes32"
        },
        {
          "name": "challenge_number",
          "type": "bytes32"
        },
        {
          "name": "testTarget",
          "type": "uint256"
        }
      ],
      "name": "checkMintSolution",
      "outputs": [
        {
          "name": "success",
          "type": "bool"
        }
      ],
      "payable": false,
      "stateMutability": "view",
      "type": "function"
    }
  ],
  "bytecode": "0x60c0604052600560808190527f457469636100000000000000000000000000000000000000000000000000000060a09081526200004091600091906200057f565b506040805180820190915260038082527f4554490000000000000000000000000000000000000000000000000000000000602090920191825262000087916001916200057f565b506012600255601460065560506007556107e0600f55620100006010557e040000000000000000000000000000000000000000000000000000000000006011556017805460ff19169055348015620000de57600080fd5b506a115eec55d78631dc640000600355306000908152600a6020526040902054620001229069d3c21bcecceda100000064010000000062000efb620002d882021704565b306000908152600a6020526040812091909155735fbd856f7f0c79723100ff6e1450cc1464d3fffc90526000805160206200176183398151915254620001819069152d02c7e14af680000064010000000062000efb620002d882021704565b600a602052600080516020620017618339815191525573d13ccb6ea16e2cbe56f95745681cc667828ecd4e6000526000805160206200178183398151915254620001e5906a084595161401484a00000064010000000062000efb620002d882021704565b73d13ccb6ea16e2cbe56f95745681cc667828ecd4e600052600a602081905260008051602062001781833981519152919091556904772abe6c93ed94622e60055560025462a037a0910a02600c5560175460ff16156200024457600080fd5b6017805460ff19166001179055600060195568012253ff998b28052d60145560115460125542600d5562000280640100000000620002ef810204565b6b1004c20e49aa3240785fcad260045560088054600160a060020a03191633179055604080516060810190915260278082526200173a60208301398051620002d1916009916020909101906200057f565b5062000624565b81810182811015620002e957600080fd5b92915050565b600e546200030d90600164010000000062000efb620002d882021704565b600e819055600f54908115156200032057fe5b0615156200033b576200033b64010000000062000346810204565b600019430140601355565b600d54600f5442919091039061025802808210156200043c5760006200039683620003818460646401000000006200109d6200050482021704565b9064010000000062000eda6200052c82021704565b90506000620003d16103e8620003bc84606464010000000062000f4b6200054f82021704565b90640100000000620010c26200056582021704565b9050620004306200041882620004036107d06012546200052c6401000000000262000eda179091906401000000009004565b906401000000006200109d6200050482021704565b6012549064010000000062000f4b6200054f82021704565b60125550620004d49050565b60006200045e82620003818560646401000000006200109d6200050482021704565b90506000620004846103e8620003bc84606464010000000062000f4b6200054f82021704565b9050620004ce620004b682620004036107d06012546200052c6401000000000262000eda179091906401000000009004565b6012549064010000000062000efb620002d882021704565b60125550505b42600d556010546012541015620004ec576010546012555b601154601254111562000500576011546012555b5050565b8181028215806200052057508183828115156200051d57fe5b04145b1515620002e957600080fd5b60008082116200053b57600080fd5b81838115156200054757fe5b049392505050565b6000828211156200055f57600080fd5b50900390565b60008183111562000578575080620002e9565b5090919050565b828054600181600116156101000203166002900490600052602060002090601f016020900481019282601f10620005c257805160ff1916838001178555620005f2565b82800160010185558215620005f2579182015b82811115620005f2578251825591602001919060010190620005d5565b506200060092915062000604565b5090565b6200062191905b808211156200060057600081556001016200060b565b90565b61110680620006346000396000f3fe608060405260043610610250576000357c0100000000000000000000000000000000000000000000000000000000900480636fd396d611610155578063a9059cbb116100cd578063cb9ae7071161009c578063d40170d711610081578063d40170d71461070f578063dc6e9cf914610724578063dd62ed3e1461073957610250565b8063cb9ae707146106e5578063cf70fa40146106fa57610250565b8063a9059cbb14610660578063b54f31db146106a6578063b5ade81b146106bb578063b6407769146106d057610250565b806387a2a9d6116101245780638ae0368b116101095780638ae0368b1461060057806395d89b411461061557806397566aa01461062a57610250565b806387a2a9d6146105d65780638a769d35146105eb57610250565b80636fd396d61461053057806370a082311461054557806381269a5614610585578063829965cc146105c157610250565b806323b872dd116101e8578063410e1b07116101b75780634ef376281161019c5780634ef37628146104f15780636de7410c146105065780636de9f32b1461051b57610250565b8063410e1b071461049e5780634d853ee5146104b357610250565b806323b872dd146103e457806327e235e314610434578063313ce5671461047457806332e997081461048957610250565b8063163aa00d11610224578063163aa00d1461037557806317da485f1461038a5780631801fbe51461039f57806318160ddd146103cf57610250565b8062e6e55314610255578063047fc9aa1461027c57806306fdde0314610291578063095ea7b31461031b575b600080fd5b34801561026157600080fd5b5061026a610781565b60408051918252519081900360200190f35b34801561028857600080fd5b5061026a610787565b34801561029d57600080fd5b506102a661078d565b6040805160208082528351818301528351919283929083019185019080838360005b838110156102e05781810151838201526020016102c8565b50505050905090810190601f16801561030d5780820380516001836020036101000a031916815260200191505b509250505060405180910390f35b34801561032757600080fd5b506103616004803603604081101561033e57600080fd5b5073ffffffffffffffffffffffffffffffffffffffff813516906020013561081b565b604080519115158252519081900360200190f35b34801561038157600080fd5b5061026a6108b9565b34801561039657600080fd5b5061026a6108bf565b3480156103ab57600080fd5b50610361600480360360408110156103c257600080fd5b50803590602001356108dd565b3480156103db57600080fd5b5061026a610a5e565b3480156103f057600080fd5b506103616004803603606081101561040757600080fd5b5073ffffffffffffffffffffffffffffffffffffffff813581169160208101359091169060400135610a64565b34801561044057600080fd5b5061026a6004803603602081101561045757600080fd5b503573ffffffffffffffffffffffffffffffffffffffff16610ba3565b34801561048057600080fd5b5061026a610bb5565b34801561049557600080fd5b5061026a610bbb565b3480156104aa57600080fd5b5061026a610bc1565b3480156104bf57600080fd5b506104c8610bc7565b6040805173ffffffffffffffffffffffffffffffffffffffff9092168252519081900360200190f35b3480156104fd57600080fd5b5061026a610be3565b34801561051257600080fd5b506102a6610be9565b34801561052757600080fd5b5061026a610c44565b34801561053c57600080fd5b506104c8610c4a565b34801561055157600080fd5b5061026a6004803603602081101561056857600080fd5b503573ffffffffffffffffffffffffffffffffffffffff16610c66565b34801561059157600080fd5b50610361600480360360808110156105a857600080fd5b5080359060208101359060408101359060600135610c8e565b3480156105cd57600080fd5b5061026a610ce8565b3480156105e257600080fd5b5061026a610cee565b3480156105f757600080fd5b5061026a610cf4565b34801561060c57600080fd5b5061026a610cfa565b34801561062157600080fd5b506102a6610d00565b34801561063657600080fd5b5061026a6004803603606081101561064d57600080fd5b5080359060208101359060400135610d5a565b34801561066c57600080fd5b506103616004803603604081101561068357600080fd5b5073ffffffffffffffffffffffffffffffffffffffff8135169060200135610da0565b3480156106b257600080fd5b5061026a610e78565b3480156106c757600080fd5b5061026a610e7e565b3480156106dc57600080fd5b5061026a610e84565b3480156106f157600080fd5b5061026a610e8a565b34801561070657600080fd5b5061026a610e90565b34801561071b57600080fd5b5061026a610e96565b34801561073057600080fd5b5061026a610e9c565b34801561074557600080fd5b5061026a6004803603604081101561075c57600080fd5b5073ffffffffffffffffffffffffffffffffffffffff81358116916020013516610ea2565b60075481565b60035481565b6000805460408051602060026001851615610100026000190190941693909304601f810184900484028201840190925281815292918301828280156108135780601f106107e857610100808354040283529160200191610813565b820191906000526020600020905b8154815290600101906020018083116107f657829003601f168201915b505050505081565b336000908152600a602052604081205482111561083757600080fd5b6000821161084457600080fd5b336000818152600b6020908152604080832073ffffffffffffffffffffffffffffffffffffffff881680855290835292819020869055805186815290519293927f8c5be1e5ebec7d5bd14f71427d1e84f3dd0314c0f7b2291e5b200ac8c7c3b925929181900390910190a35060015b92915050565b60165481565b60006108d8601254601154610eda90919063ffffffff16565b905090565b601354604080516020808201939093526c010000000000000000000000003302818301526054808201869052825180830390910181526074909101909152805191012060009082811461092f57600080fd5b60125481111561093e57600080fd5b6013546000908152601860205260409020805490829055801561096057600080fd5b600c546019541061096d57fe5b6014546019546109829163ffffffff610efb16565b60195560145460035461099a9163ffffffff610efb16565b600355601454336000908152600a60205260409020546109bf9163ffffffff610efb16565b336000818152600a6020526040902091909155601580547fffffffffffffffffffffffff000000000000000000000000000000000000000016909117905543601655610a09610f0b565b601454600e54601354604080519384526020840192909252828201525133917fcf6fbb9dcea7d07263ab4f5c3a92f53af33dffc421d9d121e1c74b307e68189d919081900360600190a2506001949350505050565b60035490565b73ffffffffffffffffffffffffffffffffffffffff83166000908152600a6020526040812054610a9a908363ffffffff610f4b16565b73ffffffffffffffffffffffffffffffffffffffff85166000908152600a6020908152604080832093909355600b815282822033835290522054610ae4908363ffffffff610f4b16565b73ffffffffffffffffffffffffffffffffffffffff8086166000908152600b602090815260408083203384528252808320949094559186168152600a9091522054610b35908363ffffffff610efb16565b73ffffffffffffffffffffffffffffffffffffffff8085166000818152600a602090815260409182902094909455805186815290519193928816927fddf252ad1be2c89b69c2b068fc378daa952ba7f163c4a11628f55a4df523b3ef92918290030190a35060019392505050565b600a6020526000908152604090205481565b60025481565b60125490565b600c5481565b60085473ffffffffffffffffffffffffffffffffffffffff1681565b60135490565b6009805460408051602060026001851615610100026000190190941693909304601f810184900484028201840190925281815292918301828280156108135780601f106107e857610100808354040283529160200191610813565b60195481565b60155473ffffffffffffffffffffffffffffffffffffffff1681565b73ffffffffffffffffffffffffffffffffffffffff166000908152600a602052604090205490565b6040805160208082018590526c010000000000000000000000003302828401526054808301889052835180840390910181526074909201909252805191012060009082811115610cdd57600080fd5b909314949350505050565b600e5481565b60115481565b60125481565b60135481565b60018054604080516020600284861615610100026000190190941693909304601f810184900484028201840190925281815292918301828280156108135780601f106107e857610100808354040283529160200191610813565b6040805160208082018490526c01000000000000000000000000330282840152605480830187905283518084039091018152607490920190925280519101209392505050565b6000808211610dae57600080fd5b336000908152600a6020526040902054610dce908363ffffffff610f4b16565b336000908152600a60205260408082209290925573ffffffffffffffffffffffffffffffffffffffff851681522054610e0d908363ffffffff610efb16565b73ffffffffffffffffffffffffffffffffffffffff84166000818152600a60209081526040918290209390935580518581529051919233927fddf252ad1be2c89b69c2b068fc378daa952ba7f163c4a11628f55a4df523b3ef9281900390910190a350600192915050565b60065481565b600f5481565b60045481565b600d5481565b60145481565b60055481565b60105481565b73ffffffffffffffffffffffffffffffffffffffff9182166000908152600b6020908152604080832093909416825291909152205490565b6000808211610ee857600080fd5b8183811515610ef357fe5b049392505050565b818101828110156108b357600080fd5b600e54610f1f90600163ffffffff610efb16565b600e819055600f5490811515610f3157fe5b061515610f4057610f40610f60565b600019430140601355565b600082821115610f5a57600080fd5b50900390565b600d54600f544291909103906102580280821015611008576000610f9b83610f8f84606463ffffffff61109d16565b9063ffffffff610eda16565b90506000610fc26103e8610fb684606463ffffffff610f4b16565b9063ffffffff6110c216565b9050610ffd610fee82610fe26107d0601254610eda90919063ffffffff16565b9063ffffffff61109d16565b6012549063ffffffff610f4b16565b6012555061106f9050565b600061101f82610f8f85606463ffffffff61109d16565b9050600061103a6103e8610fb684606463ffffffff610f4b16565b905061106961105a82610fe26107d0601254610eda90919063ffffffff16565b6012549063ffffffff610efb16565b60125550505b42600d556010546012541015611086576010546012555b6011546012541115611099576011546012555b5050565b8181028215806110b757508183828115156110b457fe5b04145b15156108b357600080fd5b6000818311156110d35750806108b3565b509091905056fea165627a7a72305820cc722a39a5e0f60b8b752067f3186b7a351c80d6984567f3452610330eb7a84a0029446973636f766572696e67206f7572206265737420467574757265732e204b6576696e20576164448af589b3048c463b59239e17ac1972be348bce3132e726a175bd7b8d82ff3bb744d2834c08394a087daa90004adfb89d8579ad4f011025216ede374f75e4f0",
  "source": "pragma solidity ^0.5.2;\n\n// ONLY FOR TESTING !!!\n// EticaReleaseProtocolTestPhase2: Same as EticaRelease contract but with initial supply > 21 million ETI and miner_aacount with ETI available to make tests easier\n// You can copy and paste EticaRelease code here but with only modifying constructor function so that miner_account has some ETI immediatly after deployment without having to mine \n// Done this to avoid to wait too long so that miner_account has mined a block and thus has ETI available, we need a lot of ETI as all tests of this file assume enough ETI and don't deal with mining tests\n\n\n// ----------------------------------------------------------------------------\n\n// Safe maths\n\n// ----------------------------------------------------------------------------\n\nlibrary SafeMath {\n\n    function add(uint a, uint b) internal pure returns (uint c) {\n\n        c = a + b;\n\n        require(c >= a);\n\n    }\n\n    function sub(uint a, uint b) internal pure returns (uint c) {\n\n        require(b <= a);\n\n        c = a - b;\n\n    }\n\n    function mul(uint a, uint b) internal pure returns (uint c) {\n\n        c = a * b;\n\n        require(a == 0 || c / a == b);\n\n    }\n\n    function div(uint a, uint b) internal pure returns (uint c) {\n\n        require(b > 0);\n\n        c = a / b;\n\n    }\n\n}\n\n\n\nlibrary ExtendedMath {\n\n\n    //return the smaller of the two inputs (a or b)\n    function limitLessThan(uint a, uint b) internal pure returns (uint c) {\n\n        if(a > b) return b;\n\n        return a;\n\n    }\n}\n\n\n\ncontract ERC20Interface {\n    function totalSupply() public view returns (uint);\n    function balanceOf(address tokenOwner) public view returns (uint balance);\n    function transfer(address to, uint tokens) public returns (bool success);\n\n\n    function allowance(address tokenOwner, address spender) public view returns (uint remaining);\n    function approve(address spender, uint tokens) public returns (bool success);\n    function transferFrom(address from, address to, uint tokens) public returns (bool success);\n\n    event Transfer(address indexed from, address indexed to, uint tokens);\n    event Approval(address indexed tokenOwner, address indexed spender, uint tokens);\n}\n\n\n\ncontract EticaToken is ERC20Interface{\n\n    using SafeMath for uint;\n    using ExtendedMath for uint;\n\n    string public name = \"Etica\";\n    string public symbol = \"ETI\";\n    uint public decimals = 18;\n\n    uint public supply;\n    // fixed inflation rate after etica supply has reached 21 Million\n    uint public inflationrate;\n    uint public  periodrewardtemp; // Amount of ETI issued per period during phase1\n\n    uint public PERIOD_CURATION_REWARD_RATIO = 20; // 20% of period reward will be used as curation reward\n    uint public PERIOD_EDITOR_REWARD_RATIO = 80; // 80% of period reward will be used as editor reward\n\n    // We don't want fake Satoshi again. Using it to prove founder's identity\n    address public founder;\n    string public foundermsgproof;\n\n    mapping(address => uint) public balances;\n\n    mapping(address => mapping(address => uint)) allowed;\n\n    //allowed[0x1111....][0x22222...] = 100;\n\n    // Mining system state variables\n    uint public _totalMiningSupply;\n\n\n\n     uint public latestDifficultyPeriodStarted;\n\n\n\n    uint public epochCount;//number of 'blocks' mined\n\n\n    uint public _BLOCKS_PER_READJUSTMENT = 2016;\n\n\n    //a little number\n    uint public  _MINIMUM_TARGET = 2**16;\n\n\n      //a big number is easier ; just find a solution that is smaller\n    //uint public  _MAXIMUM_TARGET = 2**224;  bitcoin uses 224\n    uint public  _MAXIMUM_TARGET = 2**242; // used for tests 243 much faster, 242 seems to be the limit where mining gets much harder\n    // uint public  _MAXIMUM_TARGET = 2**234; // used for prod\n\n\n    uint public miningTarget;\n\n    bytes32 public challengeNumber;   //generate a new one when a new reward is minted\n\n\n    uint public blockreward;\n\n\n    address public lastRewardTo;\n    uint public lastRewardEthBlockNumber;\n\n    bool locked = false;\n\n    mapping(bytes32 => bytes32) solutionForChallenge;\n\n    uint public tokensMinted;\n\n    // Mining system state variables\n\n\n\n\n    event Transfer(address indexed from, address indexed to, uint tokens);\n    event Approval(address indexed tokenOwner, address indexed spender, uint tokens);\n    event Mint(address indexed from, uint blockreward, uint epochCount, bytes32 newChallengeNumber);\n\n\n    constructor() public{\n      supply = 21000001 * (10**18); // initial supply equals 21000001 ETI\n      balances[address(this)] = balances[address(this)].add(1000000 * (10**18)); // 1 000 000 ETI as the default contract balance. To avoid any issue that could arise from negative contract balance because of significant numbers approximations\n      balances[0x5FBd856f7f0c79723100FF6e1450cC1464D3fffC] = balances[0x5FBd856f7f0c79723100FF6e1450cC1464D3fffC].add(100000 * (10**18)); // 100 000 ETI to miner_account replace address with your miner_account address\n      \n\n      // Loads the 19 900 001 ETI (21 000 000 - 1 100 000) to random wallet (here test_account8 of ganache):\n      balances[0xd13cCB6eA16e2cBE56F95745681Cc667828ecd4E] = balances[0xd13cCB6eA16e2cBE56F95745681Cc667828ecd4E].add(10000000 * (10**18)); // 10 000 000 ETI to random account1\n      \n      \n      // PHASE 1 (before 21 Million ETI has been reached) -->\n      // 10 500 000 ETI to be issued as periodrewardtemp for ETICA reward system\n      // 10 500 000 ETI to be MINED\n\n\n      // <--phase1--> periodrewardtemp:\n      // fixed Etica issued per period (7 days) during phase1 (before 21 Million ETI has been reached)\n      // The amount of reward will be twice of first rewards of phase 2\n      // Calculation of first rewards of phase 2:\n      // 21 000 000 * 0.26180339887498948482045868343656 = 549787,13763747791812296323521678 ETI (first year reward)\n      // 549787,13763747791812296323521678 / 52.1429 = 10543,854247413893706007207792754 ETI (first weeks reward of phase2)\n      // 10543,854247413893706007207792754 * 2 = 21087,708494827787412014415585507 ETI\n      periodrewardtemp = 21087708494827787412014; // 21087,708494827787412014415585507 ETI per period (7 days) will take about 9,5491502812526287948853291408588 years to reach 10 500 000 ETI\n\n\n      // <--phase1--> mining:\n      _totalMiningSupply = 10500000 * 10**uint(decimals);\n\n      if(locked) revert();\n      locked = true;\n\n      tokensMinted = 0;\n\n\n      // The amount of etica mined per 7 days will be twice of first rewards of phase 2\n      // Calculation of first rewards of phase 2:\n      // 21 000 000 * 0.26180339887498948482045868343656 = 549787,13763747791812296323521678 ETI (first year reward)\n      // 549787,13763747791812296323521678 / 52.1429 = 10543,854247413893706007207792754 ETI (first weeks reward of phase2)\n      // 10543,854247413893706007207792754 * 2 = 21087,708494827787412014415585507 ETI per 7 days\n      // 21087,708494827787412014415585507 ETI per 7 days = 20,920345728995820845252396414193 ETI per block (10 minutes)\n      blockreward = 20920345728995820845;\n\n      miningTarget = _MAXIMUM_TARGET;\n\n      latestDifficultyPeriodStarted = block.timestamp;\n\n      _startNewMiningEpoch();\n\n      // PHASE 1 <--\n\n      // --> PHASE 2\n      // Golden number power 2: 1,6180339887498948482045868343656 * 1,6180339887498948482045868343656 = 2.6180339887498948482045868343656;\n      // Thus yearly inflation target is 2.6180339887498948482045868343656%\n      // inflationrate calculation:\n      // Each Period is 7 days, so we need to get a weekly inflationrate from the yearlyinflationrate target: \n      // 1.026180339887498948482045868343656 ^(1 / 52.1429) = 1,0004957512263080183722688891602;\n      // 1,0004957512263080183722688891602 - 1 = 0,0004957512263080183722688891602;\n      // Hence weekly inflationrate is 0,04957512263080183722688891602%\n      inflationrate = 4957512263080183722688891602;  // (need to multiple by 10^(-31) to get 0,0004957512263080183722688891602;\n\n       // PHASE 2 <--\n\n\n       //The founder gets nothing! You must mine or earn the Etica ERC20 token\n       //balances[founder] = _totalMiningSupply;\n       //Transfer(address(0), founder, _totalMiningSupply);\n      founder = msg.sender;\n      foundermsgproof = \"Discovering our best Futures. Kevin Wad\";\n    }\n\n\n    function allowance(address tokenOwner, address spender) view public returns(uint){\n        return allowed[tokenOwner][spender];\n    }\n\n\n    //approve allowance\n    function approve(address spender, uint tokens) public returns(bool){\n        require(balances[msg.sender] >= tokens);\n        require(tokens > 0);\n\n        allowed[msg.sender][spender] = tokens;\n        emit Approval(msg.sender, spender, tokens);\n        return true;\n    }\n\n    //transfer tokens from the  owner account to the account that calls the function\n    function transferFrom(address from, address to, uint tokens) public returns(bool){\n\n      balances[from] = balances[from].sub(tokens);\n\n      allowed[from][msg.sender] = allowed[from][msg.sender].sub(tokens);\n\n      balances[to] = balances[to].add(tokens);\n\n      emit Transfer(from, to, tokens);\n\n      return true;\n    }\n\n    function totalSupply() public view returns (uint){\n        return supply;\n    }\n\n    function balanceOf(address tokenOwner) public view returns (uint balance){\n         return balances[tokenOwner];\n     }\n\n\n    function transfer(address to, uint tokens) public returns (bool success){\n         require(tokens > 0);\n\n         balances[msg.sender] = balances[msg.sender].sub(tokens);\n\n         balances[to] = balances[to].add(tokens);\n\n         emit Transfer(msg.sender, to, tokens);\n\n         return true;\n     }\n\n\n     // -------------  Mining system functions ---------------- //\n\n         function mint(uint256 nonce, bytes32 challenge_digest) public returns (bool success) {\n\n\n             //the PoW must contain work that includes a recent ethereum block hash (challenge number) and the msg.sender's address to prevent MITM attacks\n             bytes32 digest =  keccak256(abi.encodePacked(challengeNumber, msg.sender, nonce));\n\n             //the challenge digest must match the expected\n             if (digest != challenge_digest) revert();\n\n             //the digest must be smaller than the target\n             if(uint256(digest) > miningTarget) revert();\n\n\n             //only allow one reward for each challenge\n              bytes32 solution = solutionForChallenge[challengeNumber];\n              solutionForChallenge[challengeNumber] = digest;\n              if(solution != 0x0) revert();  //prevent the same answer from awarding twice\n\n\n             //Cannot mint more tokens than there are: maximum ETI ever mined: _totalMiningSupply + blockreward\n             assert(tokensMinted < _totalMiningSupply);\n\n             tokensMinted = tokensMinted.add(blockreward);\n             supply = supply.add(blockreward);\n             balances[msg.sender] = balances[msg.sender].add(blockreward);\n\n             //set readonly diagnostics data\n             lastRewardTo = msg.sender;\n             lastRewardEthBlockNumber = block.number;\n\n\n              _startNewMiningEpoch();\n\n               emit Mint(msg.sender, blockreward, epochCount, challengeNumber );\n\n            return true;\n\n         }\n\n\n     //a new 'block' to be mined\n     function _startNewMiningEpoch() internal {\n\n\n       epochCount = epochCount.add(1);\n\n       //every so often, readjust difficulty. Dont readjust when deploying\n       if(epochCount % _BLOCKS_PER_READJUSTMENT == 0)\n       {\n         _reAdjustDifficulty();\n       }\n\n\n       //make the latest ethereum block hash a part of the next challenge for PoW to prevent pre-mining future blocks\n       //do this last since this is a protection mechanism in the mint() function\n       challengeNumber = blockhash(block.number - 1);\n\n     }\n\n\n\n\n     //https://en.bitcoin.it/wiki/Difficulty#What_is_the_formula_for_difficulty.3F\n     //as of 2017 the bitcoin difficulty was up to 17 zeroes, it was only 8 in the early days\n\n     //readjust the target by up to 50 percent\n     function _reAdjustDifficulty() internal {\n\n          // should get as close as possible to (2016 * 10 minutes) seconds => 1 209 600 seconds\n         uint ethTimeSinceLastDifficultyPeriod = block.timestamp - latestDifficultyPeriodStarted;      \n\n         //we want miners to spend 10 minutes to mine each 'block'\n         uint targetTimePerDiffPeriod = _BLOCKS_PER_READJUSTMENT * 10 minutes; //Target is 1 209 600 seconds. (2016 * 10 minutes) seconds to mine _BLOCKS_PER_READJUSTMENT blocks of ETI.\n\n         //if there were less eth seconds-timestamp than expected\n         if( ethTimeSinceLastDifficultyPeriod < targetTimePerDiffPeriod )\n         {\n           uint excess_block_pct = (targetTimePerDiffPeriod.mul(100)).div( ethTimeSinceLastDifficultyPeriod );\n\n           uint excess_block_pct_extra = excess_block_pct.sub(100).limitLessThan(1000);\n           // If there were 5% more blocks mined than expected then this is 5.  If there were 100% more blocks mined than expected then this is 100.\n\n           //make it harder\n           miningTarget = miningTarget.sub(miningTarget.div(2000).mul(excess_block_pct_extra));   //by up to 50 %\n         }else{\n           uint shortage_block_pct = (ethTimeSinceLastDifficultyPeriod.mul(100)).div( targetTimePerDiffPeriod );\n\n           uint shortage_block_pct_extra = shortage_block_pct.sub(100).limitLessThan(1000); //always between 0 and 1000\n\n           //make it easier\n           miningTarget = miningTarget.add(miningTarget.div(2000).mul(shortage_block_pct_extra));   //by up to 50 %\n         }\n\n\n\n         latestDifficultyPeriodStarted = block.timestamp;\n\n         if(miningTarget < _MINIMUM_TARGET) //very difficult\n         {\n           miningTarget = _MINIMUM_TARGET;\n         }\n\n         if(miningTarget > _MAXIMUM_TARGET) //very easy\n         {\n           miningTarget = _MAXIMUM_TARGET;\n         }\n     }\n\n\n     //this is a recent ethereum block hash, used to prevent pre-mining future blocks\n     function getChallengeNumber() public view returns (bytes32) {\n         return challengeNumber;\n     }\n\n     //the number of zeroes the digest of the PoW solution requires.  Auto adjusts\n      function getMiningDifficulty() public view returns (uint) {\n         return _MAXIMUM_TARGET.div(miningTarget);\n     }\n\n     function getMiningTarget() public view returns (uint) {\n        return miningTarget;\n    }\n\n\n     //help debug mining software\n     function getMintDigest(uint256 nonce, bytes32 challenge_digest, bytes32 challenge_number) public view returns (bytes32 digesttest) {\n\n         bytes32 digest = keccak256(abi.encodePacked(challenge_number,msg.sender,nonce));\n\n         return digest;\n\n       }\n\n         //help debug mining software\n       function checkMintSolution(uint256 nonce, bytes32 challenge_digest, bytes32 challenge_number, uint testTarget) public view returns (bool success) {\n\n           bytes32 digest = keccak256(abi.encodePacked(challenge_number,msg.sender,nonce));\n\n           if(uint256(digest) > testTarget) revert();\n\n           return (digest == challenge_digest);\n\n         }\n\n\n// ------------------      Mining system functions   -------------------------  //\n\n// ------------------------------------------------------------------------\n\n// Don't accept ETH\n\n// ------------------------------------------------------------------------\n\nfunction () payable external {\n\n    revert();\n\n}\n\n}\n\n\n\n\ncontract EticaReleaseProtocolTestPhase2 is EticaToken {\n  /* --------- PROD -------------\nuint REWARD_INTERVAL = 7 days; // periods duration 7 jours\nuint STAKING_DURATION = 28 days; // default stake duration 28 jours\nuint ETICA_TO_BOSOM_RATIO = 1; //\nuint DEFAULT_VOTING_TIME = 28 days; // default stake duration 28 days\n     --------- PROD ------------- */\n\n/* --------- TESTING VALUES -------------*/\nuint public REWARD_INTERVAL = 1 minutes; // periods duration 7 jours\nuint public STAKING_DURATION = 4 minutes; // default stake duration 28 jours\nuint public ETICA_TO_BOSOM_RATIO = 1; //\nuint public DEFAULT_VOTING_TIME = 4 minutes; // default stake duration 28 days\n\nuint public PERIOD_CURATION_REWARD = 6000 * 10**uint(decimals); // 6 000 ETI per period\nuint public PERIOD_EDITOR_REWARD = 32000 * 10**uint(decimals); // 32 000 ETI per period\n/* --------- TESTING VALUES -------------*/\n\nuint public DISEASE_CREATION_AMOUNT = 100 * 10**uint(decimals); // 100 ETI amount to pay for creating a new disease. Necessary in order to avoid spam. Will create a function that periodically increase it in order to take into account inflation\nuint public PROPOSAL_DEFAULT_VOTE = 10 * 10**uint(decimals); // 10 ETI amount to pay for creating a new proposal. Necessary in order to avoid spam. Will create a function that periodically increase it in order to take into account inflation\n\n\nuint TIER_ONE_THRESHOLD = 50; // threshold for proposal to be accepted. 50 means 50 % 60 would mean 60%\n\nstruct Period{\n    uint id;\n    uint interval;\n    uint curation_sum; // used for proposals weight system\n    uint editor_sum; // used for proposals weight system\n    uint total_voters; // TOTAL nb of voters in this period\n    uint reward_for_curation; // total ETI used as Period reward for Curation\n    uint reward_for_editor; // total ETI used as Period reward for Editor\n}\n\n  struct Stake{\n      uint amount;\n      uint startTime;\n      uint endTime;\n  }\n\n  // -----------  PROPOSALS  ------------  //\n\n\n// Stuct used only inside Proposals as Proposals' s Targets.\n// The software has no independent Target structs with Target ids and details ...\n  struct Target{\n      string name;\n      string kind; // Example: GPCR, Enzyme, Protein Activity ...\n      uint status; // Example: Exploration, Validation, Fully Validated, Null ...\n      string freefield; // used by front end apps and communities to fit their needs and process\n  }\n\n  // Stuct used only inside Proposals as Proposals' s Compounds.\n  // The software has no independent Compounds structs with Compounds ids and details ...\n    struct Compound{\n        string name;\n        string kind; // Example: Small Organic Molecules, Large Protein Molecules ...\n        uint result; // Example: Failure, Success, Undertermined, Null ...\n        string freefield; // used by front end apps and communities to fit their needs and process\n    }\n\n\n// general information of Proposal:\n  struct Proposal{\n      uint id;\n      bytes32 proposed_release_hash; // Hash of \"raw_release_hash + name of Disease\"\n      bytes32 disease_id;\n      uint period_id;\n      address proposer; // account address of the proposer\n      string title; // Title of the Proposal\n      string description; // Description of the Proposal\n  }\n\n// main data of Proposal:\n  struct ProposalData{\n\n      uint starttime; // epoch time of the proposal\n      uint endtime;  // voting limite\n      uint finalized_time; // when first voteclm() was called\n      ProposalStatus status; // will be initialized with value ProposalStatus.Pending\n      ProposalStatus prestatus; // will be initialzed with value ProposalStatus.Pending\n      bool istie;  // will be initialized with value 0. if prop is tie it won't slash nor reward participants\n      uint nbvoters;\n      uint slashingratio; // will be initialized with value 0. solidity does not support float type. So will emulate float type by using uint\n      uint forvotes;\n      uint againstvotes;\n      uint lastcuration_weight; // will be initialized with value 0.\n      uint lasteditor_weight; // will be initialized with value 0.\n  }\n\n  struct ProposalIpfs{\n    // IPFS hashes of the files:\n    string raw_release_hash; // IPFS hash of the files of the proposal\n    string old_release_hash; // raw IPFS hash of the old version\n    string grandparent_hash; // raw IPFS hash of the grandparent\n  }\n\n  struct ProposalFreefield{\n    string firstfield;\n    string secondfield;\n    string thirdfield;\n  }\n\n\n  struct ProposalTenor{\n      Target[] targets;\n      Compound[] compounds;\n  }\n\n  // -----------  PROPOSALS  ------------  //\n\n  // -----------  VOTES  ----------------  //\n  struct Vote{\n    uint id; // not necessary, may remove this field\n    bytes32 proposal_hash; // proposed_release_hash of proposal\n    bool approve;\n    bool is_editor;\n    uint amount;\n    address voter; // address of the voter\n    uint timestamp; // epoch time of the vote\n    bool is_claimed; // keeps tarck of whether or not vote has been claimed to avoid double claim on same vote\n  }\n    // -----------  VOTES  ----------------  //\n\n  struct Disease{\n      bytes32 disease_hash;\n      string name;\n      string description;\n  }\n\n\nenum ProposalStatus { Rejected, Accepted, Pending, Singlevoter }\n\nmapping(uint => Period) public periods;\nuint public periodsCounter;\nmapping(uint => uint) public PeriodsIssued; // keeps track of which periods have already issued ETI\nuint public PeriodsIssuedCounter;\nmapping(uint => uint) public IntervalsPeriods; // keeps track of which intervals have already a period\nuint public IntervalsPeriodsCounter;\n\n\nmapping(uint => Disease) public diseases; // keeps track of which intervals have already a period\nuint public diseasesCounter;\nmapping(bytes32 => uint) public diseasesbyIds; // example:    [leiojej757575ero] => [0]  where leiojej757575ero is id of a Disease\nmapping(string => bytes32) private diseasesbyNames; // example:    [\"name of a disease\"] => [leiojej757575ero]  where leiojej757575ero is id of a Disease. Set visibility to private because mapping with strings as keys have issues when public visibility\n\n// -----------  PROPOSALS  ------------  //\nmapping(bytes32 => Proposal) public proposals;\nuint public proposalsCounter;\n\nmapping(bytes32 => ProposalData) public propsdatas;\nmapping(bytes32 => ProposalIpfs) public propsipfs;\nmapping(bytes32 => ProposalFreefield) public propsfreefields;\nmapping(bytes32 => ProposalTenor) private propstenors;\n// -----------  PROPOSALS  ------------  //\n\n// -----------  VOTES  ----------------  //\nmapping(bytes32 => mapping(address => Vote)) public votes;\n// -----------  VOTES  ----------------  //\n\nmapping(address => uint) public bosoms;\nmapping(address => mapping(uint => Stake)) public stakes;\nmapping(address => uint) public stakesCounters; // keeps track of how many stakes for each user\nmapping(address => uint) public stakesAmount; // keeps track of total amount of stakes for each user\n// stakes ----> slashing function will need to loop trough stakes. Can create issues for claiming votes:\n// will create a function to gather stakes when user has to much stakes.\n// The function will take a completion_time as parameter and will loop trough 50 indexes and will put all stakes with\n// lower completion_time into a  single new stake with parameter completion_time\n\n// Blocked ETI amount, user has votes with this amount in process and can't retrieve this amount before the system knows if the user has to be slahed\nmapping(address => uint) public blockedeticas;\n\nevent CreatedPeriod(uint period_id, uint interval);\nevent IssuedPeriod(uint period_id, uint periodreward, uint periodrwdcuration, uint periodrwdeditor);\nevent NewStake(address indexed staker, uint amount);\nevent StakeClaimed(address indexed staker, uint stakeidx);\nevent NewDisease(uint diseaseindex, string title, string description);\nevent NewProposal(bytes32 proposed_release_hash, bytes32 diseasehash, string title, string description);\nevent VoteClaimed(address indexed voter, uint amount, bytes32 proposal_hash);\n\n\n\n// -------------  Reward system functions ---------------- //\n\nfunction issue(uint _id) internal returns (bool success) {\n  // we check whether there is at least one period\n  require(periodsCounter > 0);\n\n  // we check that the period exists\n  require(_id > 0 && _id <= periodsCounter);\n\n  // we retrieve the period\n  Period storage period = periods[_id];\n\n  // we check that the period is legit and has been retrieved\n  require(period.id != 0);\n\n\n//only allow one issuance for each period\nuint rwd = PeriodsIssued[period.id];\nif(rwd != 0x0) revert();  //prevent the same period from issuing twice\n\nuint _periodsupply;\n\n// era 2 (after 21 000 000 ETI has been reached)\nif(supply >= 21000000 * 10**(decimals)){\n _periodsupply = uint((supply * inflationrate).div(10**(31)));\n}\n// era 1 (before 21 000 000 ETI has been reached)\nelse {\n  _periodsupply = periodrewardtemp;\n}\n\n// update Period Reward:\nperiod.reward_for_curation = uint((_periodsupply * PERIOD_CURATION_REWARD_RATIO) / 100);\nperiod.reward_for_editor = uint((_periodsupply * PERIOD_EDITOR_REWARD_RATIO) / 100);\n\n\nsupply = supply + _periodsupply;\nbalances[address(this)] = balances[address(this)].add(_periodsupply);\nPeriodsIssued[period.id] = _periodsupply;\nPeriodsIssuedCounter = PeriodsIssuedCounter + 1;\n\nemit IssuedPeriod(periodsCounter, _periodsupply, period.reward_for_curation, period.reward_for_editor);\n\nreturn true;\n\n}\n\n// --- WARNING this function should be internal, will be called by propose proposal function and by constructor for first call\n// let public for testing only\n// create a period\nfunction newPeriod() public {\n\n  uint _interval = uint((block.timestamp).div(REWARD_INTERVAL));\n\n  //only allow one period for each interval\n  uint rwd = IntervalsPeriods[_interval];\n  if(rwd != 0x0) revert();  //prevent the same interval from having 2 periods\n\n\n  periodsCounter++;\n\n  // store this interval period\n  periods[periodsCounter] = Period(\n    periodsCounter,\n    _interval,\n    0x0, //_curation_sum\n    0x0, //_editor_sum\n    0x0, //_total_voters; // TOTAL nb of voters in this period\n    0x0, //_reward_for_curation\n    0x0 //_reward_for_editor\n  );\n\n  // an interval cannot have 2 Periods\n  IntervalsPeriods[_interval] = periodsCounter;\n  IntervalsPeriodsCounter++;\n\n  // issue ETI for this Period Reward\n  issue(periodsCounter);\n\n  emit CreatedPeriod(periodsCounter, _interval);\n}\n\n\n\n\n// -------------  Reward system functions ---------------- //\n\n\n// ------- STAKING ---------- //\n// Stake etica in exchange for bosom\nfunction eticatobosoms(address _staker, uint _amount) public returns (bool success){\n  require(msg.sender == _staker);\n  require(_amount > 0); // even if transfer require amount > 0 I prefer checking for more security and very few more gas\n  // transfer _amount ETI from staker wallet to contract balance:\n  transfer(address(this), _amount);\n\n  // Get bosoms and add Stake\n  bosomget(_staker, _amount);\n\n\n  return true;\n\n}\n\n\n\n// ----  Get bosoms and add Stake ------  //\n\n// Only contract must be able to call this function:\nfunction bosomget (address _staker, uint _amount) internal {\n\naddStake(_staker, _amount);\n\nuint newBosoms = _amount * ETICA_TO_BOSOM_RATIO;\nbosoms[_staker] = bosoms[_staker].add(newBosoms);\n\n}\n\n\nfunction addStake(address _staker, uint _amount) internal returns (bool success) {\n\n    require(_amount > 0); // may not be necessary as _amount is uint but I let it for better security\n    stakesCounters[_staker] = stakesCounters[_staker] + 1; // notice that first stake will have the index of 1 thus not 0 !\n\n\n    // increase variable that keeps track of total value of user's stakes\n    stakesAmount[_staker] = stakesAmount[_staker].add(_amount);\n\n    uint endTime = block.timestamp + STAKING_DURATION;\n\n    // store this stake in _staker's stakes with the index stakesCounters[_staker]\n    stakes[_staker][stakesCounters[_staker]] = Stake(\n      _amount, // stake amount\n      block.timestamp, // startTime\n      endTime // endTime\n    );\n\n    emit NewStake(_staker, _amount);\n\n    return true;\n}\n\n\n\nfunction splitStake(address _staker, uint _amount, uint _startTime, uint _endTime) internal returns (bool success) {\n\n    require(_amount > 0); // may not be necessary as _amount is uint but I let it for better security\n    stakesCounters[_staker] = stakesCounters[_staker] + 1; // notice that first stake will have the index of 1 thus not 0 !\n\n    // store this stake in _staker's stakes with the index stakesCounters[_staker]\n    stakes[_staker][stakesCounters[_staker]] = Stake(\n      _amount, // stake amount\n      _startTime, // startTime\n      _endTime // endTime\n    );\n\n    emit NewStake(_staker, _amount);\n\n    return true;\n}\n\n// ----  Get bosoms and add Stake ------  //\n\n\n// ----  Redeem a Stake ------  //\n\nfunction stakeclmidx (uint _stakeidx) public {\n\n  // we check that the stake exists\n  require(_stakeidx > 0 && _stakeidx <= stakesCounters[msg.sender]);\n\n  // we retrieve the stake\n  Stake storage _stake = stakes[msg.sender][_stakeidx];\n\n  // The stake must be over\n  require(block.timestamp > _stake.endTime);\n\n  // the amount to be unstake must be less or equal to the amount of ETI currently marked as blocked in blockedeticas as they need to go through the clmpropbyhash before being unstaked !\n  require(_stake.amount <= stakesAmount[msg.sender] - blockedeticas[msg.sender]);\n\n  // transfer back ETI from contract to staker:\n  balances[address(this)] = balances[address(this)].sub(_stake.amount);\n\n  balances[msg.sender] = balances[msg.sender].add(_stake.amount);\n\n  emit Transfer(address(this), msg.sender, _stake.amount);\n  emit StakeClaimed(msg.sender, _stakeidx);\n\n  // deletes the stake\n  _deletestake(msg.sender, _stakeidx);\n\n}\n\nfunction _deletestake(address _staker,uint _index) internal {\n  // we check that the stake exists\n  require(_index > 0 && _index <= stakesCounters[_staker]);\n\n  // decrease variable that keeps track of total value of user's stakes\n  stakesAmount[_staker] = stakesAmount[_staker].sub(stakes[_staker][_index].amount);\n\n  // replace value of stake to be deleted by value of last stake\n  stakes[_staker][_index] = stakes[_staker][stakesCounters[_staker]];\n\n  // remove last stake\n  stakes[_staker][stakesCounters[_staker]] = Stake(\n    0x0, // amount\n    0x0, // startTime\n    0x0 // endTime\n    );\n\n  // updates stakesCounter of _staker\n  stakesCounters[_staker] = stakesCounters[_staker] - 1;\n\n}\n\n// ----  Redeem a Stake ------  //\n\n\nfunction stakescount(address _staker) public view returns (uint slength){\n  return stakesCounters[_staker];\n}\n\n// ------- STAKING ---------- //\n\n\n\n\n\nfunction createdisease(string memory _name, string memory _description) public {\n\n\n  // --- REQUIRE PAYMENT FOR ADDING A DISEASE TO CREATE A BARRIER TO ENTRY AND AVOID SPAM --- //\n\n  // make sure the user has enough ETI to create a disease\n  require(balances[msg.sender] >= DISEASE_CREATION_AMOUNT);\n  // transfer DISEASE_CREATION_AMOUNT ETI from user wallet to contract wallet:\n  transfer(address(this), DISEASE_CREATION_AMOUNT);\n\n  // --- REQUIRE PAYMENT FOR ADDING A DISEASE TO CREATE A BARRIER TO ENTRY AND AVOID SPAM --- //\n\n\n  bytes32 _diseasehash = keccak256(abi.encode(_name));\n\n  diseasesCounter = diseasesCounter + 1; // notice that first disease will have the index of 1 thus not 0 !\n\n  //check: if the disease is new we continue, otherwise we exit\n   if(diseasesbyIds[_diseasehash] != 0x0) revert();  //prevent the same disease from being created twice. The software manages diseases uniqueness based on their unique english name. Note that even the first disease will nott have index of 0 thus should pass this check\n\n\n   // store this stake in _staker's stakes with the index stakesCounters[_staker]\n   diseases[diseasesCounter] = Disease(\n     _diseasehash,\n     _name,\n     _description\n   );\n\n   // Updates diseasesbyIds and diseasesbyNames mappings:\n   diseasesbyIds[_diseasehash] = diseasesCounter;\n   diseasesbyNames[_name] = _diseasehash;\n\n   emit NewDisease(diseasesCounter, _name, _description);\n\n}\n\n\n\nfunction propose(bytes32 _diseasehash, string memory _title, string memory _description, string memory raw_release_hash,\n  string memory old_release_hash, string memory grandparent_hash) public {\n\n    //check if the disease exits\n     require(diseasesbyIds[_diseasehash] > 0 && diseasesbyIds[_diseasehash] <= diseasesCounter);\n     if(diseases[diseasesbyIds[_diseasehash]].disease_hash != _diseasehash) revert(); // second check not necessary but I decided to add it as the gas cost value for security is worth it\n\n\n     bytes32 _proposed_release_hash = keccak256(abi.encode(raw_release_hash, _diseasehash));\n\n     proposalsCounter = proposalsCounter + 1; // notice that first proposal will have the index of 1 thus not 0 !\n\n\n     // store this disease in diseases mapping.\n     // ------- Warning ----\n     // Check that proposal does not already exist\n     // only allow one proposal for each {raw_release_hash,  _diseasehash} combinasion\n      bytes32 existing_proposal = proposals[_proposed_release_hash].proposed_release_hash;\n      if(existing_proposal != 0x0 || proposals[_proposed_release_hash].id != 0) revert();  //prevent the same raw_release_hash from being submited twice on same proposal. Double check for better security and slightly higher gas cost even though one would be enough !\n\n     uint _current_interval = uint((block.timestamp).div(REWARD_INTERVAL));\n\n      // Create new Period if this current interval did not have its Period created yet\n      if(IntervalsPeriods[_current_interval] == 0x0){\n        newPeriod();\n      }\n\n     Proposal storage proposal = proposals[_proposed_release_hash];\n     // ------- Warning ----\n\n       proposal.id = proposalsCounter;\n       proposal.disease_id = _diseasehash; // _diseasehash has already been checked to equal diseases[diseasesbyIds[_diseasehash]].disease_hash\n       proposal.period_id = IntervalsPeriods[_current_interval];\n       proposal.proposed_release_hash = _proposed_release_hash; // Hash of \"raw_release_hash + name of Disease\",\n       proposal.proposer = msg.sender;\n       proposal.title = _title;\n       proposal.description = _description;\n\n\n       // Proposal IPFS:\n       ProposalIpfs storage proposalipfs = propsipfs[_proposed_release_hash];\n       proposalipfs.raw_release_hash = raw_release_hash;\n       proposalipfs.old_release_hash = old_release_hash;\n       proposalipfs.grandparent_hash = grandparent_hash;\n\n\n       //  Proposal Data:\n       ProposalData storage proposaldata = propsdatas[_proposed_release_hash];\n       //starttime,\n       //endtime,\n       //finalized_time,\n       proposaldata.status = ProposalStatus.Pending;\n       proposaldata.istie = false;\n       proposaldata.prestatus = ProposalStatus.Pending;\n       proposaldata.nbvoters = 0;\n       proposaldata.slashingratio = 0;\n       proposaldata.forvotes = 0;\n       proposaldata.againstvotes = 0;\n       proposaldata.lastcuration_weight = 0;\n       proposaldata.lasteditor_weight = 0;\n       proposaldata.starttime = block.timestamp;\n       proposaldata.endtime = block.timestamp + DEFAULT_VOTING_TIME;\n\n\n  // --- REQUIRE DEFAULT VOTE TO CREATE A BARRIER TO ENTRY AND AVOID SPAM --- //\n\n  defaultvote(_proposed_release_hash);\n\n  // --- REQUIRE DEFAULT VOTE TO CREATE A BARRIER TO ENTRY AND AVOID SPAM --- //\n\n\n    emit NewProposal(_proposed_release_hash, _diseasehash, _title, _description);\n\n}\n\n\n\n function defaultvote(bytes32 _proposed_release_hash) internal {\n\n   require(bosoms[msg.sender] >= PROPOSAL_DEFAULT_VOTE); // may not be necessary as wil be handled by safemath sub function: bosoms[msg.sender].sub(PROPOSAL_DEFAULT_VOTE);\n\n   //check if the proposal exists and that we get the right proposal:\n   Proposal storage proposal = proposals[_proposed_release_hash];\n   require(proposal.id > 0 && proposal.proposed_release_hash == _proposed_release_hash);\n\n   // voterIsProposer can be used for the Linking Reward attribution:\n   bool voterIsProposer = false;\n   if (msg.sender == proposal.proposer) {\n   voterIsProposer = true;\n   }\n\n   ProposalData storage proposaldata = propsdatas[_proposed_release_hash];\n    // Verify voting is still in progress\n    require( block.timestamp < proposaldata.endtime);\n\n\n    // default vote can't be called twice on same proposal:\n    // can vote for proposal only if default vote hasn't changed prestatus of Proposal yet. Thus can default vote only if default vote has not occured yet\n    require(proposaldata.prestatus == ProposalStatus.Pending);\n\n    // Consume bosom:\n    bosoms[msg.sender] = bosoms[msg.sender].sub(PROPOSAL_DEFAULT_VOTE);\n\n\n   // get Period of Proposal:\n   Period storage period = periods[proposal.period_id];\n\n\n    // Block Eticas in eticablkdtbl to prevent user from unstaking before eventual slash\n    blockedeticas[msg.sender] = blockedeticas[msg.sender].add(PROPOSAL_DEFAULT_VOTE);\n\n\n    // store vote:\n    Vote storage vote = votes[proposal.proposed_release_hash][msg.sender];\n    vote.proposal_hash = proposal.proposed_release_hash;\n    vote.approve = true;\n    vote.is_editor = voterIsProposer;\n    vote.amount = PROPOSAL_DEFAULT_VOTE;\n    vote.voter = msg.sender;\n    vote.timestamp = block.timestamp;\n\n\n\n      // UPDATE PROPOSAL:\n      proposaldata.slashingratio = 100;\n      proposaldata.forvotes = PROPOSAL_DEFAULT_VOTE;\n      proposaldata.nbvoters = 1;\n      proposaldata.prestatus = ProposalStatus.Singlevoter;\n      proposaldata.lastcuration_weight = PROPOSAL_DEFAULT_VOTE;\n      proposaldata.lasteditor_weight = PROPOSAL_DEFAULT_VOTE;\n\n      // UPDATE PERIOD:\n      period.curation_sum = period.curation_sum + PROPOSAL_DEFAULT_VOTE;\n      period.editor_sum = period.editor_sum + PROPOSAL_DEFAULT_VOTE;\n\n }\n\n\n function votebyhash(bytes32 _proposed_release_hash, bool _approved, uint _amount) public {\n\n//check if the proposal exists and that we get the right proposal:\nProposal storage proposal = proposals[_proposed_release_hash];\nrequire(proposal.id > 0 && proposal.proposed_release_hash == _proposed_release_hash);\n\n bool voterIsProposer = false;\n if (msg.sender == proposal.proposer) {\n voterIsProposer = true;\n }\n\n\nProposalData storage proposaldata = propsdatas[_proposed_release_hash];\n // Verify voting is still in progress\n require( block.timestamp < proposaldata.endtime);\n\n require(proposaldata.prestatus != ProposalStatus.Pending); // can vote for proposal only if default vote has changed prestatus of Proposal. Thus can vote only if default vote occured as supposed to\n\nuint _old_proposal_curationweight = proposaldata.lastcuration_weight;\nuint _old_proposal_editorweight = proposaldata.lasteditor_weight;\n\n // Consume bosom:\n require(bosoms[msg.sender] >= _amount); // may not be necessary as handled by safemath sub function\n bosoms[msg.sender] = bosoms[msg.sender].sub(_amount);\n\n\n// get Period of Proposal:\nPeriod storage period = periods[proposal.period_id];\n\n\n // Block Eticas in eticablkdtbl to prevent user from unstaking before eventual slash\n blockedeticas[msg.sender] = blockedeticas[msg.sender].add(_amount);\n\n\n // store vote:\n Vote storage vote = votes[proposal.proposed_release_hash][msg.sender];\n vote.proposal_hash = proposal.proposed_release_hash;\n vote.approve = _approved;\n vote.is_editor = voterIsProposer;\n vote.amount = _amount;\n vote.voter = msg.sender;\n vote.timestamp = block.timestamp;\n\n proposaldata.nbvoters = proposaldata.nbvoters + 1;\n\n     // PROPOSAL VAR UPDATE\n     if(_approved){\n      proposaldata.forvotes = proposaldata.forvotes + _amount;\n     }\n     else {\n       proposaldata.againstvotes = proposaldata.againstvotes + _amount;\n     }\n\n\n     // Determine slashing conditions\n     bool _isapproved = false;\n     bool _istie = false;\n     uint totalVotes = proposaldata.forvotes + proposaldata.againstvotes;\n     uint _forvotes_numerator = proposaldata.forvotes * 100; // (newproposal_forvotes / totalVotes) will give a number between 0 and 1. Multiply by 100 to stare it as uint\n     uint _forvotesdiff_numerator = (proposaldata.forvotes - proposaldata.againstvotes) * 100; // ((newproposal_forvotes - proposaldata.againstvotes) / totalVotes) will give a number between 0 and 1. Multiply by 100 to stare it as uint\n     uint _againstvotesdiff_numerator = (proposaldata.againstvotes - proposaldata.forvotes) * 100; // ((proposaldata.againstvotes - newproposal_forvotes) / totalVotes) will give a number between 0 and 1. Multiply by 100 to stare it as uint\n\n     if ((_forvotes_numerator / totalVotes) >= TIER_ONE_THRESHOLD){\n    _isapproved = true;\n    if ((_forvotes_numerator / totalVotes) == TIER_ONE_THRESHOLD){\n        _istie = true;\n    }\n    }\n\n    proposaldata.istie = _istie;\n\n    if (_isapproved){\n    proposaldata.slashingratio = _forvotesdiff_numerator / totalVotes;\n    }\n    else{\n    proposaldata.slashingratio = _againstvotesdiff_numerator / totalVotes;\n    }\n\n    // Make sure no weird bugs cause the slash reward to under/overflow\n     require(proposaldata.slashingratio >=0 && proposaldata.slashingratio <= 100);\n\n\n         // Proposal and Period new weight\n         if (_istie) {\n         proposaldata.prestatus =  ProposalStatus.Rejected;\n         proposaldata.lastcuration_weight = 0;\n         proposaldata.lasteditor_weight = 0;\n         // Proposal tied, remove proposal curation and editor sum\n         period.curation_sum = period.curation_sum - _old_proposal_curationweight;\n         period.editor_sum = period.editor_sum - _old_proposal_editorweight;\n         }\n         else {\n             // Proposal approved, strengthen curation sum\n         if (_isapproved){\n             proposaldata.prestatus =  ProposalStatus.Accepted;\n             proposaldata.lastcuration_weight = proposaldata.forvotes * proposaldata.nbvoters;\n             proposaldata.lasteditor_weight = proposaldata.forvotes * proposaldata.nbvoters;\n             // Proposal approved, replace proposal curation and editor sum with forvotes\n             period.curation_sum = period.curation_sum - _old_proposal_curationweight + proposaldata.lastcuration_weight;\n             period.editor_sum = period.editor_sum - _old_proposal_editorweight + proposaldata.lasteditor_weight;\n         }\n         else{\n             proposaldata.prestatus =  ProposalStatus.Rejected;\n             proposaldata.lastcuration_weight = proposaldata.againstvotes * proposaldata.nbvoters;\n             proposaldata.lasteditor_weight = 0;\n             // Proposal rejected, replace proposal curation sum with againstvotes and remove proposal editor sum\n             period.curation_sum = period.curation_sum - _old_proposal_curationweight + proposaldata.lastcuration_weight;\n             period.editor_sum = period.editor_sum - _old_proposal_editorweight;\n         }\n         }\n\n  }\n\n\n  function clmpropbyhash(bytes32 _proposed_release_hash) public {\n\n   //check if the proposal exists and that we get the right proposal:\n   Proposal storage proposal = proposals[_proposed_release_hash];\n   require(proposal.id > 0 && proposal.proposed_release_hash == _proposed_release_hash);\n\n\n   // verify voting still in progress\n   ProposalData storage proposaldata = propsdatas[_proposed_release_hash];\n   // Verify voting period is over\n   require( block.timestamp > proposaldata.endtime);\n\n   \n    // we check that the vote exists\n    Vote storage vote = votes[proposal.proposed_release_hash][msg.sender];\n    require(vote.proposal_hash == _proposed_release_hash);\n    \n    // make impossible to claim same vote twice\n    require(!vote.is_claimed);\n    vote.is_claimed = true;\n\n\n\n  \n    // De-Block Eticas from eticablkdtbl to enable user to unstake these Eticas\n    blockedeticas[msg.sender] = blockedeticas[msg.sender].sub(vote.amount);\n\n\n    // get Period of Proposal:\n    Period storage period = periods[proposal.period_id];\n\n   uint _current_interval = uint((block.timestamp).div(REWARD_INTERVAL));\n\n   // Check if Period is ready for claims or if needs to wait more\n   uint _min_intervals = uint((DEFAULT_VOTING_TIME).div(REWARD_INTERVAL) + 1); // Minimum intervals before claimable\n   require(_current_interval >= period.interval + _min_intervals); // Period not ready for claims yet. Need to wait more !\n\n  // if status equals pending this is the first claim for this proposal\n  if (proposaldata.status == ProposalStatus.Pending) {\n\n  // SET proposal new status\n  if (proposaldata.prestatus == ProposalStatus.Accepted || proposaldata.prestatus == ProposalStatus.Singlevoter) {\n            proposaldata.status = ProposalStatus.Accepted;\n  }\n  else {\n    proposaldata.status = ProposalStatus.Rejected;\n  }\n\n  proposaldata.finalized_time = block.timestamp;\n\n  // NEW STATUS AFTER FIRST VOTE DONE\n\n  }\n\n\n  // only slash and reward if prop is not tie:\n  if (!proposaldata.istie) {\n\n\n   // voter has voted wrongly and needs to be slashed\n   \n   // convert boolean to enum format for making comparasion with proposaldata.status possible:\n   ProposalStatus voterChoice = ProposalStatus.Rejected;\n   if(vote.approve){\n     voterChoice = ProposalStatus.Accepted;\n   }\n\n   if(voterChoice != proposaldata.status) {\n     // slash loosers\n     uint _slashRemaining = vote.amount;\n     uint _extraTimeInt = uint(STAKING_DURATION * proposaldata.slashingratio / 100);\n\n     // get the stakes\n\n         for(uint _stakeidx = 1; _stakeidx <= stakesCounters[msg.sender];  _stakeidx++) {\n      //if stake is too small and will only be able to take into account a part of the slash:\n      if(stakes[msg.sender][_stakeidx].amount <= _slashRemaining) {\n \n        stakes[msg.sender][_stakeidx].endTime = stakes[msg.sender][_stakeidx].endTime + _extraTimeInt;\n        stakes[msg.sender][_stakeidx].startTime = block.timestamp;\n        _slashRemaining = _slashRemaining - stakes[msg.sender][_stakeidx].amount;\n        \n       if(_slashRemaining == 0){\n         break;\n       }\n\n\n      }\n      else {\n        // The slash amount does not fill a full stake, so the stake needs to be split\n        uint newAmount = stakes[msg.sender][_stakeidx].amount - _slashRemaining;\n        uint oldTimestamp = stakes[msg.sender][_stakeidx].startTime;\n        uint oldCompletionTime = stakes[msg.sender][_stakeidx].endTime;\n\n        // slash amount split in _slashRemaining and newAmount\n        stakes[msg.sender][_stakeidx].amount = _slashRemaining; // only slash the part of the stake that amounts to _slashRemaining\n        stakes[msg.sender][_stakeidx].endTime = stakes[msg.sender][_stakeidx].endTime + _extraTimeInt; // slash the stake\n\n        if(newAmount > 0){\n          // create a new stake with the rest of what remained from original stake that was split in 2\n          splitStake(msg.sender, newAmount, oldTimestamp, oldCompletionTime);\n        }\n\n        break;\n\n\n\n\n      }\n\n\n\n\n\n    }\n\n    // the slash is over\n     \n\n   }\n   else {\n\n   uint _reward_amount = 0;\n\n   // check beforte diving by 0\n   require(period.curation_sum > 0); // period curation sum pb !\n   _reward_amount += (vote.amount * proposaldata.nbvoters * period.reward_for_curation) / (period.curation_sum);\n\n       // if voter is editor and proposal accepted:\n    if (vote.is_editor && proposaldata.status == ProposalStatus.Accepted){\n          // check before dividing by 0\n          require( period.editor_sum > 0); // Period editor sum pb !\n          _reward_amount += (proposaldata.lasteditor_weight * period.reward_for_editor) / (period.editor_sum);\n    }\n\n    require(_reward_amount <= period.reward_for_curation + period.reward_for_editor); // \"System logic error. Too much ETICA calculated for reward.\"\n\n    // SEND ETICA AS REWARD\n    balances[address(this)] = balances[address(this)].sub(_reward_amount);\n    balances[msg.sender] = balances[msg.sender].add(_reward_amount);\n\n    emit Transfer(address(this), msg.sender, _reward_amount);\n    emit VoteClaimed(msg.sender, _reward_amount, _proposed_release_hash);\n    //transferFrom(address(this), msg.sender, _reward_amount);\n\n\n   }\n\n\n  }   // end bracket if proposaldata.istie not true\n\n\n  }\n\n\n\n\n\n\n// get bosoms balance of user:\nfunction bosomsOf(address tokenOwner) public view returns (uint _bosoms){\n     return bosoms[tokenOwner];\n }\n\n function getdiseasehashbyName(string memory _name) public view returns (bytes32 _diseasehash){\n     return diseasesbyNames[_name];\n }\n\n\n}",
  "sourcePath": "/mnt/d/linux/ethereum/etica/contracts/EticaReleaseProtocolTestPhase2.sol",
  "compiler": {
    "name": "solc",
    "version": "0.5.2+commit.1df8f40c.Emscripten.clang"
  },
  "schemaVersion": "3.0.9",
  "updatedAt": "2019-07-17T08:08:59.600Z",
  "devdoc": {
    "methods": {}
  },
  "userdoc": {
    "methods": {}
  }
}