{
  "contractName": "EticaToken",
  "abi": [
    {
      "constant": true,
      "inputs": [],
      "name": "supply",
      "outputs": [
        {
          "name": "",
          "type": "uint256"
        }
      ],
      "payable": false,
      "stateMutability": "view",
      "type": "function"
    },
    {
      "constant": true,
      "inputs": [],
      "name": "name",
      "outputs": [
        {
          "name": "",
          "type": "string"
        }
      ],
      "payable": false,
      "stateMutability": "view",
      "type": "function"
    },
    {
      "constant": true,
      "inputs": [
        {
          "name": "",
          "type": "address"
        }
      ],
      "name": "balances",
      "outputs": [
        {
          "name": "",
          "type": "uint256"
        }
      ],
      "payable": false,
      "stateMutability": "view",
      "type": "function"
    },
    {
      "constant": true,
      "inputs": [],
      "name": "decimals",
      "outputs": [
        {
          "name": "",
          "type": "uint256"
        }
      ],
      "payable": false,
      "stateMutability": "view",
      "type": "function"
    },
    {
      "constant": true,
      "inputs": [],
      "name": "maxsupply",
      "outputs": [
        {
          "name": "",
          "type": "uint256"
        }
      ],
      "payable": false,
      "stateMutability": "view",
      "type": "function"
    },
    {
      "constant": true,
      "inputs": [],
      "name": "founder",
      "outputs": [
        {
          "name": "",
          "type": "address"
        }
      ],
      "payable": false,
      "stateMutability": "view",
      "type": "function"
    },
    {
      "constant": true,
      "inputs": [],
      "name": "centuryreward",
      "outputs": [
        {
          "name": "",
          "type": "uint256"
        }
      ],
      "payable": false,
      "stateMutability": "view",
      "type": "function"
    },
    {
      "constant": true,
      "inputs": [],
      "name": "weeklyreward",
      "outputs": [
        {
          "name": "",
          "type": "uint256"
        }
      ],
      "payable": false,
      "stateMutability": "view",
      "type": "function"
    },
    {
      "constant": true,
      "inputs": [],
      "name": "symbol",
      "outputs": [
        {
          "name": "",
          "type": "string"
        }
      ],
      "payable": false,
      "stateMutability": "view",
      "type": "function"
    },
    {
      "inputs": [],
      "payable": false,
      "stateMutability": "nonpayable",
      "type": "constructor"
    },
    {
      "anonymous": false,
      "inputs": [
        {
          "indexed": true,
          "name": "from",
          "type": "address"
        },
        {
          "indexed": true,
          "name": "to",
          "type": "address"
        },
        {
          "indexed": false,
          "name": "tokens",
          "type": "uint256"
        }
      ],
      "name": "Transfer",
      "type": "event"
    },
    {
      "anonymous": false,
      "inputs": [
        {
          "indexed": true,
          "name": "tokenOwner",
          "type": "address"
        },
        {
          "indexed": true,
          "name": "spender",
          "type": "address"
        },
        {
          "indexed": false,
          "name": "tokens",
          "type": "uint256"
        }
      ],
      "name": "Approval",
      "type": "event"
    },
    {
      "constant": true,
      "inputs": [
        {
          "name": "tokenOwner",
          "type": "address"
        },
        {
          "name": "spender",
          "type": "address"
        }
      ],
      "name": "allowance",
      "outputs": [
        {
          "name": "",
          "type": "uint256"
        }
      ],
      "payable": false,
      "stateMutability": "view",
      "type": "function"
    },
    {
      "constant": false,
      "inputs": [
        {
          "name": "spender",
          "type": "address"
        },
        {
          "name": "tokens",
          "type": "uint256"
        }
      ],
      "name": "approve",
      "outputs": [
        {
          "name": "",
          "type": "bool"
        }
      ],
      "payable": false,
      "stateMutability": "nonpayable",
      "type": "function"
    },
    {
      "constant": false,
      "inputs": [
        {
          "name": "from",
          "type": "address"
        },
        {
          "name": "to",
          "type": "address"
        },
        {
          "name": "tokens",
          "type": "uint256"
        }
      ],
      "name": "transferFrom",
      "outputs": [
        {
          "name": "",
          "type": "bool"
        }
      ],
      "payable": false,
      "stateMutability": "nonpayable",
      "type": "function"
    },
    {
      "constant": true,
      "inputs": [],
      "name": "totalSupply",
      "outputs": [
        {
          "name": "",
          "type": "uint256"
        }
      ],
      "payable": false,
      "stateMutability": "view",
      "type": "function"
    },
    {
      "constant": true,
      "inputs": [
        {
          "name": "tokenOwner",
          "type": "address"
        }
      ],
      "name": "balanceOf",
      "outputs": [
        {
          "name": "balance",
          "type": "uint256"
        }
      ],
      "payable": false,
      "stateMutability": "view",
      "type": "function"
    },
    {
      "constant": false,
      "inputs": [
        {
          "name": "to",
          "type": "address"
        },
        {
          "name": "tokens",
          "type": "uint256"
        }
      ],
      "name": "transfer",
      "outputs": [
        {
          "name": "success",
          "type": "bool"
        }
      ],
      "payable": false,
      "stateMutability": "nonpayable",
      "type": "function"
    }
  ],
  "bytecode": "0x60806040526040805190810160405280600581526020017f45746963610000000000000000000000000000000000000000000000000000008152506000908051906020019061004f92919061025e565b506040805190810160405280600381526020017f45544900000000000000000000000000000000000000000000000000000000008152506001908051906020019061009b92919061025e565b5060126002553480156100ad57600080fd5b506b033b2e3c9fd0803ce80000006004819055506b01ff39c9307583e5277000006003819055506b013bf4736f5afc57c0900000600581905550690f83174389d9e2d3eda260068190555033600760006101000a81548173ffffffffffffffffffffffffffffffffffffffff021916908373ffffffffffffffffffffffffffffffffffffffff160217905550606460086003540281151561014a57fe5b0460086000600760009054906101000a900473ffffffffffffffffffffffffffffffffffffffff1673ffffffffffffffffffffffffffffffffffffffff1673ffffffffffffffffffffffffffffffffffffffff1681526020019081526020016000208190555060086000600760009054906101000a900473ffffffffffffffffffffffffffffffffffffffff1673ffffffffffffffffffffffffffffffffffffffff1673ffffffffffffffffffffffffffffffffffffffff1681526020019081526020016000205460035403600860003073ffffffffffffffffffffffffffffffffffffffff1673ffffffffffffffffffffffffffffffffffffffff16815260200190815260200160002081905550610303565b828054600181600116156101000203166002900490600052602060002090601f016020900481019282601f1061029f57805160ff19168380011785556102cd565b828001600101855582156102cd579182015b828111156102cc5782518255916020019190600101906102b1565b5b5090506102da91906102de565b5090565b61030091905b808211156102fc5760008160009055506001016102e4565b5090565b90565b610cf1806103126000396000f3fe608060405234801561001057600080fd5b5060043610610112576000357c0100000000000000000000000000000000000000000000000000000000900480634b6406d1116100b4578063945f3a8311610083578063945f3a831461041657806395d89b4114610434578063a9059cbb146104b7578063dd62ed3e1461051d57610112565b80634b6406d1146103385780634d853ee51461035657806370a08231146103a05780637a750ef2146103f857610112565b806318160ddd116100f057806318160ddd1461021e57806323b872dd1461023c57806327e235e3146102c2578063313ce5671461031a57610112565b8063047fc9aa1461011757806306fdde0314610135578063095ea7b3146101b8575b600080fd5b61011f610595565b6040518082815260200191505060405180910390f35b61013d61059b565b6040518080602001828103825283818151815260200191508051906020019080838360005b8381101561017d578082015181840152602081019050610162565b50505050905090810190601f1680156101aa5780820380516001836020036101000a031916815260200191505b509250505060405180910390f35b610204600480360360408110156101ce57600080fd5b81019080803573ffffffffffffffffffffffffffffffffffffffff16906020019092919080359060200190929190505050610639565b604051808215151515815260200191505060405180910390f35b610226610788565b6040518082815260200191505060405180910390f35b6102a86004803603606081101561025257600080fd5b81019080803573ffffffffffffffffffffffffffffffffffffffff169060200190929190803573ffffffffffffffffffffffffffffffffffffffff16906020019092919080359060200190929190505050610792565b604051808215151515815260200191505060405180910390f35b610304600480360360208110156102d857600080fd5b81019080803573ffffffffffffffffffffffffffffffffffffffff16906020019092919050505061099c565b6040518082815260200191505060405180910390f35b6103226109b4565b6040518082815260200191505060405180910390f35b6103406109ba565b6040518082815260200191505060405180910390f35b61035e6109c0565b604051808273ffffffffffffffffffffffffffffffffffffffff1673ffffffffffffffffffffffffffffffffffffffff16815260200191505060405180910390f35b6103e2600480360360208110156103b657600080fd5b81019080803573ffffffffffffffffffffffffffffffffffffffff1690602001909291905050506109e6565b6040518082815260200191505060405180910390f35b610400610a2f565b6040518082815260200191505060405180910390f35b61041e610a35565b6040518082815260200191505060405180910390f35b61043c610a3b565b6040518080602001828103825283818151815260200191508051906020019080838360005b8381101561047c578082015181840152602081019050610461565b50505050905090810190601f1680156104a95780820380516001836020036101000a031916815260200191505b509250505060405180910390f35b610503600480360360408110156104cd57600080fd5b81019080803573ffffffffffffffffffffffffffffffffffffffff16906020019092919080359060200190929190505050610ad9565b604051808215151515815260200191505060405180910390f35b61057f6004803603604081101561053357600080fd5b81019080803573ffffffffffffffffffffffffffffffffffffffff169060200190929190803573ffffffffffffffffffffffffffffffffffffffff169060200190929190505050610c3e565b6040518082815260200191505060405180910390f35b60035481565b60008054600181600116156101000203166002900480601f0160208091040260200160405190810160405280929190818152602001828054600181600116156101000203166002900480156106315780601f1061060657610100808354040283529160200191610631565b820191906000526020600020905b81548152906001019060200180831161061457829003601f168201915b505050505081565b600081600860003373ffffffffffffffffffffffffffffffffffffffff1673ffffffffffffffffffffffffffffffffffffffff168152602001908152602001600020541015151561068957600080fd5b60008211151561069857600080fd5b81600960003373ffffffffffffffffffffffffffffffffffffffff1673ffffffffffffffffffffffffffffffffffffffff16815260200190815260200160002060008573ffffffffffffffffffffffffffffffffffffffff1673ffffffffffffffffffffffffffffffffffffffff168152602001908152602001600020819055508273ffffffffffffffffffffffffffffffffffffffff163373ffffffffffffffffffffffffffffffffffffffff167f8c5be1e5ebec7d5bd14f71427d1e84f3dd0314c0f7b2291e5b200ac8c7c3b925846040518082815260200191505060405180910390a36001905092915050565b6000600354905090565b600081600960008673ffffffffffffffffffffffffffffffffffffffff1673ffffffffffffffffffffffffffffffffffffffff16815260200190815260200160002060008573ffffffffffffffffffffffffffffffffffffffff1673ffffffffffffffffffffffffffffffffffffffff168152602001908152602001600020541015151561081f57600080fd5b81600860008673ffffffffffffffffffffffffffffffffffffffff1673ffffffffffffffffffffffffffffffffffffffff168152602001908152602001600020541015151561086d57600080fd5b81600860008673ffffffffffffffffffffffffffffffffffffffff1673ffffffffffffffffffffffffffffffffffffffff1681526020019081526020016000206000828254039250508190555081600860008573ffffffffffffffffffffffffffffffffffffffff1673ffffffffffffffffffffffffffffffffffffffff1681526020019081526020016000206000828254019250508190555081600960008673ffffffffffffffffffffffffffffffffffffffff1673ffffffffffffffffffffffffffffffffffffffff16815260200190815260200160002060008573ffffffffffffffffffffffffffffffffffffffff1673ffffffffffffffffffffffffffffffffffffffff16815260200190815260200160002060008282540392505081905550600190509392505050565b60086020528060005260406000206000915090505481565b60025481565b60045481565b600760009054906101000a900473ffffffffffffffffffffffffffffffffffffffff1681565b6000600860008373ffffffffffffffffffffffffffffffffffffffff1673ffffffffffffffffffffffffffffffffffffffff168152602001908152602001600020549050919050565b60055481565b60065481565b60018054600181600116156101000203166002900480601f016020809104026020016040519081016040528092919081815260200182805460018160011615610100020316600290048015610ad15780601f10610aa657610100808354040283529160200191610ad1565b820191906000526020600020905b815481529060010190602001808311610ab457829003601f168201915b505050505081565b600081600860003373ffffffffffffffffffffffffffffffffffffffff1673ffffffffffffffffffffffffffffffffffffffff1681526020019081526020016000205410158015610b2a5750600082115b1515610b3557600080fd5b81600860008573ffffffffffffffffffffffffffffffffffffffff1673ffffffffffffffffffffffffffffffffffffffff1681526020019081526020016000206000828254019250508190555081600860003373ffffffffffffffffffffffffffffffffffffffff1673ffffffffffffffffffffffffffffffffffffffff168152602001908152602001600020600082825403925050819055508273ffffffffffffffffffffffffffffffffffffffff163373ffffffffffffffffffffffffffffffffffffffff167fddf252ad1be2c89b69c2b068fc378daa952ba7f163c4a11628f55a4df523b3ef846040518082815260200191505060405180910390a36001905092915050565b6000600960008473ffffffffffffffffffffffffffffffffffffffff1673ffffffffffffffffffffffffffffffffffffffff16815260200190815260200160002060008373ffffffffffffffffffffffffffffffffffffffff1673ffffffffffffffffffffffffffffffffffffffff1681526020019081526020016000205490509291505056fea165627a7a72305820f57c334f57b66696d407cb64cd79c38108ef9979f2be79b7131435ee1e2b043f0029",
  "source": "pragma solidity ^0.5.2;\r\n// ----------------------------------------------------------------------------\r\n//this ICO smart contract has been compiled and tested with the Solidity Version 0.5.2\r\n//There are some minor changes comparing to ICO contract compiled with versions < 0.5.0\r\n// ----------------------------------------------------------------------------\r\n\r\ncontract ERC20Interface {\r\n    function totalSupply() public view returns (uint);\r\n    function balanceOf(address tokenOwner) public view returns (uint balance);\r\n    function transfer(address to, uint tokens) public returns (bool success);\r\n\r\n\r\n    function allowance(address tokenOwner, address spender) public view returns (uint remaining);\r\n    function approve(address spender, uint tokens) public returns (bool success);\r\n    function transferFrom(address from, address to, uint tokens) public returns (bool success);\r\n\r\n    event Transfer(address indexed from, address indexed to, uint tokens);\r\n    event Approval(address indexed tokenOwner, address indexed spender, uint tokens);\r\n}\r\n\r\ncontract EticaToken is ERC20Interface{\r\n    string public name = \"Etica\";\r\n    string public symbol = \"ETI\";\r\n    uint public decimals = 18;\r\n\r\n    uint public supply;\r\n    uint public maxsupply;\r\n    uint public centuryreward; // Amount of ETI issued every 100 years\r\n    uint public weeklyreward; // Amount of ETI issued every week\r\n    address public founder;\r\n\r\n    mapping(address => uint) public balances;\r\n\r\n    mapping(address => mapping(address => uint)) allowed;\r\n\r\n    //allowed[0x1111....][0x22222...] = 100;\r\n\r\n\r\n    event Transfer(address indexed from, address indexed to, uint tokens);\r\n    event Approval(address indexed tokenOwner, address indexed spender, uint tokens);\r\n\r\n\r\n    constructor() public{\r\n      maxsupply = 1000000000 * (10**18); // 1 Billion ETI\r\n      supply = 618033980 * (10**18); // initial supply equals 618033980 ETI fibonacci golden ratio\r\n      centuryreward = 381966020 * (10**18); // 381966020 ETI issued per century\r\n      weeklyreward = 73253697051755847871906; // 381966020 ETI per century equals 73253,697051755847871905858707513 ETI Issued each week : (centuryreward / (100 * 52,1429));\r\n      founder = msg.sender;\r\n      balances[founder] = supply * 8 / 100;\r\n      balances[address(this)] = supply - balances[founder];\r\n    }\r\n\r\n\r\n    function allowance(address tokenOwner, address spender) view public returns(uint){\r\n        return allowed[tokenOwner][spender];\r\n    }\r\n\r\n\r\n    //approve allowance\r\n    function approve(address spender, uint tokens) public returns(bool){\r\n        require(balances[msg.sender] >= tokens);\r\n        require(tokens > 0);\r\n\r\n        allowed[msg.sender][spender] = tokens;\r\n        emit Approval(msg.sender, spender, tokens);\r\n        return true;\r\n    }\r\n\r\n    //transfer tokens from the  owner account to the account that calls the function\r\n    function transferFrom(address from, address to, uint tokens) public returns(bool){\r\n        require(allowed[from][to] >= tokens);\r\n        require(balances[from] >= tokens);\r\n\r\n        balances[from] -= tokens;\r\n        balances[to] += tokens;\r\n\r\n\r\n        allowed[from][to] -= tokens;\r\n\r\n        return true;\r\n    }\r\n\r\n    function totalSupply() public view returns (uint){\r\n        return supply;\r\n    }\r\n\r\n    function balanceOf(address tokenOwner) public view returns (uint balance){\r\n         return balances[tokenOwner];\r\n     }\r\n\r\n\r\n    function transfer(address to, uint tokens) public returns (bool success){\r\n         require(balances[msg.sender] >= tokens && tokens > 0);\r\n\r\n         balances[to] += tokens;\r\n         balances[msg.sender] -= tokens;\r\n         emit Transfer(msg.sender, to, tokens);\r\n         return true;\r\n     }\r\n}\r\n\r\n\r\ncontract EticaBosoms is EticaToken{\r\n    address public admin;\r\n\r\n\r\n    //starting with solidity version 0.5.0 only a payable address has the transfer() member function\r\n    //it's mandatory to declare the variable payable\r\n    address payable public deposit;\r\n\r\n    //token price in wei: 1ETI = 0.001 ETHER, 1 ETHER = 1000 ETI\r\n    uint tokenPrice = 1000000000000000;\r\n\r\n    // 618033980 ETI fibonacci golden ratio\r\n    uint public hardCap = 618033980000000000000000; // 618033980 ETI  equals 618033.980 Ether equals 618033980000000000000000 in wei\r\n\r\n    uint public raisedAmount;\r\n\r\n    uint public saleStart = now;\r\n    uint public saleEnd = now + 604800; //one week\r\n    uint public coinTradeStart = saleEnd + 604800; //transferable in a week after salesEnd\r\n\r\n    uint public maxInvestment = 5000000000000000000;\r\n    uint public minInvestment = 10000000000000000;\r\n\r\n    enum State { beforeStart, running, afterEnd, halted}\r\n    State public icoState;\r\n\r\n\r\n    modifier onlyAdmin(){\r\n        require(msg.sender == admin);\r\n        _;\r\n    }\r\n\r\n    event Invest(address investor, uint value, uint tokens);\r\n\r\n\r\n    //in solidity version > 0.5.0 the deposit argument must be payable\r\n    constructor(address payable _deposit) public{\r\n        deposit = _deposit;\r\n        admin = msg.sender;\r\n        icoState = State.beforeStart;\r\n    }\r\n\r\n    //emergency stop\r\n    function halt() public onlyAdmin{\r\n        icoState = State.halted;\r\n    }\r\n\r\n    //restart\r\n    function unhalt() public onlyAdmin{\r\n        icoState = State.running;\r\n    }\r\n\r\n\r\n    //only the admin can change the deposit address\r\n    //in solidity version > 0.5.0 the deposit argument must be payable\r\n    function changeDepositAddress(address payable newDeposit) public onlyAdmin{\r\n        deposit = newDeposit;\r\n    }\r\n\r\n\r\n    //returns ico state\r\n    function getCurrentState() public view returns(State){\r\n        if(icoState == State.halted){\r\n            return State.halted;\r\n        }else if(block.timestamp < saleStart){\r\n            return State.beforeStart;\r\n        }else if(block.timestamp >= saleStart && block.timestamp <= saleEnd){\r\n            return State.running;\r\n        }else{\r\n            return State.afterEnd;\r\n        }\r\n    }\r\n\r\n\r\n    function invest() payable public returns(bool){\r\n        //invest only in running\r\n        icoState = getCurrentState();\r\n        require(icoState == State.running);\r\n\r\n        require(msg.value >= minInvestment && msg.value <= maxInvestment);\r\n\r\n        uint tokens = msg.value / tokenPrice;\r\n\r\n        //hardCap not reached\r\n        require(raisedAmount + msg.value <= hardCap);\r\n\r\n        raisedAmount += msg.value;\r\n\r\n        //add tokens to investor balance from founder balance\r\n        balances[msg.sender] += tokens;\r\n        balances[founder] -= tokens;\r\n\r\n        deposit.transfer(msg.value);//transfer eth to the deposit address\r\n\r\n        //emit event\r\n        emit Invest(msg.sender, msg.value, tokens);\r\n\r\n        return true;\r\n\r\n\r\n    }\r\n\r\n    //the payable function must be declared external in solidity versions > 0.5.0\r\n    function () payable external{\r\n        invest();\r\n    }\r\n\r\n\r\n\r\n    function burn() public returns(bool){\r\n        icoState = getCurrentState();\r\n        require(icoState == State.afterEnd);\r\n        balances[founder] = 0;\r\n\r\n    }\r\n\r\n\r\n    function transfer(address to, uint value) public returns(bool){\r\n        require(block.timestamp > coinTradeStart);\r\n        super.transfer(to, value);\r\n    }\r\n\r\n    function transferFrom(address _from, address _to, uint _value) public returns(bool){\r\n        require(block.timestamp > coinTradeStart);\r\n        super.transferFrom(_from, _to, _value);\r\n    }\r\n\r\n}\r\n",
  "sourcePath": "/mnt/d/linux/ethereum/etica/contracts/EticaBosoms.sol",
  "compiler": {
    "name": "solc",
    "version": "0.5.2+commit.1df8f40c.Emscripten.clang"
  },
  "schemaVersion": "3.0.1",
  "updatedAt": "2019-04-30T15:18:07.288Z",
  "devdoc": {
    "methods": {}
  },
  "userdoc": {
    "methods": {}
  }
}