{
  "contractName": "EticaToken",
  "abi": [
    {
      "constant": true,
      "inputs": [],
      "name": "supply",
      "outputs": [
        {
          "name": "",
          "type": "uint256"
        }
      ],
      "payable": false,
      "stateMutability": "view",
      "type": "function",
      "signature": "0x047fc9aa"
    },
    {
      "constant": true,
      "inputs": [],
      "name": "name",
      "outputs": [
        {
          "name": "",
          "type": "string"
        }
      ],
      "payable": false,
      "stateMutability": "view",
      "type": "function",
      "signature": "0x06fdde03"
    },
    {
      "constant": true,
      "inputs": [],
      "name": "lastRewardEthBlockNumber",
      "outputs": [
        {
          "name": "",
          "type": "uint256"
        }
      ],
      "payable": false,
      "stateMutability": "view",
      "type": "function",
      "signature": "0x163aa00d"
    },
    {
      "constant": true,
      "inputs": [
        {
          "name": "",
          "type": "address"
        }
      ],
      "name": "balances",
      "outputs": [
        {
          "name": "",
          "type": "uint256"
        }
      ],
      "payable": false,
      "stateMutability": "view",
      "type": "function",
      "signature": "0x27e235e3"
    },
    {
      "constant": true,
      "inputs": [],
      "name": "rewardEra",
      "outputs": [
        {
          "name": "",
          "type": "uint256"
        }
      ],
      "payable": false,
      "stateMutability": "view",
      "type": "function",
      "signature": "0x2d38bf7a"
    },
    {
      "constant": true,
      "inputs": [],
      "name": "decimals",
      "outputs": [
        {
          "name": "",
          "type": "uint256"
        }
      ],
      "payable": false,
      "stateMutability": "view",
      "type": "function",
      "signature": "0x313ce567"
    },
    {
      "constant": true,
      "inputs": [],
      "name": "_totalSupply",
      "outputs": [
        {
          "name": "",
          "type": "uint256"
        }
      ],
      "payable": false,
      "stateMutability": "view",
      "type": "function",
      "signature": "0x3eaaf86b"
    },
    {
      "constant": true,
      "inputs": [],
      "name": "founder",
      "outputs": [
        {
          "name": "",
          "type": "address"
        }
      ],
      "payable": false,
      "stateMutability": "view",
      "type": "function",
      "signature": "0x4d853ee5"
    },
    {
      "constant": true,
      "inputs": [],
      "name": "maxSupplyForEra",
      "outputs": [
        {
          "name": "",
          "type": "uint256"
        }
      ],
      "payable": false,
      "stateMutability": "view",
      "type": "function",
      "signature": "0x4fa972e1"
    },
    {
      "constant": true,
      "inputs": [],
      "name": "foundermsgproof",
      "outputs": [
        {
          "name": "",
          "type": "string"
        }
      ],
      "payable": false,
      "stateMutability": "view",
      "type": "function",
      "signature": "0x6de7410c"
    },
    {
      "constant": true,
      "inputs": [],
      "name": "tokensMinted",
      "outputs": [
        {
          "name": "",
          "type": "uint256"
        }
      ],
      "payable": false,
      "stateMutability": "view",
      "type": "function",
      "signature": "0x6de9f32b"
    },
    {
      "constant": true,
      "inputs": [],
      "name": "lastRewardTo",
      "outputs": [
        {
          "name": "",
          "type": "address"
        }
      ],
      "payable": false,
      "stateMutability": "view",
      "type": "function",
      "signature": "0x6fd396d6"
    },
    {
      "constant": true,
      "inputs": [],
      "name": "epochCount",
      "outputs": [
        {
          "name": "",
          "type": "uint256"
        }
      ],
      "payable": false,
      "stateMutability": "view",
      "type": "function",
      "signature": "0x829965cc"
    },
    {
      "constant": true,
      "inputs": [],
      "name": "_MAXIMUM_TARGET",
      "outputs": [
        {
          "name": "",
          "type": "uint256"
        }
      ],
      "payable": false,
      "stateMutability": "view",
      "type": "function",
      "signature": "0x87a2a9d6"
    },
    {
      "constant": true,
      "inputs": [],
      "name": "miningTarget",
      "outputs": [
        {
          "name": "",
          "type": "uint256"
        }
      ],
      "payable": false,
      "stateMutability": "view",
      "type": "function",
      "signature": "0x8a769d35"
    },
    {
      "constant": true,
      "inputs": [],
      "name": "challengeNumber",
      "outputs": [
        {
          "name": "",
          "type": "bytes32"
        }
      ],
      "payable": false,
      "stateMutability": "view",
      "type": "function",
      "signature": "0x8ae0368b"
    },
    {
      "constant": true,
      "inputs": [],
      "name": "symbol",
      "outputs": [
        {
          "name": "",
          "type": "string"
        }
      ],
      "payable": false,
      "stateMutability": "view",
      "type": "function",
      "signature": "0x95d89b41"
    },
    {
      "constant": true,
      "inputs": [],
      "name": "_BLOCKS_PER_READJUSTMENT",
      "outputs": [
        {
          "name": "",
          "type": "uint256"
        }
      ],
      "payable": false,
      "stateMutability": "view",
      "type": "function",
      "signature": "0xb5ade81b"
    },
    {
      "constant": true,
      "inputs": [],
      "name": "inflationrate",
      "outputs": [
        {
          "name": "",
          "type": "uint256"
        }
      ],
      "payable": false,
      "stateMutability": "view",
      "type": "function",
      "signature": "0xb6407769"
    },
    {
      "constant": true,
      "inputs": [],
      "name": "lastRewardAmount",
      "outputs": [
        {
          "name": "",
          "type": "uint256"
        }
      ],
      "payable": false,
      "stateMutability": "view",
      "type": "function",
      "signature": "0xbafedcaa"
    },
    {
      "constant": true,
      "inputs": [],
      "name": "latestDifficultyPeriodStarted",
      "outputs": [
        {
          "name": "",
          "type": "uint256"
        }
      ],
      "payable": false,
      "stateMutability": "view",
      "type": "function",
      "signature": "0xcb9ae707"
    },
    {
      "constant": true,
      "inputs": [],
      "name": "periodrewardtemp",
      "outputs": [
        {
          "name": "",
          "type": "int256"
        }
      ],
      "payable": false,
      "stateMutability": "view",
      "type": "function",
      "signature": "0xd40170d7"
    },
    {
      "constant": true,
      "inputs": [],
      "name": "_MINIMUM_TARGET",
      "outputs": [
        {
          "name": "",
          "type": "uint256"
        }
      ],
      "payable": false,
      "stateMutability": "view",
      "type": "function",
      "signature": "0xdc6e9cf9"
    },
    {
      "inputs": [],
      "payable": false,
      "stateMutability": "nonpayable",
      "type": "constructor",
      "signature": "constructor"
    },
    {
      "payable": true,
      "stateMutability": "payable",
      "type": "fallback"
    },
    {
      "anonymous": false,
      "inputs": [
        {
          "indexed": true,
          "name": "from",
          "type": "address"
        },
        {
          "indexed": true,
          "name": "to",
          "type": "address"
        },
        {
          "indexed": false,
          "name": "tokens",
          "type": "uint256"
        }
      ],
      "name": "Transfer",
      "type": "event",
      "signature": "0xddf252ad1be2c89b69c2b068fc378daa952ba7f163c4a11628f55a4df523b3ef"
    },
    {
      "anonymous": false,
      "inputs": [
        {
          "indexed": true,
          "name": "tokenOwner",
          "type": "address"
        },
        {
          "indexed": true,
          "name": "spender",
          "type": "address"
        },
        {
          "indexed": false,
          "name": "tokens",
          "type": "uint256"
        }
      ],
      "name": "Approval",
      "type": "event",
      "signature": "0x8c5be1e5ebec7d5bd14f71427d1e84f3dd0314c0f7b2291e5b200ac8c7c3b925"
    },
    {
      "anonymous": false,
      "inputs": [
        {
          "indexed": true,
          "name": "from",
          "type": "address"
        },
        {
          "indexed": false,
          "name": "reward_amount",
          "type": "uint256"
        },
        {
          "indexed": false,
          "name": "epochCount",
          "type": "uint256"
        },
        {
          "indexed": false,
          "name": "newChallengeNumber",
          "type": "bytes32"
        }
      ],
      "name": "Mint",
      "type": "event",
      "signature": "0xcf6fbb9dcea7d07263ab4f5c3a92f53af33dffc421d9d121e1c74b307e68189d"
    },
    {
      "constant": true,
      "inputs": [
        {
          "name": "tokenOwner",
          "type": "address"
        },
        {
          "name": "spender",
          "type": "address"
        }
      ],
      "name": "allowance",
      "outputs": [
        {
          "name": "",
          "type": "uint256"
        }
      ],
      "payable": false,
      "stateMutability": "view",
      "type": "function",
      "signature": "0xdd62ed3e"
    },
    {
      "constant": false,
      "inputs": [
        {
          "name": "spender",
          "type": "address"
        },
        {
          "name": "tokens",
          "type": "uint256"
        }
      ],
      "name": "approve",
      "outputs": [
        {
          "name": "",
          "type": "bool"
        }
      ],
      "payable": false,
      "stateMutability": "nonpayable",
      "type": "function",
      "signature": "0x095ea7b3"
    },
    {
      "constant": false,
      "inputs": [
        {
          "name": "from",
          "type": "address"
        },
        {
          "name": "to",
          "type": "address"
        },
        {
          "name": "tokens",
          "type": "uint256"
        }
      ],
      "name": "transferFrom",
      "outputs": [
        {
          "name": "",
          "type": "bool"
        }
      ],
      "payable": false,
      "stateMutability": "nonpayable",
      "type": "function",
      "signature": "0x23b872dd"
    },
    {
      "constant": true,
      "inputs": [],
      "name": "totalSupply",
      "outputs": [
        {
          "name": "",
          "type": "uint256"
        }
      ],
      "payable": false,
      "stateMutability": "view",
      "type": "function",
      "signature": "0x18160ddd"
    },
    {
      "constant": true,
      "inputs": [
        {
          "name": "tokenOwner",
          "type": "address"
        }
      ],
      "name": "balanceOf",
      "outputs": [
        {
          "name": "balance",
          "type": "uint256"
        }
      ],
      "payable": false,
      "stateMutability": "view",
      "type": "function",
      "signature": "0x70a08231"
    },
    {
      "constant": false,
      "inputs": [
        {
          "name": "to",
          "type": "address"
        },
        {
          "name": "tokens",
          "type": "uint256"
        }
      ],
      "name": "transfer",
      "outputs": [
        {
          "name": "success",
          "type": "bool"
        }
      ],
      "payable": false,
      "stateMutability": "nonpayable",
      "type": "function",
      "signature": "0xa9059cbb"
    },
    {
      "constant": false,
      "inputs": [
        {
          "name": "nonce",
          "type": "uint256"
        },
        {
          "name": "challenge_digest",
          "type": "bytes32"
        }
      ],
      "name": "mint",
      "outputs": [
        {
          "name": "success",
          "type": "bool"
        }
      ],
      "payable": false,
      "stateMutability": "nonpayable",
      "type": "function",
      "signature": "0x1801fbe5"
    },
    {
      "constant": true,
      "inputs": [],
      "name": "getChallengeNumber",
      "outputs": [
        {
          "name": "",
          "type": "bytes32"
        }
      ],
      "payable": false,
      "stateMutability": "view",
      "type": "function",
      "signature": "0x4ef37628"
    },
    {
      "constant": true,
      "inputs": [],
      "name": "getMiningDifficulty",
      "outputs": [
        {
          "name": "",
          "type": "uint256"
        }
      ],
      "payable": false,
      "stateMutability": "view",
      "type": "function",
      "signature": "0x17da485f"
    },
    {
      "constant": true,
      "inputs": [],
      "name": "getMiningTarget",
      "outputs": [
        {
          "name": "",
          "type": "uint256"
        }
      ],
      "payable": false,
      "stateMutability": "view",
      "type": "function",
      "signature": "0x32e99708"
    },
    {
      "constant": true,
      "inputs": [],
      "name": "getMiningReward",
      "outputs": [
        {
          "name": "",
          "type": "uint256"
        }
      ],
      "payable": false,
      "stateMutability": "view",
      "type": "function",
      "signature": "0x490203a7"
    },
    {
      "constant": true,
      "inputs": [
        {
          "name": "nonce",
          "type": "uint256"
        },
        {
          "name": "challenge_digest",
          "type": "bytes32"
        },
        {
          "name": "challenge_number",
          "type": "bytes32"
        }
      ],
      "name": "getMintDigest",
      "outputs": [
        {
          "name": "digesttest",
          "type": "bytes32"
        }
      ],
      "payable": false,
      "stateMutability": "view",
      "type": "function",
      "signature": "0x97566aa0"
    },
    {
      "constant": true,
      "inputs": [
        {
          "name": "nonce",
          "type": "uint256"
        },
        {
          "name": "challenge_digest",
          "type": "bytes32"
        },
        {
          "name": "challenge_number",
          "type": "bytes32"
        },
        {
          "name": "testTarget",
          "type": "uint256"
        }
      ],
      "name": "checkMintSolution",
      "outputs": [
        {
          "name": "success",
          "type": "bool"
        }
      ],
      "payable": false,
      "stateMutability": "view",
      "type": "function",
      "signature": "0x81269a56"
    },
    {
      "constant": false,
      "inputs": [
        {
          "name": "spender",
          "type": "address"
        },
        {
          "name": "tokens",
          "type": "uint256"
        },
        {
          "name": "data",
          "type": "bytes"
        }
      ],
      "name": "approveAndCall",
      "outputs": [
        {
          "name": "success",
          "type": "bool"
        }
      ],
      "payable": false,
      "stateMutability": "nonpayable",
      "type": "function",
      "signature": "0xcae9ca51"
    }
  ],
  "bytecode": "0x60806040526040805190810160405280600581526020017f4574696361000000000000000000000000000000000000000000000000000000815250600090805190602001906200005192919062000775565b506040805190810160405280600381526020017f4554490000000000000000000000000000000000000000000000000000000000815250600190805190602001906200009f92919062000775565b506012600255610400600d5562010000600e557e04000000000000000000000000000000000000000000000000000000000000600f556000601760006101000a81548160ff021916908315150217905550348015620000fd57600080fd5b5068056bc75e2d631000006003819055506200017968056bc75e2d63100000600860003073ffffffffffffffffffffffffffffffffffffffff1673ffffffffffffffffffffffffffffffffffffffff168152602001908152602001600020546200030d6401000000000262001cc6179091906401000000009004565b600860003073ffffffffffffffffffffffffffffffffffffffff1673ffffffffffffffffffffffffffffffffffffffff168152602001908152602001600020819055506d010a2a0fa14daa6ad75ad7e9a0e3600581905550600254600a0a6301406f4002600a81905550601760009054906101000a900460ff1615620001fe57600080fd5b6001601760006101000a81548160ff021916908315150217905550600060198190555060006012819055506200024f6002600a546200032a6401000000000262001ca2179091906401000000009004565b601381905550600f5460108190555043600b819055506200027e62000350640100000000026401000000009004565b6d014a713d95c1c369e4c10bb9816860048190555033600660006101000a81548173ffffffffffffffffffffffffffffffffffffffff021916908373ffffffffffffffffffffffffffffffffffffffff16021790555060606040519081016040528060278152602001620027f060279139600790805190602001906200030692919062000775565b5062000824565b600081830190508281101515156200032457600080fd5b92915050565b600080821115156200033b57600080fd5b81838115156200034757fe5b04905092915050565b601354620003906200037062000457640100000000026401000000009004565b6019546200030d6401000000000262001cc6179091906401000000009004565b118015620003a057506027601254105b15620003b3576001601254016012819055505b620003e060016012540160020a600a546200032a6401000000000262001ca2179091906401000000009004565b600a5403601381905550620004106001600c546200030d6401000000000262001cc6179091906401000000009004565b600c819055506000600d54600c548115156200042857fe5b0614156200044a57620004496200048e640100000000026401000000009004565b5b6001430340601181905550565b60006200048960125460020a600254600a0a6032026200032a6401000000000262001ca2179091906401000000009004565b905090565b6000600b54430390506000600d5490506000603c8202905080831015620005c0576000620004f784620004da606485620007066401000000000262001f43179091906401000000009004565b6200032a6401000000000262001ca2179091906401000000009004565b90506000620005436103e8620005266064856200073a6401000000000262001d93179091906401000000009004565b620007576401000000000262001f74179091906401000000009004565b9050620005b26200059282620005756107d06010546200032a6401000000000262001ca2179091906401000000009004565b620007066401000000000262001f43179091906401000000009004565b6010546200073a6401000000000262001d93179091906401000000009004565b6010819055505050620006cc565b60006200060882620005eb606487620007066401000000000262001f43179091906401000000009004565b6200032a6401000000000262001ca2179091906401000000009004565b90506000620006546103e8620006376064856200073a6401000000000262001d93179091906401000000009004565b620007576401000000000262001f74179091906401000000009004565b9050620006c3620006a382620006866107d06010546200032a6401000000000262001ca2179091906401000000009004565b620007066401000000000262001f43179091906401000000009004565b6010546200030d6401000000000262001cc6179091906401000000009004565b60108190555050505b43600b81905550600e546010541015620006ea57600e546010819055505b600f5460105411156200070157600f546010819055505b505050565b6000818302905060008314806200072857508183828115156200072557fe5b04145b15156200073457600080fd5b92915050565b60008282111515156200074c57600080fd5b818303905092915050565b6000818311156200076b578190506200076f565b8290505b92915050565b828054600181600116156101000203166002900490600052602060002090601f016020900481019282601f10620007b857805160ff1916838001178555620007e9565b82800160010185558215620007e9579182015b82811115620007e8578251825591602001919060010190620007cb565b5b509050620007f89190620007fc565b5090565b6200082191905b808211156200081d57600081600090555060010162000803565b5090565b90565b611fbc80620008346000396000f3fe608060405260043610610237576000357c0100000000000000000000000000000000000000000000000000000000900480636de9f32b1161014057806397566aa0116100c8578063cae9ca511161008c578063cae9ca5114610b3f578063cb9ae70714610c49578063d40170d714610c74578063dc6e9cf914610c9f578063dd62ed3e14610cca57610237565b806397566aa0146109e8578063a9059cbb14610a4b578063b5ade81b14610abe578063b640776914610ae9578063bafedcaa14610b1457610237565b8063829965cc1161010f578063829965cc146108ac57806387a2a9d6146108d75780638a769d35146109025780638ae0368b1461092d57806395d89b411461095857610237565b80636de9f32b146107545780636fd396d61461077f57806370a08231146107d657806381269a561461083b57610237565b80632d38bf7a116101c3578063490203a711610192578063490203a7146105ec5780634d853ee5146106175780634ef376281461066e5780634fa972e1146106995780636de7410c146106c457610237565b80632d38bf7a14610540578063313ce5671461056b57806332e99708146105965780633eaaf86b146105c157610237565b806317da485f1161020a57806317da485f146103955780631801fbe5146103c057806318160ddd1461041d57806323b872dd1461044857806327e235e3146104db57610237565b8063047fc9aa1461023c57806306fdde0314610267578063095ea7b3146102f7578063163aa00d1461036a575b600080fd5b34801561024857600080fd5b50610251610d4f565b6040518082815260200191505060405180910390f35b34801561027357600080fd5b5061027c610d55565b6040518080602001828103825283818151815260200191508051906020019080838360005b838110156102bc5780820151818401526020810190506102a1565b50505050905090810190601f1680156102e95780820380516001836020036101000a031916815260200191505b509250505060405180910390f35b34801561030357600080fd5b506103506004803603604081101561031a57600080fd5b81019080803573ffffffffffffffffffffffffffffffffffffffff16906020019092919080359060200190929190505050610df3565b604051808215151515815260200191505060405180910390f35b34801561037657600080fd5b5061037f610f42565b6040518082815260200191505060405180910390f35b3480156103a157600080fd5b506103aa610f48565b6040518082815260200191505060405180910390f35b3480156103cc57600080fd5b50610403600480360360408110156103e357600080fd5b810190808035906020019092919080359060200190929190505050610f66565b604051808215151515815260200191505060405180910390f35b34801561042957600080fd5b506104326111d8565b6040518082815260200191505060405180910390f35b34801561045457600080fd5b506104c16004803603606081101561046b57600080fd5b81019080803573ffffffffffffffffffffffffffffffffffffffff169060200190929190803573ffffffffffffffffffffffffffffffffffffffff169060200190929190803590602001909291905050506111e2565b604051808215151515815260200191505060405180910390f35b3480156104e757600080fd5b5061052a600480360360208110156104fe57600080fd5b81019080803573ffffffffffffffffffffffffffffffffffffffff16906020019092919050505061148d565b6040518082815260200191505060405180910390f35b34801561054c57600080fd5b506105556114a5565b6040518082815260200191505060405180910390f35b34801561057757600080fd5b506105806114ab565b6040518082815260200191505060405180910390f35b3480156105a257600080fd5b506105ab6114b1565b6040518082815260200191505060405180910390f35b3480156105cd57600080fd5b506105d66114bb565b6040518082815260200191505060405180910390f35b3480156105f857600080fd5b506106016114c1565b6040518082815260200191505060405180910390f35b34801561062357600080fd5b5061062c6114e8565b604051808273ffffffffffffffffffffffffffffffffffffffff1673ffffffffffffffffffffffffffffffffffffffff16815260200191505060405180910390f35b34801561067a57600080fd5b5061068361150e565b6040518082815260200191505060405180910390f35b3480156106a557600080fd5b506106ae611518565b6040518082815260200191505060405180910390f35b3480156106d057600080fd5b506106d961151e565b6040518080602001828103825283818151815260200191508051906020019080838360005b838110156107195780820151818401526020810190506106fe565b50505050905090810190601f1680156107465780820380516001836020036101000a031916815260200191505b509250505060405180910390f35b34801561076057600080fd5b506107696115bc565b6040518082815260200191505060405180910390f35b34801561078b57600080fd5b506107946115c2565b604051808273ffffffffffffffffffffffffffffffffffffffff1673ffffffffffffffffffffffffffffffffffffffff16815260200191505060405180910390f35b3480156107e257600080fd5b50610825600480360360208110156107f957600080fd5b81019080803573ffffffffffffffffffffffffffffffffffffffff1690602001909291905050506115e8565b6040518082815260200191505060405180910390f35b34801561084757600080fd5b506108926004803603608081101561085e57600080fd5b8101908080359060200190929190803590602001909291908035906020019092919080359060200190929190505050611631565b604051808215151515815260200191505060405180910390f35b3480156108b857600080fd5b506108c16116c7565b6040518082815260200191505060405180910390f35b3480156108e357600080fd5b506108ec6116cd565b6040518082815260200191505060405180910390f35b34801561090e57600080fd5b506109176116d3565b6040518082815260200191505060405180910390f35b34801561093957600080fd5b506109426116d9565b6040518082815260200191505060405180910390f35b34801561096457600080fd5b5061096d6116df565b6040518080602001828103825283818151815260200191508051906020019080838360005b838110156109ad578082015181840152602081019050610992565b50505050905090810190601f1680156109da5780820380516001836020036101000a031916815260200191505b509250505060405180910390f35b3480156109f457600080fd5b50610a3560048036036060811015610a0b57600080fd5b8101908080359060200190929190803590602001909291908035906020019092919050505061177d565b6040518082815260200191505060405180910390f35b348015610a5757600080fd5b50610aa460048036036040811015610a6e57600080fd5b81019080803573ffffffffffffffffffffffffffffffffffffffff169060200190929190803590602001909291905050506117ff565b604051808215151515815260200191505060405180910390f35b348015610aca57600080fd5b50610ad36119a8565b6040518082815260200191505060405180910390f35b348015610af557600080fd5b50610afe6119ae565b6040518082815260200191505060405180910390f35b348015610b2057600080fd5b50610b296119b4565b6040518082815260200191505060405180910390f35b348015610b4b57600080fd5b50610c2f60048036036060811015610b6257600080fd5b81019080803573ffffffffffffffffffffffffffffffffffffffff1690602001909291908035906020019092919080359060200190640100000000811115610ba957600080fd5b820183602082011115610bbb57600080fd5b80359060200191846001830284011164010000000083111715610bdd57600080fd5b91908080601f016020809104026020016040519081016040528093929190818152602001838380828437600081840152601f19601f8201169050808301925050505050505091929192905050506119ba565b604051808215151515815260200191505060405180910390f35b348015610c5557600080fd5b50610c5e611c09565b6040518082815260200191505060405180910390f35b348015610c8057600080fd5b50610c89611c0f565b6040518082815260200191505060405180910390f35b348015610cab57600080fd5b50610cb4611c15565b6040518082815260200191505060405180910390f35b348015610cd657600080fd5b50610d3960048036036040811015610ced57600080fd5b81019080803573ffffffffffffffffffffffffffffffffffffffff169060200190929190803573ffffffffffffffffffffffffffffffffffffffff169060200190929190505050611c1b565b6040518082815260200191505060405180910390f35b60035481565b60008054600181600116156101000203166002900480601f016020809104026020016040519081016040528092919081815260200182805460018160011615610100020316600290048015610deb5780601f10610dc057610100808354040283529160200191610deb565b820191906000526020600020905b815481529060010190602001808311610dce57829003601f168201915b505050505081565b600081600860003373ffffffffffffffffffffffffffffffffffffffff1673ffffffffffffffffffffffffffffffffffffffff1681526020019081526020016000205410151515610e4357600080fd5b600082111515610e5257600080fd5b81600960003373ffffffffffffffffffffffffffffffffffffffff1673ffffffffffffffffffffffffffffffffffffffff16815260200190815260200160002060008573ffffffffffffffffffffffffffffffffffffffff1673ffffffffffffffffffffffffffffffffffffffff168152602001908152602001600020819055508273ffffffffffffffffffffffffffffffffffffffff163373ffffffffffffffffffffffffffffffffffffffff167f8c5be1e5ebec7d5bd14f71427d1e84f3dd0314c0f7b2291e5b200ac8c7c3b925846040518082815260200191505060405180910390a36001905092915050565b60165481565b6000610f61601054600f54611ca290919063ffffffff16565b905090565b6000806011543385604051602001808481526020018373ffffffffffffffffffffffffffffffffffffffff1673ffffffffffffffffffffffffffffffffffffffff166c0100000000000000000000000002815260140182815260200193505050506040516020818303038152906040528051906020012090508281141515610fed57600080fd5b6010548160019004111561100057600080fd5b6000601860006011548152602001908152602001600020549050816018600060115481526020019081526020016000208190555060006001028114151561104657600080fd5b60006110506114c1565b90506110a481600860003373ffffffffffffffffffffffffffffffffffffffff1673ffffffffffffffffffffffffffffffffffffffff16815260200190815260200160002054611cc690919063ffffffff16565b600860003373ffffffffffffffffffffffffffffffffffffffff1673ffffffffffffffffffffffffffffffffffffffff168152602001908152602001600020819055506110fc81601954611cc690919063ffffffff16565b6019819055506013546019541115151561111257fe5b33601460006101000a81548173ffffffffffffffffffffffffffffffffffffffff021916908373ffffffffffffffffffffffffffffffffffffffff1602179055508060158190555043601681905550611169611ce2565b3373ffffffffffffffffffffffffffffffffffffffff167fcf6fbb9dcea7d07263ab4f5c3a92f53af33dffc421d9d121e1c74b307e68189d82600c5460115460405180848152602001838152602001828152602001935050505060405180910390a26001935050505092915050565b6000600354905090565b600061123682600860008773ffffffffffffffffffffffffffffffffffffffff1673ffffffffffffffffffffffffffffffffffffffff16815260200190815260200160002054611d9390919063ffffffff16565b600860008673ffffffffffffffffffffffffffffffffffffffff1673ffffffffffffffffffffffffffffffffffffffff1681526020019081526020016000208190555061130882600960008773ffffffffffffffffffffffffffffffffffffffff1673ffffffffffffffffffffffffffffffffffffffff16815260200190815260200160002060003373ffffffffffffffffffffffffffffffffffffffff1673ffffffffffffffffffffffffffffffffffffffff16815260200190815260200160002054611d9390919063ffffffff16565b600960008673ffffffffffffffffffffffffffffffffffffffff1673ffffffffffffffffffffffffffffffffffffffff16815260200190815260200160002060003373ffffffffffffffffffffffffffffffffffffffff1673ffffffffffffffffffffffffffffffffffffffff168152602001908152602001600020819055506113da82600860008673ffffffffffffffffffffffffffffffffffffffff1673ffffffffffffffffffffffffffffffffffffffff16815260200190815260200160002054611cc690919063ffffffff16565b600860008573ffffffffffffffffffffffffffffffffffffffff1673ffffffffffffffffffffffffffffffffffffffff168152602001908152602001600020819055508273ffffffffffffffffffffffffffffffffffffffff168473ffffffffffffffffffffffffffffffffffffffff167fddf252ad1be2c89b69c2b068fc378daa952ba7f163c4a11628f55a4df523b3ef846040518082815260200191505060405180910390a3600190509392505050565b60086020528060005260406000206000915090505481565b60125481565b60025481565b6000601054905090565b600a5481565b60006114e360125460020a600254600a0a603202611ca290919063ffffffff16565b905090565b600660009054906101000a900473ffffffffffffffffffffffffffffffffffffffff1681565b6000601154905090565b60135481565b60078054600181600116156101000203166002900480601f0160208091040260200160405190810160405280929190818152602001828054600181600116156101000203166002900480156115b45780601f10611589576101008083540402835291602001916115b4565b820191906000526020600020905b81548152906001019060200180831161159757829003601f168201915b505050505081565b60195481565b601460009054906101000a900473ffffffffffffffffffffffffffffffffffffffff1681565b6000600860008373ffffffffffffffffffffffffffffffffffffffff1673ffffffffffffffffffffffffffffffffffffffff168152602001908152602001600020549050919050565b600080833387604051602001808481526020018373ffffffffffffffffffffffffffffffffffffffff1673ffffffffffffffffffffffffffffffffffffffff166c01000000000000000000000000028152601401828152602001935050505060405160208183030381529060405280519060200120905082816001900411156116b957600080fd5b848114915050949350505050565b600c5481565b600f5481565b60105481565b60115481565b60018054600181600116156101000203166002900480601f0160208091040260200160405190810160405280929190818152602001828054600181600116156101000203166002900480156117755780601f1061174a57610100808354040283529160200191611775565b820191906000526020600020905b81548152906001019060200180831161175857829003601f168201915b505050505081565b600080823386604051602001808481526020018373ffffffffffffffffffffffffffffffffffffffff1673ffffffffffffffffffffffffffffffffffffffff166c010000000000000000000000000281526014018281526020019350505050604051602081830303815290604052805190602001209050809150509392505050565b6000808211151561180f57600080fd5b61186182600860003373ffffffffffffffffffffffffffffffffffffffff1673ffffffffffffffffffffffffffffffffffffffff16815260200190815260200160002054611d9390919063ffffffff16565b600860003373ffffffffffffffffffffffffffffffffffffffff1673ffffffffffffffffffffffffffffffffffffffff168152602001908152602001600020819055506118f682600860008673ffffffffffffffffffffffffffffffffffffffff1673ffffffffffffffffffffffffffffffffffffffff16815260200190815260200160002054611cc690919063ffffffff16565b600860008573ffffffffffffffffffffffffffffffffffffffff1673ffffffffffffffffffffffffffffffffffffffff168152602001908152602001600020819055508273ffffffffffffffffffffffffffffffffffffffff163373ffffffffffffffffffffffffffffffffffffffff167fddf252ad1be2c89b69c2b068fc378daa952ba7f163c4a11628f55a4df523b3ef846040518082815260200191505060405180910390a36001905092915050565b600d5481565b60045481565b60155481565b600082600960003373ffffffffffffffffffffffffffffffffffffffff1673ffffffffffffffffffffffffffffffffffffffff16815260200190815260200160002060008673ffffffffffffffffffffffffffffffffffffffff1673ffffffffffffffffffffffffffffffffffffffff168152602001908152602001600020819055508373ffffffffffffffffffffffffffffffffffffffff163373ffffffffffffffffffffffffffffffffffffffff167f8c5be1e5ebec7d5bd14f71427d1e84f3dd0314c0f7b2291e5b200ac8c7c3b925856040518082815260200191505060405180910390a38373ffffffffffffffffffffffffffffffffffffffff16638f4ffcb1338530866040518563ffffffff167c0100000000000000000000000000000000000000000000000000000000028152600401808573ffffffffffffffffffffffffffffffffffffffff1673ffffffffffffffffffffffffffffffffffffffff1681526020018481526020018373ffffffffffffffffffffffffffffffffffffffff1673ffffffffffffffffffffffffffffffffffffffff16815260200180602001828103825283818151815260200191508051906020019080838360005b83811015611b97578082015181840152602081019050611b7c565b50505050905090810190601f168015611bc45780820380516001836020036101000a031916815260200191505b5095505050505050600060405180830381600087803b158015611be657600080fd5b505af1158015611bfa573d6000803e3d6000fd5b50505050600190509392505050565b600b5481565b60055481565b600e5481565b6000600960008473ffffffffffffffffffffffffffffffffffffffff1673ffffffffffffffffffffffffffffffffffffffff16815260200190815260200160002060008373ffffffffffffffffffffffffffffffffffffffff1673ffffffffffffffffffffffffffffffffffffffff16815260200190815260200160002054905092915050565b60008082111515611cb257600080fd5b8183811515611cbd57fe5b04905092915050565b60008183019050828110151515611cdc57600080fd5b92915050565b601354611d01611cf06114c1565b601954611cc690919063ffffffff16565b118015611d1057506027601254105b15611d22576001601254016012819055505b611d3f60016012540160020a600a54611ca290919063ffffffff16565b600a5403601381905550611d5f6001600c54611cc690919063ffffffff16565b600c819055506000600d54600c54811515611d7657fe5b061415611d8657611d85611daf565b5b6001430340601181905550565b6000828211151515611da457600080fd5b818303905092915050565b6000600b54430390506000600d5490506000603c8202905080831015611e6f576000611df784611de9606485611f4390919063ffffffff16565b611ca290919063ffffffff16565b90506000611e236103e8611e15606485611d9390919063ffffffff16565b611f7490919063ffffffff16565b9050611e62611e5182611e436107d0601054611ca290919063ffffffff16565b611f4390919063ffffffff16565b601054611d9390919063ffffffff16565b6010819055505050611f0b565b6000611e9782611e89606487611f4390919063ffffffff16565b611ca290919063ffffffff16565b90506000611ec36103e8611eb5606485611d9390919063ffffffff16565b611f7490919063ffffffff16565b9050611f02611ef182611ee36107d0601054611ca290919063ffffffff16565b611f4390919063ffffffff16565b601054611cc690919063ffffffff16565b60108190555050505b43600b81905550600e546010541015611f2857600e546010819055505b600f546010541115611f3e57600f546010819055505b505050565b600081830290506000831480611f635750818382811515611f6057fe5b04145b1515611f6e57600080fd5b92915050565b600081831115611f8657819050611f8a565b8290505b9291505056fea165627a7a72305820e6f39030811b10f218e83ffcc68cbd335d1aa6d2f20f80498176a2914a04665d0029446973636f766572696e67206f7572206265737420467574757265732e204b6576696e20576164",
  "source": "pragma solidity ^0.5.2;\r\n// ----------------------------------------------------------------------------\r\n//this ICO smart contract has been compiled and tested with the Solidity Version 0.5.2\r\n//There are some minor changes comparing to ICO contract compiled with versions < 0.5.0\r\n// ----------------------------------------------------------------------------\r\n\r\n\r\n// ----------------------------------------------------------------------------\r\n\r\n// Safe maths\r\n\r\n// ----------------------------------------------------------------------------\r\n\r\nlibrary SafeMath {\r\n\r\n    function add(uint a, uint b) internal pure returns (uint c) {\r\n\r\n        c = a + b;\r\n\r\n        require(c >= a);\r\n\r\n    }\r\n\r\n    function sub(uint a, uint b) internal pure returns (uint c) {\r\n\r\n        require(b <= a);\r\n\r\n        c = a - b;\r\n\r\n    }\r\n\r\n    function mul(uint a, uint b) internal pure returns (uint c) {\r\n\r\n        c = a * b;\r\n\r\n        require(a == 0 || c / a == b);\r\n\r\n    }\r\n\r\n    function div(uint a, uint b) internal pure returns (uint c) {\r\n\r\n        require(b > 0);\r\n\r\n        c = a / b;\r\n\r\n    }\r\n\r\n}\r\n\r\n\r\n\r\nlibrary ExtendedMath {\r\n\r\n\r\n    //return the smaller of the two inputs (a or b)\r\n    function limitLessThan(uint a, uint b) internal pure returns (uint c) {\r\n\r\n        if(a > b) return b;\r\n\r\n        return a;\r\n\r\n    }\r\n}\r\n\r\n\r\n\r\ncontract ERC20Interface {\r\n    function totalSupply() public view returns (uint);\r\n    function balanceOf(address tokenOwner) public view returns (uint balance);\r\n    function transfer(address to, uint tokens) public returns (bool success);\r\n\r\n\r\n    function allowance(address tokenOwner, address spender) public view returns (uint remaining);\r\n    function approve(address spender, uint tokens) public returns (bool success);\r\n    function transferFrom(address from, address to, uint tokens) public returns (bool success);\r\n\r\n    event Transfer(address indexed from, address indexed to, uint tokens);\r\n    event Approval(address indexed tokenOwner, address indexed spender, uint tokens);\r\n}\r\n\r\n\r\n\r\n// -------- 0xBitcoin ----------------  //\r\n// ----------------------------------------------------------------------------\r\n\r\n// Contract function to receive approval and execute function in one call\r\n\r\n//\r\n\r\n// Borrowed from MiniMeToken\r\n\r\n// ----------------------------------------------------------------------------\r\n\r\ncontract ApproveAndCallFallBack {\r\n\r\n    function receiveApproval(address from, uint256 tokens, address token, bytes memory data) public;\r\n\r\n}\r\n\r\n// ---------- 0xBitcoin ------------ //\r\n\r\ncontract EticaToken is ERC20Interface{\r\n\r\n    using SafeMath for uint;\r\n    using ExtendedMath for uint;\r\n\r\n    string public name = \"Etica\";\r\n    string public symbol = \"ETI\";\r\n    uint public decimals = 18;\r\n\r\n    uint public supply;\r\n    // fixed inflation rate after etica supply has reached 21 Million\r\n    uint public inflationrate;\r\n    int public  periodrewardtemp; // Amount of ETI issued per period during phase1\r\n\r\n    // We don't want fake Satoshi again. Using it to prove founder's identity\r\n    address public founder;\r\n    string public foundermsgproof;\r\n\r\n    mapping(address => uint) public balances;\r\n\r\n    mapping(address => mapping(address => uint)) allowed;\r\n\r\n    //allowed[0x1111....][0x22222...] = 100;\r\n\r\n    // 0xbitcoin state variables\r\n    uint public _totalSupply;\r\n\r\n\r\n\r\n     uint public latestDifficultyPeriodStarted;\r\n\r\n\r\n\r\n    uint public epochCount;//number of 'blocks' mined\r\n\r\n\r\n    uint public _BLOCKS_PER_READJUSTMENT = 1024;\r\n\r\n\r\n    //a little number\r\n    uint public  _MINIMUM_TARGET = 2**16;\r\n\r\n\r\n      //a big number is easier ; just find a solution that is smaller\r\n    //uint public  _MAXIMUM_TARGET = 2**224;  bitcoin uses 224\r\n    uint public  _MAXIMUM_TARGET = 2**242; // used for tests 243 much faster, 242 seems to be the limit where mining gets much harder\r\n    // uint public  _MAXIMUM_TARGET = 2**234; // used for prod\r\n\r\n\r\n    uint public miningTarget;\r\n\r\n    bytes32 public challengeNumber;   //generate a new one when a new reward is minted\r\n\r\n\r\n\r\n    uint public rewardEra;\r\n    uint public maxSupplyForEra;\r\n\r\n\r\n    address public lastRewardTo;\r\n    uint public lastRewardAmount;\r\n    uint public lastRewardEthBlockNumber;\r\n\r\n    bool locked = false;\r\n\r\n    mapping(bytes32 => bytes32) solutionForChallenge;\r\n\r\n    uint public tokensMinted;\r\n\r\n    // 0xbitcoin state variables\r\n\r\n\r\n\r\n\r\n    event Transfer(address indexed from, address indexed to, uint tokens);\r\n    event Approval(address indexed tokenOwner, address indexed spender, uint tokens);\r\n    event Mint(address indexed from, uint reward_amount, uint epochCount, bytes32 newChallengeNumber);\r\n\r\n\r\n    constructor() public{\r\n      supply = 100 * (10**18); // initial supply equals 100 ETI\r\n      balances[address(this)] = balances[address(this)].add(100 * (10**18)); // 100 ETI as the default contract balance. To avoid any issue that could arise from negative contract balance because of significant numbers approximations\r\n\r\n      // PHASE 1\r\n\r\n      // --- PAHSE 1 (before 21 Million ETI has been reached) --->  //\r\n      // 10 500 000 ETI to be issued as periodrewardtemp for ETICA reward system\r\n      // 10 500 000 ETI to be MINED\r\n\r\n      // phase1 periodrewardtemp\r\n      // fixed Etica issued per period during phase1 (before 21 Million ETI has been reached)\r\n      // calculation:\r\n      // The amount of reward has to be half of first rewards of phase 2\r\n      // 21 000 000 * 0.26180339887498948482045868343656 = 549787,13763747791812296323521678 ETI (first year reward)\r\n      // 549787,13763747791812296323521678 / 52.1429 = 10543,854247413893706007207792754 ETI (first weeks reward of phase2)\r\n      // 10543,854247413893706007207792754 * 2 = 21087,708494827787412014415585507 ETI\r\n      periodrewardtemp = 21087708494827787412014415585507; // 21087,708494827787412014415585507 ETI will take about 9,5491502812526287948853291408588 years to reach 10 500 000 ETI\r\n\r\n\r\n\r\n      // phase1 mining\r\n\r\n      _totalSupply = 21000000 * 10**uint(decimals);\r\n\r\n      if(locked) revert();\r\n      locked = true;\r\n\r\n      tokensMinted = 0;\r\n\r\n      rewardEra = 0;\r\n      maxSupplyForEra = _totalSupply.div(2);\r\n\r\n      miningTarget = _MAXIMUM_TARGET;\r\n\r\n      latestDifficultyPeriodStarted = block.number;\r\n\r\n      _startNewMiningEpoch();\r\n\r\n\r\n      //The owner gets nothing! You must mine this ERC20 token\r\n      //balances[owner] = _totalSupply;\r\n      //Transfer(address(0), owner, _totalSupply);\r\n\r\n\r\n      // PHASE 1\r\n\r\n      // PHASE 2\r\n      // Golden number power 2: 1,6180339887498948482045868343656 * 1,6180339887498948482045868343656 = 2.6180339887498948482045868343656; (need to multiple by 10^(-34) to get 0.26180339887498948482045868343656);\r\n      inflationrate = 26180339887498948482045868343656;\r\n\r\n       // PHASE 2\r\n\r\n\r\n\r\n      founder = msg.sender;\r\n      foundermsgproof = \"Discovering our best Futures. Kevin Wad\";\r\n    }\r\n\r\n\r\n    function allowance(address tokenOwner, address spender) view public returns(uint){\r\n        return allowed[tokenOwner][spender];\r\n    }\r\n\r\n\r\n    //approve allowance\r\n    function approve(address spender, uint tokens) public returns(bool){\r\n        require(balances[msg.sender] >= tokens);\r\n        require(tokens > 0);\r\n\r\n        allowed[msg.sender][spender] = tokens;\r\n        emit Approval(msg.sender, spender, tokens);\r\n        return true;\r\n    }\r\n\r\n    //transfer tokens from the  owner account to the account that calls the function\r\n    function transferFrom(address from, address to, uint tokens) public returns(bool){\r\n\r\n      balances[from] = balances[from].sub(tokens);\r\n\r\n      allowed[from][msg.sender] = allowed[from][msg.sender].sub(tokens);\r\n\r\n      balances[to] = balances[to].add(tokens);\r\n\r\n      emit Transfer(from, to, tokens);\r\n\r\n      return true;\r\n    }\r\n\r\n    function totalSupply() public view returns (uint){\r\n        return supply;\r\n    }\r\n\r\n    function balanceOf(address tokenOwner) public view returns (uint balance){\r\n         return balances[tokenOwner];\r\n     }\r\n\r\n\r\n    function transfer(address to, uint tokens) public returns (bool success){\r\n         require(tokens > 0);\r\n\r\n         balances[msg.sender] = balances[msg.sender].sub(tokens);\r\n\r\n         balances[to] = balances[to].add(tokens);\r\n\r\n         emit Transfer(msg.sender, to, tokens);\r\n\r\n         return true;\r\n     }\r\n\r\n\r\n     // -------------  0xbitcoin functions ---------------- //\r\n\r\n         function mint(uint256 nonce, bytes32 challenge_digest) public returns (bool success) {\r\n\r\n\r\n             //the PoW must contain work that includes a recent ethereum block hash (challenge number) and the msg.sender's address to prevent MITM attacks\r\n             bytes32 digest =  keccak256(abi.encodePacked(challengeNumber, msg.sender, nonce));\r\n\r\n             //the challenge digest must match the expected\r\n             if (digest != challenge_digest) revert();\r\n\r\n             //the digest must be smaller than the target\r\n             if(uint256(digest) > miningTarget) revert();\r\n\r\n\r\n             //only allow one reward for each challenge\r\n              bytes32 solution = solutionForChallenge[challengeNumber];\r\n              solutionForChallenge[challengeNumber] = digest;\r\n              if(solution != 0x0) revert();  //prevent the same answer from awarding twice\r\n\r\n\r\n             uint reward_amount = getMiningReward();\r\n\r\n             balances[msg.sender] = balances[msg.sender].add(reward_amount);\r\n\r\n             tokensMinted = tokensMinted.add(reward_amount);\r\n\r\n\r\n             //Cannot mint more tokens than there are\r\n             assert(tokensMinted <= maxSupplyForEra);\r\n\r\n             //set readonly diagnostics data\r\n             lastRewardTo = msg.sender;\r\n             lastRewardAmount = reward_amount;\r\n             lastRewardEthBlockNumber = block.number;\r\n\r\n\r\n              _startNewMiningEpoch();\r\n\r\n               emit Mint(msg.sender, reward_amount, epochCount, challengeNumber );\r\n\r\n            return true;\r\n\r\n         }\r\n\r\n\r\n     //a new 'block' to be mined\r\n     function _startNewMiningEpoch() internal {\r\n\r\n       //if max supply for the era will be exceeded next reward round then enter the new era before that happens\r\n\r\n       //40 is the final reward era, almost all tokens minted\r\n       //once the final era is reached, more tokens will not be given out because the assert function\r\n       if( tokensMinted.add(getMiningReward()) > maxSupplyForEra && rewardEra < 39)\r\n       {\r\n         rewardEra = rewardEra + 1;\r\n       }\r\n\r\n       //set the next minted supply at which the era will change\r\n       // total supply is 2100000000000000  because of 8 decimal places\r\n       maxSupplyForEra = _totalSupply - _totalSupply.div( 2**(rewardEra + 1));\r\n\r\n       epochCount = epochCount.add(1);\r\n\r\n       //every so often, readjust difficulty. Dont readjust when deploying\r\n       if(epochCount % _BLOCKS_PER_READJUSTMENT == 0)\r\n       {\r\n         _reAdjustDifficulty();\r\n       }\r\n\r\n\r\n       //make the latest ethereum block hash a part of the next challenge for PoW to prevent pre-mining future blocks\r\n       //do this last since this is a protection mechanism in the mint() function\r\n       challengeNumber = blockhash(block.number - 1);\r\n\r\n\r\n\r\n\r\n\r\n\r\n     }\r\n\r\n\r\n\r\n\r\n     //https://en.bitcoin.it/wiki/Difficulty#What_is_the_formula_for_difficulty.3F\r\n     //as of 2017 the bitcoin difficulty was up to 17 zeroes, it was only 8 in the early days\r\n\r\n     //readjust the target by 5 percent\r\n     function _reAdjustDifficulty() internal {\r\n\r\n\r\n         uint ethBlocksSinceLastDifficultyPeriod = block.number - latestDifficultyPeriodStarted;\r\n         //assume 360 ethereum blocks per hour\r\n\r\n         //we want miners to spend 10 minutes to mine each 'block', about 60 ethereum blocks = one 0xbitcoin epoch\r\n         uint epochsMined = _BLOCKS_PER_READJUSTMENT; //256\r\n\r\n         uint targetEthBlocksPerDiffPeriod = epochsMined * 60; //should be 60 times slower than ethereum\r\n\r\n         //if there were less eth blocks passed in time than expected\r\n         if( ethBlocksSinceLastDifficultyPeriod < targetEthBlocksPerDiffPeriod )\r\n         {\r\n           uint excess_block_pct = (targetEthBlocksPerDiffPeriod.mul(100)).div( ethBlocksSinceLastDifficultyPeriod );\r\n\r\n           uint excess_block_pct_extra = excess_block_pct.sub(100).limitLessThan(1000);\r\n           // If there were 5% more blocks mined than expected then this is 5.  If there were 100% more blocks mined than expected then this is 100.\r\n\r\n           //make it harder\r\n           miningTarget = miningTarget.sub(miningTarget.div(2000).mul(excess_block_pct_extra));   //by up to 50 %\r\n         }else{\r\n           uint shortage_block_pct = (ethBlocksSinceLastDifficultyPeriod.mul(100)).div( targetEthBlocksPerDiffPeriod );\r\n\r\n           uint shortage_block_pct_extra = shortage_block_pct.sub(100).limitLessThan(1000); //always between 0 and 1000\r\n\r\n           //make it easier\r\n           miningTarget = miningTarget.add(miningTarget.div(2000).mul(shortage_block_pct_extra));   //by up to 50 %\r\n         }\r\n\r\n\r\n\r\n         latestDifficultyPeriodStarted = block.number;\r\n\r\n         if(miningTarget < _MINIMUM_TARGET) //very difficult\r\n         {\r\n           miningTarget = _MINIMUM_TARGET;\r\n         }\r\n\r\n         if(miningTarget > _MAXIMUM_TARGET) //very easy\r\n         {\r\n           miningTarget = _MAXIMUM_TARGET;\r\n         }\r\n     }\r\n\r\n\r\n     //this is a recent ethereum block hash, used to prevent pre-mining future blocks\r\n     function getChallengeNumber() public view returns (bytes32) {\r\n         return challengeNumber;\r\n     }\r\n\r\n     //the number of zeroes the digest of the PoW solution requires.  Auto adjusts\r\n      function getMiningDifficulty() public view returns (uint) {\r\n         return _MAXIMUM_TARGET.div(miningTarget);\r\n     }\r\n\r\n     function getMiningTarget() public view returns (uint) {\r\n        return miningTarget;\r\n    }\r\n\r\n\r\n\r\n     //21m coins total\r\n     //reward begins at 50 and is cut in half every reward era (as tokens are mined)\r\n     function getMiningReward() public view returns (uint) {\r\n         //once we get half way thru the coins, only get 25 per block\r\n\r\n          //every reward era, the reward amount halves.\r\n\r\n          return (50 * 10**uint(decimals) ).div( 2**rewardEra ) ;\r\n\r\n     }\r\n\r\n     //help debug mining software\r\n     function getMintDigest(uint256 nonce, bytes32 challenge_digest, bytes32 challenge_number) public view returns (bytes32 digesttest) {\r\n\r\n         bytes32 digest = keccak256(abi.encodePacked(challenge_number,msg.sender,nonce));\r\n\r\n         return digest;\r\n\r\n       }\r\n\r\n         //help debug mining software\r\n       function checkMintSolution(uint256 nonce, bytes32 challenge_digest, bytes32 challenge_number, uint testTarget) public view returns (bool success) {\r\n\r\n           bytes32 digest = keccak256(abi.encodePacked(challenge_number,msg.sender,nonce));\r\n\r\n           if(uint256(digest) > testTarget) revert();\r\n\r\n           return (digest == challenge_digest);\r\n\r\n         }\r\n\r\n\r\n\r\n\r\n     // ------------------------------------------------------------------------\r\n\r\n     // Token owner can approve for `spender` to transferFrom(...) `tokens`\r\n\r\n     // from the token owner's account. The `spender` contract function\r\n\r\n     // `receiveApproval(...)` is then executed\r\n\r\n     // ------------------------------------------------------------------------\r\n\r\n     function approveAndCall(address spender, uint tokens, bytes memory data) public returns (bool success) {\r\n\r\n         allowed[msg.sender][spender] = tokens;\r\n\r\n         emit Approval(msg.sender, spender, tokens);\r\n\r\n         ApproveAndCallFallBack(spender).receiveApproval(msg.sender, tokens, address(this), data);\r\n\r\n         return true;\r\n\r\n     }\r\n\r\n\r\n\r\n     // ------------------------------------------------------------------------\r\n\r\n     // Don't accept ETH\r\n\r\n     // ------------------------------------------------------------------------\r\n\r\n     function () payable external {\r\n\r\n         revert();\r\n\r\n     }\r\n\r\n\r\n// ------------------      0xbitcoin functions   -------------------------  //\r\n\r\n\r\n\r\n}\r\n",
  "sourcePath": "/mnt/d/linux/ethereum/etica/contracts/EticaToken.sol",
  "compiler": {
    "name": "solc",
    "version": "0.5.2+commit.1df8f40c.Emscripten.clang"
  },
  "schemaVersion": "3.0.1",
  "updatedAt": "2019-05-07T12:30:01.187Z",
  "devdoc": {
    "methods": {}
  },
  "userdoc": {
    "methods": {}
  }
}