{
  "contractName": "EticaRelease",
  "abi": [
    {
      "constant": true,
      "inputs": [],
      "name": "supply",
      "outputs": [
        {
          "name": "",
          "type": "uint256"
        }
      ],
      "payable": false,
      "stateMutability": "view",
      "type": "function"
    },
    {
      "constant": true,
      "inputs": [],
      "name": "name",
      "outputs": [
        {
          "name": "",
          "type": "string"
        }
      ],
      "payable": false,
      "stateMutability": "view",
      "type": "function"
    },
    {
      "constant": false,
      "inputs": [
        {
          "name": "spender",
          "type": "address"
        },
        {
          "name": "tokens",
          "type": "uint256"
        }
      ],
      "name": "approve",
      "outputs": [
        {
          "name": "",
          "type": "bool"
        }
      ],
      "payable": false,
      "stateMutability": "nonpayable",
      "type": "function"
    },
    {
      "constant": true,
      "inputs": [
        {
          "name": "",
          "type": "bytes32"
        }
      ],
      "name": "diseasesbyIds",
      "outputs": [
        {
          "name": "",
          "type": "uint256"
        }
      ],
      "payable": false,
      "stateMutability": "view",
      "type": "function"
    },
    {
      "constant": true,
      "inputs": [],
      "name": "lastRewardEthBlockNumber",
      "outputs": [
        {
          "name": "",
          "type": "uint256"
        }
      ],
      "payable": false,
      "stateMutability": "view",
      "type": "function"
    },
    {
      "constant": true,
      "inputs": [],
      "name": "getMiningDifficulty",
      "outputs": [
        {
          "name": "",
          "type": "uint256"
        }
      ],
      "payable": false,
      "stateMutability": "view",
      "type": "function"
    },
    {
      "constant": false,
      "inputs": [
        {
          "name": "nonce",
          "type": "uint256"
        },
        {
          "name": "challenge_digest",
          "type": "bytes32"
        }
      ],
      "name": "mint",
      "outputs": [
        {
          "name": "success",
          "type": "bool"
        }
      ],
      "payable": false,
      "stateMutability": "nonpayable",
      "type": "function"
    },
    {
      "constant": true,
      "inputs": [],
      "name": "totalSupply",
      "outputs": [
        {
          "name": "",
          "type": "uint256"
        }
      ],
      "payable": false,
      "stateMutability": "view",
      "type": "function"
    },
    {
      "constant": true,
      "inputs": [],
      "name": "IntervalsPeriodsCounter",
      "outputs": [
        {
          "name": "",
          "type": "uint256"
        }
      ],
      "payable": false,
      "stateMutability": "view",
      "type": "function"
    },
    {
      "constant": false,
      "inputs": [
        {
          "name": "from",
          "type": "address"
        },
        {
          "name": "to",
          "type": "address"
        },
        {
          "name": "tokens",
          "type": "uint256"
        }
      ],
      "name": "transferFrom",
      "outputs": [
        {
          "name": "",
          "type": "bool"
        }
      ],
      "payable": false,
      "stateMutability": "nonpayable",
      "type": "function"
    },
    {
      "constant": true,
      "inputs": [
        {
          "name": "",
          "type": "address"
        }
      ],
      "name": "balances",
      "outputs": [
        {
          "name": "",
          "type": "uint256"
        }
      ],
      "payable": false,
      "stateMutability": "view",
      "type": "function"
    },
    {
      "constant": true,
      "inputs": [],
      "name": "decimals",
      "outputs": [
        {
          "name": "",
          "type": "uint256"
        }
      ],
      "payable": false,
      "stateMutability": "view",
      "type": "function"
    },
    {
      "constant": true,
      "inputs": [],
      "name": "getMiningTarget",
      "outputs": [
        {
          "name": "",
          "type": "uint256"
        }
      ],
      "payable": false,
      "stateMutability": "view",
      "type": "function"
    },
    {
      "constant": true,
      "inputs": [
        {
          "name": "",
          "type": "bytes32"
        }
      ],
      "name": "proposals",
      "outputs": [
        {
          "name": "id",
          "type": "uint256"
        },
        {
          "name": "proposed_release_hash",
          "type": "bytes32"
        },
        {
          "name": "disease_id",
          "type": "bytes32"
        },
        {
          "name": "period_id",
          "type": "uint256"
        },
        {
          "name": "proposer",
          "type": "address"
        },
        {
          "name": "title",
          "type": "string"
        },
        {
          "name": "description",
          "type": "string"
        }
      ],
      "payable": false,
      "stateMutability": "view",
      "type": "function"
    },
    {
      "constant": true,
      "inputs": [],
      "name": "DISEASE_CREATION_AMOUNT",
      "outputs": [
        {
          "name": "",
          "type": "uint256"
        }
      ],
      "payable": false,
      "stateMutability": "view",
      "type": "function"
    },
    {
      "constant": true,
      "inputs": [],
      "name": "_totalMiningSupply",
      "outputs": [
        {
          "name": "",
          "type": "uint256"
        }
      ],
      "payable": false,
      "stateMutability": "view",
      "type": "function"
    },
    {
      "constant": true,
      "inputs": [
        {
          "name": "",
          "type": "uint256"
        }
      ],
      "name": "diseases",
      "outputs": [
        {
          "name": "disease_hash",
          "type": "bytes32"
        },
        {
          "name": "name",
          "type": "string"
        },
        {
          "name": "description",
          "type": "string"
        }
      ],
      "payable": false,
      "stateMutability": "view",
      "type": "function"
    },
    {
      "constant": true,
      "inputs": [
        {
          "name": "",
          "type": "bytes32"
        }
      ],
      "name": "propsdatas",
      "outputs": [
        {
          "name": "starttime",
          "type": "uint256"
        },
        {
          "name": "endtime",
          "type": "uint256"
        },
        {
          "name": "finalized_time",
          "type": "uint256"
        },
        {
          "name": "status",
          "type": "uint8"
        },
        {
          "name": "prestatus",
          "type": "uint8"
        },
        {
          "name": "istie",
          "type": "bool"
        },
        {
          "name": "nbvoters",
          "type": "uint256"
        },
        {
          "name": "slashingratio",
          "type": "uint256"
        },
        {
          "name": "forvotes",
          "type": "uint256"
        },
        {
          "name": "againstvotes",
          "type": "uint256"
        },
        {
          "name": "lastcuration_weight",
          "type": "uint256"
        },
        {
          "name": "lasteditor_weight",
          "type": "uint256"
        }
      ],
      "payable": false,
      "stateMutability": "view",
      "type": "function"
    },
    {
      "constant": true,
      "inputs": [],
      "name": "founder",
      "outputs": [
        {
          "name": "",
          "type": "address"
        }
      ],
      "payable": false,
      "stateMutability": "view",
      "type": "function"
    },
    {
      "constant": true,
      "inputs": [],
      "name": "getChallengeNumber",
      "outputs": [
        {
          "name": "",
          "type": "bytes32"
        }
      ],
      "payable": false,
      "stateMutability": "view",
      "type": "function"
    },
    {
      "constant": true,
      "inputs": [
        {
          "name": "",
          "type": "address"
        }
      ],
      "name": "bosoms",
      "outputs": [
        {
          "name": "",
          "type": "uint256"
        }
      ],
      "payable": false,
      "stateMutability": "view",
      "type": "function"
    },
    {
      "constant": true,
      "inputs": [
        {
          "name": "",
          "type": "address"
        },
        {
          "name": "",
          "type": "uint256"
        }
      ],
      "name": "stakes",
      "outputs": [
        {
          "name": "amount",
          "type": "uint256"
        },
        {
          "name": "startBlock",
          "type": "uint256"
        },
        {
          "name": "endBlock",
          "type": "uint256"
        }
      ],
      "payable": false,
      "stateMutability": "view",
      "type": "function"
    },
    {
      "constant": true,
      "inputs": [
        {
          "name": "",
          "type": "bytes32"
        }
      ],
      "name": "propsfreefields",
      "outputs": [
        {
          "name": "firstfield",
          "type": "string"
        },
        {
          "name": "secondfield",
          "type": "string"
        },
        {
          "name": "thirdfield",
          "type": "string"
        }
      ],
      "payable": false,
      "stateMutability": "view",
      "type": "function"
    },
    {
      "constant": true,
      "inputs": [],
      "name": "foundermsgproof",
      "outputs": [
        {
          "name": "",
          "type": "string"
        }
      ],
      "payable": false,
      "stateMutability": "view",
      "type": "function"
    },
    {
      "constant": true,
      "inputs": [],
      "name": "tokensMinted",
      "outputs": [
        {
          "name": "",
          "type": "uint256"
        }
      ],
      "payable": false,
      "stateMutability": "view",
      "type": "function"
    },
    {
      "constant": true,
      "inputs": [],
      "name": "diseasesCounter",
      "outputs": [
        {
          "name": "",
          "type": "uint256"
        }
      ],
      "payable": false,
      "stateMutability": "view",
      "type": "function"
    },
    {
      "constant": true,
      "inputs": [],
      "name": "lastRewardTo",
      "outputs": [
        {
          "name": "",
          "type": "address"
        }
      ],
      "payable": false,
      "stateMutability": "view",
      "type": "function"
    },
    {
      "constant": true,
      "inputs": [
        {
          "name": "tokenOwner",
          "type": "address"
        }
      ],
      "name": "balanceOf",
      "outputs": [
        {
          "name": "balance",
          "type": "uint256"
        }
      ],
      "payable": false,
      "stateMutability": "view",
      "type": "function"
    },
    {
      "constant": true,
      "inputs": [
        {
          "name": "nonce",
          "type": "uint256"
        },
        {
          "name": "challenge_digest",
          "type": "bytes32"
        },
        {
          "name": "challenge_number",
          "type": "bytes32"
        },
        {
          "name": "testTarget",
          "type": "uint256"
        }
      ],
      "name": "checkMintSolution",
      "outputs": [
        {
          "name": "success",
          "type": "bool"
        }
      ],
      "payable": false,
      "stateMutability": "view",
      "type": "function"
    },
    {
      "constant": true,
      "inputs": [],
      "name": "epochCount",
      "outputs": [
        {
          "name": "",
          "type": "uint256"
        }
      ],
      "payable": false,
      "stateMutability": "view",
      "type": "function"
    },
    {
      "constant": true,
      "inputs": [],
      "name": "_MAXIMUM_TARGET",
      "outputs": [
        {
          "name": "",
          "type": "uint256"
        }
      ],
      "payable": false,
      "stateMutability": "view",
      "type": "function"
    },
    {
      "constant": true,
      "inputs": [
        {
          "name": "",
          "type": "uint256"
        }
      ],
      "name": "IntervalsPeriods",
      "outputs": [
        {
          "name": "",
          "type": "uint256"
        }
      ],
      "payable": false,
      "stateMutability": "view",
      "type": "function"
    },
    {
      "constant": true,
      "inputs": [],
      "name": "miningTarget",
      "outputs": [
        {
          "name": "",
          "type": "uint256"
        }
      ],
      "payable": false,
      "stateMutability": "view",
      "type": "function"
    },
    {
      "constant": true,
      "inputs": [],
      "name": "challengeNumber",
      "outputs": [
        {
          "name": "",
          "type": "bytes32"
        }
      ],
      "payable": false,
      "stateMutability": "view",
      "type": "function"
    },
    {
      "constant": true,
      "inputs": [
        {
          "name": "",
          "type": "bytes32"
        },
        {
          "name": "",
          "type": "address"
        }
      ],
      "name": "votes",
      "outputs": [
        {
          "name": "id",
          "type": "uint256"
        },
        {
          "name": "proposal_hash",
          "type": "bytes32"
        },
        {
          "name": "approve",
          "type": "bool"
        },
        {
          "name": "is_editor",
          "type": "bool"
        },
        {
          "name": "amount",
          "type": "uint256"
        },
        {
          "name": "voter",
          "type": "address"
        },
        {
          "name": "timestamp",
          "type": "uint256"
        }
      ],
      "payable": false,
      "stateMutability": "view",
      "type": "function"
    },
    {
      "constant": true,
      "inputs": [],
      "name": "symbol",
      "outputs": [
        {
          "name": "",
          "type": "string"
        }
      ],
      "payable": false,
      "stateMutability": "view",
      "type": "function"
    },
    {
      "constant": true,
      "inputs": [
        {
          "name": "nonce",
          "type": "uint256"
        },
        {
          "name": "challenge_digest",
          "type": "bytes32"
        },
        {
          "name": "challenge_number",
          "type": "bytes32"
        }
      ],
      "name": "getMintDigest",
      "outputs": [
        {
          "name": "digesttest",
          "type": "bytes32"
        }
      ],
      "payable": false,
      "stateMutability": "view",
      "type": "function"
    },
    {
      "constant": true,
      "inputs": [],
      "name": "PROPOSAL_DEFAULT_VOTE",
      "outputs": [
        {
          "name": "",
          "type": "uint256"
        }
      ],
      "payable": false,
      "stateMutability": "view",
      "type": "function"
    },
    {
      "constant": true,
      "inputs": [],
      "name": "proposalsCounter",
      "outputs": [
        {
          "name": "",
          "type": "uint256"
        }
      ],
      "payable": false,
      "stateMutability": "view",
      "type": "function"
    },
    {
      "constant": false,
      "inputs": [
        {
          "name": "to",
          "type": "address"
        },
        {
          "name": "tokens",
          "type": "uint256"
        }
      ],
      "name": "transfer",
      "outputs": [
        {
          "name": "success",
          "type": "bool"
        }
      ],
      "payable": false,
      "stateMutability": "nonpayable",
      "type": "function"
    },
    {
      "constant": true,
      "inputs": [],
      "name": "_BLOCKS_PER_READJUSTMENT",
      "outputs": [
        {
          "name": "",
          "type": "uint256"
        }
      ],
      "payable": false,
      "stateMutability": "view",
      "type": "function"
    },
    {
      "constant": true,
      "inputs": [],
      "name": "inflationrate",
      "outputs": [
        {
          "name": "",
          "type": "uint256"
        }
      ],
      "payable": false,
      "stateMutability": "view",
      "type": "function"
    },
    {
      "constant": true,
      "inputs": [],
      "name": "latestDifficultyPeriodStarted",
      "outputs": [
        {
          "name": "",
          "type": "uint256"
        }
      ],
      "payable": false,
      "stateMutability": "view",
      "type": "function"
    },
    {
      "constant": true,
      "inputs": [],
      "name": "blockreward",
      "outputs": [
        {
          "name": "",
          "type": "uint256"
        }
      ],
      "payable": false,
      "stateMutability": "view",
      "type": "function"
    },
    {
      "constant": true,
      "inputs": [],
      "name": "PeriodsIssuedCounter",
      "outputs": [
        {
          "name": "",
          "type": "uint256"
        }
      ],
      "payable": false,
      "stateMutability": "view",
      "type": "function"
    },
    {
      "constant": true,
      "inputs": [],
      "name": "periodrewardtemp",
      "outputs": [
        {
          "name": "",
          "type": "uint256"
        }
      ],
      "payable": false,
      "stateMutability": "view",
      "type": "function"
    },
    {
      "constant": true,
      "inputs": [
        {
          "name": "",
          "type": "address"
        }
      ],
      "name": "stakesCounters",
      "outputs": [
        {
          "name": "",
          "type": "uint256"
        }
      ],
      "payable": false,
      "stateMutability": "view",
      "type": "function"
    },
    {
      "constant": true,
      "inputs": [],
      "name": "periodsCounter",
      "outputs": [
        {
          "name": "",
          "type": "uint256"
        }
      ],
      "payable": false,
      "stateMutability": "view",
      "type": "function"
    },
    {
      "constant": true,
      "inputs": [],
      "name": "_MINIMUM_TARGET",
      "outputs": [
        {
          "name": "",
          "type": "uint256"
        }
      ],
      "payable": false,
      "stateMutability": "view",
      "type": "function"
    },
    {
      "constant": true,
      "inputs": [
        {
          "name": "tokenOwner",
          "type": "address"
        },
        {
          "name": "spender",
          "type": "address"
        }
      ],
      "name": "allowance",
      "outputs": [
        {
          "name": "",
          "type": "uint256"
        }
      ],
      "payable": false,
      "stateMutability": "view",
      "type": "function"
    },
    {
      "constant": true,
      "inputs": [
        {
          "name": "",
          "type": "uint256"
        }
      ],
      "name": "periods",
      "outputs": [
        {
          "name": "id",
          "type": "uint256"
        },
        {
          "name": "interval",
          "type": "uint256"
        },
        {
          "name": "curation_sum",
          "type": "uint256"
        },
        {
          "name": "editor_sum",
          "type": "uint256"
        },
        {
          "name": "total_voters",
          "type": "uint256"
        }
      ],
      "payable": false,
      "stateMutability": "view",
      "type": "function"
    },
    {
      "constant": true,
      "inputs": [
        {
          "name": "",
          "type": "uint256"
        }
      ],
      "name": "PeriodsIssued",
      "outputs": [
        {
          "name": "",
          "type": "uint256"
        }
      ],
      "payable": false,
      "stateMutability": "view",
      "type": "function"
    },
    {
      "constant": true,
      "inputs": [
        {
          "name": "",
          "type": "bytes32"
        }
      ],
      "name": "propsipfs",
      "outputs": [
        {
          "name": "raw_release_hash",
          "type": "string"
        },
        {
          "name": "old_release_hash",
          "type": "string"
        },
        {
          "name": "grandparent_hash",
          "type": "string"
        }
      ],
      "payable": false,
      "stateMutability": "view",
      "type": "function"
    },
    {
      "constant": true,
      "inputs": [
        {
          "name": "",
          "type": "address"
        }
      ],
      "name": "blockedeticas",
      "outputs": [
        {
          "name": "",
          "type": "uint256"
        }
      ],
      "payable": false,
      "stateMutability": "view",
      "type": "function"
    },
    {
      "payable": true,
      "stateMutability": "payable",
      "type": "fallback"
    },
    {
      "anonymous": false,
      "inputs": [
        {
          "indexed": false,
          "name": "period_id",
          "type": "uint256"
        },
        {
          "indexed": false,
          "name": "interval",
          "type": "uint256"
        }
      ],
      "name": "CreatedPeriod",
      "type": "event"
    },
    {
      "anonymous": false,
      "inputs": [
        {
          "indexed": false,
          "name": "period_id",
          "type": "uint256"
        },
        {
          "indexed": false,
          "name": "periodreward",
          "type": "uint256"
        }
      ],
      "name": "IssuedPeriod",
      "type": "event"
    },
    {
      "anonymous": false,
      "inputs": [
        {
          "indexed": true,
          "name": "staker",
          "type": "address"
        },
        {
          "indexed": false,
          "name": "amount",
          "type": "uint256"
        }
      ],
      "name": "NewStake",
      "type": "event"
    },
    {
      "anonymous": false,
      "inputs": [
        {
          "indexed": true,
          "name": "staker",
          "type": "address"
        },
        {
          "indexed": false,
          "name": "stakeidx",
          "type": "uint256"
        }
      ],
      "name": "StakeClaimed",
      "type": "event"
    },
    {
      "anonymous": false,
      "inputs": [
        {
          "indexed": false,
          "name": "diseaseindex",
          "type": "uint256"
        },
        {
          "indexed": false,
          "name": "title",
          "type": "string"
        },
        {
          "indexed": false,
          "name": "description",
          "type": "string"
        }
      ],
      "name": "NewDisease",
      "type": "event"
    },
    {
      "anonymous": false,
      "inputs": [
        {
          "indexed": false,
          "name": "proposed_release_hash",
          "type": "bytes32"
        },
        {
          "indexed": false,
          "name": "diseasehash",
          "type": "bytes32"
        },
        {
          "indexed": false,
          "name": "title",
          "type": "string"
        },
        {
          "indexed": false,
          "name": "description",
          "type": "string"
        }
      ],
      "name": "NewProposal",
      "type": "event"
    },
    {
      "anonymous": false,
      "inputs": [
        {
          "indexed": true,
          "name": "from",
          "type": "address"
        },
        {
          "indexed": true,
          "name": "to",
          "type": "address"
        },
        {
          "indexed": false,
          "name": "tokens",
          "type": "uint256"
        }
      ],
      "name": "Transfer",
      "type": "event"
    },
    {
      "anonymous": false,
      "inputs": [
        {
          "indexed": true,
          "name": "tokenOwner",
          "type": "address"
        },
        {
          "indexed": true,
          "name": "spender",
          "type": "address"
        },
        {
          "indexed": false,
          "name": "tokens",
          "type": "uint256"
        }
      ],
      "name": "Approval",
      "type": "event"
    },
    {
      "anonymous": false,
      "inputs": [
        {
          "indexed": true,
          "name": "from",
          "type": "address"
        },
        {
          "indexed": false,
          "name": "blockreward",
          "type": "uint256"
        },
        {
          "indexed": false,
          "name": "epochCount",
          "type": "uint256"
        },
        {
          "indexed": false,
          "name": "newChallengeNumber",
          "type": "bytes32"
        }
      ],
      "name": "Mint",
      "type": "event"
    },
    {
      "constant": false,
      "inputs": [],
      "name": "newPeriod",
      "outputs": [],
      "payable": false,
      "stateMutability": "nonpayable",
      "type": "function"
    },
    {
      "constant": false,
      "inputs": [
        {
          "name": "_staker",
          "type": "address"
        },
        {
          "name": "_amount",
          "type": "uint256"
        }
      ],
      "name": "eticatobosoms",
      "outputs": [
        {
          "name": "success",
          "type": "bool"
        }
      ],
      "payable": false,
      "stateMutability": "nonpayable",
      "type": "function"
    },
    {
      "constant": false,
      "inputs": [
        {
          "name": "_stakeidx",
          "type": "uint256"
        }
      ],
      "name": "stakeclmidx",
      "outputs": [],
      "payable": false,
      "stateMutability": "nonpayable",
      "type": "function"
    },
    {
      "constant": true,
      "inputs": [
        {
          "name": "_staker",
          "type": "address"
        }
      ],
      "name": "stakescount",
      "outputs": [
        {
          "name": "slength",
          "type": "uint256"
        }
      ],
      "payable": false,
      "stateMutability": "view",
      "type": "function"
    },
    {
      "constant": false,
      "inputs": [
        {
          "name": "_name",
          "type": "string"
        },
        {
          "name": "_description",
          "type": "string"
        }
      ],
      "name": "createdisease",
      "outputs": [],
      "payable": false,
      "stateMutability": "nonpayable",
      "type": "function"
    },
    {
      "constant": false,
      "inputs": [
        {
          "name": "_diseasehash",
          "type": "bytes32"
        },
        {
          "name": "_title",
          "type": "string"
        },
        {
          "name": "_description",
          "type": "string"
        },
        {
          "name": "raw_release_hash",
          "type": "string"
        },
        {
          "name": "old_release_hash",
          "type": "string"
        },
        {
          "name": "grandparent_hash",
          "type": "string"
        }
      ],
      "name": "propose",
      "outputs": [],
      "payable": false,
      "stateMutability": "nonpayable",
      "type": "function"
    },
    {
      "constant": false,
      "inputs": [
        {
          "name": "_proposed_release_hash",
          "type": "bytes32"
        },
        {
          "name": "_approved",
          "type": "bool"
        },
        {
          "name": "_amount",
          "type": "uint256"
        }
      ],
      "name": "votebyhash",
      "outputs": [],
      "payable": false,
      "stateMutability": "nonpayable",
      "type": "function"
    },
    {
      "constant": true,
      "inputs": [
        {
          "name": "tokenOwner",
          "type": "address"
        }
      ],
      "name": "bosomsOf",
      "outputs": [
        {
          "name": "_bosoms",
          "type": "uint256"
        }
      ],
      "payable": false,
      "stateMutability": "view",
      "type": "function"
    },
    {
      "constant": true,
      "inputs": [
        {
          "name": "_name",
          "type": "string"
        }
      ],
      "name": "getdiseasehashbyName",
      "outputs": [
        {
          "name": "_diseasehash",
          "type": "bytes32"
        }
      ],
      "payable": false,
      "stateMutability": "view",
      "type": "function"
    }
  ],
  "bytecode": "0x60c0604052600560808190527f457469636100000000000000000000000000000000000000000000000000000060a0908152620000409160009190620004ad565b506040805180820190915260038082527f455449000000000000000000000000000000000000000000000000000000000060209092019182526200008791600191620004ad565b506012600255610400600d5562010000600e557e04000000000000000000000000000000000000000000000000000000000000600f556015805460ff191690556301dfe200601855603c60195560f0601a8190556001601b55601c5568056bc75e2d63100000601d819055678ac7230489e80000601e556032601f5560038190553060009081526008602052604090205462000131916401000000006200300a6200020582021704565b306000908152600860205260409020556904772abe6c93ed94622e60055560025462a037a0600a91820a02905560155460ff16156200016f57600080fd5b6015805460ff19166001179055600060175568012253ff998b28052d601255600f5460105543600b55620001ab6401000000006200021c810204565b6d014a713d95c1c369e4c10bb9816860045560068054600160a060020a031916331790556040805160608101909152602780825262003d1560208301398051620001fe91600791602090910190620004ad565b5062000552565b818101828110156200021657600080fd5b92915050565b600c546200023a9060016401000000006200300a6200020582021704565b600c819055600d54908115156200024d57fe5b06151562000268576200026864010000000062000273810204565b600019430140601155565b600b54600d54439190910390603c81028083101562000369576000620002c384620002ae846064640100000000620036b26200043282021704565b9064010000000062002fe96200045a82021704565b90506000620002fe6103e8620002e9846064640100000000620032436200047d82021704565b90640100000000620036d76200049382021704565b90506200035d6200034582620003306107d06010546200045a6401000000000262002fe9179091906401000000009004565b90640100000000620036b26200043282021704565b60105490640100000000620032436200047d82021704565b60105550620004019050565b60006200038b82620002ae866064640100000000620036b26200043282021704565b90506000620003b16103e8620002e9846064640100000000620032436200047d82021704565b9050620003fb620003e382620003306107d06010546200045a6401000000000262002fe9179091906401000000009004565b601054906401000000006200300a6200020582021704565b60105550505b43600b55600e5460105410156200041957600e546010555b600f5460105411156200042d57600f546010555b505050565b8181028215806200044e57508183828115156200044b57fe5b04145b15156200021657600080fd5b60008082116200046957600080fd5b81838115156200047557fe5b049392505050565b6000828211156200048d57600080fd5b50900390565b600081831115620004a657508062000216565b5090919050565b828054600181600116156101000203166002900490600052602060002090601f016020900481019282601f10620004f057805160ff191683800117855562000520565b8280016001018555821562000520579182015b828111156200052057825182559160200191906001019062000503565b506200052e92915062000532565b5090565b6200054f91905b808211156200052e576000815560010162000539565b90565b6137b380620005626000396000f3fe6080604052600436106103d5576000357c01000000000000000000000000000000000000000000000000000000009004806370a082311161020f578063bf6fc7251161012a578063dc6e9cf9116100bd578063f08a01f81161008c578063f08a01f8146114fe578063f8d8268314611531578063fb3e22e11461155b578063fc84abb714611585576103d5565b8063dc6e9cf91461142f578063dd62ed3e14611444578063ea4a11041461147f578063ecd3cb82146114d4576103d5565b8063d2c69dfa116100f9578063d2c69dfa1461139a578063d40170d7146113d2578063d732b835146113e7578063d74ce8c51461141a576103d5565b8063bf6fc72514611322578063cb9ae7071461135b578063cf70fa4014611370578063d03150c614611385576103d5565b806395d89b41116101a2578063a9059cbb11610171578063a9059cbb1461120c578063b4ef00f014611245578063b5ade81b146112f8578063b64077691461130d576103d5565b806395d89b411461119757806397566aa0146111ac57806399690178146111e2578063a5ec87e4146111f7576103d5565b806388858985116101de57806388858985146110c95780638a769d35146110f35780638ae0368b146111085780639386775a1461111d576103d5565b806370a082311461103057806381269a5614611063578063829965cc1461109f57806387a2a9d6146110b4576103d5565b806332ed5b12116102ff578063584b62a1116102925780636de7410c116102615780636de7410c14610fdc5780636de9f32b14610ff15780636fbbbf1d146110065780636fd396d61461101b576103d5565b8063584b62a114610dcf5780635dfa739614610e265780635e11544b14610e59578063648cf85f14610e6e576103d5565b80634b44c6aa116102ce5780634b44c6aa14610cae5780634d853ee514610d565780634ef3762814610d875780635708416414610d9c576103d5565b806332ed5b1214610a38578063366c41a314610b75578063410e1b0714610b8a57806346459b2214610b9f576103d5565b80631801fbe51161037757806323b872dd1161034657806323b872dd1461099857806327e235e3146109db578063313ce56714610a0e57806332e9970814610a23576103d5565b80631801fbe51461066857806318160ddd146106985780631853f0a8146106ad5780632248731d146106c2576103d5565b80630bd92a73116103b35780630bd92a73146104d85780631081a47e14610614578063163aa00d1461063e57806317da485f14610653576103d5565b8063047fc9aa146103da57806306fdde0314610401578063095ea7b31461048b575b600080fd5b3480156103e657600080fd5b506103ef6115b8565b60408051918252519081900360200190f35b34801561040d57600080fd5b506104166115be565b6040805160208082528351818301528351919283929083019185019080838360005b83811015610450578181015183820152602001610438565b50505050905090810190601f16801561047d5780820380516001836020036101000a031916815260200191505b509250505060405180910390f35b34801561049757600080fd5b506104c4600480360360408110156104ae57600080fd5b50600160a060020a03813516906020013561164c565b604080519115158252519081900360200190f35b3480156104e457600080fd5b50610612600480360360408110156104fb57600080fd5b81019060208101813564010000000081111561051657600080fd5b82018360208201111561052857600080fd5b8035906020019184600183028401116401000000008311171561054a57600080fd5b91908080601f016020809104026020016040519081016040528093929190818152602001838380828437600092019190915250929594936020810193503591505064010000000081111561059d57600080fd5b8201836020820111156105af57600080fd5b803590602001918460018302840111640100000000831117156105d157600080fd5b91908080601f0160208091040260200160405190810160405280939291908181526020018383808284376000920191909152509295506116dd945050505050565b005b34801561062057600080fd5b506103ef6004803603602081101561063757600080fd5b5035611a16565b34801561064a57600080fd5b506103ef611a28565b34801561065f57600080fd5b506103ef611a2e565b34801561067457600080fd5b506104c46004803603604081101561068b57600080fd5b5080359060200135611a4d565b3480156106a457600080fd5b506103ef611bc3565b3480156106b957600080fd5b506103ef611bc9565b3480156106ce57600080fd5b50610612600480360360c08110156106e557600080fd5b8135919081019060408101602082013564010000000081111561070757600080fd5b82018360208201111561071957600080fd5b8035906020019184600183028401116401000000008311171561073b57600080fd5b91908080601f016020809104026020016040519081016040528093929190818152602001838380828437600092019190915250929594936020810193503591505064010000000081111561078e57600080fd5b8201836020820111156107a057600080fd5b803590602001918460018302840111640100000000831117156107c257600080fd5b91908080601f016020809104026020016040519081016040528093929190818152602001838380828437600092019190915250929594936020810193503591505064010000000081111561081557600080fd5b82018360208201111561082757600080fd5b8035906020019184600183028401116401000000008311171561084957600080fd5b91908080601f016020809104026020016040519081016040528093929190818152602001838380828437600092019190915250929594936020810193503591505064010000000081111561089c57600080fd5b8201836020820111156108ae57600080fd5b803590602001918460018302840111640100000000831117156108d057600080fd5b91908080601f016020809104026020016040519081016040528093929190818152602001838380828437600092019190915250929594936020810193503591505064010000000081111561092357600080fd5b82018360208201111561093557600080fd5b8035906020019184600183028401116401000000008311171561095757600080fd5b91908080601f016020809104026020016040519081016040528093929190818152602001838380828437600092019190915250929550611bcf945050505050565b3480156109a457600080fd5b506104c4600480360360608110156109bb57600080fd5b50600160a060020a03813581169160208101359091169060400135611ff1565b3480156109e757600080fd5b506103ef600480360360208110156109fe57600080fd5b5035600160a060020a03166120fc565b348015610a1a57600080fd5b506103ef61210e565b348015610a2f57600080fd5b506103ef612114565b348015610a4457600080fd5b50610a6260048036036020811015610a5b57600080fd5b503561211a565b6040518088815260200187815260200186815260200185815260200184600160a060020a0316600160a060020a031681526020018060200180602001838103835285818151815260200191508051906020019080838360005b83811015610ad3578181015183820152602001610abb565b50505050905090810190601f168015610b005780820380516001836020036101000a031916815260200191505b50838103825284518152845160209182019186019080838360005b83811015610b33578181015183820152602001610b1b565b50505050905090810190601f168015610b605780820380516001836020036101000a031916815260200191505b50995050505050505050505060405180910390f35b348015610b8157600080fd5b506103ef612275565b348015610b9657600080fd5b506103ef61227b565b348015610bab57600080fd5b50610bc960048036036020811015610bc257600080fd5b5035612281565b604051808481526020018060200180602001838103835285818151815260200191508051906020019080838360005b83811015610c10578181015183820152602001610bf8565b50505050905090810190601f168015610c3d5780820380516001836020036101000a031916815260200191505b50838103825284518152845160209182019186019080838360005b83811015610c70578181015183820152602001610c58565b50505050905090810190601f168015610c9d5780820380516001836020036101000a031916815260200191505b509550505050505060405180910390f35b348015610cba57600080fd5b50610cd860048036036020811015610cd157600080fd5b50356123ba565b604051808d81526020018c81526020018b81526020018a6003811115610cfa57fe5b60ff168152602001896003811115610d0e57fe5b60ff1681529715156020890152506040808801969096526060870194909452608086019290925260a085015260c084015260e083015251908190036101000195509350505050f35b348015610d6257600080fd5b50610d6b61241e565b60408051600160a060020a039092168252519081900360200190f35b348015610d9357600080fd5b506103ef61242d565b348015610da857600080fd5b506103ef60048036036020811015610dbf57600080fd5b5035600160a060020a0316612433565b348015610ddb57600080fd5b50610e0860048036036040811015610df257600080fd5b50600160a060020a038135169060200135612445565b60408051938452602084019290925282820152519081900360600190f35b348015610e3257600080fd5b506103ef60048036036020811015610e4957600080fd5b5035600160a060020a0316612471565b348015610e6557600080fd5b5061061261248c565b348015610e7a57600080fd5b50610e9860048036036020811015610e9157600080fd5b5035612589565b60405180806020018060200180602001848103845287818151815260200191508051906020019080838360005b83811015610edd578181015183820152602001610ec5565b50505050905090810190601f168015610f0a5780820380516001836020036101000a031916815260200191505b50848103835286518152865160209182019188019080838360005b83811015610f3d578181015183820152602001610f25565b50505050905090810190601f168015610f6a5780820380516001836020036101000a031916815260200191505b50848103825285518152855160209182019187019080838360005b83811015610f9d578181015183820152602001610f85565b50505050905090810190601f168015610fca5780820380516001836020036101000a031916815260200191505b50965050505050505060405180910390f35b348015610fe857600080fd5b50610416612693565b348015610ffd57600080fd5b506103ef6126ee565b34801561101257600080fd5b506103ef6126f4565b34801561102757600080fd5b50610d6b6126fa565b34801561103c57600080fd5b506103ef6004803603602081101561105357600080fd5b5035600160a060020a0316612709565b34801561106f57600080fd5b506104c46004803603608081101561108657600080fd5b5080359060208101359060408101359060600135612724565b3480156110ab57600080fd5b506103ef61277e565b3480156110c057600080fd5b506103ef612784565b3480156110d557600080fd5b506103ef600480360360208110156110ec57600080fd5b503561278a565b3480156110ff57600080fd5b506103ef61279c565b34801561111457600080fd5b506103ef6127a2565b34801561112957600080fd5b506111566004803603604081101561114057600080fd5b5080359060200135600160a060020a03166127a8565b6040805197885260208801969096529315158686015291151560608601526080850152600160a060020a031660a084015260c0830152519081900360e00190f35b3480156111a357600080fd5b506104166127fc565b3480156111b857600080fd5b506103ef600480360360608110156111cf57600080fd5b5080359060208101359060400135612856565b3480156111ee57600080fd5b506103ef61289c565b34801561120357600080fd5b506103ef6128a2565b34801561121857600080fd5b506104c46004803603604081101561122f57600080fd5b50600160a060020a0381351690602001356128a8565b34801561125157600080fd5b506103ef6004803603602081101561126857600080fd5b81019060208101813564010000000081111561128357600080fd5b82018360208201111561129557600080fd5b803590602001918460018302840111640100000000831117156112b757600080fd5b91908080601f016020809104026020016040519081016040528093929190818152602001838380828437600092019190915250929550612966945050505050565b34801561130457600080fd5b506103ef6129ce565b34801561131957600080fd5b506103ef6129d4565b34801561132e57600080fd5b506104c46004803603604081101561134557600080fd5b50600160a060020a0381351690602001356129da565b34801561136757600080fd5b506103ef612a1c565b34801561137c57600080fd5b506103ef612a22565b34801561139157600080fd5b506103ef612a28565b3480156113a657600080fd5b50610612600480360360608110156113bd57600080fd5b50803590602081013515159060400135612a2e565b3480156113de57600080fd5b506103ef612d80565b3480156113f357600080fd5b506103ef6004803603602081101561140a57600080fd5b5035600160a060020a0316612d86565b34801561142657600080fd5b506103ef612d98565b34801561143b57600080fd5b506103ef612d9e565b34801561145057600080fd5b506103ef6004803603604081101561146757600080fd5b50600160a060020a0381358116916020013516612da4565b34801561148b57600080fd5b506114a9600480360360208110156114a257600080fd5b5035612dcf565b6040805195865260208601949094528484019290925260608401526080830152519081900360a00190f35b3480156114e057600080fd5b50610612600480360360208110156114f757600080fd5b5035612dfd565b34801561150a57600080fd5b506103ef6004803603602081101561152157600080fd5b5035600160a060020a0316612f3e565b34801561153d57600080fd5b506103ef6004803603602081101561155457600080fd5b5035612f59565b34801561156757600080fd5b50610e986004803603602081101561157e57600080fd5b5035612f6b565b34801561159157600080fd5b506103ef600480360360208110156115a857600080fd5b5035600160a060020a0316612fd7565b60035481565b6000805460408051602060026001851615610100026000190190941693909304601f810184900484028201840190925281815292918301828280156116445780601f1061161957610100808354040283529160200191611644565b820191906000526020600020905b81548152906001019060200180831161162757829003601f168201915b505050505081565b3360009081526008602052604081205482111561166857600080fd5b6000821161167557600080fd5b336000818152600960209081526040808320600160a060020a03881680855290835292819020869055805186815290519293927f8c5be1e5ebec7d5bd14f71427d1e84f3dd0314c0f7b2291e5b200ac8c7c3b925929181900390910190a35060015b92915050565b601d543360009081526008602052604090205410156116fb57600080fd5b61170730601d546128a8565b5060006002836040516020018082805190602001908083835b6020831061173f5780518252601f199092019160209182019101611720565b6001836020036101000a0380198251168184511680821785525050505050509050019150506040516020818303038152906040526040518082805190602001908083835b602083106117a25780518252601f199092019160209182019101611783565b51815160209384036101000a60001901801990921691161790526040519190930194509192505080830381855afa1580156117e1573d6000803e3d6000fd5b5050506040513d60208110156117f657600080fd5b50516027805460010190556000818152602860205260409020549091501561181d57600080fd5b60408051606081018252828152602080820186815282840186905260275460009081526026835293909320825181559251805192939261186392600185019201906136ef565b506040820151805161187f9160028401916020909101906136ef565b509050506027546028600083815260200190815260200160002081905550806029846040518082805190602001908083835b602083106118d05780518252601f1990920191602091820191016118b1565b6001836020036101000a0380198251168184511680821785525050505050509050019150509081526020016040518091039020819055507f93c49c8e82ac37419e0bd454c617e7bc2735fb664182ddb06a31ae693c854e1f6027548484604051808481526020018060200180602001838103835285818151815260200191508051906020019080838360005b8381101561197457818101518382015260200161195c565b50505050905090810190601f1680156119a15780820380516001836020036101000a031916815260200191505b50838103825284518152845160209182019186019080838360005b838110156119d45781810151838201526020016119bc565b50505050905090810190601f168015611a015780820380516001836020036101000a031916815260200191505b509550505050505060405180910390a1505050565b60286020526000908152604090205481565b60145481565b6000611a47601054600f54612fe990919063ffffffff16565b90505b90565b601154604080516020808201939093526c0100000000000000000000000033028183015260548082018690528251808303909101815260749091019091528051910120600090828114611a9f57600080fd5b601054811115611aae57600080fd5b60115460009081526016602052604090208054908290558015611ad057600080fd5b600a5460175410611add57fe5b601254601754611af29163ffffffff61300a16565b601755601254600354611b0a9163ffffffff61300a16565b60035560125433600090815260086020526040902054611b2f9163ffffffff61300a16565b336000818152600860205260409020919091556013805473ffffffffffffffffffffffffffffffffffffffff1916909117905543601455611b6e61301a565b601254600c54601154604080519384526020840192909252828201525133917fcf6fbb9dcea7d07263ab4f5c3a92f53af33dffc421d9d121e1c74b307e68189d919081900360600190a2506001949350505050565b60035490565b60255481565b600086815260286020526040812054118015611bfb575060275460008781526028602052604090205411155b1515611c0657600080fd5b600086815260286020908152604080832054835260269091529020548614611c2d57600080fd5b6000600284886040516020018083805190602001908083835b60208310611c655780518252601f199092019160209182019101611c46565b51815160209384036101000a600019018019909216911617905292019384525060408051808503815293820190819052835193945092839250908401908083835b60208310611cc55780518252601f199092019160209182019101611ca6565b51815160209384036101000a60001901801990921691161790526040519190930194509192505080830381855afa158015611d04573d6000803e3d6000fd5b5050506040513d6020811015611d1957600080fd5b5051602b805460019081019091556000828152602a60205260409020015490915080151580611d5557506000828152602a602052604090205415155b15611d5f57600080fd5b6000611d7a6019546018544201612fe990919063ffffffff16565b6000818152602460205260409020549091501515611d9a57611d9a61248c565b6000838152602a60209081526040808320602b548155600281018d90558484526024835292205460038301556001820185905560048201805473ffffffffffffffffffffffffffffffffffffffff1916331790558951611e02916005840191908c01906136ef565b508751611e1890600683019060208b01906136ef565b506000848152602d6020908152604090912088519091611e3c9183918b01906136ef565b508651611e5290600183019060208a01906136ef565b508551611e6890600283019060208901906136ef565b506000858152602c60205260408120600381018054600260ff199091161762ffff0019166102001790556004810182905560058101829055600681018290556007810182905560088101829055600981019190915542808255601c54016001820155611ed38661305a565b7fb372298bfeea14ffb2f51b20bf3934f25ec892effe92089cfc60668aa65eb5e1868d8d8d604051808581526020018481526020018060200180602001838103835285818151815260200191508051906020019080838360005b83811015611f45578181015183820152602001611f2d565b50505050905090810190601f168015611f725780820380516001836020036101000a031916815260200191505b50838103825284518152845160209182019186019080838360005b83811015611fa5578181015183820152602001611f8d565b50505050905090810190601f168015611fd25780820380516001836020036101000a031916815260200191505b50965050505050505060405180910390a1505050505050505050505050565b600160a060020a03831660009081526008602052604081205461201a908363ffffffff61324316565b600160a060020a0385166000908152600860209081526040808320939093556009815282822033835290522054612057908363ffffffff61324316565b600160a060020a03808616600090815260096020908152604080832033845282528083209490945591861681526008909152205461209b908363ffffffff61300a16565b600160a060020a0380851660008181526008602090815260409182902094909455805186815290519193928816927fddf252ad1be2c89b69c2b068fc378daa952ba7f163c4a11628f55a4df523b3ef92918290030190a35060019392505050565b60086020526000908152604090205481565b60025481565b60105490565b602a602090815260009182526040918290208054600180830154600280850154600386015460048701546005880180548b516101009882161598909802600019011694909404601f81018a90048a0287018a01909a528986529598939791969095600160a060020a03169490939092918301828280156121db5780601f106121b0576101008083540402835291602001916121db565b820191906000526020600020905b8154815290600101906020018083116121be57829003601f168201915b5050505060068301805460408051602060026001851615610100026000190190941693909304601f810184900484028201840190925281815294959493509083018282801561226b5780601f106122405761010080835404028352916020019161226b565b820191906000526020600020905b81548152906001019060200180831161224e57829003601f168201915b5050505050905087565b601d5481565b600a5481565b6026602090815260009182526040918290208054600180830180548651600293821615610100026000190190911692909204601f81018690048602830186019096528582529194929390929083018282801561231e5780601f106122f35761010080835404028352916020019161231e565b820191906000526020600020905b81548152906001019060200180831161230157829003601f168201915b50505060028085018054604080516020601f60001961010060018716150201909416959095049283018590048502810185019091528181529596959450909250908301828280156123b05780601f10612385576101008083540402835291602001916123b0565b820191906000526020600020905b81548152906001019060200180831161239357829003601f168201915b5050505050905083565b602c60205260009081526040902080546001820154600283015460038401546004850154600586015460068701546007880154600889015460099099015497989697959660ff8087169761010088048216976201000090049091169594939291908c565b600654600160a060020a031681565b60115490565b60316020526000908152604090205481565b603260209081526000928352604080842090915290825290208054600182015460029092015490919083565b600160a060020a031660009081526033602052604090205490565b60006124a76019546018544201612fe990919063ffffffff16565b60008181526024602052604090205490915080156124c457600080fd5b6021805460019081018083556040805160a0810182528281526020808201888152600083850181815260608501828152608086018381529783528480528683209551865592518589015551600285015590516003840155935160049092019190915593548683526024909452902082905560258054909101905561254790613258565b50602154604080519182526020820184905280517ff74223d764da704d974281758065d2eb6c9066dc940e3f549b72e894b0404aef9281900390910190a15050565b602e6020908152600091825260409182902080548351601f600260001961010060018616150201909316929092049182018490048402810184019094528084529092918391908301828280156126205780601f106125f557610100808354040283529160200191612620565b820191906000526020600020905b81548152906001019060200180831161260357829003601f168201915b505050505090806001018054600181600116156101000203166002900480601f01602080910402602001604051908101604052809291908181526020018280546001816001161561010002031660029004801561231e5780601f106122f35761010080835404028352916020019161231e565b6007805460408051602060026001851615610100026000190190941693909304601f810184900484028201840190925281815292918301828280156116445780601f1061161957610100808354040283529160200191611644565b60175481565b60275481565b601354600160a060020a031681565b600160a060020a031660009081526008602052604090205490565b6040805160208082018590526c01000000000000000000000000330282840152605480830188905283518084039091018152607490920190925280519101206000908281111561277357600080fd5b909314949350505050565b600c5481565b600f5481565b60246020526000908152604090205481565b60105481565b60115481565b60306020908152600092835260408084209091529082529020805460018201546002830154600384015460048501546005909501549394929360ff808416946101009094041692600160a060020a03169087565b60018054604080516020600284861615610100026000190190941693909304601f810184900484028201840190925281815292918301828280156116445780601f1061161957610100808354040283529160200191611644565b6040805160208082018490526c01000000000000000000000000330282840152605480830187905283518084039091018152607490920190925280519101209392505050565b601e5481565b602b5481565b60008082116128b657600080fd5b336000908152600860205260409020546128d6908363ffffffff61324316565b3360009081526008602052604080822092909255600160a060020a03851681522054612908908363ffffffff61300a16565b600160a060020a0384166000818152600860209081526040918290209390935580518581529051919233927fddf252ad1be2c89b69c2b068fc378daa952ba7f163c4a11628f55a4df523b3ef9281900390910190a350600192915050565b60006029826040518082805190602001908083835b6020831061299a5780518252601f19909201916020918201910161297b565b51815160209384036101000a6000190180199092169116179052920194855250604051938490030190922054949350505050565b600d5481565b60045481565b600033600160a060020a038416146129f157600080fd5b600082116129fe57600080fd5b612a0830836128a8565b50612a138383613395565b50600192915050565b600b5481565b60125481565b60235481565b6000838152602a6020526040812080549091108015612a505750838160010154145b1515612a5b57600080fd5b6004810154600090600160a060020a0316331415612a77575060015b6000858152602c602052604090206002600382810154610100900460ff1690811115612a9f57fe5b1415612aaa57600080fd5b6008810154600982015433600090815260316020526040902054861115612ad057600080fd5b33600090815260316020526040902054612af0908763ffffffff61324316565b3360008181526031602090815260408083209490945560038901548252808052838220928252603490529190912054612b2f908863ffffffff61300a16565b3360008181526034602090815260408083209490945560018a81015480845260308352858420858552909252939091208084019190915560028101805460ff19168c1580159190911761ff0019166101008b15150217909155600382018b90556004808301805473ffffffffffffffffffffffffffffffffffffffff19169094179093554260058301559187018054909301909255612bd75760068501805489019055612be2565b600785018054890190555b60078501546006860154601f54600092839280820192606480830293808403820293900302908484811515612c1357fe5b0410612c375760019550601f548484811515612c2b57fe5b041415612c3757600194505b60038b01805462ff0000191662010000871515021790558515612c6a578382811515612c5f57fe5b0460058c0155612c7c565b8381811515612c7557fe5b0460058c01555b60008b6005015410158015612c96575060648b6005015411155b1515612ca157600080fd5b8415612cdc5760038b8101805461ff0019169055600060088d0181905560098d01556002890180548c90039055880180548a90039055612d6e565b8515612d2f5760038b8101805461ff00191661010017905560048c015460068d01540260088d0181905560098d0181815560028b0180548e90039092019091555490890180548b90039091019055612d6e565b60038b8101805461ff001916905560048c015460078d01540260088d01819055600060098e015560028a0180548d90039091019055880180548a900390555b50505050505050505050505050505050565b60055481565b60336020526000908152604090205481565b60215481565b600e5481565b600160a060020a03918216600090815260096020908152604080832093909416825291909152205490565b6020805260009081526040902080546001820154600283015460038401546004909401549293919290919085565b600081118015612e1c5750336000908152603360205260409020548111155b1515612e2757600080fd5b336000908152603260209081526040808320848452909152902060028101544211612e5157600080fd5b8054600010612e5f57600080fd5b805430600090815260086020526040902054612e809163ffffffff61324316565b3060009081526008602052604080822092909255825433825291902054612eac9163ffffffff61300a16565b3360008181526008602090815260409182902093909355835481519081529051919230927fddf252ad1be2c89b69c2b068fc378daa952ba7f163c4a11628f55a4df523b3ef9281900390910190a360408051838152905133917f2aeea59856f5616c244717fd488ead1d1b5fd33608d9583a4607b4c4ba3631e4919081900360200190a2612f3a33836133f1565b5050565b600160a060020a031660009081526031602052604090205490565b60226020526000908152604090205481565b602d6020908152600091825260409182902080548351601f600260001961010060018616150201909316929092049182018490048402810184019094528084529092918391908301828280156126205780601f106125f557610100808354040283529160200191612620565b60346020526000908152604090205481565b6000808211612ff757600080fd5b818381151561300257fe5b049392505050565b818101828110156116d757600080fd5b600c5461302e90600163ffffffff61300a16565b600c819055600d549081151561304057fe5b06151561304f5761304f6134bb565b600019430140601155565b601e5433600090815260316020526040902054101561307857600080fd5b6000818152602a602052604081208054909110801561309a5750818160010154145b15156130a557600080fd5b6004810154600090600160a060020a03163314156130c1575060015b6000838152602c60205260409020600181015442106130df57600080fd5b6002600382810154610100900460ff16908111156130f957fe5b1461310357600080fd5b601e54336000908152603160205260409020546131259163ffffffff61324316565b3360008181526031602090815260408083209490945560038701548252808052838220601e549383526034909152929020546131669163ffffffff61300a16565b336000818152603460209081526040808320949094556001978801548083526030825284832084845290915292902080870192909255600280830180549615156101000261ff001960ff1990981689178816179055601e80546003808601919091556004808601805473ffffffffffffffffffffffffffffffffffffffff191690951790945542600595860155606494870194909455805460068701559185019690965583820180549095166103001790945583546008840181905560099093018390559381018054909201909155905491018054909101905550565b60008282111561325257600080fd5b50900390565b60008060215411151561326a57600080fd5b60008211801561327c57506021548211155b151561328757600080fd5b60008281526020805260409020805415156132a157600080fd5b805460009081526022602052604090205480156132bd57600080fd5b6000600254600a0a6301406f40026003541015156132f457506004546003546d314dc6448d9338c15b0a00000000909104026132f9565b506005545b600380548201905530600090815260086020526040902054613321908263ffffffff61300a16565b30600090815260086020908152604080832093909355855482526022815290829020839055602380546001019055602154825190815290810183905281517fc4d2a0744d2542d38943e09effa7977cb89527fce223d12bf02ff6de50526b92929181900390910190a1506001949350505050565b61339f82826135f9565b50601b54600160a060020a038316600090815260316020526040902054908202906133d0908263ffffffff61300a16565b600160a060020a039093166000908152603160205260409020929092555050565b6000811180156134195750600160a060020a0382166000908152603360205260409020548111155b151561342457600080fd5b600160a060020a03919091166000818152603260209081526040808320603380845282852080548652828552838620978652838620885481556001808a0154818301556002998a0154918a0191909155845160608101865287815280870188815281870189815284548a52958852958820905181559451908501559151929096019190915592909152919091528054600019019055565b600b54600d54439190910390603c8102808310156135635760006134f6846134ea84606463ffffffff6136b216565b9063ffffffff612fe916565b9050600061351d6103e861351184606463ffffffff61324316565b9063ffffffff6136d716565b90506135586135498261353d6107d0601054612fe990919063ffffffff16565b9063ffffffff6136b216565b6010549063ffffffff61324316565b601055506135ca9050565b600061357a826134ea86606463ffffffff6136b216565b905060006135956103e861351184606463ffffffff61324316565b90506135c46135b58261353d6107d0601054612fe990919063ffffffff16565b6010549063ffffffff61300a16565b60105550505b43600b55600e5460105410156135e157600e546010555b600f5460105411156135f457600f546010555b505050565b600080821161360757600080fd5b600160a060020a03831660008181526033602090815260408083208054600190810191829055601a5483516060810185528981524281870181815292018186018181528989526032885286892095895294875296859020905181559051918101919091559051600290910155805186815290519293927f42e99fbad9601d25ee3bb515eeee966f97c3c383adadbe5720f651df8c18989d929181900390910190a25060019392505050565b8181028215806136cc57508183828115156136c957fe5b04145b15156116d757600080fd5b6000818311156136e85750806116d7565b5090919050565b828054600181600116156101000203166002900490600052602060002090601f016020900481019282601f1061373057805160ff191683800117855561375d565b8280016001018555821561375d579182015b8281111561375d578251825591602001919060010190613742565b5061376992915061376d565b5090565b611a4a91905b80821115613769576000815560010161377356fea165627a7a723058205d4feb7b0b007e0698e0e6f2fd50cffd8903db4ffad16c4bbfc879a54ff7880e0029446973636f766572696e67206f7572206265737420467574757265732e204b6576696e20576164",
  "source": "pragma solidity ^0.5.2;\n// ----------------------------------------------------------------------------\n//this ICO smart contract has been compiled and tested with the Solidity Version 0.5.2\n//There are some minor changes comparing to ICO contract compiled with versions < 0.5.0\n// ----------------------------------------------------------------------------\n\n\n// ----------------------------------------------------------------------------\n\n// Safe maths\n\n// ----------------------------------------------------------------------------\n\nlibrary SafeMath {\n\n    function add(uint a, uint b) internal pure returns (uint c) {\n\n        c = a + b;\n\n        require(c >= a);\n\n    }\n\n    function sub(uint a, uint b) internal pure returns (uint c) {\n\n        require(b <= a);\n\n        c = a - b;\n\n    }\n\n    function mul(uint a, uint b) internal pure returns (uint c) {\n\n        c = a * b;\n\n        require(a == 0 || c / a == b);\n\n    }\n\n    function div(uint a, uint b) internal pure returns (uint c) {\n\n        require(b > 0);\n\n        c = a / b;\n\n    }\n\n}\n\n\n\nlibrary ExtendedMath {\n\n\n    //return the smaller of the two inputs (a or b)\n    function limitLessThan(uint a, uint b) internal pure returns (uint c) {\n\n        if(a > b) return b;\n\n        return a;\n\n    }\n}\n\n\n\ncontract ERC20Interface {\n    function totalSupply() public view returns (uint);\n    function balanceOf(address tokenOwner) public view returns (uint balance);\n    function transfer(address to, uint tokens) public returns (bool success);\n\n\n    function allowance(address tokenOwner, address spender) public view returns (uint remaining);\n    function approve(address spender, uint tokens) public returns (bool success);\n    function transferFrom(address from, address to, uint tokens) public returns (bool success);\n\n    event Transfer(address indexed from, address indexed to, uint tokens);\n    event Approval(address indexed tokenOwner, address indexed spender, uint tokens);\n}\n\n\n\ncontract EticaToken is ERC20Interface{\n\n    using SafeMath for uint;\n    using ExtendedMath for uint;\n\n    string public name = \"Etica\";\n    string public symbol = \"ETI\";\n    uint public decimals = 18;\n\n    uint public supply;\n    // fixed inflation rate after etica supply has reached 21 Million\n    uint public inflationrate;\n    uint public  periodrewardtemp; // Amount of ETI issued per period during phase1\n\n    // We don't want fake Satoshi again. Using it to prove founder's identity\n    address public founder;\n    string public foundermsgproof;\n\n    mapping(address => uint) public balances;\n\n    mapping(address => mapping(address => uint)) allowed;\n\n    //allowed[0x1111....][0x22222...] = 100;\n\n    // Mining system state variables\n    uint public _totalMiningSupply;\n\n\n\n     uint public latestDifficultyPeriodStarted;\n\n\n\n    uint public epochCount;//number of 'blocks' mined\n\n\n    uint public _BLOCKS_PER_READJUSTMENT = 1024;\n\n\n    //a little number\n    uint public  _MINIMUM_TARGET = 2**16;\n\n\n      //a big number is easier ; just find a solution that is smaller\n    //uint public  _MAXIMUM_TARGET = 2**224;  bitcoin uses 224\n    uint public  _MAXIMUM_TARGET = 2**242; // used for tests 243 much faster, 242 seems to be the limit where mining gets much harder\n    // uint public  _MAXIMUM_TARGET = 2**234; // used for prod\n\n\n    uint public miningTarget;\n\n    bytes32 public challengeNumber;   //generate a new one when a new reward is minted\n\n\n    uint public blockreward;\n\n\n    address public lastRewardTo;\n    uint public lastRewardEthBlockNumber;\n\n    bool locked = false;\n\n    mapping(bytes32 => bytes32) solutionForChallenge;\n\n    uint public tokensMinted;\n\n    // Mining system state variables\n\n\n\n\n    event Transfer(address indexed from, address indexed to, uint tokens);\n    event Approval(address indexed tokenOwner, address indexed spender, uint tokens);\n    event Mint(address indexed from, uint blockreward, uint epochCount, bytes32 newChallengeNumber);\n\n\n    constructor() public{\n      supply = 100 * (10**18); // initial supply equals 100 ETI\n      balances[address(this)] = balances[address(this)].add(100 * (10**18)); // 100 ETI as the default contract balance. To avoid any issue that could arise from negative contract balance because of significant numbers approximations\n\n\n      // PHASE 1 (before 21 Million ETI has been reached) -->\n      // 10 500 000 ETI to be issued as periodrewardtemp for ETICA reward system\n      // 10 500 000 ETI to be MINED\n\n\n      // <--phase1--> periodrewardtemp:\n      // fixed Etica issued per period (7 days) during phase1 (before 21 Million ETI has been reached)\n      // The amount of reward will be twice of first rewards of phase 2\n      // Calculation of first rewards of phase 2:\n      // 21 000 000 * 0.26180339887498948482045868343656 = 549787,13763747791812296323521678 ETI (first year reward)\n      // 549787,13763747791812296323521678 / 52.1429 = 10543,854247413893706007207792754 ETI (first weeks reward of phase2)\n      // 10543,854247413893706007207792754 * 2 = 21087,708494827787412014415585507 ETI\n      periodrewardtemp = 21087708494827787412014; // 21087,708494827787412014415585507 ETI per period (7 days) will take about 9,5491502812526287948853291408588 years to reach 10 500 000 ETI\n\n\n      // <--phase1--> mining:\n      _totalMiningSupply = 10500000 * 10**uint(decimals);\n\n      if(locked) revert();\n      locked = true;\n\n      tokensMinted = 0;\n\n\n      // The amount of etica mined per 7 days will be twice of first rewards of phase 2\n      // Calculation of first rewards of phase 2:\n      // 21 000 000 * 0.26180339887498948482045868343656 = 549787,13763747791812296323521678 ETI (first year reward)\n      // 549787,13763747791812296323521678 / 52.1429 = 10543,854247413893706007207792754 ETI (first weeks reward of phase2)\n      // 10543,854247413893706007207792754 * 2 = 21087,708494827787412014415585507 ETI per 7 days\n      // 21087,708494827787412014415585507 ETI per 7 days = 20,920345728995820845252396414193 ETI per block (10 minutes)\n      blockreward = 20920345728995820845;\n\n      miningTarget = _MAXIMUM_TARGET;\n\n      latestDifficultyPeriodStarted = block.number;\n\n      _startNewMiningEpoch();\n\n      // PHASE 1 <--\n\n      // --> PHASE 2\n      // Golden number power 2: 1,6180339887498948482045868343656 * 1,6180339887498948482045868343656 = 2.6180339887498948482045868343656;\n      inflationrate = 26180339887498948482045868343656; // (need to multiple by 10^(-33) to get 0.026180339887498948482045868343656);\n\n       // PHASE 2 <--\n\n\n       //The founder gets nothing! You must mine or earn the Etica ERC20 token\n       //balances[founder] = _totalMiningSupply;\n       //Transfer(address(0), founder, _totalMiningSupply);\n      founder = msg.sender;\n      foundermsgproof = \"Discovering our best Futures. Kevin Wad\";\n    }\n\n\n    function allowance(address tokenOwner, address spender) view public returns(uint){\n        return allowed[tokenOwner][spender];\n    }\n\n\n    //approve allowance\n    function approve(address spender, uint tokens) public returns(bool){\n        require(balances[msg.sender] >= tokens);\n        require(tokens > 0);\n\n        allowed[msg.sender][spender] = tokens;\n        emit Approval(msg.sender, spender, tokens);\n        return true;\n    }\n\n    //transfer tokens from the  owner account to the account that calls the function\n    function transferFrom(address from, address to, uint tokens) public returns(bool){\n\n      balances[from] = balances[from].sub(tokens);\n\n      allowed[from][msg.sender] = allowed[from][msg.sender].sub(tokens);\n\n      balances[to] = balances[to].add(tokens);\n\n      emit Transfer(from, to, tokens);\n\n      return true;\n    }\n\n    function totalSupply() public view returns (uint){\n        return supply;\n    }\n\n    function balanceOf(address tokenOwner) public view returns (uint balance){\n         return balances[tokenOwner];\n     }\n\n\n    function transfer(address to, uint tokens) public returns (bool success){\n         require(tokens > 0);\n\n         balances[msg.sender] = balances[msg.sender].sub(tokens);\n\n         balances[to] = balances[to].add(tokens);\n\n         emit Transfer(msg.sender, to, tokens);\n\n         return true;\n     }\n\n\n     // -------------  Mining system functions ---------------- //\n\n         function mint(uint256 nonce, bytes32 challenge_digest) public returns (bool success) {\n\n\n             //the PoW must contain work that includes a recent ethereum block hash (challenge number) and the msg.sender's address to prevent MITM attacks\n             bytes32 digest =  keccak256(abi.encodePacked(challengeNumber, msg.sender, nonce));\n\n             //the challenge digest must match the expected\n             if (digest != challenge_digest) revert();\n\n             //the digest must be smaller than the target\n             if(uint256(digest) > miningTarget) revert();\n\n\n             //only allow one reward for each challenge\n              bytes32 solution = solutionForChallenge[challengeNumber];\n              solutionForChallenge[challengeNumber] = digest;\n              if(solution != 0x0) revert();  //prevent the same answer from awarding twice\n\n\n             //Cannot mint more tokens than there are: maximum ETI ever mined: _totalMiningSupply + blockreward\n             assert(tokensMinted < _totalMiningSupply);\n\n             tokensMinted = tokensMinted.add(blockreward);\n             supply = supply.add(blockreward);\n             balances[msg.sender] = balances[msg.sender].add(blockreward);\n\n             //set readonly diagnostics data\n             lastRewardTo = msg.sender;\n             lastRewardEthBlockNumber = block.number;\n\n\n              _startNewMiningEpoch();\n\n               emit Mint(msg.sender, blockreward, epochCount, challengeNumber );\n\n            return true;\n\n         }\n\n\n     //a new 'block' to be mined\n     function _startNewMiningEpoch() internal {\n\n\n       epochCount = epochCount.add(1);\n\n       //every so often, readjust difficulty. Dont readjust when deploying\n       if(epochCount % _BLOCKS_PER_READJUSTMENT == 0)\n       {\n         _reAdjustDifficulty();\n       }\n\n\n       //make the latest ethereum block hash a part of the next challenge for PoW to prevent pre-mining future blocks\n       //do this last since this is a protection mechanism in the mint() function\n       challengeNumber = blockhash(block.number - 1);\n\n     }\n\n\n\n\n     //https://en.bitcoin.it/wiki/Difficulty#What_is_the_formula_for_difficulty.3F\n     //as of 2017 the bitcoin difficulty was up to 17 zeroes, it was only 8 in the early days\n\n     //readjust the target by 5 percent\n     function _reAdjustDifficulty() internal {\n\n\n         uint ethBlocksSinceLastDifficultyPeriod = block.number - latestDifficultyPeriodStarted;\n         //assume 360 ethereum blocks per hour\n\n         //we want miners to spend 10 minutes to mine each 'block', about 60 ethereum blocks = one Mining system epoch\n         uint epochsMined = _BLOCKS_PER_READJUSTMENT; //256\n\n         uint targetEthBlocksPerDiffPeriod = epochsMined * 60; //should be 60 times slower than ethereum\n\n         //if there were less eth blocks passed in time than expected\n         if( ethBlocksSinceLastDifficultyPeriod < targetEthBlocksPerDiffPeriod )\n         {\n           uint excess_block_pct = (targetEthBlocksPerDiffPeriod.mul(100)).div( ethBlocksSinceLastDifficultyPeriod );\n\n           uint excess_block_pct_extra = excess_block_pct.sub(100).limitLessThan(1000);\n           // If there were 5% more blocks mined than expected then this is 5.  If there were 100% more blocks mined than expected then this is 100.\n\n           //make it harder\n           miningTarget = miningTarget.sub(miningTarget.div(2000).mul(excess_block_pct_extra));   //by up to 50 %\n         }else{\n           uint shortage_block_pct = (ethBlocksSinceLastDifficultyPeriod.mul(100)).div( targetEthBlocksPerDiffPeriod );\n\n           uint shortage_block_pct_extra = shortage_block_pct.sub(100).limitLessThan(1000); //always between 0 and 1000\n\n           //make it easier\n           miningTarget = miningTarget.add(miningTarget.div(2000).mul(shortage_block_pct_extra));   //by up to 50 %\n         }\n\n\n\n         latestDifficultyPeriodStarted = block.number;\n\n         if(miningTarget < _MINIMUM_TARGET) //very difficult\n         {\n           miningTarget = _MINIMUM_TARGET;\n         }\n\n         if(miningTarget > _MAXIMUM_TARGET) //very easy\n         {\n           miningTarget = _MAXIMUM_TARGET;\n         }\n     }\n\n\n     //this is a recent ethereum block hash, used to prevent pre-mining future blocks\n     function getChallengeNumber() public view returns (bytes32) {\n         return challengeNumber;\n     }\n\n     //the number of zeroes the digest of the PoW solution requires.  Auto adjusts\n      function getMiningDifficulty() public view returns (uint) {\n         return _MAXIMUM_TARGET.div(miningTarget);\n     }\n\n     function getMiningTarget() public view returns (uint) {\n        return miningTarget;\n    }\n\n\n     //help debug mining software\n     function getMintDigest(uint256 nonce, bytes32 challenge_digest, bytes32 challenge_number) public view returns (bytes32 digesttest) {\n\n         bytes32 digest = keccak256(abi.encodePacked(challenge_number,msg.sender,nonce));\n\n         return digest;\n\n       }\n\n         //help debug mining software\n       function checkMintSolution(uint256 nonce, bytes32 challenge_digest, bytes32 challenge_number, uint testTarget) public view returns (bool success) {\n\n           bytes32 digest = keccak256(abi.encodePacked(challenge_number,msg.sender,nonce));\n\n           if(uint256(digest) > testTarget) revert();\n\n           return (digest == challenge_digest);\n\n         }\n\n\n// ------------------      Mining system functions   -------------------------  //\n\n// ------------------------------------------------------------------------\n\n// Don't accept ETH\n\n// ------------------------------------------------------------------------\n\nfunction () payable external {\n\n    revert();\n\n}\n\n}\n\n\n\n\ncontract EticaRelease is EticaToken {\n  /* --------- PROD -------------\nuint TESTING_STARTING_BLOCK_NUMBER = 52 weeks; // used only for testing as ganache starts at block number 0\nuint REWARD_INTERVAL = 7 days; // periods duration (in number of blocks) 42000 blocks = 7 jours (6000 blocks per day)\nuint STAKING_DURATION = 28 days; // default stake duration (in number of blocks) 168000 blocks = 28 jours (6000 blocks per day)\nuint ETICA_TO_BOSOM_RATIO = 1; //\n     --------- PROD ------------- */\n\n\nuint TESTING_STARTING_BLOCK_NUMBER = 52 weeks; // used only for testing as ganache starts at block number 0\nuint REWARD_INTERVAL = 1 minutes; // periods duration 7 jours\nuint STAKING_DURATION = 4 minutes; // default stake duration 28 jours\nuint ETICA_TO_BOSOM_RATIO = 1; //\nuint DEFAULT_VOTING_TIME = 4 minutes; // default stake duration 28 days\n\nuint public DISEASE_CREATION_AMOUNT = 100 * 10**uint(decimals); // 100 ETI amount to pay for creating a new disease. Necessary in order to avoid spam. Will create a function that periodically increase it in order to take into account inflation\nuint public PROPOSAL_DEFAULT_VOTE = 10 * 10**uint(decimals); // 10 ETI amount to pay for creating a new proposal. Necessary in order to avoid spam. Will create a function that periodically increase it in order to take into account inflation\n\n\nuint TIER_ONE_THRESHOLD = 50; // threshold for proposal to be accepted. 50 means 50 % 60 would mean 60%\n\nstruct Period{\n    uint id;\n    uint interval;\n    uint curation_sum;\n    uint editor_sum;\n    uint total_voters; // TOTAL nb of voters in this period\n}\n\n  struct Stake{\n      uint amount;\n      uint startBlock;\n      uint endBlock;\n  }\n\n  // -----------  PROPOSALS  ------------  //\n\n\n// Stuct used only inside Proposals as Proposals' s Targets.\n// The software has no independent Target structs with Target ids and details ...\n  struct Target{\n      string name;\n      string kind; // Example: GPCR, Enzyme, Protein Activity ...\n      uint status; // Example: Exploration, Validation, Fully Validated, Null ...\n      string freefield; // used by front end apps and communities to fit their needs and process\n  }\n\n  // Stuct used only inside Proposals as Proposals' s Compounds.\n  // The software has no independent Compounds structs with Compounds ids and details ...\n    struct Compound{\n        string name;\n        string kind; // Example: Small Organic Molecules, Large Protein Molecules ...\n        uint result; // Example: Failure, Success, Undertermined, Null ...\n        string freefield; // used by front end apps and communities to fit their needs and process\n    }\n\n\n// general information of Proposal:\n  struct Proposal{\n      uint id;\n      bytes32 proposed_release_hash; // Hash of \"raw_release_hash + name of Disease\"\n      bytes32 disease_id;\n      uint period_id;\n      address proposer; // account address of the proposer\n      string title; // Title of the Proposal\n      string description; // Description of the Proposal\n  }\n\n// main data of Proposal:\n  struct ProposalData{\n\n      uint starttime; // epoch time of the proposal\n      uint endtime;  // voting limite\n      uint finalized_time; // when first voteclm() was called\n      ProposalStatus status; // will be initialized with value ProposalStatus.Pending\n      ProposalStatus prestatus; // will be initialzed with value ProposalStatus.Pending\n      bool istie;  // will be initialized with value 0. if prop is tie it won't slash nor reward participants\n      uint nbvoters;\n      uint slashingratio; // will be initialized with value 0. solidity does not support float type. So will emulate float type by using uint\n      uint forvotes;\n      uint againstvotes;\n      uint lastcuration_weight; // will be initialized with value 0.\n      uint lasteditor_weight; // will be initialized with value 0.\n  }\n\n  struct ProposalIpfs{\n    // IPFS hashes of the files:\n    string raw_release_hash; // IPFS hash of the files of the proposal\n    string old_release_hash; // raw IPFS hash of the old version\n    string grandparent_hash; // raw IPFS hash of the grandparent\n  }\n\n  struct ProposalFreefield{\n    string firstfield;\n    string secondfield;\n    string thirdfield;\n  }\n\n\n  struct ProposalTenor{\n      Target[] targets;\n      Compound[] compounds;\n  }\n\n  // -----------  PROPOSALS  ------------  //\n\n  // -----------  VOTES  ----------------  //\n  struct Vote{\n    uint id; // not necessary, may remove this field\n    bytes32 proposal_hash; // proposed_release_hash of proposal\n    bool approve;\n    bool is_editor;\n    uint amount;\n    address voter; // address of the voter\n    uint timestamp; // epoch time of the vote\n  }\n    // -----------  VOTES  ----------------  //\n\n  struct Disease{\n      bytes32 disease_hash;\n      string name;\n      string description;\n  }\n\n\nenum ProposalStatus { Rejected, Accepted, Pending, Singlevoter }\n\nmapping(uint => Period) public periods;\nuint public periodsCounter;\nmapping(uint => uint) public PeriodsIssued; // keeps track of which periods have already issued ETI\nuint public PeriodsIssuedCounter;\nmapping(uint => uint) public IntervalsPeriods; // keeps track of which intervals have already a period\nuint public IntervalsPeriodsCounter;\n\n\nmapping(uint => Disease) public diseases; // keeps track of which intervals have already a period\nuint public diseasesCounter;\nmapping(bytes32 => uint) public diseasesbyIds; // example:    [leiojej757575ero] => [0]  where leiojej757575ero is id of a Disease\nmapping(string => bytes32) private diseasesbyNames; // example:    [\"name of a disease\"] => [leiojej757575ero]  where leiojej757575ero is id of a Disease. Set visibility to private because mapping with strings as keys have issues when public visibility\n\n// -----------  PROPOSALS  ------------  //\nmapping(bytes32 => Proposal) public proposals;\nuint public proposalsCounter;\n\nmapping(bytes32 => ProposalData) public propsdatas;\nmapping(bytes32 => ProposalIpfs) public propsipfs;\nmapping(bytes32 => ProposalFreefield) public propsfreefields;\nmapping(bytes32 => ProposalTenor) private propstenors;\n// -----------  PROPOSALS  ------------  //\n\n// -----------  VOTES  ----------------  //\nmapping(bytes32 => mapping(address => Vote)) public votes;\n// -----------  VOTES  ----------------  //\n\nmapping(address => uint) public bosoms;\nmapping(address => mapping(uint => Stake)) public stakes;\nmapping(address => uint) public stakesCounters; // keeps track of how many stakes for each user\n// stakes ----> slashing function will need to loop trough stakes. Can create issues for claiming votes:\n// will create a function to gather stakes when user has to much stakes.\n// The function will take a completion_time as parameter and will loop trough 50 indexes and will put all stakes with\n// lower completion_time into a  single new stake with parameter completion_time\n\n// Blocked ETI amount, user has votes with this amount in process and can't retrieve this amount before the system knows if the user has to be slahed\nmapping(address => uint) public blockedeticas;\n\nevent CreatedPeriod(uint period_id, uint interval);\nevent IssuedPeriod(uint period_id, uint periodreward);\nevent NewStake(address indexed staker, uint amount);\nevent StakeClaimed(address indexed staker, uint stakeidx);\nevent NewDisease(uint diseaseindex, string title, string description);\nevent NewProposal(bytes32 proposed_release_hash, bytes32 diseasehash, string title, string description);\n\n\n\n// -------------  Reward system functions ---------------- //\n\nfunction issue(uint _id) internal returns (bool success) {\n  // we check whether there is at least one period\n  require(periodsCounter > 0);\n\n  // we check that the period exists\n  require(_id > 0 && _id <= periodsCounter);\n\n  // we retrieve the period\n  Period storage period = periods[_id];\n\n  // we check that the period is legit and has been retrieved\n  require(period.id != 0);\n\n\n//only allow one issuance for each period\nuint rwd = PeriodsIssued[period.id];\nif(rwd != 0x0) revert();  //prevent the same period from issuing twice\n\nuint _periodsupply;\n\n// era 2 (after 21 000 000 ETI has been reached)\nif(supply >= 21000000 * 10**(decimals)){\n uint _rate = uint(inflationrate / 10**(33));\n _periodsupply = supply * _rate;\n}\n// era 1 (before 21 000 000 ETI has been reached)\nelse {\n  _periodsupply = periodrewardtemp;\n}\n\nsupply = supply + _periodsupply;\nbalances[address(this)] = balances[address(this)].add(_periodsupply);\nPeriodsIssued[period.id] = _periodsupply;\nPeriodsIssuedCounter = PeriodsIssuedCounter + 1;\n\nemit IssuedPeriod(periodsCounter, _periodsupply);\n\nreturn true;\n\n}\n\n// --- WARNING this function should be internal, will be called by propose proposal function and by constructor for first call\n// let public for testing only\n// create a period\nfunction newPeriod() public {\n\n  uint _interval = uint((block.timestamp + TESTING_STARTING_BLOCK_NUMBER).div(REWARD_INTERVAL));\n\n  //only allow one period for each interval\n  uint rwd = IntervalsPeriods[_interval];\n  if(rwd != 0x0) revert();  //prevent the same interval from having 2 periods\n\n\n  periodsCounter++;\n\n  // store this interval period\n  periods[periodsCounter] = Period(\n    periodsCounter,\n    _interval,\n    0x0, //_curation_sum\n    0x0, //_editor_sum\n    0x0 //_total_voters; // TOTAL nb of voters in this period\n  );\n\n  // an interval cannot have 2 Periods\n  IntervalsPeriods[_interval] = periodsCounter;\n  IntervalsPeriodsCounter++;\n\n  // issue ETI for this Period Reward\n  issue(periodsCounter);\n\n  emit CreatedPeriod(periodsCounter, _interval);\n}\n\n\n\n\n// -------------  Reward system functions ---------------- //\n\n\n// ------- STAKING ---------- //\n// Stake etica in exchange for bosom\nfunction eticatobosoms(address _staker, uint _amount) public returns (bool success){\n  require(msg.sender == _staker);\n  require(_amount > 0); // even if transfer require amount > 0 I prefer checking for more security and very few more gas\n  // transfer _amount ETI from staker wallet to contract balance:\n  transfer(address(this), _amount);\n\n  // Get bosoms and add Stake\n  bosomget(_staker, _amount);\n\n\n  return true;\n\n}\n\n\n\n// ----  Get bosoms and add Stake ------  //\n\n// Only contract must be able to call this function:\nfunction bosomget (address _staker, uint _amount) internal {\n\naddStake(_staker, _amount);\n\nuint newBosoms = _amount * ETICA_TO_BOSOM_RATIO;\nbosoms[_staker] = bosoms[_staker].add(newBosoms);\n\n}\n\n\nfunction addStake(address _staker, uint _amount) internal returns (bool success) {\n\n    require(_amount > 0); // may not be necessary as _amount is uint but I let it for better security\n    stakesCounters[_staker] = stakesCounters[_staker] + 1; // notice that first stake will have the index of 1 thus not 0 !\n\n    uint endBlock = block.timestamp + STAKING_DURATION;\n\n    // store this stake in _staker's stakes with the index stakesCounters[_staker]\n    stakes[_staker][stakesCounters[_staker]] = Stake(\n      _amount, // stake amount\n      block.timestamp, // StartBlock\n      endBlock // EndBlock\n    );\n\n    emit NewStake(_staker, _amount);\n\n    return true;\n}\n\n// ----  Get bosoms and add Stake ------  //\n\n\n// ----  Redeem a Stake ------  //\n\nfunction stakeclmidx (uint _stakeidx) public {\n\n  // we check that the stake exists\n  require(_stakeidx > 0 && _stakeidx <= stakesCounters[msg.sender]);\n\n  // we retrieve the stake\n  Stake storage _stake = stakes[msg.sender][_stakeidx];\n\n  // The stake must be over\n  require(block.timestamp > _stake.endBlock);\n\n  require(_stake.amount > 0);\n\n  // transfer back ETI from contract to staker:\n  balances[address(this)] = balances[address(this)].sub(_stake.amount);\n\n  balances[msg.sender] = balances[msg.sender].add(_stake.amount);\n\n  emit Transfer(address(this), msg.sender, _stake.amount);\n  emit StakeClaimed(msg.sender, _stakeidx);\n\n  // deletes the stake\n  _deletestake(msg.sender, _stakeidx);\n\n}\n\nfunction _deletestake(address _staker,uint _index) internal {\n  // we check that the stake exists\n  require(_index > 0 && _index <= stakesCounters[_staker]);\n\n  // replace value of stake to be deleted by value of last stake\n  stakes[_staker][_index] = stakes[_staker][stakesCounters[_staker]];\n\n  // remove last stake\n  stakes[_staker][stakesCounters[_staker]] = Stake(\n    0x0, // amount\n    0x0, // StartBlock\n    0x0 // EndBlock\n    );\n\n  // updates stakesCounter of _staker\n  stakesCounters[_staker] = stakesCounters[_staker] - 1;\n}\n\n// ----  Redeem a Stake ------  //\n\n\nfunction stakescount(address _staker) public view returns (uint slength){\n  return stakesCounters[_staker];\n}\n\n// ------- STAKING ---------- //\n\n\n\n\n\nfunction createdisease(string memory _name, string memory _description) public {\n\n\n  // --- REQUIRE PAYMENT FOR ADDING A DISEASE TO CREATE A BARRIER TO ENTRY AND AVOID SPAM --- //\n\n  // make sure the user has enough ETI to create a disease\n  require(balances[msg.sender] >= DISEASE_CREATION_AMOUNT);\n  // transfer DISEASE_CREATION_AMOUNT ETI from user wallet to contract wallet:\n  transfer(address(this), DISEASE_CREATION_AMOUNT);\n\n  // --- REQUIRE PAYMENT FOR ADDING A DISEASE TO CREATE A BARRIER TO ENTRY AND AVOID SPAM --- //\n\n\n  bytes32 _diseasehash = sha256(abi.encodePacked(_name));\n\n  diseasesCounter = diseasesCounter + 1; // notice that first disease will have the index of 1 thus not 0 !\n\n  //check: if the disease is new we continue, otherwise we exit\n   if(diseasesbyIds[_diseasehash] != 0x0) revert();  //prevent the same disease from being created twice. The software manages diseases uniqueness based on their unique english name. Note that even the first disease will nott have index of 0 thus should pass this check\n\n\n   // store this stake in _staker's stakes with the index stakesCounters[_staker]\n   diseases[diseasesCounter] = Disease(\n     _diseasehash,\n     _name,\n     _description\n   );\n\n   // Updates diseasesbyIds and diseasesbyNames mappings:\n   diseasesbyIds[_diseasehash] = diseasesCounter;\n   diseasesbyNames[_name] = _diseasehash;\n\n   emit NewDisease(diseasesCounter, _name, _description);\n\n}\n\n\n\nfunction propose(bytes32 _diseasehash, string memory _title, string memory _description, string memory raw_release_hash,\n  string memory old_release_hash, string memory grandparent_hash) public {\n\n    //check if the disease exits\n     require(diseasesbyIds[_diseasehash] > 0 && diseasesbyIds[_diseasehash] <= diseasesCounter);\n     if(diseases[diseasesbyIds[_diseasehash]].disease_hash != _diseasehash) revert(); // second check not necessary but I decided to add it as the gas cost value for security is worth it\n\n\n     bytes32 _proposed_release_hash = sha256(abi.encodePacked(raw_release_hash, _diseasehash));\n\n     proposalsCounter = proposalsCounter + 1; // notice that first proposal will have the index of 1 thus not 0 !\n\n\n     // store this disease in diseases mapping.\n     // ------- Warning ----\n     // Check that proposal does not already exist\n     // only allow one proposal for each {raw_release_hash,  _diseasehash} combinasion\n      bytes32 existing_proposal = proposals[_proposed_release_hash].proposed_release_hash;\n      if(existing_proposal != 0x0 || proposals[_proposed_release_hash].id != 0) revert();  //prevent the same raw_release_hash from being submited twice on same proposal. Double check for better security and slightly higher gas cost even though one would be enough !\n\n     uint _current_interval = uint((block.timestamp + TESTING_STARTING_BLOCK_NUMBER).div(REWARD_INTERVAL));\n\n      // Create new Period if this current interval did not have its Period created yet\n      if(IntervalsPeriods[_current_interval] == 0x0){\n        newPeriod();\n      }\n\n     Proposal storage proposal = proposals[_proposed_release_hash];\n     // ------- Warning ----\n\n       proposal.id = proposalsCounter;\n       proposal.disease_id = _diseasehash; // _diseasehash has already been checked to equal diseases[diseasesbyIds[_diseasehash]].disease_hash\n       proposal.period_id = IntervalsPeriods[_current_interval];\n       proposal.proposed_release_hash = _proposed_release_hash; // Hash of \"raw_release_hash + name of Disease\",\n       proposal.proposer = msg.sender;\n       proposal.title = _title;\n       proposal.description = _description;\n\n\n       // Proposal IPFS:\n       ProposalIpfs storage proposalipfs = propsipfs[_proposed_release_hash];\n       proposalipfs.raw_release_hash = raw_release_hash;\n       proposalipfs.old_release_hash = old_release_hash;\n       proposalipfs.grandparent_hash = grandparent_hash;\n\n\n       //  Proposal Data:\n       ProposalData storage proposaldata = propsdatas[_proposed_release_hash];\n       //starttime,\n       //endtime,\n       //finalized_time,\n       proposaldata.status = ProposalStatus.Pending;\n       proposaldata.istie = false;\n       proposaldata.prestatus = ProposalStatus.Pending;\n       proposaldata.nbvoters = 0;\n       proposaldata.slashingratio = 0;\n       proposaldata.forvotes = 0;\n       proposaldata.againstvotes = 0;\n       proposaldata.lastcuration_weight = 0;\n       proposaldata.lasteditor_weight = 0;\n       proposaldata.starttime = block.timestamp;\n       proposaldata.endtime = block.timestamp + DEFAULT_VOTING_TIME;\n\n\n  // --- REQUIRE DEFAULT VOTE TO CREATE A BARRIER TO ENTRY AND AVOID SPAM --- //\n\n  defaultvote(_proposed_release_hash);\n\n  // --- REQUIRE DEFAULT VOTE TO CREATE A BARRIER TO ENTRY AND AVOID SPAM --- //\n\n\n    emit NewProposal(_proposed_release_hash, _diseasehash, _title, _description);\n\n}\n\n\n\n function defaultvote(bytes32 _proposed_release_hash) internal {\n\n   require(bosoms[msg.sender] >= PROPOSAL_DEFAULT_VOTE); // may not be necessary as wil be handled by safemath sub function: bosoms[msg.sender].sub(PROPOSAL_DEFAULT_VOTE);\n\n   //check if the proposal exists and that we get the right proposal:\n   Proposal storage proposal = proposals[_proposed_release_hash];\n   require(proposal.id > 0 && proposal.proposed_release_hash == _proposed_release_hash);\n\n   // voterIsProposer can be used for the Linking Reward attribution:\n   bool voterIsProposer = false;\n   if (msg.sender == proposal.proposer) {\n   voterIsProposer = true;\n   }\n\n   ProposalData storage proposaldata = propsdatas[_proposed_release_hash];\n    // Verify voting is still in progress\n    require( block.timestamp < proposaldata.endtime);\n\n\n    // default vote can't be called twice on same proposal:\n    // can vote for proposal only if default vote hasn't changed prestatus of Proposal yet. Thus can default vote only if default vote has not occured yet\n    require(proposaldata.prestatus == ProposalStatus.Pending);\n\n    // Consume bosom:\n    bosoms[msg.sender] = bosoms[msg.sender].sub(PROPOSAL_DEFAULT_VOTE);\n\n\n   // get Period of Proposal:\n   Period storage period = periods[proposal.period_id];\n\n\n    // Block Eticas in eticablkdtbl to prevent user from unstaking before eventual slash\n    blockedeticas[msg.sender] = blockedeticas[msg.sender].add(PROPOSAL_DEFAULT_VOTE);\n\n\n    // store vote:\n    Vote storage vote = votes[proposal.proposed_release_hash][msg.sender];\n    vote.proposal_hash = proposal.proposed_release_hash;\n    vote.approve = true;\n    vote.is_editor = voterIsProposer;\n    vote.amount = PROPOSAL_DEFAULT_VOTE;\n    vote.voter = msg.sender;\n    vote.timestamp = block.timestamp;\n\n\n\n      // UPDATE PROPOSAL:\n      proposaldata.slashingratio = 100;\n      proposaldata.forvotes = PROPOSAL_DEFAULT_VOTE;\n      proposaldata.nbvoters = 1;\n      proposaldata.prestatus = ProposalStatus.Singlevoter;\n      proposaldata.lastcuration_weight = PROPOSAL_DEFAULT_VOTE;\n      proposaldata.lasteditor_weight = PROPOSAL_DEFAULT_VOTE;\n\n      // UPDATE PERIOD:\n      period.curation_sum = period.curation_sum + PROPOSAL_DEFAULT_VOTE;\n      period.editor_sum = period.editor_sum + PROPOSAL_DEFAULT_VOTE;\n\n }\n\n\n function votebyhash(bytes32 _proposed_release_hash, bool _approved, uint _amount) public {\n\n//check if the proposal exists and that we get the right proposal:\nProposal storage proposal = proposals[_proposed_release_hash];\nrequire(proposal.id > 0 && proposal.proposed_release_hash == _proposed_release_hash);\n\n bool voterIsProposer = false;\n if (msg.sender == proposal.proposer) {\n voterIsProposer = true;\n }\n\n\nProposalData storage proposaldata = propsdatas[_proposed_release_hash];\n // Verify voting is still in progress\n //require( block.number < proposaldata.endtime);\n\n require(proposaldata.prestatus != ProposalStatus.Pending); // can vote for proposal only if default vote has changed prestatus of Proposal. Thus can vote only if default vote occured as supposed to\n\nuint _old_proposal_curationweight = proposaldata.lastcuration_weight;\nuint _old_proposal_editorweight = proposaldata.lasteditor_weight;\n\n // Consume bosom:\n require(bosoms[msg.sender] >= _amount); // may not be necessary as handled by safemath sub function\n bosoms[msg.sender] = bosoms[msg.sender].sub(_amount);\n\n\n// get Period of Proposal:\nPeriod storage period = periods[proposal.period_id];\n\n\n // Block Eticas in eticablkdtbl to prevent user from unstaking before eventual slash\n blockedeticas[msg.sender] = blockedeticas[msg.sender].add(_amount);\n\n\n // store vote:\n Vote storage vote = votes[proposal.proposed_release_hash][msg.sender];\n vote.proposal_hash = proposal.proposed_release_hash;\n vote.approve = _approved;\n vote.is_editor = voterIsProposer;\n vote.amount = _amount;\n vote.voter = msg.sender;\n vote.timestamp = block.timestamp;\n\n proposaldata.nbvoters = proposaldata.nbvoters + 1;\n\n     // PROPOSAL VAR UPDATE\n     if(_approved){\n      proposaldata.forvotes = proposaldata.forvotes + _amount;\n     }\n     else {\n       proposaldata.againstvotes = proposaldata.againstvotes + _amount;\n     }\n\n\n     // Determine slashing conditions\n     bool _isapproved = false;\n     bool _istie = false;\n     uint totalVotes = proposaldata.forvotes + proposaldata.againstvotes;\n     uint _forvotes_numerator = proposaldata.forvotes * 100; // (newproposal_forvotes / totalVotes) will give a number between 0 and 1. Multiply by 100 to stare it as uint\n     uint _forvotesdiff_numerator = (proposaldata.forvotes - proposaldata.againstvotes) * 100; // ((newproposal_forvotes - proposaldata.againstvotes) / totalVotes) will give a number between 0 and 1. Multiply by 100 to stare it as uint\n     uint _againstvotesdiff_numerator = (proposaldata.againstvotes - proposaldata.forvotes) * 100; // ((proposaldata.againstvotes - newproposal_forvotes) / totalVotes) will give a number between 0 and 1. Multiply by 100 to stare it as uint\n\n     if ((_forvotes_numerator / totalVotes) >= TIER_ONE_THRESHOLD){\n    _isapproved = true;\n    if ((_forvotes_numerator / totalVotes) == TIER_ONE_THRESHOLD){\n        _istie = true;\n    }\n    }\n\n    proposaldata.istie = _istie;\n\n    if (_isapproved){\n    proposaldata.slashingratio = _forvotesdiff_numerator / totalVotes;\n    }\n    else{\n    proposaldata.slashingratio = _againstvotesdiff_numerator / totalVotes;\n    }\n\n    // Make sure no weird bugs cause the slash reward to under/overflow\n     require(proposaldata.slashingratio >=0 && proposaldata.slashingratio <= 100);\n\n\n         // Proposal and Period new weight\n         if (_istie) {\n         proposaldata.prestatus =  ProposalStatus.Rejected;\n         proposaldata.lastcuration_weight = 0;\n         proposaldata.lasteditor_weight = 0;\n         // Proposal tied, remove proposal curation and editor sum\n         period.curation_sum = period.curation_sum - _old_proposal_curationweight;\n         period.editor_sum = period.editor_sum - _old_proposal_editorweight;\n         }\n         else {\n             // Proposal approved, strengthen curation sum\n         if (_isapproved){\n             proposaldata.prestatus =  ProposalStatus.Accepted;\n             proposaldata.lastcuration_weight = proposaldata.forvotes * proposaldata.nbvoters;\n             proposaldata.lasteditor_weight = proposaldata.forvotes * proposaldata.nbvoters;\n             // Proposal approved, replace proposal curation and editor sum with forvotes\n             period.curation_sum = period.curation_sum - _old_proposal_curationweight + proposaldata.lastcuration_weight;\n             period.editor_sum = period.editor_sum - _old_proposal_editorweight + proposaldata.lasteditor_weight;\n         }\n         else{\n             proposaldata.prestatus =  ProposalStatus.Rejected;\n             proposaldata.lastcuration_weight = proposaldata.againstvotes * proposaldata.nbvoters;\n             proposaldata.lasteditor_weight = 0;\n             // Proposal rejected, replace proposal curation sum with againstvotes and remove proposal editor sum\n             period.curation_sum = period.curation_sum - _old_proposal_curationweight + proposaldata.lastcuration_weight;\n             period.editor_sum = period.editor_sum - _old_proposal_editorweight;\n         }\n         }\n\n  }\n\n\n\n\n\n\n// get bosoms balance of user:\nfunction bosomsOf(address tokenOwner) public view returns (uint _bosoms){\n     return bosoms[tokenOwner];\n }\n\n function getdiseasehashbyName(string memory _name) public view returns (bytes32 _diseasehash){\n     return diseasesbyNames[_name];\n }\n\n\n}\n",
  "sourcePath": "/mnt/d/linux/ethereum/etica/contracts/EticaRelease.sol",
  "compiler": {
    "name": "solc",
    "version": "0.5.2+commit.1df8f40c.Emscripten.clang"
  },
  "schemaVersion": "3.0.9",
  "updatedAt": "2019-06-13T11:39:55.147Z",
  "devdoc": {
    "methods": {}
  },
  "userdoc": {
    "methods": {}
  }
}